{
	"Durian.sol": {
		"Durian": {
			"abi": [
				{
					"inputs": [
						{
							"internalType": "uint256",
							"name": "id",
							"type": "uint256"
						},
						{
							"internalType": "uint256",
							"name": "kind",
							"type": "uint256"
						},
						{
							"internalType": "uint256",
							"name": "weight",
							"type": "uint256"
						}
					],
					"stateMutability": "nonpayable",
					"type": "constructor"
				},
				{
					"inputs": [],
					"name": "getID",
					"outputs": [
						{
							"internalType": "uint256",
							"name": "",
							"type": "uint256"
						}
					],
					"stateMutability": "view",
					"type": "function"
				},
				{
					"inputs": [],
					"name": "getKind",
					"outputs": [
						{
							"internalType": "uint256",
							"name": "",
							"type": "uint256"
						}
					],
					"stateMutability": "view",
					"type": "function"
				},
				{
					"inputs": [],
					"name": "getTotalDurians",
					"outputs": [
						{
							"internalType": "uint256",
							"name": "",
							"type": "uint256"
						}
					],
					"stateMutability": "view",
					"type": "function"
				},
				{
					"inputs": [],
					"name": "getWeight",
					"outputs": [
						{
							"internalType": "uint256",
							"name": "",
							"type": "uint256"
						}
					],
					"stateMutability": "view",
					"type": "function"
				}
			],
			"devdoc": {
				"kind": "dev",
				"methods": {},
				"version": 1
			},
			"evm": {
				"assembly": "    /* \"Durian.sol\":59:679  contract Durian {\r... */\n  mstore(0x40, 0x80)\n    /* \"Durian.sol\":187:188  0 */\n  0x00\n    /* \"Durian.sol\":157:188  uint private _total_durians = 0 */\n  0x03\n  sstore\n    /* \"Durian.sol\":201:323  constructor(uint id, uint kind, uint weight) {\r... */\n  callvalue\n  dup1\n  iszero\n  tag_1\n  jumpi\n  0x00\n  dup1\n  revert\ntag_1:\n  pop\n  mload(0x40)\n  sub(codesize, bytecodeSize)\n  dup1\n  bytecodeSize\n  dup4\n  codecopy\n  dup2\n  dup2\n  add\n  0x40\n  mstore\n  dup2\n  add\n  swap1\n  tag_2\n  swap2\n  swap1\n  tag_3\n  jump\t// in\ntag_2:\n    /* \"Durian.sol\":263:265  id */\n  dup3\n    /* \"Durian.sol\":257:260  _id */\n  0x00\n    /* \"Durian.sol\":257:265  _id = id */\n  dup2\n  swap1\n  sstore\n  pop\n    /* \"Durian.sol\":284:288  kind */\n  dup2\n    /* \"Durian.sol\":276:281  _kind */\n  0x01\n    /* \"Durian.sol\":276:288  _kind = kind */\n  dup2\n  swap1\n  sstore\n  pop\n    /* \"Durian.sol\":309:315  weight */\n  dup1\n    /* \"Durian.sol\":299:306  _weight */\n  0x02\n    /* \"Durian.sol\":299:315  _weight = weight */\n  dup2\n  swap1\n  sstore\n  pop\n    /* \"Durian.sol\":201:323  constructor(uint id, uint kind, uint weight) {\r... */\n  pop\n  pop\n  pop\n    /* \"Durian.sol\":59:679  contract Durian {\r... */\n  jump(tag_6)\n    /* \"#utility.yul\":7:150   */\ntag_8:\n  0x00\n    /* \"#utility.yul\":95:101   */\n  dup2\n    /* \"#utility.yul\":89:102   */\n  mload\n    /* \"#utility.yul\":80:102   */\n  swap1\n  pop\n    /* \"#utility.yul\":111:144   */\n  tag_10\n    /* \"#utility.yul\":138:143   */\n  dup2\n    /* \"#utility.yul\":111:144   */\n  tag_11\n  jump\t// in\ntag_10:\n    /* \"#utility.yul\":70:150   */\n  swap3\n  swap2\n  pop\n  pop\n  jump\t// out\n    /* \"#utility.yul\":156:752   */\ntag_3:\n  0x00\n  dup1\n  0x00\n    /* \"#utility.yul\":309:311   */\n  0x60\n    /* \"#utility.yul\":297:306   */\n  dup5\n    /* \"#utility.yul\":288:295   */\n  dup7\n    /* \"#utility.yul\":284:307   */\n  sub\n    /* \"#utility.yul\":280:312   */\n  slt\n    /* \"#utility.yul\":277:279   */\n  iszero\n  tag_13\n  jumpi\n    /* \"#utility.yul\":325:326   */\n  0x00\n    /* \"#utility.yul\":322:323   */\n  dup1\n    /* \"#utility.yul\":315:327   */\n  revert\n    /* \"#utility.yul\":277:279   */\ntag_13:\n    /* \"#utility.yul\":368:369   */\n  0x00\n    /* \"#utility.yul\":393:457   */\n  tag_14\n    /* \"#utility.yul\":449:456   */\n  dup7\n    /* \"#utility.yul\":440:446   */\n  dup3\n    /* \"#utility.yul\":429:438   */\n  dup8\n    /* \"#utility.yul\":425:447   */\n  add\n    /* \"#utility.yul\":393:457   */\n  tag_8\n  jump\t// in\ntag_14:\n    /* \"#utility.yul\":383:457   */\n  swap4\n  pop\n    /* \"#utility.yul\":339:467   */\n  pop\n    /* \"#utility.yul\":506:508   */\n  0x20\n    /* \"#utility.yul\":532:596   */\n  tag_15\n    /* \"#utility.yul\":588:595   */\n  dup7\n    /* \"#utility.yul\":579:585   */\n  dup3\n    /* \"#utility.yul\":568:577   */\n  dup8\n    /* \"#utility.yul\":564:586   */\n  add\n    /* \"#utility.yul\":532:596   */\n  tag_8\n  jump\t// in\ntag_15:\n    /* \"#utility.yul\":522:596   */\n  swap3\n  pop\n    /* \"#utility.yul\":477:606   */\n  pop\n    /* \"#utility.yul\":645:647   */\n  0x40\n    /* \"#utility.yul\":671:735   */\n  tag_16\n    /* \"#utility.yul\":727:734   */\n  dup7\n    /* \"#utility.yul\":718:724   */\n  dup3\n    /* \"#utility.yul\":707:716   */\n  dup8\n    /* \"#utility.yul\":703:725   */\n  add\n    /* \"#utility.yul\":671:735   */\n  tag_8\n  jump\t// in\ntag_16:\n    /* \"#utility.yul\":661:735   */\n  swap2\n  pop\n    /* \"#utility.yul\":616:745   */\n  pop\n    /* \"#utility.yul\":267:752   */\n  swap3\n  pop\n  swap3\n  pop\n  swap3\n  jump\t// out\n    /* \"#utility.yul\":758:835   */\ntag_17:\n  0x00\n    /* \"#utility.yul\":824:829   */\n  dup2\n    /* \"#utility.yul\":813:829   */\n  swap1\n  pop\n    /* \"#utility.yul\":803:835   */\n  swap2\n  swap1\n  pop\n  jump\t// out\n    /* \"#utility.yul\":841:963   */\ntag_11:\n    /* \"#utility.yul\":914:938   */\n  tag_20\n    /* \"#utility.yul\":932:937   */\n  dup2\n    /* \"#utility.yul\":914:938   */\n  tag_17\n  jump\t// in\ntag_20:\n    /* \"#utility.yul\":907:912   */\n  dup2\n    /* \"#utility.yul\":904:939   */\n  eq\n    /* \"#utility.yul\":894:896   */\n  tag_21\n  jumpi\n    /* \"#utility.yul\":953:954   */\n  0x00\n    /* \"#utility.yul\":950:951   */\n  dup1\n    /* \"#utility.yul\":943:955   */\n  revert\n    /* \"#utility.yul\":894:896   */\ntag_21:\n    /* \"#utility.yul\":884:963   */\n  pop\n  jump\t// out\n    /* \"Durian.sol\":59:679  contract Durian {\r... */\ntag_6:\n  dataSize(sub_0)\n  dup1\n  dataOffset(sub_0)\n  0x00\n  codecopy\n  0x00\n  return\nstop\n\nsub_0: assembly {\n        /* \"Durian.sol\":59:679  contract Durian {\r... */\n      mstore(0x40, 0x80)\n      callvalue\n      dup1\n      iszero\n      tag_1\n      jumpi\n      0x00\n      dup1\n      revert\n    tag_1:\n      pop\n      jumpi(tag_2, lt(calldatasize, 0x04))\n      shr(0xe0, calldataload(0x00))\n      dup1\n      0x7fa9571f\n      eq\n      tag_3\n      jumpi\n      dup1\n      0xa9b4b780\n      eq\n      tag_4\n      jumpi\n      dup1\n      0xab9dbd07\n      eq\n      tag_5\n      jumpi\n      dup1\n      0xcb248b86\n      eq\n      tag_6\n      jumpi\n    tag_2:\n      0x00\n      dup1\n      revert\n        /* \"Durian.sol\":583:676  function getTotalDurians() public view returns(uint) {\r... */\n    tag_3:\n      tag_7\n      tag_8\n      jump\t// in\n    tag_7:\n      mload(0x40)\n      tag_9\n      swap2\n      swap1\n      tag_10\n      jump\t// in\n    tag_9:\n      mload(0x40)\n      dup1\n      swap2\n      sub\n      swap1\n      return\n        /* \"Durian.sol\":495:575  function getWeight() public view returns(uint) {\r... */\n    tag_4:\n      tag_11\n      tag_12\n      jump\t// in\n    tag_11:\n      mload(0x40)\n      tag_13\n      swap2\n      swap1\n      tag_10\n      jump\t// in\n    tag_13:\n      mload(0x40)\n      dup1\n      swap2\n      sub\n      swap1\n      return\n        /* \"Durian.sol\":331:403  function getID() public view returns(uint) {\r... */\n    tag_5:\n      tag_14\n      tag_15\n      jump\t// in\n    tag_14:\n      mload(0x40)\n      tag_16\n      swap2\n      swap1\n      tag_10\n      jump\t// in\n    tag_16:\n      mload(0x40)\n      dup1\n      swap2\n      sub\n      swap1\n      return\n        /* \"Durian.sol\":411:487  function getKind() public view returns(uint) {\r... */\n    tag_6:\n      tag_17\n      tag_18\n      jump\t// in\n    tag_17:\n      mload(0x40)\n      tag_19\n      swap2\n      swap1\n      tag_10\n      jump\t// in\n    tag_19:\n      mload(0x40)\n      dup1\n      swap2\n      sub\n      swap1\n      return\n        /* \"Durian.sol\":583:676  function getTotalDurians() public view returns(uint) {\r... */\n    tag_8:\n        /* \"Durian.sol\":630:634  uint */\n      0x00\n        /* \"Durian.sol\":654:668  _total_durians */\n      sload(0x03)\n        /* \"Durian.sol\":647:668  return _total_durians */\n      swap1\n      pop\n        /* \"Durian.sol\":583:676  function getTotalDurians() public view returns(uint) {\r... */\n      swap1\n      jump\t// out\n        /* \"Durian.sol\":495:575  function getWeight() public view returns(uint) {\r... */\n    tag_12:\n        /* \"Durian.sol\":536:540  uint */\n      0x00\n        /* \"Durian.sol\":560:567  _weight */\n      sload(0x02)\n        /* \"Durian.sol\":553:567  return _weight */\n      swap1\n      pop\n        /* \"Durian.sol\":495:575  function getWeight() public view returns(uint) {\r... */\n      swap1\n      jump\t// out\n        /* \"Durian.sol\":331:403  function getID() public view returns(uint) {\r... */\n    tag_15:\n        /* \"Durian.sol\":368:372  uint */\n      0x00\n        /* \"Durian.sol\":392:395  _id */\n      dup1\n      sload\n        /* \"Durian.sol\":385:395  return _id */\n      swap1\n      pop\n        /* \"Durian.sol\":331:403  function getID() public view returns(uint) {\r... */\n      swap1\n      jump\t// out\n        /* \"Durian.sol\":411:487  function getKind() public view returns(uint) {\r... */\n    tag_18:\n        /* \"Durian.sol\":450:454  uint */\n      0x00\n        /* \"Durian.sol\":474:479  _kind */\n      sload(0x01)\n        /* \"Durian.sol\":467:479  return _kind */\n      swap1\n      pop\n        /* \"Durian.sol\":411:487  function getKind() public view returns(uint) {\r... */\n      swap1\n      jump\t// out\n        /* \"#utility.yul\":7:125   */\n    tag_25:\n        /* \"#utility.yul\":94:118   */\n      tag_27\n        /* \"#utility.yul\":112:117   */\n      dup2\n        /* \"#utility.yul\":94:118   */\n      tag_28\n      jump\t// in\n    tag_27:\n        /* \"#utility.yul\":89:92   */\n      dup3\n        /* \"#utility.yul\":82:119   */\n      mstore\n        /* \"#utility.yul\":72:125   */\n      pop\n      pop\n      jump\t// out\n        /* \"#utility.yul\":131:353   */\n    tag_10:\n      0x00\n        /* \"#utility.yul\":262:264   */\n      0x20\n        /* \"#utility.yul\":251:260   */\n      dup3\n        /* \"#utility.yul\":247:265   */\n      add\n        /* \"#utility.yul\":239:265   */\n      swap1\n      pop\n        /* \"#utility.yul\":275:346   */\n      tag_30\n        /* \"#utility.yul\":343:344   */\n      0x00\n        /* \"#utility.yul\":332:341   */\n      dup4\n        /* \"#utility.yul\":328:345   */\n      add\n        /* \"#utility.yul\":319:325   */\n      dup5\n        /* \"#utility.yul\":275:346   */\n      tag_25\n      jump\t// in\n    tag_30:\n        /* \"#utility.yul\":229:353   */\n      swap3\n      swap2\n      pop\n      pop\n      jump\t// out\n        /* \"#utility.yul\":359:436   */\n    tag_28:\n      0x00\n        /* \"#utility.yul\":425:430   */\n      dup2\n        /* \"#utility.yul\":414:430   */\n      swap1\n      pop\n        /* \"#utility.yul\":404:436   */\n      swap2\n      swap1\n      pop\n      jump\t// out\n\n    auxdata: 0xa2646970667358221220aa2b78b65e3cb9a275a54aba2c10d6de98aea578cbeaccad1ea426755da9f45b64736f6c63430008000033\n}\n",
				"bytecode": {
					"linkReferences": {},
					"object": "6080604052600060035534801561001557600080fd5b5060405161024238038061024283398181016040528101906100379190610069565b8260008190555081600181905550806002819055505050506100d9565b600081519050610063816100c2565b92915050565b60008060006060848603121561007e57600080fd5b600061008c86828701610054565b935050602061009d86828701610054565b92505060406100ae86828701610054565b9150509250925092565b6000819050919050565b6100cb816100b8565b81146100d657600080fd5b50565b61015a806100e86000396000f3fe608060405234801561001057600080fd5b506004361061004c5760003560e01c80637fa9571f14610051578063a9b4b7801461006f578063ab9dbd071461008d578063cb248b86146100ab575b600080fd5b6100596100c9565b60405161006691906100ff565b60405180910390f35b6100776100d3565b60405161008491906100ff565b60405180910390f35b6100956100dd565b6040516100a291906100ff565b60405180910390f35b6100b36100e6565b6040516100c091906100ff565b60405180910390f35b6000600354905090565b6000600254905090565b60008054905090565b6000600154905090565b6100f98161011a565b82525050565b600060208201905061011460008301846100f0565b92915050565b600081905091905056fea2646970667358221220aa2b78b65e3cb9a275a54aba2c10d6de98aea578cbeaccad1ea426755da9f45b64736f6c63430008000033",
					"opcodes": "PUSH1 0x80 PUSH1 0x40 MSTORE PUSH1 0x0 PUSH1 0x3 SSTORE CALLVALUE DUP1 ISZERO PUSH2 0x15 JUMPI PUSH1 0x0 DUP1 REVERT JUMPDEST POP PUSH1 0x40 MLOAD PUSH2 0x242 CODESIZE SUB DUP1 PUSH2 0x242 DUP4 CODECOPY DUP2 DUP2 ADD PUSH1 0x40 MSTORE DUP2 ADD SWAP1 PUSH2 0x37 SWAP2 SWAP1 PUSH2 0x69 JUMP JUMPDEST DUP3 PUSH1 0x0 DUP2 SWAP1 SSTORE POP DUP2 PUSH1 0x1 DUP2 SWAP1 SSTORE POP DUP1 PUSH1 0x2 DUP2 SWAP1 SSTORE POP POP POP POP PUSH2 0xD9 JUMP JUMPDEST PUSH1 0x0 DUP2 MLOAD SWAP1 POP PUSH2 0x63 DUP2 PUSH2 0xC2 JUMP JUMPDEST SWAP3 SWAP2 POP POP JUMP JUMPDEST PUSH1 0x0 DUP1 PUSH1 0x0 PUSH1 0x60 DUP5 DUP7 SUB SLT ISZERO PUSH2 0x7E JUMPI PUSH1 0x0 DUP1 REVERT JUMPDEST PUSH1 0x0 PUSH2 0x8C DUP7 DUP3 DUP8 ADD PUSH2 0x54 JUMP JUMPDEST SWAP4 POP POP PUSH1 0x20 PUSH2 0x9D DUP7 DUP3 DUP8 ADD PUSH2 0x54 JUMP JUMPDEST SWAP3 POP POP PUSH1 0x40 PUSH2 0xAE DUP7 DUP3 DUP8 ADD PUSH2 0x54 JUMP JUMPDEST SWAP2 POP POP SWAP3 POP SWAP3 POP SWAP3 JUMP JUMPDEST PUSH1 0x0 DUP2 SWAP1 POP SWAP2 SWAP1 POP JUMP JUMPDEST PUSH2 0xCB DUP2 PUSH2 0xB8 JUMP JUMPDEST DUP2 EQ PUSH2 0xD6 JUMPI PUSH1 0x0 DUP1 REVERT JUMPDEST POP JUMP JUMPDEST PUSH2 0x15A DUP1 PUSH2 0xE8 PUSH1 0x0 CODECOPY PUSH1 0x0 RETURN INVALID PUSH1 0x80 PUSH1 0x40 MSTORE CALLVALUE DUP1 ISZERO PUSH2 0x10 JUMPI PUSH1 0x0 DUP1 REVERT JUMPDEST POP PUSH1 0x4 CALLDATASIZE LT PUSH2 0x4C JUMPI PUSH1 0x0 CALLDATALOAD PUSH1 0xE0 SHR DUP1 PUSH4 0x7FA9571F EQ PUSH2 0x51 JUMPI DUP1 PUSH4 0xA9B4B780 EQ PUSH2 0x6F JUMPI DUP1 PUSH4 0xAB9DBD07 EQ PUSH2 0x8D JUMPI DUP1 PUSH4 0xCB248B86 EQ PUSH2 0xAB JUMPI JUMPDEST PUSH1 0x0 DUP1 REVERT JUMPDEST PUSH2 0x59 PUSH2 0xC9 JUMP JUMPDEST PUSH1 0x40 MLOAD PUSH2 0x66 SWAP2 SWAP1 PUSH2 0xFF JUMP JUMPDEST PUSH1 0x40 MLOAD DUP1 SWAP2 SUB SWAP1 RETURN JUMPDEST PUSH2 0x77 PUSH2 0xD3 JUMP JUMPDEST PUSH1 0x40 MLOAD PUSH2 0x84 SWAP2 SWAP1 PUSH2 0xFF JUMP JUMPDEST PUSH1 0x40 MLOAD DUP1 SWAP2 SUB SWAP1 RETURN JUMPDEST PUSH2 0x95 PUSH2 0xDD JUMP JUMPDEST PUSH1 0x40 MLOAD PUSH2 0xA2 SWAP2 SWAP1 PUSH2 0xFF JUMP JUMPDEST PUSH1 0x40 MLOAD DUP1 SWAP2 SUB SWAP1 RETURN JUMPDEST PUSH2 0xB3 PUSH2 0xE6 JUMP JUMPDEST PUSH1 0x40 MLOAD PUSH2 0xC0 SWAP2 SWAP1 PUSH2 0xFF JUMP JUMPDEST PUSH1 0x40 MLOAD DUP1 SWAP2 SUB SWAP1 RETURN JUMPDEST PUSH1 0x0 PUSH1 0x3 SLOAD SWAP1 POP SWAP1 JUMP JUMPDEST PUSH1 0x0 PUSH1 0x2 SLOAD SWAP1 POP SWAP1 JUMP JUMPDEST PUSH1 0x0 DUP1 SLOAD SWAP1 POP SWAP1 JUMP JUMPDEST PUSH1 0x0 PUSH1 0x1 SLOAD SWAP1 POP SWAP1 JUMP JUMPDEST PUSH2 0xF9 DUP2 PUSH2 0x11A JUMP JUMPDEST DUP3 MSTORE POP POP JUMP JUMPDEST PUSH1 0x0 PUSH1 0x20 DUP3 ADD SWAP1 POP PUSH2 0x114 PUSH1 0x0 DUP4 ADD DUP5 PUSH2 0xF0 JUMP JUMPDEST SWAP3 SWAP2 POP POP JUMP JUMPDEST PUSH1 0x0 DUP2 SWAP1 POP SWAP2 SWAP1 POP JUMP INVALID LOG2 PUSH5 0x6970667358 0x22 SLT KECCAK256 0xAA 0x2B PUSH25 0xB65E3CB9A275A54ABA2C10D6DE98AEA578CBEACCAD1EA42675 0x5D 0xA9 DELEGATECALL JUMPDEST PUSH5 0x736F6C6343 STOP ADDMOD STOP STOP CALLER "
				},
				"gasEstimates": {
					"creation": {
						"codeDepositCost": "69200",
						"executionCost": "infinite",
						"totalCost": "infinite"
					},
					"external": {
						"getID()": "1159",
						"getKind()": "1181",
						"getTotalDurians()": "1115",
						"getWeight()": "1137"
					}
				},
				"methodIdentifiers": {
					"getID()": "ab9dbd07",
					"getKind()": "cb248b86",
					"getTotalDurians()": "7fa9571f",
					"getWeight()": "a9b4b780"
				}
			},
			"storageLayout": {
				"storage": [
					{
						"astId": 3,
						"contract": "Durian.sol:Durian",
						"label": "_id",
						"offset": 0,
						"slot": "0",
						"type": "t_uint256"
					},
					{
						"astId": 5,
						"contract": "Durian.sol:Durian",
						"label": "_kind",
						"offset": 0,
						"slot": "1",
						"type": "t_uint256"
					},
					{
						"astId": 7,
						"contract": "Durian.sol:Durian",
						"label": "_weight",
						"offset": 0,
						"slot": "2",
						"type": "t_uint256"
					},
					{
						"astId": 10,
						"contract": "Durian.sol:Durian",
						"label": "_total_durians",
						"offset": 0,
						"slot": "3",
						"type": "t_uint256"
					}
				],
				"types": {
					"t_uint256": {
						"encoding": "inplace",
						"label": "uint256",
						"numberOfBytes": "32"
					}
				}
			},
			"userdoc": {
				"kind": "user",
				"methods": {},
				"version": 1
			}
		}
	}
}