{
	"Durian.sol": {
		"Durian": {
			"abi": [
				{
					"inputs": [
						{
							"internalType": "uint256",
							"name": "id",
							"type": "uint256"
						},
						{
							"internalType": "uint256",
							"name": "kind",
							"type": "uint256"
						},
						{
							"internalType": "uint256",
							"name": "weight",
							"type": "uint256"
						},
						{
							"internalType": "uint256",
							"name": "harvested_date_time",
							"type": "uint256"
						},
						{
							"internalType": "address",
							"name": "harvested_by",
							"type": "address"
						},
						{
							"internalType": "uint256",
							"name": "harvest_tree",
							"type": "uint256"
						},
						{
							"internalType": "uint256",
							"name": "harvest_farm",
							"type": "uint256"
						},
						{
							"internalType": "address",
							"name": "owner",
							"type": "address"
						},
						{
							"internalType": "string",
							"name": "reviews",
							"type": "string"
						}
					],
					"stateMutability": "nonpayable",
					"type": "constructor"
				},
				{
					"inputs": [],
					"name": "getHarvestFarm",
					"outputs": [
						{
							"internalType": "uint256",
							"name": "",
							"type": "uint256"
						}
					],
					"stateMutability": "view",
					"type": "function"
				},
				{
					"inputs": [],
					"name": "getHarvestTree",
					"outputs": [
						{
							"internalType": "uint256",
							"name": "",
							"type": "uint256"
						}
					],
					"stateMutability": "view",
					"type": "function"
				},
				{
					"inputs": [],
					"name": "getHarvestedBy",
					"outputs": [
						{
							"internalType": "address",
							"name": "",
							"type": "address"
						}
					],
					"stateMutability": "view",
					"type": "function"
				},
				{
					"inputs": [],
					"name": "getHarvestedDateTime",
					"outputs": [
						{
							"internalType": "uint256",
							"name": "",
							"type": "uint256"
						}
					],
					"stateMutability": "view",
					"type": "function"
				},
				{
					"inputs": [],
					"name": "getID",
					"outputs": [
						{
							"internalType": "uint256",
							"name": "",
							"type": "uint256"
						}
					],
					"stateMutability": "view",
					"type": "function"
				},
				{
					"inputs": [],
					"name": "getKind",
					"outputs": [
						{
							"internalType": "uint256",
							"name": "",
							"type": "uint256"
						}
					],
					"stateMutability": "view",
					"type": "function"
				},
				{
					"inputs": [],
					"name": "getOwner",
					"outputs": [
						{
							"internalType": "address",
							"name": "",
							"type": "address"
						}
					],
					"stateMutability": "view",
					"type": "function"
				},
				{
					"inputs": [],
					"name": "getReviews",
					"outputs": [
						{
							"internalType": "string",
							"name": "",
							"type": "string"
						}
					],
					"stateMutability": "view",
					"type": "function"
				},
				{
					"inputs": [],
					"name": "getTotalDurians",
					"outputs": [
						{
							"internalType": "uint256",
							"name": "",
							"type": "uint256"
						}
					],
					"stateMutability": "view",
					"type": "function"
				},
				{
					"inputs": [],
					"name": "getWeight",
					"outputs": [
						{
							"internalType": "uint256",
							"name": "",
							"type": "uint256"
						}
					],
					"stateMutability": "view",
					"type": "function"
				},
				{
					"inputs": [
						{
							"internalType": "uint256",
							"name": "harvest_farm",
							"type": "uint256"
						}
					],
					"name": "setHarvestFarm",
					"outputs": [],
					"stateMutability": "nonpayable",
					"type": "function"
				},
				{
					"inputs": [
						{
							"internalType": "uint256",
							"name": "harvest_tree",
							"type": "uint256"
						}
					],
					"name": "setHarvestTree",
					"outputs": [],
					"stateMutability": "nonpayable",
					"type": "function"
				},
				{
					"inputs": [
						{
							"internalType": "address",
							"name": "harvested_by",
							"type": "address"
						}
					],
					"name": "setHarvestedBy",
					"outputs": [],
					"stateMutability": "nonpayable",
					"type": "function"
				},
				{
					"inputs": [
						{
							"internalType": "uint256",
							"name": "harvested_date_time",
							"type": "uint256"
						}
					],
					"name": "setHarvestedDateTime",
					"outputs": [],
					"stateMutability": "nonpayable",
					"type": "function"
				},
				{
					"inputs": [
						{
							"internalType": "uint256",
							"name": "id",
							"type": "uint256"
						}
					],
					"name": "setID",
					"outputs": [],
					"stateMutability": "nonpayable",
					"type": "function"
				},
				{
					"inputs": [
						{
							"internalType": "uint256",
							"name": "kind",
							"type": "uint256"
						}
					],
					"name": "setKind",
					"outputs": [],
					"stateMutability": "nonpayable",
					"type": "function"
				},
				{
					"inputs": [
						{
							"internalType": "address",
							"name": "owner",
							"type": "address"
						}
					],
					"name": "setOwner",
					"outputs": [],
					"stateMutability": "nonpayable",
					"type": "function"
				},
				{
					"inputs": [
						{
							"internalType": "string",
							"name": "reviews",
							"type": "string"
						}
					],
					"name": "setReviews",
					"outputs": [],
					"stateMutability": "nonpayable",
					"type": "function"
				},
				{
					"inputs": [
						{
							"internalType": "uint256",
							"name": "total_durians",
							"type": "uint256"
						}
					],
					"name": "setTotalDurians",
					"outputs": [],
					"stateMutability": "nonpayable",
					"type": "function"
				},
				{
					"inputs": [
						{
							"internalType": "uint256",
							"name": "weight",
							"type": "uint256"
						}
					],
					"name": "setWeight",
					"outputs": [],
					"stateMutability": "nonpayable",
					"type": "function"
				}
			],
			"devdoc": {
				"kind": "dev",
				"methods": {},
				"version": 1
			},
			"evm": {
				"assembly": "    /* \"Durian.sol\":56:2768  contract Durian {... */\n  mstore(0x40, 0x80)\n    /* \"Durian.sol\":380:381  0 */\n  0x00\n    /* \"Durian.sol\":350:381  uint private _total_durians = 0 */\n  0x09\n  sstore\n    /* \"Durian.sol\":388:926  constructor(... */\n  callvalue\n  dup1\n  iszero\n  tag_1\n  jumpi\n  0x00\n  dup1\n  revert\ntag_1:\n  pop\n  mload(0x40)\n  sub(codesize, bytecodeSize)\n  dup1\n  bytecodeSize\n  dup4\n  codecopy\n  dup2\n  dup2\n  add\n  0x40\n  mstore\n  dup2\n  add\n  swap1\n  tag_2\n  swap2\n  swap1\n  tag_3\n  jump\t// in\ntag_2:\n    /* \"Durian.sol\":651:653  id */\n  dup9\n    /* \"Durian.sol\":645:648  _id */\n  0x00\n    /* \"Durian.sol\":645:653  _id = id */\n  dup2\n  swap1\n  sstore\n  pop\n    /* \"Durian.sol\":671:675  kind */\n  dup8\n    /* \"Durian.sol\":663:668  _kind */\n  0x01\n    /* \"Durian.sol\":663:675  _kind = kind */\n  dup2\n  swap1\n  sstore\n  pop\n    /* \"Durian.sol\":695:701  weight */\n  dup7\n    /* \"Durian.sol\":685:692  _weight */\n  0x02\n    /* \"Durian.sol\":685:701  _weight = weight */\n  dup2\n  swap1\n  sstore\n  pop\n    /* \"Durian.sol\":734:753  harvested_date_time */\n  dup6\n    /* \"Durian.sol\":711:731  _harvested_date_time */\n  0x03\n    /* \"Durian.sol\":711:753  _harvested_date_time = harvested_date_time */\n  dup2\n  swap1\n  sstore\n  pop\n    /* \"Durian.sol\":779:791  harvested_by */\n  dup5\n    /* \"Durian.sol\":763:776  _harvested_by */\n  0x04\n  0x00\n    /* \"Durian.sol\":763:791  _harvested_by = harvested_by */\n  0x0100\n  exp\n  dup2\n  sload\n  dup2\n  0xffffffffffffffffffffffffffffffffffffffff\n  mul\n  not\n  and\n  swap1\n  dup4\n  0xffffffffffffffffffffffffffffffffffffffff\n  and\n  mul\n  or\n  swap1\n  sstore\n  pop\n    /* \"Durian.sol\":817:829  harvest_tree */\n  dup4\n    /* \"Durian.sol\":801:814  _harvest_tree */\n  0x05\n    /* \"Durian.sol\":801:829  _harvest_tree = harvest_tree */\n  dup2\n  swap1\n  sstore\n  pop\n    /* \"Durian.sol\":855:867  harvest_farm */\n  dup3\n    /* \"Durian.sol\":839:852  _harvest_farm */\n  0x06\n    /* \"Durian.sol\":839:867  _harvest_farm = harvest_farm */\n  dup2\n  swap1\n  sstore\n  pop\n    /* \"Durian.sol\":886:891  owner */\n  dup2\n    /* \"Durian.sol\":877:883  _owner */\n  0x07\n  0x00\n    /* \"Durian.sol\":877:891  _owner = owner */\n  0x0100\n  exp\n  dup2\n  sload\n  dup2\n  0xffffffffffffffffffffffffffffffffffffffff\n  mul\n  not\n  and\n  swap1\n  dup4\n  0xffffffffffffffffffffffffffffffffffffffff\n  and\n  mul\n  or\n  swap1\n  sstore\n  pop\n    /* \"Durian.sol\":912:919  reviews */\n  dup1\n    /* \"Durian.sol\":901:909  _reviews */\n  0x08\n    /* \"Durian.sol\":901:919  _reviews = reviews */\n  swap1\n  dup1\n  mload\n  swap1\n  0x20\n  add\n  swap1\n  tag_6\n  swap3\n  swap2\n  swap1\n  tag_7\n  jump\t// in\ntag_6:\n  pop\n    /* \"Durian.sol\":388:926  constructor(... */\n  pop\n  pop\n  pop\n  pop\n  pop\n  pop\n  pop\n  pop\n  pop\n    /* \"Durian.sol\":56:2768  contract Durian {... */\n  jump(tag_8)\ntag_7:\n  dup3\n  dup1\n  sload\n  tag_9\n  swap1\n  tag_10\n  jump\t// in\ntag_9:\n  swap1\n  0x00\n  mstore\n  keccak256(0x00, 0x20)\n  swap1\n  0x1f\n  add\n  0x20\n  swap1\n  div\n  dup2\n  add\n  swap3\n  dup3\n  tag_12\n  jumpi\n  0x00\n  dup6\n  sstore\n  jump(tag_11)\ntag_12:\n  dup3\n  0x1f\n  lt\n  tag_13\n  jumpi\n  dup1\n  mload\n  not(0xff)\n  and\n  dup4\n  dup1\n  add\n  or\n  dup6\n  sstore\n  jump(tag_11)\ntag_13:\n  dup3\n  dup1\n  add\n  0x01\n  add\n  dup6\n  sstore\n  dup3\n  iszero\n  tag_11\n  jumpi\n  swap2\n  dup3\n  add\ntag_14:\n  dup3\n  dup2\n  gt\n  iszero\n  tag_15\n  jumpi\n  dup3\n  mload\n  dup3\n  sstore\n  swap2\n  0x20\n  add\n  swap2\n  swap1\n  0x01\n  add\n  swap1\n  jump(tag_14)\ntag_15:\ntag_11:\n  pop\n  swap1\n  pop\n  tag_16\n  swap2\n  swap1\n  tag_17\n  jump\t// in\ntag_16:\n  pop\n  swap1\n  jump\t// out\ntag_17:\ntag_18:\n  dup1\n  dup3\n  gt\n  iszero\n  tag_19\n  jumpi\n  0x00\n  dup2\n  0x00\n  swap1\n  sstore\n  pop\n  0x01\n  add\n  jump(tag_18)\ntag_19:\n  pop\n  swap1\n  jump\t// out\n    /* \"#utility.yul\":7:360   */\ntag_21:\n  0x00\n    /* \"#utility.yul\":121:186   */\n  tag_23\n    /* \"#utility.yul\":136:185   */\n  tag_24\n    /* \"#utility.yul\":178:184   */\n  dup5\n    /* \"#utility.yul\":136:185   */\n  tag_25\n  jump\t// in\ntag_24:\n    /* \"#utility.yul\":121:186   */\n  tag_26\n  jump\t// in\ntag_23:\n    /* \"#utility.yul\":112:186   */\n  swap1\n  pop\n    /* \"#utility.yul\":209:215   */\n  dup3\n    /* \"#utility.yul\":202:207   */\n  dup2\n    /* \"#utility.yul\":195:216   */\n  mstore\n    /* \"#utility.yul\":247:251   */\n  0x20\n    /* \"#utility.yul\":240:245   */\n  dup2\n    /* \"#utility.yul\":236:252   */\n  add\n    /* \"#utility.yul\":285:288   */\n  dup5\n    /* \"#utility.yul\":276:282   */\n  dup5\n    /* \"#utility.yul\":271:274   */\n  dup5\n    /* \"#utility.yul\":267:283   */\n  add\n    /* \"#utility.yul\":264:289   */\n  gt\n    /* \"#utility.yul\":261:263   */\n  iszero\n  tag_27\n  jumpi\n    /* \"#utility.yul\":302:303   */\n  0x00\n    /* \"#utility.yul\":299:300   */\n  dup1\n    /* \"#utility.yul\":292:304   */\n  revert\n    /* \"#utility.yul\":261:263   */\ntag_27:\n    /* \"#utility.yul\":315:354   */\n  tag_28\n    /* \"#utility.yul\":347:353   */\n  dup5\n    /* \"#utility.yul\":342:345   */\n  dup3\n    /* \"#utility.yul\":337:340   */\n  dup6\n    /* \"#utility.yul\":315:354   */\n  tag_29\n  jump\t// in\ntag_28:\n    /* \"#utility.yul\":102:360   */\n  pop\n  swap4\n  swap3\n  pop\n  pop\n  pop\n  jump\t// out\n    /* \"#utility.yul\":366:509   */\ntag_30:\n  0x00\n    /* \"#utility.yul\":454:460   */\n  dup2\n    /* \"#utility.yul\":448:461   */\n  mload\n    /* \"#utility.yul\":439:461   */\n  swap1\n  pop\n    /* \"#utility.yul\":470:503   */\n  tag_32\n    /* \"#utility.yul\":497:502   */\n  dup2\n    /* \"#utility.yul\":470:503   */\n  tag_33\n  jump\t// in\ntag_32:\n    /* \"#utility.yul\":429:509   */\n  swap3\n  swap2\n  pop\n  pop\n  jump\t// out\n    /* \"#utility.yul\":529:817   */\ntag_34:\n  0x00\n    /* \"#utility.yul\":645:648   */\n  dup3\n    /* \"#utility.yul\":638:642   */\n  0x1f\n    /* \"#utility.yul\":630:636   */\n  dup4\n    /* \"#utility.yul\":626:643   */\n  add\n    /* \"#utility.yul\":622:649   */\n  slt\n    /* \"#utility.yul\":612:614   */\n  tag_36\n  jumpi\n    /* \"#utility.yul\":663:664   */\n  0x00\n    /* \"#utility.yul\":660:661   */\n  dup1\n    /* \"#utility.yul\":653:665   */\n  revert\n    /* \"#utility.yul\":612:614   */\ntag_36:\n    /* \"#utility.yul\":696:702   */\n  dup2\n    /* \"#utility.yul\":690:703   */\n  mload\n    /* \"#utility.yul\":721:811   */\n  tag_37\n    /* \"#utility.yul\":807:810   */\n  dup5\n    /* \"#utility.yul\":799:805   */\n  dup3\n    /* \"#utility.yul\":792:796   */\n  0x20\n    /* \"#utility.yul\":784:790   */\n  dup7\n    /* \"#utility.yul\":780:797   */\n  add\n    /* \"#utility.yul\":721:811   */\n  tag_21\n  jump\t// in\ntag_37:\n    /* \"#utility.yul\":712:811   */\n  swap2\n  pop\n    /* \"#utility.yul\":602:817   */\n  pop\n  swap3\n  swap2\n  pop\n  pop\n  jump\t// out\n    /* \"#utility.yul\":823:966   */\ntag_38:\n  0x00\n    /* \"#utility.yul\":911:917   */\n  dup2\n    /* \"#utility.yul\":905:918   */\n  mload\n    /* \"#utility.yul\":896:918   */\n  swap1\n  pop\n    /* \"#utility.yul\":927:960   */\n  tag_40\n    /* \"#utility.yul\":954:959   */\n  dup2\n    /* \"#utility.yul\":927:960   */\n  tag_41\n  jump\t// in\ntag_40:\n    /* \"#utility.yul\":886:966   */\n  swap3\n  swap2\n  pop\n  pop\n  jump\t// out\n    /* \"#utility.yul\":972:2616   */\ntag_3:\n  0x00\n  dup1\n  0x00\n  dup1\n  0x00\n  dup1\n  0x00\n  dup1\n  0x00\n    /* \"#utility.yul\":1237:1240   */\n  0x0120\n    /* \"#utility.yul\":1225:1234   */\n  dup11\n    /* \"#utility.yul\":1216:1223   */\n  dup13\n    /* \"#utility.yul\":1212:1235   */\n  sub\n    /* \"#utility.yul\":1208:1241   */\n  slt\n    /* \"#utility.yul\":1205:1207   */\n  iszero\n  tag_43\n  jumpi\n    /* \"#utility.yul\":1254:1255   */\n  0x00\n    /* \"#utility.yul\":1251:1252   */\n  dup1\n    /* \"#utility.yul\":1244:1256   */\n  revert\n    /* \"#utility.yul\":1205:1207   */\ntag_43:\n    /* \"#utility.yul\":1297:1298   */\n  0x00\n    /* \"#utility.yul\":1322:1386   */\n  tag_44\n    /* \"#utility.yul\":1378:1385   */\n  dup13\n    /* \"#utility.yul\":1369:1375   */\n  dup3\n    /* \"#utility.yul\":1358:1367   */\n  dup14\n    /* \"#utility.yul\":1354:1376   */\n  add\n    /* \"#utility.yul\":1322:1386   */\n  tag_38\n  jump\t// in\ntag_44:\n    /* \"#utility.yul\":1312:1386   */\n  swap10\n  pop\n    /* \"#utility.yul\":1268:1396   */\n  pop\n    /* \"#utility.yul\":1435:1437   */\n  0x20\n    /* \"#utility.yul\":1461:1525   */\n  tag_45\n    /* \"#utility.yul\":1517:1524   */\n  dup13\n    /* \"#utility.yul\":1508:1514   */\n  dup3\n    /* \"#utility.yul\":1497:1506   */\n  dup14\n    /* \"#utility.yul\":1493:1515   */\n  add\n    /* \"#utility.yul\":1461:1525   */\n  tag_38\n  jump\t// in\ntag_45:\n    /* \"#utility.yul\":1451:1525   */\n  swap9\n  pop\n    /* \"#utility.yul\":1406:1535   */\n  pop\n    /* \"#utility.yul\":1574:1576   */\n  0x40\n    /* \"#utility.yul\":1600:1664   */\n  tag_46\n    /* \"#utility.yul\":1656:1663   */\n  dup13\n    /* \"#utility.yul\":1647:1653   */\n  dup3\n    /* \"#utility.yul\":1636:1645   */\n  dup14\n    /* \"#utility.yul\":1632:1654   */\n  add\n    /* \"#utility.yul\":1600:1664   */\n  tag_38\n  jump\t// in\ntag_46:\n    /* \"#utility.yul\":1590:1664   */\n  swap8\n  pop\n    /* \"#utility.yul\":1545:1674   */\n  pop\n    /* \"#utility.yul\":1713:1715   */\n  0x60\n    /* \"#utility.yul\":1739:1803   */\n  tag_47\n    /* \"#utility.yul\":1795:1802   */\n  dup13\n    /* \"#utility.yul\":1786:1792   */\n  dup3\n    /* \"#utility.yul\":1775:1784   */\n  dup14\n    /* \"#utility.yul\":1771:1793   */\n  add\n    /* \"#utility.yul\":1739:1803   */\n  tag_38\n  jump\t// in\ntag_47:\n    /* \"#utility.yul\":1729:1803   */\n  swap7\n  pop\n    /* \"#utility.yul\":1684:1813   */\n  pop\n    /* \"#utility.yul\":1852:1855   */\n  0x80\n    /* \"#utility.yul\":1879:1943   */\n  tag_48\n    /* \"#utility.yul\":1935:1942   */\n  dup13\n    /* \"#utility.yul\":1926:1932   */\n  dup3\n    /* \"#utility.yul\":1915:1924   */\n  dup14\n    /* \"#utility.yul\":1911:1933   */\n  add\n    /* \"#utility.yul\":1879:1943   */\n  tag_30\n  jump\t// in\ntag_48:\n    /* \"#utility.yul\":1869:1943   */\n  swap6\n  pop\n    /* \"#utility.yul\":1823:1953   */\n  pop\n    /* \"#utility.yul\":1992:1995   */\n  0xa0\n    /* \"#utility.yul\":2019:2083   */\n  tag_49\n    /* \"#utility.yul\":2075:2082   */\n  dup13\n    /* \"#utility.yul\":2066:2072   */\n  dup3\n    /* \"#utility.yul\":2055:2064   */\n  dup14\n    /* \"#utility.yul\":2051:2073   */\n  add\n    /* \"#utility.yul\":2019:2083   */\n  tag_38\n  jump\t// in\ntag_49:\n    /* \"#utility.yul\":2009:2083   */\n  swap5\n  pop\n    /* \"#utility.yul\":1963:2093   */\n  pop\n    /* \"#utility.yul\":2132:2135   */\n  0xc0\n    /* \"#utility.yul\":2159:2223   */\n  tag_50\n    /* \"#utility.yul\":2215:2222   */\n  dup13\n    /* \"#utility.yul\":2206:2212   */\n  dup3\n    /* \"#utility.yul\":2195:2204   */\n  dup14\n    /* \"#utility.yul\":2191:2213   */\n  add\n    /* \"#utility.yul\":2159:2223   */\n  tag_38\n  jump\t// in\ntag_50:\n    /* \"#utility.yul\":2149:2223   */\n  swap4\n  pop\n    /* \"#utility.yul\":2103:2233   */\n  pop\n    /* \"#utility.yul\":2272:2275   */\n  0xe0\n    /* \"#utility.yul\":2299:2363   */\n  tag_51\n    /* \"#utility.yul\":2355:2362   */\n  dup13\n    /* \"#utility.yul\":2346:2352   */\n  dup3\n    /* \"#utility.yul\":2335:2344   */\n  dup14\n    /* \"#utility.yul\":2331:2353   */\n  add\n    /* \"#utility.yul\":2299:2363   */\n  tag_30\n  jump\t// in\ntag_51:\n    /* \"#utility.yul\":2289:2363   */\n  swap3\n  pop\n    /* \"#utility.yul\":2243:2373   */\n  pop\n    /* \"#utility.yul\":2433:2436   */\n  0x0100\n    /* \"#utility.yul\":2422:2431   */\n  dup11\n    /* \"#utility.yul\":2418:2437   */\n  add\n    /* \"#utility.yul\":2412:2438   */\n  mload\n    /* \"#utility.yul\":2465:2483   */\n  0xffffffffffffffff\n    /* \"#utility.yul\":2457:2463   */\n  dup2\n    /* \"#utility.yul\":2454:2484   */\n  gt\n    /* \"#utility.yul\":2451:2453   */\n  iszero\n  tag_52\n  jumpi\n    /* \"#utility.yul\":2497:2498   */\n  0x00\n    /* \"#utility.yul\":2494:2495   */\n  dup1\n    /* \"#utility.yul\":2487:2499   */\n  revert\n    /* \"#utility.yul\":2451:2453   */\ntag_52:\n    /* \"#utility.yul\":2525:2599   */\n  tag_53\n    /* \"#utility.yul\":2591:2598   */\n  dup13\n    /* \"#utility.yul\":2582:2588   */\n  dup3\n    /* \"#utility.yul\":2571:2580   */\n  dup14\n    /* \"#utility.yul\":2567:2589   */\n  add\n    /* \"#utility.yul\":2525:2599   */\n  tag_34\n  jump\t// in\ntag_53:\n    /* \"#utility.yul\":2515:2599   */\n  swap2\n  pop\n    /* \"#utility.yul\":2383:2609   */\n  pop\n    /* \"#utility.yul\":1195:2616   */\n  swap3\n  swap6\n  swap9\n  pop\n  swap3\n  swap6\n  swap9\n  pop\n  swap3\n  swap6\n  swap9\n  jump\t// out\n    /* \"#utility.yul\":2622:2905   */\ntag_26:\n  0x00\n    /* \"#utility.yul\":2688:2690   */\n  0x40\n    /* \"#utility.yul\":2682:2691   */\n  mload\n    /* \"#utility.yul\":2672:2691   */\n  swap1\n  pop\n    /* \"#utility.yul\":2730:2734   */\n  dup2\n    /* \"#utility.yul\":2722:2728   */\n  dup2\n    /* \"#utility.yul\":2718:2735   */\n  add\n    /* \"#utility.yul\":2837:2843   */\n  dup2\n    /* \"#utility.yul\":2825:2835   */\n  dup2\n    /* \"#utility.yul\":2822:2844   */\n  lt\n    /* \"#utility.yul\":2801:2819   */\n  0xffffffffffffffff\n    /* \"#utility.yul\":2789:2799   */\n  dup3\n    /* \"#utility.yul\":2786:2820   */\n  gt\n    /* \"#utility.yul\":2783:2845   */\n  or\n    /* \"#utility.yul\":2780:2782   */\n  iszero\n  tag_55\n  jumpi\n    /* \"#utility.yul\":2848:2866   */\n  tag_56\n  tag_57\n  jump\t// in\ntag_56:\n    /* \"#utility.yul\":2780:2782   */\ntag_55:\n    /* \"#utility.yul\":2888:2898   */\n  dup1\n    /* \"#utility.yul\":2884:2886   */\n  0x40\n    /* \"#utility.yul\":2877:2899   */\n  mstore\n    /* \"#utility.yul\":2662:2905   */\n  pop\n  swap2\n  swap1\n  pop\n  jump\t// out\n    /* \"#utility.yul\":2911:3243   */\ntag_25:\n  0x00\n    /* \"#utility.yul\":3063:3081   */\n  0xffffffffffffffff\n    /* \"#utility.yul\":3055:3061   */\n  dup3\n    /* \"#utility.yul\":3052:3082   */\n  gt\n    /* \"#utility.yul\":3049:3051   */\n  iszero\n  tag_59\n  jumpi\n    /* \"#utility.yul\":3085:3103   */\n  tag_60\n  tag_57\n  jump\t// in\ntag_60:\n    /* \"#utility.yul\":3049:3051   */\ntag_59:\n    /* \"#utility.yul\":3170:3174   */\n  0x1f\n    /* \"#utility.yul\":3166:3175   */\n  not\n    /* \"#utility.yul\":3159:3163   */\n  0x1f\n    /* \"#utility.yul\":3151:3157   */\n  dup4\n    /* \"#utility.yul\":3147:3164   */\n  add\n    /* \"#utility.yul\":3143:3176   */\n  and\n    /* \"#utility.yul\":3135:3176   */\n  swap1\n  pop\n    /* \"#utility.yul\":3231:3235   */\n  0x20\n    /* \"#utility.yul\":3225:3229   */\n  dup2\n    /* \"#utility.yul\":3221:3236   */\n  add\n    /* \"#utility.yul\":3213:3236   */\n  swap1\n  pop\n    /* \"#utility.yul\":2978:3243   */\n  swap2\n  swap1\n  pop\n  jump\t// out\n    /* \"#utility.yul\":3249:3345   */\ntag_61:\n  0x00\n    /* \"#utility.yul\":3315:3339   */\n  tag_63\n    /* \"#utility.yul\":3333:3338   */\n  dup3\n    /* \"#utility.yul\":3315:3339   */\n  tag_64\n  jump\t// in\ntag_63:\n    /* \"#utility.yul\":3304:3339   */\n  swap1\n  pop\n    /* \"#utility.yul\":3294:3345   */\n  swap2\n  swap1\n  pop\n  jump\t// out\n    /* \"#utility.yul\":3351:3477   */\ntag_64:\n  0x00\n    /* \"#utility.yul\":3428:3470   */\n  0xffffffffffffffffffffffffffffffffffffffff\n    /* \"#utility.yul\":3421:3426   */\n  dup3\n    /* \"#utility.yul\":3417:3471   */\n  and\n    /* \"#utility.yul\":3406:3471   */\n  swap1\n  pop\n    /* \"#utility.yul\":3396:3477   */\n  swap2\n  swap1\n  pop\n  jump\t// out\n    /* \"#utility.yul\":3483:3560   */\ntag_66:\n  0x00\n    /* \"#utility.yul\":3549:3554   */\n  dup2\n    /* \"#utility.yul\":3538:3554   */\n  swap1\n  pop\n    /* \"#utility.yul\":3528:3560   */\n  swap2\n  swap1\n  pop\n  jump\t// out\n    /* \"#utility.yul\":3566:3873   */\ntag_29:\n    /* \"#utility.yul\":3634:3635   */\n  0x00\n    /* \"#utility.yul\":3644:3757   */\ntag_69:\n    /* \"#utility.yul\":3658:3664   */\n  dup4\n    /* \"#utility.yul\":3655:3656   */\n  dup2\n    /* \"#utility.yul\":3652:3665   */\n  lt\n    /* \"#utility.yul\":3644:3757   */\n  iszero\n  tag_71\n  jumpi\n    /* \"#utility.yul\":3743:3744   */\n  dup1\n    /* \"#utility.yul\":3738:3741   */\n  dup3\n    /* \"#utility.yul\":3734:3745   */\n  add\n    /* \"#utility.yul\":3728:3746   */\n  mload\n    /* \"#utility.yul\":3724:3725   */\n  dup2\n    /* \"#utility.yul\":3719:3722   */\n  dup5\n    /* \"#utility.yul\":3715:3726   */\n  add\n    /* \"#utility.yul\":3708:3747   */\n  mstore\n    /* \"#utility.yul\":3680:3682   */\n  0x20\n    /* \"#utility.yul\":3677:3678   */\n  dup2\n    /* \"#utility.yul\":3673:3683   */\n  add\n    /* \"#utility.yul\":3668:3683   */\n  swap1\n  pop\n    /* \"#utility.yul\":3644:3757   */\n  jump(tag_69)\ntag_71:\n    /* \"#utility.yul\":3775:3781   */\n  dup4\n    /* \"#utility.yul\":3772:3773   */\n  dup2\n    /* \"#utility.yul\":3769:3782   */\n  gt\n    /* \"#utility.yul\":3766:3768   */\n  iszero\n  tag_72\n  jumpi\n    /* \"#utility.yul\":3855:3856   */\n  0x00\n    /* \"#utility.yul\":3846:3852   */\n  dup5\n    /* \"#utility.yul\":3841:3844   */\n  dup5\n    /* \"#utility.yul\":3837:3853   */\n  add\n    /* \"#utility.yul\":3830:3857   */\n  mstore\n    /* \"#utility.yul\":3766:3768   */\ntag_72:\n    /* \"#utility.yul\":3615:3873   */\n  pop\n  pop\n  pop\n  pop\n  jump\t// out\n    /* \"#utility.yul\":3879:4199   */\ntag_10:\n  0x00\n    /* \"#utility.yul\":3960:3961   */\n  0x02\n    /* \"#utility.yul\":3954:3958   */\n  dup3\n    /* \"#utility.yul\":3950:3962   */\n  div\n    /* \"#utility.yul\":3940:3962   */\n  swap1\n  pop\n    /* \"#utility.yul\":4007:4008   */\n  0x01\n    /* \"#utility.yul\":4001:4005   */\n  dup3\n    /* \"#utility.yul\":3997:4009   */\n  and\n    /* \"#utility.yul\":4028:4046   */\n  dup1\n    /* \"#utility.yul\":4018:4020   */\n  tag_74\n  jumpi\n    /* \"#utility.yul\":4084:4088   */\n  0x7f\n    /* \"#utility.yul\":4076:4082   */\n  dup3\n    /* \"#utility.yul\":4072:4089   */\n  and\n    /* \"#utility.yul\":4062:4089   */\n  swap2\n  pop\n    /* \"#utility.yul\":4018:4020   */\ntag_74:\n    /* \"#utility.yul\":4146:4148   */\n  0x20\n    /* \"#utility.yul\":4138:4144   */\n  dup3\n    /* \"#utility.yul\":4135:4149   */\n  lt\n    /* \"#utility.yul\":4115:4133   */\n  dup2\n    /* \"#utility.yul\":4112:4150   */\n  eq\n    /* \"#utility.yul\":4109:4111   */\n  iszero\n  tag_75\n  jumpi\n    /* \"#utility.yul\":4165:4183   */\n  tag_76\n  tag_77\n  jump\t// in\ntag_76:\n    /* \"#utility.yul\":4109:4111   */\ntag_75:\n    /* \"#utility.yul\":3930:4199   */\n  pop\n  swap2\n  swap1\n  pop\n  jump\t// out\n    /* \"#utility.yul\":4205:4385   */\ntag_77:\n    /* \"#utility.yul\":4253:4330   */\n  0x4e487b7100000000000000000000000000000000000000000000000000000000\n    /* \"#utility.yul\":4250:4251   */\n  0x00\n    /* \"#utility.yul\":4243:4331   */\n  mstore\n    /* \"#utility.yul\":4350:4354   */\n  0x22\n    /* \"#utility.yul\":4347:4348   */\n  0x04\n    /* \"#utility.yul\":4340:4355   */\n  mstore\n    /* \"#utility.yul\":4374:4378   */\n  0x24\n    /* \"#utility.yul\":4371:4372   */\n  0x00\n    /* \"#utility.yul\":4364:4379   */\n  revert\n    /* \"#utility.yul\":4391:4571   */\ntag_57:\n    /* \"#utility.yul\":4439:4516   */\n  0x4e487b7100000000000000000000000000000000000000000000000000000000\n    /* \"#utility.yul\":4436:4437   */\n  0x00\n    /* \"#utility.yul\":4429:4517   */\n  mstore\n    /* \"#utility.yul\":4536:4540   */\n  0x41\n    /* \"#utility.yul\":4533:4534   */\n  0x04\n    /* \"#utility.yul\":4526:4541   */\n  mstore\n    /* \"#utility.yul\":4560:4564   */\n  0x24\n    /* \"#utility.yul\":4557:4558   */\n  0x00\n    /* \"#utility.yul\":4550:4565   */\n  revert\n    /* \"#utility.yul\":4577:4699   */\ntag_33:\n    /* \"#utility.yul\":4650:4674   */\n  tag_81\n    /* \"#utility.yul\":4668:4673   */\n  dup2\n    /* \"#utility.yul\":4650:4674   */\n  tag_61\n  jump\t// in\ntag_81:\n    /* \"#utility.yul\":4643:4648   */\n  dup2\n    /* \"#utility.yul\":4640:4675   */\n  eq\n    /* \"#utility.yul\":4630:4632   */\n  tag_82\n  jumpi\n    /* \"#utility.yul\":4689:4690   */\n  0x00\n    /* \"#utility.yul\":4686:4687   */\n  dup1\n    /* \"#utility.yul\":4679:4691   */\n  revert\n    /* \"#utility.yul\":4630:4632   */\ntag_82:\n    /* \"#utility.yul\":4620:4699   */\n  pop\n  jump\t// out\n    /* \"#utility.yul\":4705:4827   */\ntag_41:\n    /* \"#utility.yul\":4778:4802   */\n  tag_84\n    /* \"#utility.yul\":4796:4801   */\n  dup2\n    /* \"#utility.yul\":4778:4802   */\n  tag_66\n  jump\t// in\ntag_84:\n    /* \"#utility.yul\":4771:4776   */\n  dup2\n    /* \"#utility.yul\":4768:4803   */\n  eq\n    /* \"#utility.yul\":4758:4760   */\n  tag_85\n  jumpi\n    /* \"#utility.yul\":4817:4818   */\n  0x00\n    /* \"#utility.yul\":4814:4815   */\n  dup1\n    /* \"#utility.yul\":4807:4819   */\n  revert\n    /* \"#utility.yul\":4758:4760   */\ntag_85:\n    /* \"#utility.yul\":4748:4827   */\n  pop\n  jump\t// out\n    /* \"Durian.sol\":56:2768  contract Durian {... */\ntag_8:\n  dataSize(sub_0)\n  dup1\n  dataOffset(sub_0)\n  0x00\n  codecopy\n  0x00\n  return\nstop\n\nsub_0: assembly {\n        /* \"Durian.sol\":56:2768  contract Durian {... */\n      mstore(0x40, 0x80)\n      callvalue\n      dup1\n      iszero\n      tag_1\n      jumpi\n      0x00\n      dup1\n      revert\n    tag_1:\n      pop\n      jumpi(tag_2, lt(calldatasize, 0x04))\n      shr(0xe0, calldataload(0x00))\n      dup1\n      0x893d20e8\n      gt\n      tag_23\n      jumpi\n      dup1\n      0xab9dbd07\n      gt\n      tag_24\n      jumpi\n      dup1\n      0xab9dbd07\n      eq\n      tag_18\n      jumpi\n      dup1\n      0xc0be32ef\n      eq\n      tag_19\n      jumpi\n      dup1\n      0xcb248b86\n      eq\n      tag_20\n      jumpi\n      dup1\n      0xdc5d184f\n      eq\n      tag_21\n      jumpi\n      dup1\n      0xfc1711f2\n      eq\n      tag_22\n      jumpi\n      jump(tag_2)\n    tag_24:\n      dup1\n      0x893d20e8\n      eq\n      tag_13\n      jumpi\n      dup1\n      0x947b9a5b\n      eq\n      tag_14\n      jumpi\n      dup1\n      0xa1c83d53\n      eq\n      tag_15\n      jumpi\n      dup1\n      0xa9b4b780\n      eq\n      tag_16\n      jumpi\n      dup1\n      0xa9d290d7\n      eq\n      tag_17\n      jumpi\n      jump(tag_2)\n    tag_23:\n      dup1\n      0x6a4f28d2\n      gt\n      tag_25\n      jumpi\n      dup1\n      0x6a4f28d2\n      eq\n      tag_8\n      jumpi\n      dup1\n      0x7fa9571f\n      eq\n      tag_9\n      jumpi\n      dup1\n      0x80581568\n      eq\n      tag_10\n      jumpi\n      dup1\n      0x80da4718\n      eq\n      tag_11\n      jumpi\n      dup1\n      0x8783fb57\n      eq\n      tag_12\n      jumpi\n      jump(tag_2)\n    tag_25:\n      dup1\n      0x05c18c04\n      eq\n      tag_3\n      jumpi\n      dup1\n      0x13af4035\n      eq\n      tag_4\n      jumpi\n      dup1\n      0x1b1e1324\n      eq\n      tag_5\n      jumpi\n      dup1\n      0x24a1d060\n      eq\n      tag_6\n      jumpi\n      dup1\n      0x5e5aa83f\n      eq\n      tag_7\n      jumpi\n    tag_2:\n      0x00\n      dup1\n      revert\n        /* \"Durian.sol\":1152:1216  function setKind(uint kind) public {... */\n    tag_3:\n      tag_26\n      0x04\n      dup1\n      calldatasize\n      sub\n      dup2\n      add\n      swap1\n      tag_27\n      swap2\n      swap1\n      tag_28\n      jump\t// in\n    tag_27:\n      tag_29\n      jump\t// in\n    tag_26:\n      stop\n        /* \"Durian.sol\":2305:2376  function setOwner(address owner) public {... */\n    tag_4:\n      tag_30\n      0x04\n      dup1\n      calldatasize\n      sub\n      dup2\n      add\n      swap1\n      tag_31\n      swap2\n      swap1\n      tag_32\n      jump\t// in\n    tag_31:\n      tag_33\n      jump\t// in\n    tag_30:\n      stop\n        /* \"Durian.sol\":2382:2472  function getReviews() public view returns (string memory) {... */\n    tag_5:\n      tag_34\n      tag_35\n      jump\t// in\n    tag_34:\n      mload(0x40)\n      tag_36\n      swap2\n      swap1\n      tag_37\n      jump\t// in\n    tag_36:\n      mload(0x40)\n      dup1\n      swap2\n      sub\n      swap1\n      return\n        /* \"Durian.sol\":1921:2016  function setHarvestTree(uint harvest_tree) public {... */\n    tag_6:\n      tag_38\n      0x04\n      dup1\n      calldatasize\n      sub\n      dup2\n      add\n      swap1\n      tag_39\n      swap2\n      swap1\n      tag_28\n      jump\t// in\n    tag_39:\n      tag_40\n      jump\t// in\n    tag_38:\n      stop\n        /* \"Durian.sol\":1721:1819  function setHarvestedBy(address harvested_by) public {... */\n    tag_7:\n      tag_41\n      0x04\n      dup1\n      calldatasize\n      sub\n      dup2\n      add\n      swap1\n      tag_42\n      swap2\n      swap1\n      tag_32\n      jump\t// in\n    tag_42:\n      tag_43\n      jump\t// in\n    tag_41:\n      stop\n        /* \"Durian.sol\":1622:1715  function getHarvestedBy() public view returns (address) {... */\n    tag_8:\n      tag_44\n      tag_45\n      jump\t// in\n    tag_44:\n      mload(0x40)\n      tag_46\n      swap2\n      swap1\n      tag_47\n      jump\t// in\n    tag_46:\n      mload(0x40)\n      dup1\n      swap2\n      sub\n      swap1\n      return\n        /* \"Durian.sol\":2569:2661  function getTotalDurians() public view returns (uint) {... */\n    tag_9:\n      tag_48\n      tag_49\n      jump\t// in\n    tag_48:\n      mload(0x40)\n      tag_50\n      swap2\n      swap1\n      tag_51\n      jump\t// in\n    tag_50:\n      mload(0x40)\n      dup1\n      swap2\n      sub\n      swap1\n      return\n        /* \"Durian.sol\":1825:1915  function getHarvestTree() public view returns (uint) {... */\n    tag_10:\n      tag_52\n      tag_53\n      jump\t// in\n    tag_52:\n      mload(0x40)\n      tag_54\n      swap2\n      swap1\n      tag_51\n      jump\t// in\n    tag_54:\n      mload(0x40)\n      dup1\n      swap2\n      sub\n      swap1\n      return\n        /* \"Durian.sol\":2478:2563  function setReviews(string memory reviews) public {... */\n    tag_11:\n      tag_55\n      0x04\n      dup1\n      calldatasize\n      sub\n      dup2\n      add\n      swap1\n      tag_56\n      swap2\n      swap1\n      tag_57\n      jump\t// in\n    tag_56:\n      tag_58\n      jump\t// in\n    tag_55:\n      stop\n        /* \"Durian.sol\":2022:2112  function getHarvestFarm() public view returns (uint) {... */\n    tag_12:\n      tag_59\n      tag_60\n      jump\t// in\n    tag_59:\n      mload(0x40)\n      tag_61\n      swap2\n      swap1\n      tag_51\n      jump\t// in\n    tag_61:\n      mload(0x40)\n      dup1\n      swap2\n      sub\n      swap1\n      return\n        /* \"Durian.sol\":2219:2299  function getOwner() public view returns (address) {... */\n    tag_13:\n      tag_62\n      tag_63\n      jump\t// in\n    tag_62:\n      mload(0x40)\n      tag_64\n      swap2\n      swap1\n      tag_47\n      jump\t// in\n    tag_64:\n      mload(0x40)\n      dup1\n      swap2\n      sub\n      swap1\n      return\n        /* \"Durian.sol\":1494:1616  function setHarvestedDateTime(uint harvested_date_time) public {... */\n    tag_14:\n      tag_65\n      0x04\n      dup1\n      calldatasize\n      sub\n      dup2\n      add\n      swap1\n      tag_66\n      swap2\n      swap1\n      tag_28\n      jump\t// in\n    tag_66:\n      tag_67\n      jump\t// in\n    tag_65:\n      stop\n        /* \"Durian.sol\":2118:2213  function setHarvestFarm(uint harvest_farm) public {... */\n    tag_15:\n      tag_68\n      0x04\n      dup1\n      calldatasize\n      sub\n      dup2\n      add\n      swap1\n      tag_69\n      swap2\n      swap1\n      tag_28\n      jump\t// in\n    tag_69:\n      tag_70\n      jump\t// in\n    tag_68:\n      stop\n        /* \"Durian.sol\":1222:1301  function getWeight() public view returns (uint) {... */\n    tag_16:\n      tag_71\n      tag_72\n      jump\t// in\n    tag_71:\n      mload(0x40)\n      tag_73\n      swap2\n      swap1\n      tag_51\n      jump\t// in\n    tag_73:\n      mload(0x40)\n      dup1\n      swap2\n      sub\n      swap1\n      return\n        /* \"Durian.sol\":2667:2766  function setTotalDurians(uint total_durians) public {... */\n    tag_17:\n      tag_74\n      0x04\n      dup1\n      calldatasize\n      sub\n      dup2\n      add\n      swap1\n      tag_75\n      swap2\n      swap1\n      tag_28\n      jump\t// in\n    tag_75:\n      tag_76\n      jump\t// in\n    tag_74:\n      stop\n        /* \"Durian.sol\":932:1003  function getID() public view returns (uint) {... */\n    tag_18:\n      tag_77\n      tag_78\n      jump\t// in\n    tag_77:\n      mload(0x40)\n      tag_79\n      swap2\n      swap1\n      tag_51\n      jump\t// in\n    tag_79:\n      mload(0x40)\n      dup1\n      swap2\n      sub\n      swap1\n      return\n        /* \"Durian.sol\":1385:1488  function getHarvestedDateTime() public view returns (uint) {... */\n    tag_19:\n      tag_80\n      tag_81\n      jump\t// in\n    tag_80:\n      mload(0x40)\n      tag_82\n      swap2\n      swap1\n      tag_51\n      jump\t// in\n    tag_82:\n      mload(0x40)\n      dup1\n      swap2\n      sub\n      swap1\n      return\n        /* \"Durian.sol\":1071:1146  function getKind() public view returns (uint) {... */\n    tag_20:\n      tag_83\n      tag_84\n      jump\t// in\n    tag_83:\n      mload(0x40)\n      tag_85\n      swap2\n      swap1\n      tag_51\n      jump\t// in\n    tag_85:\n      mload(0x40)\n      dup1\n      swap2\n      sub\n      swap1\n      return\n        /* \"Durian.sol\":1009:1065  function setID(uint id) public {... */\n    tag_21:\n      tag_86\n      0x04\n      dup1\n      calldatasize\n      sub\n      dup2\n      add\n      swap1\n      tag_87\n      swap2\n      swap1\n      tag_28\n      jump\t// in\n    tag_87:\n      tag_88\n      jump\t// in\n    tag_86:\n      stop\n        /* \"Durian.sol\":1307:1379  function setWeight(uint weight) public {... */\n    tag_22:\n      tag_89\n      0x04\n      dup1\n      calldatasize\n      sub\n      dup2\n      add\n      swap1\n      tag_90\n      swap2\n      swap1\n      tag_28\n      jump\t// in\n    tag_90:\n      tag_91\n      jump\t// in\n    tag_89:\n      stop\n        /* \"Durian.sol\":1152:1216  function setKind(uint kind) public {... */\n    tag_29:\n        /* \"Durian.sol\":1205:1209  kind */\n      dup1\n        /* \"Durian.sol\":1197:1202  _kind */\n      0x01\n        /* \"Durian.sol\":1197:1209  _kind = kind */\n      dup2\n      swap1\n      sstore\n      pop\n        /* \"Durian.sol\":1152:1216  function setKind(uint kind) public {... */\n      pop\n      jump\t// out\n        /* \"Durian.sol\":2305:2376  function setOwner(address owner) public {... */\n    tag_33:\n        /* \"Durian.sol\":2364:2369  owner */\n      dup1\n        /* \"Durian.sol\":2355:2361  _owner */\n      0x07\n      0x00\n        /* \"Durian.sol\":2355:2369  _owner = owner */\n      0x0100\n      exp\n      dup2\n      sload\n      dup2\n      0xffffffffffffffffffffffffffffffffffffffff\n      mul\n      not\n      and\n      swap1\n      dup4\n      0xffffffffffffffffffffffffffffffffffffffff\n      and\n      mul\n      or\n      swap1\n      sstore\n      pop\n        /* \"Durian.sol\":2305:2376  function setOwner(address owner) public {... */\n      pop\n      jump\t// out\n        /* \"Durian.sol\":2382:2472  function getReviews() public view returns (string memory) {... */\n    tag_35:\n        /* \"Durian.sol\":2425:2438  string memory */\n      0x60\n        /* \"Durian.sol\":2457:2465  _reviews */\n      0x08\n        /* \"Durian.sol\":2450:2465  return _reviews */\n      dup1\n      sload\n      tag_95\n      swap1\n      tag_96\n      jump\t// in\n    tag_95:\n      dup1\n      0x1f\n      add\n      0x20\n      dup1\n      swap2\n      div\n      mul\n      0x20\n      add\n      mload(0x40)\n      swap1\n      dup2\n      add\n      0x40\n      mstore\n      dup1\n      swap3\n      swap2\n      swap1\n      dup2\n      dup2\n      mstore\n      0x20\n      add\n      dup3\n      dup1\n      sload\n      tag_97\n      swap1\n      tag_96\n      jump\t// in\n    tag_97:\n      dup1\n      iszero\n      tag_98\n      jumpi\n      dup1\n      0x1f\n      lt\n      tag_99\n      jumpi\n      0x0100\n      dup1\n      dup4\n      sload\n      div\n      mul\n      dup4\n      mstore\n      swap2\n      0x20\n      add\n      swap2\n      jump(tag_98)\n    tag_99:\n      dup3\n      add\n      swap2\n      swap1\n      0x00\n      mstore\n      keccak256(0x00, 0x20)\n      swap1\n    tag_100:\n      dup2\n      sload\n      dup2\n      mstore\n      swap1\n      0x01\n      add\n      swap1\n      0x20\n      add\n      dup1\n      dup4\n      gt\n      tag_100\n      jumpi\n      dup3\n      swap1\n      sub\n      0x1f\n      and\n      dup3\n      add\n      swap2\n    tag_98:\n      pop\n      pop\n      pop\n      pop\n      pop\n      swap1\n      pop\n        /* \"Durian.sol\":2382:2472  function getReviews() public view returns (string memory) {... */\n      swap1\n      jump\t// out\n        /* \"Durian.sol\":1921:2016  function setHarvestTree(uint harvest_tree) public {... */\n    tag_40:\n        /* \"Durian.sol\":1997:2009  harvest_tree */\n      dup1\n        /* \"Durian.sol\":1981:1994  _harvest_tree */\n      0x05\n        /* \"Durian.sol\":1981:2009  _harvest_tree = harvest_tree */\n      dup2\n      swap1\n      sstore\n      pop\n        /* \"Durian.sol\":1921:2016  function setHarvestTree(uint harvest_tree) public {... */\n      pop\n      jump\t// out\n        /* \"Durian.sol\":1721:1819  function setHarvestedBy(address harvested_by) public {... */\n    tag_43:\n        /* \"Durian.sol\":1800:1812  harvested_by */\n      dup1\n        /* \"Durian.sol\":1784:1797  _harvested_by */\n      0x04\n      0x00\n        /* \"Durian.sol\":1784:1812  _harvested_by = harvested_by */\n      0x0100\n      exp\n      dup2\n      sload\n      dup2\n      0xffffffffffffffffffffffffffffffffffffffff\n      mul\n      not\n      and\n      swap1\n      dup4\n      0xffffffffffffffffffffffffffffffffffffffff\n      and\n      mul\n      or\n      swap1\n      sstore\n      pop\n        /* \"Durian.sol\":1721:1819  function setHarvestedBy(address harvested_by) public {... */\n      pop\n      jump\t// out\n        /* \"Durian.sol\":1622:1715  function getHarvestedBy() public view returns (address) {... */\n    tag_45:\n        /* \"Durian.sol\":1669:1676  address */\n      0x00\n        /* \"Durian.sol\":1695:1708  _harvested_by */\n      0x04\n      0x00\n      swap1\n      sload\n      swap1\n      0x0100\n      exp\n      swap1\n      div\n      0xffffffffffffffffffffffffffffffffffffffff\n      and\n        /* \"Durian.sol\":1688:1708  return _harvested_by */\n      swap1\n      pop\n        /* \"Durian.sol\":1622:1715  function getHarvestedBy() public view returns (address) {... */\n      swap1\n      jump\t// out\n        /* \"Durian.sol\":2569:2661  function getTotalDurians() public view returns (uint) {... */\n    tag_49:\n        /* \"Durian.sol\":2617:2621  uint */\n      0x00\n        /* \"Durian.sol\":2640:2654  _total_durians */\n      sload(0x09)\n        /* \"Durian.sol\":2633:2654  return _total_durians */\n      swap1\n      pop\n        /* \"Durian.sol\":2569:2661  function getTotalDurians() public view returns (uint) {... */\n      swap1\n      jump\t// out\n        /* \"Durian.sol\":1825:1915  function getHarvestTree() public view returns (uint) {... */\n    tag_53:\n        /* \"Durian.sol\":1872:1876  uint */\n      0x00\n        /* \"Durian.sol\":1895:1908  _harvest_tree */\n      sload(0x05)\n        /* \"Durian.sol\":1888:1908  return _harvest_tree */\n      swap1\n      pop\n        /* \"Durian.sol\":1825:1915  function getHarvestTree() public view returns (uint) {... */\n      swap1\n      jump\t// out\n        /* \"Durian.sol\":2478:2563  function setReviews(string memory reviews) public {... */\n    tag_58:\n        /* \"Durian.sol\":2549:2556  reviews */\n      dup1\n        /* \"Durian.sol\":2538:2546  _reviews */\n      0x08\n        /* \"Durian.sol\":2538:2556  _reviews = reviews */\n      swap1\n      dup1\n      mload\n      swap1\n      0x20\n      add\n      swap1\n      tag_107\n      swap3\n      swap2\n      swap1\n      tag_108\n      jump\t// in\n    tag_107:\n      pop\n        /* \"Durian.sol\":2478:2563  function setReviews(string memory reviews) public {... */\n      pop\n      jump\t// out\n        /* \"Durian.sol\":2022:2112  function getHarvestFarm() public view returns (uint) {... */\n    tag_60:\n        /* \"Durian.sol\":2069:2073  uint */\n      0x00\n        /* \"Durian.sol\":2092:2105  _harvest_farm */\n      sload(0x06)\n        /* \"Durian.sol\":2085:2105  return _harvest_farm */\n      swap1\n      pop\n        /* \"Durian.sol\":2022:2112  function getHarvestFarm() public view returns (uint) {... */\n      swap1\n      jump\t// out\n        /* \"Durian.sol\":2219:2299  function getOwner() public view returns (address) {... */\n    tag_63:\n        /* \"Durian.sol\":2260:2267  address */\n      0x00\n        /* \"Durian.sol\":2286:2292  _owner */\n      0x07\n      0x00\n      swap1\n      sload\n      swap1\n      0x0100\n      exp\n      swap1\n      div\n      0xffffffffffffffffffffffffffffffffffffffff\n      and\n        /* \"Durian.sol\":2279:2292  return _owner */\n      swap1\n      pop\n        /* \"Durian.sol\":2219:2299  function getOwner() public view returns (address) {... */\n      swap1\n      jump\t// out\n        /* \"Durian.sol\":1494:1616  function setHarvestedDateTime(uint harvested_date_time) public {... */\n    tag_67:\n        /* \"Durian.sol\":1590:1609  harvested_date_time */\n      dup1\n        /* \"Durian.sol\":1567:1587  _harvested_date_time */\n      0x03\n        /* \"Durian.sol\":1567:1609  _harvested_date_time = harvested_date_time */\n      dup2\n      swap1\n      sstore\n      pop\n        /* \"Durian.sol\":1494:1616  function setHarvestedDateTime(uint harvested_date_time) public {... */\n      pop\n      jump\t// out\n        /* \"Durian.sol\":2118:2213  function setHarvestFarm(uint harvest_farm) public {... */\n    tag_70:\n        /* \"Durian.sol\":2194:2206  harvest_farm */\n      dup1\n        /* \"Durian.sol\":2178:2191  _harvest_farm */\n      0x06\n        /* \"Durian.sol\":2178:2206  _harvest_farm = harvest_farm */\n      dup2\n      swap1\n      sstore\n      pop\n        /* \"Durian.sol\":2118:2213  function setHarvestFarm(uint harvest_farm) public {... */\n      pop\n      jump\t// out\n        /* \"Durian.sol\":1222:1301  function getWeight() public view returns (uint) {... */\n    tag_72:\n        /* \"Durian.sol\":1264:1268  uint */\n      0x00\n        /* \"Durian.sol\":1287:1294  _weight */\n      sload(0x02)\n        /* \"Durian.sol\":1280:1294  return _weight */\n      swap1\n      pop\n        /* \"Durian.sol\":1222:1301  function getWeight() public view returns (uint) {... */\n      swap1\n      jump\t// out\n        /* \"Durian.sol\":2667:2766  function setTotalDurians(uint total_durians) public {... */\n    tag_76:\n        /* \"Durian.sol\":2746:2759  total_durians */\n      dup1\n        /* \"Durian.sol\":2729:2743  _total_durians */\n      0x09\n        /* \"Durian.sol\":2729:2759  _total_durians = total_durians */\n      dup2\n      swap1\n      sstore\n      pop\n        /* \"Durian.sol\":2667:2766  function setTotalDurians(uint total_durians) public {... */\n      pop\n      jump\t// out\n        /* \"Durian.sol\":932:1003  function getID() public view returns (uint) {... */\n    tag_78:\n        /* \"Durian.sol\":970:974  uint */\n      0x00\n        /* \"Durian.sol\":993:996  _id */\n      dup1\n      sload\n        /* \"Durian.sol\":986:996  return _id */\n      swap1\n      pop\n        /* \"Durian.sol\":932:1003  function getID() public view returns (uint) {... */\n      swap1\n      jump\t// out\n        /* \"Durian.sol\":1385:1488  function getHarvestedDateTime() public view returns (uint) {... */\n    tag_81:\n        /* \"Durian.sol\":1438:1442  uint */\n      0x00\n        /* \"Durian.sol\":1461:1481  _harvested_date_time */\n      sload(0x03)\n        /* \"Durian.sol\":1454:1481  return _harvested_date_time */\n      swap1\n      pop\n        /* \"Durian.sol\":1385:1488  function getHarvestedDateTime() public view returns (uint) {... */\n      swap1\n      jump\t// out\n        /* \"Durian.sol\":1071:1146  function getKind() public view returns (uint) {... */\n    tag_84:\n        /* \"Durian.sol\":1111:1115  uint */\n      0x00\n        /* \"Durian.sol\":1134:1139  _kind */\n      sload(0x01)\n        /* \"Durian.sol\":1127:1139  return _kind */\n      swap1\n      pop\n        /* \"Durian.sol\":1071:1146  function getKind() public view returns (uint) {... */\n      swap1\n      jump\t// out\n        /* \"Durian.sol\":1009:1065  function setID(uint id) public {... */\n    tag_88:\n        /* \"Durian.sol\":1056:1058  id */\n      dup1\n        /* \"Durian.sol\":1050:1053  _id */\n      0x00\n        /* \"Durian.sol\":1050:1058  _id = id */\n      dup2\n      swap1\n      sstore\n      pop\n        /* \"Durian.sol\":1009:1065  function setID(uint id) public {... */\n      pop\n      jump\t// out\n        /* \"Durian.sol\":1307:1379  function setWeight(uint weight) public {... */\n    tag_91:\n        /* \"Durian.sol\":1366:1372  weight */\n      dup1\n        /* \"Durian.sol\":1356:1363  _weight */\n      0x02\n        /* \"Durian.sol\":1356:1372  _weight = weight */\n      dup2\n      swap1\n      sstore\n      pop\n        /* \"Durian.sol\":1307:1379  function setWeight(uint weight) public {... */\n      pop\n      jump\t// out\n    tag_108:\n      dup3\n      dup1\n      sload\n      tag_120\n      swap1\n      tag_96\n      jump\t// in\n    tag_120:\n      swap1\n      0x00\n      mstore\n      keccak256(0x00, 0x20)\n      swap1\n      0x1f\n      add\n      0x20\n      swap1\n      div\n      dup2\n      add\n      swap3\n      dup3\n      tag_122\n      jumpi\n      0x00\n      dup6\n      sstore\n      jump(tag_121)\n    tag_122:\n      dup3\n      0x1f\n      lt\n      tag_123\n      jumpi\n      dup1\n      mload\n      not(0xff)\n      and\n      dup4\n      dup1\n      add\n      or\n      dup6\n      sstore\n      jump(tag_121)\n    tag_123:\n      dup3\n      dup1\n      add\n      0x01\n      add\n      dup6\n      sstore\n      dup3\n      iszero\n      tag_121\n      jumpi\n      swap2\n      dup3\n      add\n    tag_124:\n      dup3\n      dup2\n      gt\n      iszero\n      tag_125\n      jumpi\n      dup3\n      mload\n      dup3\n      sstore\n      swap2\n      0x20\n      add\n      swap2\n      swap1\n      0x01\n      add\n      swap1\n      jump(tag_124)\n    tag_125:\n    tag_121:\n      pop\n      swap1\n      pop\n      tag_126\n      swap2\n      swap1\n      tag_127\n      jump\t// in\n    tag_126:\n      pop\n      swap1\n      jump\t// out\n    tag_127:\n    tag_128:\n      dup1\n      dup3\n      gt\n      iszero\n      tag_129\n      jumpi\n      0x00\n      dup2\n      0x00\n      swap1\n      sstore\n      pop\n      0x01\n      add\n      jump(tag_128)\n    tag_129:\n      pop\n      swap1\n      jump\t// out\n        /* \"#utility.yul\":7:351   */\n    tag_131:\n      0x00\n        /* \"#utility.yul\":110:175   */\n      tag_133\n        /* \"#utility.yul\":125:174   */\n      tag_134\n        /* \"#utility.yul\":167:173   */\n      dup5\n        /* \"#utility.yul\":125:174   */\n      tag_135\n      jump\t// in\n    tag_134:\n        /* \"#utility.yul\":110:175   */\n      tag_136\n      jump\t// in\n    tag_133:\n        /* \"#utility.yul\":101:175   */\n      swap1\n      pop\n        /* \"#utility.yul\":198:204   */\n      dup3\n        /* \"#utility.yul\":191:196   */\n      dup2\n        /* \"#utility.yul\":184:205   */\n      mstore\n        /* \"#utility.yul\":236:240   */\n      0x20\n        /* \"#utility.yul\":229:234   */\n      dup2\n        /* \"#utility.yul\":225:241   */\n      add\n        /* \"#utility.yul\":274:277   */\n      dup5\n        /* \"#utility.yul\":265:271   */\n      dup5\n        /* \"#utility.yul\":260:263   */\n      dup5\n        /* \"#utility.yul\":256:272   */\n      add\n        /* \"#utility.yul\":253:278   */\n      gt\n        /* \"#utility.yul\":250:252   */\n      iszero\n      tag_137\n      jumpi\n        /* \"#utility.yul\":291:292   */\n      0x00\n        /* \"#utility.yul\":288:289   */\n      dup1\n        /* \"#utility.yul\":281:293   */\n      revert\n        /* \"#utility.yul\":250:252   */\n    tag_137:\n        /* \"#utility.yul\":304:345   */\n      tag_138\n        /* \"#utility.yul\":338:344   */\n      dup5\n        /* \"#utility.yul\":333:336   */\n      dup3\n        /* \"#utility.yul\":328:331   */\n      dup6\n        /* \"#utility.yul\":304:345   */\n      tag_139\n      jump\t// in\n    tag_138:\n        /* \"#utility.yul\":91:351   */\n      pop\n      swap4\n      swap3\n      pop\n      pop\n      pop\n      jump\t// out\n        /* \"#utility.yul\":357:496   */\n    tag_140:\n      0x00\n        /* \"#utility.yul\":441:447   */\n      dup2\n        /* \"#utility.yul\":428:448   */\n      calldataload\n        /* \"#utility.yul\":419:448   */\n      swap1\n      pop\n        /* \"#utility.yul\":457:490   */\n      tag_142\n        /* \"#utility.yul\":484:489   */\n      dup2\n        /* \"#utility.yul\":457:490   */\n      tag_143\n      jump\t// in\n    tag_142:\n        /* \"#utility.yul\":409:496   */\n      swap3\n      swap2\n      pop\n      pop\n      jump\t// out\n        /* \"#utility.yul\":516:789   */\n    tag_144:\n      0x00\n        /* \"#utility.yul\":621:624   */\n      dup3\n        /* \"#utility.yul\":614:618   */\n      0x1f\n        /* \"#utility.yul\":606:612   */\n      dup4\n        /* \"#utility.yul\":602:619   */\n      add\n        /* \"#utility.yul\":598:625   */\n      slt\n        /* \"#utility.yul\":588:590   */\n      tag_146\n      jumpi\n        /* \"#utility.yul\":639:640   */\n      0x00\n        /* \"#utility.yul\":636:637   */\n      dup1\n        /* \"#utility.yul\":629:641   */\n      revert\n        /* \"#utility.yul\":588:590   */\n    tag_146:\n        /* \"#utility.yul\":679:685   */\n      dup2\n        /* \"#utility.yul\":666:686   */\n      calldataload\n        /* \"#utility.yul\":704:783   */\n      tag_147\n        /* \"#utility.yul\":779:782   */\n      dup5\n        /* \"#utility.yul\":771:777   */\n      dup3\n        /* \"#utility.yul\":764:768   */\n      0x20\n        /* \"#utility.yul\":756:762   */\n      dup7\n        /* \"#utility.yul\":752:769   */\n      add\n        /* \"#utility.yul\":704:783   */\n      tag_131\n      jump\t// in\n    tag_147:\n        /* \"#utility.yul\":695:783   */\n      swap2\n      pop\n        /* \"#utility.yul\":578:789   */\n      pop\n      swap3\n      swap2\n      pop\n      pop\n      jump\t// out\n        /* \"#utility.yul\":795:934   */\n    tag_148:\n      0x00\n        /* \"#utility.yul\":879:885   */\n      dup2\n        /* \"#utility.yul\":866:886   */\n      calldataload\n        /* \"#utility.yul\":857:886   */\n      swap1\n      pop\n        /* \"#utility.yul\":895:928   */\n      tag_150\n        /* \"#utility.yul\":922:927   */\n      dup2\n        /* \"#utility.yul\":895:928   */\n      tag_151\n      jump\t// in\n    tag_150:\n        /* \"#utility.yul\":847:934   */\n      swap3\n      swap2\n      pop\n      pop\n      jump\t// out\n        /* \"#utility.yul\":940:1202   */\n    tag_32:\n      0x00\n        /* \"#utility.yul\":1048:1050   */\n      0x20\n        /* \"#utility.yul\":1036:1045   */\n      dup3\n        /* \"#utility.yul\":1027:1034   */\n      dup5\n        /* \"#utility.yul\":1023:1046   */\n      sub\n        /* \"#utility.yul\":1019:1051   */\n      slt\n        /* \"#utility.yul\":1016:1018   */\n      iszero\n      tag_153\n      jumpi\n        /* \"#utility.yul\":1064:1065   */\n      0x00\n        /* \"#utility.yul\":1061:1062   */\n      dup1\n        /* \"#utility.yul\":1054:1066   */\n      revert\n        /* \"#utility.yul\":1016:1018   */\n    tag_153:\n        /* \"#utility.yul\":1107:1108   */\n      0x00\n        /* \"#utility.yul\":1132:1185   */\n      tag_154\n        /* \"#utility.yul\":1177:1184   */\n      dup5\n        /* \"#utility.yul\":1168:1174   */\n      dup3\n        /* \"#utility.yul\":1157:1166   */\n      dup6\n        /* \"#utility.yul\":1153:1175   */\n      add\n        /* \"#utility.yul\":1132:1185   */\n      tag_140\n      jump\t// in\n    tag_154:\n        /* \"#utility.yul\":1122:1185   */\n      swap2\n      pop\n        /* \"#utility.yul\":1078:1195   */\n      pop\n        /* \"#utility.yul\":1006:1202   */\n      swap3\n      swap2\n      pop\n      pop\n      jump\t// out\n        /* \"#utility.yul\":1208:1583   */\n    tag_57:\n      0x00\n        /* \"#utility.yul\":1326:1328   */\n      0x20\n        /* \"#utility.yul\":1314:1323   */\n      dup3\n        /* \"#utility.yul\":1305:1312   */\n      dup5\n        /* \"#utility.yul\":1301:1324   */\n      sub\n        /* \"#utility.yul\":1297:1329   */\n      slt\n        /* \"#utility.yul\":1294:1296   */\n      iszero\n      tag_156\n      jumpi\n        /* \"#utility.yul\":1342:1343   */\n      0x00\n        /* \"#utility.yul\":1339:1340   */\n      dup1\n        /* \"#utility.yul\":1332:1344   */\n      revert\n        /* \"#utility.yul\":1294:1296   */\n    tag_156:\n        /* \"#utility.yul\":1413:1414   */\n      0x00\n        /* \"#utility.yul\":1402:1411   */\n      dup3\n        /* \"#utility.yul\":1398:1415   */\n      add\n        /* \"#utility.yul\":1385:1416   */\n      calldataload\n        /* \"#utility.yul\":1443:1461   */\n      0xffffffffffffffff\n        /* \"#utility.yul\":1435:1441   */\n      dup2\n        /* \"#utility.yul\":1432:1462   */\n      gt\n        /* \"#utility.yul\":1429:1431   */\n      iszero\n      tag_157\n      jumpi\n        /* \"#utility.yul\":1475:1476   */\n      0x00\n        /* \"#utility.yul\":1472:1473   */\n      dup1\n        /* \"#utility.yul\":1465:1477   */\n      revert\n        /* \"#utility.yul\":1429:1431   */\n    tag_157:\n        /* \"#utility.yul\":1503:1566   */\n      tag_158\n        /* \"#utility.yul\":1558:1565   */\n      dup5\n        /* \"#utility.yul\":1549:1555   */\n      dup3\n        /* \"#utility.yul\":1538:1547   */\n      dup6\n        /* \"#utility.yul\":1534:1556   */\n      add\n        /* \"#utility.yul\":1503:1566   */\n      tag_144\n      jump\t// in\n    tag_158:\n        /* \"#utility.yul\":1493:1566   */\n      swap2\n      pop\n        /* \"#utility.yul\":1356:1576   */\n      pop\n        /* \"#utility.yul\":1284:1583   */\n      swap3\n      swap2\n      pop\n      pop\n      jump\t// out\n        /* \"#utility.yul\":1589:1851   */\n    tag_28:\n      0x00\n        /* \"#utility.yul\":1697:1699   */\n      0x20\n        /* \"#utility.yul\":1685:1694   */\n      dup3\n        /* \"#utility.yul\":1676:1683   */\n      dup5\n        /* \"#utility.yul\":1672:1695   */\n      sub\n        /* \"#utility.yul\":1668:1700   */\n      slt\n        /* \"#utility.yul\":1665:1667   */\n      iszero\n      tag_160\n      jumpi\n        /* \"#utility.yul\":1713:1714   */\n      0x00\n        /* \"#utility.yul\":1710:1711   */\n      dup1\n        /* \"#utility.yul\":1703:1715   */\n      revert\n        /* \"#utility.yul\":1665:1667   */\n    tag_160:\n        /* \"#utility.yul\":1756:1757   */\n      0x00\n        /* \"#utility.yul\":1781:1834   */\n      tag_161\n        /* \"#utility.yul\":1826:1833   */\n      dup5\n        /* \"#utility.yul\":1817:1823   */\n      dup3\n        /* \"#utility.yul\":1806:1815   */\n      dup6\n        /* \"#utility.yul\":1802:1824   */\n      add\n        /* \"#utility.yul\":1781:1834   */\n      tag_148\n      jump\t// in\n    tag_161:\n        /* \"#utility.yul\":1771:1834   */\n      swap2\n      pop\n        /* \"#utility.yul\":1727:1844   */\n      pop\n        /* \"#utility.yul\":1655:1851   */\n      swap3\n      swap2\n      pop\n      pop\n      jump\t// out\n        /* \"#utility.yul\":1857:1975   */\n    tag_162:\n        /* \"#utility.yul\":1944:1968   */\n      tag_164\n        /* \"#utility.yul\":1962:1967   */\n      dup2\n        /* \"#utility.yul\":1944:1968   */\n      tag_165\n      jump\t// in\n    tag_164:\n        /* \"#utility.yul\":1939:1942   */\n      dup3\n        /* \"#utility.yul\":1932:1969   */\n      mstore\n        /* \"#utility.yul\":1922:1975   */\n      pop\n      pop\n      jump\t// out\n        /* \"#utility.yul\":1981:2345   */\n    tag_166:\n      0x00\n        /* \"#utility.yul\":2097:2136   */\n      tag_168\n        /* \"#utility.yul\":2130:2135   */\n      dup3\n        /* \"#utility.yul\":2097:2136   */\n      tag_169\n      jump\t// in\n    tag_168:\n        /* \"#utility.yul\":2152:2223   */\n      tag_170\n        /* \"#utility.yul\":2216:2222   */\n      dup2\n        /* \"#utility.yul\":2211:2214   */\n      dup6\n        /* \"#utility.yul\":2152:2223   */\n      tag_171\n      jump\t// in\n    tag_170:\n        /* \"#utility.yul\":2145:2223   */\n      swap4\n      pop\n        /* \"#utility.yul\":2232:2284   */\n      tag_172\n        /* \"#utility.yul\":2277:2283   */\n      dup2\n        /* \"#utility.yul\":2272:2275   */\n      dup6\n        /* \"#utility.yul\":2265:2269   */\n      0x20\n        /* \"#utility.yul\":2258:2263   */\n      dup7\n        /* \"#utility.yul\":2254:2270   */\n      add\n        /* \"#utility.yul\":2232:2284   */\n      tag_173\n      jump\t// in\n    tag_172:\n        /* \"#utility.yul\":2309:2338   */\n      tag_174\n        /* \"#utility.yul\":2331:2337   */\n      dup2\n        /* \"#utility.yul\":2309:2338   */\n      tag_175\n      jump\t// in\n    tag_174:\n        /* \"#utility.yul\":2304:2307   */\n      dup5\n        /* \"#utility.yul\":2300:2339   */\n      add\n        /* \"#utility.yul\":2293:2339   */\n      swap2\n      pop\n        /* \"#utility.yul\":2073:2345   */\n      pop\n      swap3\n      swap2\n      pop\n      pop\n      jump\t// out\n        /* \"#utility.yul\":2351:2469   */\n    tag_176:\n        /* \"#utility.yul\":2438:2462   */\n      tag_178\n        /* \"#utility.yul\":2456:2461   */\n      dup2\n        /* \"#utility.yul\":2438:2462   */\n      tag_179\n      jump\t// in\n    tag_178:\n        /* \"#utility.yul\":2433:2436   */\n      dup3\n        /* \"#utility.yul\":2426:2463   */\n      mstore\n        /* \"#utility.yul\":2416:2469   */\n      pop\n      pop\n      jump\t// out\n        /* \"#utility.yul\":2475:2697   */\n    tag_47:\n      0x00\n        /* \"#utility.yul\":2606:2608   */\n      0x20\n        /* \"#utility.yul\":2595:2604   */\n      dup3\n        /* \"#utility.yul\":2591:2609   */\n      add\n        /* \"#utility.yul\":2583:2609   */\n      swap1\n      pop\n        /* \"#utility.yul\":2619:2690   */\n      tag_181\n        /* \"#utility.yul\":2687:2688   */\n      0x00\n        /* \"#utility.yul\":2676:2685   */\n      dup4\n        /* \"#utility.yul\":2672:2689   */\n      add\n        /* \"#utility.yul\":2663:2669   */\n      dup5\n        /* \"#utility.yul\":2619:2690   */\n      tag_162\n      jump\t// in\n    tag_181:\n        /* \"#utility.yul\":2573:2697   */\n      swap3\n      swap2\n      pop\n      pop\n      jump\t// out\n        /* \"#utility.yul\":2703:3016   */\n    tag_37:\n      0x00\n        /* \"#utility.yul\":2854:2856   */\n      0x20\n        /* \"#utility.yul\":2843:2852   */\n      dup3\n        /* \"#utility.yul\":2839:2857   */\n      add\n        /* \"#utility.yul\":2831:2857   */\n      swap1\n      pop\n        /* \"#utility.yul\":2903:2912   */\n      dup2\n        /* \"#utility.yul\":2897:2901   */\n      dup2\n        /* \"#utility.yul\":2893:2913   */\n      sub\n        /* \"#utility.yul\":2889:2890   */\n      0x00\n        /* \"#utility.yul\":2878:2887   */\n      dup4\n        /* \"#utility.yul\":2874:2891   */\n      add\n        /* \"#utility.yul\":2867:2914   */\n      mstore\n        /* \"#utility.yul\":2931:3009   */\n      tag_183\n        /* \"#utility.yul\":3004:3008   */\n      dup2\n        /* \"#utility.yul\":2995:3001   */\n      dup5\n        /* \"#utility.yul\":2931:3009   */\n      tag_166\n      jump\t// in\n    tag_183:\n        /* \"#utility.yul\":2923:3009   */\n      swap1\n      pop\n        /* \"#utility.yul\":2821:3016   */\n      swap3\n      swap2\n      pop\n      pop\n      jump\t// out\n        /* \"#utility.yul\":3022:3244   */\n    tag_51:\n      0x00\n        /* \"#utility.yul\":3153:3155   */\n      0x20\n        /* \"#utility.yul\":3142:3151   */\n      dup3\n        /* \"#utility.yul\":3138:3156   */\n      add\n        /* \"#utility.yul\":3130:3156   */\n      swap1\n      pop\n        /* \"#utility.yul\":3166:3237   */\n      tag_185\n        /* \"#utility.yul\":3234:3235   */\n      0x00\n        /* \"#utility.yul\":3223:3232   */\n      dup4\n        /* \"#utility.yul\":3219:3236   */\n      add\n        /* \"#utility.yul\":3210:3216   */\n      dup5\n        /* \"#utility.yul\":3166:3237   */\n      tag_176\n      jump\t// in\n    tag_185:\n        /* \"#utility.yul\":3120:3244   */\n      swap3\n      swap2\n      pop\n      pop\n      jump\t// out\n        /* \"#utility.yul\":3250:3533   */\n    tag_136:\n      0x00\n        /* \"#utility.yul\":3316:3318   */\n      0x40\n        /* \"#utility.yul\":3310:3319   */\n      mload\n        /* \"#utility.yul\":3300:3319   */\n      swap1\n      pop\n        /* \"#utility.yul\":3358:3362   */\n      dup2\n        /* \"#utility.yul\":3350:3356   */\n      dup2\n        /* \"#utility.yul\":3346:3363   */\n      add\n        /* \"#utility.yul\":3465:3471   */\n      dup2\n        /* \"#utility.yul\":3453:3463   */\n      dup2\n        /* \"#utility.yul\":3450:3472   */\n      lt\n        /* \"#utility.yul\":3429:3447   */\n      0xffffffffffffffff\n        /* \"#utility.yul\":3417:3427   */\n      dup3\n        /* \"#utility.yul\":3414:3448   */\n      gt\n        /* \"#utility.yul\":3411:3473   */\n      or\n        /* \"#utility.yul\":3408:3410   */\n      iszero\n      tag_187\n      jumpi\n        /* \"#utility.yul\":3476:3494   */\n      tag_188\n      tag_189\n      jump\t// in\n    tag_188:\n        /* \"#utility.yul\":3408:3410   */\n    tag_187:\n        /* \"#utility.yul\":3516:3526   */\n      dup1\n        /* \"#utility.yul\":3512:3514   */\n      0x40\n        /* \"#utility.yul\":3505:3527   */\n      mstore\n        /* \"#utility.yul\":3290:3533   */\n      pop\n      swap2\n      swap1\n      pop\n      jump\t// out\n        /* \"#utility.yul\":3539:3871   */\n    tag_135:\n      0x00\n        /* \"#utility.yul\":3691:3709   */\n      0xffffffffffffffff\n        /* \"#utility.yul\":3683:3689   */\n      dup3\n        /* \"#utility.yul\":3680:3710   */\n      gt\n        /* \"#utility.yul\":3677:3679   */\n      iszero\n      tag_191\n      jumpi\n        /* \"#utility.yul\":3713:3731   */\n      tag_192\n      tag_189\n      jump\t// in\n    tag_192:\n        /* \"#utility.yul\":3677:3679   */\n    tag_191:\n        /* \"#utility.yul\":3798:3802   */\n      0x1f\n        /* \"#utility.yul\":3794:3803   */\n      not\n        /* \"#utility.yul\":3787:3791   */\n      0x1f\n        /* \"#utility.yul\":3779:3785   */\n      dup4\n        /* \"#utility.yul\":3775:3792   */\n      add\n        /* \"#utility.yul\":3771:3804   */\n      and\n        /* \"#utility.yul\":3763:3804   */\n      swap1\n      pop\n        /* \"#utility.yul\":3859:3863   */\n      0x20\n        /* \"#utility.yul\":3853:3857   */\n      dup2\n        /* \"#utility.yul\":3849:3864   */\n      add\n        /* \"#utility.yul\":3841:3864   */\n      swap1\n      pop\n        /* \"#utility.yul\":3606:3871   */\n      swap2\n      swap1\n      pop\n      jump\t// out\n        /* \"#utility.yul\":3877:3976   */\n    tag_169:\n      0x00\n        /* \"#utility.yul\":3963:3968   */\n      dup2\n        /* \"#utility.yul\":3957:3969   */\n      mload\n        /* \"#utility.yul\":3947:3969   */\n      swap1\n      pop\n        /* \"#utility.yul\":3936:3976   */\n      swap2\n      swap1\n      pop\n      jump\t// out\n        /* \"#utility.yul\":3982:4151   */\n    tag_171:\n      0x00\n        /* \"#utility.yul\":4100:4106   */\n      dup3\n        /* \"#utility.yul\":4095:4098   */\n      dup3\n        /* \"#utility.yul\":4088:4107   */\n      mstore\n        /* \"#utility.yul\":4140:4144   */\n      0x20\n        /* \"#utility.yul\":4135:4138   */\n      dup3\n        /* \"#utility.yul\":4131:4145   */\n      add\n        /* \"#utility.yul\":4116:4145   */\n      swap1\n      pop\n        /* \"#utility.yul\":4078:4151   */\n      swap3\n      swap2\n      pop\n      pop\n      jump\t// out\n        /* \"#utility.yul\":4157:4253   */\n    tag_165:\n      0x00\n        /* \"#utility.yul\":4223:4247   */\n      tag_196\n        /* \"#utility.yul\":4241:4246   */\n      dup3\n        /* \"#utility.yul\":4223:4247   */\n      tag_197\n      jump\t// in\n    tag_196:\n        /* \"#utility.yul\":4212:4247   */\n      swap1\n      pop\n        /* \"#utility.yul\":4202:4253   */\n      swap2\n      swap1\n      pop\n      jump\t// out\n        /* \"#utility.yul\":4259:4385   */\n    tag_197:\n      0x00\n        /* \"#utility.yul\":4336:4378   */\n      0xffffffffffffffffffffffffffffffffffffffff\n        /* \"#utility.yul\":4329:4334   */\n      dup3\n        /* \"#utility.yul\":4325:4379   */\n      and\n        /* \"#utility.yul\":4314:4379   */\n      swap1\n      pop\n        /* \"#utility.yul\":4304:4385   */\n      swap2\n      swap1\n      pop\n      jump\t// out\n        /* \"#utility.yul\":4391:4468   */\n    tag_179:\n      0x00\n        /* \"#utility.yul\":4457:4462   */\n      dup2\n        /* \"#utility.yul\":4446:4462   */\n      swap1\n      pop\n        /* \"#utility.yul\":4436:4468   */\n      swap2\n      swap1\n      pop\n      jump\t// out\n        /* \"#utility.yul\":4474:4628   */\n    tag_139:\n        /* \"#utility.yul\":4558:4564   */\n      dup3\n        /* \"#utility.yul\":4553:4556   */\n      dup2\n        /* \"#utility.yul\":4548:4551   */\n      dup4\n        /* \"#utility.yul\":4535:4565   */\n      calldatacopy\n        /* \"#utility.yul\":4620:4621   */\n      0x00\n        /* \"#utility.yul\":4611:4617   */\n      dup4\n        /* \"#utility.yul\":4606:4609   */\n      dup4\n        /* \"#utility.yul\":4602:4618   */\n      add\n        /* \"#utility.yul\":4595:4622   */\n      mstore\n        /* \"#utility.yul\":4525:4628   */\n      pop\n      pop\n      pop\n      jump\t// out\n        /* \"#utility.yul\":4634:4941   */\n    tag_173:\n        /* \"#utility.yul\":4702:4703   */\n      0x00\n        /* \"#utility.yul\":4712:4825   */\n    tag_202:\n        /* \"#utility.yul\":4726:4732   */\n      dup4\n        /* \"#utility.yul\":4723:4724   */\n      dup2\n        /* \"#utility.yul\":4720:4733   */\n      lt\n        /* \"#utility.yul\":4712:4825   */\n      iszero\n      tag_204\n      jumpi\n        /* \"#utility.yul\":4811:4812   */\n      dup1\n        /* \"#utility.yul\":4806:4809   */\n      dup3\n        /* \"#utility.yul\":4802:4813   */\n      add\n        /* \"#utility.yul\":4796:4814   */\n      mload\n        /* \"#utility.yul\":4792:4793   */\n      dup2\n        /* \"#utility.yul\":4787:4790   */\n      dup5\n        /* \"#utility.yul\":4783:4794   */\n      add\n        /* \"#utility.yul\":4776:4815   */\n      mstore\n        /* \"#utility.yul\":4748:4750   */\n      0x20\n        /* \"#utility.yul\":4745:4746   */\n      dup2\n        /* \"#utility.yul\":4741:4751   */\n      add\n        /* \"#utility.yul\":4736:4751   */\n      swap1\n      pop\n        /* \"#utility.yul\":4712:4825   */\n      jump(tag_202)\n    tag_204:\n        /* \"#utility.yul\":4843:4849   */\n      dup4\n        /* \"#utility.yul\":4840:4841   */\n      dup2\n        /* \"#utility.yul\":4837:4850   */\n      gt\n        /* \"#utility.yul\":4834:4836   */\n      iszero\n      tag_205\n      jumpi\n        /* \"#utility.yul\":4923:4924   */\n      0x00\n        /* \"#utility.yul\":4914:4920   */\n      dup5\n        /* \"#utility.yul\":4909:4912   */\n      dup5\n        /* \"#utility.yul\":4905:4921   */\n      add\n        /* \"#utility.yul\":4898:4925   */\n      mstore\n        /* \"#utility.yul\":4834:4836   */\n    tag_205:\n        /* \"#utility.yul\":4683:4941   */\n      pop\n      pop\n      pop\n      pop\n      jump\t// out\n        /* \"#utility.yul\":4947:5267   */\n    tag_96:\n      0x00\n        /* \"#utility.yul\":5028:5029   */\n      0x02\n        /* \"#utility.yul\":5022:5026   */\n      dup3\n        /* \"#utility.yul\":5018:5030   */\n      div\n        /* \"#utility.yul\":5008:5030   */\n      swap1\n      pop\n        /* \"#utility.yul\":5075:5076   */\n      0x01\n        /* \"#utility.yul\":5069:5073   */\n      dup3\n        /* \"#utility.yul\":5065:5077   */\n      and\n        /* \"#utility.yul\":5096:5114   */\n      dup1\n        /* \"#utility.yul\":5086:5088   */\n      tag_207\n      jumpi\n        /* \"#utility.yul\":5152:5156   */\n      0x7f\n        /* \"#utility.yul\":5144:5150   */\n      dup3\n        /* \"#utility.yul\":5140:5157   */\n      and\n        /* \"#utility.yul\":5130:5157   */\n      swap2\n      pop\n        /* \"#utility.yul\":5086:5088   */\n    tag_207:\n        /* \"#utility.yul\":5214:5216   */\n      0x20\n        /* \"#utility.yul\":5206:5212   */\n      dup3\n        /* \"#utility.yul\":5203:5217   */\n      lt\n        /* \"#utility.yul\":5183:5201   */\n      dup2\n        /* \"#utility.yul\":5180:5218   */\n      eq\n        /* \"#utility.yul\":5177:5179   */\n      iszero\n      tag_208\n      jumpi\n        /* \"#utility.yul\":5233:5251   */\n      tag_209\n      tag_210\n      jump\t// in\n    tag_209:\n        /* \"#utility.yul\":5177:5179   */\n    tag_208:\n        /* \"#utility.yul\":4998:5267   */\n      pop\n      swap2\n      swap1\n      pop\n      jump\t// out\n        /* \"#utility.yul\":5273:5453   */\n    tag_210:\n        /* \"#utility.yul\":5321:5398   */\n      0x4e487b7100000000000000000000000000000000000000000000000000000000\n        /* \"#utility.yul\":5318:5319   */\n      0x00\n        /* \"#utility.yul\":5311:5399   */\n      mstore\n        /* \"#utility.yul\":5418:5422   */\n      0x22\n        /* \"#utility.yul\":5415:5416   */\n      0x04\n        /* \"#utility.yul\":5408:5423   */\n      mstore\n        /* \"#utility.yul\":5442:5446   */\n      0x24\n        /* \"#utility.yul\":5439:5440   */\n      0x00\n        /* \"#utility.yul\":5432:5447   */\n      revert\n        /* \"#utility.yul\":5459:5639   */\n    tag_189:\n        /* \"#utility.yul\":5507:5584   */\n      0x4e487b7100000000000000000000000000000000000000000000000000000000\n        /* \"#utility.yul\":5504:5505   */\n      0x00\n        /* \"#utility.yul\":5497:5585   */\n      mstore\n        /* \"#utility.yul\":5604:5608   */\n      0x41\n        /* \"#utility.yul\":5601:5602   */\n      0x04\n        /* \"#utility.yul\":5594:5609   */\n      mstore\n        /* \"#utility.yul\":5628:5632   */\n      0x24\n        /* \"#utility.yul\":5625:5626   */\n      0x00\n        /* \"#utility.yul\":5618:5633   */\n      revert\n        /* \"#utility.yul\":5645:5747   */\n    tag_175:\n      0x00\n        /* \"#utility.yul\":5737:5739   */\n      0x1f\n        /* \"#utility.yul\":5733:5740   */\n      not\n        /* \"#utility.yul\":5728:5730   */\n      0x1f\n        /* \"#utility.yul\":5721:5726   */\n      dup4\n        /* \"#utility.yul\":5717:5731   */\n      add\n        /* \"#utility.yul\":5713:5741   */\n      and\n        /* \"#utility.yul\":5703:5741   */\n      swap1\n      pop\n        /* \"#utility.yul\":5693:5747   */\n      swap2\n      swap1\n      pop\n      jump\t// out\n        /* \"#utility.yul\":5753:5875   */\n    tag_143:\n        /* \"#utility.yul\":5826:5850   */\n      tag_215\n        /* \"#utility.yul\":5844:5849   */\n      dup2\n        /* \"#utility.yul\":5826:5850   */\n      tag_165\n      jump\t// in\n    tag_215:\n        /* \"#utility.yul\":5819:5824   */\n      dup2\n        /* \"#utility.yul\":5816:5851   */\n      eq\n        /* \"#utility.yul\":5806:5808   */\n      tag_216\n      jumpi\n        /* \"#utility.yul\":5865:5866   */\n      0x00\n        /* \"#utility.yul\":5862:5863   */\n      dup1\n        /* \"#utility.yul\":5855:5867   */\n      revert\n        /* \"#utility.yul\":5806:5808   */\n    tag_216:\n        /* \"#utility.yul\":5796:5875   */\n      pop\n      jump\t// out\n        /* \"#utility.yul\":5881:6003   */\n    tag_151:\n        /* \"#utility.yul\":5954:5978   */\n      tag_218\n        /* \"#utility.yul\":5972:5977   */\n      dup2\n        /* \"#utility.yul\":5954:5978   */\n      tag_179\n      jump\t// in\n    tag_218:\n        /* \"#utility.yul\":5947:5952   */\n      dup2\n        /* \"#utility.yul\":5944:5979   */\n      eq\n        /* \"#utility.yul\":5934:5936   */\n      tag_219\n      jumpi\n        /* \"#utility.yul\":5993:5994   */\n      0x00\n        /* \"#utility.yul\":5990:5991   */\n      dup1\n        /* \"#utility.yul\":5983:5995   */\n      revert\n        /* \"#utility.yul\":5934:5936   */\n    tag_219:\n        /* \"#utility.yul\":5924:6003   */\n      pop\n      jump\t// out\n\n    auxdata: 0xa2646970667358221220e6b298cbbb86b7bb1f41fd68371b1257ad75c932043a237b1e427045cafba13464736f6c63430008000033\n}\n",
				"bytecode": {
					"linkReferences": {},
					"object": "608060405260006009553480156200001657600080fd5b5060405162000f0438038062000f0483398181016040528101906200003c919062000260565b8860008190555087600181905550866002819055508560038190555084600460006101000a81548173ffffffffffffffffffffffffffffffffffffffff021916908373ffffffffffffffffffffffffffffffffffffffff160217905550836005819055508260068190555081600760006101000a81548173ffffffffffffffffffffffffffffffffffffffff021916908373ffffffffffffffffffffffffffffffffffffffff16021790555080600890805190602001906200010092919062000110565b50505050505050505050620004f5565b8280546200011e906200042d565b90600052602060002090601f0160209004810192826200014257600085556200018e565b82601f106200015d57805160ff19168380011785556200018e565b828001600101855582156200018e579182015b828111156200018d57825182559160200191906001019062000170565b5b5090506200019d9190620001a1565b5090565b5b80821115620001bc576000816000905550600101620001a2565b5090565b6000620001d7620001d18462000386565b62000352565b905082815260208101848484011115620001f057600080fd5b620001fd848285620003f7565b509392505050565b6000815190506200021681620004c1565b92915050565b600082601f8301126200022e57600080fd5b815162000240848260208601620001c0565b91505092915050565b6000815190506200025a81620004db565b92915050565b60008060008060008060008060006101208a8c0312156200028057600080fd5b6000620002908c828d0162000249565b9950506020620002a38c828d0162000249565b9850506040620002b68c828d0162000249565b9750506060620002c98c828d0162000249565b9650506080620002dc8c828d0162000205565b95505060a0620002ef8c828d0162000249565b94505060c0620003028c828d0162000249565b93505060e0620003158c828d0162000205565b9250506101008a015167ffffffffffffffff8111156200033457600080fd5b620003428c828d016200021c565b9150509295985092959850929598565b6000604051905081810181811067ffffffffffffffff821117156200037c576200037b62000492565b5b8060405250919050565b600067ffffffffffffffff821115620003a457620003a362000492565b5b601f19601f8301169050602081019050919050565b6000620003c682620003cd565b9050919050565b600073ffffffffffffffffffffffffffffffffffffffff82169050919050565b6000819050919050565b60005b8381101562000417578082015181840152602081019050620003fa565b8381111562000427576000848401525b50505050565b600060028204905060018216806200044657607f821691505b602082108114156200045d576200045c62000463565b5b50919050565b7f4e487b7100000000000000000000000000000000000000000000000000000000600052602260045260246000fd5b7f4e487b7100000000000000000000000000000000000000000000000000000000600052604160045260246000fd5b620004cc81620003b9565b8114620004d857600080fd5b50565b620004e681620003ed565b8114620004f257600080fd5b50565b6109ff80620005056000396000f3fe608060405234801561001057600080fd5b506004361061012c5760003560e01c8063893d20e8116100ad578063ab9dbd0711610071578063ab9dbd07146102e3578063c0be32ef14610301578063cb248b861461031f578063dc5d184f1461033d578063fc1711f2146103595761012c565b8063893d20e814610253578063947b9a5b14610271578063a1c83d531461028d578063a9b4b780146102a9578063a9d290d7146102c75761012c565b80636a4f28d2116100f45780636a4f28d2146101bf5780637fa9571f146101dd57806380581568146101fb57806380da4718146102195780638783fb57146102355761012c565b806305c18c041461013157806313af40351461014d5780631b1e13241461016957806324a1d060146101875780635e5aa83f146101a3575b600080fd5b61014b60048036038101906101469190610727565b610375565b005b610167600480360381019061016291906106bd565b61037f565b005b6101716103c3565b60405161017e91906107c2565b60405180910390f35b6101a1600480360381019061019c9190610727565b610455565b005b6101bd60048036038101906101b891906106bd565b61045f565b005b6101c76104a3565b6040516101d491906107a7565b60405180910390f35b6101e56104cd565b6040516101f291906107e4565b60405180910390f35b6102036104d7565b60405161021091906107e4565b60405180910390f35b610233600480360381019061022e91906106e6565b6104e1565b005b61023d6104fb565b60405161024a91906107e4565b60405180910390f35b61025b610505565b60405161026891906107a7565b60405180910390f35b61028b60048036038101906102869190610727565b61052f565b005b6102a760048036038101906102a29190610727565b610539565b005b6102b1610543565b6040516102be91906107e4565b60405180910390f35b6102e160048036038101906102dc9190610727565b61054d565b005b6102eb610557565b6040516102f891906107e4565b60405180910390f35b610309610560565b60405161031691906107e4565b60405180910390f35b61032761056a565b60405161033491906107e4565b60405180910390f35b61035760048036038101906103529190610727565b610574565b005b610373600480360381019061036e9190610727565b61057e565b005b8060018190555050565b80600760006101000a81548173ffffffffffffffffffffffffffffffffffffffff021916908373ffffffffffffffffffffffffffffffffffffffff16021790555050565b6060600880546103d2906108fa565b80601f01602080910402602001604051908101604052809291908181526020018280546103fe906108fa565b801561044b5780601f106104205761010080835404028352916020019161044b565b820191906000526020600020905b81548152906001019060200180831161042e57829003601f168201915b5050505050905090565b8060058190555050565b80600460006101000a81548173ffffffffffffffffffffffffffffffffffffffff021916908373ffffffffffffffffffffffffffffffffffffffff16021790555050565b6000600460009054906101000a900473ffffffffffffffffffffffffffffffffffffffff16905090565b6000600954905090565b6000600554905090565b80600890805190602001906104f7929190610588565b5050565b6000600654905090565b6000600760009054906101000a900473ffffffffffffffffffffffffffffffffffffffff16905090565b8060038190555050565b8060068190555050565b6000600254905090565b8060098190555050565b60008054905090565b6000600354905090565b6000600154905090565b8060008190555050565b8060028190555050565b828054610594906108fa565b90600052602060002090601f0160209004810192826105b657600085556105fd565b82601f106105cf57805160ff19168380011785556105fd565b828001600101855582156105fd579182015b828111156105fc5782518255916020019190600101906105e1565b5b50905061060a919061060e565b5090565b5b8082111561062757600081600090555060010161060f565b5090565b600061063e61063984610830565b6107ff565b90508281526020810184848401111561065657600080fd5b6106618482856108b8565b509392505050565b6000813590506106788161099b565b92915050565b600082601f83011261068f57600080fd5b813561069f84826020860161062b565b91505092915050565b6000813590506106b7816109b2565b92915050565b6000602082840312156106cf57600080fd5b60006106dd84828501610669565b91505092915050565b6000602082840312156106f857600080fd5b600082013567ffffffffffffffff81111561071257600080fd5b61071e8482850161067e565b91505092915050565b60006020828403121561073957600080fd5b6000610747848285016106a8565b91505092915050565b6107598161087c565b82525050565b600061076a82610860565b610774818561086b565b93506107848185602086016108c7565b61078d8161098a565b840191505092915050565b6107a1816108ae565b82525050565b60006020820190506107bc6000830184610750565b92915050565b600060208201905081810360008301526107dc818461075f565b905092915050565b60006020820190506107f96000830184610798565b92915050565b6000604051905081810181811067ffffffffffffffff821117156108265761082561095b565b5b8060405250919050565b600067ffffffffffffffff82111561084b5761084a61095b565b5b601f19601f8301169050602081019050919050565b600081519050919050565b600082825260208201905092915050565b60006108878261088e565b9050919050565b600073ffffffffffffffffffffffffffffffffffffffff82169050919050565b6000819050919050565b82818337600083830152505050565b60005b838110156108e55780820151818401526020810190506108ca565b838111156108f4576000848401525b50505050565b6000600282049050600182168061091257607f821691505b602082108114156109265761092561092c565b5b50919050565b7f4e487b7100000000000000000000000000000000000000000000000000000000600052602260045260246000fd5b7f4e487b7100000000000000000000000000000000000000000000000000000000600052604160045260246000fd5b6000601f19601f8301169050919050565b6109a48161087c565b81146109af57600080fd5b50565b6109bb816108ae565b81146109c657600080fd5b5056fea2646970667358221220e6b298cbbb86b7bb1f41fd68371b1257ad75c932043a237b1e427045cafba13464736f6c63430008000033",
					"opcodes": "PUSH1 0x80 PUSH1 0x40 MSTORE PUSH1 0x0 PUSH1 0x9 SSTORE CALLVALUE DUP1 ISZERO PUSH3 0x16 JUMPI PUSH1 0x0 DUP1 REVERT JUMPDEST POP PUSH1 0x40 MLOAD PUSH3 0xF04 CODESIZE SUB DUP1 PUSH3 0xF04 DUP4 CODECOPY DUP2 DUP2 ADD PUSH1 0x40 MSTORE DUP2 ADD SWAP1 PUSH3 0x3C SWAP2 SWAP1 PUSH3 0x260 JUMP JUMPDEST DUP9 PUSH1 0x0 DUP2 SWAP1 SSTORE POP DUP8 PUSH1 0x1 DUP2 SWAP1 SSTORE POP DUP7 PUSH1 0x2 DUP2 SWAP1 SSTORE POP DUP6 PUSH1 0x3 DUP2 SWAP1 SSTORE POP DUP5 PUSH1 0x4 PUSH1 0x0 PUSH2 0x100 EXP DUP2 SLOAD DUP2 PUSH20 0xFFFFFFFFFFFFFFFFFFFFFFFFFFFFFFFFFFFFFFFF MUL NOT AND SWAP1 DUP4 PUSH20 0xFFFFFFFFFFFFFFFFFFFFFFFFFFFFFFFFFFFFFFFF AND MUL OR SWAP1 SSTORE POP DUP4 PUSH1 0x5 DUP2 SWAP1 SSTORE POP DUP3 PUSH1 0x6 DUP2 SWAP1 SSTORE POP DUP2 PUSH1 0x7 PUSH1 0x0 PUSH2 0x100 EXP DUP2 SLOAD DUP2 PUSH20 0xFFFFFFFFFFFFFFFFFFFFFFFFFFFFFFFFFFFFFFFF MUL NOT AND SWAP1 DUP4 PUSH20 0xFFFFFFFFFFFFFFFFFFFFFFFFFFFFFFFFFFFFFFFF AND MUL OR SWAP1 SSTORE POP DUP1 PUSH1 0x8 SWAP1 DUP1 MLOAD SWAP1 PUSH1 0x20 ADD SWAP1 PUSH3 0x100 SWAP3 SWAP2 SWAP1 PUSH3 0x110 JUMP JUMPDEST POP POP POP POP POP POP POP POP POP POP PUSH3 0x4F5 JUMP JUMPDEST DUP3 DUP1 SLOAD PUSH3 0x11E SWAP1 PUSH3 0x42D JUMP JUMPDEST SWAP1 PUSH1 0x0 MSTORE PUSH1 0x20 PUSH1 0x0 KECCAK256 SWAP1 PUSH1 0x1F ADD PUSH1 0x20 SWAP1 DIV DUP2 ADD SWAP3 DUP3 PUSH3 0x142 JUMPI PUSH1 0x0 DUP6 SSTORE PUSH3 0x18E JUMP JUMPDEST DUP3 PUSH1 0x1F LT PUSH3 0x15D JUMPI DUP1 MLOAD PUSH1 0xFF NOT AND DUP4 DUP1 ADD OR DUP6 SSTORE PUSH3 0x18E JUMP JUMPDEST DUP3 DUP1 ADD PUSH1 0x1 ADD DUP6 SSTORE DUP3 ISZERO PUSH3 0x18E JUMPI SWAP2 DUP3 ADD JUMPDEST DUP3 DUP2 GT ISZERO PUSH3 0x18D JUMPI DUP3 MLOAD DUP3 SSTORE SWAP2 PUSH1 0x20 ADD SWAP2 SWAP1 PUSH1 0x1 ADD SWAP1 PUSH3 0x170 JUMP JUMPDEST JUMPDEST POP SWAP1 POP PUSH3 0x19D SWAP2 SWAP1 PUSH3 0x1A1 JUMP JUMPDEST POP SWAP1 JUMP JUMPDEST JUMPDEST DUP1 DUP3 GT ISZERO PUSH3 0x1BC JUMPI PUSH1 0x0 DUP2 PUSH1 0x0 SWAP1 SSTORE POP PUSH1 0x1 ADD PUSH3 0x1A2 JUMP JUMPDEST POP SWAP1 JUMP JUMPDEST PUSH1 0x0 PUSH3 0x1D7 PUSH3 0x1D1 DUP5 PUSH3 0x386 JUMP JUMPDEST PUSH3 0x352 JUMP JUMPDEST SWAP1 POP DUP3 DUP2 MSTORE PUSH1 0x20 DUP2 ADD DUP5 DUP5 DUP5 ADD GT ISZERO PUSH3 0x1F0 JUMPI PUSH1 0x0 DUP1 REVERT JUMPDEST PUSH3 0x1FD DUP5 DUP3 DUP6 PUSH3 0x3F7 JUMP JUMPDEST POP SWAP4 SWAP3 POP POP POP JUMP JUMPDEST PUSH1 0x0 DUP2 MLOAD SWAP1 POP PUSH3 0x216 DUP2 PUSH3 0x4C1 JUMP JUMPDEST SWAP3 SWAP2 POP POP JUMP JUMPDEST PUSH1 0x0 DUP3 PUSH1 0x1F DUP4 ADD SLT PUSH3 0x22E JUMPI PUSH1 0x0 DUP1 REVERT JUMPDEST DUP2 MLOAD PUSH3 0x240 DUP5 DUP3 PUSH1 0x20 DUP7 ADD PUSH3 0x1C0 JUMP JUMPDEST SWAP2 POP POP SWAP3 SWAP2 POP POP JUMP JUMPDEST PUSH1 0x0 DUP2 MLOAD SWAP1 POP PUSH3 0x25A DUP2 PUSH3 0x4DB JUMP JUMPDEST SWAP3 SWAP2 POP POP JUMP JUMPDEST PUSH1 0x0 DUP1 PUSH1 0x0 DUP1 PUSH1 0x0 DUP1 PUSH1 0x0 DUP1 PUSH1 0x0 PUSH2 0x120 DUP11 DUP13 SUB SLT ISZERO PUSH3 0x280 JUMPI PUSH1 0x0 DUP1 REVERT JUMPDEST PUSH1 0x0 PUSH3 0x290 DUP13 DUP3 DUP14 ADD PUSH3 0x249 JUMP JUMPDEST SWAP10 POP POP PUSH1 0x20 PUSH3 0x2A3 DUP13 DUP3 DUP14 ADD PUSH3 0x249 JUMP JUMPDEST SWAP9 POP POP PUSH1 0x40 PUSH3 0x2B6 DUP13 DUP3 DUP14 ADD PUSH3 0x249 JUMP JUMPDEST SWAP8 POP POP PUSH1 0x60 PUSH3 0x2C9 DUP13 DUP3 DUP14 ADD PUSH3 0x249 JUMP JUMPDEST SWAP7 POP POP PUSH1 0x80 PUSH3 0x2DC DUP13 DUP3 DUP14 ADD PUSH3 0x205 JUMP JUMPDEST SWAP6 POP POP PUSH1 0xA0 PUSH3 0x2EF DUP13 DUP3 DUP14 ADD PUSH3 0x249 JUMP JUMPDEST SWAP5 POP POP PUSH1 0xC0 PUSH3 0x302 DUP13 DUP3 DUP14 ADD PUSH3 0x249 JUMP JUMPDEST SWAP4 POP POP PUSH1 0xE0 PUSH3 0x315 DUP13 DUP3 DUP14 ADD PUSH3 0x205 JUMP JUMPDEST SWAP3 POP POP PUSH2 0x100 DUP11 ADD MLOAD PUSH8 0xFFFFFFFFFFFFFFFF DUP2 GT ISZERO PUSH3 0x334 JUMPI PUSH1 0x0 DUP1 REVERT JUMPDEST PUSH3 0x342 DUP13 DUP3 DUP14 ADD PUSH3 0x21C JUMP JUMPDEST SWAP2 POP POP SWAP3 SWAP6 SWAP9 POP SWAP3 SWAP6 SWAP9 POP SWAP3 SWAP6 SWAP9 JUMP JUMPDEST PUSH1 0x0 PUSH1 0x40 MLOAD SWAP1 POP DUP2 DUP2 ADD DUP2 DUP2 LT PUSH8 0xFFFFFFFFFFFFFFFF DUP3 GT OR ISZERO PUSH3 0x37C JUMPI PUSH3 0x37B PUSH3 0x492 JUMP JUMPDEST JUMPDEST DUP1 PUSH1 0x40 MSTORE POP SWAP2 SWAP1 POP JUMP JUMPDEST PUSH1 0x0 PUSH8 0xFFFFFFFFFFFFFFFF DUP3 GT ISZERO PUSH3 0x3A4 JUMPI PUSH3 0x3A3 PUSH3 0x492 JUMP JUMPDEST JUMPDEST PUSH1 0x1F NOT PUSH1 0x1F DUP4 ADD AND SWAP1 POP PUSH1 0x20 DUP2 ADD SWAP1 POP SWAP2 SWAP1 POP JUMP JUMPDEST PUSH1 0x0 PUSH3 0x3C6 DUP3 PUSH3 0x3CD JUMP JUMPDEST SWAP1 POP SWAP2 SWAP1 POP JUMP JUMPDEST PUSH1 0x0 PUSH20 0xFFFFFFFFFFFFFFFFFFFFFFFFFFFFFFFFFFFFFFFF DUP3 AND SWAP1 POP SWAP2 SWAP1 POP JUMP JUMPDEST PUSH1 0x0 DUP2 SWAP1 POP SWAP2 SWAP1 POP JUMP JUMPDEST PUSH1 0x0 JUMPDEST DUP4 DUP2 LT ISZERO PUSH3 0x417 JUMPI DUP1 DUP3 ADD MLOAD DUP2 DUP5 ADD MSTORE PUSH1 0x20 DUP2 ADD SWAP1 POP PUSH3 0x3FA JUMP JUMPDEST DUP4 DUP2 GT ISZERO PUSH3 0x427 JUMPI PUSH1 0x0 DUP5 DUP5 ADD MSTORE JUMPDEST POP POP POP POP JUMP JUMPDEST PUSH1 0x0 PUSH1 0x2 DUP3 DIV SWAP1 POP PUSH1 0x1 DUP3 AND DUP1 PUSH3 0x446 JUMPI PUSH1 0x7F DUP3 AND SWAP2 POP JUMPDEST PUSH1 0x20 DUP3 LT DUP2 EQ ISZERO PUSH3 0x45D JUMPI PUSH3 0x45C PUSH3 0x463 JUMP JUMPDEST JUMPDEST POP SWAP2 SWAP1 POP JUMP JUMPDEST PUSH32 0x4E487B7100000000000000000000000000000000000000000000000000000000 PUSH1 0x0 MSTORE PUSH1 0x22 PUSH1 0x4 MSTORE PUSH1 0x24 PUSH1 0x0 REVERT JUMPDEST PUSH32 0x4E487B7100000000000000000000000000000000000000000000000000000000 PUSH1 0x0 MSTORE PUSH1 0x41 PUSH1 0x4 MSTORE PUSH1 0x24 PUSH1 0x0 REVERT JUMPDEST PUSH3 0x4CC DUP2 PUSH3 0x3B9 JUMP JUMPDEST DUP2 EQ PUSH3 0x4D8 JUMPI PUSH1 0x0 DUP1 REVERT JUMPDEST POP JUMP JUMPDEST PUSH3 0x4E6 DUP2 PUSH3 0x3ED JUMP JUMPDEST DUP2 EQ PUSH3 0x4F2 JUMPI PUSH1 0x0 DUP1 REVERT JUMPDEST POP JUMP JUMPDEST PUSH2 0x9FF DUP1 PUSH3 0x505 PUSH1 0x0 CODECOPY PUSH1 0x0 RETURN INVALID PUSH1 0x80 PUSH1 0x40 MSTORE CALLVALUE DUP1 ISZERO PUSH2 0x10 JUMPI PUSH1 0x0 DUP1 REVERT JUMPDEST POP PUSH1 0x4 CALLDATASIZE LT PUSH2 0x12C JUMPI PUSH1 0x0 CALLDATALOAD PUSH1 0xE0 SHR DUP1 PUSH4 0x893D20E8 GT PUSH2 0xAD JUMPI DUP1 PUSH4 0xAB9DBD07 GT PUSH2 0x71 JUMPI DUP1 PUSH4 0xAB9DBD07 EQ PUSH2 0x2E3 JUMPI DUP1 PUSH4 0xC0BE32EF EQ PUSH2 0x301 JUMPI DUP1 PUSH4 0xCB248B86 EQ PUSH2 0x31F JUMPI DUP1 PUSH4 0xDC5D184F EQ PUSH2 0x33D JUMPI DUP1 PUSH4 0xFC1711F2 EQ PUSH2 0x359 JUMPI PUSH2 0x12C JUMP JUMPDEST DUP1 PUSH4 0x893D20E8 EQ PUSH2 0x253 JUMPI DUP1 PUSH4 0x947B9A5B EQ PUSH2 0x271 JUMPI DUP1 PUSH4 0xA1C83D53 EQ PUSH2 0x28D JUMPI DUP1 PUSH4 0xA9B4B780 EQ PUSH2 0x2A9 JUMPI DUP1 PUSH4 0xA9D290D7 EQ PUSH2 0x2C7 JUMPI PUSH2 0x12C JUMP JUMPDEST DUP1 PUSH4 0x6A4F28D2 GT PUSH2 0xF4 JUMPI DUP1 PUSH4 0x6A4F28D2 EQ PUSH2 0x1BF JUMPI DUP1 PUSH4 0x7FA9571F EQ PUSH2 0x1DD JUMPI DUP1 PUSH4 0x80581568 EQ PUSH2 0x1FB JUMPI DUP1 PUSH4 0x80DA4718 EQ PUSH2 0x219 JUMPI DUP1 PUSH4 0x8783FB57 EQ PUSH2 0x235 JUMPI PUSH2 0x12C JUMP JUMPDEST DUP1 PUSH4 0x5C18C04 EQ PUSH2 0x131 JUMPI DUP1 PUSH4 0x13AF4035 EQ PUSH2 0x14D JUMPI DUP1 PUSH4 0x1B1E1324 EQ PUSH2 0x169 JUMPI DUP1 PUSH4 0x24A1D060 EQ PUSH2 0x187 JUMPI DUP1 PUSH4 0x5E5AA83F EQ PUSH2 0x1A3 JUMPI JUMPDEST PUSH1 0x0 DUP1 REVERT JUMPDEST PUSH2 0x14B PUSH1 0x4 DUP1 CALLDATASIZE SUB DUP2 ADD SWAP1 PUSH2 0x146 SWAP2 SWAP1 PUSH2 0x727 JUMP JUMPDEST PUSH2 0x375 JUMP JUMPDEST STOP JUMPDEST PUSH2 0x167 PUSH1 0x4 DUP1 CALLDATASIZE SUB DUP2 ADD SWAP1 PUSH2 0x162 SWAP2 SWAP1 PUSH2 0x6BD JUMP JUMPDEST PUSH2 0x37F JUMP JUMPDEST STOP JUMPDEST PUSH2 0x171 PUSH2 0x3C3 JUMP JUMPDEST PUSH1 0x40 MLOAD PUSH2 0x17E SWAP2 SWAP1 PUSH2 0x7C2 JUMP JUMPDEST PUSH1 0x40 MLOAD DUP1 SWAP2 SUB SWAP1 RETURN JUMPDEST PUSH2 0x1A1 PUSH1 0x4 DUP1 CALLDATASIZE SUB DUP2 ADD SWAP1 PUSH2 0x19C SWAP2 SWAP1 PUSH2 0x727 JUMP JUMPDEST PUSH2 0x455 JUMP JUMPDEST STOP JUMPDEST PUSH2 0x1BD PUSH1 0x4 DUP1 CALLDATASIZE SUB DUP2 ADD SWAP1 PUSH2 0x1B8 SWAP2 SWAP1 PUSH2 0x6BD JUMP JUMPDEST PUSH2 0x45F JUMP JUMPDEST STOP JUMPDEST PUSH2 0x1C7 PUSH2 0x4A3 JUMP JUMPDEST PUSH1 0x40 MLOAD PUSH2 0x1D4 SWAP2 SWAP1 PUSH2 0x7A7 JUMP JUMPDEST PUSH1 0x40 MLOAD DUP1 SWAP2 SUB SWAP1 RETURN JUMPDEST PUSH2 0x1E5 PUSH2 0x4CD JUMP JUMPDEST PUSH1 0x40 MLOAD PUSH2 0x1F2 SWAP2 SWAP1 PUSH2 0x7E4 JUMP JUMPDEST PUSH1 0x40 MLOAD DUP1 SWAP2 SUB SWAP1 RETURN JUMPDEST PUSH2 0x203 PUSH2 0x4D7 JUMP JUMPDEST PUSH1 0x40 MLOAD PUSH2 0x210 SWAP2 SWAP1 PUSH2 0x7E4 JUMP JUMPDEST PUSH1 0x40 MLOAD DUP1 SWAP2 SUB SWAP1 RETURN JUMPDEST PUSH2 0x233 PUSH1 0x4 DUP1 CALLDATASIZE SUB DUP2 ADD SWAP1 PUSH2 0x22E SWAP2 SWAP1 PUSH2 0x6E6 JUMP JUMPDEST PUSH2 0x4E1 JUMP JUMPDEST STOP JUMPDEST PUSH2 0x23D PUSH2 0x4FB JUMP JUMPDEST PUSH1 0x40 MLOAD PUSH2 0x24A SWAP2 SWAP1 PUSH2 0x7E4 JUMP JUMPDEST PUSH1 0x40 MLOAD DUP1 SWAP2 SUB SWAP1 RETURN JUMPDEST PUSH2 0x25B PUSH2 0x505 JUMP JUMPDEST PUSH1 0x40 MLOAD PUSH2 0x268 SWAP2 SWAP1 PUSH2 0x7A7 JUMP JUMPDEST PUSH1 0x40 MLOAD DUP1 SWAP2 SUB SWAP1 RETURN JUMPDEST PUSH2 0x28B PUSH1 0x4 DUP1 CALLDATASIZE SUB DUP2 ADD SWAP1 PUSH2 0x286 SWAP2 SWAP1 PUSH2 0x727 JUMP JUMPDEST PUSH2 0x52F JUMP JUMPDEST STOP JUMPDEST PUSH2 0x2A7 PUSH1 0x4 DUP1 CALLDATASIZE SUB DUP2 ADD SWAP1 PUSH2 0x2A2 SWAP2 SWAP1 PUSH2 0x727 JUMP JUMPDEST PUSH2 0x539 JUMP JUMPDEST STOP JUMPDEST PUSH2 0x2B1 PUSH2 0x543 JUMP JUMPDEST PUSH1 0x40 MLOAD PUSH2 0x2BE SWAP2 SWAP1 PUSH2 0x7E4 JUMP JUMPDEST PUSH1 0x40 MLOAD DUP1 SWAP2 SUB SWAP1 RETURN JUMPDEST PUSH2 0x2E1 PUSH1 0x4 DUP1 CALLDATASIZE SUB DUP2 ADD SWAP1 PUSH2 0x2DC SWAP2 SWAP1 PUSH2 0x727 JUMP JUMPDEST PUSH2 0x54D JUMP JUMPDEST STOP JUMPDEST PUSH2 0x2EB PUSH2 0x557 JUMP JUMPDEST PUSH1 0x40 MLOAD PUSH2 0x2F8 SWAP2 SWAP1 PUSH2 0x7E4 JUMP JUMPDEST PUSH1 0x40 MLOAD DUP1 SWAP2 SUB SWAP1 RETURN JUMPDEST PUSH2 0x309 PUSH2 0x560 JUMP JUMPDEST PUSH1 0x40 MLOAD PUSH2 0x316 SWAP2 SWAP1 PUSH2 0x7E4 JUMP JUMPDEST PUSH1 0x40 MLOAD DUP1 SWAP2 SUB SWAP1 RETURN JUMPDEST PUSH2 0x327 PUSH2 0x56A JUMP JUMPDEST PUSH1 0x40 MLOAD PUSH2 0x334 SWAP2 SWAP1 PUSH2 0x7E4 JUMP JUMPDEST PUSH1 0x40 MLOAD DUP1 SWAP2 SUB SWAP1 RETURN JUMPDEST PUSH2 0x357 PUSH1 0x4 DUP1 CALLDATASIZE SUB DUP2 ADD SWAP1 PUSH2 0x352 SWAP2 SWAP1 PUSH2 0x727 JUMP JUMPDEST PUSH2 0x574 JUMP JUMPDEST STOP JUMPDEST PUSH2 0x373 PUSH1 0x4 DUP1 CALLDATASIZE SUB DUP2 ADD SWAP1 PUSH2 0x36E SWAP2 SWAP1 PUSH2 0x727 JUMP JUMPDEST PUSH2 0x57E JUMP JUMPDEST STOP JUMPDEST DUP1 PUSH1 0x1 DUP2 SWAP1 SSTORE POP POP JUMP JUMPDEST DUP1 PUSH1 0x7 PUSH1 0x0 PUSH2 0x100 EXP DUP2 SLOAD DUP2 PUSH20 0xFFFFFFFFFFFFFFFFFFFFFFFFFFFFFFFFFFFFFFFF MUL NOT AND SWAP1 DUP4 PUSH20 0xFFFFFFFFFFFFFFFFFFFFFFFFFFFFFFFFFFFFFFFF AND MUL OR SWAP1 SSTORE POP POP JUMP JUMPDEST PUSH1 0x60 PUSH1 0x8 DUP1 SLOAD PUSH2 0x3D2 SWAP1 PUSH2 0x8FA JUMP JUMPDEST DUP1 PUSH1 0x1F ADD PUSH1 0x20 DUP1 SWAP2 DIV MUL PUSH1 0x20 ADD PUSH1 0x40 MLOAD SWAP1 DUP2 ADD PUSH1 0x40 MSTORE DUP1 SWAP3 SWAP2 SWAP1 DUP2 DUP2 MSTORE PUSH1 0x20 ADD DUP3 DUP1 SLOAD PUSH2 0x3FE SWAP1 PUSH2 0x8FA JUMP JUMPDEST DUP1 ISZERO PUSH2 0x44B JUMPI DUP1 PUSH1 0x1F LT PUSH2 0x420 JUMPI PUSH2 0x100 DUP1 DUP4 SLOAD DIV MUL DUP4 MSTORE SWAP2 PUSH1 0x20 ADD SWAP2 PUSH2 0x44B JUMP JUMPDEST DUP3 ADD SWAP2 SWAP1 PUSH1 0x0 MSTORE PUSH1 0x20 PUSH1 0x0 KECCAK256 SWAP1 JUMPDEST DUP2 SLOAD DUP2 MSTORE SWAP1 PUSH1 0x1 ADD SWAP1 PUSH1 0x20 ADD DUP1 DUP4 GT PUSH2 0x42E JUMPI DUP3 SWAP1 SUB PUSH1 0x1F AND DUP3 ADD SWAP2 JUMPDEST POP POP POP POP POP SWAP1 POP SWAP1 JUMP JUMPDEST DUP1 PUSH1 0x5 DUP2 SWAP1 SSTORE POP POP JUMP JUMPDEST DUP1 PUSH1 0x4 PUSH1 0x0 PUSH2 0x100 EXP DUP2 SLOAD DUP2 PUSH20 0xFFFFFFFFFFFFFFFFFFFFFFFFFFFFFFFFFFFFFFFF MUL NOT AND SWAP1 DUP4 PUSH20 0xFFFFFFFFFFFFFFFFFFFFFFFFFFFFFFFFFFFFFFFF AND MUL OR SWAP1 SSTORE POP POP JUMP JUMPDEST PUSH1 0x0 PUSH1 0x4 PUSH1 0x0 SWAP1 SLOAD SWAP1 PUSH2 0x100 EXP SWAP1 DIV PUSH20 0xFFFFFFFFFFFFFFFFFFFFFFFFFFFFFFFFFFFFFFFF AND SWAP1 POP SWAP1 JUMP JUMPDEST PUSH1 0x0 PUSH1 0x9 SLOAD SWAP1 POP SWAP1 JUMP JUMPDEST PUSH1 0x0 PUSH1 0x5 SLOAD SWAP1 POP SWAP1 JUMP JUMPDEST DUP1 PUSH1 0x8 SWAP1 DUP1 MLOAD SWAP1 PUSH1 0x20 ADD SWAP1 PUSH2 0x4F7 SWAP3 SWAP2 SWAP1 PUSH2 0x588 JUMP JUMPDEST POP POP JUMP JUMPDEST PUSH1 0x0 PUSH1 0x6 SLOAD SWAP1 POP SWAP1 JUMP JUMPDEST PUSH1 0x0 PUSH1 0x7 PUSH1 0x0 SWAP1 SLOAD SWAP1 PUSH2 0x100 EXP SWAP1 DIV PUSH20 0xFFFFFFFFFFFFFFFFFFFFFFFFFFFFFFFFFFFFFFFF AND SWAP1 POP SWAP1 JUMP JUMPDEST DUP1 PUSH1 0x3 DUP2 SWAP1 SSTORE POP POP JUMP JUMPDEST DUP1 PUSH1 0x6 DUP2 SWAP1 SSTORE POP POP JUMP JUMPDEST PUSH1 0x0 PUSH1 0x2 SLOAD SWAP1 POP SWAP1 JUMP JUMPDEST DUP1 PUSH1 0x9 DUP2 SWAP1 SSTORE POP POP JUMP JUMPDEST PUSH1 0x0 DUP1 SLOAD SWAP1 POP SWAP1 JUMP JUMPDEST PUSH1 0x0 PUSH1 0x3 SLOAD SWAP1 POP SWAP1 JUMP JUMPDEST PUSH1 0x0 PUSH1 0x1 SLOAD SWAP1 POP SWAP1 JUMP JUMPDEST DUP1 PUSH1 0x0 DUP2 SWAP1 SSTORE POP POP JUMP JUMPDEST DUP1 PUSH1 0x2 DUP2 SWAP1 SSTORE POP POP JUMP JUMPDEST DUP3 DUP1 SLOAD PUSH2 0x594 SWAP1 PUSH2 0x8FA JUMP JUMPDEST SWAP1 PUSH1 0x0 MSTORE PUSH1 0x20 PUSH1 0x0 KECCAK256 SWAP1 PUSH1 0x1F ADD PUSH1 0x20 SWAP1 DIV DUP2 ADD SWAP3 DUP3 PUSH2 0x5B6 JUMPI PUSH1 0x0 DUP6 SSTORE PUSH2 0x5FD JUMP JUMPDEST DUP3 PUSH1 0x1F LT PUSH2 0x5CF JUMPI DUP1 MLOAD PUSH1 0xFF NOT AND DUP4 DUP1 ADD OR DUP6 SSTORE PUSH2 0x5FD JUMP JUMPDEST DUP3 DUP1 ADD PUSH1 0x1 ADD DUP6 SSTORE DUP3 ISZERO PUSH2 0x5FD JUMPI SWAP2 DUP3 ADD JUMPDEST DUP3 DUP2 GT ISZERO PUSH2 0x5FC JUMPI DUP3 MLOAD DUP3 SSTORE SWAP2 PUSH1 0x20 ADD SWAP2 SWAP1 PUSH1 0x1 ADD SWAP1 PUSH2 0x5E1 JUMP JUMPDEST JUMPDEST POP SWAP1 POP PUSH2 0x60A SWAP2 SWAP1 PUSH2 0x60E JUMP JUMPDEST POP SWAP1 JUMP JUMPDEST JUMPDEST DUP1 DUP3 GT ISZERO PUSH2 0x627 JUMPI PUSH1 0x0 DUP2 PUSH1 0x0 SWAP1 SSTORE POP PUSH1 0x1 ADD PUSH2 0x60F JUMP JUMPDEST POP SWAP1 JUMP JUMPDEST PUSH1 0x0 PUSH2 0x63E PUSH2 0x639 DUP5 PUSH2 0x830 JUMP JUMPDEST PUSH2 0x7FF JUMP JUMPDEST SWAP1 POP DUP3 DUP2 MSTORE PUSH1 0x20 DUP2 ADD DUP5 DUP5 DUP5 ADD GT ISZERO PUSH2 0x656 JUMPI PUSH1 0x0 DUP1 REVERT JUMPDEST PUSH2 0x661 DUP5 DUP3 DUP6 PUSH2 0x8B8 JUMP JUMPDEST POP SWAP4 SWAP3 POP POP POP JUMP JUMPDEST PUSH1 0x0 DUP2 CALLDATALOAD SWAP1 POP PUSH2 0x678 DUP2 PUSH2 0x99B JUMP JUMPDEST SWAP3 SWAP2 POP POP JUMP JUMPDEST PUSH1 0x0 DUP3 PUSH1 0x1F DUP4 ADD SLT PUSH2 0x68F JUMPI PUSH1 0x0 DUP1 REVERT JUMPDEST DUP2 CALLDATALOAD PUSH2 0x69F DUP5 DUP3 PUSH1 0x20 DUP7 ADD PUSH2 0x62B JUMP JUMPDEST SWAP2 POP POP SWAP3 SWAP2 POP POP JUMP JUMPDEST PUSH1 0x0 DUP2 CALLDATALOAD SWAP1 POP PUSH2 0x6B7 DUP2 PUSH2 0x9B2 JUMP JUMPDEST SWAP3 SWAP2 POP POP JUMP JUMPDEST PUSH1 0x0 PUSH1 0x20 DUP3 DUP5 SUB SLT ISZERO PUSH2 0x6CF JUMPI PUSH1 0x0 DUP1 REVERT JUMPDEST PUSH1 0x0 PUSH2 0x6DD DUP5 DUP3 DUP6 ADD PUSH2 0x669 JUMP JUMPDEST SWAP2 POP POP SWAP3 SWAP2 POP POP JUMP JUMPDEST PUSH1 0x0 PUSH1 0x20 DUP3 DUP5 SUB SLT ISZERO PUSH2 0x6F8 JUMPI PUSH1 0x0 DUP1 REVERT JUMPDEST PUSH1 0x0 DUP3 ADD CALLDATALOAD PUSH8 0xFFFFFFFFFFFFFFFF DUP2 GT ISZERO PUSH2 0x712 JUMPI PUSH1 0x0 DUP1 REVERT JUMPDEST PUSH2 0x71E DUP5 DUP3 DUP6 ADD PUSH2 0x67E JUMP JUMPDEST SWAP2 POP POP SWAP3 SWAP2 POP POP JUMP JUMPDEST PUSH1 0x0 PUSH1 0x20 DUP3 DUP5 SUB SLT ISZERO PUSH2 0x739 JUMPI PUSH1 0x0 DUP1 REVERT JUMPDEST PUSH1 0x0 PUSH2 0x747 DUP5 DUP3 DUP6 ADD PUSH2 0x6A8 JUMP JUMPDEST SWAP2 POP POP SWAP3 SWAP2 POP POP JUMP JUMPDEST PUSH2 0x759 DUP2 PUSH2 0x87C JUMP JUMPDEST DUP3 MSTORE POP POP JUMP JUMPDEST PUSH1 0x0 PUSH2 0x76A DUP3 PUSH2 0x860 JUMP JUMPDEST PUSH2 0x774 DUP2 DUP6 PUSH2 0x86B JUMP JUMPDEST SWAP4 POP PUSH2 0x784 DUP2 DUP6 PUSH1 0x20 DUP7 ADD PUSH2 0x8C7 JUMP JUMPDEST PUSH2 0x78D DUP2 PUSH2 0x98A JUMP JUMPDEST DUP5 ADD SWAP2 POP POP SWAP3 SWAP2 POP POP JUMP JUMPDEST PUSH2 0x7A1 DUP2 PUSH2 0x8AE JUMP JUMPDEST DUP3 MSTORE POP POP JUMP JUMPDEST PUSH1 0x0 PUSH1 0x20 DUP3 ADD SWAP1 POP PUSH2 0x7BC PUSH1 0x0 DUP4 ADD DUP5 PUSH2 0x750 JUMP JUMPDEST SWAP3 SWAP2 POP POP JUMP JUMPDEST PUSH1 0x0 PUSH1 0x20 DUP3 ADD SWAP1 POP DUP2 DUP2 SUB PUSH1 0x0 DUP4 ADD MSTORE PUSH2 0x7DC DUP2 DUP5 PUSH2 0x75F JUMP JUMPDEST SWAP1 POP SWAP3 SWAP2 POP POP JUMP JUMPDEST PUSH1 0x0 PUSH1 0x20 DUP3 ADD SWAP1 POP PUSH2 0x7F9 PUSH1 0x0 DUP4 ADD DUP5 PUSH2 0x798 JUMP JUMPDEST SWAP3 SWAP2 POP POP JUMP JUMPDEST PUSH1 0x0 PUSH1 0x40 MLOAD SWAP1 POP DUP2 DUP2 ADD DUP2 DUP2 LT PUSH8 0xFFFFFFFFFFFFFFFF DUP3 GT OR ISZERO PUSH2 0x826 JUMPI PUSH2 0x825 PUSH2 0x95B JUMP JUMPDEST JUMPDEST DUP1 PUSH1 0x40 MSTORE POP SWAP2 SWAP1 POP JUMP JUMPDEST PUSH1 0x0 PUSH8 0xFFFFFFFFFFFFFFFF DUP3 GT ISZERO PUSH2 0x84B JUMPI PUSH2 0x84A PUSH2 0x95B JUMP JUMPDEST JUMPDEST PUSH1 0x1F NOT PUSH1 0x1F DUP4 ADD AND SWAP1 POP PUSH1 0x20 DUP2 ADD SWAP1 POP SWAP2 SWAP1 POP JUMP JUMPDEST PUSH1 0x0 DUP2 MLOAD SWAP1 POP SWAP2 SWAP1 POP JUMP JUMPDEST PUSH1 0x0 DUP3 DUP3 MSTORE PUSH1 0x20 DUP3 ADD SWAP1 POP SWAP3 SWAP2 POP POP JUMP JUMPDEST PUSH1 0x0 PUSH2 0x887 DUP3 PUSH2 0x88E JUMP JUMPDEST SWAP1 POP SWAP2 SWAP1 POP JUMP JUMPDEST PUSH1 0x0 PUSH20 0xFFFFFFFFFFFFFFFFFFFFFFFFFFFFFFFFFFFFFFFF DUP3 AND SWAP1 POP SWAP2 SWAP1 POP JUMP JUMPDEST PUSH1 0x0 DUP2 SWAP1 POP SWAP2 SWAP1 POP JUMP JUMPDEST DUP3 DUP2 DUP4 CALLDATACOPY PUSH1 0x0 DUP4 DUP4 ADD MSTORE POP POP POP JUMP JUMPDEST PUSH1 0x0 JUMPDEST DUP4 DUP2 LT ISZERO PUSH2 0x8E5 JUMPI DUP1 DUP3 ADD MLOAD DUP2 DUP5 ADD MSTORE PUSH1 0x20 DUP2 ADD SWAP1 POP PUSH2 0x8CA JUMP JUMPDEST DUP4 DUP2 GT ISZERO PUSH2 0x8F4 JUMPI PUSH1 0x0 DUP5 DUP5 ADD MSTORE JUMPDEST POP POP POP POP JUMP JUMPDEST PUSH1 0x0 PUSH1 0x2 DUP3 DIV SWAP1 POP PUSH1 0x1 DUP3 AND DUP1 PUSH2 0x912 JUMPI PUSH1 0x7F DUP3 AND SWAP2 POP JUMPDEST PUSH1 0x20 DUP3 LT DUP2 EQ ISZERO PUSH2 0x926 JUMPI PUSH2 0x925 PUSH2 0x92C JUMP JUMPDEST JUMPDEST POP SWAP2 SWAP1 POP JUMP JUMPDEST PUSH32 0x4E487B7100000000000000000000000000000000000000000000000000000000 PUSH1 0x0 MSTORE PUSH1 0x22 PUSH1 0x4 MSTORE PUSH1 0x24 PUSH1 0x0 REVERT JUMPDEST PUSH32 0x4E487B7100000000000000000000000000000000000000000000000000000000 PUSH1 0x0 MSTORE PUSH1 0x41 PUSH1 0x4 MSTORE PUSH1 0x24 PUSH1 0x0 REVERT JUMPDEST PUSH1 0x0 PUSH1 0x1F NOT PUSH1 0x1F DUP4 ADD AND SWAP1 POP SWAP2 SWAP1 POP JUMP JUMPDEST PUSH2 0x9A4 DUP2 PUSH2 0x87C JUMP JUMPDEST DUP2 EQ PUSH2 0x9AF JUMPI PUSH1 0x0 DUP1 REVERT JUMPDEST POP JUMP JUMPDEST PUSH2 0x9BB DUP2 PUSH2 0x8AE JUMP JUMPDEST DUP2 EQ PUSH2 0x9C6 JUMPI PUSH1 0x0 DUP1 REVERT JUMPDEST POP JUMP INVALID LOG2 PUSH5 0x6970667358 0x22 SLT KECCAK256 0xE6 0xB2 SWAP9 0xCB 0xBB DUP7 0xB7 0xBB 0x1F COINBASE REVERT PUSH9 0x371B1257AD75C93204 GASPRICE 0x23 PUSH28 0x1E427045CAFBA13464736F6C63430008000033000000000000000000 "
				},
				"gasEstimates": {
					"creation": {
						"codeDepositCost": "511800",
						"executionCost": "infinite",
						"totalCost": "infinite"
					},
					"external": {
						"getHarvestFarm()": "1248",
						"getHarvestTree()": "1204",
						"getHarvestedBy()": "1245",
						"getHarvestedDateTime()": "1181",
						"getID()": "1159",
						"getKind()": "1203",
						"getOwner()": "1245",
						"getReviews()": "infinite",
						"getTotalDurians()": "1182",
						"getWeight()": "1226",
						"setHarvestFarm(uint256)": "20487",
						"setHarvestTree(uint256)": "20510",
						"setHarvestedBy(address)": "21434",
						"setHarvestedDateTime(uint256)": "20465",
						"setID(uint256)": "20508",
						"setKind(uint256)": "20444",
						"setOwner(address)": "21368",
						"setReviews(string)": "infinite",
						"setTotalDurians(uint256)": "20531",
						"setWeight(uint256)": "20530"
					}
				},
				"methodIdentifiers": {
					"getHarvestFarm()": "8783fb57",
					"getHarvestTree()": "80581568",
					"getHarvestedBy()": "6a4f28d2",
					"getHarvestedDateTime()": "c0be32ef",
					"getID()": "ab9dbd07",
					"getKind()": "cb248b86",
					"getOwner()": "893d20e8",
					"getReviews()": "1b1e1324",
					"getTotalDurians()": "7fa9571f",
					"getWeight()": "a9b4b780",
					"setHarvestFarm(uint256)": "a1c83d53",
					"setHarvestTree(uint256)": "24a1d060",
					"setHarvestedBy(address)": "5e5aa83f",
					"setHarvestedDateTime(uint256)": "947b9a5b",
					"setID(uint256)": "dc5d184f",
					"setKind(uint256)": "05c18c04",
					"setOwner(address)": "13af4035",
					"setReviews(string)": "80da4718",
					"setTotalDurians(uint256)": "a9d290d7",
					"setWeight(uint256)": "fc1711f2"
				}
			},
			"storageLayout": {
				"storage": [
					{
						"astId": 3,
						"contract": "Durian.sol:Durian",
						"label": "_id",
						"offset": 0,
						"slot": "0",
						"type": "t_uint256"
					},
					{
						"astId": 5,
						"contract": "Durian.sol:Durian",
						"label": "_kind",
						"offset": 0,
						"slot": "1",
						"type": "t_uint256"
					},
					{
						"astId": 7,
						"contract": "Durian.sol:Durian",
						"label": "_weight",
						"offset": 0,
						"slot": "2",
						"type": "t_uint256"
					},
					{
						"astId": 9,
						"contract": "Durian.sol:Durian",
						"label": "_harvested_date_time",
						"offset": 0,
						"slot": "3",
						"type": "t_uint256"
					},
					{
						"astId": 11,
						"contract": "Durian.sol:Durian",
						"label": "_harvested_by",
						"offset": 0,
						"slot": "4",
						"type": "t_address"
					},
					{
						"astId": 13,
						"contract": "Durian.sol:Durian",
						"label": "_harvest_tree",
						"offset": 0,
						"slot": "5",
						"type": "t_uint256"
					},
					{
						"astId": 15,
						"contract": "Durian.sol:Durian",
						"label": "_harvest_farm",
						"offset": 0,
						"slot": "6",
						"type": "t_uint256"
					},
					{
						"astId": 17,
						"contract": "Durian.sol:Durian",
						"label": "_owner",
						"offset": 0,
						"slot": "7",
						"type": "t_address"
					},
					{
						"astId": 19,
						"contract": "Durian.sol:Durian",
						"label": "_reviews",
						"offset": 0,
						"slot": "8",
						"type": "t_string_storage"
					},
					{
						"astId": 22,
						"contract": "Durian.sol:Durian",
						"label": "_total_durians",
						"offset": 0,
						"slot": "9",
						"type": "t_uint256"
					}
				],
				"types": {
					"t_address": {
						"encoding": "inplace",
						"label": "address",
						"numberOfBytes": "20"
					},
					"t_string_storage": {
						"encoding": "bytes",
						"label": "string",
						"numberOfBytes": "32"
					},
					"t_uint256": {
						"encoding": "inplace",
						"label": "uint256",
						"numberOfBytes": "32"
					}
				}
			},
			"userdoc": {
				"kind": "user",
				"methods": {},
				"version": 1
			}
		}
	}
}