{
	"DurianContract.sol": {
		"DurianContract": {
			"abi": [
				{
					"inputs": [],
					"stateMutability": "nonpayable",
					"type": "constructor"
				},
				{
					"inputs": [
						{
							"internalType": "uint256",
							"name": "id",
							"type": "uint256"
						},
						{
							"internalType": "uint256",
							"name": "species",
							"type": "uint256"
						},
						{
							"internalType": "uint256",
							"name": "weight",
							"type": "uint256"
						},
						{
							"internalType": "uint256",
							"name": "harvested_date_time",
							"type": "uint256"
						},
						{
							"internalType": "address",
							"name": "harvested_by",
							"type": "address"
						},
						{
							"internalType": "uint256",
							"name": "harvest_tree",
							"type": "uint256"
						},
						{
							"internalType": "uint256",
							"name": "harvest_farm",
							"type": "uint256"
						}
					],
					"name": "addDurian",
					"outputs": [],
					"stateMutability": "nonpayable",
					"type": "function"
				},
				{
					"inputs": [
						{
							"internalType": "address[]",
							"name": "newstaffs",
							"type": "address[]"
						},
						{
							"internalType": "uint256",
							"name": "id",
							"type": "uint256"
						},
						{
							"internalType": "string",
							"name": "name",
							"type": "string"
						},
						{
							"internalType": "string",
							"name": "title",
							"type": "string"
						}
					],
					"name": "addStaff",
					"outputs": [],
					"stateMutability": "nonpayable",
					"type": "function"
				},
				{
					"inputs": [
						{
							"internalType": "string",
							"name": "startingPoint",
							"type": "string"
						},
						{
							"internalType": "string",
							"name": "destination",
							"type": "string"
						},
						{
							"internalType": "uint256",
							"name": "id",
							"type": "uint256"
						}
					],
					"name": "deliverDurian",
					"outputs": [
						{
							"internalType": "bool",
							"name": "",
							"type": "bool"
						}
					],
					"stateMutability": "nonpayable",
					"type": "function"
				},
				{
					"inputs": [
						{
							"internalType": "uint256",
							"name": "",
							"type": "uint256"
						}
					],
					"name": "durians",
					"outputs": [
						{
							"internalType": "uint256",
							"name": "id",
							"type": "uint256"
						},
						{
							"internalType": "uint256",
							"name": "kind",
							"type": "uint256"
						},
						{
							"internalType": "uint256",
							"name": "weight",
							"type": "uint256"
						},
						{
							"internalType": "uint256",
							"name": "harvested_date_time",
							"type": "uint256"
						},
						{
							"internalType": "address",
							"name": "harvested_by",
							"type": "address"
						},
						{
							"internalType": "uint256",
							"name": "harvest_tree",
							"type": "uint256"
						},
						{
							"internalType": "uint256",
							"name": "harvest_farm",
							"type": "uint256"
						},
						{
							"internalType": "address",
							"name": "owner",
							"type": "address"
						},
						{
							"components": [
								{
									"internalType": "string",
									"name": "personalRemarks",
									"type": "string"
								},
								{
									"internalType": "string",
									"name": "color",
									"type": "string"
								},
								{
									"internalType": "enum DurianContract.RatingNo",
									"name": "taste",
									"type": "uint8"
								},
								{
									"internalType": "enum DurianContract.RatingNo",
									"name": "fragrance",
									"type": "uint8"
								},
								{
									"internalType": "enum DurianContract.RatingNo",
									"name": "creaminess",
									"type": "uint8"
								},
								{
									"internalType": "enum DurianContract.RatingNo",
									"name": "overall_rating",
									"type": "uint8"
								}
							],
							"internalType": "struct DurianContract.Reviews",
							"name": "reviews",
							"type": "tuple"
						},
						{
							"internalType": "string",
							"name": "location",
							"type": "string"
						},
						{
							"internalType": "bool",
							"name": "onDelivery",
							"type": "bool"
						},
						{
							"internalType": "string",
							"name": "status",
							"type": "string"
						}
					],
					"stateMutability": "view",
					"type": "function"
				},
				{
					"inputs": [
						{
							"internalType": "uint256",
							"name": "id",
							"type": "uint256"
						}
					],
					"name": "getDurianById",
					"outputs": [
						{
							"components": [
								{
									"internalType": "uint256",
									"name": "id",
									"type": "uint256"
								},
								{
									"internalType": "uint256",
									"name": "kind",
									"type": "uint256"
								},
								{
									"internalType": "uint256",
									"name": "weight",
									"type": "uint256"
								},
								{
									"internalType": "uint256",
									"name": "harvested_date_time",
									"type": "uint256"
								},
								{
									"internalType": "address",
									"name": "harvested_by",
									"type": "address"
								},
								{
									"internalType": "uint256",
									"name": "harvest_tree",
									"type": "uint256"
								},
								{
									"internalType": "uint256",
									"name": "harvest_farm",
									"type": "uint256"
								},
								{
									"internalType": "address",
									"name": "owner",
									"type": "address"
								},
								{
									"components": [
										{
											"internalType": "string",
											"name": "personalRemarks",
											"type": "string"
										},
										{
											"internalType": "string",
											"name": "color",
											"type": "string"
										},
										{
											"internalType": "enum DurianContract.RatingNo",
											"name": "taste",
											"type": "uint8"
										},
										{
											"internalType": "enum DurianContract.RatingNo",
											"name": "fragrance",
											"type": "uint8"
										},
										{
											"internalType": "enum DurianContract.RatingNo",
											"name": "creaminess",
											"type": "uint8"
										},
										{
											"internalType": "enum DurianContract.RatingNo",
											"name": "overall_rating",
											"type": "uint8"
										}
									],
									"internalType": "struct DurianContract.Reviews",
									"name": "reviews",
									"type": "tuple"
								},
								{
									"internalType": "string",
									"name": "location",
									"type": "string"
								},
								{
									"internalType": "bool",
									"name": "onDelivery",
									"type": "bool"
								},
								{
									"internalType": "string",
									"name": "status",
									"type": "string"
								}
							],
							"internalType": "struct DurianContract.Durian",
							"name": "",
							"type": "tuple"
						}
					],
					"stateMutability": "view",
					"type": "function"
				},
				{
					"inputs": [],
					"name": "getOwnerAdd",
					"outputs": [
						{
							"internalType": "address",
							"name": "",
							"type": "address"
						}
					],
					"stateMutability": "view",
					"type": "function"
				},
				{
					"inputs": [],
					"name": "getTotalDurians",
					"outputs": [
						{
							"internalType": "uint256",
							"name": "",
							"type": "uint256"
						}
					],
					"stateMutability": "view",
					"type": "function"
				},
				{
					"inputs": [],
					"name": "ownerFarm",
					"outputs": [
						{
							"internalType": "address",
							"name": "",
							"type": "address"
						}
					],
					"stateMutability": "view",
					"type": "function"
				},
				{
					"inputs": [
						{
							"internalType": "uint256",
							"name": "id",
							"type": "uint256"
						},
						{
							"internalType": "string",
							"name": "destination",
							"type": "string"
						},
						{
							"internalType": "string",
							"name": "status",
							"type": "string"
						}
					],
					"name": "receiveDurians",
					"outputs": [
						{
							"internalType": "bool",
							"name": "",
							"type": "bool"
						}
					],
					"stateMutability": "nonpayable",
					"type": "function"
				},
				{
					"inputs": [
						{
							"internalType": "address",
							"name": "buyer",
							"type": "address"
						},
						{
							"internalType": "uint256",
							"name": "id",
							"type": "uint256"
						}
					],
					"name": "soldDurians",
					"outputs": [
						{
							"internalType": "string",
							"name": "",
							"type": "string"
						}
					],
					"stateMutability": "nonpayable",
					"type": "function"
				},
				{
					"inputs": [
						{
							"internalType": "uint256",
							"name": "",
							"type": "uint256"
						}
					],
					"name": "staffs",
					"outputs": [
						{
							"internalType": "address",
							"name": "staffAddress",
							"type": "address"
						},
						{
							"internalType": "uint256",
							"name": "id",
							"type": "uint256"
						},
						{
							"internalType": "string",
							"name": "name",
							"type": "string"
						},
						{
							"internalType": "string",
							"name": "title",
							"type": "string"
						}
					],
					"stateMutability": "view",
					"type": "function"
				}
			],
			"devdoc": {
				"kind": "dev",
				"methods": {},
				"version": 1
			},
			"evm": {
				"assembly": "    /* \"DurianContract.sol\":57:4909  contract DurianContract {... */\n  mstore(0x40, 0x80)\n    /* \"DurianContract.sol\":2047:2148  Reviews(\"default\", \"default\", RatingNo.average, RatingNo.average, RatingNo.average, RatingNo.average) */\n  mload(0x40)\n  dup1\n  0xc0\n  add\n  0x40\n  mstore\n  dup1\n  mload(0x40)\n  dup1\n  0x40\n  add\n  0x40\n  mstore\n  dup1\n  0x07\n  dup2\n  mstore\n  0x20\n  add\n  0x64656661756c7400000000000000000000000000000000000000000000000000\n  dup2\n  mstore\n  pop\n  dup2\n  mstore\n  0x20\n  add\n  mload(0x40)\n  dup1\n  0x40\n  add\n  0x40\n  mstore\n  dup1\n  0x07\n  dup2\n  mstore\n  0x20\n  add\n  0x64656661756c7400000000000000000000000000000000000000000000000000\n  dup2\n  mstore\n  pop\n  dup2\n  mstore\n  0x20\n  add\n    /* \"DurianContract.sol\":2077:2093  RatingNo.average */\n  0x02\n    /* \"DurianContract.sol\":2047:2148  Reviews(\"default\", \"default\", RatingNo.average, RatingNo.average, RatingNo.average, RatingNo.average) */\n  0x04\n  dup2\n  gt\n  iszero\n  tag_1\n  jumpi\n  mstore(0x00, 0x4e487b7100000000000000000000000000000000000000000000000000000000)\n  mstore(0x04, 0x21)\n  revert(0x00, 0x24)\ntag_1:\n  dup2\n  mstore\n  0x20\n  add\n    /* \"DurianContract.sol\":2095:2111  RatingNo.average */\n  0x02\n    /* \"DurianContract.sol\":2047:2148  Reviews(\"default\", \"default\", RatingNo.average, RatingNo.average, RatingNo.average, RatingNo.average) */\n  0x04\n  dup2\n  gt\n  iszero\n  tag_2\n  jumpi\n  mstore(0x00, 0x4e487b7100000000000000000000000000000000000000000000000000000000)\n  mstore(0x04, 0x21)\n  revert(0x00, 0x24)\ntag_2:\n  dup2\n  mstore\n  0x20\n  add\n    /* \"DurianContract.sol\":2113:2129  RatingNo.average */\n  0x02\n    /* \"DurianContract.sol\":2047:2148  Reviews(\"default\", \"default\", RatingNo.average, RatingNo.average, RatingNo.average, RatingNo.average) */\n  0x04\n  dup2\n  gt\n  iszero\n  tag_3\n  jumpi\n  mstore(0x00, 0x4e487b7100000000000000000000000000000000000000000000000000000000)\n  mstore(0x04, 0x21)\n  revert(0x00, 0x24)\ntag_3:\n  dup2\n  mstore\n  0x20\n  add\n    /* \"DurianContract.sol\":2131:2147  RatingNo.average */\n  0x02\n    /* \"DurianContract.sol\":2047:2148  Reviews(\"default\", \"default\", RatingNo.average, RatingNo.average, RatingNo.average, RatingNo.average) */\n  0x04\n  dup2\n  gt\n  iszero\n  tag_4\n  jumpi\n  mstore(0x00, 0x4e487b7100000000000000000000000000000000000000000000000000000000)\n  mstore(0x04, 0x21)\n  revert(0x00, 0x24)\ntag_4:\n  dup2\n  mstore\n  pop\n    /* \"DurianContract.sol\":2015:2148  Reviews private defaultDurian = Reviews(\"default\", \"default\", RatingNo.average, RatingNo.average, RatingNo.average, RatingNo.average) */\n  0x03\n  0x00\n  dup3\n  add\n  mload\n  dup2\n  0x00\n  add\n  swap1\n  dup1\n  mload\n  swap1\n  0x20\n  add\n  swap1\n  tag_5\n  swap3\n  swap2\n  swap1\n  tag_6\n  jump\t// in\ntag_5:\n  pop\n  0x20\n  dup3\n  add\n  mload\n  dup2\n  0x01\n  add\n  swap1\n  dup1\n  mload\n  swap1\n  0x20\n  add\n  swap1\n  tag_7\n  swap3\n  swap2\n  swap1\n  tag_6\n  jump\t// in\ntag_7:\n  pop\n  0x40\n  dup3\n  add\n  mload\n  dup2\n  0x02\n  add\n  exp(0x0100, 0x00)\n  dup2\n  sload\n  dup2\n  0xff\n  mul\n  not\n  and\n  swap1\n  dup4\n  0x04\n  dup2\n  gt\n  iszero\n  tag_8\n  jumpi\n  mstore(0x00, 0x4e487b7100000000000000000000000000000000000000000000000000000000)\n  mstore(0x04, 0x21)\n  revert(0x00, 0x24)\ntag_8:\n  mul\n  or\n  swap1\n  sstore\n  pop\n  0x60\n  dup3\n  add\n  mload\n  dup2\n  0x02\n  add\n  exp(0x0100, 0x01)\n  dup2\n  sload\n  dup2\n  0xff\n  mul\n  not\n  and\n  swap1\n  dup4\n  0x04\n  dup2\n  gt\n  iszero\n  tag_9\n  jumpi\n  mstore(0x00, 0x4e487b7100000000000000000000000000000000000000000000000000000000)\n  mstore(0x04, 0x21)\n  revert(0x00, 0x24)\ntag_9:\n  mul\n  or\n  swap1\n  sstore\n  pop\n  0x80\n  dup3\n  add\n  mload\n  dup2\n  0x02\n  add\n  exp(0x0100, 0x02)\n  dup2\n  sload\n  dup2\n  0xff\n  mul\n  not\n  and\n  swap1\n  dup4\n  0x04\n  dup2\n  gt\n  iszero\n  tag_10\n  jumpi\n  mstore(0x00, 0x4e487b7100000000000000000000000000000000000000000000000000000000)\n  mstore(0x04, 0x21)\n  revert(0x00, 0x24)\ntag_10:\n  mul\n  or\n  swap1\n  sstore\n  pop\n  0xa0\n  dup3\n  add\n  mload\n  dup2\n  0x02\n  add\n  exp(0x0100, 0x03)\n  dup2\n  sload\n  dup2\n  0xff\n  mul\n  not\n  and\n  swap1\n  dup4\n  0x04\n  dup2\n  gt\n  iszero\n  tag_11\n  jumpi\n  mstore(0x00, 0x4e487b7100000000000000000000000000000000000000000000000000000000)\n  mstore(0x04, 0x21)\n  revert(0x00, 0x24)\ntag_11:\n  mul\n  or\n  swap1\n  sstore\n  pop\n  pop\n  pop\n    /* \"DurianContract.sol\":982:1035  constructor() {... */\n  callvalue\n  dup1\n  iszero\n  tag_12\n  jumpi\n  0x00\n  dup1\n  revert\ntag_12:\n  pop\n    /* \"DurianContract.sol\":1018:1028  msg.sender */\n  caller\n    /* \"DurianContract.sol\":1006:1015  ownerFarm */\n  0x00\n  dup1\n    /* \"DurianContract.sol\":1006:1028  ownerFarm = msg.sender */\n  0x0100\n  exp\n  dup2\n  sload\n  dup2\n  0xffffffffffffffffffffffffffffffffffffffff\n  mul\n  not\n  and\n  swap1\n  dup4\n  0xffffffffffffffffffffffffffffffffffffffff\n  and\n  mul\n  or\n  swap1\n  sstore\n  pop\n    /* \"DurianContract.sol\":57:4909  contract DurianContract {... */\n  jump(tag_15)\ntag_6:\n  dup3\n  dup1\n  sload\n  tag_16\n  swap1\n  tag_17\n  jump\t// in\ntag_16:\n  swap1\n  0x00\n  mstore\n  keccak256(0x00, 0x20)\n  swap1\n  0x1f\n  add\n  0x20\n  swap1\n  div\n  dup2\n  add\n  swap3\n  dup3\n  tag_19\n  jumpi\n  0x00\n  dup6\n  sstore\n  jump(tag_18)\ntag_19:\n  dup3\n  0x1f\n  lt\n  tag_20\n  jumpi\n  dup1\n  mload\n  not(0xff)\n  and\n  dup4\n  dup1\n  add\n  or\n  dup6\n  sstore\n  jump(tag_18)\ntag_20:\n  dup3\n  dup1\n  add\n  0x01\n  add\n  dup6\n  sstore\n  dup3\n  iszero\n  tag_18\n  jumpi\n  swap2\n  dup3\n  add\ntag_21:\n  dup3\n  dup2\n  gt\n  iszero\n  tag_22\n  jumpi\n  dup3\n  mload\n  dup3\n  sstore\n  swap2\n  0x20\n  add\n  swap2\n  swap1\n  0x01\n  add\n  swap1\n  jump(tag_21)\ntag_22:\ntag_18:\n  pop\n  swap1\n  pop\n  tag_23\n  swap2\n  swap1\n  tag_24\n  jump\t// in\ntag_23:\n  pop\n  swap1\n  jump\t// out\ntag_24:\ntag_25:\n  dup1\n  dup3\n  gt\n  iszero\n  tag_26\n  jumpi\n  0x00\n  dup2\n  0x00\n  swap1\n  sstore\n  pop\n  0x01\n  add\n  jump(tag_25)\ntag_26:\n  pop\n  swap1\n  jump\t// out\n    /* \"#utility.yul\":7:327   */\ntag_17:\n  0x00\n    /* \"#utility.yul\":88:89   */\n  0x02\n    /* \"#utility.yul\":82:86   */\n  dup3\n    /* \"#utility.yul\":78:90   */\n  div\n    /* \"#utility.yul\":68:90   */\n  swap1\n  pop\n    /* \"#utility.yul\":135:136   */\n  0x01\n    /* \"#utility.yul\":129:133   */\n  dup3\n    /* \"#utility.yul\":125:137   */\n  and\n    /* \"#utility.yul\":156:174   */\n  dup1\n    /* \"#utility.yul\":146:148   */\n  tag_29\n  jumpi\n    /* \"#utility.yul\":212:216   */\n  0x7f\n    /* \"#utility.yul\":204:210   */\n  dup3\n    /* \"#utility.yul\":200:217   */\n  and\n    /* \"#utility.yul\":190:217   */\n  swap2\n  pop\n    /* \"#utility.yul\":146:148   */\ntag_29:\n    /* \"#utility.yul\":274:276   */\n  0x20\n    /* \"#utility.yul\":266:272   */\n  dup3\n    /* \"#utility.yul\":263:277   */\n  lt\n    /* \"#utility.yul\":243:261   */\n  dup2\n    /* \"#utility.yul\":240:278   */\n  eq\n    /* \"#utility.yul\":237:239   */\n  iszero\n  tag_30\n  jumpi\n    /* \"#utility.yul\":293:311   */\n  tag_31\n  tag_32\n  jump\t// in\ntag_31:\n    /* \"#utility.yul\":237:239   */\ntag_30:\n    /* \"#utility.yul\":58:327   */\n  pop\n  swap2\n  swap1\n  pop\n  jump\t// out\n    /* \"#utility.yul\":333:513   */\ntag_32:\n    /* \"#utility.yul\":381:458   */\n  0x4e487b7100000000000000000000000000000000000000000000000000000000\n    /* \"#utility.yul\":378:379   */\n  0x00\n    /* \"#utility.yul\":371:459   */\n  mstore\n    /* \"#utility.yul\":478:482   */\n  0x22\n    /* \"#utility.yul\":475:476   */\n  0x04\n    /* \"#utility.yul\":468:483   */\n  mstore\n    /* \"#utility.yul\":502:506   */\n  0x24\n    /* \"#utility.yul\":499:500   */\n  0x00\n    /* \"#utility.yul\":492:507   */\n  revert\n    /* \"DurianContract.sol\":57:4909  contract DurianContract {... */\ntag_15:\n  dataSize(sub_0)\n  dup1\n  dataOffset(sub_0)\n  0x00\n  codecopy\n  0x00\n  return\nstop\n\nsub_0: assembly {\n        /* \"DurianContract.sol\":57:4909  contract DurianContract {... */\n      mstore(0x40, 0x80)\n      callvalue\n      dup1\n      iszero\n      tag_1\n      jumpi\n      0x00\n      dup1\n      revert\n    tag_1:\n      pop\n      jumpi(tag_2, lt(calldatasize, 0x04))\n      shr(0xe0, calldataload(0x00))\n      dup1\n      0x507d4e8e\n      gt\n      tag_14\n      jumpi\n      dup1\n      0x507d4e8e\n      eq\n      tag_8\n      jumpi\n      dup1\n      0x7fa9571f\n      eq\n      tag_9\n      jumpi\n      dup1\n      0xd66d2a57\n      eq\n      tag_10\n      jumpi\n      dup1\n      0xd8162943\n      eq\n      tag_11\n      jumpi\n      dup1\n      0xea6978c1\n      eq\n      tag_12\n      jumpi\n      dup1\n      0xee446d9f\n      eq\n      tag_13\n      jumpi\n      jump(tag_2)\n    tag_14:\n      dup1\n      0x820349\n      eq\n      tag_3\n      jumpi\n      dup1\n      0x2966b29b\n      eq\n      tag_4\n      jumpi\n      dup1\n      0x3afe4f12\n      eq\n      tag_5\n      jumpi\n      dup1\n      0x45b2bd2f\n      eq\n      tag_6\n      jumpi\n      dup1\n      0x498d4707\n      eq\n      tag_7\n      jumpi\n    tag_2:\n      0x00\n      dup1\n      revert\n        /* \"DurianContract.sol\":4688:4794  function getDurianById(uint256 id) public view returns (Durian memory) {... */\n    tag_3:\n      tag_15\n      0x04\n      dup1\n      calldatasize\n      sub\n      dup2\n      add\n      swap1\n      tag_16\n      swap2\n      swap1\n      tag_17\n      jump\t// in\n    tag_16:\n      tag_18\n      jump\t// in\n    tag_15:\n      mload(0x40)\n      tag_19\n      swap2\n      swap1\n      tag_20\n      jump\t// in\n    tag_19:\n      mload(0x40)\n      dup1\n      swap2\n      sub\n      swap1\n      return\n        /* \"DurianContract.sol\":87:111  address public ownerFarm */\n    tag_4:\n      tag_21\n      tag_22\n      jump\t// in\n    tag_21:\n      mload(0x40)\n      tag_23\n      swap2\n      swap1\n      tag_24\n      jump\t// in\n    tag_23:\n      mload(0x40)\n      dup1\n      swap2\n      sub\n      swap1\n      return\n        /* \"DurianContract.sol\":2638:3279  function addDurian(... */\n    tag_5:\n      tag_25\n      0x04\n      dup1\n      calldatasize\n      sub\n      dup2\n      add\n      swap1\n      tag_26\n      swap2\n      swap1\n      tag_27\n      jump\t// in\n    tag_26:\n      tag_28\n      jump\t// in\n    tag_25:\n      stop\n        /* \"DurianContract.sol\":2175:2606  function addStaff(... */\n    tag_6:\n      tag_29\n      0x04\n      dup1\n      calldatasize\n      sub\n      dup2\n      add\n      swap1\n      tag_30\n      swap2\n      swap1\n      tag_31\n      jump\t// in\n    tag_30:\n      tag_32\n      jump\t// in\n    tag_29:\n      stop\n        /* \"DurianContract.sol\":1182:1203  Staff[] public staffs */\n    tag_7:\n      tag_33\n      0x04\n      dup1\n      calldatasize\n      sub\n      dup2\n      add\n      swap1\n      tag_34\n      swap2\n      swap1\n      tag_17\n      jump\t// in\n    tag_34:\n      tag_35\n      jump\t// in\n    tag_33:\n      mload(0x40)\n      tag_36\n      swap5\n      swap4\n      swap3\n      swap2\n      swap1\n      tag_37\n      jump\t// in\n    tag_36:\n      mload(0x40)\n      dup1\n      swap2\n      sub\n      swap1\n      return\n        /* \"DurianContract.sol\":4164:4467  function soldDurians (... */\n    tag_8:\n      tag_38\n      0x04\n      dup1\n      calldatasize\n      sub\n      dup2\n      add\n      swap1\n      tag_39\n      swap2\n      swap1\n      tag_40\n      jump\t// in\n    tag_39:\n      tag_41\n      jump\t// in\n    tag_38:\n      mload(0x40)\n      tag_42\n      swap2\n      swap1\n      tag_43\n      jump\t// in\n    tag_42:\n      mload(0x40)\n      dup1\n      swap2\n      sub\n      swap1\n      return\n        /* \"DurianContract.sol\":4565:4660  function getTotalDurians() public view returns (uint256) {... */\n    tag_9:\n      tag_44\n      tag_45\n      jump\t// in\n    tag_44:\n      mload(0x40)\n      tag_46\n      swap2\n      swap1\n      tag_47\n      jump\t// in\n    tag_46:\n      mload(0x40)\n      dup1\n      swap2\n      sub\n      swap1\n      return\n        /* \"DurianContract.sol\":4820:4907  function getOwnerAdd() external view returns (address){... */\n    tag_10:\n      tag_48\n      tag_49\n      jump\t// in\n    tag_48:\n      mload(0x40)\n      tag_50\n      swap2\n      swap1\n      tag_24\n      jump\t// in\n    tag_50:\n      mload(0x40)\n      dup1\n      swap2\n      sub\n      swap1\n      return\n        /* \"DurianContract.sol\":3748:4106  function receiveDurians(... */\n    tag_11:\n      tag_51\n      0x04\n      dup1\n      calldatasize\n      sub\n      dup2\n      add\n      swap1\n      tag_52\n      swap2\n      swap1\n      tag_53\n      jump\t// in\n    tag_52:\n      tag_54\n      jump\t// in\n    tag_51:\n      mload(0x40)\n      tag_55\n      swap2\n      swap1\n      tag_56\n      jump\t// in\n    tag_55:\n      mload(0x40)\n      dup1\n      swap2\n      sub\n      swap1\n      return\n        /* \"DurianContract.sol\":3331:3703  function deliverDurian(... */\n    tag_12:\n      tag_57\n      0x04\n      dup1\n      calldatasize\n      sub\n      dup2\n      add\n      swap1\n      tag_58\n      swap2\n      swap1\n      tag_59\n      jump\t// in\n    tag_58:\n      tag_60\n      jump\t// in\n    tag_57:\n      mload(0x40)\n      tag_61\n      swap2\n      swap1\n      tag_56\n      jump\t// in\n    tag_61:\n      mload(0x40)\n      dup1\n      swap2\n      sub\n      swap1\n      return\n        /* \"DurianContract.sol\":1601:1624  Durian[] public durians */\n    tag_13:\n      tag_62\n      0x04\n      dup1\n      calldatasize\n      sub\n      dup2\n      add\n      swap1\n      tag_63\n      swap2\n      swap1\n      tag_17\n      jump\t// in\n    tag_63:\n      tag_64\n      jump\t// in\n    tag_62:\n      mload(0x40)\n      tag_65\n      swap13\n      swap12\n      swap11\n      swap10\n      swap9\n      swap8\n      swap7\n      swap6\n      swap5\n      swap4\n      swap3\n      swap2\n      swap1\n      tag_66\n      jump\t// in\n    tag_65:\n      mload(0x40)\n      dup1\n      swap2\n      sub\n      swap1\n      return\n        /* \"DurianContract.sol\":4688:4794  function getDurianById(uint256 id) public view returns (Durian memory) {... */\n    tag_18:\n        /* \"DurianContract.sol\":4744:4757  Durian memory */\n      tag_67\n      tag_68\n      jump\t// in\n    tag_67:\n        /* \"DurianContract.sol\":4776:4783  durians */\n      0x02\n        /* \"DurianContract.sol\":4784:4786  id */\n      dup3\n        /* \"DurianContract.sol\":4776:4787  durians[id] */\n      dup2\n      sload\n      dup2\n      lt\n      tag_70\n      jumpi\n      mstore(0x00, 0x4e487b7100000000000000000000000000000000000000000000000000000000)\n      mstore(0x04, 0x32)\n      revert(0x00, 0x24)\n    tag_70:\n      swap1\n      0x00\n      mstore\n      keccak256(0x00, 0x20)\n      swap1\n      0x0e\n      mul\n      add\n        /* \"DurianContract.sol\":4769:4787  return durians[id] */\n      mload(0x40)\n      dup1\n      0x0180\n      add\n      0x40\n      mstore\n      swap1\n      dup2\n      0x00\n      dup3\n      add\n      sload\n      dup2\n      mstore\n      0x20\n      add\n      0x01\n      dup3\n      add\n      sload\n      dup2\n      mstore\n      0x20\n      add\n      0x02\n      dup3\n      add\n      sload\n      dup2\n      mstore\n      0x20\n      add\n      0x03\n      dup3\n      add\n      sload\n      dup2\n      mstore\n      0x20\n      add\n      0x04\n      dup3\n      add\n      0x00\n      swap1\n      sload\n      swap1\n      0x0100\n      exp\n      swap1\n      div\n      0xffffffffffffffffffffffffffffffffffffffff\n      and\n      0xffffffffffffffffffffffffffffffffffffffff\n      and\n      0xffffffffffffffffffffffffffffffffffffffff\n      and\n      dup2\n      mstore\n      0x20\n      add\n      0x05\n      dup3\n      add\n      sload\n      dup2\n      mstore\n      0x20\n      add\n      0x06\n      dup3\n      add\n      sload\n      dup2\n      mstore\n      0x20\n      add\n      0x07\n      dup3\n      add\n      0x00\n      swap1\n      sload\n      swap1\n      0x0100\n      exp\n      swap1\n      div\n      0xffffffffffffffffffffffffffffffffffffffff\n      and\n      0xffffffffffffffffffffffffffffffffffffffff\n      and\n      0xffffffffffffffffffffffffffffffffffffffff\n      and\n      dup2\n      mstore\n      0x20\n      add\n      0x08\n      dup3\n      add\n      mload(0x40)\n      dup1\n      0xc0\n      add\n      0x40\n      mstore\n      swap1\n      dup2\n      0x00\n      dup3\n      add\n      dup1\n      sload\n      tag_72\n      swap1\n      tag_73\n      jump\t// in\n    tag_72:\n      dup1\n      0x1f\n      add\n      0x20\n      dup1\n      swap2\n      div\n      mul\n      0x20\n      add\n      mload(0x40)\n      swap1\n      dup2\n      add\n      0x40\n      mstore\n      dup1\n      swap3\n      swap2\n      swap1\n      dup2\n      dup2\n      mstore\n      0x20\n      add\n      dup3\n      dup1\n      sload\n      tag_74\n      swap1\n      tag_73\n      jump\t// in\n    tag_74:\n      dup1\n      iszero\n      tag_75\n      jumpi\n      dup1\n      0x1f\n      lt\n      tag_76\n      jumpi\n      0x0100\n      dup1\n      dup4\n      sload\n      div\n      mul\n      dup4\n      mstore\n      swap2\n      0x20\n      add\n      swap2\n      jump(tag_75)\n    tag_76:\n      dup3\n      add\n      swap2\n      swap1\n      0x00\n      mstore\n      keccak256(0x00, 0x20)\n      swap1\n    tag_77:\n      dup2\n      sload\n      dup2\n      mstore\n      swap1\n      0x01\n      add\n      swap1\n      0x20\n      add\n      dup1\n      dup4\n      gt\n      tag_77\n      jumpi\n      dup3\n      swap1\n      sub\n      0x1f\n      and\n      dup3\n      add\n      swap2\n    tag_75:\n      pop\n      pop\n      pop\n      pop\n      pop\n      dup2\n      mstore\n      0x20\n      add\n      0x01\n      dup3\n      add\n      dup1\n      sload\n      tag_78\n      swap1\n      tag_73\n      jump\t// in\n    tag_78:\n      dup1\n      0x1f\n      add\n      0x20\n      dup1\n      swap2\n      div\n      mul\n      0x20\n      add\n      mload(0x40)\n      swap1\n      dup2\n      add\n      0x40\n      mstore\n      dup1\n      swap3\n      swap2\n      swap1\n      dup2\n      dup2\n      mstore\n      0x20\n      add\n      dup3\n      dup1\n      sload\n      tag_79\n      swap1\n      tag_73\n      jump\t// in\n    tag_79:\n      dup1\n      iszero\n      tag_80\n      jumpi\n      dup1\n      0x1f\n      lt\n      tag_81\n      jumpi\n      0x0100\n      dup1\n      dup4\n      sload\n      div\n      mul\n      dup4\n      mstore\n      swap2\n      0x20\n      add\n      swap2\n      jump(tag_80)\n    tag_81:\n      dup3\n      add\n      swap2\n      swap1\n      0x00\n      mstore\n      keccak256(0x00, 0x20)\n      swap1\n    tag_82:\n      dup2\n      sload\n      dup2\n      mstore\n      swap1\n      0x01\n      add\n      swap1\n      0x20\n      add\n      dup1\n      dup4\n      gt\n      tag_82\n      jumpi\n      dup3\n      swap1\n      sub\n      0x1f\n      and\n      dup3\n      add\n      swap2\n    tag_80:\n      pop\n      pop\n      pop\n      pop\n      pop\n      dup2\n      mstore\n      0x20\n      add\n      0x02\n      dup3\n      add\n      0x00\n      swap1\n      sload\n      swap1\n      0x0100\n      exp\n      swap1\n      div\n      0xff\n      and\n      0x04\n      dup2\n      gt\n      iszero\n      tag_83\n      jumpi\n      mstore(0x00, 0x4e487b7100000000000000000000000000000000000000000000000000000000)\n      mstore(0x04, 0x21)\n      revert(0x00, 0x24)\n    tag_83:\n      0x04\n      dup2\n      gt\n      iszero\n      tag_84\n      jumpi\n      mstore(0x00, 0x4e487b7100000000000000000000000000000000000000000000000000000000)\n      mstore(0x04, 0x21)\n      revert(0x00, 0x24)\n    tag_84:\n      dup2\n      mstore\n      0x20\n      add\n      0x02\n      dup3\n      add\n      0x01\n      swap1\n      sload\n      swap1\n      0x0100\n      exp\n      swap1\n      div\n      0xff\n      and\n      0x04\n      dup2\n      gt\n      iszero\n      tag_85\n      jumpi\n      mstore(0x00, 0x4e487b7100000000000000000000000000000000000000000000000000000000)\n      mstore(0x04, 0x21)\n      revert(0x00, 0x24)\n    tag_85:\n      0x04\n      dup2\n      gt\n      iszero\n      tag_86\n      jumpi\n      mstore(0x00, 0x4e487b7100000000000000000000000000000000000000000000000000000000)\n      mstore(0x04, 0x21)\n      revert(0x00, 0x24)\n    tag_86:\n      dup2\n      mstore\n      0x20\n      add\n      0x02\n      dup3\n      add\n      0x02\n      swap1\n      sload\n      swap1\n      0x0100\n      exp\n      swap1\n      div\n      0xff\n      and\n      0x04\n      dup2\n      gt\n      iszero\n      tag_87\n      jumpi\n      mstore(0x00, 0x4e487b7100000000000000000000000000000000000000000000000000000000)\n      mstore(0x04, 0x21)\n      revert(0x00, 0x24)\n    tag_87:\n      0x04\n      dup2\n      gt\n      iszero\n      tag_88\n      jumpi\n      mstore(0x00, 0x4e487b7100000000000000000000000000000000000000000000000000000000)\n      mstore(0x04, 0x21)\n      revert(0x00, 0x24)\n    tag_88:\n      dup2\n      mstore\n      0x20\n      add\n      0x02\n      dup3\n      add\n      0x03\n      swap1\n      sload\n      swap1\n      0x0100\n      exp\n      swap1\n      div\n      0xff\n      and\n      0x04\n      dup2\n      gt\n      iszero\n      tag_89\n      jumpi\n      mstore(0x00, 0x4e487b7100000000000000000000000000000000000000000000000000000000)\n      mstore(0x04, 0x21)\n      revert(0x00, 0x24)\n    tag_89:\n      0x04\n      dup2\n      gt\n      iszero\n      tag_90\n      jumpi\n      mstore(0x00, 0x4e487b7100000000000000000000000000000000000000000000000000000000)\n      mstore(0x04, 0x21)\n      revert(0x00, 0x24)\n    tag_90:\n      dup2\n      mstore\n      pop\n      pop\n      dup2\n      mstore\n      0x20\n      add\n      0x0b\n      dup3\n      add\n      dup1\n      sload\n      tag_91\n      swap1\n      tag_73\n      jump\t// in\n    tag_91:\n      dup1\n      0x1f\n      add\n      0x20\n      dup1\n      swap2\n      div\n      mul\n      0x20\n      add\n      mload(0x40)\n      swap1\n      dup2\n      add\n      0x40\n      mstore\n      dup1\n      swap3\n      swap2\n      swap1\n      dup2\n      dup2\n      mstore\n      0x20\n      add\n      dup3\n      dup1\n      sload\n      tag_92\n      swap1\n      tag_73\n      jump\t// in\n    tag_92:\n      dup1\n      iszero\n      tag_93\n      jumpi\n      dup1\n      0x1f\n      lt\n      tag_94\n      jumpi\n      0x0100\n      dup1\n      dup4\n      sload\n      div\n      mul\n      dup4\n      mstore\n      swap2\n      0x20\n      add\n      swap2\n      jump(tag_93)\n    tag_94:\n      dup3\n      add\n      swap2\n      swap1\n      0x00\n      mstore\n      keccak256(0x00, 0x20)\n      swap1\n    tag_95:\n      dup2\n      sload\n      dup2\n      mstore\n      swap1\n      0x01\n      add\n      swap1\n      0x20\n      add\n      dup1\n      dup4\n      gt\n      tag_95\n      jumpi\n      dup3\n      swap1\n      sub\n      0x1f\n      and\n      dup3\n      add\n      swap2\n    tag_93:\n      pop\n      pop\n      pop\n      pop\n      pop\n      dup2\n      mstore\n      0x20\n      add\n      0x0c\n      dup3\n      add\n      0x00\n      swap1\n      sload\n      swap1\n      0x0100\n      exp\n      swap1\n      div\n      0xff\n      and\n      iszero\n      iszero\n      iszero\n      iszero\n      dup2\n      mstore\n      0x20\n      add\n      0x0d\n      dup3\n      add\n      dup1\n      sload\n      tag_96\n      swap1\n      tag_73\n      jump\t// in\n    tag_96:\n      dup1\n      0x1f\n      add\n      0x20\n      dup1\n      swap2\n      div\n      mul\n      0x20\n      add\n      mload(0x40)\n      swap1\n      dup2\n      add\n      0x40\n      mstore\n      dup1\n      swap3\n      swap2\n      swap1\n      dup2\n      dup2\n      mstore\n      0x20\n      add\n      dup3\n      dup1\n      sload\n      tag_97\n      swap1\n      tag_73\n      jump\t// in\n    tag_97:\n      dup1\n      iszero\n      tag_98\n      jumpi\n      dup1\n      0x1f\n      lt\n      tag_99\n      jumpi\n      0x0100\n      dup1\n      dup4\n      sload\n      div\n      mul\n      dup4\n      mstore\n      swap2\n      0x20\n      add\n      swap2\n      jump(tag_98)\n    tag_99:\n      dup3\n      add\n      swap2\n      swap1\n      0x00\n      mstore\n      keccak256(0x00, 0x20)\n      swap1\n    tag_100:\n      dup2\n      sload\n      dup2\n      mstore\n      swap1\n      0x01\n      add\n      swap1\n      0x20\n      add\n      dup1\n      dup4\n      gt\n      tag_100\n      jumpi\n      dup3\n      swap1\n      sub\n      0x1f\n      and\n      dup3\n      add\n      swap2\n    tag_98:\n      pop\n      pop\n      pop\n      pop\n      pop\n      dup2\n      mstore\n      pop\n      pop\n      swap1\n      pop\n        /* \"DurianContract.sol\":4688:4794  function getDurianById(uint256 id) public view returns (Durian memory) {... */\n      swap2\n      swap1\n      pop\n      jump\t// out\n        /* \"DurianContract.sol\":87:111  address public ownerFarm */\n    tag_22:\n      0x00\n      dup1\n      sload\n      swap1\n      0x0100\n      exp\n      swap1\n      div\n      0xffffffffffffffffffffffffffffffffffffffff\n      and\n      dup2\n      jump\t// out\n        /* \"DurianContract.sol\":2638:3279  function addDurian(... */\n    tag_28:\n        /* \"DurianContract.sol\":330:352  address addressofStaff */\n      0x00\n        /* \"DurianContract.sol\":367:376  uint256 i */\n      dup1\n        /* \"DurianContract.sol\":379:385  staffs */\n      0x01\n        /* \"DurianContract.sol\":379:392  staffs.length */\n      dup1\n      sload\n      swap1\n      pop\n        /* \"DurianContract.sol\":367:392  uint256 i = staffs.length */\n      swap1\n      pop\n        /* \"DurianContract.sol\":362:692  for (uint256 i = staffs.length; i == 0; i--) {... */\n    tag_102:\n        /* \"DurianContract.sol\":399:400  0 */\n      0x00\n        /* \"DurianContract.sol\":394:395  i */\n      dup2\n        /* \"DurianContract.sol\":394:400  i == 0 */\n      eq\n        /* \"DurianContract.sol\":362:692  for (uint256 i = staffs.length; i == 0; i--) {... */\n      iszero\n      tag_103\n      jumpi\n        /* \"DurianContract.sol\":439:448  ownerFarm */\n      0x00\n      dup1\n      sload\n      swap1\n      0x0100\n      exp\n      swap1\n      div\n      0xffffffffffffffffffffffffffffffffffffffff\n      and\n        /* \"DurianContract.sol\":425:448  msg.sender == ownerFarm */\n      0xffffffffffffffffffffffffffffffffffffffff\n      and\n        /* \"DurianContract.sol\":425:435  msg.sender */\n      caller\n        /* \"DurianContract.sol\":425:448  msg.sender == ownerFarm */\n      0xffffffffffffffffffffffffffffffffffffffff\n      and\n      eq\n        /* \"DurianContract.sol\":421:532  if (msg.sender == ownerFarm) {... */\n      iszero\n      tag_105\n      jumpi\n        /* \"DurianContract.sol\":485:494  ownerFarm */\n      0x00\n      dup1\n      sload\n      swap1\n      0x0100\n      exp\n      swap1\n      div\n      0xffffffffffffffffffffffffffffffffffffffff\n      and\n        /* \"DurianContract.sol\":468:494  addressofStaff = ownerFarm */\n      swap2\n      pop\n        /* \"DurianContract.sol\":512:517  break */\n      jump(tag_103)\n        /* \"DurianContract.sol\":421:532  if (msg.sender == ownerFarm) {... */\n    tag_105:\n        /* \"DurianContract.sol\":575:585  msg.sender */\n      caller\n        /* \"DurianContract.sol\":549:585  staffs[i].staffAddress == msg.sender */\n      0xffffffffffffffffffffffffffffffffffffffff\n      and\n        /* \"DurianContract.sol\":549:555  staffs */\n      0x01\n        /* \"DurianContract.sol\":556:557  i */\n      dup3\n        /* \"DurianContract.sol\":549:558  staffs[i] */\n      dup2\n      sload\n      dup2\n      lt\n      tag_106\n      jumpi\n      mstore(0x00, 0x4e487b7100000000000000000000000000000000000000000000000000000000)\n      mstore(0x04, 0x32)\n      revert(0x00, 0x24)\n    tag_106:\n      swap1\n      0x00\n      mstore\n      keccak256(0x00, 0x20)\n      swap1\n      0x04\n      mul\n      add\n        /* \"DurianContract.sol\":549:571  staffs[i].staffAddress */\n      0x00\n      add\n      0x00\n      swap1\n      sload\n      swap1\n      0x0100\n      exp\n      swap1\n      div\n      0xffffffffffffffffffffffffffffffffffffffff\n      and\n        /* \"DurianContract.sol\":549:585  staffs[i].staffAddress == msg.sender */\n      0xffffffffffffffffffffffffffffffffffffffff\n      and\n      eq\n        /* \"DurianContract.sol\":545:682  if (staffs[i].staffAddress == msg.sender) {... */\n      iszero\n      tag_108\n      jumpi\n        /* \"DurianContract.sol\":622:628  staffs */\n      0x01\n        /* \"DurianContract.sol\":629:630  i */\n      dup2\n        /* \"DurianContract.sol\":622:631  staffs[i] */\n      dup2\n      sload\n      dup2\n      lt\n      tag_109\n      jumpi\n      mstore(0x00, 0x4e487b7100000000000000000000000000000000000000000000000000000000)\n      mstore(0x04, 0x32)\n      revert(0x00, 0x24)\n    tag_109:\n      swap1\n      0x00\n      mstore\n      keccak256(0x00, 0x20)\n      swap1\n      0x04\n      mul\n      add\n        /* \"DurianContract.sol\":622:644  staffs[i].staffAddress */\n      0x00\n      add\n      0x00\n      swap1\n      sload\n      swap1\n      0x0100\n      exp\n      swap1\n      div\n      0xffffffffffffffffffffffffffffffffffffffff\n      and\n        /* \"DurianContract.sol\":605:644  addressofStaff = staffs[i].staffAddress */\n      swap2\n      pop\n        /* \"DurianContract.sol\":662:667  break */\n      jump(tag_103)\n        /* \"DurianContract.sol\":545:682  if (staffs[i].staffAddress == msg.sender) {... */\n    tag_108:\n        /* \"DurianContract.sol\":402:405  i-- */\n      dup1\n      dup1\n      tag_111\n      swap1\n      tag_112\n      jump\t// in\n    tag_111:\n      swap2\n      pop\n      pop\n        /* \"DurianContract.sol\":362:692  for (uint256 i = staffs.length; i == 0; i--) {... */\n      jump(tag_102)\n    tag_103:\n      pop\n        /* \"DurianContract.sol\":723:737  addressofStaff */\n      dup1\n        /* \"DurianContract.sol\":709:737  msg.sender == addressofStaff */\n      0xffffffffffffffffffffffffffffffffffffffff\n      and\n        /* \"DurianContract.sol\":709:719  msg.sender */\n      caller\n        /* \"DurianContract.sol\":709:737  msg.sender == addressofStaff */\n      0xffffffffffffffffffffffffffffffffffffffff\n      and\n      eq\n        /* \"DurianContract.sol\":701:738  require(msg.sender == addressofStaff) */\n      tag_113\n      jumpi\n      0x00\n      dup1\n      revert\n    tag_113:\n        /* \"DurianContract.sol\":2890:2897  durians */\n      0x02\n        /* \"DurianContract.sol\":2916:3262  Durian(... */\n      mload(0x40)\n      dup1\n      0x0180\n      add\n      0x40\n      mstore\n      dup1\n        /* \"DurianContract.sol\":2940:2942  id */\n      dup11\n        /* \"DurianContract.sol\":2916:3262  Durian(... */\n      dup2\n      mstore\n      0x20\n      add\n        /* \"DurianContract.sol\":2960:2967  species */\n      dup10\n        /* \"DurianContract.sol\":2916:3262  Durian(... */\n      dup2\n      mstore\n      0x20\n      add\n        /* \"DurianContract.sol\":2985:2991  weight */\n      dup9\n        /* \"DurianContract.sol\":2916:3262  Durian(... */\n      dup2\n      mstore\n      0x20\n      add\n        /* \"DurianContract.sol\":3009:3028  harvested_date_time */\n      dup8\n        /* \"DurianContract.sol\":2916:3262  Durian(... */\n      dup2\n      mstore\n      0x20\n      add\n        /* \"DurianContract.sol\":3046:3058  harvested_by */\n      dup7\n        /* \"DurianContract.sol\":2916:3262  Durian(... */\n      0xffffffffffffffffffffffffffffffffffffffff\n      and\n      dup2\n      mstore\n      0x20\n      add\n        /* \"DurianContract.sol\":3076:3088  harvest_tree */\n      dup6\n        /* \"DurianContract.sol\":2916:3262  Durian(... */\n      dup2\n      mstore\n      0x20\n      add\n        /* \"DurianContract.sol\":3106:3118  harvest_farm */\n      dup5\n        /* \"DurianContract.sol\":2916:3262  Durian(... */\n      dup2\n      mstore\n      0x20\n      add\n        /* \"DurianContract.sol\":3136:3146  msg.sender */\n      caller\n        /* \"DurianContract.sol\":2916:3262  Durian(... */\n      0xffffffffffffffffffffffffffffffffffffffff\n      and\n      dup2\n      mstore\n      0x20\n      add\n        /* \"DurianContract.sol\":3164:3177  defaultDurian */\n      0x03\n        /* \"DurianContract.sol\":2916:3262  Durian(... */\n      mload(0x40)\n      dup1\n      0xc0\n      add\n      0x40\n      mstore\n      swap1\n      dup2\n      0x00\n      dup3\n      add\n      dup1\n      sload\n      tag_115\n      swap1\n      tag_73\n      jump\t// in\n    tag_115:\n      dup1\n      0x1f\n      add\n      0x20\n      dup1\n      swap2\n      div\n      mul\n      0x20\n      add\n      mload(0x40)\n      swap1\n      dup2\n      add\n      0x40\n      mstore\n      dup1\n      swap3\n      swap2\n      swap1\n      dup2\n      dup2\n      mstore\n      0x20\n      add\n      dup3\n      dup1\n      sload\n      tag_116\n      swap1\n      tag_73\n      jump\t// in\n    tag_116:\n      dup1\n      iszero\n      tag_117\n      jumpi\n      dup1\n      0x1f\n      lt\n      tag_118\n      jumpi\n      0x0100\n      dup1\n      dup4\n      sload\n      div\n      mul\n      dup4\n      mstore\n      swap2\n      0x20\n      add\n      swap2\n      jump(tag_117)\n    tag_118:\n      dup3\n      add\n      swap2\n      swap1\n      0x00\n      mstore\n      keccak256(0x00, 0x20)\n      swap1\n    tag_119:\n      dup2\n      sload\n      dup2\n      mstore\n      swap1\n      0x01\n      add\n      swap1\n      0x20\n      add\n      dup1\n      dup4\n      gt\n      tag_119\n      jumpi\n      dup3\n      swap1\n      sub\n      0x1f\n      and\n      dup3\n      add\n      swap2\n    tag_117:\n      pop\n      pop\n      pop\n      pop\n      pop\n      dup2\n      mstore\n      0x20\n      add\n      0x01\n      dup3\n      add\n      dup1\n      sload\n      tag_120\n      swap1\n      tag_73\n      jump\t// in\n    tag_120:\n      dup1\n      0x1f\n      add\n      0x20\n      dup1\n      swap2\n      div\n      mul\n      0x20\n      add\n      mload(0x40)\n      swap1\n      dup2\n      add\n      0x40\n      mstore\n      dup1\n      swap3\n      swap2\n      swap1\n      dup2\n      dup2\n      mstore\n      0x20\n      add\n      dup3\n      dup1\n      sload\n      tag_121\n      swap1\n      tag_73\n      jump\t// in\n    tag_121:\n      dup1\n      iszero\n      tag_122\n      jumpi\n      dup1\n      0x1f\n      lt\n      tag_123\n      jumpi\n      0x0100\n      dup1\n      dup4\n      sload\n      div\n      mul\n      dup4\n      mstore\n      swap2\n      0x20\n      add\n      swap2\n      jump(tag_122)\n    tag_123:\n      dup3\n      add\n      swap2\n      swap1\n      0x00\n      mstore\n      keccak256(0x00, 0x20)\n      swap1\n    tag_124:\n      dup2\n      sload\n      dup2\n      mstore\n      swap1\n      0x01\n      add\n      swap1\n      0x20\n      add\n      dup1\n      dup4\n      gt\n      tag_124\n      jumpi\n      dup3\n      swap1\n      sub\n      0x1f\n      and\n      dup3\n      add\n      swap2\n    tag_122:\n      pop\n      pop\n      pop\n      pop\n      pop\n      dup2\n      mstore\n      0x20\n      add\n      0x02\n      dup3\n      add\n      0x00\n      swap1\n      sload\n      swap1\n      0x0100\n      exp\n      swap1\n      div\n      0xff\n      and\n      0x04\n      dup2\n      gt\n      iszero\n      tag_125\n      jumpi\n      mstore(0x00, 0x4e487b7100000000000000000000000000000000000000000000000000000000)\n      mstore(0x04, 0x21)\n      revert(0x00, 0x24)\n    tag_125:\n      0x04\n      dup2\n      gt\n      iszero\n      tag_126\n      jumpi\n      mstore(0x00, 0x4e487b7100000000000000000000000000000000000000000000000000000000)\n      mstore(0x04, 0x21)\n      revert(0x00, 0x24)\n    tag_126:\n      dup2\n      mstore\n      0x20\n      add\n      0x02\n      dup3\n      add\n      0x01\n      swap1\n      sload\n      swap1\n      0x0100\n      exp\n      swap1\n      div\n      0xff\n      and\n      0x04\n      dup2\n      gt\n      iszero\n      tag_127\n      jumpi\n      mstore(0x00, 0x4e487b7100000000000000000000000000000000000000000000000000000000)\n      mstore(0x04, 0x21)\n      revert(0x00, 0x24)\n    tag_127:\n      0x04\n      dup2\n      gt\n      iszero\n      tag_128\n      jumpi\n      mstore(0x00, 0x4e487b7100000000000000000000000000000000000000000000000000000000)\n      mstore(0x04, 0x21)\n      revert(0x00, 0x24)\n    tag_128:\n      dup2\n      mstore\n      0x20\n      add\n      0x02\n      dup3\n      add\n      0x02\n      swap1\n      sload\n      swap1\n      0x0100\n      exp\n      swap1\n      div\n      0xff\n      and\n      0x04\n      dup2\n      gt\n      iszero\n      tag_129\n      jumpi\n      mstore(0x00, 0x4e487b7100000000000000000000000000000000000000000000000000000000)\n      mstore(0x04, 0x21)\n      revert(0x00, 0x24)\n    tag_129:\n      0x04\n      dup2\n      gt\n      iszero\n      tag_130\n      jumpi\n      mstore(0x00, 0x4e487b7100000000000000000000000000000000000000000000000000000000)\n      mstore(0x04, 0x21)\n      revert(0x00, 0x24)\n    tag_130:\n      dup2\n      mstore\n      0x20\n      add\n      0x02\n      dup3\n      add\n      0x03\n      swap1\n      sload\n      swap1\n      0x0100\n      exp\n      swap1\n      div\n      0xff\n      and\n      0x04\n      dup2\n      gt\n      iszero\n      tag_131\n      jumpi\n      mstore(0x00, 0x4e487b7100000000000000000000000000000000000000000000000000000000)\n      mstore(0x04, 0x21)\n      revert(0x00, 0x24)\n    tag_131:\n      0x04\n      dup2\n      gt\n      iszero\n      tag_132\n      jumpi\n      mstore(0x00, 0x4e487b7100000000000000000000000000000000000000000000000000000000)\n      mstore(0x04, 0x21)\n      revert(0x00, 0x24)\n    tag_132:\n      dup2\n      mstore\n      pop\n      pop\n      dup2\n      mstore\n      0x20\n      add\n      mload(0x40)\n      dup1\n      0x40\n      add\n      0x40\n      mstore\n      dup1\n      0x04\n      dup2\n      mstore\n      0x20\n      add\n      0x6661726d00000000000000000000000000000000000000000000000000000000\n      dup2\n      mstore\n      pop\n      dup2\n      mstore\n      0x20\n      add\n        /* \"DurianContract.sol\":3219:3224  false */\n      0x00\n        /* \"DurianContract.sol\":2916:3262  Durian(... */\n      iszero\n      iszero\n      dup2\n      mstore\n      0x20\n      add\n      mload(0x40)\n      dup1\n      0x40\n      add\n      0x40\n      mstore\n      dup1\n      0x04\n      dup2\n      mstore\n      0x20\n      add\n      0x676f6f6400000000000000000000000000000000000000000000000000000000\n      dup2\n      mstore\n      pop\n      dup2\n      mstore\n      pop\n        /* \"DurianContract.sol\":2890:3272  durians.push(... */\n      swap1\n      dup1\n      0x01\n      dup2\n      sload\n      add\n      dup1\n      dup3\n      sstore\n      dup1\n      swap2\n      pop\n      pop\n      0x01\n      swap1\n      sub\n      swap1\n      0x00\n      mstore\n      keccak256(0x00, 0x20)\n      swap1\n      0x0e\n      mul\n      add\n      0x00\n      swap1\n      swap2\n      swap1\n      swap2\n      swap1\n      swap2\n      pop\n      0x00\n      dup3\n      add\n      mload\n      dup2\n      0x00\n      add\n      sstore\n      0x20\n      dup3\n      add\n      mload\n      dup2\n      0x01\n      add\n      sstore\n      0x40\n      dup3\n      add\n      mload\n      dup2\n      0x02\n      add\n      sstore\n      0x60\n      dup3\n      add\n      mload\n      dup2\n      0x03\n      add\n      sstore\n      0x80\n      dup3\n      add\n      mload\n      dup2\n      0x04\n      add\n      exp(0x0100, 0x00)\n      dup2\n      sload\n      dup2\n      0xffffffffffffffffffffffffffffffffffffffff\n      mul\n      not\n      and\n      swap1\n      dup4\n      0xffffffffffffffffffffffffffffffffffffffff\n      and\n      mul\n      or\n      swap1\n      sstore\n      pop\n      0xa0\n      dup3\n      add\n      mload\n      dup2\n      0x05\n      add\n      sstore\n      0xc0\n      dup3\n      add\n      mload\n      dup2\n      0x06\n      add\n      sstore\n      0xe0\n      dup3\n      add\n      mload\n      dup2\n      0x07\n      add\n      exp(0x0100, 0x00)\n      dup2\n      sload\n      dup2\n      0xffffffffffffffffffffffffffffffffffffffff\n      mul\n      not\n      and\n      swap1\n      dup4\n      0xffffffffffffffffffffffffffffffffffffffff\n      and\n      mul\n      or\n      swap1\n      sstore\n      pop\n      0x0100\n      dup3\n      add\n      mload\n      dup2\n      0x08\n      add\n      0x00\n      dup3\n      add\n      mload\n      dup2\n      0x00\n      add\n      swap1\n      dup1\n      mload\n      swap1\n      0x20\n      add\n      swap1\n      tag_134\n      swap3\n      swap2\n      swap1\n      tag_135\n      jump\t// in\n    tag_134:\n      pop\n      0x20\n      dup3\n      add\n      mload\n      dup2\n      0x01\n      add\n      swap1\n      dup1\n      mload\n      swap1\n      0x20\n      add\n      swap1\n      tag_136\n      swap3\n      swap2\n      swap1\n      tag_135\n      jump\t// in\n    tag_136:\n      pop\n      0x40\n      dup3\n      add\n      mload\n      dup2\n      0x02\n      add\n      exp(0x0100, 0x00)\n      dup2\n      sload\n      dup2\n      0xff\n      mul\n      not\n      and\n      swap1\n      dup4\n      0x04\n      dup2\n      gt\n      iszero\n      tag_137\n      jumpi\n      mstore(0x00, 0x4e487b7100000000000000000000000000000000000000000000000000000000)\n      mstore(0x04, 0x21)\n      revert(0x00, 0x24)\n    tag_137:\n      mul\n      or\n      swap1\n      sstore\n      pop\n      0x60\n      dup3\n      add\n      mload\n      dup2\n      0x02\n      add\n      exp(0x0100, 0x01)\n      dup2\n      sload\n      dup2\n      0xff\n      mul\n      not\n      and\n      swap1\n      dup4\n      0x04\n      dup2\n      gt\n      iszero\n      tag_138\n      jumpi\n      mstore(0x00, 0x4e487b7100000000000000000000000000000000000000000000000000000000)\n      mstore(0x04, 0x21)\n      revert(0x00, 0x24)\n    tag_138:\n      mul\n      or\n      swap1\n      sstore\n      pop\n      0x80\n      dup3\n      add\n      mload\n      dup2\n      0x02\n      add\n      exp(0x0100, 0x02)\n      dup2\n      sload\n      dup2\n      0xff\n      mul\n      not\n      and\n      swap1\n      dup4\n      0x04\n      dup2\n      gt\n      iszero\n      tag_139\n      jumpi\n      mstore(0x00, 0x4e487b7100000000000000000000000000000000000000000000000000000000)\n      mstore(0x04, 0x21)\n      revert(0x00, 0x24)\n    tag_139:\n      mul\n      or\n      swap1\n      sstore\n      pop\n      0xa0\n      dup3\n      add\n      mload\n      dup2\n      0x02\n      add\n      exp(0x0100, 0x03)\n      dup2\n      sload\n      dup2\n      0xff\n      mul\n      not\n      and\n      swap1\n      dup4\n      0x04\n      dup2\n      gt\n      iszero\n      tag_140\n      jumpi\n      mstore(0x00, 0x4e487b7100000000000000000000000000000000000000000000000000000000)\n      mstore(0x04, 0x21)\n      revert(0x00, 0x24)\n    tag_140:\n      mul\n      or\n      swap1\n      sstore\n      pop\n      pop\n      pop\n      0x0120\n      dup3\n      add\n      mload\n      dup2\n      0x0b\n      add\n      swap1\n      dup1\n      mload\n      swap1\n      0x20\n      add\n      swap1\n      tag_141\n      swap3\n      swap2\n      swap1\n      tag_135\n      jump\t// in\n    tag_141:\n      pop\n      0x0140\n      dup3\n      add\n      mload\n      dup2\n      0x0c\n      add\n      exp(0x0100, 0x00)\n      dup2\n      sload\n      dup2\n      0xff\n      mul\n      not\n      and\n      swap1\n      dup4\n      iszero\n      iszero\n      mul\n      or\n      swap1\n      sstore\n      pop\n      0x0160\n      dup3\n      add\n      mload\n      dup2\n      0x0d\n      add\n      swap1\n      dup1\n      mload\n      swap1\n      0x20\n      add\n      swap1\n      tag_142\n      swap3\n      swap2\n      swap1\n      tag_135\n      jump\t// in\n    tag_142:\n      pop\n      pop\n      pop\n        /* \"DurianContract.sol\":2638:3279  function addDurian(... */\n      pop\n      pop\n      pop\n      pop\n      pop\n      pop\n      pop\n      pop\n      jump\t// out\n        /* \"DurianContract.sol\":2175:2606  function addStaff(... */\n    tag_32:\n        /* \"DurianContract.sol\":2329:2338  ownerFarm */\n      0x00\n      dup1\n      sload\n      swap1\n      0x0100\n      exp\n      swap1\n      div\n      0xffffffffffffffffffffffffffffffffffffffff\n      and\n        /* \"DurianContract.sol\":233:241  _account */\n      dup1\n        /* \"DurianContract.sol\":219:241  msg.sender == _account */\n      0xffffffffffffffffffffffffffffffffffffffff\n      and\n        /* \"DurianContract.sol\":219:229  msg.sender */\n      caller\n        /* \"DurianContract.sol\":219:241  msg.sender == _account */\n      0xffffffffffffffffffffffffffffffffffffffff\n      and\n      eq\n        /* \"DurianContract.sol\":211:242  require(msg.sender == _account) */\n      tag_144\n      jumpi\n      0x00\n      dup1\n      revert\n    tag_144:\n        /* \"DurianContract.sol\":2355:2364  uint256 i */\n      0x00\n        /* \"DurianContract.sol\":2367:2376  newstaffs */\n      dup6\n        /* \"DurianContract.sol\":2367:2383  newstaffs.length */\n      mload\n        /* \"DurianContract.sol\":2355:2383  uint256 i = newstaffs.length */\n      swap1\n      pop\n        /* \"DurianContract.sol\":2350:2600  for (uint256 i = newstaffs.length; i == 0; i--) {... */\n    tag_146:\n        /* \"DurianContract.sol\":2390:2391  0 */\n      0x00\n        /* \"DurianContract.sol\":2385:2386  i */\n      dup2\n        /* \"DurianContract.sol\":2385:2391  i == 0 */\n      eq\n        /* \"DurianContract.sol\":2350:2600  for (uint256 i = newstaffs.length; i == 0; i--) {... */\n      iszero\n      tag_147\n      jumpi\n        /* \"DurianContract.sol\":2412:2418  staffs */\n      0x01\n        /* \"DurianContract.sol\":2441:2575  Staff(... */\n      mload(0x40)\n      dup1\n      0x80\n      add\n      0x40\n      mstore\n      dup1\n        /* \"DurianContract.sol\":2468:2477  newstaffs */\n      dup9\n        /* \"DurianContract.sol\":2478:2479  i */\n      dup5\n        /* \"DurianContract.sol\":2468:2480  newstaffs[i] */\n      dup2\n      mload\n      dup2\n      lt\n      tag_149\n      jumpi\n      mstore(0x00, 0x4e487b7100000000000000000000000000000000000000000000000000000000)\n      mstore(0x04, 0x32)\n      revert(0x00, 0x24)\n    tag_149:\n      0x20\n      mul\n      0x20\n      add\n      add\n      mload\n        /* \"DurianContract.sol\":2441:2575  Staff(... */\n      0xffffffffffffffffffffffffffffffffffffffff\n      and\n      dup2\n      mstore\n      0x20\n      add\n        /* \"DurianContract.sol\":2502:2504  id */\n      dup8\n        /* \"DurianContract.sol\":2441:2575  Staff(... */\n      dup2\n      mstore\n      0x20\n      add\n        /* \"DurianContract.sol\":2526:2530  name */\n      dup7\n        /* \"DurianContract.sol\":2441:2575  Staff(... */\n      dup2\n      mstore\n      0x20\n      add\n        /* \"DurianContract.sol\":2552:2557  title */\n      dup6\n        /* \"DurianContract.sol\":2441:2575  Staff(... */\n      dup2\n      mstore\n      pop\n        /* \"DurianContract.sol\":2412:2589  staffs.push(... */\n      swap1\n      dup1\n      0x01\n      dup2\n      sload\n      add\n      dup1\n      dup3\n      sstore\n      dup1\n      swap2\n      pop\n      pop\n      0x01\n      swap1\n      sub\n      swap1\n      0x00\n      mstore\n      keccak256(0x00, 0x20)\n      swap1\n      0x04\n      mul\n      add\n      0x00\n      swap1\n      swap2\n      swap1\n      swap2\n      swap1\n      swap2\n      pop\n      0x00\n      dup3\n      add\n      mload\n      dup2\n      0x00\n      add\n      exp(0x0100, 0x00)\n      dup2\n      sload\n      dup2\n      0xffffffffffffffffffffffffffffffffffffffff\n      mul\n      not\n      and\n      swap1\n      dup4\n      0xffffffffffffffffffffffffffffffffffffffff\n      and\n      mul\n      or\n      swap1\n      sstore\n      pop\n      0x20\n      dup3\n      add\n      mload\n      dup2\n      0x01\n      add\n      sstore\n      0x40\n      dup3\n      add\n      mload\n      dup2\n      0x02\n      add\n      swap1\n      dup1\n      mload\n      swap1\n      0x20\n      add\n      swap1\n      tag_151\n      swap3\n      swap2\n      swap1\n      tag_135\n      jump\t// in\n    tag_151:\n      pop\n      0x60\n      dup3\n      add\n      mload\n      dup2\n      0x03\n      add\n      swap1\n      dup1\n      mload\n      swap1\n      0x20\n      add\n      swap1\n      tag_152\n      swap3\n      swap2\n      swap1\n      tag_135\n      jump\t// in\n    tag_152:\n      pop\n      pop\n      pop\n        /* \"DurianContract.sol\":2393:2396  i-- */\n      dup1\n      dup1\n      tag_153\n      swap1\n      tag_112\n      jump\t// in\n    tag_153:\n      swap2\n      pop\n      pop\n        /* \"DurianContract.sol\":2350:2600  for (uint256 i = newstaffs.length; i == 0; i--) {... */\n      jump(tag_146)\n    tag_147:\n      pop\n        /* \"DurianContract.sol\":2175:2606  function addStaff(... */\n      pop\n      pop\n      pop\n      pop\n      pop\n      jump\t// out\n        /* \"DurianContract.sol\":1182:1203  Staff[] public staffs */\n    tag_35:\n      0x01\n      dup2\n      dup2\n      sload\n      dup2\n      lt\n      tag_154\n      jumpi\n      0x00\n      dup1\n      revert\n    tag_154:\n      swap1\n      0x00\n      mstore\n      keccak256(0x00, 0x20)\n      swap1\n      0x04\n      mul\n      add\n      0x00\n      swap2\n      pop\n      swap1\n      pop\n      dup1\n      0x00\n      add\n      0x00\n      swap1\n      sload\n      swap1\n      0x0100\n      exp\n      swap1\n      div\n      0xffffffffffffffffffffffffffffffffffffffff\n      and\n      swap1\n      dup1\n      0x01\n      add\n      sload\n      swap1\n      dup1\n      0x02\n      add\n      dup1\n      sload\n      tag_156\n      swap1\n      tag_73\n      jump\t// in\n    tag_156:\n      dup1\n      0x1f\n      add\n      0x20\n      dup1\n      swap2\n      div\n      mul\n      0x20\n      add\n      mload(0x40)\n      swap1\n      dup2\n      add\n      0x40\n      mstore\n      dup1\n      swap3\n      swap2\n      swap1\n      dup2\n      dup2\n      mstore\n      0x20\n      add\n      dup3\n      dup1\n      sload\n      tag_157\n      swap1\n      tag_73\n      jump\t// in\n    tag_157:\n      dup1\n      iszero\n      tag_158\n      jumpi\n      dup1\n      0x1f\n      lt\n      tag_159\n      jumpi\n      0x0100\n      dup1\n      dup4\n      sload\n      div\n      mul\n      dup4\n      mstore\n      swap2\n      0x20\n      add\n      swap2\n      jump(tag_158)\n    tag_159:\n      dup3\n      add\n      swap2\n      swap1\n      0x00\n      mstore\n      keccak256(0x00, 0x20)\n      swap1\n    tag_160:\n      dup2\n      sload\n      dup2\n      mstore\n      swap1\n      0x01\n      add\n      swap1\n      0x20\n      add\n      dup1\n      dup4\n      gt\n      tag_160\n      jumpi\n      dup3\n      swap1\n      sub\n      0x1f\n      and\n      dup3\n      add\n      swap2\n    tag_158:\n      pop\n      pop\n      pop\n      pop\n      pop\n      swap1\n      dup1\n      0x03\n      add\n      dup1\n      sload\n      tag_161\n      swap1\n      tag_73\n      jump\t// in\n    tag_161:\n      dup1\n      0x1f\n      add\n      0x20\n      dup1\n      swap2\n      div\n      mul\n      0x20\n      add\n      mload(0x40)\n      swap1\n      dup2\n      add\n      0x40\n      mstore\n      dup1\n      swap3\n      swap2\n      swap1\n      dup2\n      dup2\n      mstore\n      0x20\n      add\n      dup3\n      dup1\n      sload\n      tag_162\n      swap1\n      tag_73\n      jump\t// in\n    tag_162:\n      dup1\n      iszero\n      tag_163\n      jumpi\n      dup1\n      0x1f\n      lt\n      tag_164\n      jumpi\n      0x0100\n      dup1\n      dup4\n      sload\n      div\n      mul\n      dup4\n      mstore\n      swap2\n      0x20\n      add\n      swap2\n      jump(tag_163)\n    tag_164:\n      dup3\n      add\n      swap2\n      swap1\n      0x00\n      mstore\n      keccak256(0x00, 0x20)\n      swap1\n    tag_165:\n      dup2\n      sload\n      dup2\n      mstore\n      swap1\n      0x01\n      add\n      swap1\n      0x20\n      add\n      dup1\n      dup4\n      gt\n      tag_165\n      jumpi\n      dup3\n      swap1\n      sub\n      0x1f\n      and\n      dup3\n      add\n      swap2\n    tag_163:\n      pop\n      pop\n      pop\n      pop\n      pop\n      swap1\n      pop\n      dup5\n      jump\t// out\n        /* \"DurianContract.sol\":4164:4467  function soldDurians (... */\n    tag_41:\n        /* \"DurianContract.sol\":4251:4264  string memory */\n      0x60\n        /* \"DurianContract.sol\":4280:4318  compare(durians[id].status, \"damaged\") */\n      tag_167\n        /* \"DurianContract.sol\":4288:4295  durians */\n      0x02\n        /* \"DurianContract.sol\":4296:4298  id */\n      dup4\n        /* \"DurianContract.sol\":4288:4299  durians[id] */\n      dup2\n      sload\n      dup2\n      lt\n      tag_168\n      jumpi\n      mstore(0x00, 0x4e487b7100000000000000000000000000000000000000000000000000000000)\n      mstore(0x04, 0x32)\n      revert(0x00, 0x24)\n    tag_168:\n      swap1\n      0x00\n      mstore\n      keccak256(0x00, 0x20)\n      swap1\n      0x0e\n      mul\n      add\n        /* \"DurianContract.sol\":4288:4306  durians[id].status */\n      0x0d\n      add\n        /* \"DurianContract.sol\":4280:4318  compare(durians[id].status, \"damaged\") */\n      dup1\n      sload\n      tag_170\n      swap1\n      tag_73\n      jump\t// in\n    tag_170:\n      dup1\n      0x1f\n      add\n      0x20\n      dup1\n      swap2\n      div\n      mul\n      0x20\n      add\n      mload(0x40)\n      swap1\n      dup2\n      add\n      0x40\n      mstore\n      dup1\n      swap3\n      swap2\n      swap1\n      dup2\n      dup2\n      mstore\n      0x20\n      add\n      dup3\n      dup1\n      sload\n      tag_171\n      swap1\n      tag_73\n      jump\t// in\n    tag_171:\n      dup1\n      iszero\n      tag_172\n      jumpi\n      dup1\n      0x1f\n      lt\n      tag_173\n      jumpi\n      0x0100\n      dup1\n      dup4\n      sload\n      div\n      mul\n      dup4\n      mstore\n      swap2\n      0x20\n      add\n      swap2\n      jump(tag_172)\n    tag_173:\n      dup3\n      add\n      swap2\n      swap1\n      0x00\n      mstore\n      keccak256(0x00, 0x20)\n      swap1\n    tag_174:\n      dup2\n      sload\n      dup2\n      mstore\n      swap1\n      0x01\n      add\n      swap1\n      0x20\n      add\n      dup1\n      dup4\n      gt\n      tag_174\n      jumpi\n      dup3\n      swap1\n      sub\n      0x1f\n      and\n      dup3\n      add\n      swap2\n    tag_172:\n      pop\n      pop\n      pop\n      pop\n      pop\n      mload(0x40)\n      dup1\n      0x40\n      add\n      0x40\n      mstore\n      dup1\n      0x07\n      dup2\n      mstore\n      0x20\n      add\n      0x64616d6167656400000000000000000000000000000000000000000000000000\n      dup2\n      mstore\n      pop\n        /* \"DurianContract.sol\":4280:4287  compare */\n      tag_175\n        /* \"DurianContract.sol\":4280:4318  compare(durians[id].status, \"damaged\") */\n      jump\t// in\n    tag_167:\n        /* \"DurianContract.sol\":4276:4397  if (compare(durians[id].status, \"damaged\")) {... */\n      iszero\n      tag_176\n      jumpi\n        /* \"DurianContract.sol\":4334:4386  return \"durian damaged please select another durian\" */\n      mload(0x40)\n      dup1\n      0x60\n      add\n      0x40\n      mstore\n      dup1\n      0x2b\n      dup2\n      mstore\n      0x20\n      add\n      data_2fe1bde1b84b10ebdbd3bbdfaafe37aec8f7c7d7968d28514693b7e0a6268ba1\n      0x2b\n      swap2\n      codecopy\n      swap1\n      pop\n      jump(tag_166)\n        /* \"DurianContract.sol\":4276:4397  if (compare(durians[id].status, \"damaged\")) {... */\n    tag_176:\n        /* \"DurianContract.sol\":4426:4431  buyer */\n      dup3\n        /* \"DurianContract.sol\":4406:4413  durians */\n      0x02\n        /* \"DurianContract.sol\":4414:4416  id */\n      dup4\n        /* \"DurianContract.sol\":4406:4417  durians[id] */\n      dup2\n      sload\n      dup2\n      lt\n      tag_177\n      jumpi\n      mstore(0x00, 0x4e487b7100000000000000000000000000000000000000000000000000000000)\n      mstore(0x04, 0x32)\n      revert(0x00, 0x24)\n    tag_177:\n      swap1\n      0x00\n      mstore\n      keccak256(0x00, 0x20)\n      swap1\n      0x0e\n      mul\n      add\n        /* \"DurianContract.sol\":4406:4423  durians[id].owner */\n      0x07\n      add\n      0x00\n        /* \"DurianContract.sol\":4406:4431  durians[id].owner = buyer */\n      0x0100\n      exp\n      dup2\n      sload\n      dup2\n      0xffffffffffffffffffffffffffffffffffffffff\n      mul\n      not\n      and\n      swap1\n      dup4\n      0xffffffffffffffffffffffffffffffffffffffff\n      and\n      mul\n      or\n      swap1\n      sstore\n      pop\n        /* \"DurianContract.sol\":4441:4460  return \"successful\" */\n      mload(0x40)\n      dup1\n      0x40\n      add\n      0x40\n      mstore\n      dup1\n      0x0a\n      dup2\n      mstore\n      0x20\n      add\n      0x7375636365737366756c00000000000000000000000000000000000000000000\n      dup2\n      mstore\n      pop\n      swap1\n      pop\n        /* \"DurianContract.sol\":4164:4467  function soldDurians (... */\n    tag_166:\n      swap3\n      swap2\n      pop\n      pop\n      jump\t// out\n        /* \"DurianContract.sol\":4565:4660  function getTotalDurians() public view returns (uint256) {... */\n    tag_45:\n        /* \"DurianContract.sol\":4613:4620  uint256 */\n      0x00\n        /* \"DurianContract.sol\":4639:4646  durians */\n      0x02\n        /* \"DurianContract.sol\":4639:4653  durians.length */\n      dup1\n      sload\n      swap1\n      pop\n        /* \"DurianContract.sol\":4632:4653  return durians.length */\n      swap1\n      pop\n        /* \"DurianContract.sol\":4565:4660  function getTotalDurians() public view returns (uint256) {... */\n      swap1\n      jump\t// out\n        /* \"DurianContract.sol\":4820:4907  function getOwnerAdd() external view returns (address){... */\n    tag_49:\n        /* \"DurianContract.sol\":4866:4873  address */\n      0x00\n        /* \"DurianContract.sol\":4891:4900  ownerFarm */\n      dup1\n      0x00\n      swap1\n      sload\n      swap1\n      0x0100\n      exp\n      swap1\n      div\n      0xffffffffffffffffffffffffffffffffffffffff\n      and\n        /* \"DurianContract.sol\":4884:4900  return ownerFarm */\n      swap1\n      pop\n        /* \"DurianContract.sol\":4820:4907  function getOwnerAdd() external view returns (address){... */\n      swap1\n      jump\t// out\n        /* \"DurianContract.sol\":3748:4106  function receiveDurians(... */\n    tag_54:\n        /* \"DurianContract.sol\":3893:3897  bool */\n      0x00\n        /* \"DurianContract.sol\":330:352  address addressofStaff */\n      dup1\n        /* \"DurianContract.sol\":367:376  uint256 i */\n      0x00\n        /* \"DurianContract.sol\":379:385  staffs */\n      0x01\n        /* \"DurianContract.sol\":379:392  staffs.length */\n      dup1\n      sload\n      swap1\n      pop\n        /* \"DurianContract.sol\":367:392  uint256 i = staffs.length */\n      swap1\n      pop\n        /* \"DurianContract.sol\":362:692  for (uint256 i = staffs.length; i == 0; i--) {... */\n    tag_182:\n        /* \"DurianContract.sol\":399:400  0 */\n      0x00\n        /* \"DurianContract.sol\":394:395  i */\n      dup2\n        /* \"DurianContract.sol\":394:400  i == 0 */\n      eq\n        /* \"DurianContract.sol\":362:692  for (uint256 i = staffs.length; i == 0; i--) {... */\n      iszero\n      tag_183\n      jumpi\n        /* \"DurianContract.sol\":439:448  ownerFarm */\n      0x00\n      dup1\n      sload\n      swap1\n      0x0100\n      exp\n      swap1\n      div\n      0xffffffffffffffffffffffffffffffffffffffff\n      and\n        /* \"DurianContract.sol\":425:448  msg.sender == ownerFarm */\n      0xffffffffffffffffffffffffffffffffffffffff\n      and\n        /* \"DurianContract.sol\":425:435  msg.sender */\n      caller\n        /* \"DurianContract.sol\":425:448  msg.sender == ownerFarm */\n      0xffffffffffffffffffffffffffffffffffffffff\n      and\n      eq\n        /* \"DurianContract.sol\":421:532  if (msg.sender == ownerFarm) {... */\n      iszero\n      tag_185\n      jumpi\n        /* \"DurianContract.sol\":485:494  ownerFarm */\n      0x00\n      dup1\n      sload\n      swap1\n      0x0100\n      exp\n      swap1\n      div\n      0xffffffffffffffffffffffffffffffffffffffff\n      and\n        /* \"DurianContract.sol\":468:494  addressofStaff = ownerFarm */\n      swap2\n      pop\n        /* \"DurianContract.sol\":512:517  break */\n      jump(tag_183)\n        /* \"DurianContract.sol\":421:532  if (msg.sender == ownerFarm) {... */\n    tag_185:\n        /* \"DurianContract.sol\":575:585  msg.sender */\n      caller\n        /* \"DurianContract.sol\":549:585  staffs[i].staffAddress == msg.sender */\n      0xffffffffffffffffffffffffffffffffffffffff\n      and\n        /* \"DurianContract.sol\":549:555  staffs */\n      0x01\n        /* \"DurianContract.sol\":556:557  i */\n      dup3\n        /* \"DurianContract.sol\":549:558  staffs[i] */\n      dup2\n      sload\n      dup2\n      lt\n      tag_186\n      jumpi\n      mstore(0x00, 0x4e487b7100000000000000000000000000000000000000000000000000000000)\n      mstore(0x04, 0x32)\n      revert(0x00, 0x24)\n    tag_186:\n      swap1\n      0x00\n      mstore\n      keccak256(0x00, 0x20)\n      swap1\n      0x04\n      mul\n      add\n        /* \"DurianContract.sol\":549:571  staffs[i].staffAddress */\n      0x00\n      add\n      0x00\n      swap1\n      sload\n      swap1\n      0x0100\n      exp\n      swap1\n      div\n      0xffffffffffffffffffffffffffffffffffffffff\n      and\n        /* \"DurianContract.sol\":549:585  staffs[i].staffAddress == msg.sender */\n      0xffffffffffffffffffffffffffffffffffffffff\n      and\n      eq\n        /* \"DurianContract.sol\":545:682  if (staffs[i].staffAddress == msg.sender) {... */\n      iszero\n      tag_188\n      jumpi\n        /* \"DurianContract.sol\":622:628  staffs */\n      0x01\n        /* \"DurianContract.sol\":629:630  i */\n      dup2\n        /* \"DurianContract.sol\":622:631  staffs[i] */\n      dup2\n      sload\n      dup2\n      lt\n      tag_189\n      jumpi\n      mstore(0x00, 0x4e487b7100000000000000000000000000000000000000000000000000000000)\n      mstore(0x04, 0x32)\n      revert(0x00, 0x24)\n    tag_189:\n      swap1\n      0x00\n      mstore\n      keccak256(0x00, 0x20)\n      swap1\n      0x04\n      mul\n      add\n        /* \"DurianContract.sol\":622:644  staffs[i].staffAddress */\n      0x00\n      add\n      0x00\n      swap1\n      sload\n      swap1\n      0x0100\n      exp\n      swap1\n      div\n      0xffffffffffffffffffffffffffffffffffffffff\n      and\n        /* \"DurianContract.sol\":605:644  addressofStaff = staffs[i].staffAddress */\n      swap2\n      pop\n        /* \"DurianContract.sol\":662:667  break */\n      jump(tag_183)\n        /* \"DurianContract.sol\":545:682  if (staffs[i].staffAddress == msg.sender) {... */\n    tag_188:\n        /* \"DurianContract.sol\":402:405  i-- */\n      dup1\n      dup1\n      tag_191\n      swap1\n      tag_112\n      jump\t// in\n    tag_191:\n      swap2\n      pop\n      pop\n        /* \"DurianContract.sol\":362:692  for (uint256 i = staffs.length; i == 0; i--) {... */\n      jump(tag_182)\n    tag_183:\n      pop\n        /* \"DurianContract.sol\":723:737  addressofStaff */\n      dup1\n        /* \"DurianContract.sol\":709:737  msg.sender == addressofStaff */\n      0xffffffffffffffffffffffffffffffffffffffff\n      and\n        /* \"DurianContract.sol\":709:719  msg.sender */\n      caller\n        /* \"DurianContract.sol\":709:737  msg.sender == addressofStaff */\n      0xffffffffffffffffffffffffffffffffffffffff\n      and\n      eq\n        /* \"DurianContract.sol\":701:738  require(msg.sender == addressofStaff) */\n      tag_192\n      jumpi\n      0x00\n      dup1\n      revert\n    tag_192:\n        /* \"DurianContract.sol\":3913:3955  compare(destination, durians[id].location) */\n      tag_194\n        /* \"DurianContract.sol\":3921:3932  destination */\n      dup5\n        /* \"DurianContract.sol\":3934:3941  durians */\n      0x02\n        /* \"DurianContract.sol\":3942:3944  id */\n      dup8\n        /* \"DurianContract.sol\":3934:3945  durians[id] */\n      dup2\n      sload\n      dup2\n      lt\n      tag_195\n      jumpi\n      mstore(0x00, 0x4e487b7100000000000000000000000000000000000000000000000000000000)\n      mstore(0x04, 0x32)\n      revert(0x00, 0x24)\n    tag_195:\n      swap1\n      0x00\n      mstore\n      keccak256(0x00, 0x20)\n      swap1\n      0x0e\n      mul\n      add\n        /* \"DurianContract.sol\":3934:3954  durians[id].location */\n      0x0b\n      add\n        /* \"DurianContract.sol\":3913:3955  compare(destination, durians[id].location) */\n      dup1\n      sload\n      tag_197\n      swap1\n      tag_73\n      jump\t// in\n    tag_197:\n      dup1\n      0x1f\n      add\n      0x20\n      dup1\n      swap2\n      div\n      mul\n      0x20\n      add\n      mload(0x40)\n      swap1\n      dup2\n      add\n      0x40\n      mstore\n      dup1\n      swap3\n      swap2\n      swap1\n      dup2\n      dup2\n      mstore\n      0x20\n      add\n      dup3\n      dup1\n      sload\n      tag_198\n      swap1\n      tag_73\n      jump\t// in\n    tag_198:\n      dup1\n      iszero\n      tag_199\n      jumpi\n      dup1\n      0x1f\n      lt\n      tag_200\n      jumpi\n      0x0100\n      dup1\n      dup4\n      sload\n      div\n      mul\n      dup4\n      mstore\n      swap2\n      0x20\n      add\n      swap2\n      jump(tag_199)\n    tag_200:\n      dup3\n      add\n      swap2\n      swap1\n      0x00\n      mstore\n      keccak256(0x00, 0x20)\n      swap1\n    tag_201:\n      dup2\n      sload\n      dup2\n      mstore\n      swap1\n      0x01\n      add\n      swap1\n      0x20\n      add\n      dup1\n      dup4\n      gt\n      tag_201\n      jumpi\n      dup3\n      swap1\n      sub\n      0x1f\n      and\n      dup3\n      add\n      swap2\n    tag_199:\n      pop\n      pop\n      pop\n      pop\n      pop\n        /* \"DurianContract.sol\":3913:3920  compare */\n      tag_175\n        /* \"DurianContract.sol\":3913:3955  compare(destination, durians[id].location) */\n      jump\t// in\n    tag_194:\n        /* \"DurianContract.sol\":3909:4078  if (compare(destination, durians[id].location)) {... */\n      iszero\n      tag_202\n      jumpi\n        /* \"DurianContract.sol\":3992:3998  status */\n      dup3\n        /* \"DurianContract.sol\":3971:3978  durians */\n      0x02\n        /* \"DurianContract.sol\":3979:3981  id */\n      dup7\n        /* \"DurianContract.sol\":3971:3982  durians[id] */\n      dup2\n      sload\n      dup2\n      lt\n      tag_203\n      jumpi\n      mstore(0x00, 0x4e487b7100000000000000000000000000000000000000000000000000000000)\n      mstore(0x04, 0x32)\n      revert(0x00, 0x24)\n    tag_203:\n      swap1\n      0x00\n      mstore\n      keccak256(0x00, 0x20)\n      swap1\n      0x0e\n      mul\n      add\n        /* \"DurianContract.sol\":3971:3989  durians[id].status */\n      0x0d\n      add\n        /* \"DurianContract.sol\":3971:3998  durians[id].status = status */\n      swap1\n      dup1\n      mload\n      swap1\n      0x20\n      add\n      swap1\n      tag_205\n      swap3\n      swap2\n      swap1\n      tag_135\n      jump\t// in\n    tag_205:\n      pop\n        /* \"DurianContract.sol\":4037:4042  false */\n      0x00\n        /* \"DurianContract.sol\":4012:4019  durians */\n      0x02\n        /* \"DurianContract.sol\":4020:4022  id */\n      dup7\n        /* \"DurianContract.sol\":4012:4023  durians[id] */\n      dup2\n      sload\n      dup2\n      lt\n      tag_206\n      jumpi\n      mstore(0x00, 0x4e487b7100000000000000000000000000000000000000000000000000000000)\n      mstore(0x04, 0x32)\n      revert(0x00, 0x24)\n    tag_206:\n      swap1\n      0x00\n      mstore\n      keccak256(0x00, 0x20)\n      swap1\n      0x0e\n      mul\n      add\n        /* \"DurianContract.sol\":4012:4034  durians[id].onDelivery */\n      0x0c\n      add\n      0x00\n        /* \"DurianContract.sol\":4012:4042  durians[id].onDelivery = false */\n      0x0100\n      exp\n      dup2\n      sload\n      dup2\n      0xff\n      mul\n      not\n      and\n      swap1\n      dup4\n      iszero\n      iszero\n      mul\n      or\n      swap1\n      sstore\n      pop\n        /* \"DurianContract.sol\":4063:4067  true */\n      0x01\n        /* \"DurianContract.sol\":4056:4067  return true */\n      swap2\n      pop\n      jump(tag_193)\n        /* \"DurianContract.sol\":3909:4078  if (compare(destination, durians[id].location)) {... */\n    tag_202:\n        /* \"DurianContract.sol\":4094:4099  false */\n      0x00\n        /* \"DurianContract.sol\":4087:4099  return false */\n      swap2\n      pop\n        /* \"DurianContract.sol\":748:749  _ */\n    tag_193:\n        /* \"DurianContract.sol\":3748:4106  function receiveDurians(... */\n      pop\n      swap4\n      swap3\n      pop\n      pop\n      pop\n      jump\t// out\n        /* \"DurianContract.sol\":3331:3703  function deliverDurian(... */\n    tag_60:\n        /* \"DurianContract.sol\":3482:3486  bool */\n      0x00\n        /* \"DurianContract.sol\":330:352  address addressofStaff */\n      dup1\n        /* \"DurianContract.sol\":367:376  uint256 i */\n      0x00\n        /* \"DurianContract.sol\":379:385  staffs */\n      0x01\n        /* \"DurianContract.sol\":379:392  staffs.length */\n      dup1\n      sload\n      swap1\n      pop\n        /* \"DurianContract.sol\":367:392  uint256 i = staffs.length */\n      swap1\n      pop\n        /* \"DurianContract.sol\":362:692  for (uint256 i = staffs.length; i == 0; i--) {... */\n    tag_209:\n        /* \"DurianContract.sol\":399:400  0 */\n      0x00\n        /* \"DurianContract.sol\":394:395  i */\n      dup2\n        /* \"DurianContract.sol\":394:400  i == 0 */\n      eq\n        /* \"DurianContract.sol\":362:692  for (uint256 i = staffs.length; i == 0; i--) {... */\n      iszero\n      tag_210\n      jumpi\n        /* \"DurianContract.sol\":439:448  ownerFarm */\n      0x00\n      dup1\n      sload\n      swap1\n      0x0100\n      exp\n      swap1\n      div\n      0xffffffffffffffffffffffffffffffffffffffff\n      and\n        /* \"DurianContract.sol\":425:448  msg.sender == ownerFarm */\n      0xffffffffffffffffffffffffffffffffffffffff\n      and\n        /* \"DurianContract.sol\":425:435  msg.sender */\n      caller\n        /* \"DurianContract.sol\":425:448  msg.sender == ownerFarm */\n      0xffffffffffffffffffffffffffffffffffffffff\n      and\n      eq\n        /* \"DurianContract.sol\":421:532  if (msg.sender == ownerFarm) {... */\n      iszero\n      tag_212\n      jumpi\n        /* \"DurianContract.sol\":485:494  ownerFarm */\n      0x00\n      dup1\n      sload\n      swap1\n      0x0100\n      exp\n      swap1\n      div\n      0xffffffffffffffffffffffffffffffffffffffff\n      and\n        /* \"DurianContract.sol\":468:494  addressofStaff = ownerFarm */\n      swap2\n      pop\n        /* \"DurianContract.sol\":512:517  break */\n      jump(tag_210)\n        /* \"DurianContract.sol\":421:532  if (msg.sender == ownerFarm) {... */\n    tag_212:\n        /* \"DurianContract.sol\":575:585  msg.sender */\n      caller\n        /* \"DurianContract.sol\":549:585  staffs[i].staffAddress == msg.sender */\n      0xffffffffffffffffffffffffffffffffffffffff\n      and\n        /* \"DurianContract.sol\":549:555  staffs */\n      0x01\n        /* \"DurianContract.sol\":556:557  i */\n      dup3\n        /* \"DurianContract.sol\":549:558  staffs[i] */\n      dup2\n      sload\n      dup2\n      lt\n      tag_213\n      jumpi\n      mstore(0x00, 0x4e487b7100000000000000000000000000000000000000000000000000000000)\n      mstore(0x04, 0x32)\n      revert(0x00, 0x24)\n    tag_213:\n      swap1\n      0x00\n      mstore\n      keccak256(0x00, 0x20)\n      swap1\n      0x04\n      mul\n      add\n        /* \"DurianContract.sol\":549:571  staffs[i].staffAddress */\n      0x00\n      add\n      0x00\n      swap1\n      sload\n      swap1\n      0x0100\n      exp\n      swap1\n      div\n      0xffffffffffffffffffffffffffffffffffffffff\n      and\n        /* \"DurianContract.sol\":549:585  staffs[i].staffAddress == msg.sender */\n      0xffffffffffffffffffffffffffffffffffffffff\n      and\n      eq\n        /* \"DurianContract.sol\":545:682  if (staffs[i].staffAddress == msg.sender) {... */\n      iszero\n      tag_215\n      jumpi\n        /* \"DurianContract.sol\":622:628  staffs */\n      0x01\n        /* \"DurianContract.sol\":629:630  i */\n      dup2\n        /* \"DurianContract.sol\":622:631  staffs[i] */\n      dup2\n      sload\n      dup2\n      lt\n      tag_216\n      jumpi\n      mstore(0x00, 0x4e487b7100000000000000000000000000000000000000000000000000000000)\n      mstore(0x04, 0x32)\n      revert(0x00, 0x24)\n    tag_216:\n      swap1\n      0x00\n      mstore\n      keccak256(0x00, 0x20)\n      swap1\n      0x04\n      mul\n      add\n        /* \"DurianContract.sol\":622:644  staffs[i].staffAddress */\n      0x00\n      add\n      0x00\n      swap1\n      sload\n      swap1\n      0x0100\n      exp\n      swap1\n      div\n      0xffffffffffffffffffffffffffffffffffffffff\n      and\n        /* \"DurianContract.sol\":605:644  addressofStaff = staffs[i].staffAddress */\n      swap2\n      pop\n        /* \"DurianContract.sol\":662:667  break */\n      jump(tag_210)\n        /* \"DurianContract.sol\":545:682  if (staffs[i].staffAddress == msg.sender) {... */\n    tag_215:\n        /* \"DurianContract.sol\":402:405  i-- */\n      dup1\n      dup1\n      tag_218\n      swap1\n      tag_112\n      jump\t// in\n    tag_218:\n      swap2\n      pop\n      pop\n        /* \"DurianContract.sol\":362:692  for (uint256 i = staffs.length; i == 0; i--) {... */\n      jump(tag_209)\n    tag_210:\n      pop\n        /* \"DurianContract.sol\":723:737  addressofStaff */\n      dup1\n        /* \"DurianContract.sol\":709:737  msg.sender == addressofStaff */\n      0xffffffffffffffffffffffffffffffffffffffff\n      and\n        /* \"DurianContract.sol\":709:719  msg.sender */\n      caller\n        /* \"DurianContract.sol\":709:737  msg.sender == addressofStaff */\n      0xffffffffffffffffffffffffffffffffffffffff\n      and\n      eq\n        /* \"DurianContract.sol\":701:738  require(msg.sender == addressofStaff) */\n      tag_219\n      jumpi\n      0x00\n      dup1\n      revert\n    tag_219:\n        /* \"DurianContract.sol\":3502:3546  compare(startingPoint, durians[id].location) */\n      tag_221\n        /* \"DurianContract.sol\":3510:3523  startingPoint */\n      dup6\n        /* \"DurianContract.sol\":3525:3532  durians */\n      0x02\n        /* \"DurianContract.sol\":3533:3535  id */\n      dup6\n        /* \"DurianContract.sol\":3525:3536  durians[id] */\n      dup2\n      sload\n      dup2\n      lt\n      tag_222\n      jumpi\n      mstore(0x00, 0x4e487b7100000000000000000000000000000000000000000000000000000000)\n      mstore(0x04, 0x32)\n      revert(0x00, 0x24)\n    tag_222:\n      swap1\n      0x00\n      mstore\n      keccak256(0x00, 0x20)\n      swap1\n      0x0e\n      mul\n      add\n        /* \"DurianContract.sol\":3525:3545  durians[id].location */\n      0x0b\n      add\n        /* \"DurianContract.sol\":3502:3546  compare(startingPoint, durians[id].location) */\n      dup1\n      sload\n      tag_224\n      swap1\n      tag_73\n      jump\t// in\n    tag_224:\n      dup1\n      0x1f\n      add\n      0x20\n      dup1\n      swap2\n      div\n      mul\n      0x20\n      add\n      mload(0x40)\n      swap1\n      dup2\n      add\n      0x40\n      mstore\n      dup1\n      swap3\n      swap2\n      swap1\n      dup2\n      dup2\n      mstore\n      0x20\n      add\n      dup3\n      dup1\n      sload\n      tag_225\n      swap1\n      tag_73\n      jump\t// in\n    tag_225:\n      dup1\n      iszero\n      tag_226\n      jumpi\n      dup1\n      0x1f\n      lt\n      tag_227\n      jumpi\n      0x0100\n      dup1\n      dup4\n      sload\n      div\n      mul\n      dup4\n      mstore\n      swap2\n      0x20\n      add\n      swap2\n      jump(tag_226)\n    tag_227:\n      dup3\n      add\n      swap2\n      swap1\n      0x00\n      mstore\n      keccak256(0x00, 0x20)\n      swap1\n    tag_228:\n      dup2\n      sload\n      dup2\n      mstore\n      swap1\n      0x01\n      add\n      swap1\n      0x20\n      add\n      dup1\n      dup4\n      gt\n      tag_228\n      jumpi\n      dup3\n      swap1\n      sub\n      0x1f\n      and\n      dup3\n      add\n      swap2\n    tag_226:\n      pop\n      pop\n      pop\n      pop\n      pop\n        /* \"DurianContract.sol\":3502:3509  compare */\n      tag_175\n        /* \"DurianContract.sol\":3502:3546  compare(startingPoint, durians[id].location) */\n      jump\t// in\n    tag_221:\n        /* \"DurianContract.sol\":3498:3675  if (compare(startingPoint, durians[id].location)) {... */\n      iszero\n      tag_229\n      jumpi\n        /* \"DurianContract.sol\":3585:3596  destination */\n      dup4\n        /* \"DurianContract.sol\":3562:3569  durians */\n      0x02\n        /* \"DurianContract.sol\":3570:3572  id */\n      dup5\n        /* \"DurianContract.sol\":3562:3573  durians[id] */\n      dup2\n      sload\n      dup2\n      lt\n      tag_230\n      jumpi\n      mstore(0x00, 0x4e487b7100000000000000000000000000000000000000000000000000000000)\n      mstore(0x04, 0x32)\n      revert(0x00, 0x24)\n    tag_230:\n      swap1\n      0x00\n      mstore\n      keccak256(0x00, 0x20)\n      swap1\n      0x0e\n      mul\n      add\n        /* \"DurianContract.sol\":3562:3582  durians[id].location */\n      0x0b\n      add\n        /* \"DurianContract.sol\":3562:3596  durians[id].location = destination */\n      swap1\n      dup1\n      mload\n      swap1\n      0x20\n      add\n      swap1\n      tag_232\n      swap3\n      swap2\n      swap1\n      tag_135\n      jump\t// in\n    tag_232:\n      pop\n        /* \"DurianContract.sol\":3635:3639  true */\n      0x01\n        /* \"DurianContract.sol\":3610:3617  durians */\n      0x02\n        /* \"DurianContract.sol\":3618:3620  id */\n      dup5\n        /* \"DurianContract.sol\":3610:3621  durians[id] */\n      dup2\n      sload\n      dup2\n      lt\n      tag_233\n      jumpi\n      mstore(0x00, 0x4e487b7100000000000000000000000000000000000000000000000000000000)\n      mstore(0x04, 0x32)\n      revert(0x00, 0x24)\n    tag_233:\n      swap1\n      0x00\n      mstore\n      keccak256(0x00, 0x20)\n      swap1\n      0x0e\n      mul\n      add\n        /* \"DurianContract.sol\":3610:3632  durians[id].onDelivery */\n      0x0c\n      add\n      0x00\n        /* \"DurianContract.sol\":3610:3639  durians[id].onDelivery = true */\n      0x0100\n      exp\n      dup2\n      sload\n      dup2\n      0xff\n      mul\n      not\n      and\n      swap1\n      dup4\n      iszero\n      iszero\n      mul\n      or\n      swap1\n      sstore\n      pop\n        /* \"DurianContract.sol\":3660:3664  true */\n      0x01\n        /* \"DurianContract.sol\":3653:3664  return true */\n      swap2\n      pop\n      jump(tag_220)\n        /* \"DurianContract.sol\":3498:3675  if (compare(startingPoint, durians[id].location)) {... */\n    tag_229:\n        /* \"DurianContract.sol\":3691:3696  false */\n      0x00\n        /* \"DurianContract.sol\":3684:3696  return false */\n      swap2\n      pop\n        /* \"DurianContract.sol\":748:749  _ */\n    tag_220:\n        /* \"DurianContract.sol\":3331:3703  function deliverDurian(... */\n      pop\n      swap4\n      swap3\n      pop\n      pop\n      pop\n      jump\t// out\n        /* \"DurianContract.sol\":1601:1624  Durian[] public durians */\n    tag_64:\n      0x02\n      dup2\n      dup2\n      sload\n      dup2\n      lt\n      tag_235\n      jumpi\n      0x00\n      dup1\n      revert\n    tag_235:\n      swap1\n      0x00\n      mstore\n      keccak256(0x00, 0x20)\n      swap1\n      0x0e\n      mul\n      add\n      0x00\n      swap2\n      pop\n      swap1\n      pop\n      dup1\n      0x00\n      add\n      sload\n      swap1\n      dup1\n      0x01\n      add\n      sload\n      swap1\n      dup1\n      0x02\n      add\n      sload\n      swap1\n      dup1\n      0x03\n      add\n      sload\n      swap1\n      dup1\n      0x04\n      add\n      0x00\n      swap1\n      sload\n      swap1\n      0x0100\n      exp\n      swap1\n      div\n      0xffffffffffffffffffffffffffffffffffffffff\n      and\n      swap1\n      dup1\n      0x05\n      add\n      sload\n      swap1\n      dup1\n      0x06\n      add\n      sload\n      swap1\n      dup1\n      0x07\n      add\n      0x00\n      swap1\n      sload\n      swap1\n      0x0100\n      exp\n      swap1\n      div\n      0xffffffffffffffffffffffffffffffffffffffff\n      and\n      swap1\n      dup1\n      0x08\n      add\n      mload(0x40)\n      dup1\n      0xc0\n      add\n      0x40\n      mstore\n      swap1\n      dup2\n      0x00\n      dup3\n      add\n      dup1\n      sload\n      tag_237\n      swap1\n      tag_73\n      jump\t// in\n    tag_237:\n      dup1\n      0x1f\n      add\n      0x20\n      dup1\n      swap2\n      div\n      mul\n      0x20\n      add\n      mload(0x40)\n      swap1\n      dup2\n      add\n      0x40\n      mstore\n      dup1\n      swap3\n      swap2\n      swap1\n      dup2\n      dup2\n      mstore\n      0x20\n      add\n      dup3\n      dup1\n      sload\n      tag_238\n      swap1\n      tag_73\n      jump\t// in\n    tag_238:\n      dup1\n      iszero\n      tag_239\n      jumpi\n      dup1\n      0x1f\n      lt\n      tag_240\n      jumpi\n      0x0100\n      dup1\n      dup4\n      sload\n      div\n      mul\n      dup4\n      mstore\n      swap2\n      0x20\n      add\n      swap2\n      jump(tag_239)\n    tag_240:\n      dup3\n      add\n      swap2\n      swap1\n      0x00\n      mstore\n      keccak256(0x00, 0x20)\n      swap1\n    tag_241:\n      dup2\n      sload\n      dup2\n      mstore\n      swap1\n      0x01\n      add\n      swap1\n      0x20\n      add\n      dup1\n      dup4\n      gt\n      tag_241\n      jumpi\n      dup3\n      swap1\n      sub\n      0x1f\n      and\n      dup3\n      add\n      swap2\n    tag_239:\n      pop\n      pop\n      pop\n      pop\n      pop\n      dup2\n      mstore\n      0x20\n      add\n      0x01\n      dup3\n      add\n      dup1\n      sload\n      tag_242\n      swap1\n      tag_73\n      jump\t// in\n    tag_242:\n      dup1\n      0x1f\n      add\n      0x20\n      dup1\n      swap2\n      div\n      mul\n      0x20\n      add\n      mload(0x40)\n      swap1\n      dup2\n      add\n      0x40\n      mstore\n      dup1\n      swap3\n      swap2\n      swap1\n      dup2\n      dup2\n      mstore\n      0x20\n      add\n      dup3\n      dup1\n      sload\n      tag_243\n      swap1\n      tag_73\n      jump\t// in\n    tag_243:\n      dup1\n      iszero\n      tag_244\n      jumpi\n      dup1\n      0x1f\n      lt\n      tag_245\n      jumpi\n      0x0100\n      dup1\n      dup4\n      sload\n      div\n      mul\n      dup4\n      mstore\n      swap2\n      0x20\n      add\n      swap2\n      jump(tag_244)\n    tag_245:\n      dup3\n      add\n      swap2\n      swap1\n      0x00\n      mstore\n      keccak256(0x00, 0x20)\n      swap1\n    tag_246:\n      dup2\n      sload\n      dup2\n      mstore\n      swap1\n      0x01\n      add\n      swap1\n      0x20\n      add\n      dup1\n      dup4\n      gt\n      tag_246\n      jumpi\n      dup3\n      swap1\n      sub\n      0x1f\n      and\n      dup3\n      add\n      swap2\n    tag_244:\n      pop\n      pop\n      pop\n      pop\n      pop\n      dup2\n      mstore\n      0x20\n      add\n      0x02\n      dup3\n      add\n      0x00\n      swap1\n      sload\n      swap1\n      0x0100\n      exp\n      swap1\n      div\n      0xff\n      and\n      0x04\n      dup2\n      gt\n      iszero\n      tag_247\n      jumpi\n      mstore(0x00, 0x4e487b7100000000000000000000000000000000000000000000000000000000)\n      mstore(0x04, 0x21)\n      revert(0x00, 0x24)\n    tag_247:\n      0x04\n      dup2\n      gt\n      iszero\n      tag_248\n      jumpi\n      mstore(0x00, 0x4e487b7100000000000000000000000000000000000000000000000000000000)\n      mstore(0x04, 0x21)\n      revert(0x00, 0x24)\n    tag_248:\n      dup2\n      mstore\n      0x20\n      add\n      0x02\n      dup3\n      add\n      0x01\n      swap1\n      sload\n      swap1\n      0x0100\n      exp\n      swap1\n      div\n      0xff\n      and\n      0x04\n      dup2\n      gt\n      iszero\n      tag_249\n      jumpi\n      mstore(0x00, 0x4e487b7100000000000000000000000000000000000000000000000000000000)\n      mstore(0x04, 0x21)\n      revert(0x00, 0x24)\n    tag_249:\n      0x04\n      dup2\n      gt\n      iszero\n      tag_250\n      jumpi\n      mstore(0x00, 0x4e487b7100000000000000000000000000000000000000000000000000000000)\n      mstore(0x04, 0x21)\n      revert(0x00, 0x24)\n    tag_250:\n      dup2\n      mstore\n      0x20\n      add\n      0x02\n      dup3\n      add\n      0x02\n      swap1\n      sload\n      swap1\n      0x0100\n      exp\n      swap1\n      div\n      0xff\n      and\n      0x04\n      dup2\n      gt\n      iszero\n      tag_251\n      jumpi\n      mstore(0x00, 0x4e487b7100000000000000000000000000000000000000000000000000000000)\n      mstore(0x04, 0x21)\n      revert(0x00, 0x24)\n    tag_251:\n      0x04\n      dup2\n      gt\n      iszero\n      tag_252\n      jumpi\n      mstore(0x00, 0x4e487b7100000000000000000000000000000000000000000000000000000000)\n      mstore(0x04, 0x21)\n      revert(0x00, 0x24)\n    tag_252:\n      dup2\n      mstore\n      0x20\n      add\n      0x02\n      dup3\n      add\n      0x03\n      swap1\n      sload\n      swap1\n      0x0100\n      exp\n      swap1\n      div\n      0xff\n      and\n      0x04\n      dup2\n      gt\n      iszero\n      tag_253\n      jumpi\n      mstore(0x00, 0x4e487b7100000000000000000000000000000000000000000000000000000000)\n      mstore(0x04, 0x21)\n      revert(0x00, 0x24)\n    tag_253:\n      0x04\n      dup2\n      gt\n      iszero\n      tag_254\n      jumpi\n      mstore(0x00, 0x4e487b7100000000000000000000000000000000000000000000000000000000)\n      mstore(0x04, 0x21)\n      revert(0x00, 0x24)\n    tag_254:\n      dup2\n      mstore\n      pop\n      pop\n      swap1\n      dup1\n      0x0b\n      add\n      dup1\n      sload\n      tag_255\n      swap1\n      tag_73\n      jump\t// in\n    tag_255:\n      dup1\n      0x1f\n      add\n      0x20\n      dup1\n      swap2\n      div\n      mul\n      0x20\n      add\n      mload(0x40)\n      swap1\n      dup2\n      add\n      0x40\n      mstore\n      dup1\n      swap3\n      swap2\n      swap1\n      dup2\n      dup2\n      mstore\n      0x20\n      add\n      dup3\n      dup1\n      sload\n      tag_256\n      swap1\n      tag_73\n      jump\t// in\n    tag_256:\n      dup1\n      iszero\n      tag_257\n      jumpi\n      dup1\n      0x1f\n      lt\n      tag_258\n      jumpi\n      0x0100\n      dup1\n      dup4\n      sload\n      div\n      mul\n      dup4\n      mstore\n      swap2\n      0x20\n      add\n      swap2\n      jump(tag_257)\n    tag_258:\n      dup3\n      add\n      swap2\n      swap1\n      0x00\n      mstore\n      keccak256(0x00, 0x20)\n      swap1\n    tag_259:\n      dup2\n      sload\n      dup2\n      mstore\n      swap1\n      0x01\n      add\n      swap1\n      0x20\n      add\n      dup1\n      dup4\n      gt\n      tag_259\n      jumpi\n      dup3\n      swap1\n      sub\n      0x1f\n      and\n      dup3\n      add\n      swap2\n    tag_257:\n      pop\n      pop\n      pop\n      pop\n      pop\n      swap1\n      dup1\n      0x0c\n      add\n      0x00\n      swap1\n      sload\n      swap1\n      0x0100\n      exp\n      swap1\n      div\n      0xff\n      and\n      swap1\n      dup1\n      0x0d\n      add\n      dup1\n      sload\n      tag_260\n      swap1\n      tag_73\n      jump\t// in\n    tag_260:\n      dup1\n      0x1f\n      add\n      0x20\n      dup1\n      swap2\n      div\n      mul\n      0x20\n      add\n      mload(0x40)\n      swap1\n      dup2\n      add\n      0x40\n      mstore\n      dup1\n      swap3\n      swap2\n      swap1\n      dup2\n      dup2\n      mstore\n      0x20\n      add\n      dup3\n      dup1\n      sload\n      tag_261\n      swap1\n      tag_73\n      jump\t// in\n    tag_261:\n      dup1\n      iszero\n      tag_262\n      jumpi\n      dup1\n      0x1f\n      lt\n      tag_263\n      jumpi\n      0x0100\n      dup1\n      dup4\n      sload\n      div\n      mul\n      dup4\n      mstore\n      swap2\n      0x20\n      add\n      swap2\n      jump(tag_262)\n    tag_263:\n      dup3\n      add\n      swap2\n      swap1\n      0x00\n      mstore\n      keccak256(0x00, 0x20)\n      swap1\n    tag_264:\n      dup2\n      sload\n      dup2\n      mstore\n      swap1\n      0x01\n      add\n      swap1\n      0x20\n      add\n      dup1\n      dup4\n      gt\n      tag_264\n      jumpi\n      dup3\n      swap1\n      sub\n      0x1f\n      and\n      dup3\n      add\n      swap2\n    tag_262:\n      pop\n      pop\n      pop\n      pop\n      pop\n      swap1\n      pop\n      dup13\n      jump\t// out\n        /* \"DurianContract.sol\":797:976  function compare(string memory str1, string memory str2) private pure returns (bool) {... */\n    tag_175:\n        /* \"DurianContract.sol\":876:880  bool */\n      0x00\n        /* \"DurianContract.sol\":963:967  str2 */\n      dup2\n        /* \"DurianContract.sol\":946:968  abi.encodePacked(str2) */\n      add(0x20, mload(0x40))\n      tag_266\n      swap2\n      swap1\n      tag_267\n      jump\t// in\n    tag_266:\n      mload(0x40)\n      0x20\n      dup2\n      dup4\n      sub\n      sub\n      dup2\n      mstore\n      swap1\n      0x40\n      mstore\n        /* \"DurianContract.sol\":936:969  keccak256(abi.encodePacked(str2)) */\n      dup1\n      mload\n      swap1\n      0x20\n      add\n      keccak256\n        /* \"DurianContract.sol\":926:930  str1 */\n      dup4\n        /* \"DurianContract.sol\":909:931  abi.encodePacked(str1) */\n      add(0x20, mload(0x40))\n      tag_268\n      swap2\n      swap1\n      tag_267\n      jump\t// in\n    tag_268:\n      mload(0x40)\n      0x20\n      dup2\n      dup4\n      sub\n      sub\n      dup2\n      mstore\n      swap1\n      0x40\n      mstore\n        /* \"DurianContract.sol\":899:932  keccak256(abi.encodePacked(str1)) */\n      dup1\n      mload\n      swap1\n      0x20\n      add\n      keccak256\n        /* \"DurianContract.sol\":899:969  keccak256(abi.encodePacked(str1)) == keccak256(abi.encodePacked(str2)) */\n      eq\n        /* \"DurianContract.sol\":892:969  return keccak256(abi.encodePacked(str1)) == keccak256(abi.encodePacked(str2)) */\n      swap1\n      pop\n        /* \"DurianContract.sol\":797:976  function compare(string memory str1, string memory str2) private pure returns (bool) {... */\n      swap3\n      swap2\n      pop\n      pop\n      jump\t// out\n    tag_68:\n      mload(0x40)\n      dup1\n      0x0180\n      add\n      0x40\n      mstore\n      dup1\n      0x00\n      dup2\n      mstore\n      0x20\n      add\n      0x00\n      dup2\n      mstore\n      0x20\n      add\n      0x00\n      dup2\n      mstore\n      0x20\n      add\n      0x00\n      dup2\n      mstore\n      0x20\n      add\n      and(0xffffffffffffffffffffffffffffffffffffffff, 0x00)\n      dup2\n      mstore\n      0x20\n      add\n      0x00\n      dup2\n      mstore\n      0x20\n      add\n      0x00\n      dup2\n      mstore\n      0x20\n      add\n      and(0xffffffffffffffffffffffffffffffffffffffff, 0x00)\n      dup2\n      mstore\n      0x20\n      add\n      tag_269\n      tag_270\n      jump\t// in\n    tag_269:\n      dup2\n      mstore\n      0x20\n      add\n      0x60\n      dup2\n      mstore\n      0x20\n      add\n      iszero(iszero(0x00))\n      dup2\n      mstore\n      0x20\n      add\n      0x60\n      dup2\n      mstore\n      pop\n      swap1\n      jump\t// out\n    tag_135:\n      dup3\n      dup1\n      sload\n      tag_271\n      swap1\n      tag_73\n      jump\t// in\n    tag_271:\n      swap1\n      0x00\n      mstore\n      keccak256(0x00, 0x20)\n      swap1\n      0x1f\n      add\n      0x20\n      swap1\n      div\n      dup2\n      add\n      swap3\n      dup3\n      tag_273\n      jumpi\n      0x00\n      dup6\n      sstore\n      jump(tag_272)\n    tag_273:\n      dup3\n      0x1f\n      lt\n      tag_274\n      jumpi\n      dup1\n      mload\n      not(0xff)\n      and\n      dup4\n      dup1\n      add\n      or\n      dup6\n      sstore\n      jump(tag_272)\n    tag_274:\n      dup3\n      dup1\n      add\n      0x01\n      add\n      dup6\n      sstore\n      dup3\n      iszero\n      tag_272\n      jumpi\n      swap2\n      dup3\n      add\n    tag_275:\n      dup3\n      dup2\n      gt\n      iszero\n      tag_276\n      jumpi\n      dup3\n      mload\n      dup3\n      sstore\n      swap2\n      0x20\n      add\n      swap2\n      swap1\n      0x01\n      add\n      swap1\n      jump(tag_275)\n    tag_276:\n    tag_272:\n      pop\n      swap1\n      pop\n      tag_277\n      swap2\n      swap1\n      tag_278\n      jump\t// in\n    tag_277:\n      pop\n      swap1\n      jump\t// out\n    tag_270:\n      mload(0x40)\n      dup1\n      0xc0\n      add\n      0x40\n      mstore\n      dup1\n      0x60\n      dup2\n      mstore\n      0x20\n      add\n      0x60\n      dup2\n      mstore\n      0x20\n      add\n      0x00\n      0x04\n      dup2\n      gt\n      iszero\n      tag_279\n      jumpi\n      mstore(0x00, 0x4e487b7100000000000000000000000000000000000000000000000000000000)\n      mstore(0x04, 0x21)\n      revert(0x00, 0x24)\n    tag_279:\n      dup2\n      mstore\n      0x20\n      add\n      0x00\n      0x04\n      dup2\n      gt\n      iszero\n      tag_280\n      jumpi\n      mstore(0x00, 0x4e487b7100000000000000000000000000000000000000000000000000000000)\n      mstore(0x04, 0x21)\n      revert(0x00, 0x24)\n    tag_280:\n      dup2\n      mstore\n      0x20\n      add\n      0x00\n      0x04\n      dup2\n      gt\n      iszero\n      tag_281\n      jumpi\n      mstore(0x00, 0x4e487b7100000000000000000000000000000000000000000000000000000000)\n      mstore(0x04, 0x21)\n      revert(0x00, 0x24)\n    tag_281:\n      dup2\n      mstore\n      0x20\n      add\n      0x00\n      0x04\n      dup2\n      gt\n      iszero\n      tag_282\n      jumpi\n      mstore(0x00, 0x4e487b7100000000000000000000000000000000000000000000000000000000)\n      mstore(0x04, 0x21)\n      revert(0x00, 0x24)\n    tag_282:\n      dup2\n      mstore\n      pop\n      swap1\n      jump\t// out\n    tag_278:\n    tag_283:\n      dup1\n      dup3\n      gt\n      iszero\n      tag_284\n      jumpi\n      0x00\n      dup2\n      0x00\n      swap1\n      sstore\n      pop\n      0x01\n      add\n      jump(tag_283)\n    tag_284:\n      pop\n      swap1\n      jump\t// out\n        /* \"#utility.yul\":24:646   */\n    tag_286:\n      0x00\n        /* \"#utility.yul\":145:225   */\n      tag_288\n        /* \"#utility.yul\":160:224   */\n      tag_289\n        /* \"#utility.yul\":217:223   */\n      dup5\n        /* \"#utility.yul\":160:224   */\n      tag_290\n      jump\t// in\n    tag_289:\n        /* \"#utility.yul\":145:225   */\n      tag_291\n      jump\t// in\n    tag_288:\n        /* \"#utility.yul\":136:225   */\n      swap1\n      pop\n        /* \"#utility.yul\":245:250   */\n      dup1\n        /* \"#utility.yul\":273:279   */\n      dup4\n        /* \"#utility.yul\":266:271   */\n      dup3\n        /* \"#utility.yul\":259:280   */\n      mstore\n        /* \"#utility.yul\":299:303   */\n      0x20\n        /* \"#utility.yul\":292:297   */\n      dup3\n        /* \"#utility.yul\":288:304   */\n      add\n        /* \"#utility.yul\":281:304   */\n      swap1\n      pop\n        /* \"#utility.yul\":324:330   */\n      dup3\n        /* \"#utility.yul\":374:377   */\n      dup6\n        /* \"#utility.yul\":366:370   */\n      0x20\n        /* \"#utility.yul\":358:364   */\n      dup7\n        /* \"#utility.yul\":354:371   */\n      mul\n        /* \"#utility.yul\":349:352   */\n      dup3\n        /* \"#utility.yul\":345:372   */\n      add\n        /* \"#utility.yul\":342:378   */\n      gt\n        /* \"#utility.yul\":339:341   */\n      iszero\n      tag_292\n      jumpi\n        /* \"#utility.yul\":391:392   */\n      0x00\n        /* \"#utility.yul\":388:389   */\n      dup1\n        /* \"#utility.yul\":381:393   */\n      revert\n        /* \"#utility.yul\":339:341   */\n    tag_292:\n        /* \"#utility.yul\":419:420   */\n      0x00\n        /* \"#utility.yul\":404:640   */\n    tag_293:\n        /* \"#utility.yul\":429:435   */\n      dup6\n        /* \"#utility.yul\":426:427   */\n      dup2\n        /* \"#utility.yul\":423:436   */\n      lt\n        /* \"#utility.yul\":404:640   */\n      iszero\n      tag_295\n      jumpi\n        /* \"#utility.yul\":496:499   */\n      dup2\n        /* \"#utility.yul\":524:561   */\n      tag_296\n        /* \"#utility.yul\":557:560   */\n      dup9\n        /* \"#utility.yul\":545:555   */\n      dup3\n        /* \"#utility.yul\":524:561   */\n      tag_297\n      jump\t// in\n    tag_296:\n        /* \"#utility.yul\":519:522   */\n      dup5\n        /* \"#utility.yul\":512:562   */\n      mstore\n        /* \"#utility.yul\":591:595   */\n      0x20\n        /* \"#utility.yul\":586:589   */\n      dup5\n        /* \"#utility.yul\":582:596   */\n      add\n        /* \"#utility.yul\":575:596   */\n      swap4\n      pop\n        /* \"#utility.yul\":625:629   */\n      0x20\n        /* \"#utility.yul\":620:623   */\n      dup4\n        /* \"#utility.yul\":616:630   */\n      add\n        /* \"#utility.yul\":609:630   */\n      swap3\n      pop\n        /* \"#utility.yul\":464:640   */\n      pop\n        /* \"#utility.yul\":451:452   */\n      0x01\n        /* \"#utility.yul\":448:449   */\n      dup2\n        /* \"#utility.yul\":444:453   */\n      add\n        /* \"#utility.yul\":439:453   */\n      swap1\n      pop\n        /* \"#utility.yul\":404:640   */\n      jump(tag_293)\n    tag_295:\n        /* \"#utility.yul\":408:422   */\n      pop\n        /* \"#utility.yul\":126:646   */\n      pop\n      pop\n      swap4\n      swap3\n      pop\n      pop\n      pop\n      jump\t// out\n        /* \"#utility.yul\":652:996   */\n    tag_298:\n      0x00\n        /* \"#utility.yul\":755:820   */\n      tag_300\n        /* \"#utility.yul\":770:819   */\n      tag_301\n        /* \"#utility.yul\":812:818   */\n      dup5\n        /* \"#utility.yul\":770:819   */\n      tag_302\n      jump\t// in\n    tag_301:\n        /* \"#utility.yul\":755:820   */\n      tag_291\n      jump\t// in\n    tag_300:\n        /* \"#utility.yul\":746:820   */\n      swap1\n      pop\n        /* \"#utility.yul\":843:849   */\n      dup3\n        /* \"#utility.yul\":836:841   */\n      dup2\n        /* \"#utility.yul\":829:850   */\n      mstore\n        /* \"#utility.yul\":881:885   */\n      0x20\n        /* \"#utility.yul\":874:879   */\n      dup2\n        /* \"#utility.yul\":870:886   */\n      add\n        /* \"#utility.yul\":919:922   */\n      dup5\n        /* \"#utility.yul\":910:916   */\n      dup5\n        /* \"#utility.yul\":905:908   */\n      dup5\n        /* \"#utility.yul\":901:917   */\n      add\n        /* \"#utility.yul\":898:923   */\n      gt\n        /* \"#utility.yul\":895:897   */\n      iszero\n      tag_303\n      jumpi\n        /* \"#utility.yul\":936:937   */\n      0x00\n        /* \"#utility.yul\":933:934   */\n      dup1\n        /* \"#utility.yul\":926:938   */\n      revert\n        /* \"#utility.yul\":895:897   */\n    tag_303:\n        /* \"#utility.yul\":949:990   */\n      tag_304\n        /* \"#utility.yul\":983:989   */\n      dup5\n        /* \"#utility.yul\":978:981   */\n      dup3\n        /* \"#utility.yul\":973:976   */\n      dup6\n        /* \"#utility.yul\":949:990   */\n      tag_305\n      jump\t// in\n    tag_304:\n        /* \"#utility.yul\":736:996   */\n      pop\n      swap4\n      swap3\n      pop\n      pop\n      pop\n      jump\t// out\n        /* \"#utility.yul\":1002:1141   */\n    tag_297:\n      0x00\n        /* \"#utility.yul\":1086:1092   */\n      dup2\n        /* \"#utility.yul\":1073:1093   */\n      calldataload\n        /* \"#utility.yul\":1064:1093   */\n      swap1\n      pop\n        /* \"#utility.yul\":1102:1135   */\n      tag_307\n        /* \"#utility.yul\":1129:1134   */\n      dup2\n        /* \"#utility.yul\":1102:1135   */\n      tag_308\n      jump\t// in\n    tag_307:\n        /* \"#utility.yul\":1054:1141   */\n      swap3\n      swap2\n      pop\n      pop\n      jump\t// out\n        /* \"#utility.yul\":1164:1467   */\n    tag_309:\n      0x00\n        /* \"#utility.yul\":1284:1287   */\n      dup3\n        /* \"#utility.yul\":1277:1281   */\n      0x1f\n        /* \"#utility.yul\":1269:1275   */\n      dup4\n        /* \"#utility.yul\":1265:1282   */\n      add\n        /* \"#utility.yul\":1261:1288   */\n      slt\n        /* \"#utility.yul\":1251:1253   */\n      tag_311\n      jumpi\n        /* \"#utility.yul\":1302:1303   */\n      0x00\n        /* \"#utility.yul\":1299:1300   */\n      dup1\n        /* \"#utility.yul\":1292:1304   */\n      revert\n        /* \"#utility.yul\":1251:1253   */\n    tag_311:\n        /* \"#utility.yul\":1342:1348   */\n      dup2\n        /* \"#utility.yul\":1329:1349   */\n      calldataload\n        /* \"#utility.yul\":1367:1461   */\n      tag_312\n        /* \"#utility.yul\":1457:1460   */\n      dup5\n        /* \"#utility.yul\":1449:1455   */\n      dup3\n        /* \"#utility.yul\":1442:1446   */\n      0x20\n        /* \"#utility.yul\":1434:1440   */\n      dup7\n        /* \"#utility.yul\":1430:1447   */\n      add\n        /* \"#utility.yul\":1367:1461   */\n      tag_286\n      jump\t// in\n    tag_312:\n        /* \"#utility.yul\":1358:1461   */\n      swap2\n      pop\n        /* \"#utility.yul\":1241:1467   */\n      pop\n      swap3\n      swap2\n      pop\n      pop\n      jump\t// out\n        /* \"#utility.yul\":1487:1760   */\n    tag_313:\n      0x00\n        /* \"#utility.yul\":1592:1595   */\n      dup3\n        /* \"#utility.yul\":1585:1589   */\n      0x1f\n        /* \"#utility.yul\":1577:1583   */\n      dup4\n        /* \"#utility.yul\":1573:1590   */\n      add\n        /* \"#utility.yul\":1569:1596   */\n      slt\n        /* \"#utility.yul\":1559:1561   */\n      tag_315\n      jumpi\n        /* \"#utility.yul\":1610:1611   */\n      0x00\n        /* \"#utility.yul\":1607:1608   */\n      dup1\n        /* \"#utility.yul\":1600:1612   */\n      revert\n        /* \"#utility.yul\":1559:1561   */\n    tag_315:\n        /* \"#utility.yul\":1650:1656   */\n      dup2\n        /* \"#utility.yul\":1637:1657   */\n      calldataload\n        /* \"#utility.yul\":1675:1754   */\n      tag_316\n        /* \"#utility.yul\":1750:1753   */\n      dup5\n        /* \"#utility.yul\":1742:1748   */\n      dup3\n        /* \"#utility.yul\":1735:1739   */\n      0x20\n        /* \"#utility.yul\":1727:1733   */\n      dup7\n        /* \"#utility.yul\":1723:1740   */\n      add\n        /* \"#utility.yul\":1675:1754   */\n      tag_298\n      jump\t// in\n    tag_316:\n        /* \"#utility.yul\":1666:1754   */\n      swap2\n      pop\n        /* \"#utility.yul\":1549:1760   */\n      pop\n      swap3\n      swap2\n      pop\n      pop\n      jump\t// out\n        /* \"#utility.yul\":1766:1905   */\n    tag_317:\n      0x00\n        /* \"#utility.yul\":1850:1856   */\n      dup2\n        /* \"#utility.yul\":1837:1857   */\n      calldataload\n        /* \"#utility.yul\":1828:1857   */\n      swap1\n      pop\n        /* \"#utility.yul\":1866:1899   */\n      tag_319\n        /* \"#utility.yul\":1893:1898   */\n      dup2\n        /* \"#utility.yul\":1866:1899   */\n      tag_320\n      jump\t// in\n    tag_319:\n        /* \"#utility.yul\":1818:1905   */\n      swap3\n      swap2\n      pop\n      pop\n      jump\t// out\n        /* \"#utility.yul\":1911:2318   */\n    tag_40:\n      0x00\n      dup1\n        /* \"#utility.yul\":2036:2038   */\n      0x40\n        /* \"#utility.yul\":2024:2033   */\n      dup4\n        /* \"#utility.yul\":2015:2022   */\n      dup6\n        /* \"#utility.yul\":2011:2034   */\n      sub\n        /* \"#utility.yul\":2007:2039   */\n      slt\n        /* \"#utility.yul\":2004:2006   */\n      iszero\n      tag_322\n      jumpi\n        /* \"#utility.yul\":2052:2053   */\n      0x00\n        /* \"#utility.yul\":2049:2050   */\n      dup1\n        /* \"#utility.yul\":2042:2054   */\n      revert\n        /* \"#utility.yul\":2004:2006   */\n    tag_322:\n        /* \"#utility.yul\":2095:2096   */\n      0x00\n        /* \"#utility.yul\":2120:2173   */\n      tag_323\n        /* \"#utility.yul\":2165:2172   */\n      dup6\n        /* \"#utility.yul\":2156:2162   */\n      dup3\n        /* \"#utility.yul\":2145:2154   */\n      dup7\n        /* \"#utility.yul\":2141:2163   */\n      add\n        /* \"#utility.yul\":2120:2173   */\n      tag_297\n      jump\t// in\n    tag_323:\n        /* \"#utility.yul\":2110:2173   */\n      swap3\n      pop\n        /* \"#utility.yul\":2066:2183   */\n      pop\n        /* \"#utility.yul\":2222:2224   */\n      0x20\n        /* \"#utility.yul\":2248:2301   */\n      tag_324\n        /* \"#utility.yul\":2293:2300   */\n      dup6\n        /* \"#utility.yul\":2284:2290   */\n      dup3\n        /* \"#utility.yul\":2273:2282   */\n      dup7\n        /* \"#utility.yul\":2269:2291   */\n      add\n        /* \"#utility.yul\":2248:2301   */\n      tag_317\n      jump\t// in\n    tag_324:\n        /* \"#utility.yul\":2238:2301   */\n      swap2\n      pop\n        /* \"#utility.yul\":2193:2311   */\n      pop\n        /* \"#utility.yul\":1994:2318   */\n      swap3\n      pop\n      swap3\n      swap1\n      pop\n      jump\t// out\n        /* \"#utility.yul\":2324:3391   */\n    tag_31:\n      0x00\n      dup1\n      0x00\n      dup1\n        /* \"#utility.yul\":2528:2531   */\n      0x80\n        /* \"#utility.yul\":2516:2525   */\n      dup6\n        /* \"#utility.yul\":2507:2514   */\n      dup8\n        /* \"#utility.yul\":2503:2526   */\n      sub\n        /* \"#utility.yul\":2499:2532   */\n      slt\n        /* \"#utility.yul\":2496:2498   */\n      iszero\n      tag_326\n      jumpi\n        /* \"#utility.yul\":2545:2546   */\n      0x00\n        /* \"#utility.yul\":2542:2543   */\n      dup1\n        /* \"#utility.yul\":2535:2547   */\n      revert\n        /* \"#utility.yul\":2496:2498   */\n    tag_326:\n        /* \"#utility.yul\":2616:2617   */\n      0x00\n        /* \"#utility.yul\":2605:2614   */\n      dup6\n        /* \"#utility.yul\":2601:2618   */\n      add\n        /* \"#utility.yul\":2588:2619   */\n      calldataload\n        /* \"#utility.yul\":2646:2664   */\n      0xffffffffffffffff\n        /* \"#utility.yul\":2638:2644   */\n      dup2\n        /* \"#utility.yul\":2635:2665   */\n      gt\n        /* \"#utility.yul\":2632:2634   */\n      iszero\n      tag_327\n      jumpi\n        /* \"#utility.yul\":2678:2679   */\n      0x00\n        /* \"#utility.yul\":2675:2676   */\n      dup1\n        /* \"#utility.yul\":2668:2680   */\n      revert\n        /* \"#utility.yul\":2632:2634   */\n    tag_327:\n        /* \"#utility.yul\":2706:2784   */\n      tag_328\n        /* \"#utility.yul\":2776:2783   */\n      dup8\n        /* \"#utility.yul\":2767:2773   */\n      dup3\n        /* \"#utility.yul\":2756:2765   */\n      dup9\n        /* \"#utility.yul\":2752:2774   */\n      add\n        /* \"#utility.yul\":2706:2784   */\n      tag_309\n      jump\t// in\n    tag_328:\n        /* \"#utility.yul\":2696:2784   */\n      swap5\n      pop\n        /* \"#utility.yul\":2559:2794   */\n      pop\n        /* \"#utility.yul\":2833:2835   */\n      0x20\n        /* \"#utility.yul\":2859:2912   */\n      tag_329\n        /* \"#utility.yul\":2904:2911   */\n      dup8\n        /* \"#utility.yul\":2895:2901   */\n      dup3\n        /* \"#utility.yul\":2884:2893   */\n      dup9\n        /* \"#utility.yul\":2880:2902   */\n      add\n        /* \"#utility.yul\":2859:2912   */\n      tag_317\n      jump\t// in\n    tag_329:\n        /* \"#utility.yul\":2849:2912   */\n      swap4\n      pop\n        /* \"#utility.yul\":2804:2922   */\n      pop\n        /* \"#utility.yul\":2989:2991   */\n      0x40\n        /* \"#utility.yul\":2978:2987   */\n      dup6\n        /* \"#utility.yul\":2974:2992   */\n      add\n        /* \"#utility.yul\":2961:2993   */\n      calldataload\n        /* \"#utility.yul\":3020:3038   */\n      0xffffffffffffffff\n        /* \"#utility.yul\":3012:3018   */\n      dup2\n        /* \"#utility.yul\":3009:3039   */\n      gt\n        /* \"#utility.yul\":3006:3008   */\n      iszero\n      tag_330\n      jumpi\n        /* \"#utility.yul\":3052:3053   */\n      0x00\n        /* \"#utility.yul\":3049:3050   */\n      dup1\n        /* \"#utility.yul\":3042:3054   */\n      revert\n        /* \"#utility.yul\":3006:3008   */\n    tag_330:\n        /* \"#utility.yul\":3080:3143   */\n      tag_331\n        /* \"#utility.yul\":3135:3142   */\n      dup8\n        /* \"#utility.yul\":3126:3132   */\n      dup3\n        /* \"#utility.yul\":3115:3124   */\n      dup9\n        /* \"#utility.yul\":3111:3133   */\n      add\n        /* \"#utility.yul\":3080:3143   */\n      tag_313\n      jump\t// in\n    tag_331:\n        /* \"#utility.yul\":3070:3143   */\n      swap3\n      pop\n        /* \"#utility.yul\":2932:3153   */\n      pop\n        /* \"#utility.yul\":3220:3222   */\n      0x60\n        /* \"#utility.yul\":3209:3218   */\n      dup6\n        /* \"#utility.yul\":3205:3223   */\n      add\n        /* \"#utility.yul\":3192:3224   */\n      calldataload\n        /* \"#utility.yul\":3251:3269   */\n      0xffffffffffffffff\n        /* \"#utility.yul\":3243:3249   */\n      dup2\n        /* \"#utility.yul\":3240:3270   */\n      gt\n        /* \"#utility.yul\":3237:3239   */\n      iszero\n      tag_332\n      jumpi\n        /* \"#utility.yul\":3283:3284   */\n      0x00\n        /* \"#utility.yul\":3280:3281   */\n      dup1\n        /* \"#utility.yul\":3273:3285   */\n      revert\n        /* \"#utility.yul\":3237:3239   */\n    tag_332:\n        /* \"#utility.yul\":3311:3374   */\n      tag_333\n        /* \"#utility.yul\":3366:3373   */\n      dup8\n        /* \"#utility.yul\":3357:3363   */\n      dup3\n        /* \"#utility.yul\":3346:3355   */\n      dup9\n        /* \"#utility.yul\":3342:3364   */\n      add\n        /* \"#utility.yul\":3311:3374   */\n      tag_313\n      jump\t// in\n    tag_333:\n        /* \"#utility.yul\":3301:3374   */\n      swap2\n      pop\n        /* \"#utility.yul\":3163:3384   */\n      pop\n        /* \"#utility.yul\":2486:3391   */\n      swap3\n      swap6\n      swap2\n      swap5\n      pop\n      swap3\n      pop\n      jump\t// out\n        /* \"#utility.yul\":3397:4175   */\n    tag_59:\n      0x00\n      dup1\n      0x00\n        /* \"#utility.yul\":3559:3561   */\n      0x60\n        /* \"#utility.yul\":3547:3556   */\n      dup5\n        /* \"#utility.yul\":3538:3545   */\n      dup7\n        /* \"#utility.yul\":3534:3557   */\n      sub\n        /* \"#utility.yul\":3530:3562   */\n      slt\n        /* \"#utility.yul\":3527:3529   */\n      iszero\n      tag_335\n      jumpi\n        /* \"#utility.yul\":3575:3576   */\n      0x00\n        /* \"#utility.yul\":3572:3573   */\n      dup1\n        /* \"#utility.yul\":3565:3577   */\n      revert\n        /* \"#utility.yul\":3527:3529   */\n    tag_335:\n        /* \"#utility.yul\":3646:3647   */\n      0x00\n        /* \"#utility.yul\":3635:3644   */\n      dup5\n        /* \"#utility.yul\":3631:3648   */\n      add\n        /* \"#utility.yul\":3618:3649   */\n      calldataload\n        /* \"#utility.yul\":3676:3694   */\n      0xffffffffffffffff\n        /* \"#utility.yul\":3668:3674   */\n      dup2\n        /* \"#utility.yul\":3665:3695   */\n      gt\n        /* \"#utility.yul\":3662:3664   */\n      iszero\n      tag_336\n      jumpi\n        /* \"#utility.yul\":3708:3709   */\n      0x00\n        /* \"#utility.yul\":3705:3706   */\n      dup1\n        /* \"#utility.yul\":3698:3710   */\n      revert\n        /* \"#utility.yul\":3662:3664   */\n    tag_336:\n        /* \"#utility.yul\":3736:3799   */\n      tag_337\n        /* \"#utility.yul\":3791:3798   */\n      dup7\n        /* \"#utility.yul\":3782:3788   */\n      dup3\n        /* \"#utility.yul\":3771:3780   */\n      dup8\n        /* \"#utility.yul\":3767:3789   */\n      add\n        /* \"#utility.yul\":3736:3799   */\n      tag_313\n      jump\t// in\n    tag_337:\n        /* \"#utility.yul\":3726:3799   */\n      swap4\n      pop\n        /* \"#utility.yul\":3589:3809   */\n      pop\n        /* \"#utility.yul\":3876:3878   */\n      0x20\n        /* \"#utility.yul\":3865:3874   */\n      dup5\n        /* \"#utility.yul\":3861:3879   */\n      add\n        /* \"#utility.yul\":3848:3880   */\n      calldataload\n        /* \"#utility.yul\":3907:3925   */\n      0xffffffffffffffff\n        /* \"#utility.yul\":3899:3905   */\n      dup2\n        /* \"#utility.yul\":3896:3926   */\n      gt\n        /* \"#utility.yul\":3893:3895   */\n      iszero\n      tag_338\n      jumpi\n        /* \"#utility.yul\":3939:3940   */\n      0x00\n        /* \"#utility.yul\":3936:3937   */\n      dup1\n        /* \"#utility.yul\":3929:3941   */\n      revert\n        /* \"#utility.yul\":3893:3895   */\n    tag_338:\n        /* \"#utility.yul\":3967:4030   */\n      tag_339\n        /* \"#utility.yul\":4022:4029   */\n      dup7\n        /* \"#utility.yul\":4013:4019   */\n      dup3\n        /* \"#utility.yul\":4002:4011   */\n      dup8\n        /* \"#utility.yul\":3998:4020   */\n      add\n        /* \"#utility.yul\":3967:4030   */\n      tag_313\n      jump\t// in\n    tag_339:\n        /* \"#utility.yul\":3957:4030   */\n      swap3\n      pop\n        /* \"#utility.yul\":3819:4040   */\n      pop\n        /* \"#utility.yul\":4079:4081   */\n      0x40\n        /* \"#utility.yul\":4105:4158   */\n      tag_340\n        /* \"#utility.yul\":4150:4157   */\n      dup7\n        /* \"#utility.yul\":4141:4147   */\n      dup3\n        /* \"#utility.yul\":4130:4139   */\n      dup8\n        /* \"#utility.yul\":4126:4148   */\n      add\n        /* \"#utility.yul\":4105:4158   */\n      tag_317\n      jump\t// in\n    tag_340:\n        /* \"#utility.yul\":4095:4158   */\n      swap2\n      pop\n        /* \"#utility.yul\":4050:4168   */\n      pop\n        /* \"#utility.yul\":3517:4175   */\n      swap3\n      pop\n      swap3\n      pop\n      swap3\n      jump\t// out\n        /* \"#utility.yul\":4181:4443   */\n    tag_17:\n      0x00\n        /* \"#utility.yul\":4289:4291   */\n      0x20\n        /* \"#utility.yul\":4277:4286   */\n      dup3\n        /* \"#utility.yul\":4268:4275   */\n      dup5\n        /* \"#utility.yul\":4264:4287   */\n      sub\n        /* \"#utility.yul\":4260:4292   */\n      slt\n        /* \"#utility.yul\":4257:4259   */\n      iszero\n      tag_342\n      jumpi\n        /* \"#utility.yul\":4305:4306   */\n      0x00\n        /* \"#utility.yul\":4302:4303   */\n      dup1\n        /* \"#utility.yul\":4295:4307   */\n      revert\n        /* \"#utility.yul\":4257:4259   */\n    tag_342:\n        /* \"#utility.yul\":4348:4349   */\n      0x00\n        /* \"#utility.yul\":4373:4426   */\n      tag_343\n        /* \"#utility.yul\":4418:4425   */\n      dup5\n        /* \"#utility.yul\":4409:4415   */\n      dup3\n        /* \"#utility.yul\":4398:4407   */\n      dup6\n        /* \"#utility.yul\":4394:4416   */\n      add\n        /* \"#utility.yul\":4373:4426   */\n      tag_317\n      jump\t// in\n    tag_343:\n        /* \"#utility.yul\":4363:4426   */\n      swap2\n      pop\n        /* \"#utility.yul\":4319:4436   */\n      pop\n        /* \"#utility.yul\":4247:4443   */\n      swap3\n      swap2\n      pop\n      pop\n      jump\t// out\n        /* \"#utility.yul\":4449:5227   */\n    tag_53:\n      0x00\n      dup1\n      0x00\n        /* \"#utility.yul\":4611:4613   */\n      0x60\n        /* \"#utility.yul\":4599:4608   */\n      dup5\n        /* \"#utility.yul\":4590:4597   */\n      dup7\n        /* \"#utility.yul\":4586:4609   */\n      sub\n        /* \"#utility.yul\":4582:4614   */\n      slt\n        /* \"#utility.yul\":4579:4581   */\n      iszero\n      tag_345\n      jumpi\n        /* \"#utility.yul\":4627:4628   */\n      0x00\n        /* \"#utility.yul\":4624:4625   */\n      dup1\n        /* \"#utility.yul\":4617:4629   */\n      revert\n        /* \"#utility.yul\":4579:4581   */\n    tag_345:\n        /* \"#utility.yul\":4670:4671   */\n      0x00\n        /* \"#utility.yul\":4695:4748   */\n      tag_346\n        /* \"#utility.yul\":4740:4747   */\n      dup7\n        /* \"#utility.yul\":4731:4737   */\n      dup3\n        /* \"#utility.yul\":4720:4729   */\n      dup8\n        /* \"#utility.yul\":4716:4738   */\n      add\n        /* \"#utility.yul\":4695:4748   */\n      tag_317\n      jump\t// in\n    tag_346:\n        /* \"#utility.yul\":4685:4748   */\n      swap4\n      pop\n        /* \"#utility.yul\":4641:4758   */\n      pop\n        /* \"#utility.yul\":4825:4827   */\n      0x20\n        /* \"#utility.yul\":4814:4823   */\n      dup5\n        /* \"#utility.yul\":4810:4828   */\n      add\n        /* \"#utility.yul\":4797:4829   */\n      calldataload\n        /* \"#utility.yul\":4856:4874   */\n      0xffffffffffffffff\n        /* \"#utility.yul\":4848:4854   */\n      dup2\n        /* \"#utility.yul\":4845:4875   */\n      gt\n        /* \"#utility.yul\":4842:4844   */\n      iszero\n      tag_347\n      jumpi\n        /* \"#utility.yul\":4888:4889   */\n      0x00\n        /* \"#utility.yul\":4885:4886   */\n      dup1\n        /* \"#utility.yul\":4878:4890   */\n      revert\n        /* \"#utility.yul\":4842:4844   */\n    tag_347:\n        /* \"#utility.yul\":4916:4979   */\n      tag_348\n        /* \"#utility.yul\":4971:4978   */\n      dup7\n        /* \"#utility.yul\":4962:4968   */\n      dup3\n        /* \"#utility.yul\":4951:4960   */\n      dup8\n        /* \"#utility.yul\":4947:4969   */\n      add\n        /* \"#utility.yul\":4916:4979   */\n      tag_313\n      jump\t// in\n    tag_348:\n        /* \"#utility.yul\":4906:4979   */\n      swap3\n      pop\n        /* \"#utility.yul\":4768:4989   */\n      pop\n        /* \"#utility.yul\":5056:5058   */\n      0x40\n        /* \"#utility.yul\":5045:5054   */\n      dup5\n        /* \"#utility.yul\":5041:5059   */\n      add\n        /* \"#utility.yul\":5028:5060   */\n      calldataload\n        /* \"#utility.yul\":5087:5105   */\n      0xffffffffffffffff\n        /* \"#utility.yul\":5079:5085   */\n      dup2\n        /* \"#utility.yul\":5076:5106   */\n      gt\n        /* \"#utility.yul\":5073:5075   */\n      iszero\n      tag_349\n      jumpi\n        /* \"#utility.yul\":5119:5120   */\n      0x00\n        /* \"#utility.yul\":5116:5117   */\n      dup1\n        /* \"#utility.yul\":5109:5121   */\n      revert\n        /* \"#utility.yul\":5073:5075   */\n    tag_349:\n        /* \"#utility.yul\":5147:5210   */\n      tag_350\n        /* \"#utility.yul\":5202:5209   */\n      dup7\n        /* \"#utility.yul\":5193:5199   */\n      dup3\n        /* \"#utility.yul\":5182:5191   */\n      dup8\n        /* \"#utility.yul\":5178:5200   */\n      add\n        /* \"#utility.yul\":5147:5210   */\n      tag_313\n      jump\t// in\n    tag_350:\n        /* \"#utility.yul\":5137:5210   */\n      swap2\n      pop\n        /* \"#utility.yul\":4999:5220   */\n      pop\n        /* \"#utility.yul\":4569:5227   */\n      swap3\n      pop\n      swap3\n      pop\n      swap3\n      jump\t// out\n        /* \"#utility.yul\":5233:6369   */\n    tag_27:\n      0x00\n      dup1\n      0x00\n      dup1\n      0x00\n      dup1\n      0x00\n        /* \"#utility.yul\":5443:5446   */\n      0xe0\n        /* \"#utility.yul\":5431:5440   */\n      dup9\n        /* \"#utility.yul\":5422:5429   */\n      dup11\n        /* \"#utility.yul\":5418:5441   */\n      sub\n        /* \"#utility.yul\":5414:5447   */\n      slt\n        /* \"#utility.yul\":5411:5413   */\n      iszero\n      tag_352\n      jumpi\n        /* \"#utility.yul\":5460:5461   */\n      0x00\n        /* \"#utility.yul\":5457:5458   */\n      dup1\n        /* \"#utility.yul\":5450:5462   */\n      revert\n        /* \"#utility.yul\":5411:5413   */\n    tag_352:\n        /* \"#utility.yul\":5503:5504   */\n      0x00\n        /* \"#utility.yul\":5528:5581   */\n      tag_353\n        /* \"#utility.yul\":5573:5580   */\n      dup11\n        /* \"#utility.yul\":5564:5570   */\n      dup3\n        /* \"#utility.yul\":5553:5562   */\n      dup12\n        /* \"#utility.yul\":5549:5571   */\n      add\n        /* \"#utility.yul\":5528:5581   */\n      tag_317\n      jump\t// in\n    tag_353:\n        /* \"#utility.yul\":5518:5581   */\n      swap8\n      pop\n        /* \"#utility.yul\":5474:5591   */\n      pop\n        /* \"#utility.yul\":5630:5632   */\n      0x20\n        /* \"#utility.yul\":5656:5709   */\n      tag_354\n        /* \"#utility.yul\":5701:5708   */\n      dup11\n        /* \"#utility.yul\":5692:5698   */\n      dup3\n        /* \"#utility.yul\":5681:5690   */\n      dup12\n        /* \"#utility.yul\":5677:5699   */\n      add\n        /* \"#utility.yul\":5656:5709   */\n      tag_317\n      jump\t// in\n    tag_354:\n        /* \"#utility.yul\":5646:5709   */\n      swap7\n      pop\n        /* \"#utility.yul\":5601:5719   */\n      pop\n        /* \"#utility.yul\":5758:5760   */\n      0x40\n        /* \"#utility.yul\":5784:5837   */\n      tag_355\n        /* \"#utility.yul\":5829:5836   */\n      dup11\n        /* \"#utility.yul\":5820:5826   */\n      dup3\n        /* \"#utility.yul\":5809:5818   */\n      dup12\n        /* \"#utility.yul\":5805:5827   */\n      add\n        /* \"#utility.yul\":5784:5837   */\n      tag_317\n      jump\t// in\n    tag_355:\n        /* \"#utility.yul\":5774:5837   */\n      swap6\n      pop\n        /* \"#utility.yul\":5729:5847   */\n      pop\n        /* \"#utility.yul\":5886:5888   */\n      0x60\n        /* \"#utility.yul\":5912:5965   */\n      tag_356\n        /* \"#utility.yul\":5957:5964   */\n      dup11\n        /* \"#utility.yul\":5948:5954   */\n      dup3\n        /* \"#utility.yul\":5937:5946   */\n      dup12\n        /* \"#utility.yul\":5933:5955   */\n      add\n        /* \"#utility.yul\":5912:5965   */\n      tag_317\n      jump\t// in\n    tag_356:\n        /* \"#utility.yul\":5902:5965   */\n      swap5\n      pop\n        /* \"#utility.yul\":5857:5975   */\n      pop\n        /* \"#utility.yul\":6014:6017   */\n      0x80\n        /* \"#utility.yul\":6041:6094   */\n      tag_357\n        /* \"#utility.yul\":6086:6093   */\n      dup11\n        /* \"#utility.yul\":6077:6083   */\n      dup3\n        /* \"#utility.yul\":6066:6075   */\n      dup12\n        /* \"#utility.yul\":6062:6084   */\n      add\n        /* \"#utility.yul\":6041:6094   */\n      tag_297\n      jump\t// in\n    tag_357:\n        /* \"#utility.yul\":6031:6094   */\n      swap4\n      pop\n        /* \"#utility.yul\":5985:6104   */\n      pop\n        /* \"#utility.yul\":6143:6146   */\n      0xa0\n        /* \"#utility.yul\":6170:6223   */\n      tag_358\n        /* \"#utility.yul\":6215:6222   */\n      dup11\n        /* \"#utility.yul\":6206:6212   */\n      dup3\n        /* \"#utility.yul\":6195:6204   */\n      dup12\n        /* \"#utility.yul\":6191:6213   */\n      add\n        /* \"#utility.yul\":6170:6223   */\n      tag_317\n      jump\t// in\n    tag_358:\n        /* \"#utility.yul\":6160:6223   */\n      swap3\n      pop\n        /* \"#utility.yul\":6114:6233   */\n      pop\n        /* \"#utility.yul\":6272:6275   */\n      0xc0\n        /* \"#utility.yul\":6299:6352   */\n      tag_359\n        /* \"#utility.yul\":6344:6351   */\n      dup11\n        /* \"#utility.yul\":6335:6341   */\n      dup3\n        /* \"#utility.yul\":6324:6333   */\n      dup12\n        /* \"#utility.yul\":6320:6342   */\n      add\n        /* \"#utility.yul\":6299:6352   */\n      tag_317\n      jump\t// in\n    tag_359:\n        /* \"#utility.yul\":6289:6352   */\n      swap2\n      pop\n        /* \"#utility.yul\":6243:6362   */\n      pop\n        /* \"#utility.yul\":5401:6369   */\n      swap3\n      swap6\n      swap9\n      swap2\n      swap5\n      swap8\n      pop\n      swap3\n      swap6\n      pop\n      jump\t// out\n        /* \"#utility.yul\":6375:6483   */\n    tag_360:\n        /* \"#utility.yul\":6452:6476   */\n      tag_362\n        /* \"#utility.yul\":6470:6475   */\n      dup2\n        /* \"#utility.yul\":6452:6476   */\n      tag_363\n      jump\t// in\n    tag_362:\n        /* \"#utility.yul\":6447:6450   */\n      dup3\n        /* \"#utility.yul\":6440:6477   */\n      mstore\n        /* \"#utility.yul\":6430:6483   */\n      pop\n      pop\n      jump\t// out\n        /* \"#utility.yul\":6489:6607   */\n    tag_364:\n        /* \"#utility.yul\":6576:6600   */\n      tag_366\n        /* \"#utility.yul\":6594:6599   */\n      dup2\n        /* \"#utility.yul\":6576:6600   */\n      tag_363\n      jump\t// in\n    tag_366:\n        /* \"#utility.yul\":6571:6574   */\n      dup3\n        /* \"#utility.yul\":6564:6601   */\n      mstore\n        /* \"#utility.yul\":6554:6607   */\n      pop\n      pop\n      jump\t// out\n        /* \"#utility.yul\":6613:6712   */\n    tag_367:\n        /* \"#utility.yul\":6684:6705   */\n      tag_369\n        /* \"#utility.yul\":6699:6704   */\n      dup2\n        /* \"#utility.yul\":6684:6705   */\n      tag_370\n      jump\t// in\n    tag_369:\n        /* \"#utility.yul\":6679:6682   */\n      dup3\n        /* \"#utility.yul\":6672:6706   */\n      mstore\n        /* \"#utility.yul\":6662:6712   */\n      pop\n      pop\n      jump\t// out\n        /* \"#utility.yul\":6718:6827   */\n    tag_371:\n        /* \"#utility.yul\":6799:6820   */\n      tag_373\n        /* \"#utility.yul\":6814:6819   */\n      dup2\n        /* \"#utility.yul\":6799:6820   */\n      tag_370\n      jump\t// in\n    tag_373:\n        /* \"#utility.yul\":6794:6797   */\n      dup3\n        /* \"#utility.yul\":6787:6821   */\n      mstore\n        /* \"#utility.yul\":6777:6827   */\n      pop\n      pop\n      jump\t// out\n        /* \"#utility.yul\":6833:6974   */\n    tag_374:\n        /* \"#utility.yul\":6920:6967   */\n      tag_376\n        /* \"#utility.yul\":6961:6966   */\n      dup2\n        /* \"#utility.yul\":6920:6967   */\n      tag_377\n      jump\t// in\n    tag_376:\n        /* \"#utility.yul\":6915:6918   */\n      dup3\n        /* \"#utility.yul\":6908:6968   */\n      mstore\n        /* \"#utility.yul\":6898:6974   */\n      pop\n      pop\n      jump\t// out\n        /* \"#utility.yul\":6980:7324   */\n    tag_378:\n      0x00\n        /* \"#utility.yul\":7086:7125   */\n      tag_380\n        /* \"#utility.yul\":7119:7124   */\n      dup3\n        /* \"#utility.yul\":7086:7125   */\n      tag_381\n      jump\t// in\n    tag_380:\n        /* \"#utility.yul\":7141:7202   */\n      tag_382\n        /* \"#utility.yul\":7195:7201   */\n      dup2\n        /* \"#utility.yul\":7190:7193   */\n      dup6\n        /* \"#utility.yul\":7141:7202   */\n      tag_383\n      jump\t// in\n    tag_382:\n        /* \"#utility.yul\":7134:7202   */\n      swap4\n      pop\n        /* \"#utility.yul\":7211:7263   */\n      tag_384\n        /* \"#utility.yul\":7256:7262   */\n      dup2\n        /* \"#utility.yul\":7251:7254   */\n      dup6\n        /* \"#utility.yul\":7244:7248   */\n      0x20\n        /* \"#utility.yul\":7237:7242   */\n      dup7\n        /* \"#utility.yul\":7233:7249   */\n      add\n        /* \"#utility.yul\":7211:7263   */\n      tag_385\n      jump\t// in\n    tag_384:\n        /* \"#utility.yul\":7288:7317   */\n      tag_386\n        /* \"#utility.yul\":7310:7316   */\n      dup2\n        /* \"#utility.yul\":7288:7317   */\n      tag_387\n      jump\t// in\n    tag_386:\n        /* \"#utility.yul\":7283:7286   */\n      dup5\n        /* \"#utility.yul\":7279:7318   */\n      add\n        /* \"#utility.yul\":7272:7318   */\n      swap2\n      pop\n        /* \"#utility.yul\":7062:7324   */\n      pop\n      swap3\n      swap2\n      pop\n      pop\n      jump\t// out\n        /* \"#utility.yul\":7330:7694   */\n    tag_388:\n      0x00\n        /* \"#utility.yul\":7446:7485   */\n      tag_390\n        /* \"#utility.yul\":7479:7484   */\n      dup3\n        /* \"#utility.yul\":7446:7485   */\n      tag_381\n      jump\t// in\n    tag_390:\n        /* \"#utility.yul\":7501:7572   */\n      tag_391\n        /* \"#utility.yul\":7565:7571   */\n      dup2\n        /* \"#utility.yul\":7560:7563   */\n      dup6\n        /* \"#utility.yul\":7501:7572   */\n      tag_392\n      jump\t// in\n    tag_391:\n        /* \"#utility.yul\":7494:7572   */\n      swap4\n      pop\n        /* \"#utility.yul\":7581:7633   */\n      tag_393\n        /* \"#utility.yul\":7626:7632   */\n      dup2\n        /* \"#utility.yul\":7621:7624   */\n      dup6\n        /* \"#utility.yul\":7614:7618   */\n      0x20\n        /* \"#utility.yul\":7607:7612   */\n      dup7\n        /* \"#utility.yul\":7603:7619   */\n      add\n        /* \"#utility.yul\":7581:7633   */\n      tag_385\n      jump\t// in\n    tag_393:\n        /* \"#utility.yul\":7658:7687   */\n      tag_394\n        /* \"#utility.yul\":7680:7686   */\n      dup2\n        /* \"#utility.yul\":7658:7687   */\n      tag_387\n      jump\t// in\n    tag_394:\n        /* \"#utility.yul\":7653:7656   */\n      dup5\n        /* \"#utility.yul\":7649:7688   */\n      add\n        /* \"#utility.yul\":7642:7688   */\n      swap2\n      pop\n        /* \"#utility.yul\":7422:7694   */\n      pop\n      swap3\n      swap2\n      pop\n      pop\n      jump\t// out\n        /* \"#utility.yul\":7700:8077   */\n    tag_395:\n      0x00\n        /* \"#utility.yul\":7834:7873   */\n      tag_397\n        /* \"#utility.yul\":7867:7872   */\n      dup3\n        /* \"#utility.yul\":7834:7873   */\n      tag_381\n      jump\t// in\n    tag_397:\n        /* \"#utility.yul\":7889:7978   */\n      tag_398\n        /* \"#utility.yul\":7971:7977   */\n      dup2\n        /* \"#utility.yul\":7966:7969   */\n      dup6\n        /* \"#utility.yul\":7889:7978   */\n      tag_399\n      jump\t// in\n    tag_398:\n        /* \"#utility.yul\":7882:7978   */\n      swap4\n      pop\n        /* \"#utility.yul\":7987:8039   */\n      tag_400\n        /* \"#utility.yul\":8032:8038   */\n      dup2\n        /* \"#utility.yul\":8027:8030   */\n      dup6\n        /* \"#utility.yul\":8020:8024   */\n      0x20\n        /* \"#utility.yul\":8013:8018   */\n      dup7\n        /* \"#utility.yul\":8009:8025   */\n      add\n        /* \"#utility.yul\":7987:8039   */\n      tag_385\n      jump\t// in\n    tag_400:\n        /* \"#utility.yul\":8064:8070   */\n      dup1\n        /* \"#utility.yul\":8059:8062   */\n      dup5\n        /* \"#utility.yul\":8055:8071   */\n      add\n        /* \"#utility.yul\":8048:8071   */\n      swap2\n      pop\n        /* \"#utility.yul\":7810:8077   */\n      pop\n      swap3\n      swap2\n      pop\n      pop\n      jump\t// out\n        /* \"#utility.yul\":8151:10730   */\n    tag_401:\n      0x00\n        /* \"#utility.yul\":8302:8308   */\n      0x0180\n        /* \"#utility.yul\":8297:8300   */\n      dup4\n        /* \"#utility.yul\":8293:8309   */\n      add\n        /* \"#utility.yul\":8389:8393   */\n      0x00\n        /* \"#utility.yul\":8382:8387   */\n      dup4\n        /* \"#utility.yul\":8378:8394   */\n      add\n        /* \"#utility.yul\":8372:8395   */\n      mload\n        /* \"#utility.yul\":8408:8471   */\n      tag_403\n        /* \"#utility.yul\":8465:8469   */\n      0x00\n        /* \"#utility.yul\":8460:8463   */\n      dup7\n        /* \"#utility.yul\":8456:8470   */\n      add\n        /* \"#utility.yul\":8442:8454   */\n      dup3\n        /* \"#utility.yul\":8408:8471   */\n      tag_404\n      jump\t// in\n    tag_403:\n        /* \"#utility.yul\":8319:8481   */\n      pop\n        /* \"#utility.yul\":8563:8567   */\n      0x20\n        /* \"#utility.yul\":8556:8561   */\n      dup4\n        /* \"#utility.yul\":8552:8568   */\n      add\n        /* \"#utility.yul\":8546:8569   */\n      mload\n        /* \"#utility.yul\":8582:8645   */\n      tag_405\n        /* \"#utility.yul\":8639:8643   */\n      0x20\n        /* \"#utility.yul\":8634:8637   */\n      dup7\n        /* \"#utility.yul\":8630:8644   */\n      add\n        /* \"#utility.yul\":8616:8628   */\n      dup3\n        /* \"#utility.yul\":8582:8645   */\n      tag_404\n      jump\t// in\n    tag_405:\n        /* \"#utility.yul\":8491:8655   */\n      pop\n        /* \"#utility.yul\":8739:8743   */\n      0x40\n        /* \"#utility.yul\":8732:8737   */\n      dup4\n        /* \"#utility.yul\":8728:8744   */\n      add\n        /* \"#utility.yul\":8722:8745   */\n      mload\n        /* \"#utility.yul\":8758:8821   */\n      tag_406\n        /* \"#utility.yul\":8815:8819   */\n      0x40\n        /* \"#utility.yul\":8810:8813   */\n      dup7\n        /* \"#utility.yul\":8806:8820   */\n      add\n        /* \"#utility.yul\":8792:8804   */\n      dup3\n        /* \"#utility.yul\":8758:8821   */\n      tag_404\n      jump\t// in\n    tag_406:\n        /* \"#utility.yul\":8665:8831   */\n      pop\n        /* \"#utility.yul\":8928:8932   */\n      0x60\n        /* \"#utility.yul\":8921:8926   */\n      dup4\n        /* \"#utility.yul\":8917:8933   */\n      add\n        /* \"#utility.yul\":8911:8934   */\n      mload\n        /* \"#utility.yul\":8947:9010   */\n      tag_407\n        /* \"#utility.yul\":9004:9008   */\n      0x60\n        /* \"#utility.yul\":8999:9002   */\n      dup7\n        /* \"#utility.yul\":8995:9009   */\n      add\n        /* \"#utility.yul\":8981:8993   */\n      dup3\n        /* \"#utility.yul\":8947:9010   */\n      tag_404\n      jump\t// in\n    tag_407:\n        /* \"#utility.yul\":8841:9020   */\n      pop\n        /* \"#utility.yul\":9110:9114   */\n      0x80\n        /* \"#utility.yul\":9103:9108   */\n      dup4\n        /* \"#utility.yul\":9099:9115   */\n      add\n        /* \"#utility.yul\":9093:9116   */\n      mload\n        /* \"#utility.yul\":9129:9192   */\n      tag_408\n        /* \"#utility.yul\":9186:9190   */\n      0x80\n        /* \"#utility.yul\":9181:9184   */\n      dup7\n        /* \"#utility.yul\":9177:9191   */\n      add\n        /* \"#utility.yul\":9163:9175   */\n      dup3\n        /* \"#utility.yul\":9129:9192   */\n      tag_360\n      jump\t// in\n    tag_408:\n        /* \"#utility.yul\":9030:9202   */\n      pop\n        /* \"#utility.yul\":9292:9296   */\n      0xa0\n        /* \"#utility.yul\":9285:9290   */\n      dup4\n        /* \"#utility.yul\":9281:9297   */\n      add\n        /* \"#utility.yul\":9275:9298   */\n      mload\n        /* \"#utility.yul\":9311:9374   */\n      tag_409\n        /* \"#utility.yul\":9368:9372   */\n      0xa0\n        /* \"#utility.yul\":9363:9366   */\n      dup7\n        /* \"#utility.yul\":9359:9373   */\n      add\n        /* \"#utility.yul\":9345:9357   */\n      dup3\n        /* \"#utility.yul\":9311:9374   */\n      tag_404\n      jump\t// in\n    tag_409:\n        /* \"#utility.yul\":9212:9384   */\n      pop\n        /* \"#utility.yul\":9474:9478   */\n      0xc0\n        /* \"#utility.yul\":9467:9472   */\n      dup4\n        /* \"#utility.yul\":9463:9479   */\n      add\n        /* \"#utility.yul\":9457:9480   */\n      mload\n        /* \"#utility.yul\":9493:9556   */\n      tag_410\n        /* \"#utility.yul\":9550:9554   */\n      0xc0\n        /* \"#utility.yul\":9545:9548   */\n      dup7\n        /* \"#utility.yul\":9541:9555   */\n      add\n        /* \"#utility.yul\":9527:9539   */\n      dup3\n        /* \"#utility.yul\":9493:9556   */\n      tag_404\n      jump\t// in\n    tag_410:\n        /* \"#utility.yul\":9394:9566   */\n      pop\n        /* \"#utility.yul\":9649:9653   */\n      0xe0\n        /* \"#utility.yul\":9642:9647   */\n      dup4\n        /* \"#utility.yul\":9638:9654   */\n      add\n        /* \"#utility.yul\":9632:9655   */\n      mload\n        /* \"#utility.yul\":9668:9731   */\n      tag_411\n        /* \"#utility.yul\":9725:9729   */\n      0xe0\n        /* \"#utility.yul\":9720:9723   */\n      dup7\n        /* \"#utility.yul\":9716:9730   */\n      add\n        /* \"#utility.yul\":9702:9714   */\n      dup3\n        /* \"#utility.yul\":9668:9731   */\n      tag_360\n      jump\t// in\n    tag_411:\n        /* \"#utility.yul\":9576:9741   */\n      pop\n        /* \"#utility.yul\":9826:9832   */\n      0x0100\n        /* \"#utility.yul\":9819:9824   */\n      dup4\n        /* \"#utility.yul\":9815:9833   */\n      add\n        /* \"#utility.yul\":9809:9834   */\n      mload\n        /* \"#utility.yul\":9883:9886   */\n      dup5\n        /* \"#utility.yul\":9877:9881   */\n      dup3\n        /* \"#utility.yul\":9873:9887   */\n      sub\n        /* \"#utility.yul\":9864:9870   */\n      0x0100\n        /* \"#utility.yul\":9859:9862   */\n      dup7\n        /* \"#utility.yul\":9855:9871   */\n      add\n        /* \"#utility.yul\":9848:9888   */\n      mstore\n        /* \"#utility.yul\":9909:10010   */\n      tag_412\n        /* \"#utility.yul\":10005:10009   */\n      dup3\n        /* \"#utility.yul\":9991:10003   */\n      dup3\n        /* \"#utility.yul\":9909:10010   */\n      tag_413\n      jump\t// in\n    tag_412:\n        /* \"#utility.yul\":9901:10010   */\n      swap2\n      pop\n        /* \"#utility.yul\":9751:10021   */\n      pop\n        /* \"#utility.yul\":10107:10113   */\n      0x0120\n        /* \"#utility.yul\":10100:10105   */\n      dup4\n        /* \"#utility.yul\":10096:10114   */\n      add\n        /* \"#utility.yul\":10090:10115   */\n      mload\n        /* \"#utility.yul\":10164:10167   */\n      dup5\n        /* \"#utility.yul\":10158:10162   */\n      dup3\n        /* \"#utility.yul\":10154:10168   */\n      sub\n        /* \"#utility.yul\":10145:10151   */\n      0x0120\n        /* \"#utility.yul\":10140:10143   */\n      dup7\n        /* \"#utility.yul\":10136:10152   */\n      add\n        /* \"#utility.yul\":10129:10169   */\n      mstore\n        /* \"#utility.yul\":10190:10263   */\n      tag_414\n        /* \"#utility.yul\":10258:10262   */\n      dup3\n        /* \"#utility.yul\":10244:10256   */\n      dup3\n        /* \"#utility.yul\":10190:10263   */\n      tag_378\n      jump\t// in\n    tag_414:\n        /* \"#utility.yul\":10182:10263   */\n      swap2\n      pop\n        /* \"#utility.yul\":10031:10274   */\n      pop\n        /* \"#utility.yul\":10362:10368   */\n      0x0140\n        /* \"#utility.yul\":10355:10360   */\n      dup4\n        /* \"#utility.yul\":10351:10369   */\n      add\n        /* \"#utility.yul\":10345:10370   */\n      mload\n        /* \"#utility.yul\":10383:10442   */\n      tag_415\n        /* \"#utility.yul\":10434:10440   */\n      0x0140\n        /* \"#utility.yul\":10429:10432   */\n      dup7\n        /* \"#utility.yul\":10425:10441   */\n      add\n        /* \"#utility.yul\":10411:10423   */\n      dup3\n        /* \"#utility.yul\":10383:10442   */\n      tag_367\n      jump\t// in\n    tag_415:\n        /* \"#utility.yul\":10284:10452   */\n      pop\n        /* \"#utility.yul\":10536:10542   */\n      0x0160\n        /* \"#utility.yul\":10529:10534   */\n      dup4\n        /* \"#utility.yul\":10525:10543   */\n      add\n        /* \"#utility.yul\":10519:10544   */\n      mload\n        /* \"#utility.yul\":10593:10596   */\n      dup5\n        /* \"#utility.yul\":10587:10591   */\n      dup3\n        /* \"#utility.yul\":10583:10597   */\n      sub\n        /* \"#utility.yul\":10574:10580   */\n      0x0160\n        /* \"#utility.yul\":10569:10572   */\n      dup7\n        /* \"#utility.yul\":10565:10581   */\n      add\n        /* \"#utility.yul\":10558:10598   */\n      mstore\n        /* \"#utility.yul\":10619:10692   */\n      tag_416\n        /* \"#utility.yul\":10687:10691   */\n      dup3\n        /* \"#utility.yul\":10673:10685   */\n      dup3\n        /* \"#utility.yul\":10619:10692   */\n      tag_378\n      jump\t// in\n    tag_416:\n        /* \"#utility.yul\":10611:10692   */\n      swap2\n      pop\n        /* \"#utility.yul\":10462:10703   */\n      pop\n        /* \"#utility.yul\":10720:10724   */\n      dup1\n        /* \"#utility.yul\":10713:10724   */\n      swap2\n      pop\n        /* \"#utility.yul\":8271:10730   */\n      pop\n      swap3\n      swap2\n      pop\n      pop\n      jump\t// out\n        /* \"#utility.yul\":10806:12241   */\n    tag_413:\n      0x00\n        /* \"#utility.yul\":10949:10953   */\n      0xc0\n        /* \"#utility.yul\":10944:10947   */\n      dup4\n        /* \"#utility.yul\":10940:10954   */\n      add\n        /* \"#utility.yul\":11047:11051   */\n      0x00\n        /* \"#utility.yul\":11040:11045   */\n      dup4\n        /* \"#utility.yul\":11036:11052   */\n      add\n        /* \"#utility.yul\":11030:11053   */\n      mload\n        /* \"#utility.yul\":11100:11103   */\n      dup5\n        /* \"#utility.yul\":11094:11098   */\n      dup3\n        /* \"#utility.yul\":11090:11104   */\n      sub\n        /* \"#utility.yul\":11083:11087   */\n      0x00\n        /* \"#utility.yul\":11078:11081   */\n      dup7\n        /* \"#utility.yul\":11074:11088   */\n      add\n        /* \"#utility.yul\":11067:11105   */\n      mstore\n        /* \"#utility.yul\":11126:11199   */\n      tag_418\n        /* \"#utility.yul\":11194:11198   */\n      dup3\n        /* \"#utility.yul\":11180:11192   */\n      dup3\n        /* \"#utility.yul\":11126:11199   */\n      tag_378\n      jump\t// in\n    tag_418:\n        /* \"#utility.yul\":11118:11199   */\n      swap2\n      pop\n        /* \"#utility.yul\":10964:11210   */\n      pop\n        /* \"#utility.yul\":11293:11297   */\n      0x20\n        /* \"#utility.yul\":11286:11291   */\n      dup4\n        /* \"#utility.yul\":11282:11298   */\n      add\n        /* \"#utility.yul\":11276:11299   */\n      mload\n        /* \"#utility.yul\":11346:11349   */\n      dup5\n        /* \"#utility.yul\":11340:11344   */\n      dup3\n        /* \"#utility.yul\":11336:11350   */\n      sub\n        /* \"#utility.yul\":11329:11333   */\n      0x20\n        /* \"#utility.yul\":11324:11327   */\n      dup7\n        /* \"#utility.yul\":11320:11334   */\n      add\n        /* \"#utility.yul\":11313:11351   */\n      mstore\n        /* \"#utility.yul\":11372:11445   */\n      tag_419\n        /* \"#utility.yul\":11440:11444   */\n      dup3\n        /* \"#utility.yul\":11426:11438   */\n      dup3\n        /* \"#utility.yul\":11372:11445   */\n      tag_378\n      jump\t// in\n    tag_419:\n        /* \"#utility.yul\":11364:11445   */\n      swap2\n      pop\n        /* \"#utility.yul\":11220:11456   */\n      pop\n        /* \"#utility.yul\":11539:11543   */\n      0x40\n        /* \"#utility.yul\":11532:11537   */\n      dup4\n        /* \"#utility.yul\":11528:11544   */\n      add\n        /* \"#utility.yul\":11522:11545   */\n      mload\n        /* \"#utility.yul\":11558:11631   */\n      tag_420\n        /* \"#utility.yul\":11625:11629   */\n      0x40\n        /* \"#utility.yul\":11620:11623   */\n      dup7\n        /* \"#utility.yul\":11616:11630   */\n      add\n        /* \"#utility.yul\":11602:11614   */\n      dup3\n        /* \"#utility.yul\":11558:11631   */\n      tag_374\n      jump\t// in\n    tag_420:\n        /* \"#utility.yul\":11466:11641   */\n      pop\n        /* \"#utility.yul\":11728:11732   */\n      0x60\n        /* \"#utility.yul\":11721:11726   */\n      dup4\n        /* \"#utility.yul\":11717:11733   */\n      add\n        /* \"#utility.yul\":11711:11734   */\n      mload\n        /* \"#utility.yul\":11747:11820   */\n      tag_421\n        /* \"#utility.yul\":11814:11818   */\n      0x60\n        /* \"#utility.yul\":11809:11812   */\n      dup7\n        /* \"#utility.yul\":11805:11819   */\n      add\n        /* \"#utility.yul\":11791:11803   */\n      dup3\n        /* \"#utility.yul\":11747:11820   */\n      tag_374\n      jump\t// in\n    tag_421:\n        /* \"#utility.yul\":11651:11830   */\n      pop\n        /* \"#utility.yul\":11918:11922   */\n      0x80\n        /* \"#utility.yul\":11911:11916   */\n      dup4\n        /* \"#utility.yul\":11907:11923   */\n      add\n        /* \"#utility.yul\":11901:11924   */\n      mload\n        /* \"#utility.yul\":11937:12010   */\n      tag_422\n        /* \"#utility.yul\":12004:12008   */\n      0x80\n        /* \"#utility.yul\":11999:12002   */\n      dup7\n        /* \"#utility.yul\":11995:12009   */\n      add\n        /* \"#utility.yul\":11981:11993   */\n      dup3\n        /* \"#utility.yul\":11937:12010   */\n      tag_374\n      jump\t// in\n    tag_422:\n        /* \"#utility.yul\":11840:12020   */\n      pop\n        /* \"#utility.yul\":12112:12116   */\n      0xa0\n        /* \"#utility.yul\":12105:12110   */\n      dup4\n        /* \"#utility.yul\":12101:12117   */\n      add\n        /* \"#utility.yul\":12095:12118   */\n      mload\n        /* \"#utility.yul\":12131:12204   */\n      tag_423\n        /* \"#utility.yul\":12198:12202   */\n      0xa0\n        /* \"#utility.yul\":12193:12196   */\n      dup7\n        /* \"#utility.yul\":12189:12203   */\n      add\n        /* \"#utility.yul\":12175:12187   */\n      dup3\n        /* \"#utility.yul\":12131:12204   */\n      tag_374\n      jump\t// in\n    tag_423:\n        /* \"#utility.yul\":12030:12214   */\n      pop\n        /* \"#utility.yul\":12231:12235   */\n      dup1\n        /* \"#utility.yul\":12224:12235   */\n      swap2\n      pop\n        /* \"#utility.yul\":10918:12241   */\n      pop\n      swap3\n      swap2\n      pop\n      pop\n      jump\t// out\n        /* \"#utility.yul\":12317:13762   */\n    tag_424:\n      0x00\n        /* \"#utility.yul\":12470:12474   */\n      0xc0\n        /* \"#utility.yul\":12465:12468   */\n      dup4\n        /* \"#utility.yul\":12461:12475   */\n      add\n        /* \"#utility.yul\":12568:12572   */\n      0x00\n        /* \"#utility.yul\":12561:12566   */\n      dup4\n        /* \"#utility.yul\":12557:12573   */\n      add\n        /* \"#utility.yul\":12551:12574   */\n      mload\n        /* \"#utility.yul\":12621:12624   */\n      dup5\n        /* \"#utility.yul\":12615:12619   */\n      dup3\n        /* \"#utility.yul\":12611:12625   */\n      sub\n        /* \"#utility.yul\":12604:12608   */\n      0x00\n        /* \"#utility.yul\":12599:12602   */\n      dup7\n        /* \"#utility.yul\":12595:12609   */\n      add\n        /* \"#utility.yul\":12588:12626   */\n      mstore\n        /* \"#utility.yul\":12647:12720   */\n      tag_426\n        /* \"#utility.yul\":12715:12719   */\n      dup3\n        /* \"#utility.yul\":12701:12713   */\n      dup3\n        /* \"#utility.yul\":12647:12720   */\n      tag_378\n      jump\t// in\n    tag_426:\n        /* \"#utility.yul\":12639:12720   */\n      swap2\n      pop\n        /* \"#utility.yul\":12485:12731   */\n      pop\n        /* \"#utility.yul\":12814:12818   */\n      0x20\n        /* \"#utility.yul\":12807:12812   */\n      dup4\n        /* \"#utility.yul\":12803:12819   */\n      add\n        /* \"#utility.yul\":12797:12820   */\n      mload\n        /* \"#utility.yul\":12867:12870   */\n      dup5\n        /* \"#utility.yul\":12861:12865   */\n      dup3\n        /* \"#utility.yul\":12857:12871   */\n      sub\n        /* \"#utility.yul\":12850:12854   */\n      0x20\n        /* \"#utility.yul\":12845:12848   */\n      dup7\n        /* \"#utility.yul\":12841:12855   */\n      add\n        /* \"#utility.yul\":12834:12872   */\n      mstore\n        /* \"#utility.yul\":12893:12966   */\n      tag_427\n        /* \"#utility.yul\":12961:12965   */\n      dup3\n        /* \"#utility.yul\":12947:12959   */\n      dup3\n        /* \"#utility.yul\":12893:12966   */\n      tag_378\n      jump\t// in\n    tag_427:\n        /* \"#utility.yul\":12885:12966   */\n      swap2\n      pop\n        /* \"#utility.yul\":12741:12977   */\n      pop\n        /* \"#utility.yul\":13060:13064   */\n      0x40\n        /* \"#utility.yul\":13053:13058   */\n      dup4\n        /* \"#utility.yul\":13049:13065   */\n      add\n        /* \"#utility.yul\":13043:13066   */\n      mload\n        /* \"#utility.yul\":13079:13152   */\n      tag_428\n        /* \"#utility.yul\":13146:13150   */\n      0x40\n        /* \"#utility.yul\":13141:13144   */\n      dup7\n        /* \"#utility.yul\":13137:13151   */\n      add\n        /* \"#utility.yul\":13123:13135   */\n      dup3\n        /* \"#utility.yul\":13079:13152   */\n      tag_374\n      jump\t// in\n    tag_428:\n        /* \"#utility.yul\":12987:13162   */\n      pop\n        /* \"#utility.yul\":13249:13253   */\n      0x60\n        /* \"#utility.yul\":13242:13247   */\n      dup4\n        /* \"#utility.yul\":13238:13254   */\n      add\n        /* \"#utility.yul\":13232:13255   */\n      mload\n        /* \"#utility.yul\":13268:13341   */\n      tag_429\n        /* \"#utility.yul\":13335:13339   */\n      0x60\n        /* \"#utility.yul\":13330:13333   */\n      dup7\n        /* \"#utility.yul\":13326:13340   */\n      add\n        /* \"#utility.yul\":13312:13324   */\n      dup3\n        /* \"#utility.yul\":13268:13341   */\n      tag_374\n      jump\t// in\n    tag_429:\n        /* \"#utility.yul\":13172:13351   */\n      pop\n        /* \"#utility.yul\":13439:13443   */\n      0x80\n        /* \"#utility.yul\":13432:13437   */\n      dup4\n        /* \"#utility.yul\":13428:13444   */\n      add\n        /* \"#utility.yul\":13422:13445   */\n      mload\n        /* \"#utility.yul\":13458:13531   */\n      tag_430\n        /* \"#utility.yul\":13525:13529   */\n      0x80\n        /* \"#utility.yul\":13520:13523   */\n      dup7\n        /* \"#utility.yul\":13516:13530   */\n      add\n        /* \"#utility.yul\":13502:13514   */\n      dup3\n        /* \"#utility.yul\":13458:13531   */\n      tag_374\n      jump\t// in\n    tag_430:\n        /* \"#utility.yul\":13361:13541   */\n      pop\n        /* \"#utility.yul\":13633:13637   */\n      0xa0\n        /* \"#utility.yul\":13626:13631   */\n      dup4\n        /* \"#utility.yul\":13622:13638   */\n      add\n        /* \"#utility.yul\":13616:13639   */\n      mload\n        /* \"#utility.yul\":13652:13725   */\n      tag_431\n        /* \"#utility.yul\":13719:13723   */\n      0xa0\n        /* \"#utility.yul\":13714:13717   */\n      dup7\n        /* \"#utility.yul\":13710:13724   */\n      add\n        /* \"#utility.yul\":13696:13708   */\n      dup3\n        /* \"#utility.yul\":13652:13725   */\n      tag_374\n      jump\t// in\n    tag_431:\n        /* \"#utility.yul\":13551:13735   */\n      pop\n        /* \"#utility.yul\":13752:13756   */\n      dup1\n        /* \"#utility.yul\":13745:13756   */\n      swap2\n      pop\n        /* \"#utility.yul\":12439:13762   */\n      pop\n      swap3\n      swap2\n      pop\n      pop\n      jump\t// out\n        /* \"#utility.yul\":13768:13876   */\n    tag_404:\n        /* \"#utility.yul\":13845:13869   */\n      tag_433\n        /* \"#utility.yul\":13863:13868   */\n      dup2\n        /* \"#utility.yul\":13845:13869   */\n      tag_434\n      jump\t// in\n    tag_433:\n        /* \"#utility.yul\":13840:13843   */\n      dup3\n        /* \"#utility.yul\":13833:13870   */\n      mstore\n        /* \"#utility.yul\":13823:13876   */\n      pop\n      pop\n      jump\t// out\n        /* \"#utility.yul\":13882:14000   */\n    tag_435:\n        /* \"#utility.yul\":13969:13993   */\n      tag_437\n        /* \"#utility.yul\":13987:13992   */\n      dup2\n        /* \"#utility.yul\":13969:13993   */\n      tag_434\n      jump\t// in\n    tag_437:\n        /* \"#utility.yul\":13964:13967   */\n      dup3\n        /* \"#utility.yul\":13957:13994   */\n      mstore\n        /* \"#utility.yul\":13947:14000   */\n      pop\n      pop\n      jump\t// out\n        /* \"#utility.yul\":14006:14281   */\n    tag_267:\n      0x00\n        /* \"#utility.yul\":14160:14255   */\n      tag_439\n        /* \"#utility.yul\":14251:14254   */\n      dup3\n        /* \"#utility.yul\":14242:14248   */\n      dup5\n        /* \"#utility.yul\":14160:14255   */\n      tag_395\n      jump\t// in\n    tag_439:\n        /* \"#utility.yul\":14153:14255   */\n      swap2\n      pop\n        /* \"#utility.yul\":14272:14275   */\n      dup2\n        /* \"#utility.yul\":14265:14275   */\n      swap1\n      pop\n        /* \"#utility.yul\":14142:14281   */\n      swap3\n      swap2\n      pop\n      pop\n      jump\t// out\n        /* \"#utility.yul\":14287:14509   */\n    tag_24:\n      0x00\n        /* \"#utility.yul\":14418:14420   */\n      0x20\n        /* \"#utility.yul\":14407:14416   */\n      dup3\n        /* \"#utility.yul\":14403:14421   */\n      add\n        /* \"#utility.yul\":14395:14421   */\n      swap1\n      pop\n        /* \"#utility.yul\":14431:14502   */\n      tag_441\n        /* \"#utility.yul\":14499:14500   */\n      0x00\n        /* \"#utility.yul\":14488:14497   */\n      dup4\n        /* \"#utility.yul\":14484:14501   */\n      add\n        /* \"#utility.yul\":14475:14481   */\n      dup5\n        /* \"#utility.yul\":14431:14502   */\n      tag_364\n      jump\t// in\n    tag_441:\n        /* \"#utility.yul\":14385:14509   */\n      swap3\n      swap2\n      pop\n      pop\n      jump\t// out\n        /* \"#utility.yul\":14515:15250   */\n    tag_37:\n      0x00\n        /* \"#utility.yul\":14770:14773   */\n      0x80\n        /* \"#utility.yul\":14759:14768   */\n      dup3\n        /* \"#utility.yul\":14755:14774   */\n      add\n        /* \"#utility.yul\":14747:14774   */\n      swap1\n      pop\n        /* \"#utility.yul\":14784:14855   */\n      tag_443\n        /* \"#utility.yul\":14852:14853   */\n      0x00\n        /* \"#utility.yul\":14841:14850   */\n      dup4\n        /* \"#utility.yul\":14837:14854   */\n      add\n        /* \"#utility.yul\":14828:14834   */\n      dup8\n        /* \"#utility.yul\":14784:14855   */\n      tag_364\n      jump\t// in\n    tag_443:\n        /* \"#utility.yul\":14865:14937   */\n      tag_444\n        /* \"#utility.yul\":14933:14935   */\n      0x20\n        /* \"#utility.yul\":14922:14931   */\n      dup4\n        /* \"#utility.yul\":14918:14936   */\n      add\n        /* \"#utility.yul\":14909:14915   */\n      dup7\n        /* \"#utility.yul\":14865:14937   */\n      tag_435\n      jump\t// in\n    tag_444:\n        /* \"#utility.yul\":14984:14993   */\n      dup2\n        /* \"#utility.yul\":14978:14982   */\n      dup2\n        /* \"#utility.yul\":14974:14994   */\n      sub\n        /* \"#utility.yul\":14969:14971   */\n      0x40\n        /* \"#utility.yul\":14958:14967   */\n      dup4\n        /* \"#utility.yul\":14954:14972   */\n      add\n        /* \"#utility.yul\":14947:14995   */\n      mstore\n        /* \"#utility.yul\":15012:15090   */\n      tag_445\n        /* \"#utility.yul\":15085:15089   */\n      dup2\n        /* \"#utility.yul\":15076:15082   */\n      dup6\n        /* \"#utility.yul\":15012:15090   */\n      tag_388\n      jump\t// in\n    tag_445:\n        /* \"#utility.yul\":15004:15090   */\n      swap1\n      pop\n        /* \"#utility.yul\":15137:15146   */\n      dup2\n        /* \"#utility.yul\":15131:15135   */\n      dup2\n        /* \"#utility.yul\":15127:15147   */\n      sub\n        /* \"#utility.yul\":15122:15124   */\n      0x60\n        /* \"#utility.yul\":15111:15120   */\n      dup4\n        /* \"#utility.yul\":15107:15125   */\n      add\n        /* \"#utility.yul\":15100:15148   */\n      mstore\n        /* \"#utility.yul\":15165:15243   */\n      tag_446\n        /* \"#utility.yul\":15238:15242   */\n      dup2\n        /* \"#utility.yul\":15229:15235   */\n      dup5\n        /* \"#utility.yul\":15165:15243   */\n      tag_388\n      jump\t// in\n    tag_446:\n        /* \"#utility.yul\":15157:15243   */\n      swap1\n      pop\n        /* \"#utility.yul\":14737:15250   */\n      swap6\n      swap5\n      pop\n      pop\n      pop\n      pop\n      pop\n      jump\t// out\n        /* \"#utility.yul\":15256:15466   */\n    tag_56:\n      0x00\n        /* \"#utility.yul\":15381:15383   */\n      0x20\n        /* \"#utility.yul\":15370:15379   */\n      dup3\n        /* \"#utility.yul\":15366:15384   */\n      add\n        /* \"#utility.yul\":15358:15384   */\n      swap1\n      pop\n        /* \"#utility.yul\":15394:15459   */\n      tag_448\n        /* \"#utility.yul\":15456:15457   */\n      0x00\n        /* \"#utility.yul\":15445:15454   */\n      dup4\n        /* \"#utility.yul\":15441:15458   */\n      add\n        /* \"#utility.yul\":15432:15438   */\n      dup5\n        /* \"#utility.yul\":15394:15459   */\n      tag_371\n      jump\t// in\n    tag_448:\n        /* \"#utility.yul\":15348:15466   */\n      swap3\n      swap2\n      pop\n      pop\n      jump\t// out\n        /* \"#utility.yul\":15472:15785   */\n    tag_43:\n      0x00\n        /* \"#utility.yul\":15623:15625   */\n      0x20\n        /* \"#utility.yul\":15612:15621   */\n      dup3\n        /* \"#utility.yul\":15608:15626   */\n      add\n        /* \"#utility.yul\":15600:15626   */\n      swap1\n      pop\n        /* \"#utility.yul\":15672:15681   */\n      dup2\n        /* \"#utility.yul\":15666:15670   */\n      dup2\n        /* \"#utility.yul\":15662:15682   */\n      sub\n        /* \"#utility.yul\":15658:15659   */\n      0x00\n        /* \"#utility.yul\":15647:15656   */\n      dup4\n        /* \"#utility.yul\":15643:15660   */\n      add\n        /* \"#utility.yul\":15636:15683   */\n      mstore\n        /* \"#utility.yul\":15700:15778   */\n      tag_450\n        /* \"#utility.yul\":15773:15777   */\n      dup2\n        /* \"#utility.yul\":15764:15770   */\n      dup5\n        /* \"#utility.yul\":15700:15778   */\n      tag_388\n      jump\t// in\n    tag_450:\n        /* \"#utility.yul\":15692:15778   */\n      swap1\n      pop\n        /* \"#utility.yul\":15590:15785   */\n      swap3\n      swap2\n      pop\n      pop\n      jump\t// out\n        /* \"#utility.yul\":15791:16156   */\n    tag_20:\n      0x00\n        /* \"#utility.yul\":15968:15970   */\n      0x20\n        /* \"#utility.yul\":15957:15966   */\n      dup3\n        /* \"#utility.yul\":15953:15971   */\n      add\n        /* \"#utility.yul\":15945:15971   */\n      swap1\n      pop\n        /* \"#utility.yul\":16017:16026   */\n      dup2\n        /* \"#utility.yul\":16011:16015   */\n      dup2\n        /* \"#utility.yul\":16007:16027   */\n      sub\n        /* \"#utility.yul\":16003:16004   */\n      0x00\n        /* \"#utility.yul\":15992:16001   */\n      dup4\n        /* \"#utility.yul\":15988:16005   */\n      add\n        /* \"#utility.yul\":15981:16028   */\n      mstore\n        /* \"#utility.yul\":16045:16149   */\n      tag_452\n        /* \"#utility.yul\":16144:16148   */\n      dup2\n        /* \"#utility.yul\":16135:16141   */\n      dup5\n        /* \"#utility.yul\":16045:16149   */\n      tag_401\n      jump\t// in\n    tag_452:\n        /* \"#utility.yul\":16037:16149   */\n      swap1\n      pop\n        /* \"#utility.yul\":15935:16156   */\n      swap3\n      swap2\n      pop\n      pop\n      jump\t// out\n        /* \"#utility.yul\":16162:16384   */\n    tag_47:\n      0x00\n        /* \"#utility.yul\":16293:16295   */\n      0x20\n        /* \"#utility.yul\":16282:16291   */\n      dup3\n        /* \"#utility.yul\":16278:16296   */\n      add\n        /* \"#utility.yul\":16270:16296   */\n      swap1\n      pop\n        /* \"#utility.yul\":16306:16377   */\n      tag_454\n        /* \"#utility.yul\":16374:16375   */\n      0x00\n        /* \"#utility.yul\":16363:16372   */\n      dup4\n        /* \"#utility.yul\":16359:16376   */\n      add\n        /* \"#utility.yul\":16350:16356   */\n      dup5\n        /* \"#utility.yul\":16306:16377   */\n      tag_435\n      jump\t// in\n    tag_454:\n        /* \"#utility.yul\":16260:16384   */\n      swap3\n      swap2\n      pop\n      pop\n      jump\t// out\n        /* \"#utility.yul\":16390:18152   */\n    tag_66:\n      0x00\n        /* \"#utility.yul\":16913:16916   */\n      0x0180\n        /* \"#utility.yul\":16902:16911   */\n      dup3\n        /* \"#utility.yul\":16898:16917   */\n      add\n        /* \"#utility.yul\":16890:16917   */\n      swap1\n      pop\n        /* \"#utility.yul\":16927:16998   */\n      tag_456\n        /* \"#utility.yul\":16995:16996   */\n      0x00\n        /* \"#utility.yul\":16984:16993   */\n      dup4\n        /* \"#utility.yul\":16980:16997   */\n      add\n        /* \"#utility.yul\":16971:16977   */\n      dup16\n        /* \"#utility.yul\":16927:16998   */\n      tag_435\n      jump\t// in\n    tag_456:\n        /* \"#utility.yul\":17008:17080   */\n      tag_457\n        /* \"#utility.yul\":17076:17078   */\n      0x20\n        /* \"#utility.yul\":17065:17074   */\n      dup4\n        /* \"#utility.yul\":17061:17079   */\n      add\n        /* \"#utility.yul\":17052:17058   */\n      dup15\n        /* \"#utility.yul\":17008:17080   */\n      tag_435\n      jump\t// in\n    tag_457:\n        /* \"#utility.yul\":17090:17162   */\n      tag_458\n        /* \"#utility.yul\":17158:17160   */\n      0x40\n        /* \"#utility.yul\":17147:17156   */\n      dup4\n        /* \"#utility.yul\":17143:17161   */\n      add\n        /* \"#utility.yul\":17134:17140   */\n      dup14\n        /* \"#utility.yul\":17090:17162   */\n      tag_435\n      jump\t// in\n    tag_458:\n        /* \"#utility.yul\":17172:17244   */\n      tag_459\n        /* \"#utility.yul\":17240:17242   */\n      0x60\n        /* \"#utility.yul\":17229:17238   */\n      dup4\n        /* \"#utility.yul\":17225:17243   */\n      add\n        /* \"#utility.yul\":17216:17222   */\n      dup13\n        /* \"#utility.yul\":17172:17244   */\n      tag_435\n      jump\t// in\n    tag_459:\n        /* \"#utility.yul\":17254:17327   */\n      tag_460\n        /* \"#utility.yul\":17322:17325   */\n      0x80\n        /* \"#utility.yul\":17311:17320   */\n      dup4\n        /* \"#utility.yul\":17307:17326   */\n      add\n        /* \"#utility.yul\":17298:17304   */\n      dup12\n        /* \"#utility.yul\":17254:17327   */\n      tag_364\n      jump\t// in\n    tag_460:\n        /* \"#utility.yul\":17337:17410   */\n      tag_461\n        /* \"#utility.yul\":17405:17408   */\n      0xa0\n        /* \"#utility.yul\":17394:17403   */\n      dup4\n        /* \"#utility.yul\":17390:17409   */\n      add\n        /* \"#utility.yul\":17381:17387   */\n      dup11\n        /* \"#utility.yul\":17337:17410   */\n      tag_435\n      jump\t// in\n    tag_461:\n        /* \"#utility.yul\":17420:17493   */\n      tag_462\n        /* \"#utility.yul\":17488:17491   */\n      0xc0\n        /* \"#utility.yul\":17477:17486   */\n      dup4\n        /* \"#utility.yul\":17473:17492   */\n      add\n        /* \"#utility.yul\":17464:17470   */\n      dup10\n        /* \"#utility.yul\":17420:17493   */\n      tag_435\n      jump\t// in\n    tag_462:\n        /* \"#utility.yul\":17503:17576   */\n      tag_463\n        /* \"#utility.yul\":17571:17574   */\n      0xe0\n        /* \"#utility.yul\":17560:17569   */\n      dup4\n        /* \"#utility.yul\":17556:17575   */\n      add\n        /* \"#utility.yul\":17547:17553   */\n      dup9\n        /* \"#utility.yul\":17503:17576   */\n      tag_364\n      jump\t// in\n    tag_463:\n        /* \"#utility.yul\":17624:17633   */\n      dup2\n        /* \"#utility.yul\":17618:17622   */\n      dup2\n        /* \"#utility.yul\":17614:17634   */\n      sub\n        /* \"#utility.yul\":17608:17611   */\n      0x0100\n        /* \"#utility.yul\":17597:17606   */\n      dup4\n        /* \"#utility.yul\":17593:17612   */\n      add\n        /* \"#utility.yul\":17586:17635   */\n      mstore\n        /* \"#utility.yul\":17652:17758   */\n      tag_464\n        /* \"#utility.yul\":17753:17757   */\n      dup2\n        /* \"#utility.yul\":17744:17750   */\n      dup8\n        /* \"#utility.yul\":17652:17758   */\n      tag_424\n      jump\t// in\n    tag_464:\n        /* \"#utility.yul\":17644:17758   */\n      swap1\n      pop\n        /* \"#utility.yul\":17806:17815   */\n      dup2\n        /* \"#utility.yul\":17800:17804   */\n      dup2\n        /* \"#utility.yul\":17796:17816   */\n      sub\n        /* \"#utility.yul\":17790:17793   */\n      0x0120\n        /* \"#utility.yul\":17779:17788   */\n      dup4\n        /* \"#utility.yul\":17775:17794   */\n      add\n        /* \"#utility.yul\":17768:17817   */\n      mstore\n        /* \"#utility.yul\":17834:17912   */\n      tag_465\n        /* \"#utility.yul\":17907:17911   */\n      dup2\n        /* \"#utility.yul\":17898:17904   */\n      dup7\n        /* \"#utility.yul\":17834:17912   */\n      tag_388\n      jump\t// in\n    tag_465:\n        /* \"#utility.yul\":17826:17912   */\n      swap1\n      pop\n        /* \"#utility.yul\":17922:17990   */\n      tag_466\n        /* \"#utility.yul\":17985:17988   */\n      0x0140\n        /* \"#utility.yul\":17974:17983   */\n      dup4\n        /* \"#utility.yul\":17970:17989   */\n      add\n        /* \"#utility.yul\":17960:17967   */\n      dup6\n        /* \"#utility.yul\":17922:17990   */\n      tag_371\n      jump\t// in\n    tag_466:\n        /* \"#utility.yul\":18038:18047   */\n      dup2\n        /* \"#utility.yul\":18032:18036   */\n      dup2\n        /* \"#utility.yul\":18028:18048   */\n      sub\n        /* \"#utility.yul\":18022:18025   */\n      0x0160\n        /* \"#utility.yul\":18011:18020   */\n      dup4\n        /* \"#utility.yul\":18007:18026   */\n      add\n        /* \"#utility.yul\":18000:18049   */\n      mstore\n        /* \"#utility.yul\":18066:18145   */\n      tag_467\n        /* \"#utility.yul\":18140:18144   */\n      dup2\n        /* \"#utility.yul\":18130:18137   */\n      dup5\n        /* \"#utility.yul\":18066:18145   */\n      tag_388\n      jump\t// in\n    tag_467:\n        /* \"#utility.yul\":18058:18145   */\n      swap1\n      pop\n        /* \"#utility.yul\":16880:18152   */\n      swap14\n      swap13\n      pop\n      pop\n      pop\n      pop\n      pop\n      pop\n      pop\n      pop\n      pop\n      pop\n      pop\n      pop\n      pop\n      jump\t// out\n        /* \"#utility.yul\":18158:18441   */\n    tag_291:\n      0x00\n        /* \"#utility.yul\":18224:18226   */\n      0x40\n        /* \"#utility.yul\":18218:18227   */\n      mload\n        /* \"#utility.yul\":18208:18227   */\n      swap1\n      pop\n        /* \"#utility.yul\":18266:18270   */\n      dup2\n        /* \"#utility.yul\":18258:18264   */\n      dup2\n        /* \"#utility.yul\":18254:18271   */\n      add\n        /* \"#utility.yul\":18373:18379   */\n      dup2\n        /* \"#utility.yul\":18361:18371   */\n      dup2\n        /* \"#utility.yul\":18358:18380   */\n      lt\n        /* \"#utility.yul\":18337:18355   */\n      0xffffffffffffffff\n        /* \"#utility.yul\":18325:18335   */\n      dup3\n        /* \"#utility.yul\":18322:18356   */\n      gt\n        /* \"#utility.yul\":18319:18381   */\n      or\n        /* \"#utility.yul\":18316:18318   */\n      iszero\n      tag_469\n      jumpi\n        /* \"#utility.yul\":18384:18402   */\n      tag_470\n      tag_471\n      jump\t// in\n    tag_470:\n        /* \"#utility.yul\":18316:18318   */\n    tag_469:\n        /* \"#utility.yul\":18424:18434   */\n      dup1\n        /* \"#utility.yul\":18420:18422   */\n      0x40\n        /* \"#utility.yul\":18413:18435   */\n      mstore\n        /* \"#utility.yul\":18198:18441   */\n      pop\n      swap2\n      swap1\n      pop\n      jump\t// out\n        /* \"#utility.yul\":18447:18758   */\n    tag_290:\n      0x00\n        /* \"#utility.yul\":18614:18632   */\n      0xffffffffffffffff\n        /* \"#utility.yul\":18606:18612   */\n      dup3\n        /* \"#utility.yul\":18603:18633   */\n      gt\n        /* \"#utility.yul\":18600:18602   */\n      iszero\n      tag_473\n      jumpi\n        /* \"#utility.yul\":18636:18654   */\n      tag_474\n      tag_471\n      jump\t// in\n    tag_474:\n        /* \"#utility.yul\":18600:18602   */\n    tag_473:\n        /* \"#utility.yul\":18686:18690   */\n      0x20\n        /* \"#utility.yul\":18678:18684   */\n      dup3\n        /* \"#utility.yul\":18674:18691   */\n      mul\n        /* \"#utility.yul\":18666:18691   */\n      swap1\n      pop\n        /* \"#utility.yul\":18746:18750   */\n      0x20\n        /* \"#utility.yul\":18740:18744   */\n      dup2\n        /* \"#utility.yul\":18736:18751   */\n      add\n        /* \"#utility.yul\":18728:18751   */\n      swap1\n      pop\n        /* \"#utility.yul\":18529:18758   */\n      swap2\n      swap1\n      pop\n      jump\t// out\n        /* \"#utility.yul\":18764:19096   */\n    tag_302:\n      0x00\n        /* \"#utility.yul\":18916:18934   */\n      0xffffffffffffffff\n        /* \"#utility.yul\":18908:18914   */\n      dup3\n        /* \"#utility.yul\":18905:18935   */\n      gt\n        /* \"#utility.yul\":18902:18904   */\n      iszero\n      tag_476\n      jumpi\n        /* \"#utility.yul\":18938:18956   */\n      tag_477\n      tag_471\n      jump\t// in\n    tag_477:\n        /* \"#utility.yul\":18902:18904   */\n    tag_476:\n        /* \"#utility.yul\":19023:19027   */\n      0x1f\n        /* \"#utility.yul\":19019:19028   */\n      not\n        /* \"#utility.yul\":19012:19016   */\n      0x1f\n        /* \"#utility.yul\":19004:19010   */\n      dup4\n        /* \"#utility.yul\":19000:19017   */\n      add\n        /* \"#utility.yul\":18996:19029   */\n      and\n        /* \"#utility.yul\":18988:19029   */\n      swap1\n      pop\n        /* \"#utility.yul\":19084:19088   */\n      0x20\n        /* \"#utility.yul\":19078:19082   */\n      dup2\n        /* \"#utility.yul\":19074:19089   */\n      add\n        /* \"#utility.yul\":19066:19089   */\n      swap1\n      pop\n        /* \"#utility.yul\":18831:19096   */\n      swap2\n      swap1\n      pop\n      jump\t// out\n        /* \"#utility.yul\":19102:19201   */\n    tag_381:\n      0x00\n        /* \"#utility.yul\":19188:19193   */\n      dup2\n        /* \"#utility.yul\":19182:19194   */\n      mload\n        /* \"#utility.yul\":19172:19194   */\n      swap1\n      pop\n        /* \"#utility.yul\":19161:19201   */\n      swap2\n      swap1\n      pop\n      jump\t// out\n        /* \"#utility.yul\":19207:19366   */\n    tag_383:\n      0x00\n        /* \"#utility.yul\":19315:19321   */\n      dup3\n        /* \"#utility.yul\":19310:19313   */\n      dup3\n        /* \"#utility.yul\":19303:19322   */\n      mstore\n        /* \"#utility.yul\":19355:19359   */\n      0x20\n        /* \"#utility.yul\":19350:19353   */\n      dup3\n        /* \"#utility.yul\":19346:19360   */\n      add\n        /* \"#utility.yul\":19331:19360   */\n      swap1\n      pop\n        /* \"#utility.yul\":19293:19366   */\n      swap3\n      swap2\n      pop\n      pop\n      jump\t// out\n        /* \"#utility.yul\":19372:19541   */\n    tag_392:\n      0x00\n        /* \"#utility.yul\":19490:19496   */\n      dup3\n        /* \"#utility.yul\":19485:19488   */\n      dup3\n        /* \"#utility.yul\":19478:19497   */\n      mstore\n        /* \"#utility.yul\":19530:19534   */\n      0x20\n        /* \"#utility.yul\":19525:19528   */\n      dup3\n        /* \"#utility.yul\":19521:19535   */\n      add\n        /* \"#utility.yul\":19506:19535   */\n      swap1\n      pop\n        /* \"#utility.yul\":19468:19541   */\n      swap3\n      swap2\n      pop\n      pop\n      jump\t// out\n        /* \"#utility.yul\":19547:19695   */\n    tag_399:\n      0x00\n        /* \"#utility.yul\":19686:19689   */\n      dup2\n        /* \"#utility.yul\":19671:19689   */\n      swap1\n      pop\n        /* \"#utility.yul\":19661:19695   */\n      swap3\n      swap2\n      pop\n      pop\n      jump\t// out\n        /* \"#utility.yul\":19701:19797   */\n    tag_363:\n      0x00\n        /* \"#utility.yul\":19767:19791   */\n      tag_483\n        /* \"#utility.yul\":19785:19790   */\n      dup3\n        /* \"#utility.yul\":19767:19791   */\n      tag_484\n      jump\t// in\n    tag_483:\n        /* \"#utility.yul\":19756:19791   */\n      swap1\n      pop\n        /* \"#utility.yul\":19746:19797   */\n      swap2\n      swap1\n      pop\n      jump\t// out\n        /* \"#utility.yul\":19803:19893   */\n    tag_370:\n      0x00\n        /* \"#utility.yul\":19880:19885   */\n      dup2\n        /* \"#utility.yul\":19873:19886   */\n      iszero\n        /* \"#utility.yul\":19866:19887   */\n      iszero\n        /* \"#utility.yul\":19855:19887   */\n      swap1\n      pop\n        /* \"#utility.yul\":19845:19893   */\n      swap2\n      swap1\n      pop\n      jump\t// out\n        /* \"#utility.yul\":19899:20034   */\n    tag_486:\n      0x00\n        /* \"#utility.yul\":19977:19982   */\n      dup2\n        /* \"#utility.yul\":19966:19982   */\n      swap1\n      pop\n        /* \"#utility.yul\":19983:20028   */\n      tag_488\n        /* \"#utility.yul\":20022:20027   */\n      dup3\n        /* \"#utility.yul\":19983:20028   */\n      tag_489\n      jump\t// in\n    tag_488:\n        /* \"#utility.yul\":19956:20034   */\n      swap2\n      swap1\n      pop\n      jump\t// out\n        /* \"#utility.yul\":20040:20166   */\n    tag_484:\n      0x00\n        /* \"#utility.yul\":20117:20159   */\n      0xffffffffffffffffffffffffffffffffffffffff\n        /* \"#utility.yul\":20110:20115   */\n      dup3\n        /* \"#utility.yul\":20106:20160   */\n      and\n        /* \"#utility.yul\":20095:20160   */\n      swap1\n      pop\n        /* \"#utility.yul\":20085:20166   */\n      swap2\n      swap1\n      pop\n      jump\t// out\n        /* \"#utility.yul\":20172:20249   */\n    tag_434:\n      0x00\n        /* \"#utility.yul\":20238:20243   */\n      dup2\n        /* \"#utility.yul\":20227:20243   */\n      swap1\n      pop\n        /* \"#utility.yul\":20217:20249   */\n      swap2\n      swap1\n      pop\n      jump\t// out\n        /* \"#utility.yul\":20255:20390   */\n    tag_377:\n      0x00\n        /* \"#utility.yul\":20348:20384   */\n      tag_493\n        /* \"#utility.yul\":20378:20383   */\n      dup3\n        /* \"#utility.yul\":20348:20384   */\n      tag_486\n      jump\t// in\n    tag_493:\n        /* \"#utility.yul\":20335:20384   */\n      swap1\n      pop\n        /* \"#utility.yul\":20325:20390   */\n      swap2\n      swap1\n      pop\n      jump\t// out\n        /* \"#utility.yul\":20396:20550   */\n    tag_305:\n        /* \"#utility.yul\":20480:20486   */\n      dup3\n        /* \"#utility.yul\":20475:20478   */\n      dup2\n        /* \"#utility.yul\":20470:20473   */\n      dup4\n        /* \"#utility.yul\":20457:20487   */\n      calldatacopy\n        /* \"#utility.yul\":20542:20543   */\n      0x00\n        /* \"#utility.yul\":20533:20539   */\n      dup4\n        /* \"#utility.yul\":20528:20531   */\n      dup4\n        /* \"#utility.yul\":20524:20540   */\n      add\n        /* \"#utility.yul\":20517:20544   */\n      mstore\n        /* \"#utility.yul\":20447:20550   */\n      pop\n      pop\n      pop\n      jump\t// out\n        /* \"#utility.yul\":20556:20863   */\n    tag_385:\n        /* \"#utility.yul\":20624:20625   */\n      0x00\n        /* \"#utility.yul\":20634:20747   */\n    tag_496:\n        /* \"#utility.yul\":20648:20654   */\n      dup4\n        /* \"#utility.yul\":20645:20646   */\n      dup2\n        /* \"#utility.yul\":20642:20655   */\n      lt\n        /* \"#utility.yul\":20634:20747   */\n      iszero\n      tag_498\n      jumpi\n        /* \"#utility.yul\":20733:20734   */\n      dup1\n        /* \"#utility.yul\":20728:20731   */\n      dup3\n        /* \"#utility.yul\":20724:20735   */\n      add\n        /* \"#utility.yul\":20718:20736   */\n      mload\n        /* \"#utility.yul\":20714:20715   */\n      dup2\n        /* \"#utility.yul\":20709:20712   */\n      dup5\n        /* \"#utility.yul\":20705:20716   */\n      add\n        /* \"#utility.yul\":20698:20737   */\n      mstore\n        /* \"#utility.yul\":20670:20672   */\n      0x20\n        /* \"#utility.yul\":20667:20668   */\n      dup2\n        /* \"#utility.yul\":20663:20673   */\n      add\n        /* \"#utility.yul\":20658:20673   */\n      swap1\n      pop\n        /* \"#utility.yul\":20634:20747   */\n      jump(tag_496)\n    tag_498:\n        /* \"#utility.yul\":20765:20771   */\n      dup4\n        /* \"#utility.yul\":20762:20763   */\n      dup2\n        /* \"#utility.yul\":20759:20772   */\n      gt\n        /* \"#utility.yul\":20756:20758   */\n      iszero\n      tag_499\n      jumpi\n        /* \"#utility.yul\":20845:20846   */\n      0x00\n        /* \"#utility.yul\":20836:20842   */\n      dup5\n        /* \"#utility.yul\":20831:20834   */\n      dup5\n        /* \"#utility.yul\":20827:20843   */\n      add\n        /* \"#utility.yul\":20820:20847   */\n      mstore\n        /* \"#utility.yul\":20756:20758   */\n    tag_499:\n        /* \"#utility.yul\":20605:20863   */\n      pop\n      pop\n      pop\n      pop\n      jump\t// out\n        /* \"#utility.yul\":20869:21040   */\n    tag_112:\n      0x00\n        /* \"#utility.yul\":20931:20955   */\n      tag_501\n        /* \"#utility.yul\":20949:20954   */\n      dup3\n        /* \"#utility.yul\":20931:20955   */\n      tag_434\n      jump\t// in\n    tag_501:\n        /* \"#utility.yul\":20922:20955   */\n      swap2\n      pop\n        /* \"#utility.yul\":20977:20981   */\n      0x00\n        /* \"#utility.yul\":20970:20975   */\n      dup3\n        /* \"#utility.yul\":20967:20982   */\n      eq\n        /* \"#utility.yul\":20964:20966   */\n      iszero\n      tag_502\n      jumpi\n        /* \"#utility.yul\":20985:21003   */\n      tag_503\n      tag_504\n      jump\t// in\n    tag_503:\n        /* \"#utility.yul\":20964:20966   */\n    tag_502:\n        /* \"#utility.yul\":21032:21033   */\n      0x01\n        /* \"#utility.yul\":21025:21030   */\n      dup3\n        /* \"#utility.yul\":21021:21034   */\n      sub\n        /* \"#utility.yul\":21014:21034   */\n      swap1\n      pop\n        /* \"#utility.yul\":20912:21040   */\n      swap2\n      swap1\n      pop\n      jump\t// out\n        /* \"#utility.yul\":21046:21366   */\n    tag_73:\n      0x00\n        /* \"#utility.yul\":21127:21128   */\n      0x02\n        /* \"#utility.yul\":21121:21125   */\n      dup3\n        /* \"#utility.yul\":21117:21129   */\n      div\n        /* \"#utility.yul\":21107:21129   */\n      swap1\n      pop\n        /* \"#utility.yul\":21174:21175   */\n      0x01\n        /* \"#utility.yul\":21168:21172   */\n      dup3\n        /* \"#utility.yul\":21164:21176   */\n      and\n        /* \"#utility.yul\":21195:21213   */\n      dup1\n        /* \"#utility.yul\":21185:21187   */\n      tag_506\n      jumpi\n        /* \"#utility.yul\":21251:21255   */\n      0x7f\n        /* \"#utility.yul\":21243:21249   */\n      dup3\n        /* \"#utility.yul\":21239:21256   */\n      and\n        /* \"#utility.yul\":21229:21256   */\n      swap2\n      pop\n        /* \"#utility.yul\":21185:21187   */\n    tag_506:\n        /* \"#utility.yul\":21313:21315   */\n      0x20\n        /* \"#utility.yul\":21305:21311   */\n      dup3\n        /* \"#utility.yul\":21302:21316   */\n      lt\n        /* \"#utility.yul\":21282:21300   */\n      dup2\n        /* \"#utility.yul\":21279:21317   */\n      eq\n        /* \"#utility.yul\":21276:21278   */\n      iszero\n      tag_507\n      jumpi\n        /* \"#utility.yul\":21332:21350   */\n      tag_508\n      tag_509\n      jump\t// in\n    tag_508:\n        /* \"#utility.yul\":21276:21278   */\n    tag_507:\n        /* \"#utility.yul\":21097:21366   */\n      pop\n      swap2\n      swap1\n      pop\n      jump\t// out\n        /* \"#utility.yul\":21372:21552   */\n    tag_504:\n        /* \"#utility.yul\":21420:21497   */\n      0x4e487b7100000000000000000000000000000000000000000000000000000000\n        /* \"#utility.yul\":21417:21418   */\n      0x00\n        /* \"#utility.yul\":21410:21498   */\n      mstore\n        /* \"#utility.yul\":21517:21521   */\n      0x11\n        /* \"#utility.yul\":21514:21515   */\n      0x04\n        /* \"#utility.yul\":21507:21522   */\n      mstore\n        /* \"#utility.yul\":21541:21545   */\n      0x24\n        /* \"#utility.yul\":21538:21539   */\n      0x00\n        /* \"#utility.yul\":21531:21546   */\n      revert\n        /* \"#utility.yul\":21558:21738   */\n    tag_511:\n        /* \"#utility.yul\":21606:21683   */\n      0x4e487b7100000000000000000000000000000000000000000000000000000000\n        /* \"#utility.yul\":21603:21604   */\n      0x00\n        /* \"#utility.yul\":21596:21684   */\n      mstore\n        /* \"#utility.yul\":21703:21707   */\n      0x21\n        /* \"#utility.yul\":21700:21701   */\n      0x04\n        /* \"#utility.yul\":21693:21708   */\n      mstore\n        /* \"#utility.yul\":21727:21731   */\n      0x24\n        /* \"#utility.yul\":21724:21725   */\n      0x00\n        /* \"#utility.yul\":21717:21732   */\n      revert\n        /* \"#utility.yul\":21744:21924   */\n    tag_509:\n        /* \"#utility.yul\":21792:21869   */\n      0x4e487b7100000000000000000000000000000000000000000000000000000000\n        /* \"#utility.yul\":21789:21790   */\n      0x00\n        /* \"#utility.yul\":21782:21870   */\n      mstore\n        /* \"#utility.yul\":21889:21893   */\n      0x22\n        /* \"#utility.yul\":21886:21887   */\n      0x04\n        /* \"#utility.yul\":21879:21894   */\n      mstore\n        /* \"#utility.yul\":21913:21917   */\n      0x24\n        /* \"#utility.yul\":21910:21911   */\n      0x00\n        /* \"#utility.yul\":21903:21918   */\n      revert\n        /* \"#utility.yul\":21930:22110   */\n    tag_471:\n        /* \"#utility.yul\":21978:22055   */\n      0x4e487b7100000000000000000000000000000000000000000000000000000000\n        /* \"#utility.yul\":21975:21976   */\n      0x00\n        /* \"#utility.yul\":21968:22056   */\n      mstore\n        /* \"#utility.yul\":22075:22079   */\n      0x41\n        /* \"#utility.yul\":22072:22073   */\n      0x04\n        /* \"#utility.yul\":22065:22080   */\n      mstore\n        /* \"#utility.yul\":22099:22103   */\n      0x24\n        /* \"#utility.yul\":22096:22097   */\n      0x00\n        /* \"#utility.yul\":22089:22104   */\n      revert\n        /* \"#utility.yul\":22116:22218   */\n    tag_387:\n      0x00\n        /* \"#utility.yul\":22208:22210   */\n      0x1f\n        /* \"#utility.yul\":22204:22211   */\n      not\n        /* \"#utility.yul\":22199:22201   */\n      0x1f\n        /* \"#utility.yul\":22192:22197   */\n      dup4\n        /* \"#utility.yul\":22188:22202   */\n      add\n        /* \"#utility.yul\":22184:22212   */\n      and\n        /* \"#utility.yul\":22174:22212   */\n      swap1\n      pop\n        /* \"#utility.yul\":22164:22218   */\n      swap2\n      swap1\n      pop\n      jump\t// out\n        /* \"#utility.yul\":22224:22341   */\n    tag_489:\n        /* \"#utility.yul\":22309:22310   */\n      0x05\n        /* \"#utility.yul\":22302:22307   */\n      dup2\n        /* \"#utility.yul\":22299:22311   */\n      lt\n        /* \"#utility.yul\":22289:22291   */\n      tag_517\n      jumpi\n        /* \"#utility.yul\":22315:22333   */\n      tag_518\n      tag_511\n      jump\t// in\n    tag_518:\n        /* \"#utility.yul\":22289:22291   */\n    tag_517:\n        /* \"#utility.yul\":22279:22341   */\n      pop\n      jump\t// out\n        /* \"#utility.yul\":22347:22469   */\n    tag_308:\n        /* \"#utility.yul\":22420:22444   */\n      tag_520\n        /* \"#utility.yul\":22438:22443   */\n      dup2\n        /* \"#utility.yul\":22420:22444   */\n      tag_363\n      jump\t// in\n    tag_520:\n        /* \"#utility.yul\":22413:22418   */\n      dup2\n        /* \"#utility.yul\":22410:22445   */\n      eq\n        /* \"#utility.yul\":22400:22402   */\n      tag_521\n      jumpi\n        /* \"#utility.yul\":22459:22460   */\n      0x00\n        /* \"#utility.yul\":22456:22457   */\n      dup1\n        /* \"#utility.yul\":22449:22461   */\n      revert\n        /* \"#utility.yul\":22400:22402   */\n    tag_521:\n        /* \"#utility.yul\":22390:22469   */\n      pop\n      jump\t// out\n        /* \"#utility.yul\":22475:22597   */\n    tag_320:\n        /* \"#utility.yul\":22548:22572   */\n      tag_523\n        /* \"#utility.yul\":22566:22571   */\n      dup2\n        /* \"#utility.yul\":22548:22572   */\n      tag_434\n      jump\t// in\n    tag_523:\n        /* \"#utility.yul\":22541:22546   */\n      dup2\n        /* \"#utility.yul\":22538:22573   */\n      eq\n        /* \"#utility.yul\":22528:22530   */\n      tag_524\n      jumpi\n        /* \"#utility.yul\":22587:22588   */\n      0x00\n        /* \"#utility.yul\":22584:22585   */\n      dup1\n        /* \"#utility.yul\":22577:22589   */\n      revert\n        /* \"#utility.yul\":22528:22530   */\n    tag_524:\n        /* \"#utility.yul\":22518:22597   */\n      pop\n      jump\t// out\n    stop\n    data_2fe1bde1b84b10ebdbd3bbdfaafe37aec8f7c7d7968d28514693b7e0a6268ba1 64757269616e2064616d6167656420706c656173652073656c65637420616e6f746865722064757269616e\n\n    auxdata: 0xa26469706673582212203e73be4d3a03229f3e85e3e20949cf4fbdecdfdf6dfe4be62b91e8f33246fa6b64736f6c63430008000033\n}\n",
				"bytecode": {
					"linkReferences": {},
					"object": "60806040526040518060c001604052806040518060400160405280600781526020017f64656661756c740000000000000000000000000000000000000000000000000081525081526020016040518060400160405280600781526020017f64656661756c7400000000000000000000000000000000000000000000000000815250815260200160026004811115620000c0577f4e487b7100000000000000000000000000000000000000000000000000000000600052602160045260246000fd5b81526020016002600481111562000100577f4e487b7100000000000000000000000000000000000000000000000000000000600052602160045260246000fd5b81526020016002600481111562000140577f4e487b7100000000000000000000000000000000000000000000000000000000600052602160045260246000fd5b81526020016002600481111562000180577f4e487b7100000000000000000000000000000000000000000000000000000000600052602160045260246000fd5b81525060036000820151816000019080519060200190620001a392919062000375565b506020820151816001019080519060200190620001c292919062000375565b5060408201518160020160006101000a81548160ff0219169083600481111562000215577f4e487b7100000000000000000000000000000000000000000000000000000000600052602160045260246000fd5b021790555060608201518160020160016101000a81548160ff021916908360048111156200026c577f4e487b7100000000000000000000000000000000000000000000000000000000600052602160045260246000fd5b021790555060808201518160020160026101000a81548160ff02191690836004811115620002c3577f4e487b7100000000000000000000000000000000000000000000000000000000600052602160045260246000fd5b021790555060a08201518160020160036101000a81548160ff021916908360048111156200031a577f4e487b7100000000000000000000000000000000000000000000000000000000600052602160045260246000fd5b021790555050503480156200032e57600080fd5b50336000806101000a81548173ffffffffffffffffffffffffffffffffffffffff021916908373ffffffffffffffffffffffffffffffffffffffff1602179055506200048a565b828054620003839062000425565b90600052602060002090601f016020900481019282620003a75760008555620003f3565b82601f10620003c257805160ff1916838001178555620003f3565b82800160010185558215620003f3579182015b82811115620003f2578251825591602001919060010190620003d5565b5b50905062000402919062000406565b5090565b5b808211156200042157600081600090555060010162000407565b5090565b600060028204905060018216806200043e57607f821691505b602082108114156200045557620004546200045b565b5b50919050565b7f4e487b7100000000000000000000000000000000000000000000000000000000600052602260045260246000fd5b613224806200049a6000396000f3fe608060405234801561001057600080fd5b50600436106100a85760003560e01c8063507d4e8e11610071578063507d4e8e146101665780637fa9571f14610196578063d66d2a57146101b4578063d8162943146101d2578063ea6978c114610202578063ee446d9f14610232576100a8565b8062820349146100ad5780632966b29b146100dd5780633afe4f12146100fb57806345b2bd2f14610117578063498d470714610133575b600080fd5b6100c760048036038101906100c29190612892565b61026d565b6040516100d49190612dd8565b60405180910390f35b6100e561084b565b6040516100f29190612d2d565b60405180910390f35b6101156004803603810190610110919061293a565b61086f565b005b610131600480360381019061012c9190612768565b611191565b005b61014d60048036038101906101489190612892565b611344565b60405161015d9493929190612d48565b60405180910390f35b610180600480360381019061017b919061272c565b6114b4565b60405161018d9190612db6565b60405180910390f35b61019e6116b6565b6040516101ab9190612dfa565b60405180910390f35b6101bc6116c3565b6040516101c99190612d2d565b60405180910390f35b6101ec60048036038101906101e791906128bb565b6116ec565b6040516101f99190612d9b565b60405180910390f35b61021c60048036038101906102179190612813565b611a99565b6040516102299190612d9b565b60405180910390f35b61024c60048036038101906102479190612892565b611e46565b6040516102649c9b9a99989796959493929190612e15565b60405180910390f35b6102756123b6565b600282815481106102af577f4e487b7100000000000000000000000000000000000000000000000000000000600052603260045260246000fd5b90600052602060002090600e020160405180610180016040529081600082015481526020016001820154815260200160028201548152602001600382015481526020016004820160009054906101000a900473ffffffffffffffffffffffffffffffffffffffff1673ffffffffffffffffffffffffffffffffffffffff1673ffffffffffffffffffffffffffffffffffffffff16815260200160058201548152602001600682015481526020016007820160009054906101000a900473ffffffffffffffffffffffffffffffffffffffff1673ffffffffffffffffffffffffffffffffffffffff1673ffffffffffffffffffffffffffffffffffffffff168152602001600882016040518060c00160405290816000820180546103d190613082565b80601f01602080910402602001604051908101604052809291908181526020018280546103fd90613082565b801561044a5780601f1061041f5761010080835404028352916020019161044a565b820191906000526020600020905b81548152906001019060200180831161042d57829003601f168201915b5050505050815260200160018201805461046390613082565b80601f016020809104026020016040519081016040528092919081815260200182805461048f90613082565b80156104dc5780601f106104b1576101008083540402835291602001916104dc565b820191906000526020600020905b8154815290600101906020018083116104bf57829003601f168201915b505050505081526020016002820160009054906101000a900460ff166004811115610530577f4e487b7100000000000000000000000000000000000000000000000000000000600052602160045260246000fd5b6004811115610568577f4e487b7100000000000000000000000000000000000000000000000000000000600052602160045260246000fd5b81526020016002820160019054906101000a900460ff1660048111156105b7577f4e487b7100000000000000000000000000000000000000000000000000000000600052602160045260246000fd5b60048111156105ef577f4e487b7100000000000000000000000000000000000000000000000000000000600052602160045260246000fd5b81526020016002820160029054906101000a900460ff16600481111561063e577f4e487b7100000000000000000000000000000000000000000000000000000000600052602160045260246000fd5b6004811115610676577f4e487b7100000000000000000000000000000000000000000000000000000000600052602160045260246000fd5b81526020016002820160039054906101000a900460ff1660048111156106c5577f4e487b7100000000000000000000000000000000000000000000000000000000600052602160045260246000fd5b60048111156106fd577f4e487b7100000000000000000000000000000000000000000000000000000000600052602160045260246000fd5b815250508152602001600b8201805461071590613082565b80601f016020809104026020016040519081016040528092919081815260200182805461074190613082565b801561078e5780601f106107635761010080835404028352916020019161078e565b820191906000526020600020905b81548152906001019060200180831161077157829003601f168201915b50505050508152602001600c820160009054906101000a900460ff16151515158152602001600d820180546107c290613082565b80601f01602080910402602001604051908101604052809291908181526020018280546107ee90613082565b801561083b5780601f106108105761010080835404028352916020019161083b565b820191906000526020600020905b81548152906001019060200180831161081e57829003601f168201915b5050505050815250509050919050565b60008054906101000a900473ffffffffffffffffffffffffffffffffffffffff1681565b60008060018054905090505b6000811415610a255760008054906101000a900473ffffffffffffffffffffffffffffffffffffffff1673ffffffffffffffffffffffffffffffffffffffff163373ffffffffffffffffffffffffffffffffffffffff1614156109005760008054906101000a900473ffffffffffffffffffffffffffffffffffffffff169150610a25565b3373ffffffffffffffffffffffffffffffffffffffff1660018281548110610951577f4e487b7100000000000000000000000000000000000000000000000000000000600052603260045260246000fd5b906000526020600020906004020160000160009054906101000a900473ffffffffffffffffffffffffffffffffffffffff1673ffffffffffffffffffffffffffffffffffffffff161415610a1257600181815481106109d9577f4e487b7100000000000000000000000000000000000000000000000000000000600052603260045260246000fd5b906000526020600020906004020160000160009054906101000a900473ffffffffffffffffffffffffffffffffffffffff169150610a25565b8080610a1d90613058565b91505061087b565b508073ffffffffffffffffffffffffffffffffffffffff163373ffffffffffffffffffffffffffffffffffffffff1614610a5e57600080fd5b60026040518061018001604052808a81526020018981526020018881526020018781526020018673ffffffffffffffffffffffffffffffffffffffff1681526020018581526020018481526020013373ffffffffffffffffffffffffffffffffffffffff16815260200160036040518060c0016040529081600082018054610ae590613082565b80601f0160208091040260200160405190810160405280929190818152602001828054610b1190613082565b8015610b5e5780601f10610b3357610100808354040283529160200191610b5e565b820191906000526020600020905b815481529060010190602001808311610b4157829003601f168201915b50505050508152602001600182018054610b7790613082565b80601f0160208091040260200160405190810160405280929190818152602001828054610ba390613082565b8015610bf05780601f10610bc557610100808354040283529160200191610bf0565b820191906000526020600020905b815481529060010190602001808311610bd357829003601f168201915b505050505081526020016002820160009054906101000a900460ff166004811115610c44577f4e487b7100000000000000000000000000000000000000000000000000000000600052602160045260246000fd5b6004811115610c7c577f4e487b7100000000000000000000000000000000000000000000000000000000600052602160045260246000fd5b81526020016002820160019054906101000a900460ff166004811115610ccb577f4e487b7100000000000000000000000000000000000000000000000000000000600052602160045260246000fd5b6004811115610d03577f4e487b7100000000000000000000000000000000000000000000000000000000600052602160045260246000fd5b81526020016002820160029054906101000a900460ff166004811115610d52577f4e487b7100000000000000000000000000000000000000000000000000000000600052602160045260246000fd5b6004811115610d8a577f4e487b7100000000000000000000000000000000000000000000000000000000600052602160045260246000fd5b81526020016002820160039054906101000a900460ff166004811115610dd9577f4e487b7100000000000000000000000000000000000000000000000000000000600052602160045260246000fd5b6004811115610e11577f4e487b7100000000000000000000000000000000000000000000000000000000600052602160045260246000fd5b8152505081526020016040518060400160405280600481526020017f6661726d0000000000000000000000000000000000000000000000000000000081525081526020016000151581526020016040518060400160405280600481526020017f676f6f640000000000000000000000000000000000000000000000000000000081525081525090806001815401808255809150506001900390600052602060002090600e02016000909190919091506000820151816000015560208201518160010155604082015181600201556060820151816003015560808201518160040160006101000a81548173ffffffffffffffffffffffffffffffffffffffff021916908373ffffffffffffffffffffffffffffffffffffffff16021790555060a0820151816005015560c0820151816006015560e08201518160070160006101000a81548173ffffffffffffffffffffffffffffffffffffffff021916908373ffffffffffffffffffffffffffffffffffffffff160217905550610100820151816008016000820151816000019080519060200190610fb092919061244b565b506020820151816001019080519060200190610fcd92919061244b565b5060408201518160020160006101000a81548160ff0219169083600481111561101f577f4e487b7100000000000000000000000000000000000000000000000000000000600052602160045260246000fd5b021790555060608201518160020160016101000a81548160ff02191690836004811115611075577f4e487b7100000000000000000000000000000000000000000000000000000000600052602160045260246000fd5b021790555060808201518160020160026101000a81548160ff021916908360048111156110cb577f4e487b7100000000000000000000000000000000000000000000000000000000600052602160045260246000fd5b021790555060a08201518160020160036101000a81548160ff02191690836004811115611121577f4e487b7100000000000000000000000000000000000000000000000000000000600052602160045260246000fd5b0217905550505061012082015181600b01908051906020019061114592919061244b565b5061014082015181600c0160006101000a81548160ff02191690831515021790555061016082015181600d01908051906020019061118492919061244b565b5050505050505050505050565b60008054906101000a900473ffffffffffffffffffffffffffffffffffffffff168073ffffffffffffffffffffffffffffffffffffffff163373ffffffffffffffffffffffffffffffffffffffff16146111ea57600080fd5b6000855190505b600081141561133c5760016040518060800160405280888481518110611240577f4e487b7100000000000000000000000000000000000000000000000000000000600052603260045260246000fd5b602002602001015173ffffffffffffffffffffffffffffffffffffffff16815260200187815260200186815260200185815250908060018154018082558091505060019003906000526020600020906004020160009091909190915060008201518160000160006101000a81548173ffffffffffffffffffffffffffffffffffffffff021916908373ffffffffffffffffffffffffffffffffffffffff16021790555060208201518160010155604082015181600201908051906020019061130992919061244b565b50606082015181600301908051906020019061132692919061244b565b505050808061133490613058565b9150506111f1565b505050505050565b6001818154811061135457600080fd5b90600052602060002090600402016000915090508060000160009054906101000a900473ffffffffffffffffffffffffffffffffffffffff16908060010154908060020180546113a390613082565b80601f01602080910402602001604051908101604052809291908181526020018280546113cf90613082565b801561141c5780601f106113f15761010080835404028352916020019161141c565b820191906000526020600020905b8154815290600101906020018083116113ff57829003601f168201915b50505050509080600301805461143190613082565b80601f016020809104026020016040519081016040528092919081815260200182805461145d90613082565b80156114aa5780601f1061147f576101008083540402835291602001916114aa565b820191906000526020600020905b81548152906001019060200180831161148d57829003601f168201915b5050505050905084565b60606115c8600283815481106114f3577f4e487b7100000000000000000000000000000000000000000000000000000000600052603260045260246000fd5b90600052602060002090600e0201600d01805461150f90613082565b80601f016020809104026020016040519081016040528092919081815260200182805461153b90613082565b80156115885780601f1061155d57610100808354040283529160200191611588565b820191906000526020600020905b81548152906001019060200180831161156b57829003601f168201915b50505050506040518060400160405280600781526020017f64616d616765640000000000000000000000000000000000000000000000000081525061235d565b156115ed576040518060600160405280602b81526020016131c4602b913990506116b0565b8260028381548110611628577f4e487b7100000000000000000000000000000000000000000000000000000000600052603260045260246000fd5b90600052602060002090600e020160070160006101000a81548173ffffffffffffffffffffffffffffffffffffffff021916908373ffffffffffffffffffffffffffffffffffffffff1602179055506040518060400160405280600a81526020017f7375636365737366756c0000000000000000000000000000000000000000000081525090505b92915050565b6000600280549050905090565b60008060009054906101000a900473ffffffffffffffffffffffffffffffffffffffff16905090565b600080600060018054905090505b60008114156118a45760008054906101000a900473ffffffffffffffffffffffffffffffffffffffff1673ffffffffffffffffffffffffffffffffffffffff163373ffffffffffffffffffffffffffffffffffffffff16141561177f5760008054906101000a900473ffffffffffffffffffffffffffffffffffffffff1691506118a4565b3373ffffffffffffffffffffffffffffffffffffffff16600182815481106117d0577f4e487b7100000000000000000000000000000000000000000000000000000000600052603260045260246000fd5b906000526020600020906004020160000160009054906101000a900473ffffffffffffffffffffffffffffffffffffffff1673ffffffffffffffffffffffffffffffffffffffff1614156118915760018181548110611858577f4e487b7100000000000000000000000000000000000000000000000000000000600052603260045260246000fd5b906000526020600020906004020160000160009054906101000a900473ffffffffffffffffffffffffffffffffffffffff1691506118a4565b808061189c90613058565b9150506116fa565b508073ffffffffffffffffffffffffffffffffffffffff163373ffffffffffffffffffffffffffffffffffffffff16146118dd57600080fd5b6119ba846002878154811061191b577f4e487b7100000000000000000000000000000000000000000000000000000000600052603260045260246000fd5b90600052602060002090600e0201600b01805461193790613082565b80601f016020809104026020016040519081016040528092919081815260200182805461196390613082565b80156119b05780601f10611985576101008083540402835291602001916119b0565b820191906000526020600020905b81548152906001019060200180831161199357829003601f168201915b505050505061235d565b15611a8c5782600286815481106119fa577f4e487b7100000000000000000000000000000000000000000000000000000000600052603260045260246000fd5b90600052602060002090600e0201600d019080519060200190611a1e92919061244b565b50600060028681548110611a5b577f4e487b7100000000000000000000000000000000000000000000000000000000600052603260045260246000fd5b90600052602060002090600e0201600c0160006101000a81548160ff02191690831515021790555060019150611a91565b600091505b509392505050565b600080600060018054905090505b6000811415611c515760008054906101000a900473ffffffffffffffffffffffffffffffffffffffff1673ffffffffffffffffffffffffffffffffffffffff163373ffffffffffffffffffffffffffffffffffffffff161415611b2c5760008054906101000a900473ffffffffffffffffffffffffffffffffffffffff169150611c51565b3373ffffffffffffffffffffffffffffffffffffffff1660018281548110611b7d577f4e487b7100000000000000000000000000000000000000000000000000000000600052603260045260246000fd5b906000526020600020906004020160000160009054906101000a900473ffffffffffffffffffffffffffffffffffffffff1673ffffffffffffffffffffffffffffffffffffffff161415611c3e5760018181548110611c05577f4e487b7100000000000000000000000000000000000000000000000000000000600052603260045260246000fd5b906000526020600020906004020160000160009054906101000a900473ffffffffffffffffffffffffffffffffffffffff169150611c51565b8080611c4990613058565b915050611aa7565b508073ffffffffffffffffffffffffffffffffffffffff163373ffffffffffffffffffffffffffffffffffffffff1614611c8a57600080fd5b611d678560028581548110611cc8577f4e487b7100000000000000000000000000000000000000000000000000000000600052603260045260246000fd5b90600052602060002090600e0201600b018054611ce490613082565b80601f0160208091040260200160405190810160405280929190818152602001828054611d1090613082565b8015611d5d5780601f10611d3257610100808354040283529160200191611d5d565b820191906000526020600020905b815481529060010190602001808311611d4057829003601f168201915b505050505061235d565b15611e39578360028481548110611da7577f4e487b7100000000000000000000000000000000000000000000000000000000600052603260045260246000fd5b90600052602060002090600e0201600b019080519060200190611dcb92919061244b565b50600160028481548110611e08577f4e487b7100000000000000000000000000000000000000000000000000000000600052603260045260246000fd5b90600052602060002090600e0201600c0160006101000a81548160ff02191690831515021790555060019150611e3e565b600091505b509392505050565b60028181548110611e5657600080fd5b90600052602060002090600e02016000915090508060000154908060010154908060020154908060030154908060040160009054906101000a900473ffffffffffffffffffffffffffffffffffffffff16908060050154908060060154908060070160009054906101000a900473ffffffffffffffffffffffffffffffffffffffff1690806008016040518060c0016040529081600082018054611ef990613082565b80601f0160208091040260200160405190810160405280929190818152602001828054611f2590613082565b8015611f725780601f10611f4757610100808354040283529160200191611f72565b820191906000526020600020905b815481529060010190602001808311611f5557829003601f168201915b50505050508152602001600182018054611f8b90613082565b80601f0160208091040260200160405190810160405280929190818152602001828054611fb790613082565b80156120045780601f10611fd957610100808354040283529160200191612004565b820191906000526020600020905b815481529060010190602001808311611fe757829003601f168201915b505050505081526020016002820160009054906101000a900460ff166004811115612058577f4e487b7100000000000000000000000000000000000000000000000000000000600052602160045260246000fd5b6004811115612090577f4e487b7100000000000000000000000000000000000000000000000000000000600052602160045260246000fd5b81526020016002820160019054906101000a900460ff1660048111156120df577f4e487b7100000000000000000000000000000000000000000000000000000000600052602160045260246000fd5b6004811115612117577f4e487b7100000000000000000000000000000000000000000000000000000000600052602160045260246000fd5b81526020016002820160029054906101000a900460ff166004811115612166577f4e487b7100000000000000000000000000000000000000000000000000000000600052602160045260246000fd5b600481111561219e577f4e487b7100000000000000000000000000000000000000000000000000000000600052602160045260246000fd5b81526020016002820160039054906101000a900460ff1660048111156121ed577f4e487b7100000000000000000000000000000000000000000000000000000000600052602160045260246000fd5b6004811115612225577f4e487b7100000000000000000000000000000000000000000000000000000000600052602160045260246000fd5b815250509080600b01805461223990613082565b80601f016020809104026020016040519081016040528092919081815260200182805461226590613082565b80156122b25780601f10612287576101008083540402835291602001916122b2565b820191906000526020600020905b81548152906001019060200180831161229557829003601f168201915b50505050509080600c0160009054906101000a900460ff169080600d0180546122da90613082565b80601f016020809104026020016040519081016040528092919081815260200182805461230690613082565b80156123535780601f1061232857610100808354040283529160200191612353565b820191906000526020600020905b81548152906001019060200180831161233657829003601f168201915b505050505090508c565b6000816040516020016123709190612d16565b60405160208183030381529060405280519060200120836040516020016123979190612d16565b6040516020818303038152906040528051906020012014905092915050565b60405180610180016040528060008152602001600081526020016000815260200160008152602001600073ffffffffffffffffffffffffffffffffffffffff1681526020016000815260200160008152602001600073ffffffffffffffffffffffffffffffffffffffff16815260200161242e6124d1565b815260200160608152602001600015158152602001606081525090565b82805461245790613082565b90600052602060002090601f01602090048101928261247957600085556124c0565b82601f1061249257805160ff19168380011785556124c0565b828001600101855582156124c0579182015b828111156124bf5782518255916020019190600101906124a4565b5b5090506124cd91906125e7565b5090565b6040518060c00160405280606081526020016060815260200160006004811115612524577f4e487b7100000000000000000000000000000000000000000000000000000000600052602160045260246000fd5b815260200160006004811115612563577f4e487b7100000000000000000000000000000000000000000000000000000000600052602160045260246000fd5b8152602001600060048111156125a2577f4e487b7100000000000000000000000000000000000000000000000000000000600052602160045260246000fd5b8152602001600060048111156125e1577f4e487b7100000000000000000000000000000000000000000000000000000000600052602160045260246000fd5b81525090565b5b808211156126005760008160009055506001016125e8565b5090565b600061261761261284612f15565b612ee4565b9050808382526020820190508285602086028201111561263657600080fd5b60005b85811015612666578161264c88826126ae565b845260208401935060208301925050600181019050612639565b5050509392505050565b600061268361267e84612f41565b612ee4565b90508281526020810184848401111561269b57600080fd5b6126a6848285613016565b509392505050565b6000813590506126bd81613195565b92915050565b600082601f8301126126d457600080fd5b81356126e4848260208601612604565b91505092915050565b600082601f8301126126fe57600080fd5b813561270e848260208601612670565b91505092915050565b600081359050612726816131ac565b92915050565b6000806040838503121561273f57600080fd5b600061274d858286016126ae565b925050602061275e85828601612717565b9150509250929050565b6000806000806080858703121561277e57600080fd5b600085013567ffffffffffffffff81111561279857600080fd5b6127a4878288016126c3565b94505060206127b587828801612717565b935050604085013567ffffffffffffffff8111156127d257600080fd5b6127de878288016126ed565b925050606085013567ffffffffffffffff8111156127fb57600080fd5b612807878288016126ed565b91505092959194509250565b60008060006060848603121561282857600080fd5b600084013567ffffffffffffffff81111561284257600080fd5b61284e868287016126ed565b935050602084013567ffffffffffffffff81111561286b57600080fd5b612877868287016126ed565b925050604061288886828701612717565b9150509250925092565b6000602082840312156128a457600080fd5b60006128b284828501612717565b91505092915050565b6000806000606084860312156128d057600080fd5b60006128de86828701612717565b935050602084013567ffffffffffffffff8111156128fb57600080fd5b612907868287016126ed565b925050604084013567ffffffffffffffff81111561292457600080fd5b612930868287016126ed565b9150509250925092565b600080600080600080600060e0888a03121561295557600080fd5b60006129638a828b01612717565b97505060206129748a828b01612717565b96505060406129858a828b01612717565b95505060606129968a828b01612717565b94505060806129a78a828b016126ae565b93505060a06129b88a828b01612717565b92505060c06129c98a828b01612717565b91505092959891949750929550565b6129e181612fa9565b82525050565b6129f081612fa9565b82525050565b6129ff81612fbb565b82525050565b612a0e81612fbb565b82525050565b612a1d81613004565b82525050565b6000612a2e82612f71565b612a388185612f7c565b9350612a48818560208601613025565b612a5181613170565b840191505092915050565b6000612a6782612f71565b612a718185612f8d565b9350612a81818560208601613025565b612a8a81613170565b840191505092915050565b6000612aa082612f71565b612aaa8185612f9e565b9350612aba818560208601613025565b80840191505092915050565b600061018083016000830151612adf6000860182612cf8565b506020830151612af26020860182612cf8565b506040830151612b056040860182612cf8565b506060830151612b186060860182612cf8565b506080830151612b2b60808601826129d8565b5060a0830151612b3e60a0860182612cf8565b5060c0830151612b5160c0860182612cf8565b5060e0830151612b6460e08601826129d8565b50610100830151848203610100860152612b7e8282612bd8565b915050610120830151848203610120860152612b9a8282612a23565b915050610140830151612bb16101408601826129f6565b50610160830151848203610160860152612bcb8282612a23565b9150508091505092915050565b600060c0830160008301518482036000860152612bf58282612a23565b91505060208301518482036020860152612c0f8282612a23565b9150506040830151612c246040860182612a14565b506060830151612c376060860182612a14565b506080830151612c4a6080860182612a14565b5060a0830151612c5d60a0860182612a14565b508091505092915050565b600060c0830160008301518482036000860152612c858282612a23565b91505060208301518482036020860152612c9f8282612a23565b9150506040830151612cb46040860182612a14565b506060830151612cc76060860182612a14565b506080830151612cda6080860182612a14565b5060a0830151612ced60a0860182612a14565b508091505092915050565b612d0181612ffa565b82525050565b612d1081612ffa565b82525050565b6000612d228284612a95565b915081905092915050565b6000602082019050612d4260008301846129e7565b92915050565b6000608082019050612d5d60008301876129e7565b612d6a6020830186612d07565b8181036040830152612d7c8185612a5c565b90508181036060830152612d908184612a5c565b905095945050505050565b6000602082019050612db06000830184612a05565b92915050565b60006020820190508181036000830152612dd08184612a5c565b905092915050565b60006020820190508181036000830152612df28184612ac6565b905092915050565b6000602082019050612e0f6000830184612d07565b92915050565b600061018082019050612e2b600083018f612d07565b612e38602083018e612d07565b612e45604083018d612d07565b612e52606083018c612d07565b612e5f608083018b6129e7565b612e6c60a083018a612d07565b612e7960c0830189612d07565b612e8660e08301886129e7565b818103610100830152612e998187612c68565b9050818103610120830152612eae8186612a5c565b9050612ebe610140830185612a05565b818103610160830152612ed18184612a5c565b90509d9c50505050505050505050505050565b6000604051905081810181811067ffffffffffffffff82111715612f0b57612f0a613141565b5b8060405250919050565b600067ffffffffffffffff821115612f3057612f2f613141565b5b602082029050602081019050919050565b600067ffffffffffffffff821115612f5c57612f5b613141565b5b601f19601f8301169050602081019050919050565b600081519050919050565b600082825260208201905092915050565b600082825260208201905092915050565b600081905092915050565b6000612fb482612fda565b9050919050565b60008115159050919050565b6000819050612fd582613181565b919050565b600073ffffffffffffffffffffffffffffffffffffffff82169050919050565b6000819050919050565b600061300f82612fc7565b9050919050565b82818337600083830152505050565b60005b83811015613043578082015181840152602081019050613028565b83811115613052576000848401525b50505050565b600061306382612ffa565b91506000821415613077576130766130b4565b5b600182039050919050565b6000600282049050600182168061309a57607f821691505b602082108114156130ae576130ad613112565b5b50919050565b7f4e487b7100000000000000000000000000000000000000000000000000000000600052601160045260246000fd5b7f4e487b7100000000000000000000000000000000000000000000000000000000600052602160045260246000fd5b7f4e487b7100000000000000000000000000000000000000000000000000000000600052602260045260246000fd5b7f4e487b7100000000000000000000000000000000000000000000000000000000600052604160045260246000fd5b6000601f19601f8301169050919050565b60058110613192576131916130e3565b5b50565b61319e81612fa9565b81146131a957600080fd5b50565b6131b581612ffa565b81146131c057600080fd5b5056fe64757269616e2064616d6167656420706c656173652073656c65637420616e6f746865722064757269616ea26469706673582212203e73be4d3a03229f3e85e3e20949cf4fbdecdfdf6dfe4be62b91e8f33246fa6b64736f6c63430008000033",
					"opcodes": "PUSH1 0x80 PUSH1 0x40 MSTORE PUSH1 0x40 MLOAD DUP1 PUSH1 0xC0 ADD PUSH1 0x40 MSTORE DUP1 PUSH1 0x40 MLOAD DUP1 PUSH1 0x40 ADD PUSH1 0x40 MSTORE DUP1 PUSH1 0x7 DUP2 MSTORE PUSH1 0x20 ADD PUSH32 0x64656661756C7400000000000000000000000000000000000000000000000000 DUP2 MSTORE POP DUP2 MSTORE PUSH1 0x20 ADD PUSH1 0x40 MLOAD DUP1 PUSH1 0x40 ADD PUSH1 0x40 MSTORE DUP1 PUSH1 0x7 DUP2 MSTORE PUSH1 0x20 ADD PUSH32 0x64656661756C7400000000000000000000000000000000000000000000000000 DUP2 MSTORE POP DUP2 MSTORE PUSH1 0x20 ADD PUSH1 0x2 PUSH1 0x4 DUP2 GT ISZERO PUSH3 0xC0 JUMPI PUSH32 0x4E487B7100000000000000000000000000000000000000000000000000000000 PUSH1 0x0 MSTORE PUSH1 0x21 PUSH1 0x4 MSTORE PUSH1 0x24 PUSH1 0x0 REVERT JUMPDEST DUP2 MSTORE PUSH1 0x20 ADD PUSH1 0x2 PUSH1 0x4 DUP2 GT ISZERO PUSH3 0x100 JUMPI PUSH32 0x4E487B7100000000000000000000000000000000000000000000000000000000 PUSH1 0x0 MSTORE PUSH1 0x21 PUSH1 0x4 MSTORE PUSH1 0x24 PUSH1 0x0 REVERT JUMPDEST DUP2 MSTORE PUSH1 0x20 ADD PUSH1 0x2 PUSH1 0x4 DUP2 GT ISZERO PUSH3 0x140 JUMPI PUSH32 0x4E487B7100000000000000000000000000000000000000000000000000000000 PUSH1 0x0 MSTORE PUSH1 0x21 PUSH1 0x4 MSTORE PUSH1 0x24 PUSH1 0x0 REVERT JUMPDEST DUP2 MSTORE PUSH1 0x20 ADD PUSH1 0x2 PUSH1 0x4 DUP2 GT ISZERO PUSH3 0x180 JUMPI PUSH32 0x4E487B7100000000000000000000000000000000000000000000000000000000 PUSH1 0x0 MSTORE PUSH1 0x21 PUSH1 0x4 MSTORE PUSH1 0x24 PUSH1 0x0 REVERT JUMPDEST DUP2 MSTORE POP PUSH1 0x3 PUSH1 0x0 DUP3 ADD MLOAD DUP2 PUSH1 0x0 ADD SWAP1 DUP1 MLOAD SWAP1 PUSH1 0x20 ADD SWAP1 PUSH3 0x1A3 SWAP3 SWAP2 SWAP1 PUSH3 0x375 JUMP JUMPDEST POP PUSH1 0x20 DUP3 ADD MLOAD DUP2 PUSH1 0x1 ADD SWAP1 DUP1 MLOAD SWAP1 PUSH1 0x20 ADD SWAP1 PUSH3 0x1C2 SWAP3 SWAP2 SWAP1 PUSH3 0x375 JUMP JUMPDEST POP PUSH1 0x40 DUP3 ADD MLOAD DUP2 PUSH1 0x2 ADD PUSH1 0x0 PUSH2 0x100 EXP DUP2 SLOAD DUP2 PUSH1 0xFF MUL NOT AND SWAP1 DUP4 PUSH1 0x4 DUP2 GT ISZERO PUSH3 0x215 JUMPI PUSH32 0x4E487B7100000000000000000000000000000000000000000000000000000000 PUSH1 0x0 MSTORE PUSH1 0x21 PUSH1 0x4 MSTORE PUSH1 0x24 PUSH1 0x0 REVERT JUMPDEST MUL OR SWAP1 SSTORE POP PUSH1 0x60 DUP3 ADD MLOAD DUP2 PUSH1 0x2 ADD PUSH1 0x1 PUSH2 0x100 EXP DUP2 SLOAD DUP2 PUSH1 0xFF MUL NOT AND SWAP1 DUP4 PUSH1 0x4 DUP2 GT ISZERO PUSH3 0x26C JUMPI PUSH32 0x4E487B7100000000000000000000000000000000000000000000000000000000 PUSH1 0x0 MSTORE PUSH1 0x21 PUSH1 0x4 MSTORE PUSH1 0x24 PUSH1 0x0 REVERT JUMPDEST MUL OR SWAP1 SSTORE POP PUSH1 0x80 DUP3 ADD MLOAD DUP2 PUSH1 0x2 ADD PUSH1 0x2 PUSH2 0x100 EXP DUP2 SLOAD DUP2 PUSH1 0xFF MUL NOT AND SWAP1 DUP4 PUSH1 0x4 DUP2 GT ISZERO PUSH3 0x2C3 JUMPI PUSH32 0x4E487B7100000000000000000000000000000000000000000000000000000000 PUSH1 0x0 MSTORE PUSH1 0x21 PUSH1 0x4 MSTORE PUSH1 0x24 PUSH1 0x0 REVERT JUMPDEST MUL OR SWAP1 SSTORE POP PUSH1 0xA0 DUP3 ADD MLOAD DUP2 PUSH1 0x2 ADD PUSH1 0x3 PUSH2 0x100 EXP DUP2 SLOAD DUP2 PUSH1 0xFF MUL NOT AND SWAP1 DUP4 PUSH1 0x4 DUP2 GT ISZERO PUSH3 0x31A JUMPI PUSH32 0x4E487B7100000000000000000000000000000000000000000000000000000000 PUSH1 0x0 MSTORE PUSH1 0x21 PUSH1 0x4 MSTORE PUSH1 0x24 PUSH1 0x0 REVERT JUMPDEST MUL OR SWAP1 SSTORE POP POP POP CALLVALUE DUP1 ISZERO PUSH3 0x32E JUMPI PUSH1 0x0 DUP1 REVERT JUMPDEST POP CALLER PUSH1 0x0 DUP1 PUSH2 0x100 EXP DUP2 SLOAD DUP2 PUSH20 0xFFFFFFFFFFFFFFFFFFFFFFFFFFFFFFFFFFFFFFFF MUL NOT AND SWAP1 DUP4 PUSH20 0xFFFFFFFFFFFFFFFFFFFFFFFFFFFFFFFFFFFFFFFF AND MUL OR SWAP1 SSTORE POP PUSH3 0x48A JUMP JUMPDEST DUP3 DUP1 SLOAD PUSH3 0x383 SWAP1 PUSH3 0x425 JUMP JUMPDEST SWAP1 PUSH1 0x0 MSTORE PUSH1 0x20 PUSH1 0x0 KECCAK256 SWAP1 PUSH1 0x1F ADD PUSH1 0x20 SWAP1 DIV DUP2 ADD SWAP3 DUP3 PUSH3 0x3A7 JUMPI PUSH1 0x0 DUP6 SSTORE PUSH3 0x3F3 JUMP JUMPDEST DUP3 PUSH1 0x1F LT PUSH3 0x3C2 JUMPI DUP1 MLOAD PUSH1 0xFF NOT AND DUP4 DUP1 ADD OR DUP6 SSTORE PUSH3 0x3F3 JUMP JUMPDEST DUP3 DUP1 ADD PUSH1 0x1 ADD DUP6 SSTORE DUP3 ISZERO PUSH3 0x3F3 JUMPI SWAP2 DUP3 ADD JUMPDEST DUP3 DUP2 GT ISZERO PUSH3 0x3F2 JUMPI DUP3 MLOAD DUP3 SSTORE SWAP2 PUSH1 0x20 ADD SWAP2 SWAP1 PUSH1 0x1 ADD SWAP1 PUSH3 0x3D5 JUMP JUMPDEST JUMPDEST POP SWAP1 POP PUSH3 0x402 SWAP2 SWAP1 PUSH3 0x406 JUMP JUMPDEST POP SWAP1 JUMP JUMPDEST JUMPDEST DUP1 DUP3 GT ISZERO PUSH3 0x421 JUMPI PUSH1 0x0 DUP2 PUSH1 0x0 SWAP1 SSTORE POP PUSH1 0x1 ADD PUSH3 0x407 JUMP JUMPDEST POP SWAP1 JUMP JUMPDEST PUSH1 0x0 PUSH1 0x2 DUP3 DIV SWAP1 POP PUSH1 0x1 DUP3 AND DUP1 PUSH3 0x43E JUMPI PUSH1 0x7F DUP3 AND SWAP2 POP JUMPDEST PUSH1 0x20 DUP3 LT DUP2 EQ ISZERO PUSH3 0x455 JUMPI PUSH3 0x454 PUSH3 0x45B JUMP JUMPDEST JUMPDEST POP SWAP2 SWAP1 POP JUMP JUMPDEST PUSH32 0x4E487B7100000000000000000000000000000000000000000000000000000000 PUSH1 0x0 MSTORE PUSH1 0x22 PUSH1 0x4 MSTORE PUSH1 0x24 PUSH1 0x0 REVERT JUMPDEST PUSH2 0x3224 DUP1 PUSH3 0x49A PUSH1 0x0 CODECOPY PUSH1 0x0 RETURN INVALID PUSH1 0x80 PUSH1 0x40 MSTORE CALLVALUE DUP1 ISZERO PUSH2 0x10 JUMPI PUSH1 0x0 DUP1 REVERT JUMPDEST POP PUSH1 0x4 CALLDATASIZE LT PUSH2 0xA8 JUMPI PUSH1 0x0 CALLDATALOAD PUSH1 0xE0 SHR DUP1 PUSH4 0x507D4E8E GT PUSH2 0x71 JUMPI DUP1 PUSH4 0x507D4E8E EQ PUSH2 0x166 JUMPI DUP1 PUSH4 0x7FA9571F EQ PUSH2 0x196 JUMPI DUP1 PUSH4 0xD66D2A57 EQ PUSH2 0x1B4 JUMPI DUP1 PUSH4 0xD8162943 EQ PUSH2 0x1D2 JUMPI DUP1 PUSH4 0xEA6978C1 EQ PUSH2 0x202 JUMPI DUP1 PUSH4 0xEE446D9F EQ PUSH2 0x232 JUMPI PUSH2 0xA8 JUMP JUMPDEST DUP1 PUSH3 0x820349 EQ PUSH2 0xAD JUMPI DUP1 PUSH4 0x2966B29B EQ PUSH2 0xDD JUMPI DUP1 PUSH4 0x3AFE4F12 EQ PUSH2 0xFB JUMPI DUP1 PUSH4 0x45B2BD2F EQ PUSH2 0x117 JUMPI DUP1 PUSH4 0x498D4707 EQ PUSH2 0x133 JUMPI JUMPDEST PUSH1 0x0 DUP1 REVERT JUMPDEST PUSH2 0xC7 PUSH1 0x4 DUP1 CALLDATASIZE SUB DUP2 ADD SWAP1 PUSH2 0xC2 SWAP2 SWAP1 PUSH2 0x2892 JUMP JUMPDEST PUSH2 0x26D JUMP JUMPDEST PUSH1 0x40 MLOAD PUSH2 0xD4 SWAP2 SWAP1 PUSH2 0x2DD8 JUMP JUMPDEST PUSH1 0x40 MLOAD DUP1 SWAP2 SUB SWAP1 RETURN JUMPDEST PUSH2 0xE5 PUSH2 0x84B JUMP JUMPDEST PUSH1 0x40 MLOAD PUSH2 0xF2 SWAP2 SWAP1 PUSH2 0x2D2D JUMP JUMPDEST PUSH1 0x40 MLOAD DUP1 SWAP2 SUB SWAP1 RETURN JUMPDEST PUSH2 0x115 PUSH1 0x4 DUP1 CALLDATASIZE SUB DUP2 ADD SWAP1 PUSH2 0x110 SWAP2 SWAP1 PUSH2 0x293A JUMP JUMPDEST PUSH2 0x86F JUMP JUMPDEST STOP JUMPDEST PUSH2 0x131 PUSH1 0x4 DUP1 CALLDATASIZE SUB DUP2 ADD SWAP1 PUSH2 0x12C SWAP2 SWAP1 PUSH2 0x2768 JUMP JUMPDEST PUSH2 0x1191 JUMP JUMPDEST STOP JUMPDEST PUSH2 0x14D PUSH1 0x4 DUP1 CALLDATASIZE SUB DUP2 ADD SWAP1 PUSH2 0x148 SWAP2 SWAP1 PUSH2 0x2892 JUMP JUMPDEST PUSH2 0x1344 JUMP JUMPDEST PUSH1 0x40 MLOAD PUSH2 0x15D SWAP5 SWAP4 SWAP3 SWAP2 SWAP1 PUSH2 0x2D48 JUMP JUMPDEST PUSH1 0x40 MLOAD DUP1 SWAP2 SUB SWAP1 RETURN JUMPDEST PUSH2 0x180 PUSH1 0x4 DUP1 CALLDATASIZE SUB DUP2 ADD SWAP1 PUSH2 0x17B SWAP2 SWAP1 PUSH2 0x272C JUMP JUMPDEST PUSH2 0x14B4 JUMP JUMPDEST PUSH1 0x40 MLOAD PUSH2 0x18D SWAP2 SWAP1 PUSH2 0x2DB6 JUMP JUMPDEST PUSH1 0x40 MLOAD DUP1 SWAP2 SUB SWAP1 RETURN JUMPDEST PUSH2 0x19E PUSH2 0x16B6 JUMP JUMPDEST PUSH1 0x40 MLOAD PUSH2 0x1AB SWAP2 SWAP1 PUSH2 0x2DFA JUMP JUMPDEST PUSH1 0x40 MLOAD DUP1 SWAP2 SUB SWAP1 RETURN JUMPDEST PUSH2 0x1BC PUSH2 0x16C3 JUMP JUMPDEST PUSH1 0x40 MLOAD PUSH2 0x1C9 SWAP2 SWAP1 PUSH2 0x2D2D JUMP JUMPDEST PUSH1 0x40 MLOAD DUP1 SWAP2 SUB SWAP1 RETURN JUMPDEST PUSH2 0x1EC PUSH1 0x4 DUP1 CALLDATASIZE SUB DUP2 ADD SWAP1 PUSH2 0x1E7 SWAP2 SWAP1 PUSH2 0x28BB JUMP JUMPDEST PUSH2 0x16EC JUMP JUMPDEST PUSH1 0x40 MLOAD PUSH2 0x1F9 SWAP2 SWAP1 PUSH2 0x2D9B JUMP JUMPDEST PUSH1 0x40 MLOAD DUP1 SWAP2 SUB SWAP1 RETURN JUMPDEST PUSH2 0x21C PUSH1 0x4 DUP1 CALLDATASIZE SUB DUP2 ADD SWAP1 PUSH2 0x217 SWAP2 SWAP1 PUSH2 0x2813 JUMP JUMPDEST PUSH2 0x1A99 JUMP JUMPDEST PUSH1 0x40 MLOAD PUSH2 0x229 SWAP2 SWAP1 PUSH2 0x2D9B JUMP JUMPDEST PUSH1 0x40 MLOAD DUP1 SWAP2 SUB SWAP1 RETURN JUMPDEST PUSH2 0x24C PUSH1 0x4 DUP1 CALLDATASIZE SUB DUP2 ADD SWAP1 PUSH2 0x247 SWAP2 SWAP1 PUSH2 0x2892 JUMP JUMPDEST PUSH2 0x1E46 JUMP JUMPDEST PUSH1 0x40 MLOAD PUSH2 0x264 SWAP13 SWAP12 SWAP11 SWAP10 SWAP9 SWAP8 SWAP7 SWAP6 SWAP5 SWAP4 SWAP3 SWAP2 SWAP1 PUSH2 0x2E15 JUMP JUMPDEST PUSH1 0x40 MLOAD DUP1 SWAP2 SUB SWAP1 RETURN JUMPDEST PUSH2 0x275 PUSH2 0x23B6 JUMP JUMPDEST PUSH1 0x2 DUP3 DUP2 SLOAD DUP2 LT PUSH2 0x2AF JUMPI PUSH32 0x4E487B7100000000000000000000000000000000000000000000000000000000 PUSH1 0x0 MSTORE PUSH1 0x32 PUSH1 0x4 MSTORE PUSH1 0x24 PUSH1 0x0 REVERT JUMPDEST SWAP1 PUSH1 0x0 MSTORE PUSH1 0x20 PUSH1 0x0 KECCAK256 SWAP1 PUSH1 0xE MUL ADD PUSH1 0x40 MLOAD DUP1 PUSH2 0x180 ADD PUSH1 0x40 MSTORE SWAP1 DUP2 PUSH1 0x0 DUP3 ADD SLOAD DUP2 MSTORE PUSH1 0x20 ADD PUSH1 0x1 DUP3 ADD SLOAD DUP2 MSTORE PUSH1 0x20 ADD PUSH1 0x2 DUP3 ADD SLOAD DUP2 MSTORE PUSH1 0x20 ADD PUSH1 0x3 DUP3 ADD SLOAD DUP2 MSTORE PUSH1 0x20 ADD PUSH1 0x4 DUP3 ADD PUSH1 0x0 SWAP1 SLOAD SWAP1 PUSH2 0x100 EXP SWAP1 DIV PUSH20 0xFFFFFFFFFFFFFFFFFFFFFFFFFFFFFFFFFFFFFFFF AND PUSH20 0xFFFFFFFFFFFFFFFFFFFFFFFFFFFFFFFFFFFFFFFF AND PUSH20 0xFFFFFFFFFFFFFFFFFFFFFFFFFFFFFFFFFFFFFFFF AND DUP2 MSTORE PUSH1 0x20 ADD PUSH1 0x5 DUP3 ADD SLOAD DUP2 MSTORE PUSH1 0x20 ADD PUSH1 0x6 DUP3 ADD SLOAD DUP2 MSTORE PUSH1 0x20 ADD PUSH1 0x7 DUP3 ADD PUSH1 0x0 SWAP1 SLOAD SWAP1 PUSH2 0x100 EXP SWAP1 DIV PUSH20 0xFFFFFFFFFFFFFFFFFFFFFFFFFFFFFFFFFFFFFFFF AND PUSH20 0xFFFFFFFFFFFFFFFFFFFFFFFFFFFFFFFFFFFFFFFF AND PUSH20 0xFFFFFFFFFFFFFFFFFFFFFFFFFFFFFFFFFFFFFFFF AND DUP2 MSTORE PUSH1 0x20 ADD PUSH1 0x8 DUP3 ADD PUSH1 0x40 MLOAD DUP1 PUSH1 0xC0 ADD PUSH1 0x40 MSTORE SWAP1 DUP2 PUSH1 0x0 DUP3 ADD DUP1 SLOAD PUSH2 0x3D1 SWAP1 PUSH2 0x3082 JUMP JUMPDEST DUP1 PUSH1 0x1F ADD PUSH1 0x20 DUP1 SWAP2 DIV MUL PUSH1 0x20 ADD PUSH1 0x40 MLOAD SWAP1 DUP2 ADD PUSH1 0x40 MSTORE DUP1 SWAP3 SWAP2 SWAP1 DUP2 DUP2 MSTORE PUSH1 0x20 ADD DUP3 DUP1 SLOAD PUSH2 0x3FD SWAP1 PUSH2 0x3082 JUMP JUMPDEST DUP1 ISZERO PUSH2 0x44A JUMPI DUP1 PUSH1 0x1F LT PUSH2 0x41F JUMPI PUSH2 0x100 DUP1 DUP4 SLOAD DIV MUL DUP4 MSTORE SWAP2 PUSH1 0x20 ADD SWAP2 PUSH2 0x44A JUMP JUMPDEST DUP3 ADD SWAP2 SWAP1 PUSH1 0x0 MSTORE PUSH1 0x20 PUSH1 0x0 KECCAK256 SWAP1 JUMPDEST DUP2 SLOAD DUP2 MSTORE SWAP1 PUSH1 0x1 ADD SWAP1 PUSH1 0x20 ADD DUP1 DUP4 GT PUSH2 0x42D JUMPI DUP3 SWAP1 SUB PUSH1 0x1F AND DUP3 ADD SWAP2 JUMPDEST POP POP POP POP POP DUP2 MSTORE PUSH1 0x20 ADD PUSH1 0x1 DUP3 ADD DUP1 SLOAD PUSH2 0x463 SWAP1 PUSH2 0x3082 JUMP JUMPDEST DUP1 PUSH1 0x1F ADD PUSH1 0x20 DUP1 SWAP2 DIV MUL PUSH1 0x20 ADD PUSH1 0x40 MLOAD SWAP1 DUP2 ADD PUSH1 0x40 MSTORE DUP1 SWAP3 SWAP2 SWAP1 DUP2 DUP2 MSTORE PUSH1 0x20 ADD DUP3 DUP1 SLOAD PUSH2 0x48F SWAP1 PUSH2 0x3082 JUMP JUMPDEST DUP1 ISZERO PUSH2 0x4DC JUMPI DUP1 PUSH1 0x1F LT PUSH2 0x4B1 JUMPI PUSH2 0x100 DUP1 DUP4 SLOAD DIV MUL DUP4 MSTORE SWAP2 PUSH1 0x20 ADD SWAP2 PUSH2 0x4DC JUMP JUMPDEST DUP3 ADD SWAP2 SWAP1 PUSH1 0x0 MSTORE PUSH1 0x20 PUSH1 0x0 KECCAK256 SWAP1 JUMPDEST DUP2 SLOAD DUP2 MSTORE SWAP1 PUSH1 0x1 ADD SWAP1 PUSH1 0x20 ADD DUP1 DUP4 GT PUSH2 0x4BF JUMPI DUP3 SWAP1 SUB PUSH1 0x1F AND DUP3 ADD SWAP2 JUMPDEST POP POP POP POP POP DUP2 MSTORE PUSH1 0x20 ADD PUSH1 0x2 DUP3 ADD PUSH1 0x0 SWAP1 SLOAD SWAP1 PUSH2 0x100 EXP SWAP1 DIV PUSH1 0xFF AND PUSH1 0x4 DUP2 GT ISZERO PUSH2 0x530 JUMPI PUSH32 0x4E487B7100000000000000000000000000000000000000000000000000000000 PUSH1 0x0 MSTORE PUSH1 0x21 PUSH1 0x4 MSTORE PUSH1 0x24 PUSH1 0x0 REVERT JUMPDEST PUSH1 0x4 DUP2 GT ISZERO PUSH2 0x568 JUMPI PUSH32 0x4E487B7100000000000000000000000000000000000000000000000000000000 PUSH1 0x0 MSTORE PUSH1 0x21 PUSH1 0x4 MSTORE PUSH1 0x24 PUSH1 0x0 REVERT JUMPDEST DUP2 MSTORE PUSH1 0x20 ADD PUSH1 0x2 DUP3 ADD PUSH1 0x1 SWAP1 SLOAD SWAP1 PUSH2 0x100 EXP SWAP1 DIV PUSH1 0xFF AND PUSH1 0x4 DUP2 GT ISZERO PUSH2 0x5B7 JUMPI PUSH32 0x4E487B7100000000000000000000000000000000000000000000000000000000 PUSH1 0x0 MSTORE PUSH1 0x21 PUSH1 0x4 MSTORE PUSH1 0x24 PUSH1 0x0 REVERT JUMPDEST PUSH1 0x4 DUP2 GT ISZERO PUSH2 0x5EF JUMPI PUSH32 0x4E487B7100000000000000000000000000000000000000000000000000000000 PUSH1 0x0 MSTORE PUSH1 0x21 PUSH1 0x4 MSTORE PUSH1 0x24 PUSH1 0x0 REVERT JUMPDEST DUP2 MSTORE PUSH1 0x20 ADD PUSH1 0x2 DUP3 ADD PUSH1 0x2 SWAP1 SLOAD SWAP1 PUSH2 0x100 EXP SWAP1 DIV PUSH1 0xFF AND PUSH1 0x4 DUP2 GT ISZERO PUSH2 0x63E JUMPI PUSH32 0x4E487B7100000000000000000000000000000000000000000000000000000000 PUSH1 0x0 MSTORE PUSH1 0x21 PUSH1 0x4 MSTORE PUSH1 0x24 PUSH1 0x0 REVERT JUMPDEST PUSH1 0x4 DUP2 GT ISZERO PUSH2 0x676 JUMPI PUSH32 0x4E487B7100000000000000000000000000000000000000000000000000000000 PUSH1 0x0 MSTORE PUSH1 0x21 PUSH1 0x4 MSTORE PUSH1 0x24 PUSH1 0x0 REVERT JUMPDEST DUP2 MSTORE PUSH1 0x20 ADD PUSH1 0x2 DUP3 ADD PUSH1 0x3 SWAP1 SLOAD SWAP1 PUSH2 0x100 EXP SWAP1 DIV PUSH1 0xFF AND PUSH1 0x4 DUP2 GT ISZERO PUSH2 0x6C5 JUMPI PUSH32 0x4E487B7100000000000000000000000000000000000000000000000000000000 PUSH1 0x0 MSTORE PUSH1 0x21 PUSH1 0x4 MSTORE PUSH1 0x24 PUSH1 0x0 REVERT JUMPDEST PUSH1 0x4 DUP2 GT ISZERO PUSH2 0x6FD JUMPI PUSH32 0x4E487B7100000000000000000000000000000000000000000000000000000000 PUSH1 0x0 MSTORE PUSH1 0x21 PUSH1 0x4 MSTORE PUSH1 0x24 PUSH1 0x0 REVERT JUMPDEST DUP2 MSTORE POP POP DUP2 MSTORE PUSH1 0x20 ADD PUSH1 0xB DUP3 ADD DUP1 SLOAD PUSH2 0x715 SWAP1 PUSH2 0x3082 JUMP JUMPDEST DUP1 PUSH1 0x1F ADD PUSH1 0x20 DUP1 SWAP2 DIV MUL PUSH1 0x20 ADD PUSH1 0x40 MLOAD SWAP1 DUP2 ADD PUSH1 0x40 MSTORE DUP1 SWAP3 SWAP2 SWAP1 DUP2 DUP2 MSTORE PUSH1 0x20 ADD DUP3 DUP1 SLOAD PUSH2 0x741 SWAP1 PUSH2 0x3082 JUMP JUMPDEST DUP1 ISZERO PUSH2 0x78E JUMPI DUP1 PUSH1 0x1F LT PUSH2 0x763 JUMPI PUSH2 0x100 DUP1 DUP4 SLOAD DIV MUL DUP4 MSTORE SWAP2 PUSH1 0x20 ADD SWAP2 PUSH2 0x78E JUMP JUMPDEST DUP3 ADD SWAP2 SWAP1 PUSH1 0x0 MSTORE PUSH1 0x20 PUSH1 0x0 KECCAK256 SWAP1 JUMPDEST DUP2 SLOAD DUP2 MSTORE SWAP1 PUSH1 0x1 ADD SWAP1 PUSH1 0x20 ADD DUP1 DUP4 GT PUSH2 0x771 JUMPI DUP3 SWAP1 SUB PUSH1 0x1F AND DUP3 ADD SWAP2 JUMPDEST POP POP POP POP POP DUP2 MSTORE PUSH1 0x20 ADD PUSH1 0xC DUP3 ADD PUSH1 0x0 SWAP1 SLOAD SWAP1 PUSH2 0x100 EXP SWAP1 DIV PUSH1 0xFF AND ISZERO ISZERO ISZERO ISZERO DUP2 MSTORE PUSH1 0x20 ADD PUSH1 0xD DUP3 ADD DUP1 SLOAD PUSH2 0x7C2 SWAP1 PUSH2 0x3082 JUMP JUMPDEST DUP1 PUSH1 0x1F ADD PUSH1 0x20 DUP1 SWAP2 DIV MUL PUSH1 0x20 ADD PUSH1 0x40 MLOAD SWAP1 DUP2 ADD PUSH1 0x40 MSTORE DUP1 SWAP3 SWAP2 SWAP1 DUP2 DUP2 MSTORE PUSH1 0x20 ADD DUP3 DUP1 SLOAD PUSH2 0x7EE SWAP1 PUSH2 0x3082 JUMP JUMPDEST DUP1 ISZERO PUSH2 0x83B JUMPI DUP1 PUSH1 0x1F LT PUSH2 0x810 JUMPI PUSH2 0x100 DUP1 DUP4 SLOAD DIV MUL DUP4 MSTORE SWAP2 PUSH1 0x20 ADD SWAP2 PUSH2 0x83B JUMP JUMPDEST DUP3 ADD SWAP2 SWAP1 PUSH1 0x0 MSTORE PUSH1 0x20 PUSH1 0x0 KECCAK256 SWAP1 JUMPDEST DUP2 SLOAD DUP2 MSTORE SWAP1 PUSH1 0x1 ADD SWAP1 PUSH1 0x20 ADD DUP1 DUP4 GT PUSH2 0x81E JUMPI DUP3 SWAP1 SUB PUSH1 0x1F AND DUP3 ADD SWAP2 JUMPDEST POP POP POP POP POP DUP2 MSTORE POP POP SWAP1 POP SWAP2 SWAP1 POP JUMP JUMPDEST PUSH1 0x0 DUP1 SLOAD SWAP1 PUSH2 0x100 EXP SWAP1 DIV PUSH20 0xFFFFFFFFFFFFFFFFFFFFFFFFFFFFFFFFFFFFFFFF AND DUP2 JUMP JUMPDEST PUSH1 0x0 DUP1 PUSH1 0x1 DUP1 SLOAD SWAP1 POP SWAP1 POP JUMPDEST PUSH1 0x0 DUP2 EQ ISZERO PUSH2 0xA25 JUMPI PUSH1 0x0 DUP1 SLOAD SWAP1 PUSH2 0x100 EXP SWAP1 DIV PUSH20 0xFFFFFFFFFFFFFFFFFFFFFFFFFFFFFFFFFFFFFFFF AND PUSH20 0xFFFFFFFFFFFFFFFFFFFFFFFFFFFFFFFFFFFFFFFF AND CALLER PUSH20 0xFFFFFFFFFFFFFFFFFFFFFFFFFFFFFFFFFFFFFFFF AND EQ ISZERO PUSH2 0x900 JUMPI PUSH1 0x0 DUP1 SLOAD SWAP1 PUSH2 0x100 EXP SWAP1 DIV PUSH20 0xFFFFFFFFFFFFFFFFFFFFFFFFFFFFFFFFFFFFFFFF AND SWAP2 POP PUSH2 0xA25 JUMP JUMPDEST CALLER PUSH20 0xFFFFFFFFFFFFFFFFFFFFFFFFFFFFFFFFFFFFFFFF AND PUSH1 0x1 DUP3 DUP2 SLOAD DUP2 LT PUSH2 0x951 JUMPI PUSH32 0x4E487B7100000000000000000000000000000000000000000000000000000000 PUSH1 0x0 MSTORE PUSH1 0x32 PUSH1 0x4 MSTORE PUSH1 0x24 PUSH1 0x0 REVERT JUMPDEST SWAP1 PUSH1 0x0 MSTORE PUSH1 0x20 PUSH1 0x0 KECCAK256 SWAP1 PUSH1 0x4 MUL ADD PUSH1 0x0 ADD PUSH1 0x0 SWAP1 SLOAD SWAP1 PUSH2 0x100 EXP SWAP1 DIV PUSH20 0xFFFFFFFFFFFFFFFFFFFFFFFFFFFFFFFFFFFFFFFF AND PUSH20 0xFFFFFFFFFFFFFFFFFFFFFFFFFFFFFFFFFFFFFFFF AND EQ ISZERO PUSH2 0xA12 JUMPI PUSH1 0x1 DUP2 DUP2 SLOAD DUP2 LT PUSH2 0x9D9 JUMPI PUSH32 0x4E487B7100000000000000000000000000000000000000000000000000000000 PUSH1 0x0 MSTORE PUSH1 0x32 PUSH1 0x4 MSTORE PUSH1 0x24 PUSH1 0x0 REVERT JUMPDEST SWAP1 PUSH1 0x0 MSTORE PUSH1 0x20 PUSH1 0x0 KECCAK256 SWAP1 PUSH1 0x4 MUL ADD PUSH1 0x0 ADD PUSH1 0x0 SWAP1 SLOAD SWAP1 PUSH2 0x100 EXP SWAP1 DIV PUSH20 0xFFFFFFFFFFFFFFFFFFFFFFFFFFFFFFFFFFFFFFFF AND SWAP2 POP PUSH2 0xA25 JUMP JUMPDEST DUP1 DUP1 PUSH2 0xA1D SWAP1 PUSH2 0x3058 JUMP JUMPDEST SWAP2 POP POP PUSH2 0x87B JUMP JUMPDEST POP DUP1 PUSH20 0xFFFFFFFFFFFFFFFFFFFFFFFFFFFFFFFFFFFFFFFF AND CALLER PUSH20 0xFFFFFFFFFFFFFFFFFFFFFFFFFFFFFFFFFFFFFFFF AND EQ PUSH2 0xA5E JUMPI PUSH1 0x0 DUP1 REVERT JUMPDEST PUSH1 0x2 PUSH1 0x40 MLOAD DUP1 PUSH2 0x180 ADD PUSH1 0x40 MSTORE DUP1 DUP11 DUP2 MSTORE PUSH1 0x20 ADD DUP10 DUP2 MSTORE PUSH1 0x20 ADD DUP9 DUP2 MSTORE PUSH1 0x20 ADD DUP8 DUP2 MSTORE PUSH1 0x20 ADD DUP7 PUSH20 0xFFFFFFFFFFFFFFFFFFFFFFFFFFFFFFFFFFFFFFFF AND DUP2 MSTORE PUSH1 0x20 ADD DUP6 DUP2 MSTORE PUSH1 0x20 ADD DUP5 DUP2 MSTORE PUSH1 0x20 ADD CALLER PUSH20 0xFFFFFFFFFFFFFFFFFFFFFFFFFFFFFFFFFFFFFFFF AND DUP2 MSTORE PUSH1 0x20 ADD PUSH1 0x3 PUSH1 0x40 MLOAD DUP1 PUSH1 0xC0 ADD PUSH1 0x40 MSTORE SWAP1 DUP2 PUSH1 0x0 DUP3 ADD DUP1 SLOAD PUSH2 0xAE5 SWAP1 PUSH2 0x3082 JUMP JUMPDEST DUP1 PUSH1 0x1F ADD PUSH1 0x20 DUP1 SWAP2 DIV MUL PUSH1 0x20 ADD PUSH1 0x40 MLOAD SWAP1 DUP2 ADD PUSH1 0x40 MSTORE DUP1 SWAP3 SWAP2 SWAP1 DUP2 DUP2 MSTORE PUSH1 0x20 ADD DUP3 DUP1 SLOAD PUSH2 0xB11 SWAP1 PUSH2 0x3082 JUMP JUMPDEST DUP1 ISZERO PUSH2 0xB5E JUMPI DUP1 PUSH1 0x1F LT PUSH2 0xB33 JUMPI PUSH2 0x100 DUP1 DUP4 SLOAD DIV MUL DUP4 MSTORE SWAP2 PUSH1 0x20 ADD SWAP2 PUSH2 0xB5E JUMP JUMPDEST DUP3 ADD SWAP2 SWAP1 PUSH1 0x0 MSTORE PUSH1 0x20 PUSH1 0x0 KECCAK256 SWAP1 JUMPDEST DUP2 SLOAD DUP2 MSTORE SWAP1 PUSH1 0x1 ADD SWAP1 PUSH1 0x20 ADD DUP1 DUP4 GT PUSH2 0xB41 JUMPI DUP3 SWAP1 SUB PUSH1 0x1F AND DUP3 ADD SWAP2 JUMPDEST POP POP POP POP POP DUP2 MSTORE PUSH1 0x20 ADD PUSH1 0x1 DUP3 ADD DUP1 SLOAD PUSH2 0xB77 SWAP1 PUSH2 0x3082 JUMP JUMPDEST DUP1 PUSH1 0x1F ADD PUSH1 0x20 DUP1 SWAP2 DIV MUL PUSH1 0x20 ADD PUSH1 0x40 MLOAD SWAP1 DUP2 ADD PUSH1 0x40 MSTORE DUP1 SWAP3 SWAP2 SWAP1 DUP2 DUP2 MSTORE PUSH1 0x20 ADD DUP3 DUP1 SLOAD PUSH2 0xBA3 SWAP1 PUSH2 0x3082 JUMP JUMPDEST DUP1 ISZERO PUSH2 0xBF0 JUMPI DUP1 PUSH1 0x1F LT PUSH2 0xBC5 JUMPI PUSH2 0x100 DUP1 DUP4 SLOAD DIV MUL DUP4 MSTORE SWAP2 PUSH1 0x20 ADD SWAP2 PUSH2 0xBF0 JUMP JUMPDEST DUP3 ADD SWAP2 SWAP1 PUSH1 0x0 MSTORE PUSH1 0x20 PUSH1 0x0 KECCAK256 SWAP1 JUMPDEST DUP2 SLOAD DUP2 MSTORE SWAP1 PUSH1 0x1 ADD SWAP1 PUSH1 0x20 ADD DUP1 DUP4 GT PUSH2 0xBD3 JUMPI DUP3 SWAP1 SUB PUSH1 0x1F AND DUP3 ADD SWAP2 JUMPDEST POP POP POP POP POP DUP2 MSTORE PUSH1 0x20 ADD PUSH1 0x2 DUP3 ADD PUSH1 0x0 SWAP1 SLOAD SWAP1 PUSH2 0x100 EXP SWAP1 DIV PUSH1 0xFF AND PUSH1 0x4 DUP2 GT ISZERO PUSH2 0xC44 JUMPI PUSH32 0x4E487B7100000000000000000000000000000000000000000000000000000000 PUSH1 0x0 MSTORE PUSH1 0x21 PUSH1 0x4 MSTORE PUSH1 0x24 PUSH1 0x0 REVERT JUMPDEST PUSH1 0x4 DUP2 GT ISZERO PUSH2 0xC7C JUMPI PUSH32 0x4E487B7100000000000000000000000000000000000000000000000000000000 PUSH1 0x0 MSTORE PUSH1 0x21 PUSH1 0x4 MSTORE PUSH1 0x24 PUSH1 0x0 REVERT JUMPDEST DUP2 MSTORE PUSH1 0x20 ADD PUSH1 0x2 DUP3 ADD PUSH1 0x1 SWAP1 SLOAD SWAP1 PUSH2 0x100 EXP SWAP1 DIV PUSH1 0xFF AND PUSH1 0x4 DUP2 GT ISZERO PUSH2 0xCCB JUMPI PUSH32 0x4E487B7100000000000000000000000000000000000000000000000000000000 PUSH1 0x0 MSTORE PUSH1 0x21 PUSH1 0x4 MSTORE PUSH1 0x24 PUSH1 0x0 REVERT JUMPDEST PUSH1 0x4 DUP2 GT ISZERO PUSH2 0xD03 JUMPI PUSH32 0x4E487B7100000000000000000000000000000000000000000000000000000000 PUSH1 0x0 MSTORE PUSH1 0x21 PUSH1 0x4 MSTORE PUSH1 0x24 PUSH1 0x0 REVERT JUMPDEST DUP2 MSTORE PUSH1 0x20 ADD PUSH1 0x2 DUP3 ADD PUSH1 0x2 SWAP1 SLOAD SWAP1 PUSH2 0x100 EXP SWAP1 DIV PUSH1 0xFF AND PUSH1 0x4 DUP2 GT ISZERO PUSH2 0xD52 JUMPI PUSH32 0x4E487B7100000000000000000000000000000000000000000000000000000000 PUSH1 0x0 MSTORE PUSH1 0x21 PUSH1 0x4 MSTORE PUSH1 0x24 PUSH1 0x0 REVERT JUMPDEST PUSH1 0x4 DUP2 GT ISZERO PUSH2 0xD8A JUMPI PUSH32 0x4E487B7100000000000000000000000000000000000000000000000000000000 PUSH1 0x0 MSTORE PUSH1 0x21 PUSH1 0x4 MSTORE PUSH1 0x24 PUSH1 0x0 REVERT JUMPDEST DUP2 MSTORE PUSH1 0x20 ADD PUSH1 0x2 DUP3 ADD PUSH1 0x3 SWAP1 SLOAD SWAP1 PUSH2 0x100 EXP SWAP1 DIV PUSH1 0xFF AND PUSH1 0x4 DUP2 GT ISZERO PUSH2 0xDD9 JUMPI PUSH32 0x4E487B7100000000000000000000000000000000000000000000000000000000 PUSH1 0x0 MSTORE PUSH1 0x21 PUSH1 0x4 MSTORE PUSH1 0x24 PUSH1 0x0 REVERT JUMPDEST PUSH1 0x4 DUP2 GT ISZERO PUSH2 0xE11 JUMPI PUSH32 0x4E487B7100000000000000000000000000000000000000000000000000000000 PUSH1 0x0 MSTORE PUSH1 0x21 PUSH1 0x4 MSTORE PUSH1 0x24 PUSH1 0x0 REVERT JUMPDEST DUP2 MSTORE POP POP DUP2 MSTORE PUSH1 0x20 ADD PUSH1 0x40 MLOAD DUP1 PUSH1 0x40 ADD PUSH1 0x40 MSTORE DUP1 PUSH1 0x4 DUP2 MSTORE PUSH1 0x20 ADD PUSH32 0x6661726D00000000000000000000000000000000000000000000000000000000 DUP2 MSTORE POP DUP2 MSTORE PUSH1 0x20 ADD PUSH1 0x0 ISZERO ISZERO DUP2 MSTORE PUSH1 0x20 ADD PUSH1 0x40 MLOAD DUP1 PUSH1 0x40 ADD PUSH1 0x40 MSTORE DUP1 PUSH1 0x4 DUP2 MSTORE PUSH1 0x20 ADD PUSH32 0x676F6F6400000000000000000000000000000000000000000000000000000000 DUP2 MSTORE POP DUP2 MSTORE POP SWAP1 DUP1 PUSH1 0x1 DUP2 SLOAD ADD DUP1 DUP3 SSTORE DUP1 SWAP2 POP POP PUSH1 0x1 SWAP1 SUB SWAP1 PUSH1 0x0 MSTORE PUSH1 0x20 PUSH1 0x0 KECCAK256 SWAP1 PUSH1 0xE MUL ADD PUSH1 0x0 SWAP1 SWAP2 SWAP1 SWAP2 SWAP1 SWAP2 POP PUSH1 0x0 DUP3 ADD MLOAD DUP2 PUSH1 0x0 ADD SSTORE PUSH1 0x20 DUP3 ADD MLOAD DUP2 PUSH1 0x1 ADD SSTORE PUSH1 0x40 DUP3 ADD MLOAD DUP2 PUSH1 0x2 ADD SSTORE PUSH1 0x60 DUP3 ADD MLOAD DUP2 PUSH1 0x3 ADD SSTORE PUSH1 0x80 DUP3 ADD MLOAD DUP2 PUSH1 0x4 ADD PUSH1 0x0 PUSH2 0x100 EXP DUP2 SLOAD DUP2 PUSH20 0xFFFFFFFFFFFFFFFFFFFFFFFFFFFFFFFFFFFFFFFF MUL NOT AND SWAP1 DUP4 PUSH20 0xFFFFFFFFFFFFFFFFFFFFFFFFFFFFFFFFFFFFFFFF AND MUL OR SWAP1 SSTORE POP PUSH1 0xA0 DUP3 ADD MLOAD DUP2 PUSH1 0x5 ADD SSTORE PUSH1 0xC0 DUP3 ADD MLOAD DUP2 PUSH1 0x6 ADD SSTORE PUSH1 0xE0 DUP3 ADD MLOAD DUP2 PUSH1 0x7 ADD PUSH1 0x0 PUSH2 0x100 EXP DUP2 SLOAD DUP2 PUSH20 0xFFFFFFFFFFFFFFFFFFFFFFFFFFFFFFFFFFFFFFFF MUL NOT AND SWAP1 DUP4 PUSH20 0xFFFFFFFFFFFFFFFFFFFFFFFFFFFFFFFFFFFFFFFF AND MUL OR SWAP1 SSTORE POP PUSH2 0x100 DUP3 ADD MLOAD DUP2 PUSH1 0x8 ADD PUSH1 0x0 DUP3 ADD MLOAD DUP2 PUSH1 0x0 ADD SWAP1 DUP1 MLOAD SWAP1 PUSH1 0x20 ADD SWAP1 PUSH2 0xFB0 SWAP3 SWAP2 SWAP1 PUSH2 0x244B JUMP JUMPDEST POP PUSH1 0x20 DUP3 ADD MLOAD DUP2 PUSH1 0x1 ADD SWAP1 DUP1 MLOAD SWAP1 PUSH1 0x20 ADD SWAP1 PUSH2 0xFCD SWAP3 SWAP2 SWAP1 PUSH2 0x244B JUMP JUMPDEST POP PUSH1 0x40 DUP3 ADD MLOAD DUP2 PUSH1 0x2 ADD PUSH1 0x0 PUSH2 0x100 EXP DUP2 SLOAD DUP2 PUSH1 0xFF MUL NOT AND SWAP1 DUP4 PUSH1 0x4 DUP2 GT ISZERO PUSH2 0x101F JUMPI PUSH32 0x4E487B7100000000000000000000000000000000000000000000000000000000 PUSH1 0x0 MSTORE PUSH1 0x21 PUSH1 0x4 MSTORE PUSH1 0x24 PUSH1 0x0 REVERT JUMPDEST MUL OR SWAP1 SSTORE POP PUSH1 0x60 DUP3 ADD MLOAD DUP2 PUSH1 0x2 ADD PUSH1 0x1 PUSH2 0x100 EXP DUP2 SLOAD DUP2 PUSH1 0xFF MUL NOT AND SWAP1 DUP4 PUSH1 0x4 DUP2 GT ISZERO PUSH2 0x1075 JUMPI PUSH32 0x4E487B7100000000000000000000000000000000000000000000000000000000 PUSH1 0x0 MSTORE PUSH1 0x21 PUSH1 0x4 MSTORE PUSH1 0x24 PUSH1 0x0 REVERT JUMPDEST MUL OR SWAP1 SSTORE POP PUSH1 0x80 DUP3 ADD MLOAD DUP2 PUSH1 0x2 ADD PUSH1 0x2 PUSH2 0x100 EXP DUP2 SLOAD DUP2 PUSH1 0xFF MUL NOT AND SWAP1 DUP4 PUSH1 0x4 DUP2 GT ISZERO PUSH2 0x10CB JUMPI PUSH32 0x4E487B7100000000000000000000000000000000000000000000000000000000 PUSH1 0x0 MSTORE PUSH1 0x21 PUSH1 0x4 MSTORE PUSH1 0x24 PUSH1 0x0 REVERT JUMPDEST MUL OR SWAP1 SSTORE POP PUSH1 0xA0 DUP3 ADD MLOAD DUP2 PUSH1 0x2 ADD PUSH1 0x3 PUSH2 0x100 EXP DUP2 SLOAD DUP2 PUSH1 0xFF MUL NOT AND SWAP1 DUP4 PUSH1 0x4 DUP2 GT ISZERO PUSH2 0x1121 JUMPI PUSH32 0x4E487B7100000000000000000000000000000000000000000000000000000000 PUSH1 0x0 MSTORE PUSH1 0x21 PUSH1 0x4 MSTORE PUSH1 0x24 PUSH1 0x0 REVERT JUMPDEST MUL OR SWAP1 SSTORE POP POP POP PUSH2 0x120 DUP3 ADD MLOAD DUP2 PUSH1 0xB ADD SWAP1 DUP1 MLOAD SWAP1 PUSH1 0x20 ADD SWAP1 PUSH2 0x1145 SWAP3 SWAP2 SWAP1 PUSH2 0x244B JUMP JUMPDEST POP PUSH2 0x140 DUP3 ADD MLOAD DUP2 PUSH1 0xC ADD PUSH1 0x0 PUSH2 0x100 EXP DUP2 SLOAD DUP2 PUSH1 0xFF MUL NOT AND SWAP1 DUP4 ISZERO ISZERO MUL OR SWAP1 SSTORE POP PUSH2 0x160 DUP3 ADD MLOAD DUP2 PUSH1 0xD ADD SWAP1 DUP1 MLOAD SWAP1 PUSH1 0x20 ADD SWAP1 PUSH2 0x1184 SWAP3 SWAP2 SWAP1 PUSH2 0x244B JUMP JUMPDEST POP POP POP POP POP POP POP POP POP POP POP JUMP JUMPDEST PUSH1 0x0 DUP1 SLOAD SWAP1 PUSH2 0x100 EXP SWAP1 DIV PUSH20 0xFFFFFFFFFFFFFFFFFFFFFFFFFFFFFFFFFFFFFFFF AND DUP1 PUSH20 0xFFFFFFFFFFFFFFFFFFFFFFFFFFFFFFFFFFFFFFFF AND CALLER PUSH20 0xFFFFFFFFFFFFFFFFFFFFFFFFFFFFFFFFFFFFFFFF AND EQ PUSH2 0x11EA JUMPI PUSH1 0x0 DUP1 REVERT JUMPDEST PUSH1 0x0 DUP6 MLOAD SWAP1 POP JUMPDEST PUSH1 0x0 DUP2 EQ ISZERO PUSH2 0x133C JUMPI PUSH1 0x1 PUSH1 0x40 MLOAD DUP1 PUSH1 0x80 ADD PUSH1 0x40 MSTORE DUP1 DUP9 DUP5 DUP2 MLOAD DUP2 LT PUSH2 0x1240 JUMPI PUSH32 0x4E487B7100000000000000000000000000000000000000000000000000000000 PUSH1 0x0 MSTORE PUSH1 0x32 PUSH1 0x4 MSTORE PUSH1 0x24 PUSH1 0x0 REVERT JUMPDEST PUSH1 0x20 MUL PUSH1 0x20 ADD ADD MLOAD PUSH20 0xFFFFFFFFFFFFFFFFFFFFFFFFFFFFFFFFFFFFFFFF AND DUP2 MSTORE PUSH1 0x20 ADD DUP8 DUP2 MSTORE PUSH1 0x20 ADD DUP7 DUP2 MSTORE PUSH1 0x20 ADD DUP6 DUP2 MSTORE POP SWAP1 DUP1 PUSH1 0x1 DUP2 SLOAD ADD DUP1 DUP3 SSTORE DUP1 SWAP2 POP POP PUSH1 0x1 SWAP1 SUB SWAP1 PUSH1 0x0 MSTORE PUSH1 0x20 PUSH1 0x0 KECCAK256 SWAP1 PUSH1 0x4 MUL ADD PUSH1 0x0 SWAP1 SWAP2 SWAP1 SWAP2 SWAP1 SWAP2 POP PUSH1 0x0 DUP3 ADD MLOAD DUP2 PUSH1 0x0 ADD PUSH1 0x0 PUSH2 0x100 EXP DUP2 SLOAD DUP2 PUSH20 0xFFFFFFFFFFFFFFFFFFFFFFFFFFFFFFFFFFFFFFFF MUL NOT AND SWAP1 DUP4 PUSH20 0xFFFFFFFFFFFFFFFFFFFFFFFFFFFFFFFFFFFFFFFF AND MUL OR SWAP1 SSTORE POP PUSH1 0x20 DUP3 ADD MLOAD DUP2 PUSH1 0x1 ADD SSTORE PUSH1 0x40 DUP3 ADD MLOAD DUP2 PUSH1 0x2 ADD SWAP1 DUP1 MLOAD SWAP1 PUSH1 0x20 ADD SWAP1 PUSH2 0x1309 SWAP3 SWAP2 SWAP1 PUSH2 0x244B JUMP JUMPDEST POP PUSH1 0x60 DUP3 ADD MLOAD DUP2 PUSH1 0x3 ADD SWAP1 DUP1 MLOAD SWAP1 PUSH1 0x20 ADD SWAP1 PUSH2 0x1326 SWAP3 SWAP2 SWAP1 PUSH2 0x244B JUMP JUMPDEST POP POP POP DUP1 DUP1 PUSH2 0x1334 SWAP1 PUSH2 0x3058 JUMP JUMPDEST SWAP2 POP POP PUSH2 0x11F1 JUMP JUMPDEST POP POP POP POP POP POP JUMP JUMPDEST PUSH1 0x1 DUP2 DUP2 SLOAD DUP2 LT PUSH2 0x1354 JUMPI PUSH1 0x0 DUP1 REVERT JUMPDEST SWAP1 PUSH1 0x0 MSTORE PUSH1 0x20 PUSH1 0x0 KECCAK256 SWAP1 PUSH1 0x4 MUL ADD PUSH1 0x0 SWAP2 POP SWAP1 POP DUP1 PUSH1 0x0 ADD PUSH1 0x0 SWAP1 SLOAD SWAP1 PUSH2 0x100 EXP SWAP1 DIV PUSH20 0xFFFFFFFFFFFFFFFFFFFFFFFFFFFFFFFFFFFFFFFF AND SWAP1 DUP1 PUSH1 0x1 ADD SLOAD SWAP1 DUP1 PUSH1 0x2 ADD DUP1 SLOAD PUSH2 0x13A3 SWAP1 PUSH2 0x3082 JUMP JUMPDEST DUP1 PUSH1 0x1F ADD PUSH1 0x20 DUP1 SWAP2 DIV MUL PUSH1 0x20 ADD PUSH1 0x40 MLOAD SWAP1 DUP2 ADD PUSH1 0x40 MSTORE DUP1 SWAP3 SWAP2 SWAP1 DUP2 DUP2 MSTORE PUSH1 0x20 ADD DUP3 DUP1 SLOAD PUSH2 0x13CF SWAP1 PUSH2 0x3082 JUMP JUMPDEST DUP1 ISZERO PUSH2 0x141C JUMPI DUP1 PUSH1 0x1F LT PUSH2 0x13F1 JUMPI PUSH2 0x100 DUP1 DUP4 SLOAD DIV MUL DUP4 MSTORE SWAP2 PUSH1 0x20 ADD SWAP2 PUSH2 0x141C JUMP JUMPDEST DUP3 ADD SWAP2 SWAP1 PUSH1 0x0 MSTORE PUSH1 0x20 PUSH1 0x0 KECCAK256 SWAP1 JUMPDEST DUP2 SLOAD DUP2 MSTORE SWAP1 PUSH1 0x1 ADD SWAP1 PUSH1 0x20 ADD DUP1 DUP4 GT PUSH2 0x13FF JUMPI DUP3 SWAP1 SUB PUSH1 0x1F AND DUP3 ADD SWAP2 JUMPDEST POP POP POP POP POP SWAP1 DUP1 PUSH1 0x3 ADD DUP1 SLOAD PUSH2 0x1431 SWAP1 PUSH2 0x3082 JUMP JUMPDEST DUP1 PUSH1 0x1F ADD PUSH1 0x20 DUP1 SWAP2 DIV MUL PUSH1 0x20 ADD PUSH1 0x40 MLOAD SWAP1 DUP2 ADD PUSH1 0x40 MSTORE DUP1 SWAP3 SWAP2 SWAP1 DUP2 DUP2 MSTORE PUSH1 0x20 ADD DUP3 DUP1 SLOAD PUSH2 0x145D SWAP1 PUSH2 0x3082 JUMP JUMPDEST DUP1 ISZERO PUSH2 0x14AA JUMPI DUP1 PUSH1 0x1F LT PUSH2 0x147F JUMPI PUSH2 0x100 DUP1 DUP4 SLOAD DIV MUL DUP4 MSTORE SWAP2 PUSH1 0x20 ADD SWAP2 PUSH2 0x14AA JUMP JUMPDEST DUP3 ADD SWAP2 SWAP1 PUSH1 0x0 MSTORE PUSH1 0x20 PUSH1 0x0 KECCAK256 SWAP1 JUMPDEST DUP2 SLOAD DUP2 MSTORE SWAP1 PUSH1 0x1 ADD SWAP1 PUSH1 0x20 ADD DUP1 DUP4 GT PUSH2 0x148D JUMPI DUP3 SWAP1 SUB PUSH1 0x1F AND DUP3 ADD SWAP2 JUMPDEST POP POP POP POP POP SWAP1 POP DUP5 JUMP JUMPDEST PUSH1 0x60 PUSH2 0x15C8 PUSH1 0x2 DUP4 DUP2 SLOAD DUP2 LT PUSH2 0x14F3 JUMPI PUSH32 0x4E487B7100000000000000000000000000000000000000000000000000000000 PUSH1 0x0 MSTORE PUSH1 0x32 PUSH1 0x4 MSTORE PUSH1 0x24 PUSH1 0x0 REVERT JUMPDEST SWAP1 PUSH1 0x0 MSTORE PUSH1 0x20 PUSH1 0x0 KECCAK256 SWAP1 PUSH1 0xE MUL ADD PUSH1 0xD ADD DUP1 SLOAD PUSH2 0x150F SWAP1 PUSH2 0x3082 JUMP JUMPDEST DUP1 PUSH1 0x1F ADD PUSH1 0x20 DUP1 SWAP2 DIV MUL PUSH1 0x20 ADD PUSH1 0x40 MLOAD SWAP1 DUP2 ADD PUSH1 0x40 MSTORE DUP1 SWAP3 SWAP2 SWAP1 DUP2 DUP2 MSTORE PUSH1 0x20 ADD DUP3 DUP1 SLOAD PUSH2 0x153B SWAP1 PUSH2 0x3082 JUMP JUMPDEST DUP1 ISZERO PUSH2 0x1588 JUMPI DUP1 PUSH1 0x1F LT PUSH2 0x155D JUMPI PUSH2 0x100 DUP1 DUP4 SLOAD DIV MUL DUP4 MSTORE SWAP2 PUSH1 0x20 ADD SWAP2 PUSH2 0x1588 JUMP JUMPDEST DUP3 ADD SWAP2 SWAP1 PUSH1 0x0 MSTORE PUSH1 0x20 PUSH1 0x0 KECCAK256 SWAP1 JUMPDEST DUP2 SLOAD DUP2 MSTORE SWAP1 PUSH1 0x1 ADD SWAP1 PUSH1 0x20 ADD DUP1 DUP4 GT PUSH2 0x156B JUMPI DUP3 SWAP1 SUB PUSH1 0x1F AND DUP3 ADD SWAP2 JUMPDEST POP POP POP POP POP PUSH1 0x40 MLOAD DUP1 PUSH1 0x40 ADD PUSH1 0x40 MSTORE DUP1 PUSH1 0x7 DUP2 MSTORE PUSH1 0x20 ADD PUSH32 0x64616D6167656400000000000000000000000000000000000000000000000000 DUP2 MSTORE POP PUSH2 0x235D JUMP JUMPDEST ISZERO PUSH2 0x15ED JUMPI PUSH1 0x40 MLOAD DUP1 PUSH1 0x60 ADD PUSH1 0x40 MSTORE DUP1 PUSH1 0x2B DUP2 MSTORE PUSH1 0x20 ADD PUSH2 0x31C4 PUSH1 0x2B SWAP2 CODECOPY SWAP1 POP PUSH2 0x16B0 JUMP JUMPDEST DUP3 PUSH1 0x2 DUP4 DUP2 SLOAD DUP2 LT PUSH2 0x1628 JUMPI PUSH32 0x4E487B7100000000000000000000000000000000000000000000000000000000 PUSH1 0x0 MSTORE PUSH1 0x32 PUSH1 0x4 MSTORE PUSH1 0x24 PUSH1 0x0 REVERT JUMPDEST SWAP1 PUSH1 0x0 MSTORE PUSH1 0x20 PUSH1 0x0 KECCAK256 SWAP1 PUSH1 0xE MUL ADD PUSH1 0x7 ADD PUSH1 0x0 PUSH2 0x100 EXP DUP2 SLOAD DUP2 PUSH20 0xFFFFFFFFFFFFFFFFFFFFFFFFFFFFFFFFFFFFFFFF MUL NOT AND SWAP1 DUP4 PUSH20 0xFFFFFFFFFFFFFFFFFFFFFFFFFFFFFFFFFFFFFFFF AND MUL OR SWAP1 SSTORE POP PUSH1 0x40 MLOAD DUP1 PUSH1 0x40 ADD PUSH1 0x40 MSTORE DUP1 PUSH1 0xA DUP2 MSTORE PUSH1 0x20 ADD PUSH32 0x7375636365737366756C00000000000000000000000000000000000000000000 DUP2 MSTORE POP SWAP1 POP JUMPDEST SWAP3 SWAP2 POP POP JUMP JUMPDEST PUSH1 0x0 PUSH1 0x2 DUP1 SLOAD SWAP1 POP SWAP1 POP SWAP1 JUMP JUMPDEST PUSH1 0x0 DUP1 PUSH1 0x0 SWAP1 SLOAD SWAP1 PUSH2 0x100 EXP SWAP1 DIV PUSH20 0xFFFFFFFFFFFFFFFFFFFFFFFFFFFFFFFFFFFFFFFF AND SWAP1 POP SWAP1 JUMP JUMPDEST PUSH1 0x0 DUP1 PUSH1 0x0 PUSH1 0x1 DUP1 SLOAD SWAP1 POP SWAP1 POP JUMPDEST PUSH1 0x0 DUP2 EQ ISZERO PUSH2 0x18A4 JUMPI PUSH1 0x0 DUP1 SLOAD SWAP1 PUSH2 0x100 EXP SWAP1 DIV PUSH20 0xFFFFFFFFFFFFFFFFFFFFFFFFFFFFFFFFFFFFFFFF AND PUSH20 0xFFFFFFFFFFFFFFFFFFFFFFFFFFFFFFFFFFFFFFFF AND CALLER PUSH20 0xFFFFFFFFFFFFFFFFFFFFFFFFFFFFFFFFFFFFFFFF AND EQ ISZERO PUSH2 0x177F JUMPI PUSH1 0x0 DUP1 SLOAD SWAP1 PUSH2 0x100 EXP SWAP1 DIV PUSH20 0xFFFFFFFFFFFFFFFFFFFFFFFFFFFFFFFFFFFFFFFF AND SWAP2 POP PUSH2 0x18A4 JUMP JUMPDEST CALLER PUSH20 0xFFFFFFFFFFFFFFFFFFFFFFFFFFFFFFFFFFFFFFFF AND PUSH1 0x1 DUP3 DUP2 SLOAD DUP2 LT PUSH2 0x17D0 JUMPI PUSH32 0x4E487B7100000000000000000000000000000000000000000000000000000000 PUSH1 0x0 MSTORE PUSH1 0x32 PUSH1 0x4 MSTORE PUSH1 0x24 PUSH1 0x0 REVERT JUMPDEST SWAP1 PUSH1 0x0 MSTORE PUSH1 0x20 PUSH1 0x0 KECCAK256 SWAP1 PUSH1 0x4 MUL ADD PUSH1 0x0 ADD PUSH1 0x0 SWAP1 SLOAD SWAP1 PUSH2 0x100 EXP SWAP1 DIV PUSH20 0xFFFFFFFFFFFFFFFFFFFFFFFFFFFFFFFFFFFFFFFF AND PUSH20 0xFFFFFFFFFFFFFFFFFFFFFFFFFFFFFFFFFFFFFFFF AND EQ ISZERO PUSH2 0x1891 JUMPI PUSH1 0x1 DUP2 DUP2 SLOAD DUP2 LT PUSH2 0x1858 JUMPI PUSH32 0x4E487B7100000000000000000000000000000000000000000000000000000000 PUSH1 0x0 MSTORE PUSH1 0x32 PUSH1 0x4 MSTORE PUSH1 0x24 PUSH1 0x0 REVERT JUMPDEST SWAP1 PUSH1 0x0 MSTORE PUSH1 0x20 PUSH1 0x0 KECCAK256 SWAP1 PUSH1 0x4 MUL ADD PUSH1 0x0 ADD PUSH1 0x0 SWAP1 SLOAD SWAP1 PUSH2 0x100 EXP SWAP1 DIV PUSH20 0xFFFFFFFFFFFFFFFFFFFFFFFFFFFFFFFFFFFFFFFF AND SWAP2 POP PUSH2 0x18A4 JUMP JUMPDEST DUP1 DUP1 PUSH2 0x189C SWAP1 PUSH2 0x3058 JUMP JUMPDEST SWAP2 POP POP PUSH2 0x16FA JUMP JUMPDEST POP DUP1 PUSH20 0xFFFFFFFFFFFFFFFFFFFFFFFFFFFFFFFFFFFFFFFF AND CALLER PUSH20 0xFFFFFFFFFFFFFFFFFFFFFFFFFFFFFFFFFFFFFFFF AND EQ PUSH2 0x18DD JUMPI PUSH1 0x0 DUP1 REVERT JUMPDEST PUSH2 0x19BA DUP5 PUSH1 0x2 DUP8 DUP2 SLOAD DUP2 LT PUSH2 0x191B JUMPI PUSH32 0x4E487B7100000000000000000000000000000000000000000000000000000000 PUSH1 0x0 MSTORE PUSH1 0x32 PUSH1 0x4 MSTORE PUSH1 0x24 PUSH1 0x0 REVERT JUMPDEST SWAP1 PUSH1 0x0 MSTORE PUSH1 0x20 PUSH1 0x0 KECCAK256 SWAP1 PUSH1 0xE MUL ADD PUSH1 0xB ADD DUP1 SLOAD PUSH2 0x1937 SWAP1 PUSH2 0x3082 JUMP JUMPDEST DUP1 PUSH1 0x1F ADD PUSH1 0x20 DUP1 SWAP2 DIV MUL PUSH1 0x20 ADD PUSH1 0x40 MLOAD SWAP1 DUP2 ADD PUSH1 0x40 MSTORE DUP1 SWAP3 SWAP2 SWAP1 DUP2 DUP2 MSTORE PUSH1 0x20 ADD DUP3 DUP1 SLOAD PUSH2 0x1963 SWAP1 PUSH2 0x3082 JUMP JUMPDEST DUP1 ISZERO PUSH2 0x19B0 JUMPI DUP1 PUSH1 0x1F LT PUSH2 0x1985 JUMPI PUSH2 0x100 DUP1 DUP4 SLOAD DIV MUL DUP4 MSTORE SWAP2 PUSH1 0x20 ADD SWAP2 PUSH2 0x19B0 JUMP JUMPDEST DUP3 ADD SWAP2 SWAP1 PUSH1 0x0 MSTORE PUSH1 0x20 PUSH1 0x0 KECCAK256 SWAP1 JUMPDEST DUP2 SLOAD DUP2 MSTORE SWAP1 PUSH1 0x1 ADD SWAP1 PUSH1 0x20 ADD DUP1 DUP4 GT PUSH2 0x1993 JUMPI DUP3 SWAP1 SUB PUSH1 0x1F AND DUP3 ADD SWAP2 JUMPDEST POP POP POP POP POP PUSH2 0x235D JUMP JUMPDEST ISZERO PUSH2 0x1A8C JUMPI DUP3 PUSH1 0x2 DUP7 DUP2 SLOAD DUP2 LT PUSH2 0x19FA JUMPI PUSH32 0x4E487B7100000000000000000000000000000000000000000000000000000000 PUSH1 0x0 MSTORE PUSH1 0x32 PUSH1 0x4 MSTORE PUSH1 0x24 PUSH1 0x0 REVERT JUMPDEST SWAP1 PUSH1 0x0 MSTORE PUSH1 0x20 PUSH1 0x0 KECCAK256 SWAP1 PUSH1 0xE MUL ADD PUSH1 0xD ADD SWAP1 DUP1 MLOAD SWAP1 PUSH1 0x20 ADD SWAP1 PUSH2 0x1A1E SWAP3 SWAP2 SWAP1 PUSH2 0x244B JUMP JUMPDEST POP PUSH1 0x0 PUSH1 0x2 DUP7 DUP2 SLOAD DUP2 LT PUSH2 0x1A5B JUMPI PUSH32 0x4E487B7100000000000000000000000000000000000000000000000000000000 PUSH1 0x0 MSTORE PUSH1 0x32 PUSH1 0x4 MSTORE PUSH1 0x24 PUSH1 0x0 REVERT JUMPDEST SWAP1 PUSH1 0x0 MSTORE PUSH1 0x20 PUSH1 0x0 KECCAK256 SWAP1 PUSH1 0xE MUL ADD PUSH1 0xC ADD PUSH1 0x0 PUSH2 0x100 EXP DUP2 SLOAD DUP2 PUSH1 0xFF MUL NOT AND SWAP1 DUP4 ISZERO ISZERO MUL OR SWAP1 SSTORE POP PUSH1 0x1 SWAP2 POP PUSH2 0x1A91 JUMP JUMPDEST PUSH1 0x0 SWAP2 POP JUMPDEST POP SWAP4 SWAP3 POP POP POP JUMP JUMPDEST PUSH1 0x0 DUP1 PUSH1 0x0 PUSH1 0x1 DUP1 SLOAD SWAP1 POP SWAP1 POP JUMPDEST PUSH1 0x0 DUP2 EQ ISZERO PUSH2 0x1C51 JUMPI PUSH1 0x0 DUP1 SLOAD SWAP1 PUSH2 0x100 EXP SWAP1 DIV PUSH20 0xFFFFFFFFFFFFFFFFFFFFFFFFFFFFFFFFFFFFFFFF AND PUSH20 0xFFFFFFFFFFFFFFFFFFFFFFFFFFFFFFFFFFFFFFFF AND CALLER PUSH20 0xFFFFFFFFFFFFFFFFFFFFFFFFFFFFFFFFFFFFFFFF AND EQ ISZERO PUSH2 0x1B2C JUMPI PUSH1 0x0 DUP1 SLOAD SWAP1 PUSH2 0x100 EXP SWAP1 DIV PUSH20 0xFFFFFFFFFFFFFFFFFFFFFFFFFFFFFFFFFFFFFFFF AND SWAP2 POP PUSH2 0x1C51 JUMP JUMPDEST CALLER PUSH20 0xFFFFFFFFFFFFFFFFFFFFFFFFFFFFFFFFFFFFFFFF AND PUSH1 0x1 DUP3 DUP2 SLOAD DUP2 LT PUSH2 0x1B7D JUMPI PUSH32 0x4E487B7100000000000000000000000000000000000000000000000000000000 PUSH1 0x0 MSTORE PUSH1 0x32 PUSH1 0x4 MSTORE PUSH1 0x24 PUSH1 0x0 REVERT JUMPDEST SWAP1 PUSH1 0x0 MSTORE PUSH1 0x20 PUSH1 0x0 KECCAK256 SWAP1 PUSH1 0x4 MUL ADD PUSH1 0x0 ADD PUSH1 0x0 SWAP1 SLOAD SWAP1 PUSH2 0x100 EXP SWAP1 DIV PUSH20 0xFFFFFFFFFFFFFFFFFFFFFFFFFFFFFFFFFFFFFFFF AND PUSH20 0xFFFFFFFFFFFFFFFFFFFFFFFFFFFFFFFFFFFFFFFF AND EQ ISZERO PUSH2 0x1C3E JUMPI PUSH1 0x1 DUP2 DUP2 SLOAD DUP2 LT PUSH2 0x1C05 JUMPI PUSH32 0x4E487B7100000000000000000000000000000000000000000000000000000000 PUSH1 0x0 MSTORE PUSH1 0x32 PUSH1 0x4 MSTORE PUSH1 0x24 PUSH1 0x0 REVERT JUMPDEST SWAP1 PUSH1 0x0 MSTORE PUSH1 0x20 PUSH1 0x0 KECCAK256 SWAP1 PUSH1 0x4 MUL ADD PUSH1 0x0 ADD PUSH1 0x0 SWAP1 SLOAD SWAP1 PUSH2 0x100 EXP SWAP1 DIV PUSH20 0xFFFFFFFFFFFFFFFFFFFFFFFFFFFFFFFFFFFFFFFF AND SWAP2 POP PUSH2 0x1C51 JUMP JUMPDEST DUP1 DUP1 PUSH2 0x1C49 SWAP1 PUSH2 0x3058 JUMP JUMPDEST SWAP2 POP POP PUSH2 0x1AA7 JUMP JUMPDEST POP DUP1 PUSH20 0xFFFFFFFFFFFFFFFFFFFFFFFFFFFFFFFFFFFFFFFF AND CALLER PUSH20 0xFFFFFFFFFFFFFFFFFFFFFFFFFFFFFFFFFFFFFFFF AND EQ PUSH2 0x1C8A JUMPI PUSH1 0x0 DUP1 REVERT JUMPDEST PUSH2 0x1D67 DUP6 PUSH1 0x2 DUP6 DUP2 SLOAD DUP2 LT PUSH2 0x1CC8 JUMPI PUSH32 0x4E487B7100000000000000000000000000000000000000000000000000000000 PUSH1 0x0 MSTORE PUSH1 0x32 PUSH1 0x4 MSTORE PUSH1 0x24 PUSH1 0x0 REVERT JUMPDEST SWAP1 PUSH1 0x0 MSTORE PUSH1 0x20 PUSH1 0x0 KECCAK256 SWAP1 PUSH1 0xE MUL ADD PUSH1 0xB ADD DUP1 SLOAD PUSH2 0x1CE4 SWAP1 PUSH2 0x3082 JUMP JUMPDEST DUP1 PUSH1 0x1F ADD PUSH1 0x20 DUP1 SWAP2 DIV MUL PUSH1 0x20 ADD PUSH1 0x40 MLOAD SWAP1 DUP2 ADD PUSH1 0x40 MSTORE DUP1 SWAP3 SWAP2 SWAP1 DUP2 DUP2 MSTORE PUSH1 0x20 ADD DUP3 DUP1 SLOAD PUSH2 0x1D10 SWAP1 PUSH2 0x3082 JUMP JUMPDEST DUP1 ISZERO PUSH2 0x1D5D JUMPI DUP1 PUSH1 0x1F LT PUSH2 0x1D32 JUMPI PUSH2 0x100 DUP1 DUP4 SLOAD DIV MUL DUP4 MSTORE SWAP2 PUSH1 0x20 ADD SWAP2 PUSH2 0x1D5D JUMP JUMPDEST DUP3 ADD SWAP2 SWAP1 PUSH1 0x0 MSTORE PUSH1 0x20 PUSH1 0x0 KECCAK256 SWAP1 JUMPDEST DUP2 SLOAD DUP2 MSTORE SWAP1 PUSH1 0x1 ADD SWAP1 PUSH1 0x20 ADD DUP1 DUP4 GT PUSH2 0x1D40 JUMPI DUP3 SWAP1 SUB PUSH1 0x1F AND DUP3 ADD SWAP2 JUMPDEST POP POP POP POP POP PUSH2 0x235D JUMP JUMPDEST ISZERO PUSH2 0x1E39 JUMPI DUP4 PUSH1 0x2 DUP5 DUP2 SLOAD DUP2 LT PUSH2 0x1DA7 JUMPI PUSH32 0x4E487B7100000000000000000000000000000000000000000000000000000000 PUSH1 0x0 MSTORE PUSH1 0x32 PUSH1 0x4 MSTORE PUSH1 0x24 PUSH1 0x0 REVERT JUMPDEST SWAP1 PUSH1 0x0 MSTORE PUSH1 0x20 PUSH1 0x0 KECCAK256 SWAP1 PUSH1 0xE MUL ADD PUSH1 0xB ADD SWAP1 DUP1 MLOAD SWAP1 PUSH1 0x20 ADD SWAP1 PUSH2 0x1DCB SWAP3 SWAP2 SWAP1 PUSH2 0x244B JUMP JUMPDEST POP PUSH1 0x1 PUSH1 0x2 DUP5 DUP2 SLOAD DUP2 LT PUSH2 0x1E08 JUMPI PUSH32 0x4E487B7100000000000000000000000000000000000000000000000000000000 PUSH1 0x0 MSTORE PUSH1 0x32 PUSH1 0x4 MSTORE PUSH1 0x24 PUSH1 0x0 REVERT JUMPDEST SWAP1 PUSH1 0x0 MSTORE PUSH1 0x20 PUSH1 0x0 KECCAK256 SWAP1 PUSH1 0xE MUL ADD PUSH1 0xC ADD PUSH1 0x0 PUSH2 0x100 EXP DUP2 SLOAD DUP2 PUSH1 0xFF MUL NOT AND SWAP1 DUP4 ISZERO ISZERO MUL OR SWAP1 SSTORE POP PUSH1 0x1 SWAP2 POP PUSH2 0x1E3E JUMP JUMPDEST PUSH1 0x0 SWAP2 POP JUMPDEST POP SWAP4 SWAP3 POP POP POP JUMP JUMPDEST PUSH1 0x2 DUP2 DUP2 SLOAD DUP2 LT PUSH2 0x1E56 JUMPI PUSH1 0x0 DUP1 REVERT JUMPDEST SWAP1 PUSH1 0x0 MSTORE PUSH1 0x20 PUSH1 0x0 KECCAK256 SWAP1 PUSH1 0xE MUL ADD PUSH1 0x0 SWAP2 POP SWAP1 POP DUP1 PUSH1 0x0 ADD SLOAD SWAP1 DUP1 PUSH1 0x1 ADD SLOAD SWAP1 DUP1 PUSH1 0x2 ADD SLOAD SWAP1 DUP1 PUSH1 0x3 ADD SLOAD SWAP1 DUP1 PUSH1 0x4 ADD PUSH1 0x0 SWAP1 SLOAD SWAP1 PUSH2 0x100 EXP SWAP1 DIV PUSH20 0xFFFFFFFFFFFFFFFFFFFFFFFFFFFFFFFFFFFFFFFF AND SWAP1 DUP1 PUSH1 0x5 ADD SLOAD SWAP1 DUP1 PUSH1 0x6 ADD SLOAD SWAP1 DUP1 PUSH1 0x7 ADD PUSH1 0x0 SWAP1 SLOAD SWAP1 PUSH2 0x100 EXP SWAP1 DIV PUSH20 0xFFFFFFFFFFFFFFFFFFFFFFFFFFFFFFFFFFFFFFFF AND SWAP1 DUP1 PUSH1 0x8 ADD PUSH1 0x40 MLOAD DUP1 PUSH1 0xC0 ADD PUSH1 0x40 MSTORE SWAP1 DUP2 PUSH1 0x0 DUP3 ADD DUP1 SLOAD PUSH2 0x1EF9 SWAP1 PUSH2 0x3082 JUMP JUMPDEST DUP1 PUSH1 0x1F ADD PUSH1 0x20 DUP1 SWAP2 DIV MUL PUSH1 0x20 ADD PUSH1 0x40 MLOAD SWAP1 DUP2 ADD PUSH1 0x40 MSTORE DUP1 SWAP3 SWAP2 SWAP1 DUP2 DUP2 MSTORE PUSH1 0x20 ADD DUP3 DUP1 SLOAD PUSH2 0x1F25 SWAP1 PUSH2 0x3082 JUMP JUMPDEST DUP1 ISZERO PUSH2 0x1F72 JUMPI DUP1 PUSH1 0x1F LT PUSH2 0x1F47 JUMPI PUSH2 0x100 DUP1 DUP4 SLOAD DIV MUL DUP4 MSTORE SWAP2 PUSH1 0x20 ADD SWAP2 PUSH2 0x1F72 JUMP JUMPDEST DUP3 ADD SWAP2 SWAP1 PUSH1 0x0 MSTORE PUSH1 0x20 PUSH1 0x0 KECCAK256 SWAP1 JUMPDEST DUP2 SLOAD DUP2 MSTORE SWAP1 PUSH1 0x1 ADD SWAP1 PUSH1 0x20 ADD DUP1 DUP4 GT PUSH2 0x1F55 JUMPI DUP3 SWAP1 SUB PUSH1 0x1F AND DUP3 ADD SWAP2 JUMPDEST POP POP POP POP POP DUP2 MSTORE PUSH1 0x20 ADD PUSH1 0x1 DUP3 ADD DUP1 SLOAD PUSH2 0x1F8B SWAP1 PUSH2 0x3082 JUMP JUMPDEST DUP1 PUSH1 0x1F ADD PUSH1 0x20 DUP1 SWAP2 DIV MUL PUSH1 0x20 ADD PUSH1 0x40 MLOAD SWAP1 DUP2 ADD PUSH1 0x40 MSTORE DUP1 SWAP3 SWAP2 SWAP1 DUP2 DUP2 MSTORE PUSH1 0x20 ADD DUP3 DUP1 SLOAD PUSH2 0x1FB7 SWAP1 PUSH2 0x3082 JUMP JUMPDEST DUP1 ISZERO PUSH2 0x2004 JUMPI DUP1 PUSH1 0x1F LT PUSH2 0x1FD9 JUMPI PUSH2 0x100 DUP1 DUP4 SLOAD DIV MUL DUP4 MSTORE SWAP2 PUSH1 0x20 ADD SWAP2 PUSH2 0x2004 JUMP JUMPDEST DUP3 ADD SWAP2 SWAP1 PUSH1 0x0 MSTORE PUSH1 0x20 PUSH1 0x0 KECCAK256 SWAP1 JUMPDEST DUP2 SLOAD DUP2 MSTORE SWAP1 PUSH1 0x1 ADD SWAP1 PUSH1 0x20 ADD DUP1 DUP4 GT PUSH2 0x1FE7 JUMPI DUP3 SWAP1 SUB PUSH1 0x1F AND DUP3 ADD SWAP2 JUMPDEST POP POP POP POP POP DUP2 MSTORE PUSH1 0x20 ADD PUSH1 0x2 DUP3 ADD PUSH1 0x0 SWAP1 SLOAD SWAP1 PUSH2 0x100 EXP SWAP1 DIV PUSH1 0xFF AND PUSH1 0x4 DUP2 GT ISZERO PUSH2 0x2058 JUMPI PUSH32 0x4E487B7100000000000000000000000000000000000000000000000000000000 PUSH1 0x0 MSTORE PUSH1 0x21 PUSH1 0x4 MSTORE PUSH1 0x24 PUSH1 0x0 REVERT JUMPDEST PUSH1 0x4 DUP2 GT ISZERO PUSH2 0x2090 JUMPI PUSH32 0x4E487B7100000000000000000000000000000000000000000000000000000000 PUSH1 0x0 MSTORE PUSH1 0x21 PUSH1 0x4 MSTORE PUSH1 0x24 PUSH1 0x0 REVERT JUMPDEST DUP2 MSTORE PUSH1 0x20 ADD PUSH1 0x2 DUP3 ADD PUSH1 0x1 SWAP1 SLOAD SWAP1 PUSH2 0x100 EXP SWAP1 DIV PUSH1 0xFF AND PUSH1 0x4 DUP2 GT ISZERO PUSH2 0x20DF JUMPI PUSH32 0x4E487B7100000000000000000000000000000000000000000000000000000000 PUSH1 0x0 MSTORE PUSH1 0x21 PUSH1 0x4 MSTORE PUSH1 0x24 PUSH1 0x0 REVERT JUMPDEST PUSH1 0x4 DUP2 GT ISZERO PUSH2 0x2117 JUMPI PUSH32 0x4E487B7100000000000000000000000000000000000000000000000000000000 PUSH1 0x0 MSTORE PUSH1 0x21 PUSH1 0x4 MSTORE PUSH1 0x24 PUSH1 0x0 REVERT JUMPDEST DUP2 MSTORE PUSH1 0x20 ADD PUSH1 0x2 DUP3 ADD PUSH1 0x2 SWAP1 SLOAD SWAP1 PUSH2 0x100 EXP SWAP1 DIV PUSH1 0xFF AND PUSH1 0x4 DUP2 GT ISZERO PUSH2 0x2166 JUMPI PUSH32 0x4E487B7100000000000000000000000000000000000000000000000000000000 PUSH1 0x0 MSTORE PUSH1 0x21 PUSH1 0x4 MSTORE PUSH1 0x24 PUSH1 0x0 REVERT JUMPDEST PUSH1 0x4 DUP2 GT ISZERO PUSH2 0x219E JUMPI PUSH32 0x4E487B7100000000000000000000000000000000000000000000000000000000 PUSH1 0x0 MSTORE PUSH1 0x21 PUSH1 0x4 MSTORE PUSH1 0x24 PUSH1 0x0 REVERT JUMPDEST DUP2 MSTORE PUSH1 0x20 ADD PUSH1 0x2 DUP3 ADD PUSH1 0x3 SWAP1 SLOAD SWAP1 PUSH2 0x100 EXP SWAP1 DIV PUSH1 0xFF AND PUSH1 0x4 DUP2 GT ISZERO PUSH2 0x21ED JUMPI PUSH32 0x4E487B7100000000000000000000000000000000000000000000000000000000 PUSH1 0x0 MSTORE PUSH1 0x21 PUSH1 0x4 MSTORE PUSH1 0x24 PUSH1 0x0 REVERT JUMPDEST PUSH1 0x4 DUP2 GT ISZERO PUSH2 0x2225 JUMPI PUSH32 0x4E487B7100000000000000000000000000000000000000000000000000000000 PUSH1 0x0 MSTORE PUSH1 0x21 PUSH1 0x4 MSTORE PUSH1 0x24 PUSH1 0x0 REVERT JUMPDEST DUP2 MSTORE POP POP SWAP1 DUP1 PUSH1 0xB ADD DUP1 SLOAD PUSH2 0x2239 SWAP1 PUSH2 0x3082 JUMP JUMPDEST DUP1 PUSH1 0x1F ADD PUSH1 0x20 DUP1 SWAP2 DIV MUL PUSH1 0x20 ADD PUSH1 0x40 MLOAD SWAP1 DUP2 ADD PUSH1 0x40 MSTORE DUP1 SWAP3 SWAP2 SWAP1 DUP2 DUP2 MSTORE PUSH1 0x20 ADD DUP3 DUP1 SLOAD PUSH2 0x2265 SWAP1 PUSH2 0x3082 JUMP JUMPDEST DUP1 ISZERO PUSH2 0x22B2 JUMPI DUP1 PUSH1 0x1F LT PUSH2 0x2287 JUMPI PUSH2 0x100 DUP1 DUP4 SLOAD DIV MUL DUP4 MSTORE SWAP2 PUSH1 0x20 ADD SWAP2 PUSH2 0x22B2 JUMP JUMPDEST DUP3 ADD SWAP2 SWAP1 PUSH1 0x0 MSTORE PUSH1 0x20 PUSH1 0x0 KECCAK256 SWAP1 JUMPDEST DUP2 SLOAD DUP2 MSTORE SWAP1 PUSH1 0x1 ADD SWAP1 PUSH1 0x20 ADD DUP1 DUP4 GT PUSH2 0x2295 JUMPI DUP3 SWAP1 SUB PUSH1 0x1F AND DUP3 ADD SWAP2 JUMPDEST POP POP POP POP POP SWAP1 DUP1 PUSH1 0xC ADD PUSH1 0x0 SWAP1 SLOAD SWAP1 PUSH2 0x100 EXP SWAP1 DIV PUSH1 0xFF AND SWAP1 DUP1 PUSH1 0xD ADD DUP1 SLOAD PUSH2 0x22DA SWAP1 PUSH2 0x3082 JUMP JUMPDEST DUP1 PUSH1 0x1F ADD PUSH1 0x20 DUP1 SWAP2 DIV MUL PUSH1 0x20 ADD PUSH1 0x40 MLOAD SWAP1 DUP2 ADD PUSH1 0x40 MSTORE DUP1 SWAP3 SWAP2 SWAP1 DUP2 DUP2 MSTORE PUSH1 0x20 ADD DUP3 DUP1 SLOAD PUSH2 0x2306 SWAP1 PUSH2 0x3082 JUMP JUMPDEST DUP1 ISZERO PUSH2 0x2353 JUMPI DUP1 PUSH1 0x1F LT PUSH2 0x2328 JUMPI PUSH2 0x100 DUP1 DUP4 SLOAD DIV MUL DUP4 MSTORE SWAP2 PUSH1 0x20 ADD SWAP2 PUSH2 0x2353 JUMP JUMPDEST DUP3 ADD SWAP2 SWAP1 PUSH1 0x0 MSTORE PUSH1 0x20 PUSH1 0x0 KECCAK256 SWAP1 JUMPDEST DUP2 SLOAD DUP2 MSTORE SWAP1 PUSH1 0x1 ADD SWAP1 PUSH1 0x20 ADD DUP1 DUP4 GT PUSH2 0x2336 JUMPI DUP3 SWAP1 SUB PUSH1 0x1F AND DUP3 ADD SWAP2 JUMPDEST POP POP POP POP POP SWAP1 POP DUP13 JUMP JUMPDEST PUSH1 0x0 DUP2 PUSH1 0x40 MLOAD PUSH1 0x20 ADD PUSH2 0x2370 SWAP2 SWAP1 PUSH2 0x2D16 JUMP JUMPDEST PUSH1 0x40 MLOAD PUSH1 0x20 DUP2 DUP4 SUB SUB DUP2 MSTORE SWAP1 PUSH1 0x40 MSTORE DUP1 MLOAD SWAP1 PUSH1 0x20 ADD KECCAK256 DUP4 PUSH1 0x40 MLOAD PUSH1 0x20 ADD PUSH2 0x2397 SWAP2 SWAP1 PUSH2 0x2D16 JUMP JUMPDEST PUSH1 0x40 MLOAD PUSH1 0x20 DUP2 DUP4 SUB SUB DUP2 MSTORE SWAP1 PUSH1 0x40 MSTORE DUP1 MLOAD SWAP1 PUSH1 0x20 ADD KECCAK256 EQ SWAP1 POP SWAP3 SWAP2 POP POP JUMP JUMPDEST PUSH1 0x40 MLOAD DUP1 PUSH2 0x180 ADD PUSH1 0x40 MSTORE DUP1 PUSH1 0x0 DUP2 MSTORE PUSH1 0x20 ADD PUSH1 0x0 DUP2 MSTORE PUSH1 0x20 ADD PUSH1 0x0 DUP2 MSTORE PUSH1 0x20 ADD PUSH1 0x0 DUP2 MSTORE PUSH1 0x20 ADD PUSH1 0x0 PUSH20 0xFFFFFFFFFFFFFFFFFFFFFFFFFFFFFFFFFFFFFFFF AND DUP2 MSTORE PUSH1 0x20 ADD PUSH1 0x0 DUP2 MSTORE PUSH1 0x20 ADD PUSH1 0x0 DUP2 MSTORE PUSH1 0x20 ADD PUSH1 0x0 PUSH20 0xFFFFFFFFFFFFFFFFFFFFFFFFFFFFFFFFFFFFFFFF AND DUP2 MSTORE PUSH1 0x20 ADD PUSH2 0x242E PUSH2 0x24D1 JUMP JUMPDEST DUP2 MSTORE PUSH1 0x20 ADD PUSH1 0x60 DUP2 MSTORE PUSH1 0x20 ADD PUSH1 0x0 ISZERO ISZERO DUP2 MSTORE PUSH1 0x20 ADD PUSH1 0x60 DUP2 MSTORE POP SWAP1 JUMP JUMPDEST DUP3 DUP1 SLOAD PUSH2 0x2457 SWAP1 PUSH2 0x3082 JUMP JUMPDEST SWAP1 PUSH1 0x0 MSTORE PUSH1 0x20 PUSH1 0x0 KECCAK256 SWAP1 PUSH1 0x1F ADD PUSH1 0x20 SWAP1 DIV DUP2 ADD SWAP3 DUP3 PUSH2 0x2479 JUMPI PUSH1 0x0 DUP6 SSTORE PUSH2 0x24C0 JUMP JUMPDEST DUP3 PUSH1 0x1F LT PUSH2 0x2492 JUMPI DUP1 MLOAD PUSH1 0xFF NOT AND DUP4 DUP1 ADD OR DUP6 SSTORE PUSH2 0x24C0 JUMP JUMPDEST DUP3 DUP1 ADD PUSH1 0x1 ADD DUP6 SSTORE DUP3 ISZERO PUSH2 0x24C0 JUMPI SWAP2 DUP3 ADD JUMPDEST DUP3 DUP2 GT ISZERO PUSH2 0x24BF JUMPI DUP3 MLOAD DUP3 SSTORE SWAP2 PUSH1 0x20 ADD SWAP2 SWAP1 PUSH1 0x1 ADD SWAP1 PUSH2 0x24A4 JUMP JUMPDEST JUMPDEST POP SWAP1 POP PUSH2 0x24CD SWAP2 SWAP1 PUSH2 0x25E7 JUMP JUMPDEST POP SWAP1 JUMP JUMPDEST PUSH1 0x40 MLOAD DUP1 PUSH1 0xC0 ADD PUSH1 0x40 MSTORE DUP1 PUSH1 0x60 DUP2 MSTORE PUSH1 0x20 ADD PUSH1 0x60 DUP2 MSTORE PUSH1 0x20 ADD PUSH1 0x0 PUSH1 0x4 DUP2 GT ISZERO PUSH2 0x2524 JUMPI PUSH32 0x4E487B7100000000000000000000000000000000000000000000000000000000 PUSH1 0x0 MSTORE PUSH1 0x21 PUSH1 0x4 MSTORE PUSH1 0x24 PUSH1 0x0 REVERT JUMPDEST DUP2 MSTORE PUSH1 0x20 ADD PUSH1 0x0 PUSH1 0x4 DUP2 GT ISZERO PUSH2 0x2563 JUMPI PUSH32 0x4E487B7100000000000000000000000000000000000000000000000000000000 PUSH1 0x0 MSTORE PUSH1 0x21 PUSH1 0x4 MSTORE PUSH1 0x24 PUSH1 0x0 REVERT JUMPDEST DUP2 MSTORE PUSH1 0x20 ADD PUSH1 0x0 PUSH1 0x4 DUP2 GT ISZERO PUSH2 0x25A2 JUMPI PUSH32 0x4E487B7100000000000000000000000000000000000000000000000000000000 PUSH1 0x0 MSTORE PUSH1 0x21 PUSH1 0x4 MSTORE PUSH1 0x24 PUSH1 0x0 REVERT JUMPDEST DUP2 MSTORE PUSH1 0x20 ADD PUSH1 0x0 PUSH1 0x4 DUP2 GT ISZERO PUSH2 0x25E1 JUMPI PUSH32 0x4E487B7100000000000000000000000000000000000000000000000000000000 PUSH1 0x0 MSTORE PUSH1 0x21 PUSH1 0x4 MSTORE PUSH1 0x24 PUSH1 0x0 REVERT JUMPDEST DUP2 MSTORE POP SWAP1 JUMP JUMPDEST JUMPDEST DUP1 DUP3 GT ISZERO PUSH2 0x2600 JUMPI PUSH1 0x0 DUP2 PUSH1 0x0 SWAP1 SSTORE POP PUSH1 0x1 ADD PUSH2 0x25E8 JUMP JUMPDEST POP SWAP1 JUMP JUMPDEST PUSH1 0x0 PUSH2 0x2617 PUSH2 0x2612 DUP5 PUSH2 0x2F15 JUMP JUMPDEST PUSH2 0x2EE4 JUMP JUMPDEST SWAP1 POP DUP1 DUP4 DUP3 MSTORE PUSH1 0x20 DUP3 ADD SWAP1 POP DUP3 DUP6 PUSH1 0x20 DUP7 MUL DUP3 ADD GT ISZERO PUSH2 0x2636 JUMPI PUSH1 0x0 DUP1 REVERT JUMPDEST PUSH1 0x0 JUMPDEST DUP6 DUP2 LT ISZERO PUSH2 0x2666 JUMPI DUP2 PUSH2 0x264C DUP9 DUP3 PUSH2 0x26AE JUMP JUMPDEST DUP5 MSTORE PUSH1 0x20 DUP5 ADD SWAP4 POP PUSH1 0x20 DUP4 ADD SWAP3 POP POP PUSH1 0x1 DUP2 ADD SWAP1 POP PUSH2 0x2639 JUMP JUMPDEST POP POP POP SWAP4 SWAP3 POP POP POP JUMP JUMPDEST PUSH1 0x0 PUSH2 0x2683 PUSH2 0x267E DUP5 PUSH2 0x2F41 JUMP JUMPDEST PUSH2 0x2EE4 JUMP JUMPDEST SWAP1 POP DUP3 DUP2 MSTORE PUSH1 0x20 DUP2 ADD DUP5 DUP5 DUP5 ADD GT ISZERO PUSH2 0x269B JUMPI PUSH1 0x0 DUP1 REVERT JUMPDEST PUSH2 0x26A6 DUP5 DUP3 DUP6 PUSH2 0x3016 JUMP JUMPDEST POP SWAP4 SWAP3 POP POP POP JUMP JUMPDEST PUSH1 0x0 DUP2 CALLDATALOAD SWAP1 POP PUSH2 0x26BD DUP2 PUSH2 0x3195 JUMP JUMPDEST SWAP3 SWAP2 POP POP JUMP JUMPDEST PUSH1 0x0 DUP3 PUSH1 0x1F DUP4 ADD SLT PUSH2 0x26D4 JUMPI PUSH1 0x0 DUP1 REVERT JUMPDEST DUP2 CALLDATALOAD PUSH2 0x26E4 DUP5 DUP3 PUSH1 0x20 DUP7 ADD PUSH2 0x2604 JUMP JUMPDEST SWAP2 POP POP SWAP3 SWAP2 POP POP JUMP JUMPDEST PUSH1 0x0 DUP3 PUSH1 0x1F DUP4 ADD SLT PUSH2 0x26FE JUMPI PUSH1 0x0 DUP1 REVERT JUMPDEST DUP2 CALLDATALOAD PUSH2 0x270E DUP5 DUP3 PUSH1 0x20 DUP7 ADD PUSH2 0x2670 JUMP JUMPDEST SWAP2 POP POP SWAP3 SWAP2 POP POP JUMP JUMPDEST PUSH1 0x0 DUP2 CALLDATALOAD SWAP1 POP PUSH2 0x2726 DUP2 PUSH2 0x31AC JUMP JUMPDEST SWAP3 SWAP2 POP POP JUMP JUMPDEST PUSH1 0x0 DUP1 PUSH1 0x40 DUP4 DUP6 SUB SLT ISZERO PUSH2 0x273F JUMPI PUSH1 0x0 DUP1 REVERT JUMPDEST PUSH1 0x0 PUSH2 0x274D DUP6 DUP3 DUP7 ADD PUSH2 0x26AE JUMP JUMPDEST SWAP3 POP POP PUSH1 0x20 PUSH2 0x275E DUP6 DUP3 DUP7 ADD PUSH2 0x2717 JUMP JUMPDEST SWAP2 POP POP SWAP3 POP SWAP3 SWAP1 POP JUMP JUMPDEST PUSH1 0x0 DUP1 PUSH1 0x0 DUP1 PUSH1 0x80 DUP6 DUP8 SUB SLT ISZERO PUSH2 0x277E JUMPI PUSH1 0x0 DUP1 REVERT JUMPDEST PUSH1 0x0 DUP6 ADD CALLDATALOAD PUSH8 0xFFFFFFFFFFFFFFFF DUP2 GT ISZERO PUSH2 0x2798 JUMPI PUSH1 0x0 DUP1 REVERT JUMPDEST PUSH2 0x27A4 DUP8 DUP3 DUP9 ADD PUSH2 0x26C3 JUMP JUMPDEST SWAP5 POP POP PUSH1 0x20 PUSH2 0x27B5 DUP8 DUP3 DUP9 ADD PUSH2 0x2717 JUMP JUMPDEST SWAP4 POP POP PUSH1 0x40 DUP6 ADD CALLDATALOAD PUSH8 0xFFFFFFFFFFFFFFFF DUP2 GT ISZERO PUSH2 0x27D2 JUMPI PUSH1 0x0 DUP1 REVERT JUMPDEST PUSH2 0x27DE DUP8 DUP3 DUP9 ADD PUSH2 0x26ED JUMP JUMPDEST SWAP3 POP POP PUSH1 0x60 DUP6 ADD CALLDATALOAD PUSH8 0xFFFFFFFFFFFFFFFF DUP2 GT ISZERO PUSH2 0x27FB JUMPI PUSH1 0x0 DUP1 REVERT JUMPDEST PUSH2 0x2807 DUP8 DUP3 DUP9 ADD PUSH2 0x26ED JUMP JUMPDEST SWAP2 POP POP SWAP3 SWAP6 SWAP2 SWAP5 POP SWAP3 POP JUMP JUMPDEST PUSH1 0x0 DUP1 PUSH1 0x0 PUSH1 0x60 DUP5 DUP7 SUB SLT ISZERO PUSH2 0x2828 JUMPI PUSH1 0x0 DUP1 REVERT JUMPDEST PUSH1 0x0 DUP5 ADD CALLDATALOAD PUSH8 0xFFFFFFFFFFFFFFFF DUP2 GT ISZERO PUSH2 0x2842 JUMPI PUSH1 0x0 DUP1 REVERT JUMPDEST PUSH2 0x284E DUP7 DUP3 DUP8 ADD PUSH2 0x26ED JUMP JUMPDEST SWAP4 POP POP PUSH1 0x20 DUP5 ADD CALLDATALOAD PUSH8 0xFFFFFFFFFFFFFFFF DUP2 GT ISZERO PUSH2 0x286B JUMPI PUSH1 0x0 DUP1 REVERT JUMPDEST PUSH2 0x2877 DUP7 DUP3 DUP8 ADD PUSH2 0x26ED JUMP JUMPDEST SWAP3 POP POP PUSH1 0x40 PUSH2 0x2888 DUP7 DUP3 DUP8 ADD PUSH2 0x2717 JUMP JUMPDEST SWAP2 POP POP SWAP3 POP SWAP3 POP SWAP3 JUMP JUMPDEST PUSH1 0x0 PUSH1 0x20 DUP3 DUP5 SUB SLT ISZERO PUSH2 0x28A4 JUMPI PUSH1 0x0 DUP1 REVERT JUMPDEST PUSH1 0x0 PUSH2 0x28B2 DUP5 DUP3 DUP6 ADD PUSH2 0x2717 JUMP JUMPDEST SWAP2 POP POP SWAP3 SWAP2 POP POP JUMP JUMPDEST PUSH1 0x0 DUP1 PUSH1 0x0 PUSH1 0x60 DUP5 DUP7 SUB SLT ISZERO PUSH2 0x28D0 JUMPI PUSH1 0x0 DUP1 REVERT JUMPDEST PUSH1 0x0 PUSH2 0x28DE DUP7 DUP3 DUP8 ADD PUSH2 0x2717 JUMP JUMPDEST SWAP4 POP POP PUSH1 0x20 DUP5 ADD CALLDATALOAD PUSH8 0xFFFFFFFFFFFFFFFF DUP2 GT ISZERO PUSH2 0x28FB JUMPI PUSH1 0x0 DUP1 REVERT JUMPDEST PUSH2 0x2907 DUP7 DUP3 DUP8 ADD PUSH2 0x26ED JUMP JUMPDEST SWAP3 POP POP PUSH1 0x40 DUP5 ADD CALLDATALOAD PUSH8 0xFFFFFFFFFFFFFFFF DUP2 GT ISZERO PUSH2 0x2924 JUMPI PUSH1 0x0 DUP1 REVERT JUMPDEST PUSH2 0x2930 DUP7 DUP3 DUP8 ADD PUSH2 0x26ED JUMP JUMPDEST SWAP2 POP POP SWAP3 POP SWAP3 POP SWAP3 JUMP JUMPDEST PUSH1 0x0 DUP1 PUSH1 0x0 DUP1 PUSH1 0x0 DUP1 PUSH1 0x0 PUSH1 0xE0 DUP9 DUP11 SUB SLT ISZERO PUSH2 0x2955 JUMPI PUSH1 0x0 DUP1 REVERT JUMPDEST PUSH1 0x0 PUSH2 0x2963 DUP11 DUP3 DUP12 ADD PUSH2 0x2717 JUMP JUMPDEST SWAP8 POP POP PUSH1 0x20 PUSH2 0x2974 DUP11 DUP3 DUP12 ADD PUSH2 0x2717 JUMP JUMPDEST SWAP7 POP POP PUSH1 0x40 PUSH2 0x2985 DUP11 DUP3 DUP12 ADD PUSH2 0x2717 JUMP JUMPDEST SWAP6 POP POP PUSH1 0x60 PUSH2 0x2996 DUP11 DUP3 DUP12 ADD PUSH2 0x2717 JUMP JUMPDEST SWAP5 POP POP PUSH1 0x80 PUSH2 0x29A7 DUP11 DUP3 DUP12 ADD PUSH2 0x26AE JUMP JUMPDEST SWAP4 POP POP PUSH1 0xA0 PUSH2 0x29B8 DUP11 DUP3 DUP12 ADD PUSH2 0x2717 JUMP JUMPDEST SWAP3 POP POP PUSH1 0xC0 PUSH2 0x29C9 DUP11 DUP3 DUP12 ADD PUSH2 0x2717 JUMP JUMPDEST SWAP2 POP POP SWAP3 SWAP6 SWAP9 SWAP2 SWAP5 SWAP8 POP SWAP3 SWAP6 POP JUMP JUMPDEST PUSH2 0x29E1 DUP2 PUSH2 0x2FA9 JUMP JUMPDEST DUP3 MSTORE POP POP JUMP JUMPDEST PUSH2 0x29F0 DUP2 PUSH2 0x2FA9 JUMP JUMPDEST DUP3 MSTORE POP POP JUMP JUMPDEST PUSH2 0x29FF DUP2 PUSH2 0x2FBB JUMP JUMPDEST DUP3 MSTORE POP POP JUMP JUMPDEST PUSH2 0x2A0E DUP2 PUSH2 0x2FBB JUMP JUMPDEST DUP3 MSTORE POP POP JUMP JUMPDEST PUSH2 0x2A1D DUP2 PUSH2 0x3004 JUMP JUMPDEST DUP3 MSTORE POP POP JUMP JUMPDEST PUSH1 0x0 PUSH2 0x2A2E DUP3 PUSH2 0x2F71 JUMP JUMPDEST PUSH2 0x2A38 DUP2 DUP6 PUSH2 0x2F7C JUMP JUMPDEST SWAP4 POP PUSH2 0x2A48 DUP2 DUP6 PUSH1 0x20 DUP7 ADD PUSH2 0x3025 JUMP JUMPDEST PUSH2 0x2A51 DUP2 PUSH2 0x3170 JUMP JUMPDEST DUP5 ADD SWAP2 POP POP SWAP3 SWAP2 POP POP JUMP JUMPDEST PUSH1 0x0 PUSH2 0x2A67 DUP3 PUSH2 0x2F71 JUMP JUMPDEST PUSH2 0x2A71 DUP2 DUP6 PUSH2 0x2F8D JUMP JUMPDEST SWAP4 POP PUSH2 0x2A81 DUP2 DUP6 PUSH1 0x20 DUP7 ADD PUSH2 0x3025 JUMP JUMPDEST PUSH2 0x2A8A DUP2 PUSH2 0x3170 JUMP JUMPDEST DUP5 ADD SWAP2 POP POP SWAP3 SWAP2 POP POP JUMP JUMPDEST PUSH1 0x0 PUSH2 0x2AA0 DUP3 PUSH2 0x2F71 JUMP JUMPDEST PUSH2 0x2AAA DUP2 DUP6 PUSH2 0x2F9E JUMP JUMPDEST SWAP4 POP PUSH2 0x2ABA DUP2 DUP6 PUSH1 0x20 DUP7 ADD PUSH2 0x3025 JUMP JUMPDEST DUP1 DUP5 ADD SWAP2 POP POP SWAP3 SWAP2 POP POP JUMP JUMPDEST PUSH1 0x0 PUSH2 0x180 DUP4 ADD PUSH1 0x0 DUP4 ADD MLOAD PUSH2 0x2ADF PUSH1 0x0 DUP7 ADD DUP3 PUSH2 0x2CF8 JUMP JUMPDEST POP PUSH1 0x20 DUP4 ADD MLOAD PUSH2 0x2AF2 PUSH1 0x20 DUP7 ADD DUP3 PUSH2 0x2CF8 JUMP JUMPDEST POP PUSH1 0x40 DUP4 ADD MLOAD PUSH2 0x2B05 PUSH1 0x40 DUP7 ADD DUP3 PUSH2 0x2CF8 JUMP JUMPDEST POP PUSH1 0x60 DUP4 ADD MLOAD PUSH2 0x2B18 PUSH1 0x60 DUP7 ADD DUP3 PUSH2 0x2CF8 JUMP JUMPDEST POP PUSH1 0x80 DUP4 ADD MLOAD PUSH2 0x2B2B PUSH1 0x80 DUP7 ADD DUP3 PUSH2 0x29D8 JUMP JUMPDEST POP PUSH1 0xA0 DUP4 ADD MLOAD PUSH2 0x2B3E PUSH1 0xA0 DUP7 ADD DUP3 PUSH2 0x2CF8 JUMP JUMPDEST POP PUSH1 0xC0 DUP4 ADD MLOAD PUSH2 0x2B51 PUSH1 0xC0 DUP7 ADD DUP3 PUSH2 0x2CF8 JUMP JUMPDEST POP PUSH1 0xE0 DUP4 ADD MLOAD PUSH2 0x2B64 PUSH1 0xE0 DUP7 ADD DUP3 PUSH2 0x29D8 JUMP JUMPDEST POP PUSH2 0x100 DUP4 ADD MLOAD DUP5 DUP3 SUB PUSH2 0x100 DUP7 ADD MSTORE PUSH2 0x2B7E DUP3 DUP3 PUSH2 0x2BD8 JUMP JUMPDEST SWAP2 POP POP PUSH2 0x120 DUP4 ADD MLOAD DUP5 DUP3 SUB PUSH2 0x120 DUP7 ADD MSTORE PUSH2 0x2B9A DUP3 DUP3 PUSH2 0x2A23 JUMP JUMPDEST SWAP2 POP POP PUSH2 0x140 DUP4 ADD MLOAD PUSH2 0x2BB1 PUSH2 0x140 DUP7 ADD DUP3 PUSH2 0x29F6 JUMP JUMPDEST POP PUSH2 0x160 DUP4 ADD MLOAD DUP5 DUP3 SUB PUSH2 0x160 DUP7 ADD MSTORE PUSH2 0x2BCB DUP3 DUP3 PUSH2 0x2A23 JUMP JUMPDEST SWAP2 POP POP DUP1 SWAP2 POP POP SWAP3 SWAP2 POP POP JUMP JUMPDEST PUSH1 0x0 PUSH1 0xC0 DUP4 ADD PUSH1 0x0 DUP4 ADD MLOAD DUP5 DUP3 SUB PUSH1 0x0 DUP7 ADD MSTORE PUSH2 0x2BF5 DUP3 DUP3 PUSH2 0x2A23 JUMP JUMPDEST SWAP2 POP POP PUSH1 0x20 DUP4 ADD MLOAD DUP5 DUP3 SUB PUSH1 0x20 DUP7 ADD MSTORE PUSH2 0x2C0F DUP3 DUP3 PUSH2 0x2A23 JUMP JUMPDEST SWAP2 POP POP PUSH1 0x40 DUP4 ADD MLOAD PUSH2 0x2C24 PUSH1 0x40 DUP7 ADD DUP3 PUSH2 0x2A14 JUMP JUMPDEST POP PUSH1 0x60 DUP4 ADD MLOAD PUSH2 0x2C37 PUSH1 0x60 DUP7 ADD DUP3 PUSH2 0x2A14 JUMP JUMPDEST POP PUSH1 0x80 DUP4 ADD MLOAD PUSH2 0x2C4A PUSH1 0x80 DUP7 ADD DUP3 PUSH2 0x2A14 JUMP JUMPDEST POP PUSH1 0xA0 DUP4 ADD MLOAD PUSH2 0x2C5D PUSH1 0xA0 DUP7 ADD DUP3 PUSH2 0x2A14 JUMP JUMPDEST POP DUP1 SWAP2 POP POP SWAP3 SWAP2 POP POP JUMP JUMPDEST PUSH1 0x0 PUSH1 0xC0 DUP4 ADD PUSH1 0x0 DUP4 ADD MLOAD DUP5 DUP3 SUB PUSH1 0x0 DUP7 ADD MSTORE PUSH2 0x2C85 DUP3 DUP3 PUSH2 0x2A23 JUMP JUMPDEST SWAP2 POP POP PUSH1 0x20 DUP4 ADD MLOAD DUP5 DUP3 SUB PUSH1 0x20 DUP7 ADD MSTORE PUSH2 0x2C9F DUP3 DUP3 PUSH2 0x2A23 JUMP JUMPDEST SWAP2 POP POP PUSH1 0x40 DUP4 ADD MLOAD PUSH2 0x2CB4 PUSH1 0x40 DUP7 ADD DUP3 PUSH2 0x2A14 JUMP JUMPDEST POP PUSH1 0x60 DUP4 ADD MLOAD PUSH2 0x2CC7 PUSH1 0x60 DUP7 ADD DUP3 PUSH2 0x2A14 JUMP JUMPDEST POP PUSH1 0x80 DUP4 ADD MLOAD PUSH2 0x2CDA PUSH1 0x80 DUP7 ADD DUP3 PUSH2 0x2A14 JUMP JUMPDEST POP PUSH1 0xA0 DUP4 ADD MLOAD PUSH2 0x2CED PUSH1 0xA0 DUP7 ADD DUP3 PUSH2 0x2A14 JUMP JUMPDEST POP DUP1 SWAP2 POP POP SWAP3 SWAP2 POP POP JUMP JUMPDEST PUSH2 0x2D01 DUP2 PUSH2 0x2FFA JUMP JUMPDEST DUP3 MSTORE POP POP JUMP JUMPDEST PUSH2 0x2D10 DUP2 PUSH2 0x2FFA JUMP JUMPDEST DUP3 MSTORE POP POP JUMP JUMPDEST PUSH1 0x0 PUSH2 0x2D22 DUP3 DUP5 PUSH2 0x2A95 JUMP JUMPDEST SWAP2 POP DUP2 SWAP1 POP SWAP3 SWAP2 POP POP JUMP JUMPDEST PUSH1 0x0 PUSH1 0x20 DUP3 ADD SWAP1 POP PUSH2 0x2D42 PUSH1 0x0 DUP4 ADD DUP5 PUSH2 0x29E7 JUMP JUMPDEST SWAP3 SWAP2 POP POP JUMP JUMPDEST PUSH1 0x0 PUSH1 0x80 DUP3 ADD SWAP1 POP PUSH2 0x2D5D PUSH1 0x0 DUP4 ADD DUP8 PUSH2 0x29E7 JUMP JUMPDEST PUSH2 0x2D6A PUSH1 0x20 DUP4 ADD DUP7 PUSH2 0x2D07 JUMP JUMPDEST DUP2 DUP2 SUB PUSH1 0x40 DUP4 ADD MSTORE PUSH2 0x2D7C DUP2 DUP6 PUSH2 0x2A5C JUMP JUMPDEST SWAP1 POP DUP2 DUP2 SUB PUSH1 0x60 DUP4 ADD MSTORE PUSH2 0x2D90 DUP2 DUP5 PUSH2 0x2A5C JUMP JUMPDEST SWAP1 POP SWAP6 SWAP5 POP POP POP POP POP JUMP JUMPDEST PUSH1 0x0 PUSH1 0x20 DUP3 ADD SWAP1 POP PUSH2 0x2DB0 PUSH1 0x0 DUP4 ADD DUP5 PUSH2 0x2A05 JUMP JUMPDEST SWAP3 SWAP2 POP POP JUMP JUMPDEST PUSH1 0x0 PUSH1 0x20 DUP3 ADD SWAP1 POP DUP2 DUP2 SUB PUSH1 0x0 DUP4 ADD MSTORE PUSH2 0x2DD0 DUP2 DUP5 PUSH2 0x2A5C JUMP JUMPDEST SWAP1 POP SWAP3 SWAP2 POP POP JUMP JUMPDEST PUSH1 0x0 PUSH1 0x20 DUP3 ADD SWAP1 POP DUP2 DUP2 SUB PUSH1 0x0 DUP4 ADD MSTORE PUSH2 0x2DF2 DUP2 DUP5 PUSH2 0x2AC6 JUMP JUMPDEST SWAP1 POP SWAP3 SWAP2 POP POP JUMP JUMPDEST PUSH1 0x0 PUSH1 0x20 DUP3 ADD SWAP1 POP PUSH2 0x2E0F PUSH1 0x0 DUP4 ADD DUP5 PUSH2 0x2D07 JUMP JUMPDEST SWAP3 SWAP2 POP POP JUMP JUMPDEST PUSH1 0x0 PUSH2 0x180 DUP3 ADD SWAP1 POP PUSH2 0x2E2B PUSH1 0x0 DUP4 ADD DUP16 PUSH2 0x2D07 JUMP JUMPDEST PUSH2 0x2E38 PUSH1 0x20 DUP4 ADD DUP15 PUSH2 0x2D07 JUMP JUMPDEST PUSH2 0x2E45 PUSH1 0x40 DUP4 ADD DUP14 PUSH2 0x2D07 JUMP JUMPDEST PUSH2 0x2E52 PUSH1 0x60 DUP4 ADD DUP13 PUSH2 0x2D07 JUMP JUMPDEST PUSH2 0x2E5F PUSH1 0x80 DUP4 ADD DUP12 PUSH2 0x29E7 JUMP JUMPDEST PUSH2 0x2E6C PUSH1 0xA0 DUP4 ADD DUP11 PUSH2 0x2D07 JUMP JUMPDEST PUSH2 0x2E79 PUSH1 0xC0 DUP4 ADD DUP10 PUSH2 0x2D07 JUMP JUMPDEST PUSH2 0x2E86 PUSH1 0xE0 DUP4 ADD DUP9 PUSH2 0x29E7 JUMP JUMPDEST DUP2 DUP2 SUB PUSH2 0x100 DUP4 ADD MSTORE PUSH2 0x2E99 DUP2 DUP8 PUSH2 0x2C68 JUMP JUMPDEST SWAP1 POP DUP2 DUP2 SUB PUSH2 0x120 DUP4 ADD MSTORE PUSH2 0x2EAE DUP2 DUP7 PUSH2 0x2A5C JUMP JUMPDEST SWAP1 POP PUSH2 0x2EBE PUSH2 0x140 DUP4 ADD DUP6 PUSH2 0x2A05 JUMP JUMPDEST DUP2 DUP2 SUB PUSH2 0x160 DUP4 ADD MSTORE PUSH2 0x2ED1 DUP2 DUP5 PUSH2 0x2A5C JUMP JUMPDEST SWAP1 POP SWAP14 SWAP13 POP POP POP POP POP POP POP POP POP POP POP POP POP JUMP JUMPDEST PUSH1 0x0 PUSH1 0x40 MLOAD SWAP1 POP DUP2 DUP2 ADD DUP2 DUP2 LT PUSH8 0xFFFFFFFFFFFFFFFF DUP3 GT OR ISZERO PUSH2 0x2F0B JUMPI PUSH2 0x2F0A PUSH2 0x3141 JUMP JUMPDEST JUMPDEST DUP1 PUSH1 0x40 MSTORE POP SWAP2 SWAP1 POP JUMP JUMPDEST PUSH1 0x0 PUSH8 0xFFFFFFFFFFFFFFFF DUP3 GT ISZERO PUSH2 0x2F30 JUMPI PUSH2 0x2F2F PUSH2 0x3141 JUMP JUMPDEST JUMPDEST PUSH1 0x20 DUP3 MUL SWAP1 POP PUSH1 0x20 DUP2 ADD SWAP1 POP SWAP2 SWAP1 POP JUMP JUMPDEST PUSH1 0x0 PUSH8 0xFFFFFFFFFFFFFFFF DUP3 GT ISZERO PUSH2 0x2F5C JUMPI PUSH2 0x2F5B PUSH2 0x3141 JUMP JUMPDEST JUMPDEST PUSH1 0x1F NOT PUSH1 0x1F DUP4 ADD AND SWAP1 POP PUSH1 0x20 DUP2 ADD SWAP1 POP SWAP2 SWAP1 POP JUMP JUMPDEST PUSH1 0x0 DUP2 MLOAD SWAP1 POP SWAP2 SWAP1 POP JUMP JUMPDEST PUSH1 0x0 DUP3 DUP3 MSTORE PUSH1 0x20 DUP3 ADD SWAP1 POP SWAP3 SWAP2 POP POP JUMP JUMPDEST PUSH1 0x0 DUP3 DUP3 MSTORE PUSH1 0x20 DUP3 ADD SWAP1 POP SWAP3 SWAP2 POP POP JUMP JUMPDEST PUSH1 0x0 DUP2 SWAP1 POP SWAP3 SWAP2 POP POP JUMP JUMPDEST PUSH1 0x0 PUSH2 0x2FB4 DUP3 PUSH2 0x2FDA JUMP JUMPDEST SWAP1 POP SWAP2 SWAP1 POP JUMP JUMPDEST PUSH1 0x0 DUP2 ISZERO ISZERO SWAP1 POP SWAP2 SWAP1 POP JUMP JUMPDEST PUSH1 0x0 DUP2 SWAP1 POP PUSH2 0x2FD5 DUP3 PUSH2 0x3181 JUMP JUMPDEST SWAP2 SWAP1 POP JUMP JUMPDEST PUSH1 0x0 PUSH20 0xFFFFFFFFFFFFFFFFFFFFFFFFFFFFFFFFFFFFFFFF DUP3 AND SWAP1 POP SWAP2 SWAP1 POP JUMP JUMPDEST PUSH1 0x0 DUP2 SWAP1 POP SWAP2 SWAP1 POP JUMP JUMPDEST PUSH1 0x0 PUSH2 0x300F DUP3 PUSH2 0x2FC7 JUMP JUMPDEST SWAP1 POP SWAP2 SWAP1 POP JUMP JUMPDEST DUP3 DUP2 DUP4 CALLDATACOPY PUSH1 0x0 DUP4 DUP4 ADD MSTORE POP POP POP JUMP JUMPDEST PUSH1 0x0 JUMPDEST DUP4 DUP2 LT ISZERO PUSH2 0x3043 JUMPI DUP1 DUP3 ADD MLOAD DUP2 DUP5 ADD MSTORE PUSH1 0x20 DUP2 ADD SWAP1 POP PUSH2 0x3028 JUMP JUMPDEST DUP4 DUP2 GT ISZERO PUSH2 0x3052 JUMPI PUSH1 0x0 DUP5 DUP5 ADD MSTORE JUMPDEST POP POP POP POP JUMP JUMPDEST PUSH1 0x0 PUSH2 0x3063 DUP3 PUSH2 0x2FFA JUMP JUMPDEST SWAP2 POP PUSH1 0x0 DUP3 EQ ISZERO PUSH2 0x3077 JUMPI PUSH2 0x3076 PUSH2 0x30B4 JUMP JUMPDEST JUMPDEST PUSH1 0x1 DUP3 SUB SWAP1 POP SWAP2 SWAP1 POP JUMP JUMPDEST PUSH1 0x0 PUSH1 0x2 DUP3 DIV SWAP1 POP PUSH1 0x1 DUP3 AND DUP1 PUSH2 0x309A JUMPI PUSH1 0x7F DUP3 AND SWAP2 POP JUMPDEST PUSH1 0x20 DUP3 LT DUP2 EQ ISZERO PUSH2 0x30AE JUMPI PUSH2 0x30AD PUSH2 0x3112 JUMP JUMPDEST JUMPDEST POP SWAP2 SWAP1 POP JUMP JUMPDEST PUSH32 0x4E487B7100000000000000000000000000000000000000000000000000000000 PUSH1 0x0 MSTORE PUSH1 0x11 PUSH1 0x4 MSTORE PUSH1 0x24 PUSH1 0x0 REVERT JUMPDEST PUSH32 0x4E487B7100000000000000000000000000000000000000000000000000000000 PUSH1 0x0 MSTORE PUSH1 0x21 PUSH1 0x4 MSTORE PUSH1 0x24 PUSH1 0x0 REVERT JUMPDEST PUSH32 0x4E487B7100000000000000000000000000000000000000000000000000000000 PUSH1 0x0 MSTORE PUSH1 0x22 PUSH1 0x4 MSTORE PUSH1 0x24 PUSH1 0x0 REVERT JUMPDEST PUSH32 0x4E487B7100000000000000000000000000000000000000000000000000000000 PUSH1 0x0 MSTORE PUSH1 0x41 PUSH1 0x4 MSTORE PUSH1 0x24 PUSH1 0x0 REVERT JUMPDEST PUSH1 0x0 PUSH1 0x1F NOT PUSH1 0x1F DUP4 ADD AND SWAP1 POP SWAP2 SWAP1 POP JUMP JUMPDEST PUSH1 0x5 DUP2 LT PUSH2 0x3192 JUMPI PUSH2 0x3191 PUSH2 0x30E3 JUMP JUMPDEST JUMPDEST POP JUMP JUMPDEST PUSH2 0x319E DUP2 PUSH2 0x2FA9 JUMP JUMPDEST DUP2 EQ PUSH2 0x31A9 JUMPI PUSH1 0x0 DUP1 REVERT JUMPDEST POP JUMP JUMPDEST PUSH2 0x31B5 DUP2 PUSH2 0x2FFA JUMP JUMPDEST DUP2 EQ PUSH2 0x31C0 JUMPI PUSH1 0x0 DUP1 REVERT JUMPDEST POP JUMP INVALID PUSH5 0x757269616E KECCAK256 PUSH5 0x616D616765 PUSH5 0x20706C6561 PUSH20 0x652073656C65637420616E6F7468657220647572 PUSH10 0x616EA264697066735822 SLT KECCAK256 RETURNDATACOPY PUSH20 0xBE4D3A03229F3E85E3E20949CF4FBDECDFDF6DFE 0x4B 0xE6 0x2B SWAP2 0xE8 RETURN ORIGIN CHAINID STATICCALL PUSH12 0x64736F6C6343000800003300 "
				},
				"gasEstimates": {
					"creation": {
						"codeDepositCost": "2567200",
						"executionCost": "infinite",
						"totalCost": "infinite"
					},
					"external": {
						"addDurian(uint256,uint256,uint256,uint256,address,uint256,uint256)": "infinite",
						"addStaff(address[],uint256,string,string)": "infinite",
						"deliverDurian(string,string,uint256)": "infinite",
						"durians(uint256)": "infinite",
						"getDurianById(uint256)": "infinite",
						"getOwnerAdd()": "1266",
						"getTotalDurians()": "1167",
						"ownerFarm()": "1234",
						"receiveDurians(uint256,string,string)": "infinite",
						"soldDurians(address,uint256)": "infinite",
						"staffs(uint256)": "infinite"
					},
					"internal": {
						"compare(string memory,string memory)": "infinite"
					}
				},
				"methodIdentifiers": {
					"addDurian(uint256,uint256,uint256,uint256,address,uint256,uint256)": "3afe4f12",
					"addStaff(address[],uint256,string,string)": "45b2bd2f",
					"deliverDurian(string,string,uint256)": "ea6978c1",
					"durians(uint256)": "ee446d9f",
					"getDurianById(uint256)": "00820349",
					"getOwnerAdd()": "d66d2a57",
					"getTotalDurians()": "7fa9571f",
					"ownerFarm()": "2966b29b",
					"receiveDurians(uint256,string,string)": "d8162943",
					"soldDurians(address,uint256)": "507d4e8e",
					"staffs(uint256)": "498d4707"
				}
			},
			"storageLayout": {
				"storage": [
					{
						"astId": 3,
						"contract": "DurianContract.sol:DurianContract",
						"label": "ownerFarm",
						"offset": 0,
						"slot": "0",
						"type": "t_address"
					},
					{
						"astId": 117,
						"contract": "DurianContract.sol:DurianContract",
						"label": "staffs",
						"offset": 0,
						"slot": "1",
						"type": "t_array(t_struct(Staff)113_storage)dyn_storage"
					},
					{
						"astId": 147,
						"contract": "DurianContract.sol:DurianContract",
						"label": "durians",
						"offset": 0,
						"slot": "2",
						"type": "t_array(t_struct(Durian)143_storage)dyn_storage"
					},
					{
						"astId": 185,
						"contract": "DurianContract.sol:DurianContract",
						"label": "defaultDurian",
						"offset": 0,
						"slot": "3",
						"type": "t_struct(Reviews)170_storage"
					}
				],
				"types": {
					"t_address": {
						"encoding": "inplace",
						"label": "address",
						"numberOfBytes": "20"
					},
					"t_array(t_struct(Durian)143_storage)dyn_storage": {
						"base": "t_struct(Durian)143_storage",
						"encoding": "dynamic_array",
						"label": "struct DurianContract.Durian[]",
						"numberOfBytes": "32"
					},
					"t_array(t_struct(Staff)113_storage)dyn_storage": {
						"base": "t_struct(Staff)113_storage",
						"encoding": "dynamic_array",
						"label": "struct DurianContract.Staff[]",
						"numberOfBytes": "32"
					},
					"t_bool": {
						"encoding": "inplace",
						"label": "bool",
						"numberOfBytes": "1"
					},
					"t_enum(RatingNo)153": {
						"encoding": "inplace",
						"label": "enum DurianContract.RatingNo",
						"numberOfBytes": "1"
					},
					"t_string_storage": {
						"encoding": "bytes",
						"label": "string",
						"numberOfBytes": "32"
					},
					"t_struct(Durian)143_storage": {
						"encoding": "inplace",
						"label": "struct DurianContract.Durian",
						"members": [
							{
								"astId": 119,
								"contract": "DurianContract.sol:DurianContract",
								"label": "id",
								"offset": 0,
								"slot": "0",
								"type": "t_uint256"
							},
							{
								"astId": 121,
								"contract": "DurianContract.sol:DurianContract",
								"label": "kind",
								"offset": 0,
								"slot": "1",
								"type": "t_uint256"
							},
							{
								"astId": 123,
								"contract": "DurianContract.sol:DurianContract",
								"label": "weight",
								"offset": 0,
								"slot": "2",
								"type": "t_uint256"
							},
							{
								"astId": 125,
								"contract": "DurianContract.sol:DurianContract",
								"label": "harvested_date_time",
								"offset": 0,
								"slot": "3",
								"type": "t_uint256"
							},
							{
								"astId": 127,
								"contract": "DurianContract.sol:DurianContract",
								"label": "harvested_by",
								"offset": 0,
								"slot": "4",
								"type": "t_address"
							},
							{
								"astId": 129,
								"contract": "DurianContract.sol:DurianContract",
								"label": "harvest_tree",
								"offset": 0,
								"slot": "5",
								"type": "t_uint256"
							},
							{
								"astId": 131,
								"contract": "DurianContract.sol:DurianContract",
								"label": "harvest_farm",
								"offset": 0,
								"slot": "6",
								"type": "t_uint256"
							},
							{
								"astId": 133,
								"contract": "DurianContract.sol:DurianContract",
								"label": "owner",
								"offset": 0,
								"slot": "7",
								"type": "t_address"
							},
							{
								"astId": 136,
								"contract": "DurianContract.sol:DurianContract",
								"label": "reviews",
								"offset": 0,
								"slot": "8",
								"type": "t_struct(Reviews)170_storage"
							},
							{
								"astId": 138,
								"contract": "DurianContract.sol:DurianContract",
								"label": "location",
								"offset": 0,
								"slot": "11",
								"type": "t_string_storage"
							},
							{
								"astId": 140,
								"contract": "DurianContract.sol:DurianContract",
								"label": "onDelivery",
								"offset": 0,
								"slot": "12",
								"type": "t_bool"
							},
							{
								"astId": 142,
								"contract": "DurianContract.sol:DurianContract",
								"label": "status",
								"offset": 0,
								"slot": "13",
								"type": "t_string_storage"
							}
						],
						"numberOfBytes": "448"
					},
					"t_struct(Reviews)170_storage": {
						"encoding": "inplace",
						"label": "struct DurianContract.Reviews",
						"members": [
							{
								"astId": 155,
								"contract": "DurianContract.sol:DurianContract",
								"label": "personalRemarks",
								"offset": 0,
								"slot": "0",
								"type": "t_string_storage"
							},
							{
								"astId": 157,
								"contract": "DurianContract.sol:DurianContract",
								"label": "color",
								"offset": 0,
								"slot": "1",
								"type": "t_string_storage"
							},
							{
								"astId": 160,
								"contract": "DurianContract.sol:DurianContract",
								"label": "taste",
								"offset": 0,
								"slot": "2",
								"type": "t_enum(RatingNo)153"
							},
							{
								"astId": 163,
								"contract": "DurianContract.sol:DurianContract",
								"label": "fragrance",
								"offset": 1,
								"slot": "2",
								"type": "t_enum(RatingNo)153"
							},
							{
								"astId": 166,
								"contract": "DurianContract.sol:DurianContract",
								"label": "creaminess",
								"offset": 2,
								"slot": "2",
								"type": "t_enum(RatingNo)153"
							},
							{
								"astId": 169,
								"contract": "DurianContract.sol:DurianContract",
								"label": "overall_rating",
								"offset": 3,
								"slot": "2",
								"type": "t_enum(RatingNo)153"
							}
						],
						"numberOfBytes": "96"
					},
					"t_struct(Staff)113_storage": {
						"encoding": "inplace",
						"label": "struct DurianContract.Staff",
						"members": [
							{
								"astId": 106,
								"contract": "DurianContract.sol:DurianContract",
								"label": "staffAddress",
								"offset": 0,
								"slot": "0",
								"type": "t_address"
							},
							{
								"astId": 108,
								"contract": "DurianContract.sol:DurianContract",
								"label": "id",
								"offset": 0,
								"slot": "1",
								"type": "t_uint256"
							},
							{
								"astId": 110,
								"contract": "DurianContract.sol:DurianContract",
								"label": "name",
								"offset": 0,
								"slot": "2",
								"type": "t_string_storage"
							},
							{
								"astId": 112,
								"contract": "DurianContract.sol:DurianContract",
								"label": "title",
								"offset": 0,
								"slot": "3",
								"type": "t_string_storage"
							}
						],
						"numberOfBytes": "128"
					},
					"t_uint256": {
						"encoding": "inplace",
						"label": "uint256",
						"numberOfBytes": "32"
					}
				}
			},
			"userdoc": {
				"kind": "user",
				"methods": {},
				"version": 1
			}
		}
	}
}