{
	"DurianContract.sol": {
		"DurianContract": {
			"abi": [
				{
					"inputs": [],
					"stateMutability": "nonpayable",
					"type": "constructor"
				},
				{
					"inputs": [
						{
							"internalType": "string",
							"name": "id",
							"type": "string"
						},
						{
							"internalType": "uint256",
							"name": "species",
							"type": "uint256"
						},
						{
							"internalType": "uint256",
							"name": "weight",
							"type": "uint256"
						},
						{
							"internalType": "uint256",
							"name": "harvested_date_time",
							"type": "uint256"
						},
						{
							"internalType": "uint256",
							"name": "harvest_tree",
							"type": "uint256"
						},
						{
							"internalType": "uint256",
							"name": "harvest_farm",
							"type": "uint256"
						}
					],
					"name": "addDurian",
					"outputs": [],
					"stateMutability": "nonpayable",
					"type": "function"
				},
				{
					"inputs": [
						{
							"internalType": "address[]",
							"name": "newstaffs",
							"type": "address[]"
						},
						{
							"internalType": "uint256",
							"name": "id",
							"type": "uint256"
						},
						{
							"internalType": "string",
							"name": "name",
							"type": "string"
						},
						{
							"internalType": "string",
							"name": "title",
							"type": "string"
						}
					],
					"name": "addStaff",
					"outputs": [],
					"stateMutability": "nonpayable",
					"type": "function"
				},
				{
					"inputs": [
						{
							"internalType": "string",
							"name": "startingPoint",
							"type": "string"
						},
						{
							"internalType": "string",
							"name": "destination",
							"type": "string"
						},
						{
							"internalType": "string",
							"name": "id",
							"type": "string"
						}
					],
					"name": "deliverDurian",
					"outputs": [
						{
							"internalType": "bool",
							"name": "",
							"type": "bool"
						}
					],
					"stateMutability": "nonpayable",
					"type": "function"
				},
				{
					"inputs": [],
					"name": "durianCount",
					"outputs": [
						{
							"internalType": "uint256",
							"name": "",
							"type": "uint256"
						}
					],
					"stateMutability": "view",
					"type": "function"
				},
				{
					"inputs": [
						{
							"internalType": "string",
							"name": "",
							"type": "string"
						}
					],
					"name": "durians",
					"outputs": [
						{
							"internalType": "string",
							"name": "id",
							"type": "string"
						},
						{
							"internalType": "uint256",
							"name": "species",
							"type": "uint256"
						},
						{
							"internalType": "uint256",
							"name": "weight",
							"type": "uint256"
						},
						{
							"internalType": "uint256",
							"name": "harvested_date_time",
							"type": "uint256"
						},
						{
							"internalType": "address",
							"name": "harvested_by",
							"type": "address"
						},
						{
							"internalType": "uint256",
							"name": "harvest_tree",
							"type": "uint256"
						},
						{
							"internalType": "uint256",
							"name": "harvest_farm",
							"type": "uint256"
						},
						{
							"internalType": "address",
							"name": "owner",
							"type": "address"
						},
						{
							"components": [
								{
									"internalType": "string",
									"name": "personalRemarks",
									"type": "string"
								},
								{
									"internalType": "string",
									"name": "color",
									"type": "string"
								},
								{
									"internalType": "enum DurianContract.RatingNo",
									"name": "taste",
									"type": "uint8"
								},
								{
									"internalType": "enum DurianContract.RatingNo",
									"name": "fragrance",
									"type": "uint8"
								},
								{
									"internalType": "enum DurianContract.RatingNo",
									"name": "creaminess",
									"type": "uint8"
								},
								{
									"internalType": "enum DurianContract.RatingNo",
									"name": "overall_rating",
									"type": "uint8"
								}
							],
							"internalType": "struct DurianContract.Reviews",
							"name": "reviews",
							"type": "tuple"
						},
						{
							"internalType": "string",
							"name": "location",
							"type": "string"
						},
						{
							"internalType": "bool",
							"name": "onDelivery",
							"type": "bool"
						},
						{
							"internalType": "string",
							"name": "status",
							"type": "string"
						}
					],
					"stateMutability": "view",
					"type": "function"
				},
				{
					"inputs": [
						{
							"internalType": "string",
							"name": "id",
							"type": "string"
						}
					],
					"name": "getDurianById",
					"outputs": [
						{
							"internalType": "uint256",
							"name": "",
							"type": "uint256"
						}
					],
					"stateMutability": "view",
					"type": "function"
				},
				{
					"inputs": [],
					"name": "getOwnerAdd",
					"outputs": [
						{
							"internalType": "address",
							"name": "",
							"type": "address"
						}
					],
					"stateMutability": "view",
					"type": "function"
				},
				{
					"inputs": [],
					"name": "getTotalDurians",
					"outputs": [
						{
							"internalType": "uint256",
							"name": "",
							"type": "uint256"
						}
					],
					"stateMutability": "view",
					"type": "function"
				},
				{
					"inputs": [],
					"name": "ownerFarm",
					"outputs": [
						{
							"internalType": "address",
							"name": "",
							"type": "address"
						}
					],
					"stateMutability": "view",
					"type": "function"
				},
				{
					"inputs": [
						{
							"internalType": "string",
							"name": "id",
							"type": "string"
						},
						{
							"internalType": "string",
							"name": "destination",
							"type": "string"
						},
						{
							"internalType": "string",
							"name": "status",
							"type": "string"
						}
					],
					"name": "receiveDurians",
					"outputs": [
						{
							"internalType": "bool",
							"name": "",
							"type": "bool"
						}
					],
					"stateMutability": "nonpayable",
					"type": "function"
				},
				{
					"inputs": [
						{
							"internalType": "string",
							"name": "id",
							"type": "string"
						},
						{
							"internalType": "string",
							"name": "personalReview",
							"type": "string"
						},
						{
							"internalType": "string",
							"name": "color",
							"type": "string"
						},
						{
							"internalType": "uint256[4]",
							"name": "numbers",
							"type": "uint256[4]"
						}
					],
					"name": "review",
					"outputs": [],
					"stateMutability": "nonpayable",
					"type": "function"
				},
				{
					"inputs": [
						{
							"internalType": "address",
							"name": "buyer",
							"type": "address"
						},
						{
							"internalType": "string",
							"name": "id",
							"type": "string"
						}
					],
					"name": "soldDurians",
					"outputs": [
						{
							"internalType": "string",
							"name": "",
							"type": "string"
						}
					],
					"stateMutability": "nonpayable",
					"type": "function"
				},
				{
					"inputs": [
						{
							"internalType": "uint256",
							"name": "",
							"type": "uint256"
						}
					],
					"name": "staffs",
					"outputs": [
						{
							"internalType": "address",
							"name": "staffAddress",
							"type": "address"
						},
						{
							"internalType": "uint256",
							"name": "id",
							"type": "uint256"
						},
						{
							"internalType": "string",
							"name": "name",
							"type": "string"
						},
						{
							"internalType": "string",
							"name": "title",
							"type": "string"
						}
					],
					"stateMutability": "view",
					"type": "function"
				}
			],
			"devdoc": {
				"kind": "dev",
				"methods": {},
				"version": 1
			},
			"evm": {
				"assembly": "    /* \"DurianContract.sol\":57:5968  contract DurianContract {... */\n  mstore(0x40, 0x80)\n    /* \"DurianContract.sol\":2090:2191  Reviews(\"default\", \"default\", RatingNo.average, RatingNo.average, RatingNo.average, RatingNo.average) */\n  mload(0x40)\n  dup1\n  0xc0\n  add\n  0x40\n  mstore\n  dup1\n  mload(0x40)\n  dup1\n  0x40\n  add\n  0x40\n  mstore\n  dup1\n  0x07\n  dup2\n  mstore\n  0x20\n  add\n  0x64656661756c7400000000000000000000000000000000000000000000000000\n  dup2\n  mstore\n  pop\n  dup2\n  mstore\n  0x20\n  add\n  mload(0x40)\n  dup1\n  0x40\n  add\n  0x40\n  mstore\n  dup1\n  0x07\n  dup2\n  mstore\n  0x20\n  add\n  0x64656661756c7400000000000000000000000000000000000000000000000000\n  dup2\n  mstore\n  pop\n  dup2\n  mstore\n  0x20\n  add\n    /* \"DurianContract.sol\":2120:2136  RatingNo.average */\n  0x02\n    /* \"DurianContract.sol\":2090:2191  Reviews(\"default\", \"default\", RatingNo.average, RatingNo.average, RatingNo.average, RatingNo.average) */\n  0x04\n  dup2\n  gt\n  iszero\n  tag_1\n  jumpi\n  tag_2\n  tag_3\n  jump\t// in\ntag_2:\ntag_1:\n  dup2\n  mstore\n  0x20\n  add\n    /* \"DurianContract.sol\":2138:2154  RatingNo.average */\n  0x02\n    /* \"DurianContract.sol\":2090:2191  Reviews(\"default\", \"default\", RatingNo.average, RatingNo.average, RatingNo.average, RatingNo.average) */\n  0x04\n  dup2\n  gt\n  iszero\n  tag_4\n  jumpi\n  tag_5\n  tag_3\n  jump\t// in\ntag_5:\ntag_4:\n  dup2\n  mstore\n  0x20\n  add\n    /* \"DurianContract.sol\":2156:2172  RatingNo.average */\n  0x02\n    /* \"DurianContract.sol\":2090:2191  Reviews(\"default\", \"default\", RatingNo.average, RatingNo.average, RatingNo.average, RatingNo.average) */\n  0x04\n  dup2\n  gt\n  iszero\n  tag_6\n  jumpi\n  tag_7\n  tag_3\n  jump\t// in\ntag_7:\ntag_6:\n  dup2\n  mstore\n  0x20\n  add\n    /* \"DurianContract.sol\":2174:2190  RatingNo.average */\n  0x02\n    /* \"DurianContract.sol\":2090:2191  Reviews(\"default\", \"default\", RatingNo.average, RatingNo.average, RatingNo.average, RatingNo.average) */\n  0x04\n  dup2\n  gt\n  iszero\n  tag_8\n  jumpi\n  tag_9\n  tag_3\n  jump\t// in\ntag_9:\ntag_8:\n  dup2\n  mstore\n  pop\n    /* \"DurianContract.sol\":2058:2191  Reviews private defaultDurian = Reviews(\"default\", \"default\", RatingNo.average, RatingNo.average, RatingNo.average, RatingNo.average) */\n  0x04\n  0x00\n  dup3\n  add\n  mload\n  dup2\n  0x00\n  add\n  swap1\n  dup2\n  tag_10\n  swap2\n  swap1\n  tag_11\n  jump\t// in\ntag_10:\n  pop\n  0x20\n  dup3\n  add\n  mload\n  dup2\n  0x01\n  add\n  swap1\n  dup2\n  tag_12\n  swap2\n  swap1\n  tag_11\n  jump\t// in\ntag_12:\n  pop\n  0x40\n  dup3\n  add\n  mload\n  dup2\n  0x02\n  add\n  exp(0x0100, 0x00)\n  dup2\n  sload\n  dup2\n  0xff\n  mul\n  not\n  and\n  swap1\n  dup4\n  0x04\n  dup2\n  gt\n  iszero\n  tag_13\n  jumpi\n  tag_14\n  tag_3\n  jump\t// in\ntag_14:\ntag_13:\n  mul\n  or\n  swap1\n  sstore\n  pop\n  0x60\n  dup3\n  add\n  mload\n  dup2\n  0x02\n  add\n  exp(0x0100, 0x01)\n  dup2\n  sload\n  dup2\n  0xff\n  mul\n  not\n  and\n  swap1\n  dup4\n  0x04\n  dup2\n  gt\n  iszero\n  tag_15\n  jumpi\n  tag_16\n  tag_3\n  jump\t// in\ntag_16:\ntag_15:\n  mul\n  or\n  swap1\n  sstore\n  pop\n  0x80\n  dup3\n  add\n  mload\n  dup2\n  0x02\n  add\n  exp(0x0100, 0x02)\n  dup2\n  sload\n  dup2\n  0xff\n  mul\n  not\n  and\n  swap1\n  dup4\n  0x04\n  dup2\n  gt\n  iszero\n  tag_17\n  jumpi\n  tag_18\n  tag_3\n  jump\t// in\ntag_18:\ntag_17:\n  mul\n  or\n  swap1\n  sstore\n  pop\n  0xa0\n  dup3\n  add\n  mload\n  dup2\n  0x02\n  add\n  exp(0x0100, 0x03)\n  dup2\n  sload\n  dup2\n  0xff\n  mul\n  not\n  and\n  swap1\n  dup4\n  0x04\n  dup2\n  gt\n  iszero\n  tag_19\n  jumpi\n  tag_20\n  tag_3\n  jump\t// in\ntag_20:\ntag_19:\n  mul\n  or\n  swap1\n  sstore\n  pop\n  pop\n  pop\n    /* \"DurianContract.sol\":1014:1067  constructor() {... */\n  callvalue\n  dup1\n  iszero\n  tag_21\n  jumpi\n  0x00\n  dup1\n  revert\ntag_21:\n  pop\n    /* \"DurianContract.sol\":1050:1060  msg.sender */\n  caller\n    /* \"DurianContract.sol\":1038:1047  ownerFarm */\n  0x00\n  dup1\n    /* \"DurianContract.sol\":1038:1060  ownerFarm = msg.sender */\n  0x0100\n  exp\n  dup2\n  sload\n  dup2\n  0xffffffffffffffffffffffffffffffffffffffff\n  mul\n  not\n  and\n  swap1\n  dup4\n  0xffffffffffffffffffffffffffffffffffffffff\n  and\n  mul\n  or\n  swap1\n  sstore\n  pop\n    /* \"DurianContract.sol\":57:5968  contract DurianContract {... */\n  jump(tag_24)\n    /* \"#utility.yul\":7:187   */\ntag_3:\n    /* \"#utility.yul\":55:132   */\n  0x4e487b7100000000000000000000000000000000000000000000000000000000\n    /* \"#utility.yul\":52:53   */\n  0x00\n    /* \"#utility.yul\":45:133   */\n  mstore\n    /* \"#utility.yul\":152:156   */\n  0x21\n    /* \"#utility.yul\":149:150   */\n  0x04\n    /* \"#utility.yul\":142:157   */\n  mstore\n    /* \"#utility.yul\":176:180   */\n  0x24\n    /* \"#utility.yul\":173:174   */\n  0x00\n    /* \"#utility.yul\":166:181   */\n  revert\n    /* \"#utility.yul\":193:292   */\ntag_25:\n    /* \"#utility.yul\":245:251   */\n  0x00\n    /* \"#utility.yul\":279:284   */\n  dup2\n    /* \"#utility.yul\":273:285   */\n  mload\n    /* \"#utility.yul\":263:285   */\n  swap1\n  pop\n    /* \"#utility.yul\":193:292   */\n  swap2\n  swap1\n  pop\n  jump\t// out\n    /* \"#utility.yul\":298:478   */\ntag_26:\n    /* \"#utility.yul\":346:423   */\n  0x4e487b7100000000000000000000000000000000000000000000000000000000\n    /* \"#utility.yul\":343:344   */\n  0x00\n    /* \"#utility.yul\":336:424   */\n  mstore\n    /* \"#utility.yul\":443:447   */\n  0x41\n    /* \"#utility.yul\":440:441   */\n  0x04\n    /* \"#utility.yul\":433:448   */\n  mstore\n    /* \"#utility.yul\":467:471   */\n  0x24\n    /* \"#utility.yul\":464:465   */\n  0x00\n    /* \"#utility.yul\":457:472   */\n  revert\n    /* \"#utility.yul\":484:664   */\ntag_27:\n    /* \"#utility.yul\":532:609   */\n  0x4e487b7100000000000000000000000000000000000000000000000000000000\n    /* \"#utility.yul\":529:530   */\n  0x00\n    /* \"#utility.yul\":522:610   */\n  mstore\n    /* \"#utility.yul\":629:633   */\n  0x22\n    /* \"#utility.yul\":626:627   */\n  0x04\n    /* \"#utility.yul\":619:634   */\n  mstore\n    /* \"#utility.yul\":653:657   */\n  0x24\n    /* \"#utility.yul\":650:651   */\n  0x00\n    /* \"#utility.yul\":643:658   */\n  revert\n    /* \"#utility.yul\":670:990   */\ntag_28:\n    /* \"#utility.yul\":714:720   */\n  0x00\n    /* \"#utility.yul\":751:752   */\n  0x02\n    /* \"#utility.yul\":745:749   */\n  dup3\n    /* \"#utility.yul\":741:753   */\n  div\n    /* \"#utility.yul\":731:753   */\n  swap1\n  pop\n    /* \"#utility.yul\":798:799   */\n  0x01\n    /* \"#utility.yul\":792:796   */\n  dup3\n    /* \"#utility.yul\":788:800   */\n  and\n    /* \"#utility.yul\":819:837   */\n  dup1\n    /* \"#utility.yul\":809:890   */\n  tag_51\n  jumpi\n    /* \"#utility.yul\":875:879   */\n  0x7f\n    /* \"#utility.yul\":867:873   */\n  dup3\n    /* \"#utility.yul\":863:880   */\n  and\n    /* \"#utility.yul\":853:880   */\n  swap2\n  pop\n    /* \"#utility.yul\":809:890   */\ntag_51:\n    /* \"#utility.yul\":937:939   */\n  0x20\n    /* \"#utility.yul\":929:935   */\n  dup3\n    /* \"#utility.yul\":926:940   */\n  lt\n    /* \"#utility.yul\":906:924   */\n  dup2\n    /* \"#utility.yul\":903:941   */\n  sub\n    /* \"#utility.yul\":900:984   */\n  tag_52\n  jumpi\n    /* \"#utility.yul\":956:974   */\n  tag_53\n  tag_27\n  jump\t// in\ntag_53:\n    /* \"#utility.yul\":900:984   */\ntag_52:\n    /* \"#utility.yul\":721:990   */\n  pop\n    /* \"#utility.yul\":670:990   */\n  swap2\n  swap1\n  pop\n  jump\t// out\n    /* \"#utility.yul\":996:1137   */\ntag_29:\n    /* \"#utility.yul\":1045:1049   */\n  0x00\n    /* \"#utility.yul\":1068:1071   */\n  dup2\n    /* \"#utility.yul\":1060:1071   */\n  swap1\n  pop\n    /* \"#utility.yul\":1091:1094   */\n  dup2\n    /* \"#utility.yul\":1088:1089   */\n  0x00\n    /* \"#utility.yul\":1081:1095   */\n  mstore\n    /* \"#utility.yul\":1125:1129   */\n  0x20\n    /* \"#utility.yul\":1122:1123   */\n  0x00\n    /* \"#utility.yul\":1112:1130   */\n  keccak256\n    /* \"#utility.yul\":1104:1130   */\n  swap1\n  pop\n    /* \"#utility.yul\":996:1137   */\n  swap2\n  swap1\n  pop\n  jump\t// out\n    /* \"#utility.yul\":1143:1236   */\ntag_30:\n    /* \"#utility.yul\":1180:1186   */\n  0x00\n    /* \"#utility.yul\":1227:1229   */\n  0x20\n    /* \"#utility.yul\":1222:1224   */\n  0x1f\n    /* \"#utility.yul\":1215:1220   */\n  dup4\n    /* \"#utility.yul\":1211:1225   */\n  add\n    /* \"#utility.yul\":1207:1230   */\n  div\n    /* \"#utility.yul\":1197:1230   */\n  swap1\n  pop\n    /* \"#utility.yul\":1143:1236   */\n  swap2\n  swap1\n  pop\n  jump\t// out\n    /* \"#utility.yul\":1242:1349   */\ntag_31:\n    /* \"#utility.yul\":1286:1294   */\n  0x00\n    /* \"#utility.yul\":1336:1341   */\n  dup3\n    /* \"#utility.yul\":1330:1334   */\n  dup3\n    /* \"#utility.yul\":1326:1342   */\n  shl\n    /* \"#utility.yul\":1305:1342   */\n  swap1\n  pop\n    /* \"#utility.yul\":1242:1349   */\n  swap3\n  swap2\n  pop\n  pop\n  jump\t// out\n    /* \"#utility.yul\":1355:1748   */\ntag_32:\n    /* \"#utility.yul\":1424:1430   */\n  0x00\n    /* \"#utility.yul\":1474:1475   */\n  0x08\n    /* \"#utility.yul\":1462:1472   */\n  dup4\n    /* \"#utility.yul\":1458:1476   */\n  mul\n    /* \"#utility.yul\":1497:1594   */\n  tag_58\n    /* \"#utility.yul\":1527:1593   */\n  0xffffffffffffffffffffffffffffffffffffffffffffffffffffffffffffffff\n    /* \"#utility.yul\":1516:1525   */\n  dup3\n    /* \"#utility.yul\":1497:1594   */\n  tag_31\n  jump\t// in\ntag_58:\n    /* \"#utility.yul\":1615:1654   */\n  tag_59\n    /* \"#utility.yul\":1645:1653   */\n  dup7\n    /* \"#utility.yul\":1634:1643   */\n  dup4\n    /* \"#utility.yul\":1615:1654   */\n  tag_31\n  jump\t// in\ntag_59:\n    /* \"#utility.yul\":1603:1654   */\n  swap6\n  pop\n    /* \"#utility.yul\":1687:1691   */\n  dup1\n    /* \"#utility.yul\":1683:1692   */\n  not\n    /* \"#utility.yul\":1676:1681   */\n  dup5\n    /* \"#utility.yul\":1672:1693   */\n  and\n    /* \"#utility.yul\":1663:1693   */\n  swap4\n  pop\n    /* \"#utility.yul\":1736:1740   */\n  dup1\n    /* \"#utility.yul\":1726:1734   */\n  dup7\n    /* \"#utility.yul\":1722:1741   */\n  and\n    /* \"#utility.yul\":1715:1720   */\n  dup5\n    /* \"#utility.yul\":1712:1742   */\n  or\n    /* \"#utility.yul\":1702:1742   */\n  swap3\n  pop\n    /* \"#utility.yul\":1431:1748   */\n  pop\n  pop\n    /* \"#utility.yul\":1355:1748   */\n  swap4\n  swap3\n  pop\n  pop\n  pop\n  jump\t// out\n    /* \"#utility.yul\":1754:1831   */\ntag_33:\n    /* \"#utility.yul\":1791:1798   */\n  0x00\n    /* \"#utility.yul\":1820:1825   */\n  dup2\n    /* \"#utility.yul\":1809:1825   */\n  swap1\n  pop\n    /* \"#utility.yul\":1754:1831   */\n  swap2\n  swap1\n  pop\n  jump\t// out\n    /* \"#utility.yul\":1837:1897   */\ntag_34:\n    /* \"#utility.yul\":1865:1868   */\n  0x00\n    /* \"#utility.yul\":1886:1891   */\n  dup2\n    /* \"#utility.yul\":1879:1891   */\n  swap1\n  pop\n    /* \"#utility.yul\":1837:1897   */\n  swap2\n  swap1\n  pop\n  jump\t// out\n    /* \"#utility.yul\":1903:2045   */\ntag_35:\n    /* \"#utility.yul\":1953:1962   */\n  0x00\n    /* \"#utility.yul\":1986:2039   */\n  tag_63\n    /* \"#utility.yul\":2004:2038   */\n  tag_64\n    /* \"#utility.yul\":2013:2037   */\n  tag_65\n    /* \"#utility.yul\":2031:2036   */\n  dup5\n    /* \"#utility.yul\":2013:2037   */\n  tag_33\n  jump\t// in\ntag_65:\n    /* \"#utility.yul\":2004:2038   */\n  tag_34\n  jump\t// in\ntag_64:\n    /* \"#utility.yul\":1986:2039   */\n  tag_33\n  jump\t// in\ntag_63:\n    /* \"#utility.yul\":1973:2039   */\n  swap1\n  pop\n    /* \"#utility.yul\":1903:2045   */\n  swap2\n  swap1\n  pop\n  jump\t// out\n    /* \"#utility.yul\":2051:2126   */\ntag_36:\n    /* \"#utility.yul\":2094:2097   */\n  0x00\n    /* \"#utility.yul\":2115:2120   */\n  dup2\n    /* \"#utility.yul\":2108:2120   */\n  swap1\n  pop\n    /* \"#utility.yul\":2051:2126   */\n  swap2\n  swap1\n  pop\n  jump\t// out\n    /* \"#utility.yul\":2132:2401   */\ntag_37:\n    /* \"#utility.yul\":2242:2281   */\n  tag_68\n    /* \"#utility.yul\":2273:2280   */\n  dup4\n    /* \"#utility.yul\":2242:2281   */\n  tag_35\n  jump\t// in\ntag_68:\n    /* \"#utility.yul\":2303:2394   */\n  tag_69\n    /* \"#utility.yul\":2352:2393   */\n  tag_70\n    /* \"#utility.yul\":2376:2392   */\n  dup3\n    /* \"#utility.yul\":2352:2393   */\n  tag_36\n  jump\t// in\ntag_70:\n    /* \"#utility.yul\":2344:2350   */\n  dup5\n    /* \"#utility.yul\":2337:2341   */\n  dup5\n    /* \"#utility.yul\":2331:2342   */\n  sload\n    /* \"#utility.yul\":2303:2394   */\n  tag_32\n  jump\t// in\ntag_69:\n    /* \"#utility.yul\":2297:2301   */\n  dup3\n    /* \"#utility.yul\":2290:2395   */\n  sstore\n    /* \"#utility.yul\":2208:2401   */\n  pop\n    /* \"#utility.yul\":2132:2401   */\n  pop\n  pop\n  pop\n  jump\t// out\n    /* \"#utility.yul\":2407:2480   */\ntag_38:\n    /* \"#utility.yul\":2452:2455   */\n  0x00\n    /* \"#utility.yul\":2407:2480   */\n  swap1\n  jump\t// out\n    /* \"#utility.yul\":2486:2675   */\ntag_39:\n    /* \"#utility.yul\":2563:2595   */\n  tag_73\n  tag_38\n  jump\t// in\ntag_73:\n    /* \"#utility.yul\":2604:2669   */\n  tag_74\n    /* \"#utility.yul\":2662:2668   */\n  dup2\n    /* \"#utility.yul\":2654:2660   */\n  dup5\n    /* \"#utility.yul\":2648:2652   */\n  dup5\n    /* \"#utility.yul\":2604:2669   */\n  tag_37\n  jump\t// in\ntag_74:\n    /* \"#utility.yul\":2539:2675   */\n  pop\n    /* \"#utility.yul\":2486:2675   */\n  pop\n  pop\n  jump\t// out\n    /* \"#utility.yul\":2681:2867   */\ntag_40:\n    /* \"#utility.yul\":2741:2861   */\ntag_76:\n    /* \"#utility.yul\":2758:2761   */\n  dup2\n    /* \"#utility.yul\":2751:2756   */\n  dup2\n    /* \"#utility.yul\":2748:2762   */\n  lt\n    /* \"#utility.yul\":2741:2861   */\n  iszero\n  tag_78\n  jumpi\n    /* \"#utility.yul\":2812:2851   */\n  tag_79\n    /* \"#utility.yul\":2849:2850   */\n  0x00\n    /* \"#utility.yul\":2842:2847   */\n  dup3\n    /* \"#utility.yul\":2812:2851   */\n  tag_39\n  jump\t// in\ntag_79:\n    /* \"#utility.yul\":2785:2786   */\n  0x01\n    /* \"#utility.yul\":2778:2783   */\n  dup2\n    /* \"#utility.yul\":2774:2787   */\n  add\n    /* \"#utility.yul\":2765:2787   */\n  swap1\n  pop\n    /* \"#utility.yul\":2741:2861   */\n  jump(tag_76)\ntag_78:\n    /* \"#utility.yul\":2681:2867   */\n  pop\n  pop\n  jump\t// out\n    /* \"#utility.yul\":2873:3416   */\ntag_41:\n    /* \"#utility.yul\":2974:2976   */\n  0x1f\n    /* \"#utility.yul\":2969:2972   */\n  dup3\n    /* \"#utility.yul\":2966:2977   */\n  gt\n    /* \"#utility.yul\":2963:3409   */\n  iszero\n  tag_81\n  jumpi\n    /* \"#utility.yul\":3008:3046   */\n  tag_82\n    /* \"#utility.yul\":3040:3045   */\n  dup2\n    /* \"#utility.yul\":3008:3046   */\n  tag_29\n  jump\t// in\ntag_82:\n    /* \"#utility.yul\":3092:3121   */\n  tag_83\n    /* \"#utility.yul\":3110:3120   */\n  dup5\n    /* \"#utility.yul\":3092:3121   */\n  tag_30\n  jump\t// in\ntag_83:\n    /* \"#utility.yul\":3082:3090   */\n  dup2\n    /* \"#utility.yul\":3078:3122   */\n  add\n    /* \"#utility.yul\":3275:3277   */\n  0x20\n    /* \"#utility.yul\":3263:3273   */\n  dup6\n    /* \"#utility.yul\":3260:3278   */\n  lt\n    /* \"#utility.yul\":3257:3306   */\n  iszero\n  tag_84\n  jumpi\n    /* \"#utility.yul\":3296:3304   */\n  dup2\n    /* \"#utility.yul\":3281:3304   */\n  swap1\n  pop\n    /* \"#utility.yul\":3257:3306   */\ntag_84:\n    /* \"#utility.yul\":3319:3399   */\n  tag_85\n    /* \"#utility.yul\":3375:3397   */\n  tag_86\n    /* \"#utility.yul\":3393:3396   */\n  dup6\n    /* \"#utility.yul\":3375:3397   */\n  tag_30\n  jump\t// in\ntag_86:\n    /* \"#utility.yul\":3365:3373   */\n  dup4\n    /* \"#utility.yul\":3361:3398   */\n  add\n    /* \"#utility.yul\":3348:3359   */\n  dup3\n    /* \"#utility.yul\":3319:3399   */\n  tag_40\n  jump\t// in\ntag_85:\n    /* \"#utility.yul\":2978:3409   */\n  pop\n  pop\n    /* \"#utility.yul\":2963:3409   */\ntag_81:\n    /* \"#utility.yul\":2873:3416   */\n  pop\n  pop\n  pop\n  jump\t// out\n    /* \"#utility.yul\":3422:3539   */\ntag_42:\n    /* \"#utility.yul\":3476:3484   */\n  0x00\n    /* \"#utility.yul\":3526:3531   */\n  dup3\n    /* \"#utility.yul\":3520:3524   */\n  dup3\n    /* \"#utility.yul\":3516:3532   */\n  shr\n    /* \"#utility.yul\":3495:3532   */\n  swap1\n  pop\n    /* \"#utility.yul\":3422:3539   */\n  swap3\n  swap2\n  pop\n  pop\n  jump\t// out\n    /* \"#utility.yul\":3545:3714   */\ntag_43:\n    /* \"#utility.yul\":3589:3595   */\n  0x00\n    /* \"#utility.yul\":3622:3673   */\n  tag_89\n    /* \"#utility.yul\":3670:3671   */\n  0x00\n    /* \"#utility.yul\":3666:3672   */\n  not\n    /* \"#utility.yul\":3658:3663   */\n  dup5\n    /* \"#utility.yul\":3655:3656   */\n  0x08\n    /* \"#utility.yul\":3651:3664   */\n  mul\n    /* \"#utility.yul\":3622:3673   */\n  tag_42\n  jump\t// in\ntag_89:\n    /* \"#utility.yul\":3618:3674   */\n  not\n    /* \"#utility.yul\":3703:3707   */\n  dup1\n    /* \"#utility.yul\":3697:3701   */\n  dup4\n    /* \"#utility.yul\":3693:3708   */\n  and\n    /* \"#utility.yul\":3683:3708   */\n  swap2\n  pop\n    /* \"#utility.yul\":3596:3714   */\n  pop\n    /* \"#utility.yul\":3545:3714   */\n  swap3\n  swap2\n  pop\n  pop\n  jump\t// out\n    /* \"#utility.yul\":3719:4014   */\ntag_44:\n    /* \"#utility.yul\":3795:3799   */\n  0x00\n    /* \"#utility.yul\":3941:3970   */\n  tag_91\n    /* \"#utility.yul\":3966:3969   */\n  dup4\n    /* \"#utility.yul\":3960:3964   */\n  dup4\n    /* \"#utility.yul\":3941:3970   */\n  tag_43\n  jump\t// in\ntag_91:\n    /* \"#utility.yul\":3933:3970   */\n  swap2\n  pop\n    /* \"#utility.yul\":4003:4006   */\n  dup3\n    /* \"#utility.yul\":4000:4001   */\n  0x02\n    /* \"#utility.yul\":3996:4007   */\n  mul\n    /* \"#utility.yul\":3990:3994   */\n  dup3\n    /* \"#utility.yul\":3987:4008   */\n  or\n    /* \"#utility.yul\":3979:4008   */\n  swap1\n  pop\n    /* \"#utility.yul\":3719:4014   */\n  swap3\n  swap2\n  pop\n  pop\n  jump\t// out\n    /* \"#utility.yul\":4019:5414   */\ntag_11:\n    /* \"#utility.yul\":4136:4173   */\n  tag_93\n    /* \"#utility.yul\":4169:4172   */\n  dup3\n    /* \"#utility.yul\":4136:4173   */\n  tag_25\n  jump\t// in\ntag_93:\n    /* \"#utility.yul\":4238:4256   */\n  0xffffffffffffffff\n    /* \"#utility.yul\":4230:4236   */\n  dup2\n    /* \"#utility.yul\":4227:4257   */\n  gt\n    /* \"#utility.yul\":4224:4280   */\n  iszero\n  tag_94\n  jumpi\n    /* \"#utility.yul\":4260:4278   */\n  tag_95\n  tag_26\n  jump\t// in\ntag_95:\n    /* \"#utility.yul\":4224:4280   */\ntag_94:\n    /* \"#utility.yul\":4304:4342   */\n  tag_96\n    /* \"#utility.yul\":4336:4340   */\n  dup3\n    /* \"#utility.yul\":4330:4341   */\n  sload\n    /* \"#utility.yul\":4304:4342   */\n  tag_28\n  jump\t// in\ntag_96:\n    /* \"#utility.yul\":4389:4456   */\n  tag_97\n    /* \"#utility.yul\":4449:4455   */\n  dup3\n    /* \"#utility.yul\":4441:4447   */\n  dup3\n    /* \"#utility.yul\":4435:4439   */\n  dup6\n    /* \"#utility.yul\":4389:4456   */\n  tag_41\n  jump\t// in\ntag_97:\n    /* \"#utility.yul\":4483:4484   */\n  0x00\n    /* \"#utility.yul\":4507:4511   */\n  0x20\n    /* \"#utility.yul\":4494:4511   */\n  swap1\n  pop\n    /* \"#utility.yul\":4539:4541   */\n  0x1f\n    /* \"#utility.yul\":4531:4537   */\n  dup4\n    /* \"#utility.yul\":4528:4542   */\n  gt\n    /* \"#utility.yul\":4556:4557   */\n  0x01\n    /* \"#utility.yul\":4551:5169   */\n  dup2\n  eq\n  tag_99\n  jumpi\n    /* \"#utility.yul\":5213:5214   */\n  0x00\n    /* \"#utility.yul\":5230:5236   */\n  dup5\n    /* \"#utility.yul\":5227:5304   */\n  iszero\n  tag_100\n  jumpi\n    /* \"#utility.yul\":5279:5288   */\n  dup3\n    /* \"#utility.yul\":5274:5277   */\n  dup8\n    /* \"#utility.yul\":5270:5289   */\n  add\n    /* \"#utility.yul\":5264:5290   */\n  mload\n    /* \"#utility.yul\":5255:5290   */\n  swap1\n  pop\n    /* \"#utility.yul\":5227:5304   */\ntag_100:\n    /* \"#utility.yul\":5330:5397   */\n  tag_101\n    /* \"#utility.yul\":5390:5396   */\n  dup6\n    /* \"#utility.yul\":5383:5388   */\n  dup3\n    /* \"#utility.yul\":5330:5397   */\n  tag_44\n  jump\t// in\ntag_101:\n    /* \"#utility.yul\":5324:5328   */\n  dup7\n    /* \"#utility.yul\":5317:5398   */\n  sstore\n    /* \"#utility.yul\":5186:5408   */\n  pop\n    /* \"#utility.yul\":4521:5408   */\n  jump(tag_98)\n    /* \"#utility.yul\":4551:5169   */\ntag_99:\n    /* \"#utility.yul\":4603:4607   */\n  0x1f\n    /* \"#utility.yul\":4599:4608   */\n  not\n    /* \"#utility.yul\":4591:4597   */\n  dup5\n    /* \"#utility.yul\":4587:4609   */\n  and\n    /* \"#utility.yul\":4637:4674   */\n  tag_102\n    /* \"#utility.yul\":4669:4673   */\n  dup7\n    /* \"#utility.yul\":4637:4674   */\n  tag_29\n  jump\t// in\ntag_102:\n    /* \"#utility.yul\":4696:4697   */\n  0x00\n    /* \"#utility.yul\":4710:4918   */\ntag_103:\n    /* \"#utility.yul\":4724:4731   */\n  dup3\n    /* \"#utility.yul\":4721:4722   */\n  dup2\n    /* \"#utility.yul\":4718:4732   */\n  lt\n    /* \"#utility.yul\":4710:4918   */\n  iszero\n  tag_105\n  jumpi\n    /* \"#utility.yul\":4803:4812   */\n  dup5\n    /* \"#utility.yul\":4798:4801   */\n  dup10\n    /* \"#utility.yul\":4794:4813   */\n  add\n    /* \"#utility.yul\":4788:4814   */\n  mload\n    /* \"#utility.yul\":4780:4786   */\n  dup3\n    /* \"#utility.yul\":4773:4815   */\n  sstore\n    /* \"#utility.yul\":4854:4855   */\n  0x01\n    /* \"#utility.yul\":4846:4852   */\n  dup3\n    /* \"#utility.yul\":4842:4856   */\n  add\n    /* \"#utility.yul\":4832:4856   */\n  swap2\n  pop\n    /* \"#utility.yul\":4901:4903   */\n  0x20\n    /* \"#utility.yul\":4890:4899   */\n  dup6\n    /* \"#utility.yul\":4886:4904   */\n  add\n    /* \"#utility.yul\":4873:4904   */\n  swap5\n  pop\n    /* \"#utility.yul\":4747:4751   */\n  0x20\n    /* \"#utility.yul\":4744:4745   */\n  dup2\n    /* \"#utility.yul\":4740:4752   */\n  add\n    /* \"#utility.yul\":4735:4752   */\n  swap1\n  pop\n    /* \"#utility.yul\":4710:4918   */\n  jump(tag_103)\ntag_105:\n    /* \"#utility.yul\":4946:4952   */\n  dup7\n    /* \"#utility.yul\":4937:4944   */\n  dup4\n    /* \"#utility.yul\":4934:4953   */\n  lt\n    /* \"#utility.yul\":4931:5110   */\n  iszero\n  tag_106\n  jumpi\n    /* \"#utility.yul\":5004:5013   */\n  dup5\n    /* \"#utility.yul\":4999:5002   */\n  dup10\n    /* \"#utility.yul\":4995:5014   */\n  add\n    /* \"#utility.yul\":4989:5015   */\n  mload\n    /* \"#utility.yul\":5047:5095   */\n  tag_107\n    /* \"#utility.yul\":5089:5093   */\n  0x1f\n    /* \"#utility.yul\":5081:5087   */\n  dup10\n    /* \"#utility.yul\":5077:5094   */\n  and\n    /* \"#utility.yul\":5066:5075   */\n  dup3\n    /* \"#utility.yul\":5047:5095   */\n  tag_43\n  jump\t// in\ntag_107:\n    /* \"#utility.yul\":5039:5045   */\n  dup4\n    /* \"#utility.yul\":5032:5096   */\n  sstore\n    /* \"#utility.yul\":4954:5110   */\n  pop\n    /* \"#utility.yul\":4931:5110   */\ntag_106:\n    /* \"#utility.yul\":5156:5157   */\n  0x01\n    /* \"#utility.yul\":5152:5153   */\n  0x02\n    /* \"#utility.yul\":5144:5150   */\n  dup9\n    /* \"#utility.yul\":5140:5154   */\n  mul\n    /* \"#utility.yul\":5136:5158   */\n  add\n    /* \"#utility.yul\":5130:5134   */\n  dup9\n    /* \"#utility.yul\":5123:5159   */\n  sstore\n    /* \"#utility.yul\":4558:5169   */\n  pop\n  pop\n  pop\n    /* \"#utility.yul\":4521:5408   */\ntag_98:\n  pop\n    /* \"#utility.yul\":4111:5414   */\n  pop\n  pop\n  pop\n    /* \"#utility.yul\":4019:5414   */\n  pop\n  pop\n  jump\t// out\n    /* \"DurianContract.sol\":57:5968  contract DurianContract {... */\ntag_24:\n  dataSize(sub_0)\n  dup1\n  dataOffset(sub_0)\n  0x00\n  codecopy\n  0x00\n  return\nstop\n\nsub_0: assembly {\n        /* \"DurianContract.sol\":57:5968  contract DurianContract {... */\n      mstore(0x40, 0x80)\n      callvalue\n      dup1\n      iszero\n      tag_1\n      jumpi\n      0x00\n      dup1\n      revert\n    tag_1:\n      pop\n      jumpi(tag_2, lt(calldatasize, 0x04))\n      shr(0xe0, calldataload(0x00))\n      dup1\n      0x5a375258\n      gt\n      tag_16\n      jumpi\n      dup1\n      0xd273e1c3\n      gt\n      tag_17\n      jumpi\n      dup1\n      0xd273e1c3\n      eq\n      tag_12\n      jumpi\n      dup1\n      0xd66d2a57\n      eq\n      tag_13\n      jumpi\n      dup1\n      0xe8287d1a\n      eq\n      tag_14\n      jumpi\n      dup1\n      0xea3e7373\n      eq\n      tag_15\n      jumpi\n      jump(tag_2)\n    tag_17:\n      dup1\n      0x5a375258\n      eq\n      tag_9\n      jumpi\n      dup1\n      0x7fa9571f\n      eq\n      tag_10\n      jumpi\n      dup1\n      0xcd3d46fc\n      eq\n      tag_11\n      jumpi\n      jump(tag_2)\n    tag_16:\n      dup1\n      0x0fd60125\n      eq\n      tag_3\n      jumpi\n      dup1\n      0x1dd51307\n      eq\n      tag_4\n      jumpi\n      dup1\n      0x2966b29b\n      eq\n      tag_5\n      jumpi\n      dup1\n      0x45b2bd2f\n      eq\n      tag_6\n      jumpi\n      dup1\n      0x45c68090\n      eq\n      tag_7\n      jumpi\n      dup1\n      0x498d4707\n      eq\n      tag_8\n      jumpi\n    tag_2:\n      0x00\n      dup1\n      revert\n        /* \"DurianContract.sol\":117:143  uint256 public durianCount */\n    tag_3:\n      tag_18\n      tag_19\n      jump\t// in\n    tag_18:\n      mload(0x40)\n      tag_20\n      swap2\n      swap1\n      tag_21\n      jump\t// in\n    tag_20:\n      mload(0x40)\n      dup1\n      swap2\n      sub\n      swap1\n      return\n        /* \"DurianContract.sol\":1635:1676  mapping (string => Durian) public durians */\n    tag_4:\n      tag_22\n      0x04\n      dup1\n      calldatasize\n      sub\n      dup2\n      add\n      swap1\n      tag_23\n      swap2\n      swap1\n      tag_24\n      jump\t// in\n    tag_23:\n      tag_25\n      jump\t// in\n    tag_22:\n      mload(0x40)\n      tag_26\n      swap13\n      swap12\n      swap11\n      swap10\n      swap9\n      swap8\n      swap7\n      swap6\n      swap5\n      swap4\n      swap3\n      swap2\n      swap1\n      tag_27\n      jump\t// in\n    tag_26:\n      mload(0x40)\n      dup1\n      swap2\n      sub\n      swap1\n      return\n        /* \"DurianContract.sol\":87:111  address public ownerFarm */\n    tag_5:\n      tag_28\n      tag_29\n      jump\t// in\n    tag_28:\n      mload(0x40)\n      tag_30\n      swap2\n      swap1\n      tag_31\n      jump\t// in\n    tag_30:\n      mload(0x40)\n      dup1\n      swap2\n      sub\n      swap1\n      return\n        /* \"DurianContract.sol\":2728:3159  function addStaff(... */\n    tag_6:\n      tag_32\n      0x04\n      dup1\n      calldatasize\n      sub\n      dup2\n      add\n      swap1\n      tag_33\n      swap2\n      swap1\n      tag_34\n      jump\t// in\n    tag_33:\n      tag_35\n      jump\t// in\n    tag_32:\n      stop\n        /* \"DurianContract.sol\":5038:5554  function review(... */\n    tag_7:\n      tag_36\n      0x04\n      dup1\n      calldatasize\n      sub\n      dup2\n      add\n      swap1\n      tag_37\n      swap2\n      swap1\n      tag_38\n      jump\t// in\n    tag_37:\n      tag_39\n      jump\t// in\n    tag_36:\n      stop\n        /* \"DurianContract.sol\":1214:1235  Staff[] public staffs */\n    tag_8:\n      tag_40\n      0x04\n      dup1\n      calldatasize\n      sub\n      dup2\n      add\n      swap1\n      tag_41\n      swap2\n      swap1\n      tag_42\n      jump\t// in\n    tag_41:\n      tag_43\n      jump\t// in\n    tag_40:\n      mload(0x40)\n      tag_44\n      swap5\n      swap4\n      swap3\n      swap2\n      swap1\n      tag_45\n      jump\t// in\n    tag_44:\n      mload(0x40)\n      dup1\n      swap2\n      sub\n      swap1\n      return\n        /* \"DurianContract.sol\":5739:5853  function getDurianById(string memory id) public view returns (uint256) {... */\n    tag_9:\n      tag_46\n      0x04\n      dup1\n      calldatasize\n      sub\n      dup2\n      add\n      swap1\n      tag_47\n      swap2\n      swap1\n      tag_24\n      jump\t// in\n    tag_47:\n      tag_48\n      jump\t// in\n    tag_46:\n      mload(0x40)\n      tag_49\n      swap2\n      swap1\n      tag_21\n      jump\t// in\n    tag_49:\n      mload(0x40)\n      dup1\n      swap2\n      sub\n      swap1\n      return\n        /* \"DurianContract.sol\":5619:5711  function getTotalDurians() public view returns (uint256) {... */\n    tag_10:\n      tag_50\n      tag_51\n      jump\t// in\n    tag_50:\n      mload(0x40)\n      tag_52\n      swap2\n      swap1\n      tag_21\n      jump\t// in\n    tag_52:\n      mload(0x40)\n      dup1\n      swap2\n      sub\n      swap1\n      return\n        /* \"DurianContract.sol\":4274:4638  function receiveDurians(... */\n    tag_11:\n      tag_53\n      0x04\n      dup1\n      calldatasize\n      sub\n      dup2\n      add\n      swap1\n      tag_54\n      swap2\n      swap1\n      tag_55\n      jump\t// in\n    tag_54:\n      tag_56\n      jump\t// in\n    tag_53:\n      mload(0x40)\n      tag_57\n      swap2\n      swap1\n      tag_58\n      jump\t// in\n    tag_57:\n      mload(0x40)\n      dup1\n      swap2\n      sub\n      swap1\n      return\n        /* \"DurianContract.sol\":3227:3799  function addDurian(... */\n    tag_12:\n      tag_59\n      0x04\n      dup1\n      calldatasize\n      sub\n      dup2\n      add\n      swap1\n      tag_60\n      swap2\n      swap1\n      tag_61\n      jump\t// in\n    tag_60:\n      tag_62\n      jump\t// in\n    tag_59:\n      stop\n        /* \"DurianContract.sol\":5879:5966  function getOwnerAdd() external view returns (address){... */\n    tag_13:\n      tag_63\n      tag_64\n      jump\t// in\n    tag_63:\n      mload(0x40)\n      tag_65\n      swap2\n      swap1\n      tag_31\n      jump\t// in\n    tag_65:\n      mload(0x40)\n      dup1\n      swap2\n      sub\n      swap1\n      return\n        /* \"DurianContract.sol\":4696:5005  function soldDurians (... */\n    tag_14:\n      tag_66\n      0x04\n      dup1\n      calldatasize\n      sub\n      dup2\n      add\n      swap1\n      tag_67\n      swap2\n      swap1\n      tag_68\n      jump\t// in\n    tag_67:\n      tag_69\n      jump\t// in\n    tag_66:\n      mload(0x40)\n      tag_70\n      swap2\n      swap1\n      tag_71\n      jump\t// in\n    tag_70:\n      mload(0x40)\n      dup1\n      swap2\n      sub\n      swap1\n      return\n        /* \"DurianContract.sol\":3851:4229  function deliverDurian(... */\n    tag_15:\n      tag_72\n      0x04\n      dup1\n      calldatasize\n      sub\n      dup2\n      add\n      swap1\n      tag_73\n      swap2\n      swap1\n      tag_55\n      jump\t// in\n    tag_73:\n      tag_74\n      jump\t// in\n    tag_72:\n      mload(0x40)\n      tag_75\n      swap2\n      swap1\n      tag_58\n      jump\t// in\n    tag_75:\n      mload(0x40)\n      dup1\n      swap2\n      sub\n      swap1\n      return\n        /* \"DurianContract.sol\":117:143  uint256 public durianCount */\n    tag_19:\n      sload(0x01)\n      dup2\n      jump\t// out\n        /* \"DurianContract.sol\":1635:1676  mapping (string => Durian) public durians */\n    tag_25:\n      0x03\n      dup2\n      dup1\n      mload\n      0x20\n      dup2\n      add\n      dup3\n      add\n      dup1\n      mload\n      dup5\n      dup3\n      mstore\n      0x20\n      dup4\n      add\n      0x20\n      dup6\n      add\n      keccak256\n      dup2\n      dup4\n      mstore\n      dup1\n      swap6\n      pop\n      pop\n      pop\n      pop\n      pop\n      pop\n      0x00\n      swap2\n      pop\n      swap1\n      pop\n      dup1\n      0x00\n      add\n      dup1\n      sload\n      tag_76\n      swap1\n      tag_77\n      jump\t// in\n    tag_76:\n      dup1\n      0x1f\n      add\n      0x20\n      dup1\n      swap2\n      div\n      mul\n      0x20\n      add\n      mload(0x40)\n      swap1\n      dup2\n      add\n      0x40\n      mstore\n      dup1\n      swap3\n      swap2\n      swap1\n      dup2\n      dup2\n      mstore\n      0x20\n      add\n      dup3\n      dup1\n      sload\n      tag_78\n      swap1\n      tag_77\n      jump\t// in\n    tag_78:\n      dup1\n      iszero\n      tag_79\n      jumpi\n      dup1\n      0x1f\n      lt\n      tag_80\n      jumpi\n      0x0100\n      dup1\n      dup4\n      sload\n      div\n      mul\n      dup4\n      mstore\n      swap2\n      0x20\n      add\n      swap2\n      jump(tag_79)\n    tag_80:\n      dup3\n      add\n      swap2\n      swap1\n      0x00\n      mstore\n      keccak256(0x00, 0x20)\n      swap1\n    tag_81:\n      dup2\n      sload\n      dup2\n      mstore\n      swap1\n      0x01\n      add\n      swap1\n      0x20\n      add\n      dup1\n      dup4\n      gt\n      tag_81\n      jumpi\n      dup3\n      swap1\n      sub\n      0x1f\n      and\n      dup3\n      add\n      swap2\n    tag_79:\n      pop\n      pop\n      pop\n      pop\n      pop\n      swap1\n      dup1\n      0x01\n      add\n      sload\n      swap1\n      dup1\n      0x02\n      add\n      sload\n      swap1\n      dup1\n      0x03\n      add\n      sload\n      swap1\n      dup1\n      0x04\n      add\n      0x00\n      swap1\n      sload\n      swap1\n      0x0100\n      exp\n      swap1\n      div\n      0xffffffffffffffffffffffffffffffffffffffff\n      and\n      swap1\n      dup1\n      0x05\n      add\n      sload\n      swap1\n      dup1\n      0x06\n      add\n      sload\n      swap1\n      dup1\n      0x07\n      add\n      0x00\n      swap1\n      sload\n      swap1\n      0x0100\n      exp\n      swap1\n      div\n      0xffffffffffffffffffffffffffffffffffffffff\n      and\n      swap1\n      dup1\n      0x08\n      add\n      mload(0x40)\n      dup1\n      0xc0\n      add\n      0x40\n      mstore\n      swap1\n      dup2\n      0x00\n      dup3\n      add\n      dup1\n      sload\n      tag_82\n      swap1\n      tag_77\n      jump\t// in\n    tag_82:\n      dup1\n      0x1f\n      add\n      0x20\n      dup1\n      swap2\n      div\n      mul\n      0x20\n      add\n      mload(0x40)\n      swap1\n      dup2\n      add\n      0x40\n      mstore\n      dup1\n      swap3\n      swap2\n      swap1\n      dup2\n      dup2\n      mstore\n      0x20\n      add\n      dup3\n      dup1\n      sload\n      tag_83\n      swap1\n      tag_77\n      jump\t// in\n    tag_83:\n      dup1\n      iszero\n      tag_84\n      jumpi\n      dup1\n      0x1f\n      lt\n      tag_85\n      jumpi\n      0x0100\n      dup1\n      dup4\n      sload\n      div\n      mul\n      dup4\n      mstore\n      swap2\n      0x20\n      add\n      swap2\n      jump(tag_84)\n    tag_85:\n      dup3\n      add\n      swap2\n      swap1\n      0x00\n      mstore\n      keccak256(0x00, 0x20)\n      swap1\n    tag_86:\n      dup2\n      sload\n      dup2\n      mstore\n      swap1\n      0x01\n      add\n      swap1\n      0x20\n      add\n      dup1\n      dup4\n      gt\n      tag_86\n      jumpi\n      dup3\n      swap1\n      sub\n      0x1f\n      and\n      dup3\n      add\n      swap2\n    tag_84:\n      pop\n      pop\n      pop\n      pop\n      pop\n      dup2\n      mstore\n      0x20\n      add\n      0x01\n      dup3\n      add\n      dup1\n      sload\n      tag_87\n      swap1\n      tag_77\n      jump\t// in\n    tag_87:\n      dup1\n      0x1f\n      add\n      0x20\n      dup1\n      swap2\n      div\n      mul\n      0x20\n      add\n      mload(0x40)\n      swap1\n      dup2\n      add\n      0x40\n      mstore\n      dup1\n      swap3\n      swap2\n      swap1\n      dup2\n      dup2\n      mstore\n      0x20\n      add\n      dup3\n      dup1\n      sload\n      tag_88\n      swap1\n      tag_77\n      jump\t// in\n    tag_88:\n      dup1\n      iszero\n      tag_89\n      jumpi\n      dup1\n      0x1f\n      lt\n      tag_90\n      jumpi\n      0x0100\n      dup1\n      dup4\n      sload\n      div\n      mul\n      dup4\n      mstore\n      swap2\n      0x20\n      add\n      swap2\n      jump(tag_89)\n    tag_90:\n      dup3\n      add\n      swap2\n      swap1\n      0x00\n      mstore\n      keccak256(0x00, 0x20)\n      swap1\n    tag_91:\n      dup2\n      sload\n      dup2\n      mstore\n      swap1\n      0x01\n      add\n      swap1\n      0x20\n      add\n      dup1\n      dup4\n      gt\n      tag_91\n      jumpi\n      dup3\n      swap1\n      sub\n      0x1f\n      and\n      dup3\n      add\n      swap2\n    tag_89:\n      pop\n      pop\n      pop\n      pop\n      pop\n      dup2\n      mstore\n      0x20\n      add\n      0x02\n      dup3\n      add\n      0x00\n      swap1\n      sload\n      swap1\n      0x0100\n      exp\n      swap1\n      div\n      0xff\n      and\n      0x04\n      dup2\n      gt\n      iszero\n      tag_92\n      jumpi\n      tag_93\n      tag_94\n      jump\t// in\n    tag_93:\n    tag_92:\n      0x04\n      dup2\n      gt\n      iszero\n      tag_95\n      jumpi\n      tag_96\n      tag_94\n      jump\t// in\n    tag_96:\n    tag_95:\n      dup2\n      mstore\n      0x20\n      add\n      0x02\n      dup3\n      add\n      0x01\n      swap1\n      sload\n      swap1\n      0x0100\n      exp\n      swap1\n      div\n      0xff\n      and\n      0x04\n      dup2\n      gt\n      iszero\n      tag_97\n      jumpi\n      tag_98\n      tag_94\n      jump\t// in\n    tag_98:\n    tag_97:\n      0x04\n      dup2\n      gt\n      iszero\n      tag_99\n      jumpi\n      tag_100\n      tag_94\n      jump\t// in\n    tag_100:\n    tag_99:\n      dup2\n      mstore\n      0x20\n      add\n      0x02\n      dup3\n      add\n      0x02\n      swap1\n      sload\n      swap1\n      0x0100\n      exp\n      swap1\n      div\n      0xff\n      and\n      0x04\n      dup2\n      gt\n      iszero\n      tag_101\n      jumpi\n      tag_102\n      tag_94\n      jump\t// in\n    tag_102:\n    tag_101:\n      0x04\n      dup2\n      gt\n      iszero\n      tag_103\n      jumpi\n      tag_104\n      tag_94\n      jump\t// in\n    tag_104:\n    tag_103:\n      dup2\n      mstore\n      0x20\n      add\n      0x02\n      dup3\n      add\n      0x03\n      swap1\n      sload\n      swap1\n      0x0100\n      exp\n      swap1\n      div\n      0xff\n      and\n      0x04\n      dup2\n      gt\n      iszero\n      tag_105\n      jumpi\n      tag_106\n      tag_94\n      jump\t// in\n    tag_106:\n    tag_105:\n      0x04\n      dup2\n      gt\n      iszero\n      tag_107\n      jumpi\n      tag_108\n      tag_94\n      jump\t// in\n    tag_108:\n    tag_107:\n      dup2\n      mstore\n      pop\n      pop\n      swap1\n      dup1\n      0x0b\n      add\n      dup1\n      sload\n      tag_109\n      swap1\n      tag_77\n      jump\t// in\n    tag_109:\n      dup1\n      0x1f\n      add\n      0x20\n      dup1\n      swap2\n      div\n      mul\n      0x20\n      add\n      mload(0x40)\n      swap1\n      dup2\n      add\n      0x40\n      mstore\n      dup1\n      swap3\n      swap2\n      swap1\n      dup2\n      dup2\n      mstore\n      0x20\n      add\n      dup3\n      dup1\n      sload\n      tag_110\n      swap1\n      tag_77\n      jump\t// in\n    tag_110:\n      dup1\n      iszero\n      tag_111\n      jumpi\n      dup1\n      0x1f\n      lt\n      tag_112\n      jumpi\n      0x0100\n      dup1\n      dup4\n      sload\n      div\n      mul\n      dup4\n      mstore\n      swap2\n      0x20\n      add\n      swap2\n      jump(tag_111)\n    tag_112:\n      dup3\n      add\n      swap2\n      swap1\n      0x00\n      mstore\n      keccak256(0x00, 0x20)\n      swap1\n    tag_113:\n      dup2\n      sload\n      dup2\n      mstore\n      swap1\n      0x01\n      add\n      swap1\n      0x20\n      add\n      dup1\n      dup4\n      gt\n      tag_113\n      jumpi\n      dup3\n      swap1\n      sub\n      0x1f\n      and\n      dup3\n      add\n      swap2\n    tag_111:\n      pop\n      pop\n      pop\n      pop\n      pop\n      swap1\n      dup1\n      0x0c\n      add\n      0x00\n      swap1\n      sload\n      swap1\n      0x0100\n      exp\n      swap1\n      div\n      0xff\n      and\n      swap1\n      dup1\n      0x0d\n      add\n      dup1\n      sload\n      tag_114\n      swap1\n      tag_77\n      jump\t// in\n    tag_114:\n      dup1\n      0x1f\n      add\n      0x20\n      dup1\n      swap2\n      div\n      mul\n      0x20\n      add\n      mload(0x40)\n      swap1\n      dup2\n      add\n      0x40\n      mstore\n      dup1\n      swap3\n      swap2\n      swap1\n      dup2\n      dup2\n      mstore\n      0x20\n      add\n      dup3\n      dup1\n      sload\n      tag_115\n      swap1\n      tag_77\n      jump\t// in\n    tag_115:\n      dup1\n      iszero\n      tag_116\n      jumpi\n      dup1\n      0x1f\n      lt\n      tag_117\n      jumpi\n      0x0100\n      dup1\n      dup4\n      sload\n      div\n      mul\n      dup4\n      mstore\n      swap2\n      0x20\n      add\n      swap2\n      jump(tag_116)\n    tag_117:\n      dup3\n      add\n      swap2\n      swap1\n      0x00\n      mstore\n      keccak256(0x00, 0x20)\n      swap1\n    tag_118:\n      dup2\n      sload\n      dup2\n      mstore\n      swap1\n      0x01\n      add\n      swap1\n      0x20\n      add\n      dup1\n      dup4\n      gt\n      tag_118\n      jumpi\n      dup3\n      swap1\n      sub\n      0x1f\n      and\n      dup3\n      add\n      swap2\n    tag_116:\n      pop\n      pop\n      pop\n      pop\n      pop\n      swap1\n      pop\n      dup13\n      jump\t// out\n        /* \"DurianContract.sol\":87:111  address public ownerFarm */\n    tag_29:\n      0x00\n      dup1\n      sload\n      swap1\n      0x0100\n      exp\n      swap1\n      div\n      0xffffffffffffffffffffffffffffffffffffffff\n      and\n      dup2\n      jump\t// out\n        /* \"DurianContract.sol\":2728:3159  function addStaff(... */\n    tag_35:\n        /* \"DurianContract.sol\":2882:2891  ownerFarm */\n      0x00\n      dup1\n      sload\n      swap1\n      0x0100\n      exp\n      swap1\n      div\n      0xffffffffffffffffffffffffffffffffffffffff\n      and\n        /* \"DurianContract.sol\":265:273  _account */\n      dup1\n        /* \"DurianContract.sol\":251:273  msg.sender == _account */\n      0xffffffffffffffffffffffffffffffffffffffff\n      and\n        /* \"DurianContract.sol\":251:261  msg.sender */\n      caller\n        /* \"DurianContract.sol\":251:273  msg.sender == _account */\n      0xffffffffffffffffffffffffffffffffffffffff\n      and\n      eq\n        /* \"DurianContract.sol\":243:274  require(msg.sender == _account) */\n      tag_120\n      jumpi\n      0x00\n      dup1\n      revert\n    tag_120:\n        /* \"DurianContract.sol\":2908:2917  uint256 i */\n      0x00\n        /* \"DurianContract.sol\":2920:2929  newstaffs */\n      dup6\n        /* \"DurianContract.sol\":2920:2936  newstaffs.length */\n      mload\n        /* \"DurianContract.sol\":2908:2936  uint256 i = newstaffs.length */\n      swap1\n      pop\n        /* \"DurianContract.sol\":2903:3153  for (uint256 i = newstaffs.length; i == 0; i--) {... */\n    tag_122:\n        /* \"DurianContract.sol\":2943:2944  0 */\n      0x00\n        /* \"DurianContract.sol\":2938:2939  i */\n      dup2\n        /* \"DurianContract.sol\":2938:2944  i == 0 */\n      sub\n        /* \"DurianContract.sol\":2903:3153  for (uint256 i = newstaffs.length; i == 0; i--) {... */\n      tag_123\n      jumpi\n        /* \"DurianContract.sol\":2965:2971  staffs */\n      0x02\n        /* \"DurianContract.sol\":2994:3128  Staff(... */\n      mload(0x40)\n      dup1\n      0x80\n      add\n      0x40\n      mstore\n      dup1\n        /* \"DurianContract.sol\":3021:3030  newstaffs */\n      dup9\n        /* \"DurianContract.sol\":3031:3032  i */\n      dup5\n        /* \"DurianContract.sol\":3021:3033  newstaffs[i] */\n      dup2\n      mload\n      dup2\n      lt\n      tag_125\n      jumpi\n      tag_126\n      tag_127\n      jump\t// in\n    tag_126:\n    tag_125:\n      0x20\n      mul\n      0x20\n      add\n      add\n      mload\n        /* \"DurianContract.sol\":2994:3128  Staff(... */\n      0xffffffffffffffffffffffffffffffffffffffff\n      and\n      dup2\n      mstore\n      0x20\n      add\n        /* \"DurianContract.sol\":3055:3057  id */\n      dup8\n        /* \"DurianContract.sol\":2994:3128  Staff(... */\n      dup2\n      mstore\n      0x20\n      add\n        /* \"DurianContract.sol\":3079:3083  name */\n      dup7\n        /* \"DurianContract.sol\":2994:3128  Staff(... */\n      dup2\n      mstore\n      0x20\n      add\n        /* \"DurianContract.sol\":3105:3110  title */\n      dup6\n        /* \"DurianContract.sol\":2994:3128  Staff(... */\n      dup2\n      mstore\n      pop\n        /* \"DurianContract.sol\":2965:3142  staffs.push(... */\n      swap1\n      dup1\n      0x01\n      dup2\n      sload\n      add\n      dup1\n      dup3\n      sstore\n      dup1\n      swap2\n      pop\n      pop\n      0x01\n      swap1\n      sub\n      swap1\n      0x00\n      mstore\n      keccak256(0x00, 0x20)\n      swap1\n      0x04\n      mul\n      add\n      0x00\n      swap1\n      swap2\n      swap1\n      swap2\n      swap1\n      swap2\n      pop\n      0x00\n      dup3\n      add\n      mload\n      dup2\n      0x00\n      add\n      exp(0x0100, 0x00)\n      dup2\n      sload\n      dup2\n      0xffffffffffffffffffffffffffffffffffffffff\n      mul\n      not\n      and\n      swap1\n      dup4\n      0xffffffffffffffffffffffffffffffffffffffff\n      and\n      mul\n      or\n      swap1\n      sstore\n      pop\n      0x20\n      dup3\n      add\n      mload\n      dup2\n      0x01\n      add\n      sstore\n      0x40\n      dup3\n      add\n      mload\n      dup2\n      0x02\n      add\n      swap1\n      dup2\n      tag_129\n      swap2\n      swap1\n      tag_130\n      jump\t// in\n    tag_129:\n      pop\n      0x60\n      dup3\n      add\n      mload\n      dup2\n      0x03\n      add\n      swap1\n      dup2\n      tag_131\n      swap2\n      swap1\n      tag_130\n      jump\t// in\n    tag_131:\n      pop\n      pop\n      pop\n        /* \"DurianContract.sol\":2946:2949  i-- */\n      dup1\n      dup1\n      tag_132\n      swap1\n      tag_133\n      jump\t// in\n    tag_132:\n      swap2\n      pop\n      pop\n        /* \"DurianContract.sol\":2903:3153  for (uint256 i = newstaffs.length; i == 0; i--) {... */\n      jump(tag_122)\n    tag_123:\n      pop\n        /* \"DurianContract.sol\":2728:3159  function addStaff(... */\n      pop\n      pop\n      pop\n      pop\n      pop\n      jump\t// out\n        /* \"DurianContract.sol\":5038:5554  function review(... */\n    tag_39:\n        /* \"DurianContract.sol\":5225:5232  durians */\n      0x03\n        /* \"DurianContract.sol\":5233:5235  id */\n      dup5\n        /* \"DurianContract.sol\":5225:5236  durians[id] */\n      mload(0x40)\n      tag_135\n      swap2\n      swap1\n      tag_136\n      jump\t// in\n    tag_135:\n      swap1\n      dup2\n      mstore\n      0x20\n      add\n      mload(0x40)\n      dup1\n      swap2\n      sub\n      swap1\n      keccak256\n        /* \"DurianContract.sol\":5225:5242  durians[id].owner */\n      0x07\n      add\n      0x00\n      swap1\n      sload\n      swap1\n      0x0100\n      exp\n      swap1\n      div\n      0xffffffffffffffffffffffffffffffffffffffff\n      and\n        /* \"DurianContract.sol\":5211:5242  msg.sender == durians[id].owner */\n      0xffffffffffffffffffffffffffffffffffffffff\n      and\n        /* \"DurianContract.sol\":5211:5221  msg.sender */\n      caller\n        /* \"DurianContract.sol\":5211:5242  msg.sender == durians[id].owner */\n      0xffffffffffffffffffffffffffffffffffffffff\n      and\n      sub\n        /* \"DurianContract.sol\":5207:5548  if (msg.sender == durians[id].owner) {... */\n      tag_137\n      jumpi\n        /* \"DurianContract.sol\":5280:5537  Reviews(... */\n      mload(0x40)\n      dup1\n      0xc0\n      add\n      0x40\n      mstore\n      dup1\n        /* \"DurianContract.sol\":5305:5319  personalReview */\n      dup5\n        /* \"DurianContract.sol\":5280:5537  Reviews(... */\n      dup2\n      mstore\n      0x20\n      add\n        /* \"DurianContract.sol\":5338:5343  color */\n      dup4\n        /* \"DurianContract.sol\":5280:5537  Reviews(... */\n      dup2\n      mstore\n      0x20\n      add\n        /* \"DurianContract.sol\":5362:5388  convertRatings(numbers[0]) */\n      tag_138\n        /* \"DurianContract.sol\":5377:5384  numbers */\n      dup4\n        /* \"DurianContract.sol\":5385:5386  0 */\n      0x00\n        /* \"DurianContract.sol\":5377:5387  numbers[0] */\n      0x04\n      dup2\n      lt\n      tag_139\n      jumpi\n      tag_140\n      tag_127\n      jump\t// in\n    tag_140:\n    tag_139:\n      0x20\n      mul\n      add\n      mload\n        /* \"DurianContract.sol\":5362:5376  convertRatings */\n      tag_141\n        /* \"DurianContract.sol\":5362:5388  convertRatings(numbers[0]) */\n      jump\t// in\n    tag_138:\n        /* \"DurianContract.sol\":5280:5537  Reviews(... */\n      0x04\n      dup2\n      gt\n      iszero\n      tag_142\n      jumpi\n      tag_143\n      tag_94\n      jump\t// in\n    tag_143:\n    tag_142:\n      dup2\n      mstore\n      0x20\n      add\n        /* \"DurianContract.sol\":5407:5433  convertRatings(numbers[1]) */\n      tag_144\n        /* \"DurianContract.sol\":5422:5429  numbers */\n      dup4\n        /* \"DurianContract.sol\":5430:5431  1 */\n      0x01\n        /* \"DurianContract.sol\":5422:5432  numbers[1] */\n      0x04\n      dup2\n      lt\n      tag_145\n      jumpi\n      tag_146\n      tag_127\n      jump\t// in\n    tag_146:\n    tag_145:\n      0x20\n      mul\n      add\n      mload\n        /* \"DurianContract.sol\":5407:5421  convertRatings */\n      tag_141\n        /* \"DurianContract.sol\":5407:5433  convertRatings(numbers[1]) */\n      jump\t// in\n    tag_144:\n        /* \"DurianContract.sol\":5280:5537  Reviews(... */\n      0x04\n      dup2\n      gt\n      iszero\n      tag_147\n      jumpi\n      tag_148\n      tag_94\n      jump\t// in\n    tag_148:\n    tag_147:\n      dup2\n      mstore\n      0x20\n      add\n        /* \"DurianContract.sol\":5452:5478  convertRatings(numbers[2]) */\n      tag_149\n        /* \"DurianContract.sol\":5467:5474  numbers */\n      dup4\n        /* \"DurianContract.sol\":5475:5476  2 */\n      0x02\n        /* \"DurianContract.sol\":5467:5477  numbers[2] */\n      0x04\n      dup2\n      lt\n      tag_150\n      jumpi\n      tag_151\n      tag_127\n      jump\t// in\n    tag_151:\n    tag_150:\n      0x20\n      mul\n      add\n      mload\n        /* \"DurianContract.sol\":5452:5466  convertRatings */\n      tag_141\n        /* \"DurianContract.sol\":5452:5478  convertRatings(numbers[2]) */\n      jump\t// in\n    tag_149:\n        /* \"DurianContract.sol\":5280:5537  Reviews(... */\n      0x04\n      dup2\n      gt\n      iszero\n      tag_152\n      jumpi\n      tag_153\n      tag_94\n      jump\t// in\n    tag_153:\n    tag_152:\n      dup2\n      mstore\n      0x20\n      add\n        /* \"DurianContract.sol\":5497:5523  convertRatings(numbers[3]) */\n      tag_154\n        /* \"DurianContract.sol\":5512:5519  numbers */\n      dup4\n        /* \"DurianContract.sol\":5520:5521  3 */\n      0x03\n        /* \"DurianContract.sol\":5512:5522  numbers[3] */\n      0x04\n      dup2\n      lt\n      tag_155\n      jumpi\n      tag_156\n      tag_127\n      jump\t// in\n    tag_156:\n    tag_155:\n      0x20\n      mul\n      add\n      mload\n        /* \"DurianContract.sol\":5497:5511  convertRatings */\n      tag_141\n        /* \"DurianContract.sol\":5497:5523  convertRatings(numbers[3]) */\n      jump\t// in\n    tag_154:\n        /* \"DurianContract.sol\":5280:5537  Reviews(... */\n      0x04\n      dup2\n      gt\n      iszero\n      tag_157\n      jumpi\n      tag_158\n      tag_94\n      jump\t// in\n    tag_158:\n    tag_157:\n      dup2\n      mstore\n      pop\n        /* \"DurianContract.sol\":5258:5265  durians */\n      0x03\n        /* \"DurianContract.sol\":5266:5268  id */\n      dup6\n        /* \"DurianContract.sol\":5258:5269  durians[id] */\n      mload(0x40)\n      tag_159\n      swap2\n      swap1\n      tag_136\n      jump\t// in\n    tag_159:\n      swap1\n      dup2\n      mstore\n      0x20\n      add\n      mload(0x40)\n      dup1\n      swap2\n      sub\n      swap1\n      keccak256\n        /* \"DurianContract.sol\":5258:5277  durians[id].reviews */\n      0x08\n      add\n        /* \"DurianContract.sol\":5258:5537  durians[id].reviews = Reviews(... */\n      0x00\n      dup3\n      add\n      mload\n      dup2\n      0x00\n      add\n      swap1\n      dup2\n      tag_160\n      swap2\n      swap1\n      tag_130\n      jump\t// in\n    tag_160:\n      pop\n      0x20\n      dup3\n      add\n      mload\n      dup2\n      0x01\n      add\n      swap1\n      dup2\n      tag_161\n      swap2\n      swap1\n      tag_130\n      jump\t// in\n    tag_161:\n      pop\n      0x40\n      dup3\n      add\n      mload\n      dup2\n      0x02\n      add\n      exp(0x0100, 0x00)\n      dup2\n      sload\n      dup2\n      0xff\n      mul\n      not\n      and\n      swap1\n      dup4\n      0x04\n      dup2\n      gt\n      iszero\n      tag_162\n      jumpi\n      tag_163\n      tag_94\n      jump\t// in\n    tag_163:\n    tag_162:\n      mul\n      or\n      swap1\n      sstore\n      pop\n      0x60\n      dup3\n      add\n      mload\n      dup2\n      0x02\n      add\n      exp(0x0100, 0x01)\n      dup2\n      sload\n      dup2\n      0xff\n      mul\n      not\n      and\n      swap1\n      dup4\n      0x04\n      dup2\n      gt\n      iszero\n      tag_164\n      jumpi\n      tag_165\n      tag_94\n      jump\t// in\n    tag_165:\n    tag_164:\n      mul\n      or\n      swap1\n      sstore\n      pop\n      0x80\n      dup3\n      add\n      mload\n      dup2\n      0x02\n      add\n      exp(0x0100, 0x02)\n      dup2\n      sload\n      dup2\n      0xff\n      mul\n      not\n      and\n      swap1\n      dup4\n      0x04\n      dup2\n      gt\n      iszero\n      tag_166\n      jumpi\n      tag_167\n      tag_94\n      jump\t// in\n    tag_167:\n    tag_166:\n      mul\n      or\n      swap1\n      sstore\n      pop\n      0xa0\n      dup3\n      add\n      mload\n      dup2\n      0x02\n      add\n      exp(0x0100, 0x03)\n      dup2\n      sload\n      dup2\n      0xff\n      mul\n      not\n      and\n      swap1\n      dup4\n      0x04\n      dup2\n      gt\n      iszero\n      tag_168\n      jumpi\n      tag_169\n      tag_94\n      jump\t// in\n    tag_169:\n    tag_168:\n      mul\n      or\n      swap1\n      sstore\n      pop\n      swap1\n      pop\n      pop\n        /* \"DurianContract.sol\":5207:5548  if (msg.sender == durians[id].owner) {... */\n    tag_137:\n        /* \"DurianContract.sol\":5038:5554  function review(... */\n      pop\n      pop\n      pop\n      pop\n      jump\t// out\n        /* \"DurianContract.sol\":1214:1235  Staff[] public staffs */\n    tag_43:\n      0x02\n      dup2\n      dup2\n      sload\n      dup2\n      lt\n      tag_170\n      jumpi\n      0x00\n      dup1\n      revert\n    tag_170:\n      swap1\n      0x00\n      mstore\n      keccak256(0x00, 0x20)\n      swap1\n      0x04\n      mul\n      add\n      0x00\n      swap2\n      pop\n      swap1\n      pop\n      dup1\n      0x00\n      add\n      0x00\n      swap1\n      sload\n      swap1\n      0x0100\n      exp\n      swap1\n      div\n      0xffffffffffffffffffffffffffffffffffffffff\n      and\n      swap1\n      dup1\n      0x01\n      add\n      sload\n      swap1\n      dup1\n      0x02\n      add\n      dup1\n      sload\n      tag_172\n      swap1\n      tag_77\n      jump\t// in\n    tag_172:\n      dup1\n      0x1f\n      add\n      0x20\n      dup1\n      swap2\n      div\n      mul\n      0x20\n      add\n      mload(0x40)\n      swap1\n      dup2\n      add\n      0x40\n      mstore\n      dup1\n      swap3\n      swap2\n      swap1\n      dup2\n      dup2\n      mstore\n      0x20\n      add\n      dup3\n      dup1\n      sload\n      tag_173\n      swap1\n      tag_77\n      jump\t// in\n    tag_173:\n      dup1\n      iszero\n      tag_174\n      jumpi\n      dup1\n      0x1f\n      lt\n      tag_175\n      jumpi\n      0x0100\n      dup1\n      dup4\n      sload\n      div\n      mul\n      dup4\n      mstore\n      swap2\n      0x20\n      add\n      swap2\n      jump(tag_174)\n    tag_175:\n      dup3\n      add\n      swap2\n      swap1\n      0x00\n      mstore\n      keccak256(0x00, 0x20)\n      swap1\n    tag_176:\n      dup2\n      sload\n      dup2\n      mstore\n      swap1\n      0x01\n      add\n      swap1\n      0x20\n      add\n      dup1\n      dup4\n      gt\n      tag_176\n      jumpi\n      dup3\n      swap1\n      sub\n      0x1f\n      and\n      dup3\n      add\n      swap2\n    tag_174:\n      pop\n      pop\n      pop\n      pop\n      pop\n      swap1\n      dup1\n      0x03\n      add\n      dup1\n      sload\n      tag_177\n      swap1\n      tag_77\n      jump\t// in\n    tag_177:\n      dup1\n      0x1f\n      add\n      0x20\n      dup1\n      swap2\n      div\n      mul\n      0x20\n      add\n      mload(0x40)\n      swap1\n      dup2\n      add\n      0x40\n      mstore\n      dup1\n      swap3\n      swap2\n      swap1\n      dup2\n      dup2\n      mstore\n      0x20\n      add\n      dup3\n      dup1\n      sload\n      tag_178\n      swap1\n      tag_77\n      jump\t// in\n    tag_178:\n      dup1\n      iszero\n      tag_179\n      jumpi\n      dup1\n      0x1f\n      lt\n      tag_180\n      jumpi\n      0x0100\n      dup1\n      dup4\n      sload\n      div\n      mul\n      dup4\n      mstore\n      swap2\n      0x20\n      add\n      swap2\n      jump(tag_179)\n    tag_180:\n      dup3\n      add\n      swap2\n      swap1\n      0x00\n      mstore\n      keccak256(0x00, 0x20)\n      swap1\n    tag_181:\n      dup2\n      sload\n      dup2\n      mstore\n      swap1\n      0x01\n      add\n      swap1\n      0x20\n      add\n      dup1\n      dup4\n      gt\n      tag_181\n      jumpi\n      dup3\n      swap1\n      sub\n      0x1f\n      and\n      dup3\n      add\n      swap2\n    tag_179:\n      pop\n      pop\n      pop\n      pop\n      pop\n      swap1\n      pop\n      dup5\n      jump\t// out\n        /* \"DurianContract.sol\":5739:5853  function getDurianById(string memory id) public view returns (uint256) {... */\n    tag_48:\n        /* \"DurianContract.sol\":5801:5808  uint256 */\n      0x00\n        /* \"DurianContract.sol\":5827:5834  durians */\n      0x03\n        /* \"DurianContract.sol\":5835:5837  id */\n      dup3\n        /* \"DurianContract.sol\":5827:5838  durians[id] */\n      mload(0x40)\n      tag_183\n      swap2\n      swap1\n      tag_136\n      jump\t// in\n    tag_183:\n      swap1\n      dup2\n      mstore\n      0x20\n      add\n      mload(0x40)\n      dup1\n      swap2\n      sub\n      swap1\n      keccak256\n        /* \"DurianContract.sol\":5827:5846  durians[id].species */\n      0x01\n      add\n      sload\n        /* \"DurianContract.sol\":5820:5846  return durians[id].species */\n      swap1\n      pop\n        /* \"DurianContract.sol\":5739:5853  function getDurianById(string memory id) public view returns (uint256) {... */\n      swap2\n      swap1\n      pop\n      jump\t// out\n        /* \"DurianContract.sol\":5619:5711  function getTotalDurians() public view returns (uint256) {... */\n    tag_51:\n        /* \"DurianContract.sol\":5667:5674  uint256 */\n      0x00\n        /* \"DurianContract.sol\":5693:5704  durianCount */\n      sload(0x01)\n        /* \"DurianContract.sol\":5686:5704  return durianCount */\n      swap1\n      pop\n        /* \"DurianContract.sol\":5619:5711  function getTotalDurians() public view returns (uint256) {... */\n      swap1\n      jump\t// out\n        /* \"DurianContract.sol\":4274:4638  function receiveDurians(... */\n    tag_56:\n        /* \"DurianContract.sol\":4425:4429  bool */\n      0x00\n        /* \"DurianContract.sol\":362:384  address addressofStaff */\n      dup1\n        /* \"DurianContract.sol\":399:408  uint256 i */\n      0x00\n        /* \"DurianContract.sol\":411:417  staffs */\n      0x02\n        /* \"DurianContract.sol\":411:424  staffs.length */\n      dup1\n      sload\n      swap1\n      pop\n        /* \"DurianContract.sol\":399:424  uint256 i = staffs.length */\n      swap1\n      pop\n        /* \"DurianContract.sol\":394:724  for (uint256 i = staffs.length; i == 0; i--) {... */\n    tag_186:\n        /* \"DurianContract.sol\":431:432  0 */\n      0x00\n        /* \"DurianContract.sol\":426:427  i */\n      dup2\n        /* \"DurianContract.sol\":426:432  i == 0 */\n      sub\n        /* \"DurianContract.sol\":394:724  for (uint256 i = staffs.length; i == 0; i--) {... */\n      tag_187\n      jumpi\n        /* \"DurianContract.sol\":471:480  ownerFarm */\n      0x00\n      dup1\n      sload\n      swap1\n      0x0100\n      exp\n      swap1\n      div\n      0xffffffffffffffffffffffffffffffffffffffff\n      and\n        /* \"DurianContract.sol\":457:480  msg.sender == ownerFarm */\n      0xffffffffffffffffffffffffffffffffffffffff\n      and\n        /* \"DurianContract.sol\":457:467  msg.sender */\n      caller\n        /* \"DurianContract.sol\":457:480  msg.sender == ownerFarm */\n      0xffffffffffffffffffffffffffffffffffffffff\n      and\n      sub\n        /* \"DurianContract.sol\":453:564  if (msg.sender == ownerFarm) {... */\n      tag_189\n      jumpi\n        /* \"DurianContract.sol\":517:526  ownerFarm */\n      0x00\n      dup1\n      sload\n      swap1\n      0x0100\n      exp\n      swap1\n      div\n      0xffffffffffffffffffffffffffffffffffffffff\n      and\n        /* \"DurianContract.sol\":500:526  addressofStaff = ownerFarm */\n      swap2\n      pop\n        /* \"DurianContract.sol\":544:549  break */\n      jump(tag_187)\n        /* \"DurianContract.sol\":453:564  if (msg.sender == ownerFarm) {... */\n    tag_189:\n        /* \"DurianContract.sol\":607:617  msg.sender */\n      caller\n        /* \"DurianContract.sol\":581:617  staffs[i].staffAddress == msg.sender */\n      0xffffffffffffffffffffffffffffffffffffffff\n      and\n        /* \"DurianContract.sol\":581:587  staffs */\n      0x02\n        /* \"DurianContract.sol\":588:589  i */\n      dup3\n        /* \"DurianContract.sol\":581:590  staffs[i] */\n      dup2\n      sload\n      dup2\n      lt\n      tag_190\n      jumpi\n      tag_191\n      tag_127\n      jump\t// in\n    tag_191:\n    tag_190:\n      swap1\n      0x00\n      mstore\n      keccak256(0x00, 0x20)\n      swap1\n      0x04\n      mul\n      add\n        /* \"DurianContract.sol\":581:603  staffs[i].staffAddress */\n      0x00\n      add\n      0x00\n      swap1\n      sload\n      swap1\n      0x0100\n      exp\n      swap1\n      div\n      0xffffffffffffffffffffffffffffffffffffffff\n      and\n        /* \"DurianContract.sol\":581:617  staffs[i].staffAddress == msg.sender */\n      0xffffffffffffffffffffffffffffffffffffffff\n      and\n      sub\n        /* \"DurianContract.sol\":577:714  if (staffs[i].staffAddress == msg.sender) {... */\n      tag_193\n      jumpi\n        /* \"DurianContract.sol\":654:660  staffs */\n      0x02\n        /* \"DurianContract.sol\":661:662  i */\n      dup2\n        /* \"DurianContract.sol\":654:663  staffs[i] */\n      dup2\n      sload\n      dup2\n      lt\n      tag_194\n      jumpi\n      tag_195\n      tag_127\n      jump\t// in\n    tag_195:\n    tag_194:\n      swap1\n      0x00\n      mstore\n      keccak256(0x00, 0x20)\n      swap1\n      0x04\n      mul\n      add\n        /* \"DurianContract.sol\":654:676  staffs[i].staffAddress */\n      0x00\n      add\n      0x00\n      swap1\n      sload\n      swap1\n      0x0100\n      exp\n      swap1\n      div\n      0xffffffffffffffffffffffffffffffffffffffff\n      and\n        /* \"DurianContract.sol\":637:676  addressofStaff = staffs[i].staffAddress */\n      swap2\n      pop\n        /* \"DurianContract.sol\":694:699  break */\n      jump(tag_187)\n        /* \"DurianContract.sol\":577:714  if (staffs[i].staffAddress == msg.sender) {... */\n    tag_193:\n        /* \"DurianContract.sol\":434:437  i-- */\n      dup1\n      dup1\n      tag_197\n      swap1\n      tag_133\n      jump\t// in\n    tag_197:\n      swap2\n      pop\n      pop\n        /* \"DurianContract.sol\":394:724  for (uint256 i = staffs.length; i == 0; i--) {... */\n      jump(tag_186)\n    tag_187:\n      pop\n        /* \"DurianContract.sol\":755:769  addressofStaff */\n      dup1\n        /* \"DurianContract.sol\":741:769  msg.sender == addressofStaff */\n      0xffffffffffffffffffffffffffffffffffffffff\n      and\n        /* \"DurianContract.sol\":741:751  msg.sender */\n      caller\n        /* \"DurianContract.sol\":741:769  msg.sender == addressofStaff */\n      0xffffffffffffffffffffffffffffffffffffffff\n      and\n      eq\n        /* \"DurianContract.sol\":733:770  require(msg.sender == addressofStaff) */\n      tag_198\n      jumpi\n      0x00\n      dup1\n      revert\n    tag_198:\n        /* \"DurianContract.sol\":4445:4487  compare(destination, durians[id].location) */\n      tag_200\n        /* \"DurianContract.sol\":4453:4464  destination */\n      dup5\n        /* \"DurianContract.sol\":4466:4473  durians */\n      0x03\n        /* \"DurianContract.sol\":4474:4476  id */\n      dup8\n        /* \"DurianContract.sol\":4466:4477  durians[id] */\n      mload(0x40)\n      tag_201\n      swap2\n      swap1\n      tag_136\n      jump\t// in\n    tag_201:\n      swap1\n      dup2\n      mstore\n      0x20\n      add\n      mload(0x40)\n      dup1\n      swap2\n      sub\n      swap1\n      keccak256\n        /* \"DurianContract.sol\":4466:4486  durians[id].location */\n      0x0b\n      add\n        /* \"DurianContract.sol\":4445:4487  compare(destination, durians[id].location) */\n      dup1\n      sload\n      tag_202\n      swap1\n      tag_77\n      jump\t// in\n    tag_202:\n      dup1\n      0x1f\n      add\n      0x20\n      dup1\n      swap2\n      div\n      mul\n      0x20\n      add\n      mload(0x40)\n      swap1\n      dup2\n      add\n      0x40\n      mstore\n      dup1\n      swap3\n      swap2\n      swap1\n      dup2\n      dup2\n      mstore\n      0x20\n      add\n      dup3\n      dup1\n      sload\n      tag_203\n      swap1\n      tag_77\n      jump\t// in\n    tag_203:\n      dup1\n      iszero\n      tag_204\n      jumpi\n      dup1\n      0x1f\n      lt\n      tag_205\n      jumpi\n      0x0100\n      dup1\n      dup4\n      sload\n      div\n      mul\n      dup4\n      mstore\n      swap2\n      0x20\n      add\n      swap2\n      jump(tag_204)\n    tag_205:\n      dup3\n      add\n      swap2\n      swap1\n      0x00\n      mstore\n      keccak256(0x00, 0x20)\n      swap1\n    tag_206:\n      dup2\n      sload\n      dup2\n      mstore\n      swap1\n      0x01\n      add\n      swap1\n      0x20\n      add\n      dup1\n      dup4\n      gt\n      tag_206\n      jumpi\n      dup3\n      swap1\n      sub\n      0x1f\n      and\n      dup3\n      add\n      swap2\n    tag_204:\n      pop\n      pop\n      pop\n      pop\n      pop\n        /* \"DurianContract.sol\":4445:4452  compare */\n      tag_207\n        /* \"DurianContract.sol\":4445:4487  compare(destination, durians[id].location) */\n      jump\t// in\n    tag_200:\n        /* \"DurianContract.sol\":4441:4610  if (compare(destination, durians[id].location)) {... */\n      iszero\n      tag_208\n      jumpi\n        /* \"DurianContract.sol\":4524:4530  status */\n      dup3\n        /* \"DurianContract.sol\":4503:4510  durians */\n      0x03\n        /* \"DurianContract.sol\":4511:4513  id */\n      dup7\n        /* \"DurianContract.sol\":4503:4514  durians[id] */\n      mload(0x40)\n      tag_209\n      swap2\n      swap1\n      tag_136\n      jump\t// in\n    tag_209:\n      swap1\n      dup2\n      mstore\n      0x20\n      add\n      mload(0x40)\n      dup1\n      swap2\n      sub\n      swap1\n      keccak256\n        /* \"DurianContract.sol\":4503:4521  durians[id].status */\n      0x0d\n      add\n        /* \"DurianContract.sol\":4503:4530  durians[id].status = status */\n      swap1\n      dup2\n      tag_210\n      swap2\n      swap1\n      tag_130\n      jump\t// in\n    tag_210:\n      pop\n        /* \"DurianContract.sol\":4569:4574  false */\n      0x00\n        /* \"DurianContract.sol\":4544:4551  durians */\n      0x03\n        /* \"DurianContract.sol\":4552:4554  id */\n      dup7\n        /* \"DurianContract.sol\":4544:4555  durians[id] */\n      mload(0x40)\n      tag_211\n      swap2\n      swap1\n      tag_136\n      jump\t// in\n    tag_211:\n      swap1\n      dup2\n      mstore\n      0x20\n      add\n      mload(0x40)\n      dup1\n      swap2\n      sub\n      swap1\n      keccak256\n        /* \"DurianContract.sol\":4544:4566  durians[id].onDelivery */\n      0x0c\n      add\n      0x00\n        /* \"DurianContract.sol\":4544:4574  durians[id].onDelivery = false */\n      0x0100\n      exp\n      dup2\n      sload\n      dup2\n      0xff\n      mul\n      not\n      and\n      swap1\n      dup4\n      iszero\n      iszero\n      mul\n      or\n      swap1\n      sstore\n      pop\n        /* \"DurianContract.sol\":4595:4599  true */\n      0x01\n        /* \"DurianContract.sol\":4588:4599  return true */\n      swap2\n      pop\n      jump(tag_199)\n        /* \"DurianContract.sol\":4441:4610  if (compare(destination, durians[id].location)) {... */\n    tag_208:\n        /* \"DurianContract.sol\":4626:4631  false */\n      0x00\n        /* \"DurianContract.sol\":4619:4631  return false */\n      swap2\n      pop\n        /* \"DurianContract.sol\":780:781  _ */\n    tag_199:\n        /* \"DurianContract.sol\":352:788  {... */\n      pop\n        /* \"DurianContract.sol\":4274:4638  function receiveDurians(... */\n      swap4\n      swap3\n      pop\n      pop\n      pop\n      jump\t// out\n        /* \"DurianContract.sol\":3227:3799  function addDurian(... */\n    tag_62:\n        /* \"DurianContract.sol\":362:384  address addressofStaff */\n      0x00\n        /* \"DurianContract.sol\":399:408  uint256 i */\n      dup1\n        /* \"DurianContract.sol\":411:417  staffs */\n      0x02\n        /* \"DurianContract.sol\":411:424  staffs.length */\n      dup1\n      sload\n      swap1\n      pop\n        /* \"DurianContract.sol\":399:424  uint256 i = staffs.length */\n      swap1\n      pop\n        /* \"DurianContract.sol\":394:724  for (uint256 i = staffs.length; i == 0; i--) {... */\n    tag_213:\n        /* \"DurianContract.sol\":431:432  0 */\n      0x00\n        /* \"DurianContract.sol\":426:427  i */\n      dup2\n        /* \"DurianContract.sol\":426:432  i == 0 */\n      sub\n        /* \"DurianContract.sol\":394:724  for (uint256 i = staffs.length; i == 0; i--) {... */\n      tag_214\n      jumpi\n        /* \"DurianContract.sol\":471:480  ownerFarm */\n      0x00\n      dup1\n      sload\n      swap1\n      0x0100\n      exp\n      swap1\n      div\n      0xffffffffffffffffffffffffffffffffffffffff\n      and\n        /* \"DurianContract.sol\":457:480  msg.sender == ownerFarm */\n      0xffffffffffffffffffffffffffffffffffffffff\n      and\n        /* \"DurianContract.sol\":457:467  msg.sender */\n      caller\n        /* \"DurianContract.sol\":457:480  msg.sender == ownerFarm */\n      0xffffffffffffffffffffffffffffffffffffffff\n      and\n      sub\n        /* \"DurianContract.sol\":453:564  if (msg.sender == ownerFarm) {... */\n      tag_216\n      jumpi\n        /* \"DurianContract.sol\":517:526  ownerFarm */\n      0x00\n      dup1\n      sload\n      swap1\n      0x0100\n      exp\n      swap1\n      div\n      0xffffffffffffffffffffffffffffffffffffffff\n      and\n        /* \"DurianContract.sol\":500:526  addressofStaff = ownerFarm */\n      swap2\n      pop\n        /* \"DurianContract.sol\":544:549  break */\n      jump(tag_214)\n        /* \"DurianContract.sol\":453:564  if (msg.sender == ownerFarm) {... */\n    tag_216:\n        /* \"DurianContract.sol\":607:617  msg.sender */\n      caller\n        /* \"DurianContract.sol\":581:617  staffs[i].staffAddress == msg.sender */\n      0xffffffffffffffffffffffffffffffffffffffff\n      and\n        /* \"DurianContract.sol\":581:587  staffs */\n      0x02\n        /* \"DurianContract.sol\":588:589  i */\n      dup3\n        /* \"DurianContract.sol\":581:590  staffs[i] */\n      dup2\n      sload\n      dup2\n      lt\n      tag_217\n      jumpi\n      tag_218\n      tag_127\n      jump\t// in\n    tag_218:\n    tag_217:\n      swap1\n      0x00\n      mstore\n      keccak256(0x00, 0x20)\n      swap1\n      0x04\n      mul\n      add\n        /* \"DurianContract.sol\":581:603  staffs[i].staffAddress */\n      0x00\n      add\n      0x00\n      swap1\n      sload\n      swap1\n      0x0100\n      exp\n      swap1\n      div\n      0xffffffffffffffffffffffffffffffffffffffff\n      and\n        /* \"DurianContract.sol\":581:617  staffs[i].staffAddress == msg.sender */\n      0xffffffffffffffffffffffffffffffffffffffff\n      and\n      sub\n        /* \"DurianContract.sol\":577:714  if (staffs[i].staffAddress == msg.sender) {... */\n      tag_220\n      jumpi\n        /* \"DurianContract.sol\":654:660  staffs */\n      0x02\n        /* \"DurianContract.sol\":661:662  i */\n      dup2\n        /* \"DurianContract.sol\":654:663  staffs[i] */\n      dup2\n      sload\n      dup2\n      lt\n      tag_221\n      jumpi\n      tag_222\n      tag_127\n      jump\t// in\n    tag_222:\n    tag_221:\n      swap1\n      0x00\n      mstore\n      keccak256(0x00, 0x20)\n      swap1\n      0x04\n      mul\n      add\n        /* \"DurianContract.sol\":654:676  staffs[i].staffAddress */\n      0x00\n      add\n      0x00\n      swap1\n      sload\n      swap1\n      0x0100\n      exp\n      swap1\n      div\n      0xffffffffffffffffffffffffffffffffffffffff\n      and\n        /* \"DurianContract.sol\":637:676  addressofStaff = staffs[i].staffAddress */\n      swap2\n      pop\n        /* \"DurianContract.sol\":694:699  break */\n      jump(tag_214)\n        /* \"DurianContract.sol\":577:714  if (staffs[i].staffAddress == msg.sender) {... */\n    tag_220:\n        /* \"DurianContract.sol\":434:437  i-- */\n      dup1\n      dup1\n      tag_224\n      swap1\n      tag_133\n      jump\t// in\n    tag_224:\n      swap2\n      pop\n      pop\n        /* \"DurianContract.sol\":394:724  for (uint256 i = staffs.length; i == 0; i--) {... */\n      jump(tag_213)\n    tag_214:\n      pop\n        /* \"DurianContract.sol\":755:769  addressofStaff */\n      dup1\n        /* \"DurianContract.sol\":741:769  msg.sender == addressofStaff */\n      0xffffffffffffffffffffffffffffffffffffffff\n      and\n        /* \"DurianContract.sol\":741:751  msg.sender */\n      caller\n        /* \"DurianContract.sol\":741:769  msg.sender == addressofStaff */\n      0xffffffffffffffffffffffffffffffffffffffff\n      and\n      eq\n        /* \"DurianContract.sol\":733:770  require(msg.sender == addressofStaff) */\n      tag_225\n      jumpi\n      0x00\n      dup1\n      revert\n    tag_225:\n        /* \"DurianContract.sol\":3469:3769  Durian(... */\n      mload(0x40)\n      dup1\n      0x0180\n      add\n      0x40\n      mstore\n      dup1\n        /* \"DurianContract.sol\":3489:3491  id */\n      dup9\n        /* \"DurianContract.sol\":3469:3769  Durian(... */\n      dup2\n      mstore\n      0x20\n      add\n        /* \"DurianContract.sol\":3506:3513  species */\n      dup8\n        /* \"DurianContract.sol\":3469:3769  Durian(... */\n      dup2\n      mstore\n      0x20\n      add\n        /* \"DurianContract.sol\":3528:3534  weight */\n      dup7\n        /* \"DurianContract.sol\":3469:3769  Durian(... */\n      dup2\n      mstore\n      0x20\n      add\n        /* \"DurianContract.sol\":3549:3568  harvested_date_time */\n      dup6\n        /* \"DurianContract.sol\":3469:3769  Durian(... */\n      dup2\n      mstore\n      0x20\n      add\n        /* \"DurianContract.sol\":3583:3593  msg.sender */\n      caller\n        /* \"DurianContract.sol\":3469:3769  Durian(... */\n      0xffffffffffffffffffffffffffffffffffffffff\n      and\n      dup2\n      mstore\n      0x20\n      add\n        /* \"DurianContract.sol\":3608:3620  harvest_tree */\n      dup5\n        /* \"DurianContract.sol\":3469:3769  Durian(... */\n      dup2\n      mstore\n      0x20\n      add\n        /* \"DurianContract.sol\":3635:3647  harvest_farm */\n      dup4\n        /* \"DurianContract.sol\":3469:3769  Durian(... */\n      dup2\n      mstore\n      0x20\n      add\n        /* \"DurianContract.sol\":3661:3670  ownerFarm */\n      0x00\n      dup1\n      sload\n      swap1\n      0x0100\n      exp\n      swap1\n      div\n      0xffffffffffffffffffffffffffffffffffffffff\n      and\n        /* \"DurianContract.sol\":3469:3769  Durian(... */\n      0xffffffffffffffffffffffffffffffffffffffff\n      and\n      dup2\n      mstore\n      0x20\n      add\n        /* \"DurianContract.sol\":3684:3697  defaultDurian */\n      0x04\n        /* \"DurianContract.sol\":3469:3769  Durian(... */\n      mload(0x40)\n      dup1\n      0xc0\n      add\n      0x40\n      mstore\n      swap1\n      dup2\n      0x00\n      dup3\n      add\n      dup1\n      sload\n      tag_227\n      swap1\n      tag_77\n      jump\t// in\n    tag_227:\n      dup1\n      0x1f\n      add\n      0x20\n      dup1\n      swap2\n      div\n      mul\n      0x20\n      add\n      mload(0x40)\n      swap1\n      dup2\n      add\n      0x40\n      mstore\n      dup1\n      swap3\n      swap2\n      swap1\n      dup2\n      dup2\n      mstore\n      0x20\n      add\n      dup3\n      dup1\n      sload\n      tag_228\n      swap1\n      tag_77\n      jump\t// in\n    tag_228:\n      dup1\n      iszero\n      tag_229\n      jumpi\n      dup1\n      0x1f\n      lt\n      tag_230\n      jumpi\n      0x0100\n      dup1\n      dup4\n      sload\n      div\n      mul\n      dup4\n      mstore\n      swap2\n      0x20\n      add\n      swap2\n      jump(tag_229)\n    tag_230:\n      dup3\n      add\n      swap2\n      swap1\n      0x00\n      mstore\n      keccak256(0x00, 0x20)\n      swap1\n    tag_231:\n      dup2\n      sload\n      dup2\n      mstore\n      swap1\n      0x01\n      add\n      swap1\n      0x20\n      add\n      dup1\n      dup4\n      gt\n      tag_231\n      jumpi\n      dup3\n      swap1\n      sub\n      0x1f\n      and\n      dup3\n      add\n      swap2\n    tag_229:\n      pop\n      pop\n      pop\n      pop\n      pop\n      dup2\n      mstore\n      0x20\n      add\n      0x01\n      dup3\n      add\n      dup1\n      sload\n      tag_232\n      swap1\n      tag_77\n      jump\t// in\n    tag_232:\n      dup1\n      0x1f\n      add\n      0x20\n      dup1\n      swap2\n      div\n      mul\n      0x20\n      add\n      mload(0x40)\n      swap1\n      dup2\n      add\n      0x40\n      mstore\n      dup1\n      swap3\n      swap2\n      swap1\n      dup2\n      dup2\n      mstore\n      0x20\n      add\n      dup3\n      dup1\n      sload\n      tag_233\n      swap1\n      tag_77\n      jump\t// in\n    tag_233:\n      dup1\n      iszero\n      tag_234\n      jumpi\n      dup1\n      0x1f\n      lt\n      tag_235\n      jumpi\n      0x0100\n      dup1\n      dup4\n      sload\n      div\n      mul\n      dup4\n      mstore\n      swap2\n      0x20\n      add\n      swap2\n      jump(tag_234)\n    tag_235:\n      dup3\n      add\n      swap2\n      swap1\n      0x00\n      mstore\n      keccak256(0x00, 0x20)\n      swap1\n    tag_236:\n      dup2\n      sload\n      dup2\n      mstore\n      swap1\n      0x01\n      add\n      swap1\n      0x20\n      add\n      dup1\n      dup4\n      gt\n      tag_236\n      jumpi\n      dup3\n      swap1\n      sub\n      0x1f\n      and\n      dup3\n      add\n      swap2\n    tag_234:\n      pop\n      pop\n      pop\n      pop\n      pop\n      dup2\n      mstore\n      0x20\n      add\n      0x02\n      dup3\n      add\n      0x00\n      swap1\n      sload\n      swap1\n      0x0100\n      exp\n      swap1\n      div\n      0xff\n      and\n      0x04\n      dup2\n      gt\n      iszero\n      tag_237\n      jumpi\n      tag_238\n      tag_94\n      jump\t// in\n    tag_238:\n    tag_237:\n      0x04\n      dup2\n      gt\n      iszero\n      tag_239\n      jumpi\n      tag_240\n      tag_94\n      jump\t// in\n    tag_240:\n    tag_239:\n      dup2\n      mstore\n      0x20\n      add\n      0x02\n      dup3\n      add\n      0x01\n      swap1\n      sload\n      swap1\n      0x0100\n      exp\n      swap1\n      div\n      0xff\n      and\n      0x04\n      dup2\n      gt\n      iszero\n      tag_241\n      jumpi\n      tag_242\n      tag_94\n      jump\t// in\n    tag_242:\n    tag_241:\n      0x04\n      dup2\n      gt\n      iszero\n      tag_243\n      jumpi\n      tag_244\n      tag_94\n      jump\t// in\n    tag_244:\n    tag_243:\n      dup2\n      mstore\n      0x20\n      add\n      0x02\n      dup3\n      add\n      0x02\n      swap1\n      sload\n      swap1\n      0x0100\n      exp\n      swap1\n      div\n      0xff\n      and\n      0x04\n      dup2\n      gt\n      iszero\n      tag_245\n      jumpi\n      tag_246\n      tag_94\n      jump\t// in\n    tag_246:\n    tag_245:\n      0x04\n      dup2\n      gt\n      iszero\n      tag_247\n      jumpi\n      tag_248\n      tag_94\n      jump\t// in\n    tag_248:\n    tag_247:\n      dup2\n      mstore\n      0x20\n      add\n      0x02\n      dup3\n      add\n      0x03\n      swap1\n      sload\n      swap1\n      0x0100\n      exp\n      swap1\n      div\n      0xff\n      and\n      0x04\n      dup2\n      gt\n      iszero\n      tag_249\n      jumpi\n      tag_250\n      tag_94\n      jump\t// in\n    tag_250:\n    tag_249:\n      0x04\n      dup2\n      gt\n      iszero\n      tag_251\n      jumpi\n      tag_252\n      tag_94\n      jump\t// in\n    tag_252:\n    tag_251:\n      dup2\n      mstore\n      pop\n      pop\n      dup2\n      mstore\n      0x20\n      add\n      mload(0x40)\n      dup1\n      0x40\n      add\n      0x40\n      mstore\n      dup1\n      0x04\n      dup2\n      mstore\n      0x20\n      add\n      0x6661726d00000000000000000000000000000000000000000000000000000000\n      dup2\n      mstore\n      pop\n      dup2\n      mstore\n      0x20\n      add\n        /* \"DurianContract.sol\":3731:3736  false */\n      0x00\n        /* \"DurianContract.sol\":3469:3769  Durian(... */\n      iszero\n      iszero\n      dup2\n      mstore\n      0x20\n      add\n      mload(0x40)\n      dup1\n      0x40\n      add\n      0x40\n      mstore\n      dup1\n      0x07\n      dup2\n      mstore\n      0x20\n      add\n      0x7065726665637400000000000000000000000000000000000000000000000000\n      dup2\n      mstore\n      pop\n      dup2\n      mstore\n      pop\n        /* \"DurianContract.sol\":3455:3462  durians */\n      0x03\n        /* \"DurianContract.sol\":3463:3465  id */\n      dup9\n        /* \"DurianContract.sol\":3455:3466  durians[id] */\n      mload(0x40)\n      tag_253\n      swap2\n      swap1\n      tag_136\n      jump\t// in\n    tag_253:\n      swap1\n      dup2\n      mstore\n      0x20\n      add\n      mload(0x40)\n      dup1\n      swap2\n      sub\n      swap1\n      keccak256\n        /* \"DurianContract.sol\":3455:3769  durians[id] = Durian(... */\n      0x00\n      dup3\n      add\n      mload\n      dup2\n      0x00\n      add\n      swap1\n      dup2\n      tag_254\n      swap2\n      swap1\n      tag_130\n      jump\t// in\n    tag_254:\n      pop\n      0x20\n      dup3\n      add\n      mload\n      dup2\n      0x01\n      add\n      sstore\n      0x40\n      dup3\n      add\n      mload\n      dup2\n      0x02\n      add\n      sstore\n      0x60\n      dup3\n      add\n      mload\n      dup2\n      0x03\n      add\n      sstore\n      0x80\n      dup3\n      add\n      mload\n      dup2\n      0x04\n      add\n      exp(0x0100, 0x00)\n      dup2\n      sload\n      dup2\n      0xffffffffffffffffffffffffffffffffffffffff\n      mul\n      not\n      and\n      swap1\n      dup4\n      0xffffffffffffffffffffffffffffffffffffffff\n      and\n      mul\n      or\n      swap1\n      sstore\n      pop\n      0xa0\n      dup3\n      add\n      mload\n      dup2\n      0x05\n      add\n      sstore\n      0xc0\n      dup3\n      add\n      mload\n      dup2\n      0x06\n      add\n      sstore\n      0xe0\n      dup3\n      add\n      mload\n      dup2\n      0x07\n      add\n      exp(0x0100, 0x00)\n      dup2\n      sload\n      dup2\n      0xffffffffffffffffffffffffffffffffffffffff\n      mul\n      not\n      and\n      swap1\n      dup4\n      0xffffffffffffffffffffffffffffffffffffffff\n      and\n      mul\n      or\n      swap1\n      sstore\n      pop\n      0x0100\n      dup3\n      add\n      mload\n      dup2\n      0x08\n      add\n      0x00\n      dup3\n      add\n      mload\n      dup2\n      0x00\n      add\n      swap1\n      dup2\n      tag_255\n      swap2\n      swap1\n      tag_130\n      jump\t// in\n    tag_255:\n      pop\n      0x20\n      dup3\n      add\n      mload\n      dup2\n      0x01\n      add\n      swap1\n      dup2\n      tag_256\n      swap2\n      swap1\n      tag_130\n      jump\t// in\n    tag_256:\n      pop\n      0x40\n      dup3\n      add\n      mload\n      dup2\n      0x02\n      add\n      exp(0x0100, 0x00)\n      dup2\n      sload\n      dup2\n      0xff\n      mul\n      not\n      and\n      swap1\n      dup4\n      0x04\n      dup2\n      gt\n      iszero\n      tag_257\n      jumpi\n      tag_258\n      tag_94\n      jump\t// in\n    tag_258:\n    tag_257:\n      mul\n      or\n      swap1\n      sstore\n      pop\n      0x60\n      dup3\n      add\n      mload\n      dup2\n      0x02\n      add\n      exp(0x0100, 0x01)\n      dup2\n      sload\n      dup2\n      0xff\n      mul\n      not\n      and\n      swap1\n      dup4\n      0x04\n      dup2\n      gt\n      iszero\n      tag_259\n      jumpi\n      tag_260\n      tag_94\n      jump\t// in\n    tag_260:\n    tag_259:\n      mul\n      or\n      swap1\n      sstore\n      pop\n      0x80\n      dup3\n      add\n      mload\n      dup2\n      0x02\n      add\n      exp(0x0100, 0x02)\n      dup2\n      sload\n      dup2\n      0xff\n      mul\n      not\n      and\n      swap1\n      dup4\n      0x04\n      dup2\n      gt\n      iszero\n      tag_261\n      jumpi\n      tag_262\n      tag_94\n      jump\t// in\n    tag_262:\n    tag_261:\n      mul\n      or\n      swap1\n      sstore\n      pop\n      0xa0\n      dup3\n      add\n      mload\n      dup2\n      0x02\n      add\n      exp(0x0100, 0x03)\n      dup2\n      sload\n      dup2\n      0xff\n      mul\n      not\n      and\n      swap1\n      dup4\n      0x04\n      dup2\n      gt\n      iszero\n      tag_263\n      jumpi\n      tag_264\n      tag_94\n      jump\t// in\n    tag_264:\n    tag_263:\n      mul\n      or\n      swap1\n      sstore\n      pop\n      pop\n      pop\n      0x0120\n      dup3\n      add\n      mload\n      dup2\n      0x0b\n      add\n      swap1\n      dup2\n      tag_265\n      swap2\n      swap1\n      tag_130\n      jump\t// in\n    tag_265:\n      pop\n      0x0140\n      dup3\n      add\n      mload\n      dup2\n      0x0c\n      add\n      exp(0x0100, 0x00)\n      dup2\n      sload\n      dup2\n      0xff\n      mul\n      not\n      and\n      swap1\n      dup4\n      iszero\n      iszero\n      mul\n      or\n      swap1\n      sstore\n      pop\n      0x0160\n      dup3\n      add\n      mload\n      dup2\n      0x0d\n      add\n      swap1\n      dup2\n      tag_266\n      swap2\n      swap1\n      tag_130\n      jump\t// in\n    tag_266:\n      pop\n      swap1\n      pop\n      pop\n        /* \"DurianContract.sol\":3779:3790  durianCount */\n      0x01\n      0x00\n        /* \"DurianContract.sol\":3779:3792  durianCount++ */\n      dup2\n      sload\n      dup1\n      swap3\n      swap2\n      swap1\n      tag_267\n      swap1\n      tag_268\n      jump\t// in\n    tag_267:\n      swap2\n      swap1\n      pop\n      sstore\n      pop\n        /* \"DurianContract.sol\":352:788  {... */\n      pop\n        /* \"DurianContract.sol\":3227:3799  function addDurian(... */\n      pop\n      pop\n      pop\n      pop\n      pop\n      pop\n      jump\t// out\n        /* \"DurianContract.sol\":5879:5966  function getOwnerAdd() external view returns (address){... */\n    tag_64:\n        /* \"DurianContract.sol\":5925:5932  address */\n      0x00\n        /* \"DurianContract.sol\":5950:5959  ownerFarm */\n      dup1\n      0x00\n      swap1\n      sload\n      swap1\n      0x0100\n      exp\n      swap1\n      div\n      0xffffffffffffffffffffffffffffffffffffffff\n      and\n        /* \"DurianContract.sol\":5943:5959  return ownerFarm */\n      swap1\n      pop\n        /* \"DurianContract.sol\":5879:5966  function getOwnerAdd() external view returns (address){... */\n      swap1\n      jump\t// out\n        /* \"DurianContract.sol\":4696:5005  function soldDurians (... */\n    tag_69:\n        /* \"DurianContract.sol\":4789:4802  string memory */\n      0x60\n        /* \"DurianContract.sol\":4818:4856  compare(durians[id].status, \"damaged\") */\n      tag_271\n        /* \"DurianContract.sol\":4826:4833  durians */\n      0x03\n        /* \"DurianContract.sol\":4834:4836  id */\n      dup4\n        /* \"DurianContract.sol\":4826:4837  durians[id] */\n      mload(0x40)\n      tag_272\n      swap2\n      swap1\n      tag_136\n      jump\t// in\n    tag_272:\n      swap1\n      dup2\n      mstore\n      0x20\n      add\n      mload(0x40)\n      dup1\n      swap2\n      sub\n      swap1\n      keccak256\n        /* \"DurianContract.sol\":4826:4844  durians[id].status */\n      0x0d\n      add\n        /* \"DurianContract.sol\":4818:4856  compare(durians[id].status, \"damaged\") */\n      dup1\n      sload\n      tag_273\n      swap1\n      tag_77\n      jump\t// in\n    tag_273:\n      dup1\n      0x1f\n      add\n      0x20\n      dup1\n      swap2\n      div\n      mul\n      0x20\n      add\n      mload(0x40)\n      swap1\n      dup2\n      add\n      0x40\n      mstore\n      dup1\n      swap3\n      swap2\n      swap1\n      dup2\n      dup2\n      mstore\n      0x20\n      add\n      dup3\n      dup1\n      sload\n      tag_274\n      swap1\n      tag_77\n      jump\t// in\n    tag_274:\n      dup1\n      iszero\n      tag_275\n      jumpi\n      dup1\n      0x1f\n      lt\n      tag_276\n      jumpi\n      0x0100\n      dup1\n      dup4\n      sload\n      div\n      mul\n      dup4\n      mstore\n      swap2\n      0x20\n      add\n      swap2\n      jump(tag_275)\n    tag_276:\n      dup3\n      add\n      swap2\n      swap1\n      0x00\n      mstore\n      keccak256(0x00, 0x20)\n      swap1\n    tag_277:\n      dup2\n      sload\n      dup2\n      mstore\n      swap1\n      0x01\n      add\n      swap1\n      0x20\n      add\n      dup1\n      dup4\n      gt\n      tag_277\n      jumpi\n      dup3\n      swap1\n      sub\n      0x1f\n      and\n      dup3\n      add\n      swap2\n    tag_275:\n      pop\n      pop\n      pop\n      pop\n      pop\n      mload(0x40)\n      dup1\n      0x40\n      add\n      0x40\n      mstore\n      dup1\n      0x07\n      dup2\n      mstore\n      0x20\n      add\n      0x64616d6167656400000000000000000000000000000000000000000000000000\n      dup2\n      mstore\n      pop\n        /* \"DurianContract.sol\":4818:4825  compare */\n      tag_207\n        /* \"DurianContract.sol\":4818:4856  compare(durians[id].status, \"damaged\") */\n      jump\t// in\n    tag_271:\n        /* \"DurianContract.sol\":4814:4935  if (compare(durians[id].status, \"damaged\")) {... */\n      iszero\n      tag_278\n      jumpi\n        /* \"DurianContract.sol\":4872:4924  return \"durian damaged please select another durian\" */\n      mload(0x40)\n      dup1\n      0x60\n      add\n      0x40\n      mstore\n      dup1\n      0x2b\n      dup2\n      mstore\n      0x20\n      add\n      data_2fe1bde1b84b10ebdbd3bbdfaafe37aec8f7c7d7968d28514693b7e0a6268ba1\n      0x2b\n      swap2\n      codecopy\n      swap1\n      pop\n      jump(tag_270)\n        /* \"DurianContract.sol\":4814:4935  if (compare(durians[id].status, \"damaged\")) {... */\n    tag_278:\n        /* \"DurianContract.sol\":4964:4969  buyer */\n      dup3\n        /* \"DurianContract.sol\":4944:4951  durians */\n      0x03\n        /* \"DurianContract.sol\":4952:4954  id */\n      dup4\n        /* \"DurianContract.sol\":4944:4955  durians[id] */\n      mload(0x40)\n      tag_279\n      swap2\n      swap1\n      tag_136\n      jump\t// in\n    tag_279:\n      swap1\n      dup2\n      mstore\n      0x20\n      add\n      mload(0x40)\n      dup1\n      swap2\n      sub\n      swap1\n      keccak256\n        /* \"DurianContract.sol\":4944:4961  durians[id].owner */\n      0x07\n      add\n      0x00\n        /* \"DurianContract.sol\":4944:4969  durians[id].owner = buyer */\n      0x0100\n      exp\n      dup2\n      sload\n      dup2\n      0xffffffffffffffffffffffffffffffffffffffff\n      mul\n      not\n      and\n      swap1\n      dup4\n      0xffffffffffffffffffffffffffffffffffffffff\n      and\n      mul\n      or\n      swap1\n      sstore\n      pop\n        /* \"DurianContract.sol\":4979:4998  return \"successful\" */\n      mload(0x40)\n      dup1\n      0x40\n      add\n      0x40\n      mstore\n      dup1\n      0x0a\n      dup2\n      mstore\n      0x20\n      add\n      0x7375636365737366756c00000000000000000000000000000000000000000000\n      dup2\n      mstore\n      pop\n      swap1\n      pop\n        /* \"DurianContract.sol\":4696:5005  function soldDurians (... */\n    tag_270:\n      swap3\n      swap2\n      pop\n      pop\n      jump\t// out\n        /* \"DurianContract.sol\":3851:4229  function deliverDurian(... */\n    tag_74:\n        /* \"DurianContract.sol\":4008:4012  bool */\n      0x00\n        /* \"DurianContract.sol\":362:384  address addressofStaff */\n      dup1\n        /* \"DurianContract.sol\":399:408  uint256 i */\n      0x00\n        /* \"DurianContract.sol\":411:417  staffs */\n      0x02\n        /* \"DurianContract.sol\":411:424  staffs.length */\n      dup1\n      sload\n      swap1\n      pop\n        /* \"DurianContract.sol\":399:424  uint256 i = staffs.length */\n      swap1\n      pop\n        /* \"DurianContract.sol\":394:724  for (uint256 i = staffs.length; i == 0; i--) {... */\n    tag_281:\n        /* \"DurianContract.sol\":431:432  0 */\n      0x00\n        /* \"DurianContract.sol\":426:427  i */\n      dup2\n        /* \"DurianContract.sol\":426:432  i == 0 */\n      sub\n        /* \"DurianContract.sol\":394:724  for (uint256 i = staffs.length; i == 0; i--) {... */\n      tag_282\n      jumpi\n        /* \"DurianContract.sol\":471:480  ownerFarm */\n      0x00\n      dup1\n      sload\n      swap1\n      0x0100\n      exp\n      swap1\n      div\n      0xffffffffffffffffffffffffffffffffffffffff\n      and\n        /* \"DurianContract.sol\":457:480  msg.sender == ownerFarm */\n      0xffffffffffffffffffffffffffffffffffffffff\n      and\n        /* \"DurianContract.sol\":457:467  msg.sender */\n      caller\n        /* \"DurianContract.sol\":457:480  msg.sender == ownerFarm */\n      0xffffffffffffffffffffffffffffffffffffffff\n      and\n      sub\n        /* \"DurianContract.sol\":453:564  if (msg.sender == ownerFarm) {... */\n      tag_284\n      jumpi\n        /* \"DurianContract.sol\":517:526  ownerFarm */\n      0x00\n      dup1\n      sload\n      swap1\n      0x0100\n      exp\n      swap1\n      div\n      0xffffffffffffffffffffffffffffffffffffffff\n      and\n        /* \"DurianContract.sol\":500:526  addressofStaff = ownerFarm */\n      swap2\n      pop\n        /* \"DurianContract.sol\":544:549  break */\n      jump(tag_282)\n        /* \"DurianContract.sol\":453:564  if (msg.sender == ownerFarm) {... */\n    tag_284:\n        /* \"DurianContract.sol\":607:617  msg.sender */\n      caller\n        /* \"DurianContract.sol\":581:617  staffs[i].staffAddress == msg.sender */\n      0xffffffffffffffffffffffffffffffffffffffff\n      and\n        /* \"DurianContract.sol\":581:587  staffs */\n      0x02\n        /* \"DurianContract.sol\":588:589  i */\n      dup3\n        /* \"DurianContract.sol\":581:590  staffs[i] */\n      dup2\n      sload\n      dup2\n      lt\n      tag_285\n      jumpi\n      tag_286\n      tag_127\n      jump\t// in\n    tag_286:\n    tag_285:\n      swap1\n      0x00\n      mstore\n      keccak256(0x00, 0x20)\n      swap1\n      0x04\n      mul\n      add\n        /* \"DurianContract.sol\":581:603  staffs[i].staffAddress */\n      0x00\n      add\n      0x00\n      swap1\n      sload\n      swap1\n      0x0100\n      exp\n      swap1\n      div\n      0xffffffffffffffffffffffffffffffffffffffff\n      and\n        /* \"DurianContract.sol\":581:617  staffs[i].staffAddress == msg.sender */\n      0xffffffffffffffffffffffffffffffffffffffff\n      and\n      sub\n        /* \"DurianContract.sol\":577:714  if (staffs[i].staffAddress == msg.sender) {... */\n      tag_288\n      jumpi\n        /* \"DurianContract.sol\":654:660  staffs */\n      0x02\n        /* \"DurianContract.sol\":661:662  i */\n      dup2\n        /* \"DurianContract.sol\":654:663  staffs[i] */\n      dup2\n      sload\n      dup2\n      lt\n      tag_289\n      jumpi\n      tag_290\n      tag_127\n      jump\t// in\n    tag_290:\n    tag_289:\n      swap1\n      0x00\n      mstore\n      keccak256(0x00, 0x20)\n      swap1\n      0x04\n      mul\n      add\n        /* \"DurianContract.sol\":654:676  staffs[i].staffAddress */\n      0x00\n      add\n      0x00\n      swap1\n      sload\n      swap1\n      0x0100\n      exp\n      swap1\n      div\n      0xffffffffffffffffffffffffffffffffffffffff\n      and\n        /* \"DurianContract.sol\":637:676  addressofStaff = staffs[i].staffAddress */\n      swap2\n      pop\n        /* \"DurianContract.sol\":694:699  break */\n      jump(tag_282)\n        /* \"DurianContract.sol\":577:714  if (staffs[i].staffAddress == msg.sender) {... */\n    tag_288:\n        /* \"DurianContract.sol\":434:437  i-- */\n      dup1\n      dup1\n      tag_292\n      swap1\n      tag_133\n      jump\t// in\n    tag_292:\n      swap2\n      pop\n      pop\n        /* \"DurianContract.sol\":394:724  for (uint256 i = staffs.length; i == 0; i--) {... */\n      jump(tag_281)\n    tag_282:\n      pop\n        /* \"DurianContract.sol\":755:769  addressofStaff */\n      dup1\n        /* \"DurianContract.sol\":741:769  msg.sender == addressofStaff */\n      0xffffffffffffffffffffffffffffffffffffffff\n      and\n        /* \"DurianContract.sol\":741:751  msg.sender */\n      caller\n        /* \"DurianContract.sol\":741:769  msg.sender == addressofStaff */\n      0xffffffffffffffffffffffffffffffffffffffff\n      and\n      eq\n        /* \"DurianContract.sol\":733:770  require(msg.sender == addressofStaff) */\n      tag_293\n      jumpi\n      0x00\n      dup1\n      revert\n    tag_293:\n        /* \"DurianContract.sol\":4028:4072  compare(startingPoint, durians[id].location) */\n      tag_295\n        /* \"DurianContract.sol\":4036:4049  startingPoint */\n      dup6\n        /* \"DurianContract.sol\":4051:4058  durians */\n      0x03\n        /* \"DurianContract.sol\":4059:4061  id */\n      dup6\n        /* \"DurianContract.sol\":4051:4062  durians[id] */\n      mload(0x40)\n      tag_296\n      swap2\n      swap1\n      tag_136\n      jump\t// in\n    tag_296:\n      swap1\n      dup2\n      mstore\n      0x20\n      add\n      mload(0x40)\n      dup1\n      swap2\n      sub\n      swap1\n      keccak256\n        /* \"DurianContract.sol\":4051:4071  durians[id].location */\n      0x0b\n      add\n        /* \"DurianContract.sol\":4028:4072  compare(startingPoint, durians[id].location) */\n      dup1\n      sload\n      tag_297\n      swap1\n      tag_77\n      jump\t// in\n    tag_297:\n      dup1\n      0x1f\n      add\n      0x20\n      dup1\n      swap2\n      div\n      mul\n      0x20\n      add\n      mload(0x40)\n      swap1\n      dup2\n      add\n      0x40\n      mstore\n      dup1\n      swap3\n      swap2\n      swap1\n      dup2\n      dup2\n      mstore\n      0x20\n      add\n      dup3\n      dup1\n      sload\n      tag_298\n      swap1\n      tag_77\n      jump\t// in\n    tag_298:\n      dup1\n      iszero\n      tag_299\n      jumpi\n      dup1\n      0x1f\n      lt\n      tag_300\n      jumpi\n      0x0100\n      dup1\n      dup4\n      sload\n      div\n      mul\n      dup4\n      mstore\n      swap2\n      0x20\n      add\n      swap2\n      jump(tag_299)\n    tag_300:\n      dup3\n      add\n      swap2\n      swap1\n      0x00\n      mstore\n      keccak256(0x00, 0x20)\n      swap1\n    tag_301:\n      dup2\n      sload\n      dup2\n      mstore\n      swap1\n      0x01\n      add\n      swap1\n      0x20\n      add\n      dup1\n      dup4\n      gt\n      tag_301\n      jumpi\n      dup3\n      swap1\n      sub\n      0x1f\n      and\n      dup3\n      add\n      swap2\n    tag_299:\n      pop\n      pop\n      pop\n      pop\n      pop\n        /* \"DurianContract.sol\":4028:4035  compare */\n      tag_207\n        /* \"DurianContract.sol\":4028:4072  compare(startingPoint, durians[id].location) */\n      jump\t// in\n    tag_295:\n        /* \"DurianContract.sol\":4024:4201  if (compare(startingPoint, durians[id].location)) {... */\n      iszero\n      tag_302\n      jumpi\n        /* \"DurianContract.sol\":4111:4122  destination */\n      dup4\n        /* \"DurianContract.sol\":4088:4095  durians */\n      0x03\n        /* \"DurianContract.sol\":4096:4098  id */\n      dup5\n        /* \"DurianContract.sol\":4088:4099  durians[id] */\n      mload(0x40)\n      tag_303\n      swap2\n      swap1\n      tag_136\n      jump\t// in\n    tag_303:\n      swap1\n      dup2\n      mstore\n      0x20\n      add\n      mload(0x40)\n      dup1\n      swap2\n      sub\n      swap1\n      keccak256\n        /* \"DurianContract.sol\":4088:4108  durians[id].location */\n      0x0b\n      add\n        /* \"DurianContract.sol\":4088:4122  durians[id].location = destination */\n      swap1\n      dup2\n      tag_304\n      swap2\n      swap1\n      tag_130\n      jump\t// in\n    tag_304:\n      pop\n        /* \"DurianContract.sol\":4161:4165  true */\n      0x01\n        /* \"DurianContract.sol\":4136:4143  durians */\n      0x03\n        /* \"DurianContract.sol\":4144:4146  id */\n      dup5\n        /* \"DurianContract.sol\":4136:4147  durians[id] */\n      mload(0x40)\n      tag_305\n      swap2\n      swap1\n      tag_136\n      jump\t// in\n    tag_305:\n      swap1\n      dup2\n      mstore\n      0x20\n      add\n      mload(0x40)\n      dup1\n      swap2\n      sub\n      swap1\n      keccak256\n        /* \"DurianContract.sol\":4136:4158  durians[id].onDelivery */\n      0x0c\n      add\n      0x00\n        /* \"DurianContract.sol\":4136:4165  durians[id].onDelivery = true */\n      0x0100\n      exp\n      dup2\n      sload\n      dup2\n      0xff\n      mul\n      not\n      and\n      swap1\n      dup4\n      iszero\n      iszero\n      mul\n      or\n      swap1\n      sstore\n      pop\n        /* \"DurianContract.sol\":4186:4190  true */\n      0x01\n        /* \"DurianContract.sol\":4179:4190  return true */\n      swap2\n      pop\n      jump(tag_294)\n        /* \"DurianContract.sol\":4024:4201  if (compare(startingPoint, durians[id].location)) {... */\n    tag_302:\n        /* \"DurianContract.sol\":4217:4222  false */\n      0x00\n        /* \"DurianContract.sol\":4210:4222  return false */\n      swap2\n      pop\n        /* \"DurianContract.sol\":780:781  _ */\n    tag_294:\n        /* \"DurianContract.sol\":352:788  {... */\n      pop\n        /* \"DurianContract.sol\":3851:4229  function deliverDurian(... */\n      swap4\n      swap3\n      pop\n      pop\n      pop\n      jump\t// out\n        /* \"DurianContract.sol\":2220:2702  function convertRatings(uint256 number) private pure returns(RatingNo){... */\n    tag_141:\n        /* \"DurianContract.sol\":2281:2289  RatingNo */\n      0x00\n        /* \"DurianContract.sol\":2314:2315  1 */\n      0x01\n        /* \"DurianContract.sol\":2304:2310  number */\n      dup3\n        /* \"DurianContract.sol\":2304:2315  number == 1 */\n      sub\n        /* \"DurianContract.sol\":2300:2361  if (number == 1) {... */\n      tag_307\n      jumpi\n        /* \"DurianContract.sol\":2338:2350  RatingNo.bad */\n      0x00\n        /* \"DurianContract.sol\":2331:2350  return RatingNo.bad */\n      swap1\n      pop\n      jump(tag_306)\n        /* \"DurianContract.sol\":2300:2361  if (number == 1) {... */\n    tag_307:\n        /* \"DurianContract.sol\":2384:2385  2 */\n      0x02\n        /* \"DurianContract.sol\":2374:2380  number */\n      dup3\n        /* \"DurianContract.sol\":2374:2385  number == 2 */\n      sub\n        /* \"DurianContract.sol\":2370:2444  if (number == 2) {... */\n      tag_308\n      jumpi\n        /* \"DurianContract.sol\":2408:2433  RatingNo.still_acceptable */\n      0x01\n        /* \"DurianContract.sol\":2401:2433  return RatingNo.still_acceptable */\n      swap1\n      pop\n      jump(tag_306)\n        /* \"DurianContract.sol\":2370:2444  if (number == 2) {... */\n    tag_308:\n        /* \"DurianContract.sol\":2467:2468  3 */\n      0x03\n        /* \"DurianContract.sol\":2457:2463  number */\n      dup3\n        /* \"DurianContract.sol\":2457:2468  number == 3 */\n      sub\n        /* \"DurianContract.sol\":2453:2518  if (number == 3) {... */\n      tag_309\n      jumpi\n        /* \"DurianContract.sol\":2491:2507  RatingNo.average */\n      0x02\n        /* \"DurianContract.sol\":2484:2507  return RatingNo.average */\n      swap1\n      pop\n      jump(tag_306)\n        /* \"DurianContract.sol\":2453:2518  if (number == 3) {... */\n    tag_309:\n        /* \"DurianContract.sol\":2541:2542  4 */\n      0x04\n        /* \"DurianContract.sol\":2531:2537  number */\n      dup3\n        /* \"DurianContract.sol\":2531:2542  number == 4 */\n      sub\n        /* \"DurianContract.sol\":2527:2589  if (number == 4) {... */\n      tag_310\n      jumpi\n        /* \"DurianContract.sol\":2565:2578  RatingNo.good */\n      0x03\n        /* \"DurianContract.sol\":2558:2578  return RatingNo.good */\n      swap1\n      pop\n      jump(tag_306)\n        /* \"DurianContract.sol\":2527:2589  if (number == 4) {... */\n    tag_310:\n        /* \"DurianContract.sol\":2612:2613  5 */\n      0x05\n        /* \"DurianContract.sol\":2602:2608  number */\n      dup3\n        /* \"DurianContract.sol\":2602:2613  number == 5 */\n      sub\n        /* \"DurianContract.sol\":2598:2663  if (number == 5) {... */\n      tag_311\n      jumpi\n        /* \"DurianContract.sol\":2636:2652  RatingNo.amazing */\n      0x04\n        /* \"DurianContract.sol\":2629:2652  return RatingNo.amazing */\n      swap1\n      pop\n      jump(tag_306)\n        /* \"DurianContract.sol\":2598:2663  if (number == 5) {... */\n    tag_311:\n        /* \"DurianContract.sol\":2679:2695  RatingNo.average */\n      0x02\n        /* \"DurianContract.sol\":2672:2695  return RatingNo.average */\n      swap1\n      pop\n        /* \"DurianContract.sol\":2220:2702  function convertRatings(uint256 number) private pure returns(RatingNo){... */\n    tag_306:\n      swap2\n      swap1\n      pop\n      jump\t// out\n        /* \"DurianContract.sol\":829:1008  function compare(string memory str1, string memory str2) private pure returns (bool) {... */\n    tag_207:\n        /* \"DurianContract.sol\":908:912  bool */\n      0x00\n        /* \"DurianContract.sol\":995:999  str2 */\n      dup2\n        /* \"DurianContract.sol\":978:1000  abi.encodePacked(str2) */\n      add(0x20, mload(0x40))\n      tag_313\n      swap2\n      swap1\n      tag_136\n      jump\t// in\n    tag_313:\n      mload(0x40)\n      0x20\n      dup2\n      dup4\n      sub\n      sub\n      dup2\n      mstore\n      swap1\n      0x40\n      mstore\n        /* \"DurianContract.sol\":968:1001  keccak256(abi.encodePacked(str2)) */\n      dup1\n      mload\n      swap1\n      0x20\n      add\n      keccak256\n        /* \"DurianContract.sol\":958:962  str1 */\n      dup4\n        /* \"DurianContract.sol\":941:963  abi.encodePacked(str1) */\n      add(0x20, mload(0x40))\n      tag_314\n      swap2\n      swap1\n      tag_136\n      jump\t// in\n    tag_314:\n      mload(0x40)\n      0x20\n      dup2\n      dup4\n      sub\n      sub\n      dup2\n      mstore\n      swap1\n      0x40\n      mstore\n        /* \"DurianContract.sol\":931:964  keccak256(abi.encodePacked(str1)) */\n      dup1\n      mload\n      swap1\n      0x20\n      add\n      keccak256\n        /* \"DurianContract.sol\":931:1001  keccak256(abi.encodePacked(str1)) == keccak256(abi.encodePacked(str2)) */\n      eq\n        /* \"DurianContract.sol\":924:1001  return keccak256(abi.encodePacked(str1)) == keccak256(abi.encodePacked(str2)) */\n      swap1\n      pop\n        /* \"DurianContract.sol\":829:1008  function compare(string memory str1, string memory str2) private pure returns (bool) {... */\n      swap3\n      swap2\n      pop\n      pop\n      jump\t// out\n        /* \"#utility.yul\":7:84   */\n    tag_315:\n        /* \"#utility.yul\":44:51   */\n      0x00\n        /* \"#utility.yul\":73:78   */\n      dup2\n        /* \"#utility.yul\":62:78   */\n      swap1\n      pop\n        /* \"#utility.yul\":7:84   */\n      swap2\n      swap1\n      pop\n      jump\t// out\n        /* \"#utility.yul\":90:208   */\n    tag_316:\n        /* \"#utility.yul\":177:201   */\n      tag_379\n        /* \"#utility.yul\":195:200   */\n      dup2\n        /* \"#utility.yul\":177:201   */\n      tag_315\n      jump\t// in\n    tag_379:\n        /* \"#utility.yul\":172:175   */\n      dup3\n        /* \"#utility.yul\":165:202   */\n      mstore\n        /* \"#utility.yul\":90:208   */\n      pop\n      pop\n      jump\t// out\n        /* \"#utility.yul\":214:436   */\n    tag_21:\n        /* \"#utility.yul\":307:311   */\n      0x00\n        /* \"#utility.yul\":345:347   */\n      0x20\n        /* \"#utility.yul\":334:343   */\n      dup3\n        /* \"#utility.yul\":330:348   */\n      add\n        /* \"#utility.yul\":322:348   */\n      swap1\n      pop\n        /* \"#utility.yul\":358:429   */\n      tag_381\n        /* \"#utility.yul\":426:427   */\n      0x00\n        /* \"#utility.yul\":415:424   */\n      dup4\n        /* \"#utility.yul\":411:428   */\n      add\n        /* \"#utility.yul\":402:408   */\n      dup5\n        /* \"#utility.yul\":358:429   */\n      tag_316\n      jump\t// in\n    tag_381:\n        /* \"#utility.yul\":214:436   */\n      swap3\n      swap2\n      pop\n      pop\n      jump\t// out\n        /* \"#utility.yul\":442:517   */\n    tag_317:\n        /* \"#utility.yul\":475:481   */\n      0x00\n        /* \"#utility.yul\":508:510   */\n      0x40\n        /* \"#utility.yul\":502:511   */\n      mload\n        /* \"#utility.yul\":492:511   */\n      swap1\n      pop\n        /* \"#utility.yul\":442:517   */\n      swap1\n      jump\t// out\n        /* \"#utility.yul\":523:640   */\n    tag_318:\n        /* \"#utility.yul\":632:633   */\n      0x00\n        /* \"#utility.yul\":629:630   */\n      dup1\n        /* \"#utility.yul\":622:634   */\n      revert\n        /* \"#utility.yul\":646:763   */\n    tag_319:\n        /* \"#utility.yul\":755:756   */\n      0x00\n        /* \"#utility.yul\":752:753   */\n      dup1\n        /* \"#utility.yul\":745:757   */\n      revert\n        /* \"#utility.yul\":769:886   */\n    tag_320:\n        /* \"#utility.yul\":878:879   */\n      0x00\n        /* \"#utility.yul\":875:876   */\n      dup1\n        /* \"#utility.yul\":868:880   */\n      revert\n        /* \"#utility.yul\":892:1009   */\n    tag_321:\n        /* \"#utility.yul\":1001:1002   */\n      0x00\n        /* \"#utility.yul\":998:999   */\n      dup1\n        /* \"#utility.yul\":991:1003   */\n      revert\n        /* \"#utility.yul\":1015:1117   */\n    tag_322:\n        /* \"#utility.yul\":1056:1062   */\n      0x00\n        /* \"#utility.yul\":1107:1109   */\n      0x1f\n        /* \"#utility.yul\":1103:1110   */\n      not\n        /* \"#utility.yul\":1098:1100   */\n      0x1f\n        /* \"#utility.yul\":1091:1096   */\n      dup4\n        /* \"#utility.yul\":1087:1101   */\n      add\n        /* \"#utility.yul\":1083:1111   */\n      and\n        /* \"#utility.yul\":1073:1111   */\n      swap1\n      pop\n        /* \"#utility.yul\":1015:1117   */\n      swap2\n      swap1\n      pop\n      jump\t// out\n        /* \"#utility.yul\":1123:1303   */\n    tag_323:\n        /* \"#utility.yul\":1171:1248   */\n      0x4e487b7100000000000000000000000000000000000000000000000000000000\n        /* \"#utility.yul\":1168:1169   */\n      0x00\n        /* \"#utility.yul\":1161:1249   */\n      mstore\n        /* \"#utility.yul\":1268:1272   */\n      0x41\n        /* \"#utility.yul\":1265:1266   */\n      0x04\n        /* \"#utility.yul\":1258:1273   */\n      mstore\n        /* \"#utility.yul\":1292:1296   */\n      0x24\n        /* \"#utility.yul\":1289:1290   */\n      0x00\n        /* \"#utility.yul\":1282:1297   */\n      revert\n        /* \"#utility.yul\":1309:1590   */\n    tag_324:\n        /* \"#utility.yul\":1392:1419   */\n      tag_390\n        /* \"#utility.yul\":1414:1418   */\n      dup3\n        /* \"#utility.yul\":1392:1419   */\n      tag_322\n      jump\t// in\n    tag_390:\n        /* \"#utility.yul\":1384:1390   */\n      dup2\n        /* \"#utility.yul\":1380:1420   */\n      add\n        /* \"#utility.yul\":1522:1528   */\n      dup2\n        /* \"#utility.yul\":1510:1520   */\n      dup2\n        /* \"#utility.yul\":1507:1529   */\n      lt\n        /* \"#utility.yul\":1486:1504   */\n      0xffffffffffffffff\n        /* \"#utility.yul\":1474:1484   */\n      dup3\n        /* \"#utility.yul\":1471:1505   */\n      gt\n        /* \"#utility.yul\":1468:1530   */\n      or\n        /* \"#utility.yul\":1465:1553   */\n      iszero\n      tag_391\n      jumpi\n        /* \"#utility.yul\":1533:1551   */\n      tag_392\n      tag_323\n      jump\t// in\n    tag_392:\n        /* \"#utility.yul\":1465:1553   */\n    tag_391:\n        /* \"#utility.yul\":1573:1583   */\n      dup1\n        /* \"#utility.yul\":1569:1571   */\n      0x40\n        /* \"#utility.yul\":1562:1584   */\n      mstore\n        /* \"#utility.yul\":1352:1590   */\n      pop\n        /* \"#utility.yul\":1309:1590   */\n      pop\n      pop\n      jump\t// out\n        /* \"#utility.yul\":1596:1725   */\n    tag_325:\n        /* \"#utility.yul\":1630:1636   */\n      0x00\n        /* \"#utility.yul\":1657:1677   */\n      tag_394\n      tag_317\n      jump\t// in\n    tag_394:\n        /* \"#utility.yul\":1647:1677   */\n      swap1\n      pop\n        /* \"#utility.yul\":1686:1719   */\n      tag_395\n        /* \"#utility.yul\":1714:1718   */\n      dup3\n        /* \"#utility.yul\":1706:1712   */\n      dup3\n        /* \"#utility.yul\":1686:1719   */\n      tag_324\n      jump\t// in\n    tag_395:\n        /* \"#utility.yul\":1596:1725   */\n      swap2\n      swap1\n      pop\n      jump\t// out\n        /* \"#utility.yul\":1731:2039   */\n    tag_326:\n        /* \"#utility.yul\":1793:1797   */\n      0x00\n        /* \"#utility.yul\":1883:1901   */\n      0xffffffffffffffff\n        /* \"#utility.yul\":1875:1881   */\n      dup3\n        /* \"#utility.yul\":1872:1902   */\n      gt\n        /* \"#utility.yul\":1869:1925   */\n      iszero\n      tag_397\n      jumpi\n        /* \"#utility.yul\":1905:1923   */\n      tag_398\n      tag_323\n      jump\t// in\n    tag_398:\n        /* \"#utility.yul\":1869:1925   */\n    tag_397:\n        /* \"#utility.yul\":1943:1972   */\n      tag_399\n        /* \"#utility.yul\":1965:1971   */\n      dup3\n        /* \"#utility.yul\":1943:1972   */\n      tag_322\n      jump\t// in\n    tag_399:\n        /* \"#utility.yul\":1935:1972   */\n      swap1\n      pop\n        /* \"#utility.yul\":2027:2031   */\n      0x20\n        /* \"#utility.yul\":2021:2025   */\n      dup2\n        /* \"#utility.yul\":2017:2032   */\n      add\n        /* \"#utility.yul\":2009:2032   */\n      swap1\n      pop\n        /* \"#utility.yul\":1731:2039   */\n      swap2\n      swap1\n      pop\n      jump\t// out\n        /* \"#utility.yul\":2045:2191   */\n    tag_327:\n        /* \"#utility.yul\":2142:2148   */\n      dup3\n        /* \"#utility.yul\":2137:2140   */\n      dup2\n        /* \"#utility.yul\":2132:2135   */\n      dup4\n        /* \"#utility.yul\":2119:2149   */\n      calldatacopy\n        /* \"#utility.yul\":2183:2184   */\n      0x00\n        /* \"#utility.yul\":2174:2180   */\n      dup4\n        /* \"#utility.yul\":2169:2172   */\n      dup4\n        /* \"#utility.yul\":2165:2181   */\n      add\n        /* \"#utility.yul\":2158:2185   */\n      mstore\n        /* \"#utility.yul\":2045:2191   */\n      pop\n      pop\n      pop\n      jump\t// out\n        /* \"#utility.yul\":2197:2622   */\n    tag_328:\n        /* \"#utility.yul\":2275:2280   */\n      0x00\n        /* \"#utility.yul\":2300:2366   */\n      tag_402\n        /* \"#utility.yul\":2316:2365   */\n      tag_403\n        /* \"#utility.yul\":2358:2364   */\n      dup5\n        /* \"#utility.yul\":2316:2365   */\n      tag_326\n      jump\t// in\n    tag_403:\n        /* \"#utility.yul\":2300:2366   */\n      tag_325\n      jump\t// in\n    tag_402:\n        /* \"#utility.yul\":2291:2366   */\n      swap1\n      pop\n        /* \"#utility.yul\":2389:2395   */\n      dup3\n        /* \"#utility.yul\":2382:2387   */\n      dup2\n        /* \"#utility.yul\":2375:2396   */\n      mstore\n        /* \"#utility.yul\":2427:2431   */\n      0x20\n        /* \"#utility.yul\":2420:2425   */\n      dup2\n        /* \"#utility.yul\":2416:2432   */\n      add\n        /* \"#utility.yul\":2465:2468   */\n      dup5\n        /* \"#utility.yul\":2456:2462   */\n      dup5\n        /* \"#utility.yul\":2451:2454   */\n      dup5\n        /* \"#utility.yul\":2447:2463   */\n      add\n        /* \"#utility.yul\":2444:2469   */\n      gt\n        /* \"#utility.yul\":2441:2553   */\n      iszero\n      tag_404\n      jumpi\n        /* \"#utility.yul\":2472:2551   */\n      tag_405\n      tag_321\n      jump\t// in\n    tag_405:\n        /* \"#utility.yul\":2441:2553   */\n    tag_404:\n        /* \"#utility.yul\":2562:2616   */\n      tag_406\n        /* \"#utility.yul\":2609:2615   */\n      dup5\n        /* \"#utility.yul\":2604:2607   */\n      dup3\n        /* \"#utility.yul\":2599:2602   */\n      dup6\n        /* \"#utility.yul\":2562:2616   */\n      tag_327\n      jump\t// in\n    tag_406:\n        /* \"#utility.yul\":2281:2622   */\n      pop\n        /* \"#utility.yul\":2197:2622   */\n      swap4\n      swap3\n      pop\n      pop\n      pop\n      jump\t// out\n        /* \"#utility.yul\":2642:2982   */\n    tag_329:\n        /* \"#utility.yul\":2698:2703   */\n      0x00\n        /* \"#utility.yul\":2747:2750   */\n      dup3\n        /* \"#utility.yul\":2740:2744   */\n      0x1f\n        /* \"#utility.yul\":2732:2738   */\n      dup4\n        /* \"#utility.yul\":2728:2745   */\n      add\n        /* \"#utility.yul\":2724:2751   */\n      slt\n        /* \"#utility.yul\":2714:2836   */\n      tag_408\n      jumpi\n        /* \"#utility.yul\":2755:2834   */\n      tag_409\n      tag_320\n      jump\t// in\n    tag_409:\n        /* \"#utility.yul\":2714:2836   */\n    tag_408:\n        /* \"#utility.yul\":2872:2878   */\n      dup2\n        /* \"#utility.yul\":2859:2879   */\n      calldataload\n        /* \"#utility.yul\":2897:2976   */\n      tag_410\n        /* \"#utility.yul\":2972:2975   */\n      dup5\n        /* \"#utility.yul\":2964:2970   */\n      dup3\n        /* \"#utility.yul\":2957:2961   */\n      0x20\n        /* \"#utility.yul\":2949:2955   */\n      dup7\n        /* \"#utility.yul\":2945:2962   */\n      add\n        /* \"#utility.yul\":2897:2976   */\n      tag_328\n      jump\t// in\n    tag_410:\n        /* \"#utility.yul\":2888:2976   */\n      swap2\n      pop\n        /* \"#utility.yul\":2704:2982   */\n      pop\n        /* \"#utility.yul\":2642:2982   */\n      swap3\n      swap2\n      pop\n      pop\n      jump\t// out\n        /* \"#utility.yul\":2988:3497   */\n    tag_24:\n        /* \"#utility.yul\":3057:3063   */\n      0x00\n        /* \"#utility.yul\":3106:3108   */\n      0x20\n        /* \"#utility.yul\":3094:3103   */\n      dup3\n        /* \"#utility.yul\":3085:3092   */\n      dup5\n        /* \"#utility.yul\":3081:3104   */\n      sub\n        /* \"#utility.yul\":3077:3109   */\n      slt\n        /* \"#utility.yul\":3074:3193   */\n      iszero\n      tag_412\n      jumpi\n        /* \"#utility.yul\":3112:3191   */\n      tag_413\n      tag_318\n      jump\t// in\n    tag_413:\n        /* \"#utility.yul\":3074:3193   */\n    tag_412:\n        /* \"#utility.yul\":3260:3261   */\n      0x00\n        /* \"#utility.yul\":3249:3258   */\n      dup3\n        /* \"#utility.yul\":3245:3262   */\n      add\n        /* \"#utility.yul\":3232:3263   */\n      calldataload\n        /* \"#utility.yul\":3290:3308   */\n      0xffffffffffffffff\n        /* \"#utility.yul\":3282:3288   */\n      dup2\n        /* \"#utility.yul\":3279:3309   */\n      gt\n        /* \"#utility.yul\":3276:3393   */\n      iszero\n      tag_414\n      jumpi\n        /* \"#utility.yul\":3312:3391   */\n      tag_415\n      tag_319\n      jump\t// in\n    tag_415:\n        /* \"#utility.yul\":3276:3393   */\n    tag_414:\n        /* \"#utility.yul\":3417:3480   */\n      tag_416\n        /* \"#utility.yul\":3472:3479   */\n      dup5\n        /* \"#utility.yul\":3463:3469   */\n      dup3\n        /* \"#utility.yul\":3452:3461   */\n      dup6\n        /* \"#utility.yul\":3448:3470   */\n      add\n        /* \"#utility.yul\":3417:3480   */\n      tag_329\n      jump\t// in\n    tag_416:\n        /* \"#utility.yul\":3407:3480   */\n      swap2\n      pop\n        /* \"#utility.yul\":3203:3490   */\n      pop\n        /* \"#utility.yul\":2988:3497   */\n      swap3\n      swap2\n      pop\n      pop\n      jump\t// out\n        /* \"#utility.yul\":3503:3602   */\n    tag_330:\n        /* \"#utility.yul\":3555:3561   */\n      0x00\n        /* \"#utility.yul\":3589:3594   */\n      dup2\n        /* \"#utility.yul\":3583:3595   */\n      mload\n        /* \"#utility.yul\":3573:3595   */\n      swap1\n      pop\n        /* \"#utility.yul\":3503:3602   */\n      swap2\n      swap1\n      pop\n      jump\t// out\n        /* \"#utility.yul\":3608:3777   */\n    tag_331:\n        /* \"#utility.yul\":3692:3703   */\n      0x00\n        /* \"#utility.yul\":3726:3732   */\n      dup3\n        /* \"#utility.yul\":3721:3724   */\n      dup3\n        /* \"#utility.yul\":3714:3733   */\n      mstore\n        /* \"#utility.yul\":3766:3770   */\n      0x20\n        /* \"#utility.yul\":3761:3764   */\n      dup3\n        /* \"#utility.yul\":3757:3771   */\n      add\n        /* \"#utility.yul\":3742:3771   */\n      swap1\n      pop\n        /* \"#utility.yul\":3608:3777   */\n      swap3\n      swap2\n      pop\n      pop\n      jump\t// out\n        /* \"#utility.yul\":3783:4029   */\n    tag_332:\n        /* \"#utility.yul\":3864:3865   */\n      0x00\n        /* \"#utility.yul\":3874:3987   */\n    tag_420:\n        /* \"#utility.yul\":3888:3894   */\n      dup4\n        /* \"#utility.yul\":3885:3886   */\n      dup2\n        /* \"#utility.yul\":3882:3895   */\n      lt\n        /* \"#utility.yul\":3874:3987   */\n      iszero\n      tag_422\n      jumpi\n        /* \"#utility.yul\":3973:3974   */\n      dup1\n        /* \"#utility.yul\":3968:3971   */\n      dup3\n        /* \"#utility.yul\":3964:3975   */\n      add\n        /* \"#utility.yul\":3958:3976   */\n      mload\n        /* \"#utility.yul\":3954:3955   */\n      dup2\n        /* \"#utility.yul\":3949:3952   */\n      dup5\n        /* \"#utility.yul\":3945:3956   */\n      add\n        /* \"#utility.yul\":3938:3977   */\n      mstore\n        /* \"#utility.yul\":3910:3912   */\n      0x20\n        /* \"#utility.yul\":3907:3908   */\n      dup2\n        /* \"#utility.yul\":3903:3913   */\n      add\n        /* \"#utility.yul\":3898:3913   */\n      swap1\n      pop\n        /* \"#utility.yul\":3874:3987   */\n      jump(tag_420)\n    tag_422:\n        /* \"#utility.yul\":4021:4022   */\n      0x00\n        /* \"#utility.yul\":4012:4018   */\n      dup5\n        /* \"#utility.yul\":4007:4010   */\n      dup5\n        /* \"#utility.yul\":4003:4019   */\n      add\n        /* \"#utility.yul\":3996:4023   */\n      mstore\n        /* \"#utility.yul\":3845:4029   */\n      pop\n        /* \"#utility.yul\":3783:4029   */\n      pop\n      pop\n      pop\n      jump\t// out\n        /* \"#utility.yul\":4035:4412   */\n    tag_333:\n        /* \"#utility.yul\":4123:4126   */\n      0x00\n        /* \"#utility.yul\":4151:4190   */\n      tag_424\n        /* \"#utility.yul\":4184:4189   */\n      dup3\n        /* \"#utility.yul\":4151:4190   */\n      tag_330\n      jump\t// in\n    tag_424:\n        /* \"#utility.yul\":4206:4277   */\n      tag_425\n        /* \"#utility.yul\":4270:4276   */\n      dup2\n        /* \"#utility.yul\":4265:4268   */\n      dup6\n        /* \"#utility.yul\":4206:4277   */\n      tag_331\n      jump\t// in\n    tag_425:\n        /* \"#utility.yul\":4199:4277   */\n      swap4\n      pop\n        /* \"#utility.yul\":4286:4351   */\n      tag_426\n        /* \"#utility.yul\":4344:4350   */\n      dup2\n        /* \"#utility.yul\":4339:4342   */\n      dup6\n        /* \"#utility.yul\":4332:4336   */\n      0x20\n        /* \"#utility.yul\":4325:4330   */\n      dup7\n        /* \"#utility.yul\":4321:4337   */\n      add\n        /* \"#utility.yul\":4286:4351   */\n      tag_332\n      jump\t// in\n    tag_426:\n        /* \"#utility.yul\":4376:4405   */\n      tag_427\n        /* \"#utility.yul\":4398:4404   */\n      dup2\n        /* \"#utility.yul\":4376:4405   */\n      tag_322\n      jump\t// in\n    tag_427:\n        /* \"#utility.yul\":4371:4374   */\n      dup5\n        /* \"#utility.yul\":4367:4406   */\n      add\n        /* \"#utility.yul\":4360:4406   */\n      swap2\n      pop\n        /* \"#utility.yul\":4127:4412   */\n      pop\n        /* \"#utility.yul\":4035:4412   */\n      swap3\n      swap2\n      pop\n      pop\n      jump\t// out\n        /* \"#utility.yul\":4418:4544   */\n    tag_334:\n        /* \"#utility.yul\":4455:4462   */\n      0x00\n        /* \"#utility.yul\":4495:4537   */\n      0xffffffffffffffffffffffffffffffffffffffff\n        /* \"#utility.yul\":4488:4493   */\n      dup3\n        /* \"#utility.yul\":4484:4538   */\n      and\n        /* \"#utility.yul\":4473:4538   */\n      swap1\n      pop\n        /* \"#utility.yul\":4418:4544   */\n      swap2\n      swap1\n      pop\n      jump\t// out\n        /* \"#utility.yul\":4550:4646   */\n    tag_335:\n        /* \"#utility.yul\":4587:4594   */\n      0x00\n        /* \"#utility.yul\":4616:4640   */\n      tag_430\n        /* \"#utility.yul\":4634:4639   */\n      dup3\n        /* \"#utility.yul\":4616:4640   */\n      tag_334\n      jump\t// in\n    tag_430:\n        /* \"#utility.yul\":4605:4640   */\n      swap1\n      pop\n        /* \"#utility.yul\":4550:4646   */\n      swap2\n      swap1\n      pop\n      jump\t// out\n        /* \"#utility.yul\":4652:4770   */\n    tag_336:\n        /* \"#utility.yul\":4739:4763   */\n      tag_432\n        /* \"#utility.yul\":4757:4762   */\n      dup2\n        /* \"#utility.yul\":4739:4763   */\n      tag_335\n      jump\t// in\n    tag_432:\n        /* \"#utility.yul\":4734:4737   */\n      dup3\n        /* \"#utility.yul\":4727:4764   */\n      mstore\n        /* \"#utility.yul\":4652:4770   */\n      pop\n      pop\n      jump\t// out\n        /* \"#utility.yul\":4776:4935   */\n    tag_337:\n        /* \"#utility.yul\":4850:4861   */\n      0x00\n        /* \"#utility.yul\":4884:4890   */\n      dup3\n        /* \"#utility.yul\":4879:4882   */\n      dup3\n        /* \"#utility.yul\":4872:4891   */\n      mstore\n        /* \"#utility.yul\":4924:4928   */\n      0x20\n        /* \"#utility.yul\":4919:4922   */\n      dup3\n        /* \"#utility.yul\":4915:4929   */\n      add\n        /* \"#utility.yul\":4900:4929   */\n      swap1\n      pop\n        /* \"#utility.yul\":4776:4935   */\n      swap3\n      swap2\n      pop\n      pop\n      jump\t// out\n        /* \"#utility.yul\":4941:5298   */\n    tag_338:\n        /* \"#utility.yul\":5019:5022   */\n      0x00\n        /* \"#utility.yul\":5047:5086   */\n      tag_435\n        /* \"#utility.yul\":5080:5085   */\n      dup3\n        /* \"#utility.yul\":5047:5086   */\n      tag_330\n      jump\t// in\n    tag_435:\n        /* \"#utility.yul\":5102:5163   */\n      tag_436\n        /* \"#utility.yul\":5156:5162   */\n      dup2\n        /* \"#utility.yul\":5151:5154   */\n      dup6\n        /* \"#utility.yul\":5102:5163   */\n      tag_337\n      jump\t// in\n    tag_436:\n        /* \"#utility.yul\":5095:5163   */\n      swap4\n      pop\n        /* \"#utility.yul\":5172:5237   */\n      tag_437\n        /* \"#utility.yul\":5230:5236   */\n      dup2\n        /* \"#utility.yul\":5225:5228   */\n      dup6\n        /* \"#utility.yul\":5218:5222   */\n      0x20\n        /* \"#utility.yul\":5211:5216   */\n      dup7\n        /* \"#utility.yul\":5207:5223   */\n      add\n        /* \"#utility.yul\":5172:5237   */\n      tag_332\n      jump\t// in\n    tag_437:\n        /* \"#utility.yul\":5262:5291   */\n      tag_438\n        /* \"#utility.yul\":5284:5290   */\n      dup2\n        /* \"#utility.yul\":5262:5291   */\n      tag_322\n      jump\t// in\n    tag_438:\n        /* \"#utility.yul\":5257:5260   */\n      dup5\n        /* \"#utility.yul\":5253:5292   */\n      add\n        /* \"#utility.yul\":5246:5292   */\n      swap2\n      pop\n        /* \"#utility.yul\":5023:5298   */\n      pop\n        /* \"#utility.yul\":4941:5298   */\n      swap3\n      swap2\n      pop\n      pop\n      jump\t// out\n        /* \"#utility.yul\":5304:5484   */\n    tag_94:\n        /* \"#utility.yul\":5352:5429   */\n      0x4e487b7100000000000000000000000000000000000000000000000000000000\n        /* \"#utility.yul\":5349:5350   */\n      0x00\n        /* \"#utility.yul\":5342:5430   */\n      mstore\n        /* \"#utility.yul\":5449:5453   */\n      0x21\n        /* \"#utility.yul\":5446:5447   */\n      0x04\n        /* \"#utility.yul\":5439:5454   */\n      mstore\n        /* \"#utility.yul\":5473:5477   */\n      0x24\n        /* \"#utility.yul\":5470:5471   */\n      0x00\n        /* \"#utility.yul\":5463:5478   */\n      revert\n        /* \"#utility.yul\":5490:5607   */\n    tag_339:\n        /* \"#utility.yul\":5575:5576   */\n      0x05\n        /* \"#utility.yul\":5568:5573   */\n      dup2\n        /* \"#utility.yul\":5565:5577   */\n      lt\n        /* \"#utility.yul\":5555:5601   */\n      tag_441\n      jumpi\n        /* \"#utility.yul\":5581:5599   */\n      tag_442\n      tag_94\n      jump\t// in\n    tag_442:\n        /* \"#utility.yul\":5555:5601   */\n    tag_441:\n        /* \"#utility.yul\":5490:5607   */\n      pop\n      jump\t// out\n        /* \"#utility.yul\":5613:5748   */\n    tag_340:\n        /* \"#utility.yul\":5662:5669   */\n      0x00\n        /* \"#utility.yul\":5691:5696   */\n      dup2\n        /* \"#utility.yul\":5680:5696   */\n      swap1\n      pop\n        /* \"#utility.yul\":5697:5742   */\n      tag_444\n        /* \"#utility.yul\":5736:5741   */\n      dup3\n        /* \"#utility.yul\":5697:5742   */\n      tag_339\n      jump\t// in\n    tag_444:\n        /* \"#utility.yul\":5613:5748   */\n      swap2\n      swap1\n      pop\n      jump\t// out\n        /* \"#utility.yul\":5754:5889   */\n    tag_341:\n        /* \"#utility.yul\":5814:5823   */\n      0x00\n        /* \"#utility.yul\":5847:5883   */\n      tag_446\n        /* \"#utility.yul\":5877:5882   */\n      dup3\n        /* \"#utility.yul\":5847:5883   */\n      tag_340\n      jump\t// in\n    tag_446:\n        /* \"#utility.yul\":5834:5883   */\n      swap1\n      pop\n        /* \"#utility.yul\":5754:5889   */\n      swap2\n      swap1\n      pop\n      jump\t// out\n        /* \"#utility.yul\":5895:6036   */\n    tag_342:\n        /* \"#utility.yul\":5982:6029   */\n      tag_448\n        /* \"#utility.yul\":6023:6028   */\n      dup2\n        /* \"#utility.yul\":5982:6029   */\n      tag_341\n      jump\t// in\n    tag_448:\n        /* \"#utility.yul\":5977:5980   */\n      dup3\n        /* \"#utility.yul\":5970:6030   */\n      mstore\n        /* \"#utility.yul\":5895:6036   */\n      pop\n      pop\n      jump\t// out\n        /* \"#utility.yul\":6112:7557   */\n    tag_343:\n        /* \"#utility.yul\":6229:6232   */\n      0x00\n        /* \"#utility.yul\":6265:6269   */\n      0xc0\n        /* \"#utility.yul\":6260:6263   */\n      dup4\n        /* \"#utility.yul\":6256:6270   */\n      add\n        /* \"#utility.yul\":6363:6367   */\n      0x00\n        /* \"#utility.yul\":6356:6361   */\n      dup4\n        /* \"#utility.yul\":6352:6368   */\n      add\n        /* \"#utility.yul\":6346:6369   */\n      mload\n        /* \"#utility.yul\":6416:6419   */\n      dup5\n        /* \"#utility.yul\":6410:6414   */\n      dup3\n        /* \"#utility.yul\":6406:6420   */\n      sub\n        /* \"#utility.yul\":6399:6403   */\n      0x00\n        /* \"#utility.yul\":6394:6397   */\n      dup7\n        /* \"#utility.yul\":6390:6404   */\n      add\n        /* \"#utility.yul\":6383:6421   */\n      mstore\n        /* \"#utility.yul\":6442:6515   */\n      tag_450\n        /* \"#utility.yul\":6510:6514   */\n      dup3\n        /* \"#utility.yul\":6496:6508   */\n      dup3\n        /* \"#utility.yul\":6442:6515   */\n      tag_338\n      jump\t// in\n    tag_450:\n        /* \"#utility.yul\":6434:6515   */\n      swap2\n      pop\n        /* \"#utility.yul\":6280:6526   */\n      pop\n        /* \"#utility.yul\":6609:6613   */\n      0x20\n        /* \"#utility.yul\":6602:6607   */\n      dup4\n        /* \"#utility.yul\":6598:6614   */\n      add\n        /* \"#utility.yul\":6592:6615   */\n      mload\n        /* \"#utility.yul\":6662:6665   */\n      dup5\n        /* \"#utility.yul\":6656:6660   */\n      dup3\n        /* \"#utility.yul\":6652:6666   */\n      sub\n        /* \"#utility.yul\":6645:6649   */\n      0x20\n        /* \"#utility.yul\":6640:6643   */\n      dup7\n        /* \"#utility.yul\":6636:6650   */\n      add\n        /* \"#utility.yul\":6629:6667   */\n      mstore\n        /* \"#utility.yul\":6688:6761   */\n      tag_451\n        /* \"#utility.yul\":6756:6760   */\n      dup3\n        /* \"#utility.yul\":6742:6754   */\n      dup3\n        /* \"#utility.yul\":6688:6761   */\n      tag_338\n      jump\t// in\n    tag_451:\n        /* \"#utility.yul\":6680:6761   */\n      swap2\n      pop\n        /* \"#utility.yul\":6536:6772   */\n      pop\n        /* \"#utility.yul\":6855:6859   */\n      0x40\n        /* \"#utility.yul\":6848:6853   */\n      dup4\n        /* \"#utility.yul\":6844:6860   */\n      add\n        /* \"#utility.yul\":6838:6861   */\n      mload\n        /* \"#utility.yul\":6874:6947   */\n      tag_452\n        /* \"#utility.yul\":6941:6945   */\n      0x40\n        /* \"#utility.yul\":6936:6939   */\n      dup7\n        /* \"#utility.yul\":6932:6946   */\n      add\n        /* \"#utility.yul\":6918:6930   */\n      dup3\n        /* \"#utility.yul\":6874:6947   */\n      tag_342\n      jump\t// in\n    tag_452:\n        /* \"#utility.yul\":6782:6957   */\n      pop\n        /* \"#utility.yul\":7044:7048   */\n      0x60\n        /* \"#utility.yul\":7037:7042   */\n      dup4\n        /* \"#utility.yul\":7033:7049   */\n      add\n        /* \"#utility.yul\":7027:7050   */\n      mload\n        /* \"#utility.yul\":7063:7136   */\n      tag_453\n        /* \"#utility.yul\":7130:7134   */\n      0x60\n        /* \"#utility.yul\":7125:7128   */\n      dup7\n        /* \"#utility.yul\":7121:7135   */\n      add\n        /* \"#utility.yul\":7107:7119   */\n      dup3\n        /* \"#utility.yul\":7063:7136   */\n      tag_342\n      jump\t// in\n    tag_453:\n        /* \"#utility.yul\":6967:7146   */\n      pop\n        /* \"#utility.yul\":7234:7238   */\n      0x80\n        /* \"#utility.yul\":7227:7232   */\n      dup4\n        /* \"#utility.yul\":7223:7239   */\n      add\n        /* \"#utility.yul\":7217:7240   */\n      mload\n        /* \"#utility.yul\":7253:7326   */\n      tag_454\n        /* \"#utility.yul\":7320:7324   */\n      0x80\n        /* \"#utility.yul\":7315:7318   */\n      dup7\n        /* \"#utility.yul\":7311:7325   */\n      add\n        /* \"#utility.yul\":7297:7309   */\n      dup3\n        /* \"#utility.yul\":7253:7326   */\n      tag_342\n      jump\t// in\n    tag_454:\n        /* \"#utility.yul\":7156:7336   */\n      pop\n        /* \"#utility.yul\":7428:7432   */\n      0xa0\n        /* \"#utility.yul\":7421:7426   */\n      dup4\n        /* \"#utility.yul\":7417:7433   */\n      add\n        /* \"#utility.yul\":7411:7434   */\n      mload\n        /* \"#utility.yul\":7447:7520   */\n      tag_455\n        /* \"#utility.yul\":7514:7518   */\n      0xa0\n        /* \"#utility.yul\":7509:7512   */\n      dup7\n        /* \"#utility.yul\":7505:7519   */\n      add\n        /* \"#utility.yul\":7491:7503   */\n      dup3\n        /* \"#utility.yul\":7447:7520   */\n      tag_342\n      jump\t// in\n    tag_455:\n        /* \"#utility.yul\":7346:7530   */\n      pop\n        /* \"#utility.yul\":7547:7551   */\n      dup1\n        /* \"#utility.yul\":7540:7551   */\n      swap2\n      pop\n        /* \"#utility.yul\":6234:7557   */\n      pop\n        /* \"#utility.yul\":6112:7557   */\n      swap3\n      swap2\n      pop\n      pop\n      jump\t// out\n        /* \"#utility.yul\":7563:7653   */\n    tag_344:\n        /* \"#utility.yul\":7597:7604   */\n      0x00\n        /* \"#utility.yul\":7640:7645   */\n      dup2\n        /* \"#utility.yul\":7633:7646   */\n      iszero\n        /* \"#utility.yul\":7626:7647   */\n      iszero\n        /* \"#utility.yul\":7615:7647   */\n      swap1\n      pop\n        /* \"#utility.yul\":7563:7653   */\n      swap2\n      swap1\n      pop\n      jump\t// out\n        /* \"#utility.yul\":7659:7768   */\n    tag_345:\n        /* \"#utility.yul\":7740:7761   */\n      tag_458\n        /* \"#utility.yul\":7755:7760   */\n      dup2\n        /* \"#utility.yul\":7740:7761   */\n      tag_344\n      jump\t// in\n    tag_458:\n        /* \"#utility.yul\":7735:7738   */\n      dup3\n        /* \"#utility.yul\":7728:7762   */\n      mstore\n        /* \"#utility.yul\":7659:7768   */\n      pop\n      pop\n      jump\t// out\n        /* \"#utility.yul\":7774:9627   */\n    tag_27:\n        /* \"#utility.yul\":8279:8283   */\n      0x00\n        /* \"#utility.yul\":8317:8320   */\n      0x0180\n        /* \"#utility.yul\":8306:8315   */\n      dup3\n        /* \"#utility.yul\":8302:8321   */\n      add\n        /* \"#utility.yul\":8294:8321   */\n      swap1\n      pop\n        /* \"#utility.yul\":8367:8376   */\n      dup2\n        /* \"#utility.yul\":8361:8365   */\n      dup2\n        /* \"#utility.yul\":8357:8377   */\n      sub\n        /* \"#utility.yul\":8353:8354   */\n      0x00\n        /* \"#utility.yul\":8342:8351   */\n      dup4\n        /* \"#utility.yul\":8338:8355   */\n      add\n        /* \"#utility.yul\":8331:8378   */\n      mstore\n        /* \"#utility.yul\":8395:8473   */\n      tag_460\n        /* \"#utility.yul\":8468:8472   */\n      dup2\n        /* \"#utility.yul\":8459:8465   */\n      dup16\n        /* \"#utility.yul\":8395:8473   */\n      tag_333\n      jump\t// in\n    tag_460:\n        /* \"#utility.yul\":8387:8473   */\n      swap1\n      pop\n        /* \"#utility.yul\":8483:8555   */\n      tag_461\n        /* \"#utility.yul\":8551:8553   */\n      0x20\n        /* \"#utility.yul\":8540:8549   */\n      dup4\n        /* \"#utility.yul\":8536:8554   */\n      add\n        /* \"#utility.yul\":8527:8533   */\n      dup15\n        /* \"#utility.yul\":8483:8555   */\n      tag_316\n      jump\t// in\n    tag_461:\n        /* \"#utility.yul\":8565:8637   */\n      tag_462\n        /* \"#utility.yul\":8633:8635   */\n      0x40\n        /* \"#utility.yul\":8622:8631   */\n      dup4\n        /* \"#utility.yul\":8618:8636   */\n      add\n        /* \"#utility.yul\":8609:8615   */\n      dup14\n        /* \"#utility.yul\":8565:8637   */\n      tag_316\n      jump\t// in\n    tag_462:\n        /* \"#utility.yul\":8647:8719   */\n      tag_463\n        /* \"#utility.yul\":8715:8717   */\n      0x60\n        /* \"#utility.yul\":8704:8713   */\n      dup4\n        /* \"#utility.yul\":8700:8718   */\n      add\n        /* \"#utility.yul\":8691:8697   */\n      dup13\n        /* \"#utility.yul\":8647:8719   */\n      tag_316\n      jump\t// in\n    tag_463:\n        /* \"#utility.yul\":8729:8802   */\n      tag_464\n        /* \"#utility.yul\":8797:8800   */\n      0x80\n        /* \"#utility.yul\":8786:8795   */\n      dup4\n        /* \"#utility.yul\":8782:8801   */\n      add\n        /* \"#utility.yul\":8773:8779   */\n      dup12\n        /* \"#utility.yul\":8729:8802   */\n      tag_336\n      jump\t// in\n    tag_464:\n        /* \"#utility.yul\":8812:8885   */\n      tag_465\n        /* \"#utility.yul\":8880:8883   */\n      0xa0\n        /* \"#utility.yul\":8869:8878   */\n      dup4\n        /* \"#utility.yul\":8865:8884   */\n      add\n        /* \"#utility.yul\":8856:8862   */\n      dup11\n        /* \"#utility.yul\":8812:8885   */\n      tag_316\n      jump\t// in\n    tag_465:\n        /* \"#utility.yul\":8895:8968   */\n      tag_466\n        /* \"#utility.yul\":8963:8966   */\n      0xc0\n        /* \"#utility.yul\":8952:8961   */\n      dup4\n        /* \"#utility.yul\":8948:8967   */\n      add\n        /* \"#utility.yul\":8939:8945   */\n      dup10\n        /* \"#utility.yul\":8895:8968   */\n      tag_316\n      jump\t// in\n    tag_466:\n        /* \"#utility.yul\":8978:9051   */\n      tag_467\n        /* \"#utility.yul\":9046:9049   */\n      0xe0\n        /* \"#utility.yul\":9035:9044   */\n      dup4\n        /* \"#utility.yul\":9031:9050   */\n      add\n        /* \"#utility.yul\":9022:9028   */\n      dup9\n        /* \"#utility.yul\":8978:9051   */\n      tag_336\n      jump\t// in\n    tag_467:\n        /* \"#utility.yul\":9099:9108   */\n      dup2\n        /* \"#utility.yul\":9093:9097   */\n      dup2\n        /* \"#utility.yul\":9089:9109   */\n      sub\n        /* \"#utility.yul\":9083:9086   */\n      0x0100\n        /* \"#utility.yul\":9072:9081   */\n      dup4\n        /* \"#utility.yul\":9068:9087   */\n      add\n        /* \"#utility.yul\":9061:9110   */\n      mstore\n        /* \"#utility.yul\":9127:9233   */\n      tag_468\n        /* \"#utility.yul\":9228:9232   */\n      dup2\n        /* \"#utility.yul\":9219:9225   */\n      dup8\n        /* \"#utility.yul\":9127:9233   */\n      tag_343\n      jump\t// in\n    tag_468:\n        /* \"#utility.yul\":9119:9233   */\n      swap1\n      pop\n        /* \"#utility.yul\":9281:9290   */\n      dup2\n        /* \"#utility.yul\":9275:9279   */\n      dup2\n        /* \"#utility.yul\":9271:9291   */\n      sub\n        /* \"#utility.yul\":9265:9268   */\n      0x0120\n        /* \"#utility.yul\":9254:9263   */\n      dup4\n        /* \"#utility.yul\":9250:9269   */\n      add\n        /* \"#utility.yul\":9243:9292   */\n      mstore\n        /* \"#utility.yul\":9309:9387   */\n      tag_469\n        /* \"#utility.yul\":9382:9386   */\n      dup2\n        /* \"#utility.yul\":9373:9379   */\n      dup7\n        /* \"#utility.yul\":9309:9387   */\n      tag_333\n      jump\t// in\n    tag_469:\n        /* \"#utility.yul\":9301:9387   */\n      swap1\n      pop\n        /* \"#utility.yul\":9397:9465   */\n      tag_470\n        /* \"#utility.yul\":9460:9463   */\n      0x0140\n        /* \"#utility.yul\":9449:9458   */\n      dup4\n        /* \"#utility.yul\":9445:9464   */\n      add\n        /* \"#utility.yul\":9435:9442   */\n      dup6\n        /* \"#utility.yul\":9397:9465   */\n      tag_345\n      jump\t// in\n    tag_470:\n        /* \"#utility.yul\":9513:9522   */\n      dup2\n        /* \"#utility.yul\":9507:9511   */\n      dup2\n        /* \"#utility.yul\":9503:9523   */\n      sub\n        /* \"#utility.yul\":9497:9500   */\n      0x0160\n        /* \"#utility.yul\":9486:9495   */\n      dup4\n        /* \"#utility.yul\":9482:9501   */\n      add\n        /* \"#utility.yul\":9475:9524   */\n      mstore\n        /* \"#utility.yul\":9541:9620   */\n      tag_471\n        /* \"#utility.yul\":9615:9619   */\n      dup2\n        /* \"#utility.yul\":9605:9612   */\n      dup5\n        /* \"#utility.yul\":9541:9620   */\n      tag_333\n      jump\t// in\n    tag_471:\n        /* \"#utility.yul\":9533:9620   */\n      swap1\n      pop\n        /* \"#utility.yul\":7774:9627   */\n      swap14\n      swap13\n      pop\n      pop\n      pop\n      pop\n      pop\n      pop\n      pop\n      pop\n      pop\n      pop\n      pop\n      pop\n      pop\n      jump\t// out\n        /* \"#utility.yul\":9633:9855   */\n    tag_31:\n        /* \"#utility.yul\":9726:9730   */\n      0x00\n        /* \"#utility.yul\":9764:9766   */\n      0x20\n        /* \"#utility.yul\":9753:9762   */\n      dup3\n        /* \"#utility.yul\":9749:9767   */\n      add\n        /* \"#utility.yul\":9741:9767   */\n      swap1\n      pop\n        /* \"#utility.yul\":9777:9848   */\n      tag_473\n        /* \"#utility.yul\":9845:9846   */\n      0x00\n        /* \"#utility.yul\":9834:9843   */\n      dup4\n        /* \"#utility.yul\":9830:9847   */\n      add\n        /* \"#utility.yul\":9821:9827   */\n      dup5\n        /* \"#utility.yul\":9777:9848   */\n      tag_336\n      jump\t// in\n    tag_473:\n        /* \"#utility.yul\":9633:9855   */\n      swap3\n      swap2\n      pop\n      pop\n      jump\t// out\n        /* \"#utility.yul\":9861:10172   */\n    tag_346:\n        /* \"#utility.yul\":9938:9942   */\n      0x00\n        /* \"#utility.yul\":10028:10046   */\n      0xffffffffffffffff\n        /* \"#utility.yul\":10020:10026   */\n      dup3\n        /* \"#utility.yul\":10017:10047   */\n      gt\n        /* \"#utility.yul\":10014:10070   */\n      iszero\n      tag_475\n      jumpi\n        /* \"#utility.yul\":10050:10068   */\n      tag_476\n      tag_323\n      jump\t// in\n    tag_476:\n        /* \"#utility.yul\":10014:10070   */\n    tag_475:\n        /* \"#utility.yul\":10100:10104   */\n      0x20\n        /* \"#utility.yul\":10092:10098   */\n      dup3\n        /* \"#utility.yul\":10088:10105   */\n      mul\n        /* \"#utility.yul\":10080:10105   */\n      swap1\n      pop\n        /* \"#utility.yul\":10160:10164   */\n      0x20\n        /* \"#utility.yul\":10154:10158   */\n      dup2\n        /* \"#utility.yul\":10150:10165   */\n      add\n        /* \"#utility.yul\":10142:10165   */\n      swap1\n      pop\n        /* \"#utility.yul\":9861:10172   */\n      swap2\n      swap1\n      pop\n      jump\t// out\n        /* \"#utility.yul\":10178:10295   */\n    tag_347:\n        /* \"#utility.yul\":10287:10288   */\n      0x00\n        /* \"#utility.yul\":10284:10285   */\n      dup1\n        /* \"#utility.yul\":10277:10289   */\n      revert\n        /* \"#utility.yul\":10301:10423   */\n    tag_348:\n        /* \"#utility.yul\":10374:10398   */\n      tag_479\n        /* \"#utility.yul\":10392:10397   */\n      dup2\n        /* \"#utility.yul\":10374:10398   */\n      tag_335\n      jump\t// in\n    tag_479:\n        /* \"#utility.yul\":10367:10372   */\n      dup2\n        /* \"#utility.yul\":10364:10399   */\n      eq\n        /* \"#utility.yul\":10354:10417   */\n      tag_480\n      jumpi\n        /* \"#utility.yul\":10413:10414   */\n      0x00\n        /* \"#utility.yul\":10410:10411   */\n      dup1\n        /* \"#utility.yul\":10403:10415   */\n      revert\n        /* \"#utility.yul\":10354:10417   */\n    tag_480:\n        /* \"#utility.yul\":10301:10423   */\n      pop\n      jump\t// out\n        /* \"#utility.yul\":10429:10568   */\n    tag_349:\n        /* \"#utility.yul\":10475:10480   */\n      0x00\n        /* \"#utility.yul\":10513:10519   */\n      dup2\n        /* \"#utility.yul\":10500:10520   */\n      calldataload\n        /* \"#utility.yul\":10491:10520   */\n      swap1\n      pop\n        /* \"#utility.yul\":10529:10562   */\n      tag_482\n        /* \"#utility.yul\":10556:10561   */\n      dup2\n        /* \"#utility.yul\":10529:10562   */\n      tag_348\n      jump\t// in\n    tag_482:\n        /* \"#utility.yul\":10429:10568   */\n      swap3\n      swap2\n      pop\n      pop\n      jump\t// out\n        /* \"#utility.yul\":10591:11301   */\n    tag_350:\n        /* \"#utility.yul\":10687:10692   */\n      0x00\n        /* \"#utility.yul\":10712:10793   */\n      tag_484\n        /* \"#utility.yul\":10728:10792   */\n      tag_485\n        /* \"#utility.yul\":10785:10791   */\n      dup5\n        /* \"#utility.yul\":10728:10792   */\n      tag_346\n      jump\t// in\n    tag_485:\n        /* \"#utility.yul\":10712:10793   */\n      tag_325\n      jump\t// in\n    tag_484:\n        /* \"#utility.yul\":10703:10793   */\n      swap1\n      pop\n        /* \"#utility.yul\":10813:10818   */\n      dup1\n        /* \"#utility.yul\":10842:10848   */\n      dup4\n        /* \"#utility.yul\":10835:10840   */\n      dup3\n        /* \"#utility.yul\":10828:10849   */\n      mstore\n        /* \"#utility.yul\":10876:10880   */\n      0x20\n        /* \"#utility.yul\":10869:10874   */\n      dup3\n        /* \"#utility.yul\":10865:10881   */\n      add\n        /* \"#utility.yul\":10858:10881   */\n      swap1\n      pop\n        /* \"#utility.yul\":10929:10933   */\n      0x20\n        /* \"#utility.yul\":10921:10927   */\n      dup5\n        /* \"#utility.yul\":10917:10934   */\n      mul\n        /* \"#utility.yul\":10909:10915   */\n      dup4\n        /* \"#utility.yul\":10905:10935   */\n      add\n        /* \"#utility.yul\":10958:10961   */\n      dup6\n        /* \"#utility.yul\":10950:10956   */\n      dup2\n        /* \"#utility.yul\":10947:10962   */\n      gt\n        /* \"#utility.yul\":10944:11066   */\n      iszero\n      tag_486\n      jumpi\n        /* \"#utility.yul\":10977:11056   */\n      tag_487\n      tag_347\n      jump\t// in\n    tag_487:\n        /* \"#utility.yul\":10944:11066   */\n    tag_486:\n        /* \"#utility.yul\":11092:11098   */\n      dup4\n        /* \"#utility.yul\":11075:11295   */\n    tag_488:\n        /* \"#utility.yul\":11109:11115   */\n      dup2\n        /* \"#utility.yul\":11104:11107   */\n      dup2\n        /* \"#utility.yul\":11101:11116   */\n      lt\n        /* \"#utility.yul\":11075:11295   */\n      iszero\n      tag_490\n      jumpi\n        /* \"#utility.yul\":11184:11187   */\n      dup1\n        /* \"#utility.yul\":11213:11250   */\n      tag_491\n        /* \"#utility.yul\":11246:11249   */\n      dup9\n        /* \"#utility.yul\":11234:11244   */\n      dup3\n        /* \"#utility.yul\":11213:11250   */\n      tag_349\n      jump\t// in\n    tag_491:\n        /* \"#utility.yul\":11208:11211   */\n      dup5\n        /* \"#utility.yul\":11201:11251   */\n      mstore\n        /* \"#utility.yul\":11280:11284   */\n      0x20\n        /* \"#utility.yul\":11275:11278   */\n      dup5\n        /* \"#utility.yul\":11271:11285   */\n      add\n        /* \"#utility.yul\":11264:11285   */\n      swap4\n      pop\n        /* \"#utility.yul\":11151:11295   */\n      pop\n        /* \"#utility.yul\":11135:11139   */\n      0x20\n        /* \"#utility.yul\":11130:11133   */\n      dup2\n        /* \"#utility.yul\":11126:11140   */\n      add\n        /* \"#utility.yul\":11119:11140   */\n      swap1\n      pop\n        /* \"#utility.yul\":11075:11295   */\n      jump(tag_488)\n    tag_490:\n        /* \"#utility.yul\":11079:11100   */\n      pop\n        /* \"#utility.yul\":10693:11301   */\n      pop\n      pop\n        /* \"#utility.yul\":10591:11301   */\n      swap4\n      swap3\n      pop\n      pop\n      pop\n      jump\t// out\n        /* \"#utility.yul\":11324:11694   */\n    tag_351:\n        /* \"#utility.yul\":11395:11400   */\n      0x00\n        /* \"#utility.yul\":11444:11447   */\n      dup3\n        /* \"#utility.yul\":11437:11441   */\n      0x1f\n        /* \"#utility.yul\":11429:11435   */\n      dup4\n        /* \"#utility.yul\":11425:11442   */\n      add\n        /* \"#utility.yul\":11421:11448   */\n      slt\n        /* \"#utility.yul\":11411:11533   */\n      tag_493\n      jumpi\n        /* \"#utility.yul\":11452:11531   */\n      tag_494\n      tag_320\n      jump\t// in\n    tag_494:\n        /* \"#utility.yul\":11411:11533   */\n    tag_493:\n        /* \"#utility.yul\":11569:11575   */\n      dup2\n        /* \"#utility.yul\":11556:11576   */\n      calldataload\n        /* \"#utility.yul\":11594:11688   */\n      tag_495\n        /* \"#utility.yul\":11684:11687   */\n      dup5\n        /* \"#utility.yul\":11676:11682   */\n      dup3\n        /* \"#utility.yul\":11669:11673   */\n      0x20\n        /* \"#utility.yul\":11661:11667   */\n      dup7\n        /* \"#utility.yul\":11657:11674   */\n      add\n        /* \"#utility.yul\":11594:11688   */\n      tag_350\n      jump\t// in\n    tag_495:\n        /* \"#utility.yul\":11585:11688   */\n      swap2\n      pop\n        /* \"#utility.yul\":11401:11694   */\n      pop\n        /* \"#utility.yul\":11324:11694   */\n      swap3\n      swap2\n      pop\n      pop\n      jump\t// out\n        /* \"#utility.yul\":11700:11822   */\n    tag_352:\n        /* \"#utility.yul\":11773:11797   */\n      tag_497\n        /* \"#utility.yul\":11791:11796   */\n      dup2\n        /* \"#utility.yul\":11773:11797   */\n      tag_315\n      jump\t// in\n    tag_497:\n        /* \"#utility.yul\":11766:11771   */\n      dup2\n        /* \"#utility.yul\":11763:11798   */\n      eq\n        /* \"#utility.yul\":11753:11816   */\n      tag_498\n      jumpi\n        /* \"#utility.yul\":11812:11813   */\n      0x00\n        /* \"#utility.yul\":11809:11810   */\n      dup1\n        /* \"#utility.yul\":11802:11814   */\n      revert\n        /* \"#utility.yul\":11753:11816   */\n    tag_498:\n        /* \"#utility.yul\":11700:11822   */\n      pop\n      jump\t// out\n        /* \"#utility.yul\":11828:11967   */\n    tag_353:\n        /* \"#utility.yul\":11874:11879   */\n      0x00\n        /* \"#utility.yul\":11912:11918   */\n      dup2\n        /* \"#utility.yul\":11899:11919   */\n      calldataload\n        /* \"#utility.yul\":11890:11919   */\n      swap1\n      pop\n        /* \"#utility.yul\":11928:11961   */\n      tag_500\n        /* \"#utility.yul\":11955:11960   */\n      dup2\n        /* \"#utility.yul\":11928:11961   */\n      tag_352\n      jump\t// in\n    tag_500:\n        /* \"#utility.yul\":11828:11967   */\n      swap3\n      swap2\n      pop\n      pop\n      jump\t// out\n        /* \"#utility.yul\":11973:13308   */\n    tag_34:\n        /* \"#utility.yul\":12104:12110   */\n      0x00\n        /* \"#utility.yul\":12112:12118   */\n      dup1\n        /* \"#utility.yul\":12120:12126   */\n      0x00\n        /* \"#utility.yul\":12128:12134   */\n      dup1\n        /* \"#utility.yul\":12177:12180   */\n      0x80\n        /* \"#utility.yul\":12165:12174   */\n      dup6\n        /* \"#utility.yul\":12156:12163   */\n      dup8\n        /* \"#utility.yul\":12152:12175   */\n      sub\n        /* \"#utility.yul\":12148:12181   */\n      slt\n        /* \"#utility.yul\":12145:12265   */\n      iszero\n      tag_502\n      jumpi\n        /* \"#utility.yul\":12184:12263   */\n      tag_503\n      tag_318\n      jump\t// in\n    tag_503:\n        /* \"#utility.yul\":12145:12265   */\n    tag_502:\n        /* \"#utility.yul\":12332:12333   */\n      0x00\n        /* \"#utility.yul\":12321:12330   */\n      dup6\n        /* \"#utility.yul\":12317:12334   */\n      add\n        /* \"#utility.yul\":12304:12335   */\n      calldataload\n        /* \"#utility.yul\":12362:12380   */\n      0xffffffffffffffff\n        /* \"#utility.yul\":12354:12360   */\n      dup2\n        /* \"#utility.yul\":12351:12381   */\n      gt\n        /* \"#utility.yul\":12348:12465   */\n      iszero\n      tag_504\n      jumpi\n        /* \"#utility.yul\":12384:12463   */\n      tag_505\n      tag_319\n      jump\t// in\n    tag_505:\n        /* \"#utility.yul\":12348:12465   */\n    tag_504:\n        /* \"#utility.yul\":12489:12567   */\n      tag_506\n        /* \"#utility.yul\":12559:12566   */\n      dup8\n        /* \"#utility.yul\":12550:12556   */\n      dup3\n        /* \"#utility.yul\":12539:12548   */\n      dup9\n        /* \"#utility.yul\":12535:12557   */\n      add\n        /* \"#utility.yul\":12489:12567   */\n      tag_351\n      jump\t// in\n    tag_506:\n        /* \"#utility.yul\":12479:12567   */\n      swap5\n      pop\n        /* \"#utility.yul\":12275:12577   */\n      pop\n        /* \"#utility.yul\":12616:12618   */\n      0x20\n        /* \"#utility.yul\":12642:12695   */\n      tag_507\n        /* \"#utility.yul\":12687:12694   */\n      dup8\n        /* \"#utility.yul\":12678:12684   */\n      dup3\n        /* \"#utility.yul\":12667:12676   */\n      dup9\n        /* \"#utility.yul\":12663:12685   */\n      add\n        /* \"#utility.yul\":12642:12695   */\n      tag_353\n      jump\t// in\n    tag_507:\n        /* \"#utility.yul\":12632:12695   */\n      swap4\n      pop\n        /* \"#utility.yul\":12587:12705   */\n      pop\n        /* \"#utility.yul\":12772:12774   */\n      0x40\n        /* \"#utility.yul\":12761:12770   */\n      dup6\n        /* \"#utility.yul\":12757:12775   */\n      add\n        /* \"#utility.yul\":12744:12776   */\n      calldataload\n        /* \"#utility.yul\":12803:12821   */\n      0xffffffffffffffff\n        /* \"#utility.yul\":12795:12801   */\n      dup2\n        /* \"#utility.yul\":12792:12822   */\n      gt\n        /* \"#utility.yul\":12789:12906   */\n      iszero\n      tag_508\n      jumpi\n        /* \"#utility.yul\":12825:12904   */\n      tag_509\n      tag_319\n      jump\t// in\n    tag_509:\n        /* \"#utility.yul\":12789:12906   */\n    tag_508:\n        /* \"#utility.yul\":12930:12993   */\n      tag_510\n        /* \"#utility.yul\":12985:12992   */\n      dup8\n        /* \"#utility.yul\":12976:12982   */\n      dup3\n        /* \"#utility.yul\":12965:12974   */\n      dup9\n        /* \"#utility.yul\":12961:12983   */\n      add\n        /* \"#utility.yul\":12930:12993   */\n      tag_329\n      jump\t// in\n    tag_510:\n        /* \"#utility.yul\":12920:12993   */\n      swap3\n      pop\n        /* \"#utility.yul\":12715:13003   */\n      pop\n        /* \"#utility.yul\":13070:13072   */\n      0x60\n        /* \"#utility.yul\":13059:13068   */\n      dup6\n        /* \"#utility.yul\":13055:13073   */\n      add\n        /* \"#utility.yul\":13042:13074   */\n      calldataload\n        /* \"#utility.yul\":13101:13119   */\n      0xffffffffffffffff\n        /* \"#utility.yul\":13093:13099   */\n      dup2\n        /* \"#utility.yul\":13090:13120   */\n      gt\n        /* \"#utility.yul\":13087:13204   */\n      iszero\n      tag_511\n      jumpi\n        /* \"#utility.yul\":13123:13202   */\n      tag_512\n      tag_319\n      jump\t// in\n    tag_512:\n        /* \"#utility.yul\":13087:13204   */\n    tag_511:\n        /* \"#utility.yul\":13228:13291   */\n      tag_513\n        /* \"#utility.yul\":13283:13290   */\n      dup8\n        /* \"#utility.yul\":13274:13280   */\n      dup3\n        /* \"#utility.yul\":13263:13272   */\n      dup9\n        /* \"#utility.yul\":13259:13281   */\n      add\n        /* \"#utility.yul\":13228:13291   */\n      tag_329\n      jump\t// in\n    tag_513:\n        /* \"#utility.yul\":13218:13291   */\n      swap2\n      pop\n        /* \"#utility.yul\":13013:13301   */\n      pop\n        /* \"#utility.yul\":11973:13308   */\n      swap3\n      swap6\n      swap2\n      swap5\n      pop\n      swap3\n      pop\n      jump\t// out\n        /* \"#utility.yul\":13314:13563   */\n    tag_354:\n        /* \"#utility.yul\":13389:13393   */\n      0x00\n        /* \"#utility.yul\":13479:13497   */\n      0xffffffffffffffff\n        /* \"#utility.yul\":13471:13477   */\n      dup3\n        /* \"#utility.yul\":13468:13498   */\n      gt\n        /* \"#utility.yul\":13465:13521   */\n      iszero\n      tag_515\n      jumpi\n        /* \"#utility.yul\":13501:13519   */\n      tag_516\n      tag_323\n      jump\t// in\n    tag_516:\n        /* \"#utility.yul\":13465:13521   */\n    tag_515:\n        /* \"#utility.yul\":13551:13555   */\n      0x20\n        /* \"#utility.yul\":13543:13549   */\n      dup3\n        /* \"#utility.yul\":13539:13556   */\n      mul\n        /* \"#utility.yul\":13531:13556   */\n      swap1\n      pop\n        /* \"#utility.yul\":13314:13563   */\n      swap2\n      swap1\n      pop\n      jump\t// out\n        /* \"#utility.yul\":13587:14230   */\n    tag_355:\n        /* \"#utility.yul\":13681:13686   */\n      0x00\n        /* \"#utility.yul\":13706:13785   */\n      tag_518\n        /* \"#utility.yul\":13722:13784   */\n      tag_519\n        /* \"#utility.yul\":13777:13783   */\n      dup5\n        /* \"#utility.yul\":13722:13784   */\n      tag_354\n      jump\t// in\n    tag_519:\n        /* \"#utility.yul\":13706:13785   */\n      tag_325\n      jump\t// in\n    tag_518:\n        /* \"#utility.yul\":13697:13785   */\n      swap1\n      pop\n        /* \"#utility.yul\":13805:13810   */\n      dup1\n        /* \"#utility.yul\":13858:13862   */\n      0x20\n        /* \"#utility.yul\":13850:13856   */\n      dup5\n        /* \"#utility.yul\":13846:13863   */\n      mul\n        /* \"#utility.yul\":13838:13844   */\n      dup4\n        /* \"#utility.yul\":13834:13864   */\n      add\n        /* \"#utility.yul\":13887:13890   */\n      dup6\n        /* \"#utility.yul\":13879:13885   */\n      dup2\n        /* \"#utility.yul\":13876:13891   */\n      gt\n        /* \"#utility.yul\":13873:13995   */\n      iszero\n      tag_520\n      jumpi\n        /* \"#utility.yul\":13906:13985   */\n      tag_521\n      tag_347\n      jump\t// in\n    tag_521:\n        /* \"#utility.yul\":13873:13995   */\n    tag_520:\n        /* \"#utility.yul\":14021:14027   */\n      dup4\n        /* \"#utility.yul\":14004:14224   */\n    tag_522:\n        /* \"#utility.yul\":14038:14044   */\n      dup2\n        /* \"#utility.yul\":14033:14036   */\n      dup2\n        /* \"#utility.yul\":14030:14045   */\n      lt\n        /* \"#utility.yul\":14004:14224   */\n      iszero\n      tag_524\n      jumpi\n        /* \"#utility.yul\":14113:14116   */\n      dup1\n        /* \"#utility.yul\":14142:14179   */\n      tag_525\n        /* \"#utility.yul\":14175:14178   */\n      dup9\n        /* \"#utility.yul\":14163:14173   */\n      dup3\n        /* \"#utility.yul\":14142:14179   */\n      tag_353\n      jump\t// in\n    tag_525:\n        /* \"#utility.yul\":14137:14140   */\n      dup5\n        /* \"#utility.yul\":14130:14180   */\n      mstore\n        /* \"#utility.yul\":14209:14213   */\n      0x20\n        /* \"#utility.yul\":14204:14207   */\n      dup5\n        /* \"#utility.yul\":14200:14214   */\n      add\n        /* \"#utility.yul\":14193:14214   */\n      swap4\n      pop\n        /* \"#utility.yul\":14080:14224   */\n      pop\n        /* \"#utility.yul\":14064:14068   */\n      0x20\n        /* \"#utility.yul\":14059:14062   */\n      dup2\n        /* \"#utility.yul\":14055:14069   */\n      add\n        /* \"#utility.yul\":14048:14069   */\n      swap1\n      pop\n        /* \"#utility.yul\":14004:14224   */\n      jump(tag_522)\n    tag_524:\n        /* \"#utility.yul\":14008:14029   */\n      pop\n        /* \"#utility.yul\":13687:14230   */\n      pop\n      pop\n        /* \"#utility.yul\":13587:14230   */\n      swap4\n      swap3\n      pop\n      pop\n      pop\n      jump\t// out\n        /* \"#utility.yul\":14254:14593   */\n    tag_356:\n        /* \"#utility.yul\":14323:14328   */\n      0x00\n        /* \"#utility.yul\":14372:14375   */\n      dup3\n        /* \"#utility.yul\":14365:14369   */\n      0x1f\n        /* \"#utility.yul\":14357:14363   */\n      dup4\n        /* \"#utility.yul\":14353:14370   */\n      add\n        /* \"#utility.yul\":14349:14376   */\n      slt\n        /* \"#utility.yul\":14339:14461   */\n      tag_527\n      jumpi\n        /* \"#utility.yul\":14380:14459   */\n      tag_528\n      tag_320\n      jump\t// in\n    tag_528:\n        /* \"#utility.yul\":14339:14461   */\n    tag_527:\n        /* \"#utility.yul\":14484:14488   */\n      0x04\n        /* \"#utility.yul\":14506:14587   */\n      tag_529\n        /* \"#utility.yul\":14583:14586   */\n      dup5\n        /* \"#utility.yul\":14575:14581   */\n      dup3\n        /* \"#utility.yul\":14567:14573   */\n      dup6\n        /* \"#utility.yul\":14506:14587   */\n      tag_355\n      jump\t// in\n    tag_529:\n        /* \"#utility.yul\":14497:14587   */\n      swap2\n      pop\n        /* \"#utility.yul\":14329:14593   */\n      pop\n        /* \"#utility.yul\":14254:14593   */\n      swap3\n      swap2\n      pop\n      pop\n      jump\t// out\n        /* \"#utility.yul\":14599:15950   */\n    tag_38:\n        /* \"#utility.yul\":14738:14744   */\n      0x00\n        /* \"#utility.yul\":14746:14752   */\n      dup1\n        /* \"#utility.yul\":14754:14760   */\n      0x00\n        /* \"#utility.yul\":14762:14768   */\n      dup1\n        /* \"#utility.yul\":14811:14814   */\n      0xe0\n        /* \"#utility.yul\":14799:14808   */\n      dup6\n        /* \"#utility.yul\":14790:14797   */\n      dup8\n        /* \"#utility.yul\":14786:14809   */\n      sub\n        /* \"#utility.yul\":14782:14815   */\n      slt\n        /* \"#utility.yul\":14779:14899   */\n      iszero\n      tag_531\n      jumpi\n        /* \"#utility.yul\":14818:14897   */\n      tag_532\n      tag_318\n      jump\t// in\n    tag_532:\n        /* \"#utility.yul\":14779:14899   */\n    tag_531:\n        /* \"#utility.yul\":14966:14967   */\n      0x00\n        /* \"#utility.yul\":14955:14964   */\n      dup6\n        /* \"#utility.yul\":14951:14968   */\n      add\n        /* \"#utility.yul\":14938:14969   */\n      calldataload\n        /* \"#utility.yul\":14996:15014   */\n      0xffffffffffffffff\n        /* \"#utility.yul\":14988:14994   */\n      dup2\n        /* \"#utility.yul\":14985:15015   */\n      gt\n        /* \"#utility.yul\":14982:15099   */\n      iszero\n      tag_533\n      jumpi\n        /* \"#utility.yul\":15018:15097   */\n      tag_534\n      tag_319\n      jump\t// in\n    tag_534:\n        /* \"#utility.yul\":14982:15099   */\n    tag_533:\n        /* \"#utility.yul\":15123:15186   */\n      tag_535\n        /* \"#utility.yul\":15178:15185   */\n      dup8\n        /* \"#utility.yul\":15169:15175   */\n      dup3\n        /* \"#utility.yul\":15158:15167   */\n      dup9\n        /* \"#utility.yul\":15154:15176   */\n      add\n        /* \"#utility.yul\":15123:15186   */\n      tag_329\n      jump\t// in\n    tag_535:\n        /* \"#utility.yul\":15113:15186   */\n      swap5\n      pop\n        /* \"#utility.yul\":14909:15196   */\n      pop\n        /* \"#utility.yul\":15263:15265   */\n      0x20\n        /* \"#utility.yul\":15252:15261   */\n      dup6\n        /* \"#utility.yul\":15248:15266   */\n      add\n        /* \"#utility.yul\":15235:15267   */\n      calldataload\n        /* \"#utility.yul\":15294:15312   */\n      0xffffffffffffffff\n        /* \"#utility.yul\":15286:15292   */\n      dup2\n        /* \"#utility.yul\":15283:15313   */\n      gt\n        /* \"#utility.yul\":15280:15397   */\n      iszero\n      tag_536\n      jumpi\n        /* \"#utility.yul\":15316:15395   */\n      tag_537\n      tag_319\n      jump\t// in\n    tag_537:\n        /* \"#utility.yul\":15280:15397   */\n    tag_536:\n        /* \"#utility.yul\":15421:15484   */\n      tag_538\n        /* \"#utility.yul\":15476:15483   */\n      dup8\n        /* \"#utility.yul\":15467:15473   */\n      dup3\n        /* \"#utility.yul\":15456:15465   */\n      dup9\n        /* \"#utility.yul\":15452:15474   */\n      add\n        /* \"#utility.yul\":15421:15484   */\n      tag_329\n      jump\t// in\n    tag_538:\n        /* \"#utility.yul\":15411:15484   */\n      swap4\n      pop\n        /* \"#utility.yul\":15206:15494   */\n      pop\n        /* \"#utility.yul\":15561:15563   */\n      0x40\n        /* \"#utility.yul\":15550:15559   */\n      dup6\n        /* \"#utility.yul\":15546:15564   */\n      add\n        /* \"#utility.yul\":15533:15565   */\n      calldataload\n        /* \"#utility.yul\":15592:15610   */\n      0xffffffffffffffff\n        /* \"#utility.yul\":15584:15590   */\n      dup2\n        /* \"#utility.yul\":15581:15611   */\n      gt\n        /* \"#utility.yul\":15578:15695   */\n      iszero\n      tag_539\n      jumpi\n        /* \"#utility.yul\":15614:15693   */\n      tag_540\n      tag_319\n      jump\t// in\n    tag_540:\n        /* \"#utility.yul\":15578:15695   */\n    tag_539:\n        /* \"#utility.yul\":15719:15782   */\n      tag_541\n        /* \"#utility.yul\":15774:15781   */\n      dup8\n        /* \"#utility.yul\":15765:15771   */\n      dup3\n        /* \"#utility.yul\":15754:15763   */\n      dup9\n        /* \"#utility.yul\":15750:15772   */\n      add\n        /* \"#utility.yul\":15719:15782   */\n      tag_329\n      jump\t// in\n    tag_541:\n        /* \"#utility.yul\":15709:15782   */\n      swap3\n      pop\n        /* \"#utility.yul\":15504:15792   */\n      pop\n        /* \"#utility.yul\":15831:15833   */\n      0x60\n        /* \"#utility.yul\":15857:15933   */\n      tag_542\n        /* \"#utility.yul\":15925:15932   */\n      dup8\n        /* \"#utility.yul\":15916:15922   */\n      dup3\n        /* \"#utility.yul\":15905:15914   */\n      dup9\n        /* \"#utility.yul\":15901:15923   */\n      add\n        /* \"#utility.yul\":15857:15933   */\n      tag_356\n      jump\t// in\n    tag_542:\n        /* \"#utility.yul\":15847:15933   */\n      swap2\n      pop\n        /* \"#utility.yul\":15802:15943   */\n      pop\n        /* \"#utility.yul\":14599:15950   */\n      swap3\n      swap6\n      swap2\n      swap5\n      pop\n      swap3\n      pop\n      jump\t// out\n        /* \"#utility.yul\":15956:16285   */\n    tag_42:\n        /* \"#utility.yul\":16015:16021   */\n      0x00\n        /* \"#utility.yul\":16064:16066   */\n      0x20\n        /* \"#utility.yul\":16052:16061   */\n      dup3\n        /* \"#utility.yul\":16043:16050   */\n      dup5\n        /* \"#utility.yul\":16039:16062   */\n      sub\n        /* \"#utility.yul\":16035:16067   */\n      slt\n        /* \"#utility.yul\":16032:16151   */\n      iszero\n      tag_544\n      jumpi\n        /* \"#utility.yul\":16070:16149   */\n      tag_545\n      tag_318\n      jump\t// in\n    tag_545:\n        /* \"#utility.yul\":16032:16151   */\n    tag_544:\n        /* \"#utility.yul\":16190:16191   */\n      0x00\n        /* \"#utility.yul\":16215:16268   */\n      tag_546\n        /* \"#utility.yul\":16260:16267   */\n      dup5\n        /* \"#utility.yul\":16251:16257   */\n      dup3\n        /* \"#utility.yul\":16240:16249   */\n      dup6\n        /* \"#utility.yul\":16236:16258   */\n      add\n        /* \"#utility.yul\":16215:16268   */\n      tag_353\n      jump\t// in\n    tag_546:\n        /* \"#utility.yul\":16205:16268   */\n      swap2\n      pop\n        /* \"#utility.yul\":16161:16278   */\n      pop\n        /* \"#utility.yul\":15956:16285   */\n      swap3\n      swap2\n      pop\n      pop\n      jump\t// out\n        /* \"#utility.yul\":16291:17026   */\n    tag_45:\n        /* \"#utility.yul\":16508:16512   */\n      0x00\n        /* \"#utility.yul\":16546:16549   */\n      0x80\n        /* \"#utility.yul\":16535:16544   */\n      dup3\n        /* \"#utility.yul\":16531:16550   */\n      add\n        /* \"#utility.yul\":16523:16550   */\n      swap1\n      pop\n        /* \"#utility.yul\":16560:16631   */\n      tag_548\n        /* \"#utility.yul\":16628:16629   */\n      0x00\n        /* \"#utility.yul\":16617:16626   */\n      dup4\n        /* \"#utility.yul\":16613:16630   */\n      add\n        /* \"#utility.yul\":16604:16610   */\n      dup8\n        /* \"#utility.yul\":16560:16631   */\n      tag_336\n      jump\t// in\n    tag_548:\n        /* \"#utility.yul\":16641:16713   */\n      tag_549\n        /* \"#utility.yul\":16709:16711   */\n      0x20\n        /* \"#utility.yul\":16698:16707   */\n      dup4\n        /* \"#utility.yul\":16694:16712   */\n      add\n        /* \"#utility.yul\":16685:16691   */\n      dup7\n        /* \"#utility.yul\":16641:16713   */\n      tag_316\n      jump\t// in\n    tag_549:\n        /* \"#utility.yul\":16760:16769   */\n      dup2\n        /* \"#utility.yul\":16754:16758   */\n      dup2\n        /* \"#utility.yul\":16750:16770   */\n      sub\n        /* \"#utility.yul\":16745:16747   */\n      0x40\n        /* \"#utility.yul\":16734:16743   */\n      dup4\n        /* \"#utility.yul\":16730:16748   */\n      add\n        /* \"#utility.yul\":16723:16771   */\n      mstore\n        /* \"#utility.yul\":16788:16866   */\n      tag_550\n        /* \"#utility.yul\":16861:16865   */\n      dup2\n        /* \"#utility.yul\":16852:16858   */\n      dup6\n        /* \"#utility.yul\":16788:16866   */\n      tag_333\n      jump\t// in\n    tag_550:\n        /* \"#utility.yul\":16780:16866   */\n      swap1\n      pop\n        /* \"#utility.yul\":16913:16922   */\n      dup2\n        /* \"#utility.yul\":16907:16911   */\n      dup2\n        /* \"#utility.yul\":16903:16923   */\n      sub\n        /* \"#utility.yul\":16898:16900   */\n      0x60\n        /* \"#utility.yul\":16887:16896   */\n      dup4\n        /* \"#utility.yul\":16883:16901   */\n      add\n        /* \"#utility.yul\":16876:16924   */\n      mstore\n        /* \"#utility.yul\":16941:17019   */\n      tag_551\n        /* \"#utility.yul\":17014:17018   */\n      dup2\n        /* \"#utility.yul\":17005:17011   */\n      dup5\n        /* \"#utility.yul\":16941:17019   */\n      tag_333\n      jump\t// in\n    tag_551:\n        /* \"#utility.yul\":16933:17019   */\n      swap1\n      pop\n        /* \"#utility.yul\":16291:17026   */\n      swap6\n      swap5\n      pop\n      pop\n      pop\n      pop\n      pop\n      jump\t// out\n        /* \"#utility.yul\":17032:18191   */\n    tag_55:\n        /* \"#utility.yul\":17139:17145   */\n      0x00\n        /* \"#utility.yul\":17147:17153   */\n      dup1\n        /* \"#utility.yul\":17155:17161   */\n      0x00\n        /* \"#utility.yul\":17204:17206   */\n      0x60\n        /* \"#utility.yul\":17192:17201   */\n      dup5\n        /* \"#utility.yul\":17183:17190   */\n      dup7\n        /* \"#utility.yul\":17179:17202   */\n      sub\n        /* \"#utility.yul\":17175:17207   */\n      slt\n        /* \"#utility.yul\":17172:17291   */\n      iszero\n      tag_553\n      jumpi\n        /* \"#utility.yul\":17210:17289   */\n      tag_554\n      tag_318\n      jump\t// in\n    tag_554:\n        /* \"#utility.yul\":17172:17291   */\n    tag_553:\n        /* \"#utility.yul\":17358:17359   */\n      0x00\n        /* \"#utility.yul\":17347:17356   */\n      dup5\n        /* \"#utility.yul\":17343:17360   */\n      add\n        /* \"#utility.yul\":17330:17361   */\n      calldataload\n        /* \"#utility.yul\":17388:17406   */\n      0xffffffffffffffff\n        /* \"#utility.yul\":17380:17386   */\n      dup2\n        /* \"#utility.yul\":17377:17407   */\n      gt\n        /* \"#utility.yul\":17374:17491   */\n      iszero\n      tag_555\n      jumpi\n        /* \"#utility.yul\":17410:17489   */\n      tag_556\n      tag_319\n      jump\t// in\n    tag_556:\n        /* \"#utility.yul\":17374:17491   */\n    tag_555:\n        /* \"#utility.yul\":17515:17578   */\n      tag_557\n        /* \"#utility.yul\":17570:17577   */\n      dup7\n        /* \"#utility.yul\":17561:17567   */\n      dup3\n        /* \"#utility.yul\":17550:17559   */\n      dup8\n        /* \"#utility.yul\":17546:17568   */\n      add\n        /* \"#utility.yul\":17515:17578   */\n      tag_329\n      jump\t// in\n    tag_557:\n        /* \"#utility.yul\":17505:17578   */\n      swap4\n      pop\n        /* \"#utility.yul\":17301:17588   */\n      pop\n        /* \"#utility.yul\":17655:17657   */\n      0x20\n        /* \"#utility.yul\":17644:17653   */\n      dup5\n        /* \"#utility.yul\":17640:17658   */\n      add\n        /* \"#utility.yul\":17627:17659   */\n      calldataload\n        /* \"#utility.yul\":17686:17704   */\n      0xffffffffffffffff\n        /* \"#utility.yul\":17678:17684   */\n      dup2\n        /* \"#utility.yul\":17675:17705   */\n      gt\n        /* \"#utility.yul\":17672:17789   */\n      iszero\n      tag_558\n      jumpi\n        /* \"#utility.yul\":17708:17787   */\n      tag_559\n      tag_319\n      jump\t// in\n    tag_559:\n        /* \"#utility.yul\":17672:17789   */\n    tag_558:\n        /* \"#utility.yul\":17813:17876   */\n      tag_560\n        /* \"#utility.yul\":17868:17875   */\n      dup7\n        /* \"#utility.yul\":17859:17865   */\n      dup3\n        /* \"#utility.yul\":17848:17857   */\n      dup8\n        /* \"#utility.yul\":17844:17866   */\n      add\n        /* \"#utility.yul\":17813:17876   */\n      tag_329\n      jump\t// in\n    tag_560:\n        /* \"#utility.yul\":17803:17876   */\n      swap3\n      pop\n        /* \"#utility.yul\":17598:17886   */\n      pop\n        /* \"#utility.yul\":17953:17955   */\n      0x40\n        /* \"#utility.yul\":17942:17951   */\n      dup5\n        /* \"#utility.yul\":17938:17956   */\n      add\n        /* \"#utility.yul\":17925:17957   */\n      calldataload\n        /* \"#utility.yul\":17984:18002   */\n      0xffffffffffffffff\n        /* \"#utility.yul\":17976:17982   */\n      dup2\n        /* \"#utility.yul\":17973:18003   */\n      gt\n        /* \"#utility.yul\":17970:18087   */\n      iszero\n      tag_561\n      jumpi\n        /* \"#utility.yul\":18006:18085   */\n      tag_562\n      tag_319\n      jump\t// in\n    tag_562:\n        /* \"#utility.yul\":17970:18087   */\n    tag_561:\n        /* \"#utility.yul\":18111:18174   */\n      tag_563\n        /* \"#utility.yul\":18166:18173   */\n      dup7\n        /* \"#utility.yul\":18157:18163   */\n      dup3\n        /* \"#utility.yul\":18146:18155   */\n      dup8\n        /* \"#utility.yul\":18142:18164   */\n      add\n        /* \"#utility.yul\":18111:18174   */\n      tag_329\n      jump\t// in\n    tag_563:\n        /* \"#utility.yul\":18101:18174   */\n      swap2\n      pop\n        /* \"#utility.yul\":17896:18184   */\n      pop\n        /* \"#utility.yul\":17032:18191   */\n      swap3\n      pop\n      swap3\n      pop\n      swap3\n      jump\t// out\n        /* \"#utility.yul\":18197:18407   */\n    tag_58:\n        /* \"#utility.yul\":18284:18288   */\n      0x00\n        /* \"#utility.yul\":18322:18324   */\n      0x20\n        /* \"#utility.yul\":18311:18320   */\n      dup3\n        /* \"#utility.yul\":18307:18325   */\n      add\n        /* \"#utility.yul\":18299:18325   */\n      swap1\n      pop\n        /* \"#utility.yul\":18335:18400   */\n      tag_565\n        /* \"#utility.yul\":18397:18398   */\n      0x00\n        /* \"#utility.yul\":18386:18395   */\n      dup4\n        /* \"#utility.yul\":18382:18399   */\n      add\n        /* \"#utility.yul\":18373:18379   */\n      dup5\n        /* \"#utility.yul\":18335:18400   */\n      tag_345\n      jump\t// in\n    tag_565:\n        /* \"#utility.yul\":18197:18407   */\n      swap3\n      swap2\n      pop\n      pop\n      jump\t// out\n        /* \"#utility.yul\":18413:19650   */\n    tag_61:\n        /* \"#utility.yul\":18527:18533   */\n      0x00\n        /* \"#utility.yul\":18535:18541   */\n      dup1\n        /* \"#utility.yul\":18543:18549   */\n      0x00\n        /* \"#utility.yul\":18551:18557   */\n      dup1\n        /* \"#utility.yul\":18559:18565   */\n      0x00\n        /* \"#utility.yul\":18567:18573   */\n      dup1\n        /* \"#utility.yul\":18616:18619   */\n      0xc0\n        /* \"#utility.yul\":18604:18613   */\n      dup8\n        /* \"#utility.yul\":18595:18602   */\n      dup10\n        /* \"#utility.yul\":18591:18614   */\n      sub\n        /* \"#utility.yul\":18587:18620   */\n      slt\n        /* \"#utility.yul\":18584:18704   */\n      iszero\n      tag_567\n      jumpi\n        /* \"#utility.yul\":18623:18702   */\n      tag_568\n      tag_318\n      jump\t// in\n    tag_568:\n        /* \"#utility.yul\":18584:18704   */\n    tag_567:\n        /* \"#utility.yul\":18771:18772   */\n      0x00\n        /* \"#utility.yul\":18760:18769   */\n      dup8\n        /* \"#utility.yul\":18756:18773   */\n      add\n        /* \"#utility.yul\":18743:18774   */\n      calldataload\n        /* \"#utility.yul\":18801:18819   */\n      0xffffffffffffffff\n        /* \"#utility.yul\":18793:18799   */\n      dup2\n        /* \"#utility.yul\":18790:18820   */\n      gt\n        /* \"#utility.yul\":18787:18904   */\n      iszero\n      tag_569\n      jumpi\n        /* \"#utility.yul\":18823:18902   */\n      tag_570\n      tag_319\n      jump\t// in\n    tag_570:\n        /* \"#utility.yul\":18787:18904   */\n    tag_569:\n        /* \"#utility.yul\":18928:18991   */\n      tag_571\n        /* \"#utility.yul\":18983:18990   */\n      dup10\n        /* \"#utility.yul\":18974:18980   */\n      dup3\n        /* \"#utility.yul\":18963:18972   */\n      dup11\n        /* \"#utility.yul\":18959:18981   */\n      add\n        /* \"#utility.yul\":18928:18991   */\n      tag_329\n      jump\t// in\n    tag_571:\n        /* \"#utility.yul\":18918:18991   */\n      swap7\n      pop\n        /* \"#utility.yul\":18714:19001   */\n      pop\n        /* \"#utility.yul\":19040:19042   */\n      0x20\n        /* \"#utility.yul\":19066:19119   */\n      tag_572\n        /* \"#utility.yul\":19111:19118   */\n      dup10\n        /* \"#utility.yul\":19102:19108   */\n      dup3\n        /* \"#utility.yul\":19091:19100   */\n      dup11\n        /* \"#utility.yul\":19087:19109   */\n      add\n        /* \"#utility.yul\":19066:19119   */\n      tag_353\n      jump\t// in\n    tag_572:\n        /* \"#utility.yul\":19056:19119   */\n      swap6\n      pop\n        /* \"#utility.yul\":19011:19129   */\n      pop\n        /* \"#utility.yul\":19168:19170   */\n      0x40\n        /* \"#utility.yul\":19194:19247   */\n      tag_573\n        /* \"#utility.yul\":19239:19246   */\n      dup10\n        /* \"#utility.yul\":19230:19236   */\n      dup3\n        /* \"#utility.yul\":19219:19228   */\n      dup11\n        /* \"#utility.yul\":19215:19237   */\n      add\n        /* \"#utility.yul\":19194:19247   */\n      tag_353\n      jump\t// in\n    tag_573:\n        /* \"#utility.yul\":19184:19247   */\n      swap5\n      pop\n        /* \"#utility.yul\":19139:19257   */\n      pop\n        /* \"#utility.yul\":19296:19298   */\n      0x60\n        /* \"#utility.yul\":19322:19375   */\n      tag_574\n        /* \"#utility.yul\":19367:19374   */\n      dup10\n        /* \"#utility.yul\":19358:19364   */\n      dup3\n        /* \"#utility.yul\":19347:19356   */\n      dup11\n        /* \"#utility.yul\":19343:19365   */\n      add\n        /* \"#utility.yul\":19322:19375   */\n      tag_353\n      jump\t// in\n    tag_574:\n        /* \"#utility.yul\":19312:19375   */\n      swap4\n      pop\n        /* \"#utility.yul\":19267:19385   */\n      pop\n        /* \"#utility.yul\":19424:19427   */\n      0x80\n        /* \"#utility.yul\":19451:19504   */\n      tag_575\n        /* \"#utility.yul\":19496:19503   */\n      dup10\n        /* \"#utility.yul\":19487:19493   */\n      dup3\n        /* \"#utility.yul\":19476:19485   */\n      dup11\n        /* \"#utility.yul\":19472:19494   */\n      add\n        /* \"#utility.yul\":19451:19504   */\n      tag_353\n      jump\t// in\n    tag_575:\n        /* \"#utility.yul\":19441:19504   */\n      swap3\n      pop\n        /* \"#utility.yul\":19395:19514   */\n      pop\n        /* \"#utility.yul\":19553:19556   */\n      0xa0\n        /* \"#utility.yul\":19580:19633   */\n      tag_576\n        /* \"#utility.yul\":19625:19632   */\n      dup10\n        /* \"#utility.yul\":19616:19622   */\n      dup3\n        /* \"#utility.yul\":19605:19614   */\n      dup11\n        /* \"#utility.yul\":19601:19623   */\n      add\n        /* \"#utility.yul\":19580:19633   */\n      tag_353\n      jump\t// in\n    tag_576:\n        /* \"#utility.yul\":19570:19633   */\n      swap2\n      pop\n        /* \"#utility.yul\":19524:19643   */\n      pop\n        /* \"#utility.yul\":18413:19650   */\n      swap3\n      swap6\n      pop\n      swap3\n      swap6\n      pop\n      swap3\n      swap6\n      jump\t// out\n        /* \"#utility.yul\":19656:20310   */\n    tag_68:\n        /* \"#utility.yul\":19734:19740   */\n      0x00\n        /* \"#utility.yul\":19742:19748   */\n      dup1\n        /* \"#utility.yul\":19791:19793   */\n      0x40\n        /* \"#utility.yul\":19779:19788   */\n      dup4\n        /* \"#utility.yul\":19770:19777   */\n      dup6\n        /* \"#utility.yul\":19766:19789   */\n      sub\n        /* \"#utility.yul\":19762:19794   */\n      slt\n        /* \"#utility.yul\":19759:19878   */\n      iszero\n      tag_578\n      jumpi\n        /* \"#utility.yul\":19797:19876   */\n      tag_579\n      tag_318\n      jump\t// in\n    tag_579:\n        /* \"#utility.yul\":19759:19878   */\n    tag_578:\n        /* \"#utility.yul\":19917:19918   */\n      0x00\n        /* \"#utility.yul\":19942:19995   */\n      tag_580\n        /* \"#utility.yul\":19987:19994   */\n      dup6\n        /* \"#utility.yul\":19978:19984   */\n      dup3\n        /* \"#utility.yul\":19967:19976   */\n      dup7\n        /* \"#utility.yul\":19963:19985   */\n      add\n        /* \"#utility.yul\":19942:19995   */\n      tag_349\n      jump\t// in\n    tag_580:\n        /* \"#utility.yul\":19932:19995   */\n      swap3\n      pop\n        /* \"#utility.yul\":19888:20005   */\n      pop\n        /* \"#utility.yul\":20072:20074   */\n      0x20\n        /* \"#utility.yul\":20061:20070   */\n      dup4\n        /* \"#utility.yul\":20057:20075   */\n      add\n        /* \"#utility.yul\":20044:20076   */\n      calldataload\n        /* \"#utility.yul\":20103:20121   */\n      0xffffffffffffffff\n        /* \"#utility.yul\":20095:20101   */\n      dup2\n        /* \"#utility.yul\":20092:20122   */\n      gt\n        /* \"#utility.yul\":20089:20206   */\n      iszero\n      tag_581\n      jumpi\n        /* \"#utility.yul\":20125:20204   */\n      tag_582\n      tag_319\n      jump\t// in\n    tag_582:\n        /* \"#utility.yul\":20089:20206   */\n    tag_581:\n        /* \"#utility.yul\":20230:20293   */\n      tag_583\n        /* \"#utility.yul\":20285:20292   */\n      dup6\n        /* \"#utility.yul\":20276:20282   */\n      dup3\n        /* \"#utility.yul\":20265:20274   */\n      dup7\n        /* \"#utility.yul\":20261:20283   */\n      add\n        /* \"#utility.yul\":20230:20293   */\n      tag_329\n      jump\t// in\n    tag_583:\n        /* \"#utility.yul\":20220:20293   */\n      swap2\n      pop\n        /* \"#utility.yul\":20015:20303   */\n      pop\n        /* \"#utility.yul\":19656:20310   */\n      swap3\n      pop\n      swap3\n      swap1\n      pop\n      jump\t// out\n        /* \"#utility.yul\":20316:20629   */\n    tag_71:\n        /* \"#utility.yul\":20429:20433   */\n      0x00\n        /* \"#utility.yul\":20467:20469   */\n      0x20\n        /* \"#utility.yul\":20456:20465   */\n      dup3\n        /* \"#utility.yul\":20452:20470   */\n      add\n        /* \"#utility.yul\":20444:20470   */\n      swap1\n      pop\n        /* \"#utility.yul\":20516:20525   */\n      dup2\n        /* \"#utility.yul\":20510:20514   */\n      dup2\n        /* \"#utility.yul\":20506:20526   */\n      sub\n        /* \"#utility.yul\":20502:20503   */\n      0x00\n        /* \"#utility.yul\":20491:20500   */\n      dup4\n        /* \"#utility.yul\":20487:20504   */\n      add\n        /* \"#utility.yul\":20480:20527   */\n      mstore\n        /* \"#utility.yul\":20544:20622   */\n      tag_585\n        /* \"#utility.yul\":20617:20621   */\n      dup2\n        /* \"#utility.yul\":20608:20614   */\n      dup5\n        /* \"#utility.yul\":20544:20622   */\n      tag_333\n      jump\t// in\n    tag_585:\n        /* \"#utility.yul\":20536:20622   */\n      swap1\n      pop\n        /* \"#utility.yul\":20316:20629   */\n      swap3\n      swap2\n      pop\n      pop\n      jump\t// out\n        /* \"#utility.yul\":20635:20815   */\n    tag_357:\n        /* \"#utility.yul\":20683:20760   */\n      0x4e487b7100000000000000000000000000000000000000000000000000000000\n        /* \"#utility.yul\":20680:20681   */\n      0x00\n        /* \"#utility.yul\":20673:20761   */\n      mstore\n        /* \"#utility.yul\":20780:20784   */\n      0x22\n        /* \"#utility.yul\":20777:20778   */\n      0x04\n        /* \"#utility.yul\":20770:20785   */\n      mstore\n        /* \"#utility.yul\":20804:20808   */\n      0x24\n        /* \"#utility.yul\":20801:20802   */\n      0x00\n        /* \"#utility.yul\":20794:20809   */\n      revert\n        /* \"#utility.yul\":20821:21141   */\n    tag_77:\n        /* \"#utility.yul\":20865:20871   */\n      0x00\n        /* \"#utility.yul\":20902:20903   */\n      0x02\n        /* \"#utility.yul\":20896:20900   */\n      dup3\n        /* \"#utility.yul\":20892:20904   */\n      div\n        /* \"#utility.yul\":20882:20904   */\n      swap1\n      pop\n        /* \"#utility.yul\":20949:20950   */\n      0x01\n        /* \"#utility.yul\":20943:20947   */\n      dup3\n        /* \"#utility.yul\":20939:20951   */\n      and\n        /* \"#utility.yul\":20970:20988   */\n      dup1\n        /* \"#utility.yul\":20960:21041   */\n      tag_588\n      jumpi\n        /* \"#utility.yul\":21026:21030   */\n      0x7f\n        /* \"#utility.yul\":21018:21024   */\n      dup3\n        /* \"#utility.yul\":21014:21031   */\n      and\n        /* \"#utility.yul\":21004:21031   */\n      swap2\n      pop\n        /* \"#utility.yul\":20960:21041   */\n    tag_588:\n        /* \"#utility.yul\":21088:21090   */\n      0x20\n        /* \"#utility.yul\":21080:21086   */\n      dup3\n        /* \"#utility.yul\":21077:21091   */\n      lt\n        /* \"#utility.yul\":21057:21075   */\n      dup2\n        /* \"#utility.yul\":21054:21092   */\n      sub\n        /* \"#utility.yul\":21051:21135   */\n      tag_589\n      jumpi\n        /* \"#utility.yul\":21107:21125   */\n      tag_590\n      tag_357\n      jump\t// in\n    tag_590:\n        /* \"#utility.yul\":21051:21135   */\n    tag_589:\n        /* \"#utility.yul\":20872:21141   */\n      pop\n        /* \"#utility.yul\":20821:21141   */\n      swap2\n      swap1\n      pop\n      jump\t// out\n        /* \"#utility.yul\":21147:21327   */\n    tag_127:\n        /* \"#utility.yul\":21195:21272   */\n      0x4e487b7100000000000000000000000000000000000000000000000000000000\n        /* \"#utility.yul\":21192:21193   */\n      0x00\n        /* \"#utility.yul\":21185:21273   */\n      mstore\n        /* \"#utility.yul\":21292:21296   */\n      0x32\n        /* \"#utility.yul\":21289:21290   */\n      0x04\n        /* \"#utility.yul\":21282:21297   */\n      mstore\n        /* \"#utility.yul\":21316:21320   */\n      0x24\n        /* \"#utility.yul\":21313:21314   */\n      0x00\n        /* \"#utility.yul\":21306:21321   */\n      revert\n        /* \"#utility.yul\":21333:21474   */\n    tag_358:\n        /* \"#utility.yul\":21382:21386   */\n      0x00\n        /* \"#utility.yul\":21405:21408   */\n      dup2\n        /* \"#utility.yul\":21397:21408   */\n      swap1\n      pop\n        /* \"#utility.yul\":21428:21431   */\n      dup2\n        /* \"#utility.yul\":21425:21426   */\n      0x00\n        /* \"#utility.yul\":21418:21432   */\n      mstore\n        /* \"#utility.yul\":21462:21466   */\n      0x20\n        /* \"#utility.yul\":21459:21460   */\n      0x00\n        /* \"#utility.yul\":21449:21467   */\n      keccak256\n        /* \"#utility.yul\":21441:21467   */\n      swap1\n      pop\n        /* \"#utility.yul\":21333:21474   */\n      swap2\n      swap1\n      pop\n      jump\t// out\n        /* \"#utility.yul\":21480:21573   */\n    tag_359:\n        /* \"#utility.yul\":21517:21523   */\n      0x00\n        /* \"#utility.yul\":21564:21566   */\n      0x20\n        /* \"#utility.yul\":21559:21561   */\n      0x1f\n        /* \"#utility.yul\":21552:21557   */\n      dup4\n        /* \"#utility.yul\":21548:21562   */\n      add\n        /* \"#utility.yul\":21544:21567   */\n      div\n        /* \"#utility.yul\":21534:21567   */\n      swap1\n      pop\n        /* \"#utility.yul\":21480:21573   */\n      swap2\n      swap1\n      pop\n      jump\t// out\n        /* \"#utility.yul\":21579:21686   */\n    tag_360:\n        /* \"#utility.yul\":21623:21631   */\n      0x00\n        /* \"#utility.yul\":21673:21678   */\n      dup3\n        /* \"#utility.yul\":21667:21671   */\n      dup3\n        /* \"#utility.yul\":21663:21679   */\n      shl\n        /* \"#utility.yul\":21642:21679   */\n      swap1\n      pop\n        /* \"#utility.yul\":21579:21686   */\n      swap3\n      swap2\n      pop\n      pop\n      jump\t// out\n        /* \"#utility.yul\":21692:22085   */\n    tag_361:\n        /* \"#utility.yul\":21761:21767   */\n      0x00\n        /* \"#utility.yul\":21811:21812   */\n      0x08\n        /* \"#utility.yul\":21799:21809   */\n      dup4\n        /* \"#utility.yul\":21795:21813   */\n      mul\n        /* \"#utility.yul\":21834:21931   */\n      tag_596\n        /* \"#utility.yul\":21864:21930   */\n      0xffffffffffffffffffffffffffffffffffffffffffffffffffffffffffffffff\n        /* \"#utility.yul\":21853:21862   */\n      dup3\n        /* \"#utility.yul\":21834:21931   */\n      tag_360\n      jump\t// in\n    tag_596:\n        /* \"#utility.yul\":21952:21991   */\n      tag_597\n        /* \"#utility.yul\":21982:21990   */\n      dup7\n        /* \"#utility.yul\":21971:21980   */\n      dup4\n        /* \"#utility.yul\":21952:21991   */\n      tag_360\n      jump\t// in\n    tag_597:\n        /* \"#utility.yul\":21940:21991   */\n      swap6\n      pop\n        /* \"#utility.yul\":22024:22028   */\n      dup1\n        /* \"#utility.yul\":22020:22029   */\n      not\n        /* \"#utility.yul\":22013:22018   */\n      dup5\n        /* \"#utility.yul\":22009:22030   */\n      and\n        /* \"#utility.yul\":22000:22030   */\n      swap4\n      pop\n        /* \"#utility.yul\":22073:22077   */\n      dup1\n        /* \"#utility.yul\":22063:22071   */\n      dup7\n        /* \"#utility.yul\":22059:22078   */\n      and\n        /* \"#utility.yul\":22052:22057   */\n      dup5\n        /* \"#utility.yul\":22049:22079   */\n      or\n        /* \"#utility.yul\":22039:22079   */\n      swap3\n      pop\n        /* \"#utility.yul\":21768:22085   */\n      pop\n      pop\n        /* \"#utility.yul\":21692:22085   */\n      swap4\n      swap3\n      pop\n      pop\n      pop\n      jump\t// out\n        /* \"#utility.yul\":22091:22151   */\n    tag_362:\n        /* \"#utility.yul\":22119:22122   */\n      0x00\n        /* \"#utility.yul\":22140:22145   */\n      dup2\n        /* \"#utility.yul\":22133:22145   */\n      swap1\n      pop\n        /* \"#utility.yul\":22091:22151   */\n      swap2\n      swap1\n      pop\n      jump\t// out\n        /* \"#utility.yul\":22157:22299   */\n    tag_363:\n        /* \"#utility.yul\":22207:22216   */\n      0x00\n        /* \"#utility.yul\":22240:22293   */\n      tag_600\n        /* \"#utility.yul\":22258:22292   */\n      tag_601\n        /* \"#utility.yul\":22267:22291   */\n      tag_602\n        /* \"#utility.yul\":22285:22290   */\n      dup5\n        /* \"#utility.yul\":22267:22291   */\n      tag_315\n      jump\t// in\n    tag_602:\n        /* \"#utility.yul\":22258:22292   */\n      tag_362\n      jump\t// in\n    tag_601:\n        /* \"#utility.yul\":22240:22293   */\n      tag_315\n      jump\t// in\n    tag_600:\n        /* \"#utility.yul\":22227:22293   */\n      swap1\n      pop\n        /* \"#utility.yul\":22157:22299   */\n      swap2\n      swap1\n      pop\n      jump\t// out\n        /* \"#utility.yul\":22305:22380   */\n    tag_364:\n        /* \"#utility.yul\":22348:22351   */\n      0x00\n        /* \"#utility.yul\":22369:22374   */\n      dup2\n        /* \"#utility.yul\":22362:22374   */\n      swap1\n      pop\n        /* \"#utility.yul\":22305:22380   */\n      swap2\n      swap1\n      pop\n      jump\t// out\n        /* \"#utility.yul\":22386:22655   */\n    tag_365:\n        /* \"#utility.yul\":22496:22535   */\n      tag_605\n        /* \"#utility.yul\":22527:22534   */\n      dup4\n        /* \"#utility.yul\":22496:22535   */\n      tag_363\n      jump\t// in\n    tag_605:\n        /* \"#utility.yul\":22557:22648   */\n      tag_606\n        /* \"#utility.yul\":22606:22647   */\n      tag_607\n        /* \"#utility.yul\":22630:22646   */\n      dup3\n        /* \"#utility.yul\":22606:22647   */\n      tag_364\n      jump\t// in\n    tag_607:\n        /* \"#utility.yul\":22598:22604   */\n      dup5\n        /* \"#utility.yul\":22591:22595   */\n      dup5\n        /* \"#utility.yul\":22585:22596   */\n      sload\n        /* \"#utility.yul\":22557:22648   */\n      tag_361\n      jump\t// in\n    tag_606:\n        /* \"#utility.yul\":22551:22555   */\n      dup3\n        /* \"#utility.yul\":22544:22649   */\n      sstore\n        /* \"#utility.yul\":22462:22655   */\n      pop\n        /* \"#utility.yul\":22386:22655   */\n      pop\n      pop\n      pop\n      jump\t// out\n        /* \"#utility.yul\":22661:22734   */\n    tag_366:\n        /* \"#utility.yul\":22706:22709   */\n      0x00\n        /* \"#utility.yul\":22661:22734   */\n      swap1\n      jump\t// out\n        /* \"#utility.yul\":22740:22929   */\n    tag_367:\n        /* \"#utility.yul\":22817:22849   */\n      tag_610\n      tag_366\n      jump\t// in\n    tag_610:\n        /* \"#utility.yul\":22858:22923   */\n      tag_611\n        /* \"#utility.yul\":22916:22922   */\n      dup2\n        /* \"#utility.yul\":22908:22914   */\n      dup5\n        /* \"#utility.yul\":22902:22906   */\n      dup5\n        /* \"#utility.yul\":22858:22923   */\n      tag_365\n      jump\t// in\n    tag_611:\n        /* \"#utility.yul\":22793:22929   */\n      pop\n        /* \"#utility.yul\":22740:22929   */\n      pop\n      pop\n      jump\t// out\n        /* \"#utility.yul\":22935:23121   */\n    tag_368:\n        /* \"#utility.yul\":22995:23115   */\n    tag_613:\n        /* \"#utility.yul\":23012:23015   */\n      dup2\n        /* \"#utility.yul\":23005:23010   */\n      dup2\n        /* \"#utility.yul\":23002:23016   */\n      lt\n        /* \"#utility.yul\":22995:23115   */\n      iszero\n      tag_615\n      jumpi\n        /* \"#utility.yul\":23066:23105   */\n      tag_616\n        /* \"#utility.yul\":23103:23104   */\n      0x00\n        /* \"#utility.yul\":23096:23101   */\n      dup3\n        /* \"#utility.yul\":23066:23105   */\n      tag_367\n      jump\t// in\n    tag_616:\n        /* \"#utility.yul\":23039:23040   */\n      0x01\n        /* \"#utility.yul\":23032:23037   */\n      dup2\n        /* \"#utility.yul\":23028:23041   */\n      add\n        /* \"#utility.yul\":23019:23041   */\n      swap1\n      pop\n        /* \"#utility.yul\":22995:23115   */\n      jump(tag_613)\n    tag_615:\n        /* \"#utility.yul\":22935:23121   */\n      pop\n      pop\n      jump\t// out\n        /* \"#utility.yul\":23127:23670   */\n    tag_369:\n        /* \"#utility.yul\":23228:23230   */\n      0x1f\n        /* \"#utility.yul\":23223:23226   */\n      dup3\n        /* \"#utility.yul\":23220:23231   */\n      gt\n        /* \"#utility.yul\":23217:23663   */\n      iszero\n      tag_618\n      jumpi\n        /* \"#utility.yul\":23262:23300   */\n      tag_619\n        /* \"#utility.yul\":23294:23299   */\n      dup2\n        /* \"#utility.yul\":23262:23300   */\n      tag_358\n      jump\t// in\n    tag_619:\n        /* \"#utility.yul\":23346:23375   */\n      tag_620\n        /* \"#utility.yul\":23364:23374   */\n      dup5\n        /* \"#utility.yul\":23346:23375   */\n      tag_359\n      jump\t// in\n    tag_620:\n        /* \"#utility.yul\":23336:23344   */\n      dup2\n        /* \"#utility.yul\":23332:23376   */\n      add\n        /* \"#utility.yul\":23529:23531   */\n      0x20\n        /* \"#utility.yul\":23517:23527   */\n      dup6\n        /* \"#utility.yul\":23514:23532   */\n      lt\n        /* \"#utility.yul\":23511:23560   */\n      iszero\n      tag_621\n      jumpi\n        /* \"#utility.yul\":23550:23558   */\n      dup2\n        /* \"#utility.yul\":23535:23558   */\n      swap1\n      pop\n        /* \"#utility.yul\":23511:23560   */\n    tag_621:\n        /* \"#utility.yul\":23573:23653   */\n      tag_622\n        /* \"#utility.yul\":23629:23651   */\n      tag_623\n        /* \"#utility.yul\":23647:23650   */\n      dup6\n        /* \"#utility.yul\":23629:23651   */\n      tag_359\n      jump\t// in\n    tag_623:\n        /* \"#utility.yul\":23619:23627   */\n      dup4\n        /* \"#utility.yul\":23615:23652   */\n      add\n        /* \"#utility.yul\":23602:23613   */\n      dup3\n        /* \"#utility.yul\":23573:23653   */\n      tag_368\n      jump\t// in\n    tag_622:\n        /* \"#utility.yul\":23232:23663   */\n      pop\n      pop\n        /* \"#utility.yul\":23217:23663   */\n    tag_618:\n        /* \"#utility.yul\":23127:23670   */\n      pop\n      pop\n      pop\n      jump\t// out\n        /* \"#utility.yul\":23676:23793   */\n    tag_370:\n        /* \"#utility.yul\":23730:23738   */\n      0x00\n        /* \"#utility.yul\":23780:23785   */\n      dup3\n        /* \"#utility.yul\":23774:23778   */\n      dup3\n        /* \"#utility.yul\":23770:23786   */\n      shr\n        /* \"#utility.yul\":23749:23786   */\n      swap1\n      pop\n        /* \"#utility.yul\":23676:23793   */\n      swap3\n      swap2\n      pop\n      pop\n      jump\t// out\n        /* \"#utility.yul\":23799:23968   */\n    tag_371:\n        /* \"#utility.yul\":23843:23849   */\n      0x00\n        /* \"#utility.yul\":23876:23927   */\n      tag_626\n        /* \"#utility.yul\":23924:23925   */\n      0x00\n        /* \"#utility.yul\":23920:23926   */\n      not\n        /* \"#utility.yul\":23912:23917   */\n      dup5\n        /* \"#utility.yul\":23909:23910   */\n      0x08\n        /* \"#utility.yul\":23905:23918   */\n      mul\n        /* \"#utility.yul\":23876:23927   */\n      tag_370\n      jump\t// in\n    tag_626:\n        /* \"#utility.yul\":23872:23928   */\n      not\n        /* \"#utility.yul\":23957:23961   */\n      dup1\n        /* \"#utility.yul\":23951:23955   */\n      dup4\n        /* \"#utility.yul\":23947:23962   */\n      and\n        /* \"#utility.yul\":23937:23962   */\n      swap2\n      pop\n        /* \"#utility.yul\":23850:23968   */\n      pop\n        /* \"#utility.yul\":23799:23968   */\n      swap3\n      swap2\n      pop\n      pop\n      jump\t// out\n        /* \"#utility.yul\":23973:24268   */\n    tag_372:\n        /* \"#utility.yul\":24049:24053   */\n      0x00\n        /* \"#utility.yul\":24195:24224   */\n      tag_628\n        /* \"#utility.yul\":24220:24223   */\n      dup4\n        /* \"#utility.yul\":24214:24218   */\n      dup4\n        /* \"#utility.yul\":24195:24224   */\n      tag_371\n      jump\t// in\n    tag_628:\n        /* \"#utility.yul\":24187:24224   */\n      swap2\n      pop\n        /* \"#utility.yul\":24257:24260   */\n      dup3\n        /* \"#utility.yul\":24254:24255   */\n      0x02\n        /* \"#utility.yul\":24250:24261   */\n      mul\n        /* \"#utility.yul\":24244:24248   */\n      dup3\n        /* \"#utility.yul\":24241:24262   */\n      or\n        /* \"#utility.yul\":24233:24262   */\n      swap1\n      pop\n        /* \"#utility.yul\":23973:24268   */\n      swap3\n      swap2\n      pop\n      pop\n      jump\t// out\n        /* \"#utility.yul\":24273:25668   */\n    tag_130:\n        /* \"#utility.yul\":24390:24427   */\n      tag_630\n        /* \"#utility.yul\":24423:24426   */\n      dup3\n        /* \"#utility.yul\":24390:24427   */\n      tag_330\n      jump\t// in\n    tag_630:\n        /* \"#utility.yul\":24492:24510   */\n      0xffffffffffffffff\n        /* \"#utility.yul\":24484:24490   */\n      dup2\n        /* \"#utility.yul\":24481:24511   */\n      gt\n        /* \"#utility.yul\":24478:24534   */\n      iszero\n      tag_631\n      jumpi\n        /* \"#utility.yul\":24514:24532   */\n      tag_632\n      tag_323\n      jump\t// in\n    tag_632:\n        /* \"#utility.yul\":24478:24534   */\n    tag_631:\n        /* \"#utility.yul\":24558:24596   */\n      tag_633\n        /* \"#utility.yul\":24590:24594   */\n      dup3\n        /* \"#utility.yul\":24584:24595   */\n      sload\n        /* \"#utility.yul\":24558:24596   */\n      tag_77\n      jump\t// in\n    tag_633:\n        /* \"#utility.yul\":24643:24710   */\n      tag_634\n        /* \"#utility.yul\":24703:24709   */\n      dup3\n        /* \"#utility.yul\":24695:24701   */\n      dup3\n        /* \"#utility.yul\":24689:24693   */\n      dup6\n        /* \"#utility.yul\":24643:24710   */\n      tag_369\n      jump\t// in\n    tag_634:\n        /* \"#utility.yul\":24737:24738   */\n      0x00\n        /* \"#utility.yul\":24761:24765   */\n      0x20\n        /* \"#utility.yul\":24748:24765   */\n      swap1\n      pop\n        /* \"#utility.yul\":24793:24795   */\n      0x1f\n        /* \"#utility.yul\":24785:24791   */\n      dup4\n        /* \"#utility.yul\":24782:24796   */\n      gt\n        /* \"#utility.yul\":24810:24811   */\n      0x01\n        /* \"#utility.yul\":24805:25423   */\n      dup2\n      eq\n      tag_636\n      jumpi\n        /* \"#utility.yul\":25467:25468   */\n      0x00\n        /* \"#utility.yul\":25484:25490   */\n      dup5\n        /* \"#utility.yul\":25481:25558   */\n      iszero\n      tag_637\n      jumpi\n        /* \"#utility.yul\":25533:25542   */\n      dup3\n        /* \"#utility.yul\":25528:25531   */\n      dup8\n        /* \"#utility.yul\":25524:25543   */\n      add\n        /* \"#utility.yul\":25518:25544   */\n      mload\n        /* \"#utility.yul\":25509:25544   */\n      swap1\n      pop\n        /* \"#utility.yul\":25481:25558   */\n    tag_637:\n        /* \"#utility.yul\":25584:25651   */\n      tag_638\n        /* \"#utility.yul\":25644:25650   */\n      dup6\n        /* \"#utility.yul\":25637:25642   */\n      dup3\n        /* \"#utility.yul\":25584:25651   */\n      tag_372\n      jump\t// in\n    tag_638:\n        /* \"#utility.yul\":25578:25582   */\n      dup7\n        /* \"#utility.yul\":25571:25652   */\n      sstore\n        /* \"#utility.yul\":25440:25662   */\n      pop\n        /* \"#utility.yul\":24775:25662   */\n      jump(tag_635)\n        /* \"#utility.yul\":24805:25423   */\n    tag_636:\n        /* \"#utility.yul\":24857:24861   */\n      0x1f\n        /* \"#utility.yul\":24853:24862   */\n      not\n        /* \"#utility.yul\":24845:24851   */\n      dup5\n        /* \"#utility.yul\":24841:24863   */\n      and\n        /* \"#utility.yul\":24891:24928   */\n      tag_639\n        /* \"#utility.yul\":24923:24927   */\n      dup7\n        /* \"#utility.yul\":24891:24928   */\n      tag_358\n      jump\t// in\n    tag_639:\n        /* \"#utility.yul\":24950:24951   */\n      0x00\n        /* \"#utility.yul\":24964:25172   */\n    tag_640:\n        /* \"#utility.yul\":24978:24985   */\n      dup3\n        /* \"#utility.yul\":24975:24976   */\n      dup2\n        /* \"#utility.yul\":24972:24986   */\n      lt\n        /* \"#utility.yul\":24964:25172   */\n      iszero\n      tag_642\n      jumpi\n        /* \"#utility.yul\":25057:25066   */\n      dup5\n        /* \"#utility.yul\":25052:25055   */\n      dup10\n        /* \"#utility.yul\":25048:25067   */\n      add\n        /* \"#utility.yul\":25042:25068   */\n      mload\n        /* \"#utility.yul\":25034:25040   */\n      dup3\n        /* \"#utility.yul\":25027:25069   */\n      sstore\n        /* \"#utility.yul\":25108:25109   */\n      0x01\n        /* \"#utility.yul\":25100:25106   */\n      dup3\n        /* \"#utility.yul\":25096:25110   */\n      add\n        /* \"#utility.yul\":25086:25110   */\n      swap2\n      pop\n        /* \"#utility.yul\":25155:25157   */\n      0x20\n        /* \"#utility.yul\":25144:25153   */\n      dup6\n        /* \"#utility.yul\":25140:25158   */\n      add\n        /* \"#utility.yul\":25127:25158   */\n      swap5\n      pop\n        /* \"#utility.yul\":25001:25005   */\n      0x20\n        /* \"#utility.yul\":24998:24999   */\n      dup2\n        /* \"#utility.yul\":24994:25006   */\n      add\n        /* \"#utility.yul\":24989:25006   */\n      swap1\n      pop\n        /* \"#utility.yul\":24964:25172   */\n      jump(tag_640)\n    tag_642:\n        /* \"#utility.yul\":25200:25206   */\n      dup7\n        /* \"#utility.yul\":25191:25198   */\n      dup4\n        /* \"#utility.yul\":25188:25207   */\n      lt\n        /* \"#utility.yul\":25185:25364   */\n      iszero\n      tag_643\n      jumpi\n        /* \"#utility.yul\":25258:25267   */\n      dup5\n        /* \"#utility.yul\":25253:25256   */\n      dup10\n        /* \"#utility.yul\":25249:25268   */\n      add\n        /* \"#utility.yul\":25243:25269   */\n      mload\n        /* \"#utility.yul\":25301:25349   */\n      tag_644\n        /* \"#utility.yul\":25343:25347   */\n      0x1f\n        /* \"#utility.yul\":25335:25341   */\n      dup10\n        /* \"#utility.yul\":25331:25348   */\n      and\n        /* \"#utility.yul\":25320:25329   */\n      dup3\n        /* \"#utility.yul\":25301:25349   */\n      tag_371\n      jump\t// in\n    tag_644:\n        /* \"#utility.yul\":25293:25299   */\n      dup4\n        /* \"#utility.yul\":25286:25350   */\n      sstore\n        /* \"#utility.yul\":25208:25364   */\n      pop\n        /* \"#utility.yul\":25185:25364   */\n    tag_643:\n        /* \"#utility.yul\":25410:25411   */\n      0x01\n        /* \"#utility.yul\":25406:25407   */\n      0x02\n        /* \"#utility.yul\":25398:25404   */\n      dup9\n        /* \"#utility.yul\":25394:25408   */\n      mul\n        /* \"#utility.yul\":25390:25412   */\n      add\n        /* \"#utility.yul\":25384:25388   */\n      dup9\n        /* \"#utility.yul\":25377:25413   */\n      sstore\n        /* \"#utility.yul\":24812:25423   */\n      pop\n      pop\n      pop\n        /* \"#utility.yul\":24775:25662   */\n    tag_635:\n      pop\n        /* \"#utility.yul\":24365:25668   */\n      pop\n      pop\n      pop\n        /* \"#utility.yul\":24273:25668   */\n      pop\n      pop\n      jump\t// out\n        /* \"#utility.yul\":25674:25854   */\n    tag_373:\n        /* \"#utility.yul\":25722:25799   */\n      0x4e487b7100000000000000000000000000000000000000000000000000000000\n        /* \"#utility.yul\":25719:25720   */\n      0x00\n        /* \"#utility.yul\":25712:25800   */\n      mstore\n        /* \"#utility.yul\":25819:25823   */\n      0x11\n        /* \"#utility.yul\":25816:25817   */\n      0x04\n        /* \"#utility.yul\":25809:25824   */\n      mstore\n        /* \"#utility.yul\":25843:25847   */\n      0x24\n        /* \"#utility.yul\":25840:25841   */\n      0x00\n        /* \"#utility.yul\":25833:25848   */\n      revert\n        /* \"#utility.yul\":25860:26031   */\n    tag_133:\n        /* \"#utility.yul\":25899:25902   */\n      0x00\n        /* \"#utility.yul\":25922:25946   */\n      tag_647\n        /* \"#utility.yul\":25940:25945   */\n      dup3\n        /* \"#utility.yul\":25922:25946   */\n      tag_315\n      jump\t// in\n    tag_647:\n        /* \"#utility.yul\":25913:25946   */\n      swap2\n      pop\n        /* \"#utility.yul\":25968:25972   */\n      0x00\n        /* \"#utility.yul\":25961:25966   */\n      dup3\n        /* \"#utility.yul\":25958:25973   */\n      sub\n        /* \"#utility.yul\":25955:25996   */\n      tag_648\n      jumpi\n        /* \"#utility.yul\":25976:25994   */\n      tag_649\n      tag_373\n      jump\t// in\n    tag_649:\n        /* \"#utility.yul\":25955:25996   */\n    tag_648:\n        /* \"#utility.yul\":26023:26024   */\n      0x01\n        /* \"#utility.yul\":26016:26021   */\n      dup3\n        /* \"#utility.yul\":26012:26025   */\n      sub\n        /* \"#utility.yul\":26005:26025   */\n      swap1\n      pop\n        /* \"#utility.yul\":25860:26031   */\n      swap2\n      swap1\n      pop\n      jump\t// out\n        /* \"#utility.yul\":26037:26185   */\n    tag_374:\n        /* \"#utility.yul\":26139:26150   */\n      0x00\n        /* \"#utility.yul\":26176:26179   */\n      dup2\n        /* \"#utility.yul\":26161:26179   */\n      swap1\n      pop\n        /* \"#utility.yul\":26037:26185   */\n      swap3\n      swap2\n      pop\n      pop\n      jump\t// out\n        /* \"#utility.yul\":26191:26581   */\n    tag_375:\n        /* \"#utility.yul\":26297:26300   */\n      0x00\n        /* \"#utility.yul\":26325:26364   */\n      tag_652\n        /* \"#utility.yul\":26358:26363   */\n      dup3\n        /* \"#utility.yul\":26325:26364   */\n      tag_330\n      jump\t// in\n    tag_652:\n        /* \"#utility.yul\":26380:26469   */\n      tag_653\n        /* \"#utility.yul\":26462:26468   */\n      dup2\n        /* \"#utility.yul\":26457:26460   */\n      dup6\n        /* \"#utility.yul\":26380:26469   */\n      tag_374\n      jump\t// in\n    tag_653:\n        /* \"#utility.yul\":26373:26469   */\n      swap4\n      pop\n        /* \"#utility.yul\":26478:26543   */\n      tag_654\n        /* \"#utility.yul\":26536:26542   */\n      dup2\n        /* \"#utility.yul\":26531:26534   */\n      dup6\n        /* \"#utility.yul\":26524:26528   */\n      0x20\n        /* \"#utility.yul\":26517:26522   */\n      dup7\n        /* \"#utility.yul\":26513:26529   */\n      add\n        /* \"#utility.yul\":26478:26543   */\n      tag_332\n      jump\t// in\n    tag_654:\n        /* \"#utility.yul\":26568:26574   */\n      dup1\n        /* \"#utility.yul\":26563:26566   */\n      dup5\n        /* \"#utility.yul\":26559:26575   */\n      add\n        /* \"#utility.yul\":26552:26575   */\n      swap2\n      pop\n        /* \"#utility.yul\":26301:26581   */\n      pop\n        /* \"#utility.yul\":26191:26581   */\n      swap3\n      swap2\n      pop\n      pop\n      jump\t// out\n        /* \"#utility.yul\":26587:26862   */\n    tag_136:\n        /* \"#utility.yul\":26719:26722   */\n      0x00\n        /* \"#utility.yul\":26741:26836   */\n      tag_656\n        /* \"#utility.yul\":26832:26835   */\n      dup3\n        /* \"#utility.yul\":26823:26829   */\n      dup5\n        /* \"#utility.yul\":26741:26836   */\n      tag_375\n      jump\t// in\n    tag_656:\n        /* \"#utility.yul\":26734:26836   */\n      swap2\n      pop\n        /* \"#utility.yul\":26853:26856   */\n      dup2\n        /* \"#utility.yul\":26846:26856   */\n      swap1\n      pop\n        /* \"#utility.yul\":26587:26862   */\n      swap3\n      swap2\n      pop\n      pop\n      jump\t// out\n        /* \"#utility.yul\":26868:27101   */\n    tag_268:\n        /* \"#utility.yul\":26907:26910   */\n      0x00\n        /* \"#utility.yul\":26930:26954   */\n      tag_658\n        /* \"#utility.yul\":26948:26953   */\n      dup3\n        /* \"#utility.yul\":26930:26954   */\n      tag_315\n      jump\t// in\n    tag_658:\n        /* \"#utility.yul\":26921:26954   */\n      swap2\n      pop\n        /* \"#utility.yul\":26976:27042   */\n      0xffffffffffffffffffffffffffffffffffffffffffffffffffffffffffffffff\n        /* \"#utility.yul\":26969:26974   */\n      dup3\n        /* \"#utility.yul\":26966:27043   */\n      sub\n        /* \"#utility.yul\":26963:27066   */\n      tag_659\n      jumpi\n        /* \"#utility.yul\":27046:27064   */\n      tag_660\n      tag_373\n      jump\t// in\n    tag_660:\n        /* \"#utility.yul\":26963:27066   */\n    tag_659:\n        /* \"#utility.yul\":27093:27094   */\n      0x01\n        /* \"#utility.yul\":27086:27091   */\n      dup3\n        /* \"#utility.yul\":27082:27095   */\n      add\n        /* \"#utility.yul\":27075:27095   */\n      swap1\n      pop\n        /* \"#utility.yul\":26868:27101   */\n      swap2\n      swap1\n      pop\n      jump\t// out\n    stop\n    data_2fe1bde1b84b10ebdbd3bbdfaafe37aec8f7c7d7968d28514693b7e0a6268ba1 64757269616e2064616d6167656420706c656173652073656c65637420616e6f746865722064757269616e\n\n    auxdata: 0xa26469706673582212204790474ed992c2ad684ee15e42ab8730b475ce36f8b8993fd2ae08ee578d8f5664736f6c63430008120033\n}\n",
				"bytecode": {
					"linkReferences": {},
					"object": "60806040526040518060c001604052806040518060400160405280600781526020017f64656661756c740000000000000000000000000000000000000000000000000081525081526020016040518060400160405280600781526020017f64656661756c74000000000000000000000000000000000000000000000000008152508152602001600260048111156200009c576200009b62000247565b5b815260200160026004811115620000b857620000b762000247565b5b815260200160026004811115620000d457620000d362000247565b5b815260200160026004811115620000f057620000ef62000247565b5b815250600460008201518160000190816200010c9190620004f0565b506020820151816001019081620001249190620004f0565b5060408201518160020160006101000a81548160ff0219169083600481111562000153576200015262000247565b5b021790555060608201518160020160016101000a81548160ff0219169083600481111562000186576200018562000247565b5b021790555060808201518160020160026101000a81548160ff02191690836004811115620001b957620001b862000247565b5b021790555060a08201518160020160036101000a81548160ff02191690836004811115620001ec57620001eb62000247565b5b021790555050503480156200020057600080fd5b50336000806101000a81548173ffffffffffffffffffffffffffffffffffffffff021916908373ffffffffffffffffffffffffffffffffffffffff160217905550620005d7565b7f4e487b7100000000000000000000000000000000000000000000000000000000600052602160045260246000fd5b600081519050919050565b7f4e487b7100000000000000000000000000000000000000000000000000000000600052604160045260246000fd5b7f4e487b7100000000000000000000000000000000000000000000000000000000600052602260045260246000fd5b60006002820490506001821680620002f857607f821691505b6020821081036200030e576200030d620002b0565b5b50919050565b60008190508160005260206000209050919050565b60006020601f8301049050919050565b600082821b905092915050565b600060088302620003787fffffffffffffffffffffffffffffffffffffffffffffffffffffffffffffffff8262000339565b62000384868362000339565b95508019841693508086168417925050509392505050565b6000819050919050565b6000819050919050565b6000620003d1620003cb620003c5846200039c565b620003a6565b6200039c565b9050919050565b6000819050919050565b620003ed83620003b0565b62000405620003fc82620003d8565b84845462000346565b825550505050565b600090565b6200041c6200040d565b62000429818484620003e2565b505050565b5b8181101562000451576200044560008262000412565b6001810190506200042f565b5050565b601f821115620004a0576200046a8162000314565b620004758462000329565b8101602085101562000485578190505b6200049d620004948562000329565b8301826200042e565b50505b505050565b600082821c905092915050565b6000620004c560001984600802620004a5565b1980831691505092915050565b6000620004e08383620004b2565b9150826002028217905092915050565b620004fb8262000276565b67ffffffffffffffff81111562000517576200051662000281565b5b620005238254620002df565b6200053082828562000455565b600060209050601f83116001811462000568576000841562000553578287015190505b6200055f8582620004d2565b865550620005cf565b601f198416620005788662000314565b60005b82811015620005a2578489015182556001820191506020850194506020810190506200057b565b86831015620005c25784890151620005be601f891682620004b2565b8355505b6001600288020188555050505b505050505050565b612b7e80620005e76000396000f3fe608060405234801561001057600080fd5b50600436106100cf5760003560e01c80635a3752581161008c578063d273e1c311610066578063d273e1c314610234578063d66d2a5714610250578063e8287d1a1461026e578063ea3e73731461029e576100cf565b80635a375258146101b65780637fa9571f146101e6578063cd3d46fc14610204576100cf565b80630fd60125146100d45780631dd51307146100f25780632966b29b1461012d57806345b2bd2f1461014b57806345c6809014610167578063498d470714610183575b600080fd5b6100dc6102ce565b6040516100e99190611c92565b60405180910390f35b61010c60048036038101906101079190611e07565b6102d4565b6040516101249c9b9a9998979695949392919061207c565b60405180910390f35b610135610749565b6040516101429190612152565b60405180910390f35b6101656004803603810190610160919061228d565b61076d565b005b610181600480360381019061017c91906123f9565b6108eb565b005b61019d600480360381019061019891906124b4565b610b6b565b6040516101ad94939291906124e1565b60405180910390f35b6101d060048036038101906101cb9190611e07565b610cdb565b6040516101dd9190611c92565b60405180910390f35b6101ee610d06565b6040516101fb9190611c92565b60405180910390f35b61021e60048036038101906102199190612534565b610d10565b60405161022b91906125db565b60405180910390f35b61024e600480360381019061024991906125f6565b610fe9565b005b61025861170f565b6040516102659190612152565b60405180910390f35b6102886004803603810190610283919061269f565b611738565b60405161029591906126fb565b60405180910390f35b6102b860048036038101906102b39190612534565b6118e6565b6040516102c591906125db565b60405180910390f35b60015481565b60038180516020810182018051848252602083016020850120818352809550505050505060009150905080600001805461030d9061274c565b80601f01602080910402602001604051908101604052809291908181526020018280546103399061274c565b80156103865780601f1061035b57610100808354040283529160200191610386565b820191906000526020600020905b81548152906001019060200180831161036957829003601f168201915b5050505050908060010154908060020154908060030154908060040160009054906101000a900473ffffffffffffffffffffffffffffffffffffffff16908060050154908060060154908060070160009054906101000a900473ffffffffffffffffffffffffffffffffffffffff1690806008016040518060c00160405290816000820180546104159061274c565b80601f01602080910402602001604051908101604052809291908181526020018280546104419061274c565b801561048e5780601f106104635761010080835404028352916020019161048e565b820191906000526020600020905b81548152906001019060200180831161047157829003601f168201915b505050505081526020016001820180546104a79061274c565b80601f01602080910402602001604051908101604052809291908181526020018280546104d39061274c565b80156105205780601f106104f557610100808354040283529160200191610520565b820191906000526020600020905b81548152906001019060200180831161050357829003601f168201915b505050505081526020016002820160009054906101000a900460ff16600481111561054e5761054d611f5a565b5b60048111156105605761055f611f5a565b5b81526020016002820160019054906101000a900460ff16600481111561058957610588611f5a565b5b600481111561059b5761059a611f5a565b5b81526020016002820160029054906101000a900460ff1660048111156105c4576105c3611f5a565b5b60048111156105d6576105d5611f5a565b5b81526020016002820160039054906101000a900460ff1660048111156105ff576105fe611f5a565b5b600481111561061157610610611f5a565b5b815250509080600b0180546106259061274c565b80601f01602080910402602001604051908101604052809291908181526020018280546106519061274c565b801561069e5780601f106106735761010080835404028352916020019161069e565b820191906000526020600020905b81548152906001019060200180831161068157829003601f168201915b50505050509080600c0160009054906101000a900460ff169080600d0180546106c69061274c565b80601f01602080910402602001604051908101604052809291908181526020018280546106f29061274c565b801561073f5780601f106107145761010080835404028352916020019161073f565b820191906000526020600020905b81548152906001019060200180831161072257829003601f168201915b505050505090508c565b60008054906101000a900473ffffffffffffffffffffffffffffffffffffffff1681565b60008054906101000a900473ffffffffffffffffffffffffffffffffffffffff168073ffffffffffffffffffffffffffffffffffffffff163373ffffffffffffffffffffffffffffffffffffffff16146107c657600080fd5b6000855190505b600081036108e357600260405180608001604052808884815181106107f5576107f461277d565b5b602002602001015173ffffffffffffffffffffffffffffffffffffffff16815260200187815260200186815260200185815250908060018154018082558091505060019003906000526020600020906004020160009091909190915060008201518160000160006101000a81548173ffffffffffffffffffffffffffffffffffffffff021916908373ffffffffffffffffffffffffffffffffffffffff1602179055506020820151816001015560408201518160020190816108b79190612958565b5060608201518160030190816108cd9190612958565b50505080806108db90612a59565b9150506107cd565b505050505050565b6003846040516108fb9190612abe565b908152602001604051809103902060070160009054906101000a900473ffffffffffffffffffffffffffffffffffffffff1673ffffffffffffffffffffffffffffffffffffffff163373ffffffffffffffffffffffffffffffffffffffff1603610b65576040518060c001604052808481526020018381526020016109978360006004811061098d5761098c61277d565b5b6020020151611bbf565b60048111156109a9576109a8611f5a565b5b81526020016109cf836001600481106109c5576109c461277d565b5b6020020151611bbf565b60048111156109e1576109e0611f5a565b5b8152602001610a07836002600481106109fd576109fc61277d565b5b6020020151611bbf565b6004811115610a1957610a18611f5a565b5b8152602001610a3f83600360048110610a3557610a3461277d565b5b6020020151611bbf565b6004811115610a5157610a50611f5a565b5b815250600385604051610a649190612abe565b90815260200160405180910390206008016000820151816000019081610a8a9190612958565b506020820151816001019081610aa09190612958565b5060408201518160020160006101000a81548160ff02191690836004811115610acc57610acb611f5a565b5b021790555060608201518160020160016101000a81548160ff02191690836004811115610afc57610afb611f5a565b5b021790555060808201518160020160026101000a81548160ff02191690836004811115610b2c57610b2b611f5a565b5b021790555060a08201518160020160036101000a81548160ff02191690836004811115610b5c57610b5b611f5a565b5b02179055509050505b50505050565b60028181548110610b7b57600080fd5b90600052602060002090600402016000915090508060000160009054906101000a900473ffffffffffffffffffffffffffffffffffffffff1690806001015490806002018054610bca9061274c565b80601f0160208091040260200160405190810160405280929190818152602001828054610bf69061274c565b8015610c435780601f10610c1857610100808354040283529160200191610c43565b820191906000526020600020905b815481529060010190602001808311610c2657829003601f168201915b505050505090806003018054610c589061274c565b80601f0160208091040260200160405190810160405280929190818152602001828054610c849061274c565b8015610cd15780601f10610ca657610100808354040283529160200191610cd1565b820191906000526020600020905b815481529060010190602001808311610cb457829003601f168201915b5050505050905084565b6000600382604051610ced9190612abe565b9081526020016040518091039020600101549050919050565b6000600154905090565b600080600060028054905090505b60008103610e795760008054906101000a900473ffffffffffffffffffffffffffffffffffffffff1673ffffffffffffffffffffffffffffffffffffffff163373ffffffffffffffffffffffffffffffffffffffff1603610da15760008054906101000a900473ffffffffffffffffffffffffffffffffffffffff169150610e79565b3373ffffffffffffffffffffffffffffffffffffffff1660028281548110610dcc57610dcb61277d565b5b906000526020600020906004020160000160009054906101000a900473ffffffffffffffffffffffffffffffffffffffff1673ffffffffffffffffffffffffffffffffffffffff1603610e665760028181548110610e2d57610e2c61277d565b5b906000526020600020906004020160000160009054906101000a900473ffffffffffffffffffffffffffffffffffffffff169150610e79565b8080610e7190612a59565b915050610d1e565b508073ffffffffffffffffffffffffffffffffffffffff163373ffffffffffffffffffffffffffffffffffffffff1614610eb257600080fd5b610f6584600387604051610ec69190612abe565b9081526020016040518091039020600b018054610ee29061274c565b80601f0160208091040260200160405190810160405280929190818152602001828054610f0e9061274c565b8015610f5b5780601f10610f3057610100808354040283529160200191610f5b565b820191906000526020600020905b815481529060010190602001808311610f3e57829003601f168201915b5050505050611c20565b15610fdc5782600386604051610f7b9190612abe565b9081526020016040518091039020600d019081610f989190612958565b506000600386604051610fab9190612abe565b9081526020016040518091039020600c0160006101000a81548160ff02191690831515021790555060019150610fe1565b600091505b509392505050565b60008060028054905090505b600081036111505760008054906101000a900473ffffffffffffffffffffffffffffffffffffffff1673ffffffffffffffffffffffffffffffffffffffff163373ffffffffffffffffffffffffffffffffffffffff16036110785760008054906101000a900473ffffffffffffffffffffffffffffffffffffffff169150611150565b3373ffffffffffffffffffffffffffffffffffffffff16600282815481106110a3576110a261277d565b5b906000526020600020906004020160000160009054906101000a900473ffffffffffffffffffffffffffffffffffffffff1673ffffffffffffffffffffffffffffffffffffffff160361113d57600281815481106111045761110361277d565b5b906000526020600020906004020160000160009054906101000a900473ffffffffffffffffffffffffffffffffffffffff169150611150565b808061114890612a59565b915050610ff5565b508073ffffffffffffffffffffffffffffffffffffffff163373ffffffffffffffffffffffffffffffffffffffff161461118957600080fd5b6040518061018001604052808881526020018781526020018681526020018581526020013373ffffffffffffffffffffffffffffffffffffffff16815260200184815260200183815260200160008054906101000a900473ffffffffffffffffffffffffffffffffffffffff1673ffffffffffffffffffffffffffffffffffffffff16815260200160046040518060c001604052908160008201805461122e9061274c565b80601f016020809104026020016040519081016040528092919081815260200182805461125a9061274c565b80156112a75780601f1061127c576101008083540402835291602001916112a7565b820191906000526020600020905b81548152906001019060200180831161128a57829003601f168201915b505050505081526020016001820180546112c09061274c565b80601f01602080910402602001604051908101604052809291908181526020018280546112ec9061274c565b80156113395780601f1061130e57610100808354040283529160200191611339565b820191906000526020600020905b81548152906001019060200180831161131c57829003601f168201915b505050505081526020016002820160009054906101000a900460ff16600481111561136757611366611f5a565b5b600481111561137957611378611f5a565b5b81526020016002820160019054906101000a900460ff1660048111156113a2576113a1611f5a565b5b60048111156113b4576113b3611f5a565b5b81526020016002820160029054906101000a900460ff1660048111156113dd576113dc611f5a565b5b60048111156113ef576113ee611f5a565b5b81526020016002820160039054906101000a900460ff16600481111561141857611417611f5a565b5b600481111561142a57611429611f5a565b5b8152505081526020016040518060400160405280600481526020017f6661726d0000000000000000000000000000000000000000000000000000000081525081526020016000151581526020016040518060400160405280600781526020017f70657266656374000000000000000000000000000000000000000000000000008152508152506003886040516114c09190612abe565b908152602001604051809103902060008201518160000190816114e39190612958565b5060208201518160010155604082015181600201556060820151816003015560808201518160040160006101000a81548173ffffffffffffffffffffffffffffffffffffffff021916908373ffffffffffffffffffffffffffffffffffffffff16021790555060a0820151816005015560c0820151816006015560e08201518160070160006101000a81548173ffffffffffffffffffffffffffffffffffffffff021916908373ffffffffffffffffffffffffffffffffffffffff1602179055506101008201518160080160008201518160000190816115c39190612958565b5060208201518160010190816115d99190612958565b5060408201518160020160006101000a81548160ff0219169083600481111561160557611604611f5a565b5b021790555060608201518160020160016101000a81548160ff0219169083600481111561163557611634611f5a565b5b021790555060808201518160020160026101000a81548160ff0219169083600481111561166557611664611f5a565b5b021790555060a08201518160020160036101000a81548160ff0219169083600481111561169557611694611f5a565b5b0217905550505061012082015181600b0190816116b29190612958565b5061014082015181600c0160006101000a81548160ff02191690831515021790555061016082015181600d0190816116ea9190612958565b509050506001600081548092919061170190612ad5565b919050555050505050505050565b60008060009054906101000a900473ffffffffffffffffffffffffffffffffffffffff16905090565b606061182260038360405161174d9190612abe565b9081526020016040518091039020600d0180546117699061274c565b80601f01602080910402602001604051908101604052809291908181526020018280546117959061274c565b80156117e25780601f106117b7576101008083540402835291602001916117e2565b820191906000526020600020905b8154815290600101906020018083116117c557829003601f168201915b50505050506040518060400160405280600781526020017f64616d6167656400000000000000000000000000000000000000000000000000815250611c20565b15611847576040518060600160405280602b8152602001612b1e602b913990506118e0565b826003836040516118589190612abe565b908152602001604051809103902060070160006101000a81548173ffffffffffffffffffffffffffffffffffffffff021916908373ffffffffffffffffffffffffffffffffffffffff1602179055506040518060400160405280600a81526020017f7375636365737366756c0000000000000000000000000000000000000000000081525090505b92915050565b600080600060028054905090505b60008103611a4f5760008054906101000a900473ffffffffffffffffffffffffffffffffffffffff1673ffffffffffffffffffffffffffffffffffffffff163373ffffffffffffffffffffffffffffffffffffffff16036119775760008054906101000a900473ffffffffffffffffffffffffffffffffffffffff169150611a4f565b3373ffffffffffffffffffffffffffffffffffffffff16600282815481106119a2576119a161277d565b5b906000526020600020906004020160000160009054906101000a900473ffffffffffffffffffffffffffffffffffffffff1673ffffffffffffffffffffffffffffffffffffffff1603611a3c5760028181548110611a0357611a0261277d565b5b906000526020600020906004020160000160009054906101000a900473ffffffffffffffffffffffffffffffffffffffff169150611a4f565b8080611a4790612a59565b9150506118f4565b508073ffffffffffffffffffffffffffffffffffffffff163373ffffffffffffffffffffffffffffffffffffffff1614611a8857600080fd5b611b3b85600385604051611a9c9190612abe565b9081526020016040518091039020600b018054611ab89061274c565b80601f0160208091040260200160405190810160405280929190818152602001828054611ae49061274c565b8015611b315780601f10611b0657610100808354040283529160200191611b31565b820191906000526020600020905b815481529060010190602001808311611b1457829003601f168201915b5050505050611c20565b15611bb25783600384604051611b519190612abe565b9081526020016040518091039020600b019081611b6e9190612958565b506001600384604051611b819190612abe565b9081526020016040518091039020600c0160006101000a81548160ff02191690831515021790555060019150611bb7565b600091505b509392505050565b600060018203611bd25760009050611c1b565b60028203611be35760019050611c1b565b60038203611bf45760029050611c1b565b60048203611c055760039050611c1b565b60058203611c165760049050611c1b565b600290505b919050565b600081604051602001611c339190612abe565b6040516020818303038152906040528051906020012083604051602001611c5a9190612abe565b6040516020818303038152906040528051906020012014905092915050565b6000819050919050565b611c8c81611c79565b82525050565b6000602082019050611ca76000830184611c83565b92915050565b6000604051905090565b600080fd5b600080fd5b600080fd5b600080fd5b6000601f19601f8301169050919050565b7f4e487b7100000000000000000000000000000000000000000000000000000000600052604160045260246000fd5b611d1482611ccb565b810181811067ffffffffffffffff82111715611d3357611d32611cdc565b5b80604052505050565b6000611d46611cad565b9050611d528282611d0b565b919050565b600067ffffffffffffffff821115611d7257611d71611cdc565b5b611d7b82611ccb565b9050602081019050919050565b82818337600083830152505050565b6000611daa611da584611d57565b611d3c565b905082815260208101848484011115611dc657611dc5611cc6565b5b611dd1848285611d88565b509392505050565b600082601f830112611dee57611ded611cc1565b5b8135611dfe848260208601611d97565b91505092915050565b600060208284031215611e1d57611e1c611cb7565b5b600082013567ffffffffffffffff811115611e3b57611e3a611cbc565b5b611e4784828501611dd9565b91505092915050565b600081519050919050565b600082825260208201905092915050565b60005b83811015611e8a578082015181840152602081019050611e6f565b60008484015250505050565b6000611ea182611e50565b611eab8185611e5b565b9350611ebb818560208601611e6c565b611ec481611ccb565b840191505092915050565b600073ffffffffffffffffffffffffffffffffffffffff82169050919050565b6000611efa82611ecf565b9050919050565b611f0a81611eef565b82525050565b600082825260208201905092915050565b6000611f2c82611e50565b611f368185611f10565b9350611f46818560208601611e6c565b611f4f81611ccb565b840191505092915050565b7f4e487b7100000000000000000000000000000000000000000000000000000000600052602160045260246000fd5b60058110611f9a57611f99611f5a565b5b50565b6000819050611fab82611f89565b919050565b6000611fbb82611f9d565b9050919050565b611fcb81611fb0565b82525050565b600060c0830160008301518482036000860152611fee8282611f21565b915050602083015184820360208601526120088282611f21565b915050604083015161201d6040860182611fc2565b5060608301516120306060860182611fc2565b5060808301516120436080860182611fc2565b5060a083015161205660a0860182611fc2565b508091505092915050565b60008115159050919050565b61207681612061565b82525050565b6000610180820190508181036000830152612097818f611e96565b90506120a6602083018e611c83565b6120b3604083018d611c83565b6120c0606083018c611c83565b6120cd608083018b611f01565b6120da60a083018a611c83565b6120e760c0830189611c83565b6120f460e0830188611f01565b8181036101008301526121078187611fd1565b905081810361012083015261211c8186611e96565b905061212c61014083018561206d565b81810361016083015261213f8184611e96565b90509d9c50505050505050505050505050565b60006020820190506121676000830184611f01565b92915050565b600067ffffffffffffffff82111561218857612187611cdc565b5b602082029050602081019050919050565b600080fd5b6121a781611eef565b81146121b257600080fd5b50565b6000813590506121c48161219e565b92915050565b60006121dd6121d88461216d565b611d3c565b90508083825260208201905060208402830185811115612200576121ff612199565b5b835b81811015612229578061221588826121b5565b845260208401935050602081019050612202565b5050509392505050565b600082601f83011261224857612247611cc1565b5b81356122588482602086016121ca565b91505092915050565b61226a81611c79565b811461227557600080fd5b50565b60008135905061228781612261565b92915050565b600080600080608085870312156122a7576122a6611cb7565b5b600085013567ffffffffffffffff8111156122c5576122c4611cbc565b5b6122d187828801612233565b94505060206122e287828801612278565b935050604085013567ffffffffffffffff81111561230357612302611cbc565b5b61230f87828801611dd9565b925050606085013567ffffffffffffffff8111156123305761232f611cbc565b5b61233c87828801611dd9565b91505092959194509250565b600067ffffffffffffffff82111561236357612362611cdc565b5b602082029050919050565b600061238161237c84612348565b611d3c565b9050806020840283018581111561239b5761239a612199565b5b835b818110156123c457806123b08882612278565b84526020840193505060208101905061239d565b5050509392505050565b600082601f8301126123e3576123e2611cc1565b5b60046123f084828561236e565b91505092915050565b60008060008060e0858703121561241357612412611cb7565b5b600085013567ffffffffffffffff81111561243157612430611cbc565b5b61243d87828801611dd9565b945050602085013567ffffffffffffffff81111561245e5761245d611cbc565b5b61246a87828801611dd9565b935050604085013567ffffffffffffffff81111561248b5761248a611cbc565b5b61249787828801611dd9565b92505060606124a8878288016123ce565b91505092959194509250565b6000602082840312156124ca576124c9611cb7565b5b60006124d884828501612278565b91505092915050565b60006080820190506124f66000830187611f01565b6125036020830186611c83565b81810360408301526125158185611e96565b905081810360608301526125298184611e96565b905095945050505050565b60008060006060848603121561254d5761254c611cb7565b5b600084013567ffffffffffffffff81111561256b5761256a611cbc565b5b61257786828701611dd9565b935050602084013567ffffffffffffffff81111561259857612597611cbc565b5b6125a486828701611dd9565b925050604084013567ffffffffffffffff8111156125c5576125c4611cbc565b5b6125d186828701611dd9565b9150509250925092565b60006020820190506125f0600083018461206d565b92915050565b60008060008060008060c0878903121561261357612612611cb7565b5b600087013567ffffffffffffffff81111561263157612630611cbc565b5b61263d89828a01611dd9565b965050602061264e89828a01612278565b955050604061265f89828a01612278565b945050606061267089828a01612278565b935050608061268189828a01612278565b92505060a061269289828a01612278565b9150509295509295509295565b600080604083850312156126b6576126b5611cb7565b5b60006126c4858286016121b5565b925050602083013567ffffffffffffffff8111156126e5576126e4611cbc565b5b6126f185828601611dd9565b9150509250929050565b600060208201905081810360008301526127158184611e96565b905092915050565b7f4e487b7100000000000000000000000000000000000000000000000000000000600052602260045260246000fd5b6000600282049050600182168061276457607f821691505b6020821081036127775761277661271d565b5b50919050565b7f4e487b7100000000000000000000000000000000000000000000000000000000600052603260045260246000fd5b60008190508160005260206000209050919050565b60006020601f8301049050919050565b600082821b905092915050565b60006008830261280e7fffffffffffffffffffffffffffffffffffffffffffffffffffffffffffffffff826127d1565b61281886836127d1565b95508019841693508086168417925050509392505050565b6000819050919050565b600061285561285061284b84611c79565b612830565b611c79565b9050919050565b6000819050919050565b61286f8361283a565b61288361287b8261285c565b8484546127de565b825550505050565b600090565b61289861288b565b6128a3818484612866565b505050565b5b818110156128c7576128bc600082612890565b6001810190506128a9565b5050565b601f82111561290c576128dd816127ac565b6128e6846127c1565b810160208510156128f5578190505b612909612901856127c1565b8301826128a8565b50505b505050565b600082821c905092915050565b600061292f60001984600802612911565b1980831691505092915050565b6000612948838361291e565b9150826002028217905092915050565b61296182611e50565b67ffffffffffffffff81111561297a57612979611cdc565b5b612984825461274c565b61298f8282856128cb565b600060209050601f8311600181146129c257600084156129b0578287015190505b6129ba858261293c565b865550612a22565b601f1984166129d0866127ac565b60005b828110156129f8578489015182556001820191506020850194506020810190506129d3565b86831015612a155784890151612a11601f89168261291e565b8355505b6001600288020188555050505b505050505050565b7f4e487b7100000000000000000000000000000000000000000000000000000000600052601160045260246000fd5b6000612a6482611c79565b915060008203612a7757612a76612a2a565b5b600182039050919050565b600081905092915050565b6000612a9882611e50565b612aa28185612a82565b9350612ab2818560208601611e6c565b80840191505092915050565b6000612aca8284612a8d565b915081905092915050565b6000612ae082611c79565b91507fffffffffffffffffffffffffffffffffffffffffffffffffffffffffffffffff8203612b1257612b11612a2a565b5b60018201905091905056fe64757269616e2064616d6167656420706c656173652073656c65637420616e6f746865722064757269616ea26469706673582212204790474ed992c2ad684ee15e42ab8730b475ce36f8b8993fd2ae08ee578d8f5664736f6c63430008120033",
					"opcodes": "PUSH1 0x80 PUSH1 0x40 MSTORE PUSH1 0x40 MLOAD DUP1 PUSH1 0xC0 ADD PUSH1 0x40 MSTORE DUP1 PUSH1 0x40 MLOAD DUP1 PUSH1 0x40 ADD PUSH1 0x40 MSTORE DUP1 PUSH1 0x7 DUP2 MSTORE PUSH1 0x20 ADD PUSH32 0x64656661756C7400000000000000000000000000000000000000000000000000 DUP2 MSTORE POP DUP2 MSTORE PUSH1 0x20 ADD PUSH1 0x40 MLOAD DUP1 PUSH1 0x40 ADD PUSH1 0x40 MSTORE DUP1 PUSH1 0x7 DUP2 MSTORE PUSH1 0x20 ADD PUSH32 0x64656661756C7400000000000000000000000000000000000000000000000000 DUP2 MSTORE POP DUP2 MSTORE PUSH1 0x20 ADD PUSH1 0x2 PUSH1 0x4 DUP2 GT ISZERO PUSH3 0x9C JUMPI PUSH3 0x9B PUSH3 0x247 JUMP JUMPDEST JUMPDEST DUP2 MSTORE PUSH1 0x20 ADD PUSH1 0x2 PUSH1 0x4 DUP2 GT ISZERO PUSH3 0xB8 JUMPI PUSH3 0xB7 PUSH3 0x247 JUMP JUMPDEST JUMPDEST DUP2 MSTORE PUSH1 0x20 ADD PUSH1 0x2 PUSH1 0x4 DUP2 GT ISZERO PUSH3 0xD4 JUMPI PUSH3 0xD3 PUSH3 0x247 JUMP JUMPDEST JUMPDEST DUP2 MSTORE PUSH1 0x20 ADD PUSH1 0x2 PUSH1 0x4 DUP2 GT ISZERO PUSH3 0xF0 JUMPI PUSH3 0xEF PUSH3 0x247 JUMP JUMPDEST JUMPDEST DUP2 MSTORE POP PUSH1 0x4 PUSH1 0x0 DUP3 ADD MLOAD DUP2 PUSH1 0x0 ADD SWAP1 DUP2 PUSH3 0x10C SWAP2 SWAP1 PUSH3 0x4F0 JUMP JUMPDEST POP PUSH1 0x20 DUP3 ADD MLOAD DUP2 PUSH1 0x1 ADD SWAP1 DUP2 PUSH3 0x124 SWAP2 SWAP1 PUSH3 0x4F0 JUMP JUMPDEST POP PUSH1 0x40 DUP3 ADD MLOAD DUP2 PUSH1 0x2 ADD PUSH1 0x0 PUSH2 0x100 EXP DUP2 SLOAD DUP2 PUSH1 0xFF MUL NOT AND SWAP1 DUP4 PUSH1 0x4 DUP2 GT ISZERO PUSH3 0x153 JUMPI PUSH3 0x152 PUSH3 0x247 JUMP JUMPDEST JUMPDEST MUL OR SWAP1 SSTORE POP PUSH1 0x60 DUP3 ADD MLOAD DUP2 PUSH1 0x2 ADD PUSH1 0x1 PUSH2 0x100 EXP DUP2 SLOAD DUP2 PUSH1 0xFF MUL NOT AND SWAP1 DUP4 PUSH1 0x4 DUP2 GT ISZERO PUSH3 0x186 JUMPI PUSH3 0x185 PUSH3 0x247 JUMP JUMPDEST JUMPDEST MUL OR SWAP1 SSTORE POP PUSH1 0x80 DUP3 ADD MLOAD DUP2 PUSH1 0x2 ADD PUSH1 0x2 PUSH2 0x100 EXP DUP2 SLOAD DUP2 PUSH1 0xFF MUL NOT AND SWAP1 DUP4 PUSH1 0x4 DUP2 GT ISZERO PUSH3 0x1B9 JUMPI PUSH3 0x1B8 PUSH3 0x247 JUMP JUMPDEST JUMPDEST MUL OR SWAP1 SSTORE POP PUSH1 0xA0 DUP3 ADD MLOAD DUP2 PUSH1 0x2 ADD PUSH1 0x3 PUSH2 0x100 EXP DUP2 SLOAD DUP2 PUSH1 0xFF MUL NOT AND SWAP1 DUP4 PUSH1 0x4 DUP2 GT ISZERO PUSH3 0x1EC JUMPI PUSH3 0x1EB PUSH3 0x247 JUMP JUMPDEST JUMPDEST MUL OR SWAP1 SSTORE POP POP POP CALLVALUE DUP1 ISZERO PUSH3 0x200 JUMPI PUSH1 0x0 DUP1 REVERT JUMPDEST POP CALLER PUSH1 0x0 DUP1 PUSH2 0x100 EXP DUP2 SLOAD DUP2 PUSH20 0xFFFFFFFFFFFFFFFFFFFFFFFFFFFFFFFFFFFFFFFF MUL NOT AND SWAP1 DUP4 PUSH20 0xFFFFFFFFFFFFFFFFFFFFFFFFFFFFFFFFFFFFFFFF AND MUL OR SWAP1 SSTORE POP PUSH3 0x5D7 JUMP JUMPDEST PUSH32 0x4E487B7100000000000000000000000000000000000000000000000000000000 PUSH1 0x0 MSTORE PUSH1 0x21 PUSH1 0x4 MSTORE PUSH1 0x24 PUSH1 0x0 REVERT JUMPDEST PUSH1 0x0 DUP2 MLOAD SWAP1 POP SWAP2 SWAP1 POP JUMP JUMPDEST PUSH32 0x4E487B7100000000000000000000000000000000000000000000000000000000 PUSH1 0x0 MSTORE PUSH1 0x41 PUSH1 0x4 MSTORE PUSH1 0x24 PUSH1 0x0 REVERT JUMPDEST PUSH32 0x4E487B7100000000000000000000000000000000000000000000000000000000 PUSH1 0x0 MSTORE PUSH1 0x22 PUSH1 0x4 MSTORE PUSH1 0x24 PUSH1 0x0 REVERT JUMPDEST PUSH1 0x0 PUSH1 0x2 DUP3 DIV SWAP1 POP PUSH1 0x1 DUP3 AND DUP1 PUSH3 0x2F8 JUMPI PUSH1 0x7F DUP3 AND SWAP2 POP JUMPDEST PUSH1 0x20 DUP3 LT DUP2 SUB PUSH3 0x30E JUMPI PUSH3 0x30D PUSH3 0x2B0 JUMP JUMPDEST JUMPDEST POP SWAP2 SWAP1 POP JUMP JUMPDEST PUSH1 0x0 DUP2 SWAP1 POP DUP2 PUSH1 0x0 MSTORE PUSH1 0x20 PUSH1 0x0 KECCAK256 SWAP1 POP SWAP2 SWAP1 POP JUMP JUMPDEST PUSH1 0x0 PUSH1 0x20 PUSH1 0x1F DUP4 ADD DIV SWAP1 POP SWAP2 SWAP1 POP JUMP JUMPDEST PUSH1 0x0 DUP3 DUP3 SHL SWAP1 POP SWAP3 SWAP2 POP POP JUMP JUMPDEST PUSH1 0x0 PUSH1 0x8 DUP4 MUL PUSH3 0x378 PUSH32 0xFFFFFFFFFFFFFFFFFFFFFFFFFFFFFFFFFFFFFFFFFFFFFFFFFFFFFFFFFFFFFFFF DUP3 PUSH3 0x339 JUMP JUMPDEST PUSH3 0x384 DUP7 DUP4 PUSH3 0x339 JUMP JUMPDEST SWAP6 POP DUP1 NOT DUP5 AND SWAP4 POP DUP1 DUP7 AND DUP5 OR SWAP3 POP POP POP SWAP4 SWAP3 POP POP POP JUMP JUMPDEST PUSH1 0x0 DUP2 SWAP1 POP SWAP2 SWAP1 POP JUMP JUMPDEST PUSH1 0x0 DUP2 SWAP1 POP SWAP2 SWAP1 POP JUMP JUMPDEST PUSH1 0x0 PUSH3 0x3D1 PUSH3 0x3CB PUSH3 0x3C5 DUP5 PUSH3 0x39C JUMP JUMPDEST PUSH3 0x3A6 JUMP JUMPDEST PUSH3 0x39C JUMP JUMPDEST SWAP1 POP SWAP2 SWAP1 POP JUMP JUMPDEST PUSH1 0x0 DUP2 SWAP1 POP SWAP2 SWAP1 POP JUMP JUMPDEST PUSH3 0x3ED DUP4 PUSH3 0x3B0 JUMP JUMPDEST PUSH3 0x405 PUSH3 0x3FC DUP3 PUSH3 0x3D8 JUMP JUMPDEST DUP5 DUP5 SLOAD PUSH3 0x346 JUMP JUMPDEST DUP3 SSTORE POP POP POP POP JUMP JUMPDEST PUSH1 0x0 SWAP1 JUMP JUMPDEST PUSH3 0x41C PUSH3 0x40D JUMP JUMPDEST PUSH3 0x429 DUP2 DUP5 DUP5 PUSH3 0x3E2 JUMP JUMPDEST POP POP POP JUMP JUMPDEST JUMPDEST DUP2 DUP2 LT ISZERO PUSH3 0x451 JUMPI PUSH3 0x445 PUSH1 0x0 DUP3 PUSH3 0x412 JUMP JUMPDEST PUSH1 0x1 DUP2 ADD SWAP1 POP PUSH3 0x42F JUMP JUMPDEST POP POP JUMP JUMPDEST PUSH1 0x1F DUP3 GT ISZERO PUSH3 0x4A0 JUMPI PUSH3 0x46A DUP2 PUSH3 0x314 JUMP JUMPDEST PUSH3 0x475 DUP5 PUSH3 0x329 JUMP JUMPDEST DUP2 ADD PUSH1 0x20 DUP6 LT ISZERO PUSH3 0x485 JUMPI DUP2 SWAP1 POP JUMPDEST PUSH3 0x49D PUSH3 0x494 DUP6 PUSH3 0x329 JUMP JUMPDEST DUP4 ADD DUP3 PUSH3 0x42E JUMP JUMPDEST POP POP JUMPDEST POP POP POP JUMP JUMPDEST PUSH1 0x0 DUP3 DUP3 SHR SWAP1 POP SWAP3 SWAP2 POP POP JUMP JUMPDEST PUSH1 0x0 PUSH3 0x4C5 PUSH1 0x0 NOT DUP5 PUSH1 0x8 MUL PUSH3 0x4A5 JUMP JUMPDEST NOT DUP1 DUP4 AND SWAP2 POP POP SWAP3 SWAP2 POP POP JUMP JUMPDEST PUSH1 0x0 PUSH3 0x4E0 DUP4 DUP4 PUSH3 0x4B2 JUMP JUMPDEST SWAP2 POP DUP3 PUSH1 0x2 MUL DUP3 OR SWAP1 POP SWAP3 SWAP2 POP POP JUMP JUMPDEST PUSH3 0x4FB DUP3 PUSH3 0x276 JUMP JUMPDEST PUSH8 0xFFFFFFFFFFFFFFFF DUP2 GT ISZERO PUSH3 0x517 JUMPI PUSH3 0x516 PUSH3 0x281 JUMP JUMPDEST JUMPDEST PUSH3 0x523 DUP3 SLOAD PUSH3 0x2DF JUMP JUMPDEST PUSH3 0x530 DUP3 DUP3 DUP6 PUSH3 0x455 JUMP JUMPDEST PUSH1 0x0 PUSH1 0x20 SWAP1 POP PUSH1 0x1F DUP4 GT PUSH1 0x1 DUP2 EQ PUSH3 0x568 JUMPI PUSH1 0x0 DUP5 ISZERO PUSH3 0x553 JUMPI DUP3 DUP8 ADD MLOAD SWAP1 POP JUMPDEST PUSH3 0x55F DUP6 DUP3 PUSH3 0x4D2 JUMP JUMPDEST DUP7 SSTORE POP PUSH3 0x5CF JUMP JUMPDEST PUSH1 0x1F NOT DUP5 AND PUSH3 0x578 DUP7 PUSH3 0x314 JUMP JUMPDEST PUSH1 0x0 JUMPDEST DUP3 DUP2 LT ISZERO PUSH3 0x5A2 JUMPI DUP5 DUP10 ADD MLOAD DUP3 SSTORE PUSH1 0x1 DUP3 ADD SWAP2 POP PUSH1 0x20 DUP6 ADD SWAP5 POP PUSH1 0x20 DUP2 ADD SWAP1 POP PUSH3 0x57B JUMP JUMPDEST DUP7 DUP4 LT ISZERO PUSH3 0x5C2 JUMPI DUP5 DUP10 ADD MLOAD PUSH3 0x5BE PUSH1 0x1F DUP10 AND DUP3 PUSH3 0x4B2 JUMP JUMPDEST DUP4 SSTORE POP JUMPDEST PUSH1 0x1 PUSH1 0x2 DUP9 MUL ADD DUP9 SSTORE POP POP POP JUMPDEST POP POP POP POP POP POP JUMP JUMPDEST PUSH2 0x2B7E DUP1 PUSH3 0x5E7 PUSH1 0x0 CODECOPY PUSH1 0x0 RETURN INVALID PUSH1 0x80 PUSH1 0x40 MSTORE CALLVALUE DUP1 ISZERO PUSH2 0x10 JUMPI PUSH1 0x0 DUP1 REVERT JUMPDEST POP PUSH1 0x4 CALLDATASIZE LT PUSH2 0xCF JUMPI PUSH1 0x0 CALLDATALOAD PUSH1 0xE0 SHR DUP1 PUSH4 0x5A375258 GT PUSH2 0x8C JUMPI DUP1 PUSH4 0xD273E1C3 GT PUSH2 0x66 JUMPI DUP1 PUSH4 0xD273E1C3 EQ PUSH2 0x234 JUMPI DUP1 PUSH4 0xD66D2A57 EQ PUSH2 0x250 JUMPI DUP1 PUSH4 0xE8287D1A EQ PUSH2 0x26E JUMPI DUP1 PUSH4 0xEA3E7373 EQ PUSH2 0x29E JUMPI PUSH2 0xCF JUMP JUMPDEST DUP1 PUSH4 0x5A375258 EQ PUSH2 0x1B6 JUMPI DUP1 PUSH4 0x7FA9571F EQ PUSH2 0x1E6 JUMPI DUP1 PUSH4 0xCD3D46FC EQ PUSH2 0x204 JUMPI PUSH2 0xCF JUMP JUMPDEST DUP1 PUSH4 0xFD60125 EQ PUSH2 0xD4 JUMPI DUP1 PUSH4 0x1DD51307 EQ PUSH2 0xF2 JUMPI DUP1 PUSH4 0x2966B29B EQ PUSH2 0x12D JUMPI DUP1 PUSH4 0x45B2BD2F EQ PUSH2 0x14B JUMPI DUP1 PUSH4 0x45C68090 EQ PUSH2 0x167 JUMPI DUP1 PUSH4 0x498D4707 EQ PUSH2 0x183 JUMPI JUMPDEST PUSH1 0x0 DUP1 REVERT JUMPDEST PUSH2 0xDC PUSH2 0x2CE JUMP JUMPDEST PUSH1 0x40 MLOAD PUSH2 0xE9 SWAP2 SWAP1 PUSH2 0x1C92 JUMP JUMPDEST PUSH1 0x40 MLOAD DUP1 SWAP2 SUB SWAP1 RETURN JUMPDEST PUSH2 0x10C PUSH1 0x4 DUP1 CALLDATASIZE SUB DUP2 ADD SWAP1 PUSH2 0x107 SWAP2 SWAP1 PUSH2 0x1E07 JUMP JUMPDEST PUSH2 0x2D4 JUMP JUMPDEST PUSH1 0x40 MLOAD PUSH2 0x124 SWAP13 SWAP12 SWAP11 SWAP10 SWAP9 SWAP8 SWAP7 SWAP6 SWAP5 SWAP4 SWAP3 SWAP2 SWAP1 PUSH2 0x207C JUMP JUMPDEST PUSH1 0x40 MLOAD DUP1 SWAP2 SUB SWAP1 RETURN JUMPDEST PUSH2 0x135 PUSH2 0x749 JUMP JUMPDEST PUSH1 0x40 MLOAD PUSH2 0x142 SWAP2 SWAP1 PUSH2 0x2152 JUMP JUMPDEST PUSH1 0x40 MLOAD DUP1 SWAP2 SUB SWAP1 RETURN JUMPDEST PUSH2 0x165 PUSH1 0x4 DUP1 CALLDATASIZE SUB DUP2 ADD SWAP1 PUSH2 0x160 SWAP2 SWAP1 PUSH2 0x228D JUMP JUMPDEST PUSH2 0x76D JUMP JUMPDEST STOP JUMPDEST PUSH2 0x181 PUSH1 0x4 DUP1 CALLDATASIZE SUB DUP2 ADD SWAP1 PUSH2 0x17C SWAP2 SWAP1 PUSH2 0x23F9 JUMP JUMPDEST PUSH2 0x8EB JUMP JUMPDEST STOP JUMPDEST PUSH2 0x19D PUSH1 0x4 DUP1 CALLDATASIZE SUB DUP2 ADD SWAP1 PUSH2 0x198 SWAP2 SWAP1 PUSH2 0x24B4 JUMP JUMPDEST PUSH2 0xB6B JUMP JUMPDEST PUSH1 0x40 MLOAD PUSH2 0x1AD SWAP5 SWAP4 SWAP3 SWAP2 SWAP1 PUSH2 0x24E1 JUMP JUMPDEST PUSH1 0x40 MLOAD DUP1 SWAP2 SUB SWAP1 RETURN JUMPDEST PUSH2 0x1D0 PUSH1 0x4 DUP1 CALLDATASIZE SUB DUP2 ADD SWAP1 PUSH2 0x1CB SWAP2 SWAP1 PUSH2 0x1E07 JUMP JUMPDEST PUSH2 0xCDB JUMP JUMPDEST PUSH1 0x40 MLOAD PUSH2 0x1DD SWAP2 SWAP1 PUSH2 0x1C92 JUMP JUMPDEST PUSH1 0x40 MLOAD DUP1 SWAP2 SUB SWAP1 RETURN JUMPDEST PUSH2 0x1EE PUSH2 0xD06 JUMP JUMPDEST PUSH1 0x40 MLOAD PUSH2 0x1FB SWAP2 SWAP1 PUSH2 0x1C92 JUMP JUMPDEST PUSH1 0x40 MLOAD DUP1 SWAP2 SUB SWAP1 RETURN JUMPDEST PUSH2 0x21E PUSH1 0x4 DUP1 CALLDATASIZE SUB DUP2 ADD SWAP1 PUSH2 0x219 SWAP2 SWAP1 PUSH2 0x2534 JUMP JUMPDEST PUSH2 0xD10 JUMP JUMPDEST PUSH1 0x40 MLOAD PUSH2 0x22B SWAP2 SWAP1 PUSH2 0x25DB JUMP JUMPDEST PUSH1 0x40 MLOAD DUP1 SWAP2 SUB SWAP1 RETURN JUMPDEST PUSH2 0x24E PUSH1 0x4 DUP1 CALLDATASIZE SUB DUP2 ADD SWAP1 PUSH2 0x249 SWAP2 SWAP1 PUSH2 0x25F6 JUMP JUMPDEST PUSH2 0xFE9 JUMP JUMPDEST STOP JUMPDEST PUSH2 0x258 PUSH2 0x170F JUMP JUMPDEST PUSH1 0x40 MLOAD PUSH2 0x265 SWAP2 SWAP1 PUSH2 0x2152 JUMP JUMPDEST PUSH1 0x40 MLOAD DUP1 SWAP2 SUB SWAP1 RETURN JUMPDEST PUSH2 0x288 PUSH1 0x4 DUP1 CALLDATASIZE SUB DUP2 ADD SWAP1 PUSH2 0x283 SWAP2 SWAP1 PUSH2 0x269F JUMP JUMPDEST PUSH2 0x1738 JUMP JUMPDEST PUSH1 0x40 MLOAD PUSH2 0x295 SWAP2 SWAP1 PUSH2 0x26FB JUMP JUMPDEST PUSH1 0x40 MLOAD DUP1 SWAP2 SUB SWAP1 RETURN JUMPDEST PUSH2 0x2B8 PUSH1 0x4 DUP1 CALLDATASIZE SUB DUP2 ADD SWAP1 PUSH2 0x2B3 SWAP2 SWAP1 PUSH2 0x2534 JUMP JUMPDEST PUSH2 0x18E6 JUMP JUMPDEST PUSH1 0x40 MLOAD PUSH2 0x2C5 SWAP2 SWAP1 PUSH2 0x25DB JUMP JUMPDEST PUSH1 0x40 MLOAD DUP1 SWAP2 SUB SWAP1 RETURN JUMPDEST PUSH1 0x1 SLOAD DUP2 JUMP JUMPDEST PUSH1 0x3 DUP2 DUP1 MLOAD PUSH1 0x20 DUP2 ADD DUP3 ADD DUP1 MLOAD DUP5 DUP3 MSTORE PUSH1 0x20 DUP4 ADD PUSH1 0x20 DUP6 ADD KECCAK256 DUP2 DUP4 MSTORE DUP1 SWAP6 POP POP POP POP POP POP PUSH1 0x0 SWAP2 POP SWAP1 POP DUP1 PUSH1 0x0 ADD DUP1 SLOAD PUSH2 0x30D SWAP1 PUSH2 0x274C JUMP JUMPDEST DUP1 PUSH1 0x1F ADD PUSH1 0x20 DUP1 SWAP2 DIV MUL PUSH1 0x20 ADD PUSH1 0x40 MLOAD SWAP1 DUP2 ADD PUSH1 0x40 MSTORE DUP1 SWAP3 SWAP2 SWAP1 DUP2 DUP2 MSTORE PUSH1 0x20 ADD DUP3 DUP1 SLOAD PUSH2 0x339 SWAP1 PUSH2 0x274C JUMP JUMPDEST DUP1 ISZERO PUSH2 0x386 JUMPI DUP1 PUSH1 0x1F LT PUSH2 0x35B JUMPI PUSH2 0x100 DUP1 DUP4 SLOAD DIV MUL DUP4 MSTORE SWAP2 PUSH1 0x20 ADD SWAP2 PUSH2 0x386 JUMP JUMPDEST DUP3 ADD SWAP2 SWAP1 PUSH1 0x0 MSTORE PUSH1 0x20 PUSH1 0x0 KECCAK256 SWAP1 JUMPDEST DUP2 SLOAD DUP2 MSTORE SWAP1 PUSH1 0x1 ADD SWAP1 PUSH1 0x20 ADD DUP1 DUP4 GT PUSH2 0x369 JUMPI DUP3 SWAP1 SUB PUSH1 0x1F AND DUP3 ADD SWAP2 JUMPDEST POP POP POP POP POP SWAP1 DUP1 PUSH1 0x1 ADD SLOAD SWAP1 DUP1 PUSH1 0x2 ADD SLOAD SWAP1 DUP1 PUSH1 0x3 ADD SLOAD SWAP1 DUP1 PUSH1 0x4 ADD PUSH1 0x0 SWAP1 SLOAD SWAP1 PUSH2 0x100 EXP SWAP1 DIV PUSH20 0xFFFFFFFFFFFFFFFFFFFFFFFFFFFFFFFFFFFFFFFF AND SWAP1 DUP1 PUSH1 0x5 ADD SLOAD SWAP1 DUP1 PUSH1 0x6 ADD SLOAD SWAP1 DUP1 PUSH1 0x7 ADD PUSH1 0x0 SWAP1 SLOAD SWAP1 PUSH2 0x100 EXP SWAP1 DIV PUSH20 0xFFFFFFFFFFFFFFFFFFFFFFFFFFFFFFFFFFFFFFFF AND SWAP1 DUP1 PUSH1 0x8 ADD PUSH1 0x40 MLOAD DUP1 PUSH1 0xC0 ADD PUSH1 0x40 MSTORE SWAP1 DUP2 PUSH1 0x0 DUP3 ADD DUP1 SLOAD PUSH2 0x415 SWAP1 PUSH2 0x274C JUMP JUMPDEST DUP1 PUSH1 0x1F ADD PUSH1 0x20 DUP1 SWAP2 DIV MUL PUSH1 0x20 ADD PUSH1 0x40 MLOAD SWAP1 DUP2 ADD PUSH1 0x40 MSTORE DUP1 SWAP3 SWAP2 SWAP1 DUP2 DUP2 MSTORE PUSH1 0x20 ADD DUP3 DUP1 SLOAD PUSH2 0x441 SWAP1 PUSH2 0x274C JUMP JUMPDEST DUP1 ISZERO PUSH2 0x48E JUMPI DUP1 PUSH1 0x1F LT PUSH2 0x463 JUMPI PUSH2 0x100 DUP1 DUP4 SLOAD DIV MUL DUP4 MSTORE SWAP2 PUSH1 0x20 ADD SWAP2 PUSH2 0x48E JUMP JUMPDEST DUP3 ADD SWAP2 SWAP1 PUSH1 0x0 MSTORE PUSH1 0x20 PUSH1 0x0 KECCAK256 SWAP1 JUMPDEST DUP2 SLOAD DUP2 MSTORE SWAP1 PUSH1 0x1 ADD SWAP1 PUSH1 0x20 ADD DUP1 DUP4 GT PUSH2 0x471 JUMPI DUP3 SWAP1 SUB PUSH1 0x1F AND DUP3 ADD SWAP2 JUMPDEST POP POP POP POP POP DUP2 MSTORE PUSH1 0x20 ADD PUSH1 0x1 DUP3 ADD DUP1 SLOAD PUSH2 0x4A7 SWAP1 PUSH2 0x274C JUMP JUMPDEST DUP1 PUSH1 0x1F ADD PUSH1 0x20 DUP1 SWAP2 DIV MUL PUSH1 0x20 ADD PUSH1 0x40 MLOAD SWAP1 DUP2 ADD PUSH1 0x40 MSTORE DUP1 SWAP3 SWAP2 SWAP1 DUP2 DUP2 MSTORE PUSH1 0x20 ADD DUP3 DUP1 SLOAD PUSH2 0x4D3 SWAP1 PUSH2 0x274C JUMP JUMPDEST DUP1 ISZERO PUSH2 0x520 JUMPI DUP1 PUSH1 0x1F LT PUSH2 0x4F5 JUMPI PUSH2 0x100 DUP1 DUP4 SLOAD DIV MUL DUP4 MSTORE SWAP2 PUSH1 0x20 ADD SWAP2 PUSH2 0x520 JUMP JUMPDEST DUP3 ADD SWAP2 SWAP1 PUSH1 0x0 MSTORE PUSH1 0x20 PUSH1 0x0 KECCAK256 SWAP1 JUMPDEST DUP2 SLOAD DUP2 MSTORE SWAP1 PUSH1 0x1 ADD SWAP1 PUSH1 0x20 ADD DUP1 DUP4 GT PUSH2 0x503 JUMPI DUP3 SWAP1 SUB PUSH1 0x1F AND DUP3 ADD SWAP2 JUMPDEST POP POP POP POP POP DUP2 MSTORE PUSH1 0x20 ADD PUSH1 0x2 DUP3 ADD PUSH1 0x0 SWAP1 SLOAD SWAP1 PUSH2 0x100 EXP SWAP1 DIV PUSH1 0xFF AND PUSH1 0x4 DUP2 GT ISZERO PUSH2 0x54E JUMPI PUSH2 0x54D PUSH2 0x1F5A JUMP JUMPDEST JUMPDEST PUSH1 0x4 DUP2 GT ISZERO PUSH2 0x560 JUMPI PUSH2 0x55F PUSH2 0x1F5A JUMP JUMPDEST JUMPDEST DUP2 MSTORE PUSH1 0x20 ADD PUSH1 0x2 DUP3 ADD PUSH1 0x1 SWAP1 SLOAD SWAP1 PUSH2 0x100 EXP SWAP1 DIV PUSH1 0xFF AND PUSH1 0x4 DUP2 GT ISZERO PUSH2 0x589 JUMPI PUSH2 0x588 PUSH2 0x1F5A JUMP JUMPDEST JUMPDEST PUSH1 0x4 DUP2 GT ISZERO PUSH2 0x59B JUMPI PUSH2 0x59A PUSH2 0x1F5A JUMP JUMPDEST JUMPDEST DUP2 MSTORE PUSH1 0x20 ADD PUSH1 0x2 DUP3 ADD PUSH1 0x2 SWAP1 SLOAD SWAP1 PUSH2 0x100 EXP SWAP1 DIV PUSH1 0xFF AND PUSH1 0x4 DUP2 GT ISZERO PUSH2 0x5C4 JUMPI PUSH2 0x5C3 PUSH2 0x1F5A JUMP JUMPDEST JUMPDEST PUSH1 0x4 DUP2 GT ISZERO PUSH2 0x5D6 JUMPI PUSH2 0x5D5 PUSH2 0x1F5A JUMP JUMPDEST JUMPDEST DUP2 MSTORE PUSH1 0x20 ADD PUSH1 0x2 DUP3 ADD PUSH1 0x3 SWAP1 SLOAD SWAP1 PUSH2 0x100 EXP SWAP1 DIV PUSH1 0xFF AND PUSH1 0x4 DUP2 GT ISZERO PUSH2 0x5FF JUMPI PUSH2 0x5FE PUSH2 0x1F5A JUMP JUMPDEST JUMPDEST PUSH1 0x4 DUP2 GT ISZERO PUSH2 0x611 JUMPI PUSH2 0x610 PUSH2 0x1F5A JUMP JUMPDEST JUMPDEST DUP2 MSTORE POP POP SWAP1 DUP1 PUSH1 0xB ADD DUP1 SLOAD PUSH2 0x625 SWAP1 PUSH2 0x274C JUMP JUMPDEST DUP1 PUSH1 0x1F ADD PUSH1 0x20 DUP1 SWAP2 DIV MUL PUSH1 0x20 ADD PUSH1 0x40 MLOAD SWAP1 DUP2 ADD PUSH1 0x40 MSTORE DUP1 SWAP3 SWAP2 SWAP1 DUP2 DUP2 MSTORE PUSH1 0x20 ADD DUP3 DUP1 SLOAD PUSH2 0x651 SWAP1 PUSH2 0x274C JUMP JUMPDEST DUP1 ISZERO PUSH2 0x69E JUMPI DUP1 PUSH1 0x1F LT PUSH2 0x673 JUMPI PUSH2 0x100 DUP1 DUP4 SLOAD DIV MUL DUP4 MSTORE SWAP2 PUSH1 0x20 ADD SWAP2 PUSH2 0x69E JUMP JUMPDEST DUP3 ADD SWAP2 SWAP1 PUSH1 0x0 MSTORE PUSH1 0x20 PUSH1 0x0 KECCAK256 SWAP1 JUMPDEST DUP2 SLOAD DUP2 MSTORE SWAP1 PUSH1 0x1 ADD SWAP1 PUSH1 0x20 ADD DUP1 DUP4 GT PUSH2 0x681 JUMPI DUP3 SWAP1 SUB PUSH1 0x1F AND DUP3 ADD SWAP2 JUMPDEST POP POP POP POP POP SWAP1 DUP1 PUSH1 0xC ADD PUSH1 0x0 SWAP1 SLOAD SWAP1 PUSH2 0x100 EXP SWAP1 DIV PUSH1 0xFF AND SWAP1 DUP1 PUSH1 0xD ADD DUP1 SLOAD PUSH2 0x6C6 SWAP1 PUSH2 0x274C JUMP JUMPDEST DUP1 PUSH1 0x1F ADD PUSH1 0x20 DUP1 SWAP2 DIV MUL PUSH1 0x20 ADD PUSH1 0x40 MLOAD SWAP1 DUP2 ADD PUSH1 0x40 MSTORE DUP1 SWAP3 SWAP2 SWAP1 DUP2 DUP2 MSTORE PUSH1 0x20 ADD DUP3 DUP1 SLOAD PUSH2 0x6F2 SWAP1 PUSH2 0x274C JUMP JUMPDEST DUP1 ISZERO PUSH2 0x73F JUMPI DUP1 PUSH1 0x1F LT PUSH2 0x714 JUMPI PUSH2 0x100 DUP1 DUP4 SLOAD DIV MUL DUP4 MSTORE SWAP2 PUSH1 0x20 ADD SWAP2 PUSH2 0x73F JUMP JUMPDEST DUP3 ADD SWAP2 SWAP1 PUSH1 0x0 MSTORE PUSH1 0x20 PUSH1 0x0 KECCAK256 SWAP1 JUMPDEST DUP2 SLOAD DUP2 MSTORE SWAP1 PUSH1 0x1 ADD SWAP1 PUSH1 0x20 ADD DUP1 DUP4 GT PUSH2 0x722 JUMPI DUP3 SWAP1 SUB PUSH1 0x1F AND DUP3 ADD SWAP2 JUMPDEST POP POP POP POP POP SWAP1 POP DUP13 JUMP JUMPDEST PUSH1 0x0 DUP1 SLOAD SWAP1 PUSH2 0x100 EXP SWAP1 DIV PUSH20 0xFFFFFFFFFFFFFFFFFFFFFFFFFFFFFFFFFFFFFFFF AND DUP2 JUMP JUMPDEST PUSH1 0x0 DUP1 SLOAD SWAP1 PUSH2 0x100 EXP SWAP1 DIV PUSH20 0xFFFFFFFFFFFFFFFFFFFFFFFFFFFFFFFFFFFFFFFF AND DUP1 PUSH20 0xFFFFFFFFFFFFFFFFFFFFFFFFFFFFFFFFFFFFFFFF AND CALLER PUSH20 0xFFFFFFFFFFFFFFFFFFFFFFFFFFFFFFFFFFFFFFFF AND EQ PUSH2 0x7C6 JUMPI PUSH1 0x0 DUP1 REVERT JUMPDEST PUSH1 0x0 DUP6 MLOAD SWAP1 POP JUMPDEST PUSH1 0x0 DUP2 SUB PUSH2 0x8E3 JUMPI PUSH1 0x2 PUSH1 0x40 MLOAD DUP1 PUSH1 0x80 ADD PUSH1 0x40 MSTORE DUP1 DUP9 DUP5 DUP2 MLOAD DUP2 LT PUSH2 0x7F5 JUMPI PUSH2 0x7F4 PUSH2 0x277D JUMP JUMPDEST JUMPDEST PUSH1 0x20 MUL PUSH1 0x20 ADD ADD MLOAD PUSH20 0xFFFFFFFFFFFFFFFFFFFFFFFFFFFFFFFFFFFFFFFF AND DUP2 MSTORE PUSH1 0x20 ADD DUP8 DUP2 MSTORE PUSH1 0x20 ADD DUP7 DUP2 MSTORE PUSH1 0x20 ADD DUP6 DUP2 MSTORE POP SWAP1 DUP1 PUSH1 0x1 DUP2 SLOAD ADD DUP1 DUP3 SSTORE DUP1 SWAP2 POP POP PUSH1 0x1 SWAP1 SUB SWAP1 PUSH1 0x0 MSTORE PUSH1 0x20 PUSH1 0x0 KECCAK256 SWAP1 PUSH1 0x4 MUL ADD PUSH1 0x0 SWAP1 SWAP2 SWAP1 SWAP2 SWAP1 SWAP2 POP PUSH1 0x0 DUP3 ADD MLOAD DUP2 PUSH1 0x0 ADD PUSH1 0x0 PUSH2 0x100 EXP DUP2 SLOAD DUP2 PUSH20 0xFFFFFFFFFFFFFFFFFFFFFFFFFFFFFFFFFFFFFFFF MUL NOT AND SWAP1 DUP4 PUSH20 0xFFFFFFFFFFFFFFFFFFFFFFFFFFFFFFFFFFFFFFFF AND MUL OR SWAP1 SSTORE POP PUSH1 0x20 DUP3 ADD MLOAD DUP2 PUSH1 0x1 ADD SSTORE PUSH1 0x40 DUP3 ADD MLOAD DUP2 PUSH1 0x2 ADD SWAP1 DUP2 PUSH2 0x8B7 SWAP2 SWAP1 PUSH2 0x2958 JUMP JUMPDEST POP PUSH1 0x60 DUP3 ADD MLOAD DUP2 PUSH1 0x3 ADD SWAP1 DUP2 PUSH2 0x8CD SWAP2 SWAP1 PUSH2 0x2958 JUMP JUMPDEST POP POP POP DUP1 DUP1 PUSH2 0x8DB SWAP1 PUSH2 0x2A59 JUMP JUMPDEST SWAP2 POP POP PUSH2 0x7CD JUMP JUMPDEST POP POP POP POP POP POP JUMP JUMPDEST PUSH1 0x3 DUP5 PUSH1 0x40 MLOAD PUSH2 0x8FB SWAP2 SWAP1 PUSH2 0x2ABE JUMP JUMPDEST SWAP1 DUP2 MSTORE PUSH1 0x20 ADD PUSH1 0x40 MLOAD DUP1 SWAP2 SUB SWAP1 KECCAK256 PUSH1 0x7 ADD PUSH1 0x0 SWAP1 SLOAD SWAP1 PUSH2 0x100 EXP SWAP1 DIV PUSH20 0xFFFFFFFFFFFFFFFFFFFFFFFFFFFFFFFFFFFFFFFF AND PUSH20 0xFFFFFFFFFFFFFFFFFFFFFFFFFFFFFFFFFFFFFFFF AND CALLER PUSH20 0xFFFFFFFFFFFFFFFFFFFFFFFFFFFFFFFFFFFFFFFF AND SUB PUSH2 0xB65 JUMPI PUSH1 0x40 MLOAD DUP1 PUSH1 0xC0 ADD PUSH1 0x40 MSTORE DUP1 DUP5 DUP2 MSTORE PUSH1 0x20 ADD DUP4 DUP2 MSTORE PUSH1 0x20 ADD PUSH2 0x997 DUP4 PUSH1 0x0 PUSH1 0x4 DUP2 LT PUSH2 0x98D JUMPI PUSH2 0x98C PUSH2 0x277D JUMP JUMPDEST JUMPDEST PUSH1 0x20 MUL ADD MLOAD PUSH2 0x1BBF JUMP JUMPDEST PUSH1 0x4 DUP2 GT ISZERO PUSH2 0x9A9 JUMPI PUSH2 0x9A8 PUSH2 0x1F5A JUMP JUMPDEST JUMPDEST DUP2 MSTORE PUSH1 0x20 ADD PUSH2 0x9CF DUP4 PUSH1 0x1 PUSH1 0x4 DUP2 LT PUSH2 0x9C5 JUMPI PUSH2 0x9C4 PUSH2 0x277D JUMP JUMPDEST JUMPDEST PUSH1 0x20 MUL ADD MLOAD PUSH2 0x1BBF JUMP JUMPDEST PUSH1 0x4 DUP2 GT ISZERO PUSH2 0x9E1 JUMPI PUSH2 0x9E0 PUSH2 0x1F5A JUMP JUMPDEST JUMPDEST DUP2 MSTORE PUSH1 0x20 ADD PUSH2 0xA07 DUP4 PUSH1 0x2 PUSH1 0x4 DUP2 LT PUSH2 0x9FD JUMPI PUSH2 0x9FC PUSH2 0x277D JUMP JUMPDEST JUMPDEST PUSH1 0x20 MUL ADD MLOAD PUSH2 0x1BBF JUMP JUMPDEST PUSH1 0x4 DUP2 GT ISZERO PUSH2 0xA19 JUMPI PUSH2 0xA18 PUSH2 0x1F5A JUMP JUMPDEST JUMPDEST DUP2 MSTORE PUSH1 0x20 ADD PUSH2 0xA3F DUP4 PUSH1 0x3 PUSH1 0x4 DUP2 LT PUSH2 0xA35 JUMPI PUSH2 0xA34 PUSH2 0x277D JUMP JUMPDEST JUMPDEST PUSH1 0x20 MUL ADD MLOAD PUSH2 0x1BBF JUMP JUMPDEST PUSH1 0x4 DUP2 GT ISZERO PUSH2 0xA51 JUMPI PUSH2 0xA50 PUSH2 0x1F5A JUMP JUMPDEST JUMPDEST DUP2 MSTORE POP PUSH1 0x3 DUP6 PUSH1 0x40 MLOAD PUSH2 0xA64 SWAP2 SWAP1 PUSH2 0x2ABE JUMP JUMPDEST SWAP1 DUP2 MSTORE PUSH1 0x20 ADD PUSH1 0x40 MLOAD DUP1 SWAP2 SUB SWAP1 KECCAK256 PUSH1 0x8 ADD PUSH1 0x0 DUP3 ADD MLOAD DUP2 PUSH1 0x0 ADD SWAP1 DUP2 PUSH2 0xA8A SWAP2 SWAP1 PUSH2 0x2958 JUMP JUMPDEST POP PUSH1 0x20 DUP3 ADD MLOAD DUP2 PUSH1 0x1 ADD SWAP1 DUP2 PUSH2 0xAA0 SWAP2 SWAP1 PUSH2 0x2958 JUMP JUMPDEST POP PUSH1 0x40 DUP3 ADD MLOAD DUP2 PUSH1 0x2 ADD PUSH1 0x0 PUSH2 0x100 EXP DUP2 SLOAD DUP2 PUSH1 0xFF MUL NOT AND SWAP1 DUP4 PUSH1 0x4 DUP2 GT ISZERO PUSH2 0xACC JUMPI PUSH2 0xACB PUSH2 0x1F5A JUMP JUMPDEST JUMPDEST MUL OR SWAP1 SSTORE POP PUSH1 0x60 DUP3 ADD MLOAD DUP2 PUSH1 0x2 ADD PUSH1 0x1 PUSH2 0x100 EXP DUP2 SLOAD DUP2 PUSH1 0xFF MUL NOT AND SWAP1 DUP4 PUSH1 0x4 DUP2 GT ISZERO PUSH2 0xAFC JUMPI PUSH2 0xAFB PUSH2 0x1F5A JUMP JUMPDEST JUMPDEST MUL OR SWAP1 SSTORE POP PUSH1 0x80 DUP3 ADD MLOAD DUP2 PUSH1 0x2 ADD PUSH1 0x2 PUSH2 0x100 EXP DUP2 SLOAD DUP2 PUSH1 0xFF MUL NOT AND SWAP1 DUP4 PUSH1 0x4 DUP2 GT ISZERO PUSH2 0xB2C JUMPI PUSH2 0xB2B PUSH2 0x1F5A JUMP JUMPDEST JUMPDEST MUL OR SWAP1 SSTORE POP PUSH1 0xA0 DUP3 ADD MLOAD DUP2 PUSH1 0x2 ADD PUSH1 0x3 PUSH2 0x100 EXP DUP2 SLOAD DUP2 PUSH1 0xFF MUL NOT AND SWAP1 DUP4 PUSH1 0x4 DUP2 GT ISZERO PUSH2 0xB5C JUMPI PUSH2 0xB5B PUSH2 0x1F5A JUMP JUMPDEST JUMPDEST MUL OR SWAP1 SSTORE POP SWAP1 POP POP JUMPDEST POP POP POP POP JUMP JUMPDEST PUSH1 0x2 DUP2 DUP2 SLOAD DUP2 LT PUSH2 0xB7B JUMPI PUSH1 0x0 DUP1 REVERT JUMPDEST SWAP1 PUSH1 0x0 MSTORE PUSH1 0x20 PUSH1 0x0 KECCAK256 SWAP1 PUSH1 0x4 MUL ADD PUSH1 0x0 SWAP2 POP SWAP1 POP DUP1 PUSH1 0x0 ADD PUSH1 0x0 SWAP1 SLOAD SWAP1 PUSH2 0x100 EXP SWAP1 DIV PUSH20 0xFFFFFFFFFFFFFFFFFFFFFFFFFFFFFFFFFFFFFFFF AND SWAP1 DUP1 PUSH1 0x1 ADD SLOAD SWAP1 DUP1 PUSH1 0x2 ADD DUP1 SLOAD PUSH2 0xBCA SWAP1 PUSH2 0x274C JUMP JUMPDEST DUP1 PUSH1 0x1F ADD PUSH1 0x20 DUP1 SWAP2 DIV MUL PUSH1 0x20 ADD PUSH1 0x40 MLOAD SWAP1 DUP2 ADD PUSH1 0x40 MSTORE DUP1 SWAP3 SWAP2 SWAP1 DUP2 DUP2 MSTORE PUSH1 0x20 ADD DUP3 DUP1 SLOAD PUSH2 0xBF6 SWAP1 PUSH2 0x274C JUMP JUMPDEST DUP1 ISZERO PUSH2 0xC43 JUMPI DUP1 PUSH1 0x1F LT PUSH2 0xC18 JUMPI PUSH2 0x100 DUP1 DUP4 SLOAD DIV MUL DUP4 MSTORE SWAP2 PUSH1 0x20 ADD SWAP2 PUSH2 0xC43 JUMP JUMPDEST DUP3 ADD SWAP2 SWAP1 PUSH1 0x0 MSTORE PUSH1 0x20 PUSH1 0x0 KECCAK256 SWAP1 JUMPDEST DUP2 SLOAD DUP2 MSTORE SWAP1 PUSH1 0x1 ADD SWAP1 PUSH1 0x20 ADD DUP1 DUP4 GT PUSH2 0xC26 JUMPI DUP3 SWAP1 SUB PUSH1 0x1F AND DUP3 ADD SWAP2 JUMPDEST POP POP POP POP POP SWAP1 DUP1 PUSH1 0x3 ADD DUP1 SLOAD PUSH2 0xC58 SWAP1 PUSH2 0x274C JUMP JUMPDEST DUP1 PUSH1 0x1F ADD PUSH1 0x20 DUP1 SWAP2 DIV MUL PUSH1 0x20 ADD PUSH1 0x40 MLOAD SWAP1 DUP2 ADD PUSH1 0x40 MSTORE DUP1 SWAP3 SWAP2 SWAP1 DUP2 DUP2 MSTORE PUSH1 0x20 ADD DUP3 DUP1 SLOAD PUSH2 0xC84 SWAP1 PUSH2 0x274C JUMP JUMPDEST DUP1 ISZERO PUSH2 0xCD1 JUMPI DUP1 PUSH1 0x1F LT PUSH2 0xCA6 JUMPI PUSH2 0x100 DUP1 DUP4 SLOAD DIV MUL DUP4 MSTORE SWAP2 PUSH1 0x20 ADD SWAP2 PUSH2 0xCD1 JUMP JUMPDEST DUP3 ADD SWAP2 SWAP1 PUSH1 0x0 MSTORE PUSH1 0x20 PUSH1 0x0 KECCAK256 SWAP1 JUMPDEST DUP2 SLOAD DUP2 MSTORE SWAP1 PUSH1 0x1 ADD SWAP1 PUSH1 0x20 ADD DUP1 DUP4 GT PUSH2 0xCB4 JUMPI DUP3 SWAP1 SUB PUSH1 0x1F AND DUP3 ADD SWAP2 JUMPDEST POP POP POP POP POP SWAP1 POP DUP5 JUMP JUMPDEST PUSH1 0x0 PUSH1 0x3 DUP3 PUSH1 0x40 MLOAD PUSH2 0xCED SWAP2 SWAP1 PUSH2 0x2ABE JUMP JUMPDEST SWAP1 DUP2 MSTORE PUSH1 0x20 ADD PUSH1 0x40 MLOAD DUP1 SWAP2 SUB SWAP1 KECCAK256 PUSH1 0x1 ADD SLOAD SWAP1 POP SWAP2 SWAP1 POP JUMP JUMPDEST PUSH1 0x0 PUSH1 0x1 SLOAD SWAP1 POP SWAP1 JUMP JUMPDEST PUSH1 0x0 DUP1 PUSH1 0x0 PUSH1 0x2 DUP1 SLOAD SWAP1 POP SWAP1 POP JUMPDEST PUSH1 0x0 DUP2 SUB PUSH2 0xE79 JUMPI PUSH1 0x0 DUP1 SLOAD SWAP1 PUSH2 0x100 EXP SWAP1 DIV PUSH20 0xFFFFFFFFFFFFFFFFFFFFFFFFFFFFFFFFFFFFFFFF AND PUSH20 0xFFFFFFFFFFFFFFFFFFFFFFFFFFFFFFFFFFFFFFFF AND CALLER PUSH20 0xFFFFFFFFFFFFFFFFFFFFFFFFFFFFFFFFFFFFFFFF AND SUB PUSH2 0xDA1 JUMPI PUSH1 0x0 DUP1 SLOAD SWAP1 PUSH2 0x100 EXP SWAP1 DIV PUSH20 0xFFFFFFFFFFFFFFFFFFFFFFFFFFFFFFFFFFFFFFFF AND SWAP2 POP PUSH2 0xE79 JUMP JUMPDEST CALLER PUSH20 0xFFFFFFFFFFFFFFFFFFFFFFFFFFFFFFFFFFFFFFFF AND PUSH1 0x2 DUP3 DUP2 SLOAD DUP2 LT PUSH2 0xDCC JUMPI PUSH2 0xDCB PUSH2 0x277D JUMP JUMPDEST JUMPDEST SWAP1 PUSH1 0x0 MSTORE PUSH1 0x20 PUSH1 0x0 KECCAK256 SWAP1 PUSH1 0x4 MUL ADD PUSH1 0x0 ADD PUSH1 0x0 SWAP1 SLOAD SWAP1 PUSH2 0x100 EXP SWAP1 DIV PUSH20 0xFFFFFFFFFFFFFFFFFFFFFFFFFFFFFFFFFFFFFFFF AND PUSH20 0xFFFFFFFFFFFFFFFFFFFFFFFFFFFFFFFFFFFFFFFF AND SUB PUSH2 0xE66 JUMPI PUSH1 0x2 DUP2 DUP2 SLOAD DUP2 LT PUSH2 0xE2D JUMPI PUSH2 0xE2C PUSH2 0x277D JUMP JUMPDEST JUMPDEST SWAP1 PUSH1 0x0 MSTORE PUSH1 0x20 PUSH1 0x0 KECCAK256 SWAP1 PUSH1 0x4 MUL ADD PUSH1 0x0 ADD PUSH1 0x0 SWAP1 SLOAD SWAP1 PUSH2 0x100 EXP SWAP1 DIV PUSH20 0xFFFFFFFFFFFFFFFFFFFFFFFFFFFFFFFFFFFFFFFF AND SWAP2 POP PUSH2 0xE79 JUMP JUMPDEST DUP1 DUP1 PUSH2 0xE71 SWAP1 PUSH2 0x2A59 JUMP JUMPDEST SWAP2 POP POP PUSH2 0xD1E JUMP JUMPDEST POP DUP1 PUSH20 0xFFFFFFFFFFFFFFFFFFFFFFFFFFFFFFFFFFFFFFFF AND CALLER PUSH20 0xFFFFFFFFFFFFFFFFFFFFFFFFFFFFFFFFFFFFFFFF AND EQ PUSH2 0xEB2 JUMPI PUSH1 0x0 DUP1 REVERT JUMPDEST PUSH2 0xF65 DUP5 PUSH1 0x3 DUP8 PUSH1 0x40 MLOAD PUSH2 0xEC6 SWAP2 SWAP1 PUSH2 0x2ABE JUMP JUMPDEST SWAP1 DUP2 MSTORE PUSH1 0x20 ADD PUSH1 0x40 MLOAD DUP1 SWAP2 SUB SWAP1 KECCAK256 PUSH1 0xB ADD DUP1 SLOAD PUSH2 0xEE2 SWAP1 PUSH2 0x274C JUMP JUMPDEST DUP1 PUSH1 0x1F ADD PUSH1 0x20 DUP1 SWAP2 DIV MUL PUSH1 0x20 ADD PUSH1 0x40 MLOAD SWAP1 DUP2 ADD PUSH1 0x40 MSTORE DUP1 SWAP3 SWAP2 SWAP1 DUP2 DUP2 MSTORE PUSH1 0x20 ADD DUP3 DUP1 SLOAD PUSH2 0xF0E SWAP1 PUSH2 0x274C JUMP JUMPDEST DUP1 ISZERO PUSH2 0xF5B JUMPI DUP1 PUSH1 0x1F LT PUSH2 0xF30 JUMPI PUSH2 0x100 DUP1 DUP4 SLOAD DIV MUL DUP4 MSTORE SWAP2 PUSH1 0x20 ADD SWAP2 PUSH2 0xF5B JUMP JUMPDEST DUP3 ADD SWAP2 SWAP1 PUSH1 0x0 MSTORE PUSH1 0x20 PUSH1 0x0 KECCAK256 SWAP1 JUMPDEST DUP2 SLOAD DUP2 MSTORE SWAP1 PUSH1 0x1 ADD SWAP1 PUSH1 0x20 ADD DUP1 DUP4 GT PUSH2 0xF3E JUMPI DUP3 SWAP1 SUB PUSH1 0x1F AND DUP3 ADD SWAP2 JUMPDEST POP POP POP POP POP PUSH2 0x1C20 JUMP JUMPDEST ISZERO PUSH2 0xFDC JUMPI DUP3 PUSH1 0x3 DUP7 PUSH1 0x40 MLOAD PUSH2 0xF7B SWAP2 SWAP1 PUSH2 0x2ABE JUMP JUMPDEST SWAP1 DUP2 MSTORE PUSH1 0x20 ADD PUSH1 0x40 MLOAD DUP1 SWAP2 SUB SWAP1 KECCAK256 PUSH1 0xD ADD SWAP1 DUP2 PUSH2 0xF98 SWAP2 SWAP1 PUSH2 0x2958 JUMP JUMPDEST POP PUSH1 0x0 PUSH1 0x3 DUP7 PUSH1 0x40 MLOAD PUSH2 0xFAB SWAP2 SWAP1 PUSH2 0x2ABE JUMP JUMPDEST SWAP1 DUP2 MSTORE PUSH1 0x20 ADD PUSH1 0x40 MLOAD DUP1 SWAP2 SUB SWAP1 KECCAK256 PUSH1 0xC ADD PUSH1 0x0 PUSH2 0x100 EXP DUP2 SLOAD DUP2 PUSH1 0xFF MUL NOT AND SWAP1 DUP4 ISZERO ISZERO MUL OR SWAP1 SSTORE POP PUSH1 0x1 SWAP2 POP PUSH2 0xFE1 JUMP JUMPDEST PUSH1 0x0 SWAP2 POP JUMPDEST POP SWAP4 SWAP3 POP POP POP JUMP JUMPDEST PUSH1 0x0 DUP1 PUSH1 0x2 DUP1 SLOAD SWAP1 POP SWAP1 POP JUMPDEST PUSH1 0x0 DUP2 SUB PUSH2 0x1150 JUMPI PUSH1 0x0 DUP1 SLOAD SWAP1 PUSH2 0x100 EXP SWAP1 DIV PUSH20 0xFFFFFFFFFFFFFFFFFFFFFFFFFFFFFFFFFFFFFFFF AND PUSH20 0xFFFFFFFFFFFFFFFFFFFFFFFFFFFFFFFFFFFFFFFF AND CALLER PUSH20 0xFFFFFFFFFFFFFFFFFFFFFFFFFFFFFFFFFFFFFFFF AND SUB PUSH2 0x1078 JUMPI PUSH1 0x0 DUP1 SLOAD SWAP1 PUSH2 0x100 EXP SWAP1 DIV PUSH20 0xFFFFFFFFFFFFFFFFFFFFFFFFFFFFFFFFFFFFFFFF AND SWAP2 POP PUSH2 0x1150 JUMP JUMPDEST CALLER PUSH20 0xFFFFFFFFFFFFFFFFFFFFFFFFFFFFFFFFFFFFFFFF AND PUSH1 0x2 DUP3 DUP2 SLOAD DUP2 LT PUSH2 0x10A3 JUMPI PUSH2 0x10A2 PUSH2 0x277D JUMP JUMPDEST JUMPDEST SWAP1 PUSH1 0x0 MSTORE PUSH1 0x20 PUSH1 0x0 KECCAK256 SWAP1 PUSH1 0x4 MUL ADD PUSH1 0x0 ADD PUSH1 0x0 SWAP1 SLOAD SWAP1 PUSH2 0x100 EXP SWAP1 DIV PUSH20 0xFFFFFFFFFFFFFFFFFFFFFFFFFFFFFFFFFFFFFFFF AND PUSH20 0xFFFFFFFFFFFFFFFFFFFFFFFFFFFFFFFFFFFFFFFF AND SUB PUSH2 0x113D JUMPI PUSH1 0x2 DUP2 DUP2 SLOAD DUP2 LT PUSH2 0x1104 JUMPI PUSH2 0x1103 PUSH2 0x277D JUMP JUMPDEST JUMPDEST SWAP1 PUSH1 0x0 MSTORE PUSH1 0x20 PUSH1 0x0 KECCAK256 SWAP1 PUSH1 0x4 MUL ADD PUSH1 0x0 ADD PUSH1 0x0 SWAP1 SLOAD SWAP1 PUSH2 0x100 EXP SWAP1 DIV PUSH20 0xFFFFFFFFFFFFFFFFFFFFFFFFFFFFFFFFFFFFFFFF AND SWAP2 POP PUSH2 0x1150 JUMP JUMPDEST DUP1 DUP1 PUSH2 0x1148 SWAP1 PUSH2 0x2A59 JUMP JUMPDEST SWAP2 POP POP PUSH2 0xFF5 JUMP JUMPDEST POP DUP1 PUSH20 0xFFFFFFFFFFFFFFFFFFFFFFFFFFFFFFFFFFFFFFFF AND CALLER PUSH20 0xFFFFFFFFFFFFFFFFFFFFFFFFFFFFFFFFFFFFFFFF AND EQ PUSH2 0x1189 JUMPI PUSH1 0x0 DUP1 REVERT JUMPDEST PUSH1 0x40 MLOAD DUP1 PUSH2 0x180 ADD PUSH1 0x40 MSTORE DUP1 DUP9 DUP2 MSTORE PUSH1 0x20 ADD DUP8 DUP2 MSTORE PUSH1 0x20 ADD DUP7 DUP2 MSTORE PUSH1 0x20 ADD DUP6 DUP2 MSTORE PUSH1 0x20 ADD CALLER PUSH20 0xFFFFFFFFFFFFFFFFFFFFFFFFFFFFFFFFFFFFFFFF AND DUP2 MSTORE PUSH1 0x20 ADD DUP5 DUP2 MSTORE PUSH1 0x20 ADD DUP4 DUP2 MSTORE PUSH1 0x20 ADD PUSH1 0x0 DUP1 SLOAD SWAP1 PUSH2 0x100 EXP SWAP1 DIV PUSH20 0xFFFFFFFFFFFFFFFFFFFFFFFFFFFFFFFFFFFFFFFF AND PUSH20 0xFFFFFFFFFFFFFFFFFFFFFFFFFFFFFFFFFFFFFFFF AND DUP2 MSTORE PUSH1 0x20 ADD PUSH1 0x4 PUSH1 0x40 MLOAD DUP1 PUSH1 0xC0 ADD PUSH1 0x40 MSTORE SWAP1 DUP2 PUSH1 0x0 DUP3 ADD DUP1 SLOAD PUSH2 0x122E SWAP1 PUSH2 0x274C JUMP JUMPDEST DUP1 PUSH1 0x1F ADD PUSH1 0x20 DUP1 SWAP2 DIV MUL PUSH1 0x20 ADD PUSH1 0x40 MLOAD SWAP1 DUP2 ADD PUSH1 0x40 MSTORE DUP1 SWAP3 SWAP2 SWAP1 DUP2 DUP2 MSTORE PUSH1 0x20 ADD DUP3 DUP1 SLOAD PUSH2 0x125A SWAP1 PUSH2 0x274C JUMP JUMPDEST DUP1 ISZERO PUSH2 0x12A7 JUMPI DUP1 PUSH1 0x1F LT PUSH2 0x127C JUMPI PUSH2 0x100 DUP1 DUP4 SLOAD DIV MUL DUP4 MSTORE SWAP2 PUSH1 0x20 ADD SWAP2 PUSH2 0x12A7 JUMP JUMPDEST DUP3 ADD SWAP2 SWAP1 PUSH1 0x0 MSTORE PUSH1 0x20 PUSH1 0x0 KECCAK256 SWAP1 JUMPDEST DUP2 SLOAD DUP2 MSTORE SWAP1 PUSH1 0x1 ADD SWAP1 PUSH1 0x20 ADD DUP1 DUP4 GT PUSH2 0x128A JUMPI DUP3 SWAP1 SUB PUSH1 0x1F AND DUP3 ADD SWAP2 JUMPDEST POP POP POP POP POP DUP2 MSTORE PUSH1 0x20 ADD PUSH1 0x1 DUP3 ADD DUP1 SLOAD PUSH2 0x12C0 SWAP1 PUSH2 0x274C JUMP JUMPDEST DUP1 PUSH1 0x1F ADD PUSH1 0x20 DUP1 SWAP2 DIV MUL PUSH1 0x20 ADD PUSH1 0x40 MLOAD SWAP1 DUP2 ADD PUSH1 0x40 MSTORE DUP1 SWAP3 SWAP2 SWAP1 DUP2 DUP2 MSTORE PUSH1 0x20 ADD DUP3 DUP1 SLOAD PUSH2 0x12EC SWAP1 PUSH2 0x274C JUMP JUMPDEST DUP1 ISZERO PUSH2 0x1339 JUMPI DUP1 PUSH1 0x1F LT PUSH2 0x130E JUMPI PUSH2 0x100 DUP1 DUP4 SLOAD DIV MUL DUP4 MSTORE SWAP2 PUSH1 0x20 ADD SWAP2 PUSH2 0x1339 JUMP JUMPDEST DUP3 ADD SWAP2 SWAP1 PUSH1 0x0 MSTORE PUSH1 0x20 PUSH1 0x0 KECCAK256 SWAP1 JUMPDEST DUP2 SLOAD DUP2 MSTORE SWAP1 PUSH1 0x1 ADD SWAP1 PUSH1 0x20 ADD DUP1 DUP4 GT PUSH2 0x131C JUMPI DUP3 SWAP1 SUB PUSH1 0x1F AND DUP3 ADD SWAP2 JUMPDEST POP POP POP POP POP DUP2 MSTORE PUSH1 0x20 ADD PUSH1 0x2 DUP3 ADD PUSH1 0x0 SWAP1 SLOAD SWAP1 PUSH2 0x100 EXP SWAP1 DIV PUSH1 0xFF AND PUSH1 0x4 DUP2 GT ISZERO PUSH2 0x1367 JUMPI PUSH2 0x1366 PUSH2 0x1F5A JUMP JUMPDEST JUMPDEST PUSH1 0x4 DUP2 GT ISZERO PUSH2 0x1379 JUMPI PUSH2 0x1378 PUSH2 0x1F5A JUMP JUMPDEST JUMPDEST DUP2 MSTORE PUSH1 0x20 ADD PUSH1 0x2 DUP3 ADD PUSH1 0x1 SWAP1 SLOAD SWAP1 PUSH2 0x100 EXP SWAP1 DIV PUSH1 0xFF AND PUSH1 0x4 DUP2 GT ISZERO PUSH2 0x13A2 JUMPI PUSH2 0x13A1 PUSH2 0x1F5A JUMP JUMPDEST JUMPDEST PUSH1 0x4 DUP2 GT ISZERO PUSH2 0x13B4 JUMPI PUSH2 0x13B3 PUSH2 0x1F5A JUMP JUMPDEST JUMPDEST DUP2 MSTORE PUSH1 0x20 ADD PUSH1 0x2 DUP3 ADD PUSH1 0x2 SWAP1 SLOAD SWAP1 PUSH2 0x100 EXP SWAP1 DIV PUSH1 0xFF AND PUSH1 0x4 DUP2 GT ISZERO PUSH2 0x13DD JUMPI PUSH2 0x13DC PUSH2 0x1F5A JUMP JUMPDEST JUMPDEST PUSH1 0x4 DUP2 GT ISZERO PUSH2 0x13EF JUMPI PUSH2 0x13EE PUSH2 0x1F5A JUMP JUMPDEST JUMPDEST DUP2 MSTORE PUSH1 0x20 ADD PUSH1 0x2 DUP3 ADD PUSH1 0x3 SWAP1 SLOAD SWAP1 PUSH2 0x100 EXP SWAP1 DIV PUSH1 0xFF AND PUSH1 0x4 DUP2 GT ISZERO PUSH2 0x1418 JUMPI PUSH2 0x1417 PUSH2 0x1F5A JUMP JUMPDEST JUMPDEST PUSH1 0x4 DUP2 GT ISZERO PUSH2 0x142A JUMPI PUSH2 0x1429 PUSH2 0x1F5A JUMP JUMPDEST JUMPDEST DUP2 MSTORE POP POP DUP2 MSTORE PUSH1 0x20 ADD PUSH1 0x40 MLOAD DUP1 PUSH1 0x40 ADD PUSH1 0x40 MSTORE DUP1 PUSH1 0x4 DUP2 MSTORE PUSH1 0x20 ADD PUSH32 0x6661726D00000000000000000000000000000000000000000000000000000000 DUP2 MSTORE POP DUP2 MSTORE PUSH1 0x20 ADD PUSH1 0x0 ISZERO ISZERO DUP2 MSTORE PUSH1 0x20 ADD PUSH1 0x40 MLOAD DUP1 PUSH1 0x40 ADD PUSH1 0x40 MSTORE DUP1 PUSH1 0x7 DUP2 MSTORE PUSH1 0x20 ADD PUSH32 0x7065726665637400000000000000000000000000000000000000000000000000 DUP2 MSTORE POP DUP2 MSTORE POP PUSH1 0x3 DUP9 PUSH1 0x40 MLOAD PUSH2 0x14C0 SWAP2 SWAP1 PUSH2 0x2ABE JUMP JUMPDEST SWAP1 DUP2 MSTORE PUSH1 0x20 ADD PUSH1 0x40 MLOAD DUP1 SWAP2 SUB SWAP1 KECCAK256 PUSH1 0x0 DUP3 ADD MLOAD DUP2 PUSH1 0x0 ADD SWAP1 DUP2 PUSH2 0x14E3 SWAP2 SWAP1 PUSH2 0x2958 JUMP JUMPDEST POP PUSH1 0x20 DUP3 ADD MLOAD DUP2 PUSH1 0x1 ADD SSTORE PUSH1 0x40 DUP3 ADD MLOAD DUP2 PUSH1 0x2 ADD SSTORE PUSH1 0x60 DUP3 ADD MLOAD DUP2 PUSH1 0x3 ADD SSTORE PUSH1 0x80 DUP3 ADD MLOAD DUP2 PUSH1 0x4 ADD PUSH1 0x0 PUSH2 0x100 EXP DUP2 SLOAD DUP2 PUSH20 0xFFFFFFFFFFFFFFFFFFFFFFFFFFFFFFFFFFFFFFFF MUL NOT AND SWAP1 DUP4 PUSH20 0xFFFFFFFFFFFFFFFFFFFFFFFFFFFFFFFFFFFFFFFF AND MUL OR SWAP1 SSTORE POP PUSH1 0xA0 DUP3 ADD MLOAD DUP2 PUSH1 0x5 ADD SSTORE PUSH1 0xC0 DUP3 ADD MLOAD DUP2 PUSH1 0x6 ADD SSTORE PUSH1 0xE0 DUP3 ADD MLOAD DUP2 PUSH1 0x7 ADD PUSH1 0x0 PUSH2 0x100 EXP DUP2 SLOAD DUP2 PUSH20 0xFFFFFFFFFFFFFFFFFFFFFFFFFFFFFFFFFFFFFFFF MUL NOT AND SWAP1 DUP4 PUSH20 0xFFFFFFFFFFFFFFFFFFFFFFFFFFFFFFFFFFFFFFFF AND MUL OR SWAP1 SSTORE POP PUSH2 0x100 DUP3 ADD MLOAD DUP2 PUSH1 0x8 ADD PUSH1 0x0 DUP3 ADD MLOAD DUP2 PUSH1 0x0 ADD SWAP1 DUP2 PUSH2 0x15C3 SWAP2 SWAP1 PUSH2 0x2958 JUMP JUMPDEST POP PUSH1 0x20 DUP3 ADD MLOAD DUP2 PUSH1 0x1 ADD SWAP1 DUP2 PUSH2 0x15D9 SWAP2 SWAP1 PUSH2 0x2958 JUMP JUMPDEST POP PUSH1 0x40 DUP3 ADD MLOAD DUP2 PUSH1 0x2 ADD PUSH1 0x0 PUSH2 0x100 EXP DUP2 SLOAD DUP2 PUSH1 0xFF MUL NOT AND SWAP1 DUP4 PUSH1 0x4 DUP2 GT ISZERO PUSH2 0x1605 JUMPI PUSH2 0x1604 PUSH2 0x1F5A JUMP JUMPDEST JUMPDEST MUL OR SWAP1 SSTORE POP PUSH1 0x60 DUP3 ADD MLOAD DUP2 PUSH1 0x2 ADD PUSH1 0x1 PUSH2 0x100 EXP DUP2 SLOAD DUP2 PUSH1 0xFF MUL NOT AND SWAP1 DUP4 PUSH1 0x4 DUP2 GT ISZERO PUSH2 0x1635 JUMPI PUSH2 0x1634 PUSH2 0x1F5A JUMP JUMPDEST JUMPDEST MUL OR SWAP1 SSTORE POP PUSH1 0x80 DUP3 ADD MLOAD DUP2 PUSH1 0x2 ADD PUSH1 0x2 PUSH2 0x100 EXP DUP2 SLOAD DUP2 PUSH1 0xFF MUL NOT AND SWAP1 DUP4 PUSH1 0x4 DUP2 GT ISZERO PUSH2 0x1665 JUMPI PUSH2 0x1664 PUSH2 0x1F5A JUMP JUMPDEST JUMPDEST MUL OR SWAP1 SSTORE POP PUSH1 0xA0 DUP3 ADD MLOAD DUP2 PUSH1 0x2 ADD PUSH1 0x3 PUSH2 0x100 EXP DUP2 SLOAD DUP2 PUSH1 0xFF MUL NOT AND SWAP1 DUP4 PUSH1 0x4 DUP2 GT ISZERO PUSH2 0x1695 JUMPI PUSH2 0x1694 PUSH2 0x1F5A JUMP JUMPDEST JUMPDEST MUL OR SWAP1 SSTORE POP POP POP PUSH2 0x120 DUP3 ADD MLOAD DUP2 PUSH1 0xB ADD SWAP1 DUP2 PUSH2 0x16B2 SWAP2 SWAP1 PUSH2 0x2958 JUMP JUMPDEST POP PUSH2 0x140 DUP3 ADD MLOAD DUP2 PUSH1 0xC ADD PUSH1 0x0 PUSH2 0x100 EXP DUP2 SLOAD DUP2 PUSH1 0xFF MUL NOT AND SWAP1 DUP4 ISZERO ISZERO MUL OR SWAP1 SSTORE POP PUSH2 0x160 DUP3 ADD MLOAD DUP2 PUSH1 0xD ADD SWAP1 DUP2 PUSH2 0x16EA SWAP2 SWAP1 PUSH2 0x2958 JUMP JUMPDEST POP SWAP1 POP POP PUSH1 0x1 PUSH1 0x0 DUP2 SLOAD DUP1 SWAP3 SWAP2 SWAP1 PUSH2 0x1701 SWAP1 PUSH2 0x2AD5 JUMP JUMPDEST SWAP2 SWAP1 POP SSTORE POP POP POP POP POP POP POP POP JUMP JUMPDEST PUSH1 0x0 DUP1 PUSH1 0x0 SWAP1 SLOAD SWAP1 PUSH2 0x100 EXP SWAP1 DIV PUSH20 0xFFFFFFFFFFFFFFFFFFFFFFFFFFFFFFFFFFFFFFFF AND SWAP1 POP SWAP1 JUMP JUMPDEST PUSH1 0x60 PUSH2 0x1822 PUSH1 0x3 DUP4 PUSH1 0x40 MLOAD PUSH2 0x174D SWAP2 SWAP1 PUSH2 0x2ABE JUMP JUMPDEST SWAP1 DUP2 MSTORE PUSH1 0x20 ADD PUSH1 0x40 MLOAD DUP1 SWAP2 SUB SWAP1 KECCAK256 PUSH1 0xD ADD DUP1 SLOAD PUSH2 0x1769 SWAP1 PUSH2 0x274C JUMP JUMPDEST DUP1 PUSH1 0x1F ADD PUSH1 0x20 DUP1 SWAP2 DIV MUL PUSH1 0x20 ADD PUSH1 0x40 MLOAD SWAP1 DUP2 ADD PUSH1 0x40 MSTORE DUP1 SWAP3 SWAP2 SWAP1 DUP2 DUP2 MSTORE PUSH1 0x20 ADD DUP3 DUP1 SLOAD PUSH2 0x1795 SWAP1 PUSH2 0x274C JUMP JUMPDEST DUP1 ISZERO PUSH2 0x17E2 JUMPI DUP1 PUSH1 0x1F LT PUSH2 0x17B7 JUMPI PUSH2 0x100 DUP1 DUP4 SLOAD DIV MUL DUP4 MSTORE SWAP2 PUSH1 0x20 ADD SWAP2 PUSH2 0x17E2 JUMP JUMPDEST DUP3 ADD SWAP2 SWAP1 PUSH1 0x0 MSTORE PUSH1 0x20 PUSH1 0x0 KECCAK256 SWAP1 JUMPDEST DUP2 SLOAD DUP2 MSTORE SWAP1 PUSH1 0x1 ADD SWAP1 PUSH1 0x20 ADD DUP1 DUP4 GT PUSH2 0x17C5 JUMPI DUP3 SWAP1 SUB PUSH1 0x1F AND DUP3 ADD SWAP2 JUMPDEST POP POP POP POP POP PUSH1 0x40 MLOAD DUP1 PUSH1 0x40 ADD PUSH1 0x40 MSTORE DUP1 PUSH1 0x7 DUP2 MSTORE PUSH1 0x20 ADD PUSH32 0x64616D6167656400000000000000000000000000000000000000000000000000 DUP2 MSTORE POP PUSH2 0x1C20 JUMP JUMPDEST ISZERO PUSH2 0x1847 JUMPI PUSH1 0x40 MLOAD DUP1 PUSH1 0x60 ADD PUSH1 0x40 MSTORE DUP1 PUSH1 0x2B DUP2 MSTORE PUSH1 0x20 ADD PUSH2 0x2B1E PUSH1 0x2B SWAP2 CODECOPY SWAP1 POP PUSH2 0x18E0 JUMP JUMPDEST DUP3 PUSH1 0x3 DUP4 PUSH1 0x40 MLOAD PUSH2 0x1858 SWAP2 SWAP1 PUSH2 0x2ABE JUMP JUMPDEST SWAP1 DUP2 MSTORE PUSH1 0x20 ADD PUSH1 0x40 MLOAD DUP1 SWAP2 SUB SWAP1 KECCAK256 PUSH1 0x7 ADD PUSH1 0x0 PUSH2 0x100 EXP DUP2 SLOAD DUP2 PUSH20 0xFFFFFFFFFFFFFFFFFFFFFFFFFFFFFFFFFFFFFFFF MUL NOT AND SWAP1 DUP4 PUSH20 0xFFFFFFFFFFFFFFFFFFFFFFFFFFFFFFFFFFFFFFFF AND MUL OR SWAP1 SSTORE POP PUSH1 0x40 MLOAD DUP1 PUSH1 0x40 ADD PUSH1 0x40 MSTORE DUP1 PUSH1 0xA DUP2 MSTORE PUSH1 0x20 ADD PUSH32 0x7375636365737366756C00000000000000000000000000000000000000000000 DUP2 MSTORE POP SWAP1 POP JUMPDEST SWAP3 SWAP2 POP POP JUMP JUMPDEST PUSH1 0x0 DUP1 PUSH1 0x0 PUSH1 0x2 DUP1 SLOAD SWAP1 POP SWAP1 POP JUMPDEST PUSH1 0x0 DUP2 SUB PUSH2 0x1A4F JUMPI PUSH1 0x0 DUP1 SLOAD SWAP1 PUSH2 0x100 EXP SWAP1 DIV PUSH20 0xFFFFFFFFFFFFFFFFFFFFFFFFFFFFFFFFFFFFFFFF AND PUSH20 0xFFFFFFFFFFFFFFFFFFFFFFFFFFFFFFFFFFFFFFFF AND CALLER PUSH20 0xFFFFFFFFFFFFFFFFFFFFFFFFFFFFFFFFFFFFFFFF AND SUB PUSH2 0x1977 JUMPI PUSH1 0x0 DUP1 SLOAD SWAP1 PUSH2 0x100 EXP SWAP1 DIV PUSH20 0xFFFFFFFFFFFFFFFFFFFFFFFFFFFFFFFFFFFFFFFF AND SWAP2 POP PUSH2 0x1A4F JUMP JUMPDEST CALLER PUSH20 0xFFFFFFFFFFFFFFFFFFFFFFFFFFFFFFFFFFFFFFFF AND PUSH1 0x2 DUP3 DUP2 SLOAD DUP2 LT PUSH2 0x19A2 JUMPI PUSH2 0x19A1 PUSH2 0x277D JUMP JUMPDEST JUMPDEST SWAP1 PUSH1 0x0 MSTORE PUSH1 0x20 PUSH1 0x0 KECCAK256 SWAP1 PUSH1 0x4 MUL ADD PUSH1 0x0 ADD PUSH1 0x0 SWAP1 SLOAD SWAP1 PUSH2 0x100 EXP SWAP1 DIV PUSH20 0xFFFFFFFFFFFFFFFFFFFFFFFFFFFFFFFFFFFFFFFF AND PUSH20 0xFFFFFFFFFFFFFFFFFFFFFFFFFFFFFFFFFFFFFFFF AND SUB PUSH2 0x1A3C JUMPI PUSH1 0x2 DUP2 DUP2 SLOAD DUP2 LT PUSH2 0x1A03 JUMPI PUSH2 0x1A02 PUSH2 0x277D JUMP JUMPDEST JUMPDEST SWAP1 PUSH1 0x0 MSTORE PUSH1 0x20 PUSH1 0x0 KECCAK256 SWAP1 PUSH1 0x4 MUL ADD PUSH1 0x0 ADD PUSH1 0x0 SWAP1 SLOAD SWAP1 PUSH2 0x100 EXP SWAP1 DIV PUSH20 0xFFFFFFFFFFFFFFFFFFFFFFFFFFFFFFFFFFFFFFFF AND SWAP2 POP PUSH2 0x1A4F JUMP JUMPDEST DUP1 DUP1 PUSH2 0x1A47 SWAP1 PUSH2 0x2A59 JUMP JUMPDEST SWAP2 POP POP PUSH2 0x18F4 JUMP JUMPDEST POP DUP1 PUSH20 0xFFFFFFFFFFFFFFFFFFFFFFFFFFFFFFFFFFFFFFFF AND CALLER PUSH20 0xFFFFFFFFFFFFFFFFFFFFFFFFFFFFFFFFFFFFFFFF AND EQ PUSH2 0x1A88 JUMPI PUSH1 0x0 DUP1 REVERT JUMPDEST PUSH2 0x1B3B DUP6 PUSH1 0x3 DUP6 PUSH1 0x40 MLOAD PUSH2 0x1A9C SWAP2 SWAP1 PUSH2 0x2ABE JUMP JUMPDEST SWAP1 DUP2 MSTORE PUSH1 0x20 ADD PUSH1 0x40 MLOAD DUP1 SWAP2 SUB SWAP1 KECCAK256 PUSH1 0xB ADD DUP1 SLOAD PUSH2 0x1AB8 SWAP1 PUSH2 0x274C JUMP JUMPDEST DUP1 PUSH1 0x1F ADD PUSH1 0x20 DUP1 SWAP2 DIV MUL PUSH1 0x20 ADD PUSH1 0x40 MLOAD SWAP1 DUP2 ADD PUSH1 0x40 MSTORE DUP1 SWAP3 SWAP2 SWAP1 DUP2 DUP2 MSTORE PUSH1 0x20 ADD DUP3 DUP1 SLOAD PUSH2 0x1AE4 SWAP1 PUSH2 0x274C JUMP JUMPDEST DUP1 ISZERO PUSH2 0x1B31 JUMPI DUP1 PUSH1 0x1F LT PUSH2 0x1B06 JUMPI PUSH2 0x100 DUP1 DUP4 SLOAD DIV MUL DUP4 MSTORE SWAP2 PUSH1 0x20 ADD SWAP2 PUSH2 0x1B31 JUMP JUMPDEST DUP3 ADD SWAP2 SWAP1 PUSH1 0x0 MSTORE PUSH1 0x20 PUSH1 0x0 KECCAK256 SWAP1 JUMPDEST DUP2 SLOAD DUP2 MSTORE SWAP1 PUSH1 0x1 ADD SWAP1 PUSH1 0x20 ADD DUP1 DUP4 GT PUSH2 0x1B14 JUMPI DUP3 SWAP1 SUB PUSH1 0x1F AND DUP3 ADD SWAP2 JUMPDEST POP POP POP POP POP PUSH2 0x1C20 JUMP JUMPDEST ISZERO PUSH2 0x1BB2 JUMPI DUP4 PUSH1 0x3 DUP5 PUSH1 0x40 MLOAD PUSH2 0x1B51 SWAP2 SWAP1 PUSH2 0x2ABE JUMP JUMPDEST SWAP1 DUP2 MSTORE PUSH1 0x20 ADD PUSH1 0x40 MLOAD DUP1 SWAP2 SUB SWAP1 KECCAK256 PUSH1 0xB ADD SWAP1 DUP2 PUSH2 0x1B6E SWAP2 SWAP1 PUSH2 0x2958 JUMP JUMPDEST POP PUSH1 0x1 PUSH1 0x3 DUP5 PUSH1 0x40 MLOAD PUSH2 0x1B81 SWAP2 SWAP1 PUSH2 0x2ABE JUMP JUMPDEST SWAP1 DUP2 MSTORE PUSH1 0x20 ADD PUSH1 0x40 MLOAD DUP1 SWAP2 SUB SWAP1 KECCAK256 PUSH1 0xC ADD PUSH1 0x0 PUSH2 0x100 EXP DUP2 SLOAD DUP2 PUSH1 0xFF MUL NOT AND SWAP1 DUP4 ISZERO ISZERO MUL OR SWAP1 SSTORE POP PUSH1 0x1 SWAP2 POP PUSH2 0x1BB7 JUMP JUMPDEST PUSH1 0x0 SWAP2 POP JUMPDEST POP SWAP4 SWAP3 POP POP POP JUMP JUMPDEST PUSH1 0x0 PUSH1 0x1 DUP3 SUB PUSH2 0x1BD2 JUMPI PUSH1 0x0 SWAP1 POP PUSH2 0x1C1B JUMP JUMPDEST PUSH1 0x2 DUP3 SUB PUSH2 0x1BE3 JUMPI PUSH1 0x1 SWAP1 POP PUSH2 0x1C1B JUMP JUMPDEST PUSH1 0x3 DUP3 SUB PUSH2 0x1BF4 JUMPI PUSH1 0x2 SWAP1 POP PUSH2 0x1C1B JUMP JUMPDEST PUSH1 0x4 DUP3 SUB PUSH2 0x1C05 JUMPI PUSH1 0x3 SWAP1 POP PUSH2 0x1C1B JUMP JUMPDEST PUSH1 0x5 DUP3 SUB PUSH2 0x1C16 JUMPI PUSH1 0x4 SWAP1 POP PUSH2 0x1C1B JUMP JUMPDEST PUSH1 0x2 SWAP1 POP JUMPDEST SWAP2 SWAP1 POP JUMP JUMPDEST PUSH1 0x0 DUP2 PUSH1 0x40 MLOAD PUSH1 0x20 ADD PUSH2 0x1C33 SWAP2 SWAP1 PUSH2 0x2ABE JUMP JUMPDEST PUSH1 0x40 MLOAD PUSH1 0x20 DUP2 DUP4 SUB SUB DUP2 MSTORE SWAP1 PUSH1 0x40 MSTORE DUP1 MLOAD SWAP1 PUSH1 0x20 ADD KECCAK256 DUP4 PUSH1 0x40 MLOAD PUSH1 0x20 ADD PUSH2 0x1C5A SWAP2 SWAP1 PUSH2 0x2ABE JUMP JUMPDEST PUSH1 0x40 MLOAD PUSH1 0x20 DUP2 DUP4 SUB SUB DUP2 MSTORE SWAP1 PUSH1 0x40 MSTORE DUP1 MLOAD SWAP1 PUSH1 0x20 ADD KECCAK256 EQ SWAP1 POP SWAP3 SWAP2 POP POP JUMP JUMPDEST PUSH1 0x0 DUP2 SWAP1 POP SWAP2 SWAP1 POP JUMP JUMPDEST PUSH2 0x1C8C DUP2 PUSH2 0x1C79 JUMP JUMPDEST DUP3 MSTORE POP POP JUMP JUMPDEST PUSH1 0x0 PUSH1 0x20 DUP3 ADD SWAP1 POP PUSH2 0x1CA7 PUSH1 0x0 DUP4 ADD DUP5 PUSH2 0x1C83 JUMP JUMPDEST SWAP3 SWAP2 POP POP JUMP JUMPDEST PUSH1 0x0 PUSH1 0x40 MLOAD SWAP1 POP SWAP1 JUMP JUMPDEST PUSH1 0x0 DUP1 REVERT JUMPDEST PUSH1 0x0 DUP1 REVERT JUMPDEST PUSH1 0x0 DUP1 REVERT JUMPDEST PUSH1 0x0 DUP1 REVERT JUMPDEST PUSH1 0x0 PUSH1 0x1F NOT PUSH1 0x1F DUP4 ADD AND SWAP1 POP SWAP2 SWAP1 POP JUMP JUMPDEST PUSH32 0x4E487B7100000000000000000000000000000000000000000000000000000000 PUSH1 0x0 MSTORE PUSH1 0x41 PUSH1 0x4 MSTORE PUSH1 0x24 PUSH1 0x0 REVERT JUMPDEST PUSH2 0x1D14 DUP3 PUSH2 0x1CCB JUMP JUMPDEST DUP2 ADD DUP2 DUP2 LT PUSH8 0xFFFFFFFFFFFFFFFF DUP3 GT OR ISZERO PUSH2 0x1D33 JUMPI PUSH2 0x1D32 PUSH2 0x1CDC JUMP JUMPDEST JUMPDEST DUP1 PUSH1 0x40 MSTORE POP POP POP JUMP JUMPDEST PUSH1 0x0 PUSH2 0x1D46 PUSH2 0x1CAD JUMP JUMPDEST SWAP1 POP PUSH2 0x1D52 DUP3 DUP3 PUSH2 0x1D0B JUMP JUMPDEST SWAP2 SWAP1 POP JUMP JUMPDEST PUSH1 0x0 PUSH8 0xFFFFFFFFFFFFFFFF DUP3 GT ISZERO PUSH2 0x1D72 JUMPI PUSH2 0x1D71 PUSH2 0x1CDC JUMP JUMPDEST JUMPDEST PUSH2 0x1D7B DUP3 PUSH2 0x1CCB JUMP JUMPDEST SWAP1 POP PUSH1 0x20 DUP2 ADD SWAP1 POP SWAP2 SWAP1 POP JUMP JUMPDEST DUP3 DUP2 DUP4 CALLDATACOPY PUSH1 0x0 DUP4 DUP4 ADD MSTORE POP POP POP JUMP JUMPDEST PUSH1 0x0 PUSH2 0x1DAA PUSH2 0x1DA5 DUP5 PUSH2 0x1D57 JUMP JUMPDEST PUSH2 0x1D3C JUMP JUMPDEST SWAP1 POP DUP3 DUP2 MSTORE PUSH1 0x20 DUP2 ADD DUP5 DUP5 DUP5 ADD GT ISZERO PUSH2 0x1DC6 JUMPI PUSH2 0x1DC5 PUSH2 0x1CC6 JUMP JUMPDEST JUMPDEST PUSH2 0x1DD1 DUP5 DUP3 DUP6 PUSH2 0x1D88 JUMP JUMPDEST POP SWAP4 SWAP3 POP POP POP JUMP JUMPDEST PUSH1 0x0 DUP3 PUSH1 0x1F DUP4 ADD SLT PUSH2 0x1DEE JUMPI PUSH2 0x1DED PUSH2 0x1CC1 JUMP JUMPDEST JUMPDEST DUP2 CALLDATALOAD PUSH2 0x1DFE DUP5 DUP3 PUSH1 0x20 DUP7 ADD PUSH2 0x1D97 JUMP JUMPDEST SWAP2 POP POP SWAP3 SWAP2 POP POP JUMP JUMPDEST PUSH1 0x0 PUSH1 0x20 DUP3 DUP5 SUB SLT ISZERO PUSH2 0x1E1D JUMPI PUSH2 0x1E1C PUSH2 0x1CB7 JUMP JUMPDEST JUMPDEST PUSH1 0x0 DUP3 ADD CALLDATALOAD PUSH8 0xFFFFFFFFFFFFFFFF DUP2 GT ISZERO PUSH2 0x1E3B JUMPI PUSH2 0x1E3A PUSH2 0x1CBC JUMP JUMPDEST JUMPDEST PUSH2 0x1E47 DUP5 DUP3 DUP6 ADD PUSH2 0x1DD9 JUMP JUMPDEST SWAP2 POP POP SWAP3 SWAP2 POP POP JUMP JUMPDEST PUSH1 0x0 DUP2 MLOAD SWAP1 POP SWAP2 SWAP1 POP JUMP JUMPDEST PUSH1 0x0 DUP3 DUP3 MSTORE PUSH1 0x20 DUP3 ADD SWAP1 POP SWAP3 SWAP2 POP POP JUMP JUMPDEST PUSH1 0x0 JUMPDEST DUP4 DUP2 LT ISZERO PUSH2 0x1E8A JUMPI DUP1 DUP3 ADD MLOAD DUP2 DUP5 ADD MSTORE PUSH1 0x20 DUP2 ADD SWAP1 POP PUSH2 0x1E6F JUMP JUMPDEST PUSH1 0x0 DUP5 DUP5 ADD MSTORE POP POP POP POP JUMP JUMPDEST PUSH1 0x0 PUSH2 0x1EA1 DUP3 PUSH2 0x1E50 JUMP JUMPDEST PUSH2 0x1EAB DUP2 DUP6 PUSH2 0x1E5B JUMP JUMPDEST SWAP4 POP PUSH2 0x1EBB DUP2 DUP6 PUSH1 0x20 DUP7 ADD PUSH2 0x1E6C JUMP JUMPDEST PUSH2 0x1EC4 DUP2 PUSH2 0x1CCB JUMP JUMPDEST DUP5 ADD SWAP2 POP POP SWAP3 SWAP2 POP POP JUMP JUMPDEST PUSH1 0x0 PUSH20 0xFFFFFFFFFFFFFFFFFFFFFFFFFFFFFFFFFFFFFFFF DUP3 AND SWAP1 POP SWAP2 SWAP1 POP JUMP JUMPDEST PUSH1 0x0 PUSH2 0x1EFA DUP3 PUSH2 0x1ECF JUMP JUMPDEST SWAP1 POP SWAP2 SWAP1 POP JUMP JUMPDEST PUSH2 0x1F0A DUP2 PUSH2 0x1EEF JUMP JUMPDEST DUP3 MSTORE POP POP JUMP JUMPDEST PUSH1 0x0 DUP3 DUP3 MSTORE PUSH1 0x20 DUP3 ADD SWAP1 POP SWAP3 SWAP2 POP POP JUMP JUMPDEST PUSH1 0x0 PUSH2 0x1F2C DUP3 PUSH2 0x1E50 JUMP JUMPDEST PUSH2 0x1F36 DUP2 DUP6 PUSH2 0x1F10 JUMP JUMPDEST SWAP4 POP PUSH2 0x1F46 DUP2 DUP6 PUSH1 0x20 DUP7 ADD PUSH2 0x1E6C JUMP JUMPDEST PUSH2 0x1F4F DUP2 PUSH2 0x1CCB JUMP JUMPDEST DUP5 ADD SWAP2 POP POP SWAP3 SWAP2 POP POP JUMP JUMPDEST PUSH32 0x4E487B7100000000000000000000000000000000000000000000000000000000 PUSH1 0x0 MSTORE PUSH1 0x21 PUSH1 0x4 MSTORE PUSH1 0x24 PUSH1 0x0 REVERT JUMPDEST PUSH1 0x5 DUP2 LT PUSH2 0x1F9A JUMPI PUSH2 0x1F99 PUSH2 0x1F5A JUMP JUMPDEST JUMPDEST POP JUMP JUMPDEST PUSH1 0x0 DUP2 SWAP1 POP PUSH2 0x1FAB DUP3 PUSH2 0x1F89 JUMP JUMPDEST SWAP2 SWAP1 POP JUMP JUMPDEST PUSH1 0x0 PUSH2 0x1FBB DUP3 PUSH2 0x1F9D JUMP JUMPDEST SWAP1 POP SWAP2 SWAP1 POP JUMP JUMPDEST PUSH2 0x1FCB DUP2 PUSH2 0x1FB0 JUMP JUMPDEST DUP3 MSTORE POP POP JUMP JUMPDEST PUSH1 0x0 PUSH1 0xC0 DUP4 ADD PUSH1 0x0 DUP4 ADD MLOAD DUP5 DUP3 SUB PUSH1 0x0 DUP7 ADD MSTORE PUSH2 0x1FEE DUP3 DUP3 PUSH2 0x1F21 JUMP JUMPDEST SWAP2 POP POP PUSH1 0x20 DUP4 ADD MLOAD DUP5 DUP3 SUB PUSH1 0x20 DUP7 ADD MSTORE PUSH2 0x2008 DUP3 DUP3 PUSH2 0x1F21 JUMP JUMPDEST SWAP2 POP POP PUSH1 0x40 DUP4 ADD MLOAD PUSH2 0x201D PUSH1 0x40 DUP7 ADD DUP3 PUSH2 0x1FC2 JUMP JUMPDEST POP PUSH1 0x60 DUP4 ADD MLOAD PUSH2 0x2030 PUSH1 0x60 DUP7 ADD DUP3 PUSH2 0x1FC2 JUMP JUMPDEST POP PUSH1 0x80 DUP4 ADD MLOAD PUSH2 0x2043 PUSH1 0x80 DUP7 ADD DUP3 PUSH2 0x1FC2 JUMP JUMPDEST POP PUSH1 0xA0 DUP4 ADD MLOAD PUSH2 0x2056 PUSH1 0xA0 DUP7 ADD DUP3 PUSH2 0x1FC2 JUMP JUMPDEST POP DUP1 SWAP2 POP POP SWAP3 SWAP2 POP POP JUMP JUMPDEST PUSH1 0x0 DUP2 ISZERO ISZERO SWAP1 POP SWAP2 SWAP1 POP JUMP JUMPDEST PUSH2 0x2076 DUP2 PUSH2 0x2061 JUMP JUMPDEST DUP3 MSTORE POP POP JUMP JUMPDEST PUSH1 0x0 PUSH2 0x180 DUP3 ADD SWAP1 POP DUP2 DUP2 SUB PUSH1 0x0 DUP4 ADD MSTORE PUSH2 0x2097 DUP2 DUP16 PUSH2 0x1E96 JUMP JUMPDEST SWAP1 POP PUSH2 0x20A6 PUSH1 0x20 DUP4 ADD DUP15 PUSH2 0x1C83 JUMP JUMPDEST PUSH2 0x20B3 PUSH1 0x40 DUP4 ADD DUP14 PUSH2 0x1C83 JUMP JUMPDEST PUSH2 0x20C0 PUSH1 0x60 DUP4 ADD DUP13 PUSH2 0x1C83 JUMP JUMPDEST PUSH2 0x20CD PUSH1 0x80 DUP4 ADD DUP12 PUSH2 0x1F01 JUMP JUMPDEST PUSH2 0x20DA PUSH1 0xA0 DUP4 ADD DUP11 PUSH2 0x1C83 JUMP JUMPDEST PUSH2 0x20E7 PUSH1 0xC0 DUP4 ADD DUP10 PUSH2 0x1C83 JUMP JUMPDEST PUSH2 0x20F4 PUSH1 0xE0 DUP4 ADD DUP9 PUSH2 0x1F01 JUMP JUMPDEST DUP2 DUP2 SUB PUSH2 0x100 DUP4 ADD MSTORE PUSH2 0x2107 DUP2 DUP8 PUSH2 0x1FD1 JUMP JUMPDEST SWAP1 POP DUP2 DUP2 SUB PUSH2 0x120 DUP4 ADD MSTORE PUSH2 0x211C DUP2 DUP7 PUSH2 0x1E96 JUMP JUMPDEST SWAP1 POP PUSH2 0x212C PUSH2 0x140 DUP4 ADD DUP6 PUSH2 0x206D JUMP JUMPDEST DUP2 DUP2 SUB PUSH2 0x160 DUP4 ADD MSTORE PUSH2 0x213F DUP2 DUP5 PUSH2 0x1E96 JUMP JUMPDEST SWAP1 POP SWAP14 SWAP13 POP POP POP POP POP POP POP POP POP POP POP POP POP JUMP JUMPDEST PUSH1 0x0 PUSH1 0x20 DUP3 ADD SWAP1 POP PUSH2 0x2167 PUSH1 0x0 DUP4 ADD DUP5 PUSH2 0x1F01 JUMP JUMPDEST SWAP3 SWAP2 POP POP JUMP JUMPDEST PUSH1 0x0 PUSH8 0xFFFFFFFFFFFFFFFF DUP3 GT ISZERO PUSH2 0x2188 JUMPI PUSH2 0x2187 PUSH2 0x1CDC JUMP JUMPDEST JUMPDEST PUSH1 0x20 DUP3 MUL SWAP1 POP PUSH1 0x20 DUP2 ADD SWAP1 POP SWAP2 SWAP1 POP JUMP JUMPDEST PUSH1 0x0 DUP1 REVERT JUMPDEST PUSH2 0x21A7 DUP2 PUSH2 0x1EEF JUMP JUMPDEST DUP2 EQ PUSH2 0x21B2 JUMPI PUSH1 0x0 DUP1 REVERT JUMPDEST POP JUMP JUMPDEST PUSH1 0x0 DUP2 CALLDATALOAD SWAP1 POP PUSH2 0x21C4 DUP2 PUSH2 0x219E JUMP JUMPDEST SWAP3 SWAP2 POP POP JUMP JUMPDEST PUSH1 0x0 PUSH2 0x21DD PUSH2 0x21D8 DUP5 PUSH2 0x216D JUMP JUMPDEST PUSH2 0x1D3C JUMP JUMPDEST SWAP1 POP DUP1 DUP4 DUP3 MSTORE PUSH1 0x20 DUP3 ADD SWAP1 POP PUSH1 0x20 DUP5 MUL DUP4 ADD DUP6 DUP2 GT ISZERO PUSH2 0x2200 JUMPI PUSH2 0x21FF PUSH2 0x2199 JUMP JUMPDEST JUMPDEST DUP4 JUMPDEST DUP2 DUP2 LT ISZERO PUSH2 0x2229 JUMPI DUP1 PUSH2 0x2215 DUP9 DUP3 PUSH2 0x21B5 JUMP JUMPDEST DUP5 MSTORE PUSH1 0x20 DUP5 ADD SWAP4 POP POP PUSH1 0x20 DUP2 ADD SWAP1 POP PUSH2 0x2202 JUMP JUMPDEST POP POP POP SWAP4 SWAP3 POP POP POP JUMP JUMPDEST PUSH1 0x0 DUP3 PUSH1 0x1F DUP4 ADD SLT PUSH2 0x2248 JUMPI PUSH2 0x2247 PUSH2 0x1CC1 JUMP JUMPDEST JUMPDEST DUP2 CALLDATALOAD PUSH2 0x2258 DUP5 DUP3 PUSH1 0x20 DUP7 ADD PUSH2 0x21CA JUMP JUMPDEST SWAP2 POP POP SWAP3 SWAP2 POP POP JUMP JUMPDEST PUSH2 0x226A DUP2 PUSH2 0x1C79 JUMP JUMPDEST DUP2 EQ PUSH2 0x2275 JUMPI PUSH1 0x0 DUP1 REVERT JUMPDEST POP JUMP JUMPDEST PUSH1 0x0 DUP2 CALLDATALOAD SWAP1 POP PUSH2 0x2287 DUP2 PUSH2 0x2261 JUMP JUMPDEST SWAP3 SWAP2 POP POP JUMP JUMPDEST PUSH1 0x0 DUP1 PUSH1 0x0 DUP1 PUSH1 0x80 DUP6 DUP8 SUB SLT ISZERO PUSH2 0x22A7 JUMPI PUSH2 0x22A6 PUSH2 0x1CB7 JUMP JUMPDEST JUMPDEST PUSH1 0x0 DUP6 ADD CALLDATALOAD PUSH8 0xFFFFFFFFFFFFFFFF DUP2 GT ISZERO PUSH2 0x22C5 JUMPI PUSH2 0x22C4 PUSH2 0x1CBC JUMP JUMPDEST JUMPDEST PUSH2 0x22D1 DUP8 DUP3 DUP9 ADD PUSH2 0x2233 JUMP JUMPDEST SWAP5 POP POP PUSH1 0x20 PUSH2 0x22E2 DUP8 DUP3 DUP9 ADD PUSH2 0x2278 JUMP JUMPDEST SWAP4 POP POP PUSH1 0x40 DUP6 ADD CALLDATALOAD PUSH8 0xFFFFFFFFFFFFFFFF DUP2 GT ISZERO PUSH2 0x2303 JUMPI PUSH2 0x2302 PUSH2 0x1CBC JUMP JUMPDEST JUMPDEST PUSH2 0x230F DUP8 DUP3 DUP9 ADD PUSH2 0x1DD9 JUMP JUMPDEST SWAP3 POP POP PUSH1 0x60 DUP6 ADD CALLDATALOAD PUSH8 0xFFFFFFFFFFFFFFFF DUP2 GT ISZERO PUSH2 0x2330 JUMPI PUSH2 0x232F PUSH2 0x1CBC JUMP JUMPDEST JUMPDEST PUSH2 0x233C DUP8 DUP3 DUP9 ADD PUSH2 0x1DD9 JUMP JUMPDEST SWAP2 POP POP SWAP3 SWAP6 SWAP2 SWAP5 POP SWAP3 POP JUMP JUMPDEST PUSH1 0x0 PUSH8 0xFFFFFFFFFFFFFFFF DUP3 GT ISZERO PUSH2 0x2363 JUMPI PUSH2 0x2362 PUSH2 0x1CDC JUMP JUMPDEST JUMPDEST PUSH1 0x20 DUP3 MUL SWAP1 POP SWAP2 SWAP1 POP JUMP JUMPDEST PUSH1 0x0 PUSH2 0x2381 PUSH2 0x237C DUP5 PUSH2 0x2348 JUMP JUMPDEST PUSH2 0x1D3C JUMP JUMPDEST SWAP1 POP DUP1 PUSH1 0x20 DUP5 MUL DUP4 ADD DUP6 DUP2 GT ISZERO PUSH2 0x239B JUMPI PUSH2 0x239A PUSH2 0x2199 JUMP JUMPDEST JUMPDEST DUP4 JUMPDEST DUP2 DUP2 LT ISZERO PUSH2 0x23C4 JUMPI DUP1 PUSH2 0x23B0 DUP9 DUP3 PUSH2 0x2278 JUMP JUMPDEST DUP5 MSTORE PUSH1 0x20 DUP5 ADD SWAP4 POP POP PUSH1 0x20 DUP2 ADD SWAP1 POP PUSH2 0x239D JUMP JUMPDEST POP POP POP SWAP4 SWAP3 POP POP POP JUMP JUMPDEST PUSH1 0x0 DUP3 PUSH1 0x1F DUP4 ADD SLT PUSH2 0x23E3 JUMPI PUSH2 0x23E2 PUSH2 0x1CC1 JUMP JUMPDEST JUMPDEST PUSH1 0x4 PUSH2 0x23F0 DUP5 DUP3 DUP6 PUSH2 0x236E JUMP JUMPDEST SWAP2 POP POP SWAP3 SWAP2 POP POP JUMP JUMPDEST PUSH1 0x0 DUP1 PUSH1 0x0 DUP1 PUSH1 0xE0 DUP6 DUP8 SUB SLT ISZERO PUSH2 0x2413 JUMPI PUSH2 0x2412 PUSH2 0x1CB7 JUMP JUMPDEST JUMPDEST PUSH1 0x0 DUP6 ADD CALLDATALOAD PUSH8 0xFFFFFFFFFFFFFFFF DUP2 GT ISZERO PUSH2 0x2431 JUMPI PUSH2 0x2430 PUSH2 0x1CBC JUMP JUMPDEST JUMPDEST PUSH2 0x243D DUP8 DUP3 DUP9 ADD PUSH2 0x1DD9 JUMP JUMPDEST SWAP5 POP POP PUSH1 0x20 DUP6 ADD CALLDATALOAD PUSH8 0xFFFFFFFFFFFFFFFF DUP2 GT ISZERO PUSH2 0x245E JUMPI PUSH2 0x245D PUSH2 0x1CBC JUMP JUMPDEST JUMPDEST PUSH2 0x246A DUP8 DUP3 DUP9 ADD PUSH2 0x1DD9 JUMP JUMPDEST SWAP4 POP POP PUSH1 0x40 DUP6 ADD CALLDATALOAD PUSH8 0xFFFFFFFFFFFFFFFF DUP2 GT ISZERO PUSH2 0x248B JUMPI PUSH2 0x248A PUSH2 0x1CBC JUMP JUMPDEST JUMPDEST PUSH2 0x2497 DUP8 DUP3 DUP9 ADD PUSH2 0x1DD9 JUMP JUMPDEST SWAP3 POP POP PUSH1 0x60 PUSH2 0x24A8 DUP8 DUP3 DUP9 ADD PUSH2 0x23CE JUMP JUMPDEST SWAP2 POP POP SWAP3 SWAP6 SWAP2 SWAP5 POP SWAP3 POP JUMP JUMPDEST PUSH1 0x0 PUSH1 0x20 DUP3 DUP5 SUB SLT ISZERO PUSH2 0x24CA JUMPI PUSH2 0x24C9 PUSH2 0x1CB7 JUMP JUMPDEST JUMPDEST PUSH1 0x0 PUSH2 0x24D8 DUP5 DUP3 DUP6 ADD PUSH2 0x2278 JUMP JUMPDEST SWAP2 POP POP SWAP3 SWAP2 POP POP JUMP JUMPDEST PUSH1 0x0 PUSH1 0x80 DUP3 ADD SWAP1 POP PUSH2 0x24F6 PUSH1 0x0 DUP4 ADD DUP8 PUSH2 0x1F01 JUMP JUMPDEST PUSH2 0x2503 PUSH1 0x20 DUP4 ADD DUP7 PUSH2 0x1C83 JUMP JUMPDEST DUP2 DUP2 SUB PUSH1 0x40 DUP4 ADD MSTORE PUSH2 0x2515 DUP2 DUP6 PUSH2 0x1E96 JUMP JUMPDEST SWAP1 POP DUP2 DUP2 SUB PUSH1 0x60 DUP4 ADD MSTORE PUSH2 0x2529 DUP2 DUP5 PUSH2 0x1E96 JUMP JUMPDEST SWAP1 POP SWAP6 SWAP5 POP POP POP POP POP JUMP JUMPDEST PUSH1 0x0 DUP1 PUSH1 0x0 PUSH1 0x60 DUP5 DUP7 SUB SLT ISZERO PUSH2 0x254D JUMPI PUSH2 0x254C PUSH2 0x1CB7 JUMP JUMPDEST JUMPDEST PUSH1 0x0 DUP5 ADD CALLDATALOAD PUSH8 0xFFFFFFFFFFFFFFFF DUP2 GT ISZERO PUSH2 0x256B JUMPI PUSH2 0x256A PUSH2 0x1CBC JUMP JUMPDEST JUMPDEST PUSH2 0x2577 DUP7 DUP3 DUP8 ADD PUSH2 0x1DD9 JUMP JUMPDEST SWAP4 POP POP PUSH1 0x20 DUP5 ADD CALLDATALOAD PUSH8 0xFFFFFFFFFFFFFFFF DUP2 GT ISZERO PUSH2 0x2598 JUMPI PUSH2 0x2597 PUSH2 0x1CBC JUMP JUMPDEST JUMPDEST PUSH2 0x25A4 DUP7 DUP3 DUP8 ADD PUSH2 0x1DD9 JUMP JUMPDEST SWAP3 POP POP PUSH1 0x40 DUP5 ADD CALLDATALOAD PUSH8 0xFFFFFFFFFFFFFFFF DUP2 GT ISZERO PUSH2 0x25C5 JUMPI PUSH2 0x25C4 PUSH2 0x1CBC JUMP JUMPDEST JUMPDEST PUSH2 0x25D1 DUP7 DUP3 DUP8 ADD PUSH2 0x1DD9 JUMP JUMPDEST SWAP2 POP POP SWAP3 POP SWAP3 POP SWAP3 JUMP JUMPDEST PUSH1 0x0 PUSH1 0x20 DUP3 ADD SWAP1 POP PUSH2 0x25F0 PUSH1 0x0 DUP4 ADD DUP5 PUSH2 0x206D JUMP JUMPDEST SWAP3 SWAP2 POP POP JUMP JUMPDEST PUSH1 0x0 DUP1 PUSH1 0x0 DUP1 PUSH1 0x0 DUP1 PUSH1 0xC0 DUP8 DUP10 SUB SLT ISZERO PUSH2 0x2613 JUMPI PUSH2 0x2612 PUSH2 0x1CB7 JUMP JUMPDEST JUMPDEST PUSH1 0x0 DUP8 ADD CALLDATALOAD PUSH8 0xFFFFFFFFFFFFFFFF DUP2 GT ISZERO PUSH2 0x2631 JUMPI PUSH2 0x2630 PUSH2 0x1CBC JUMP JUMPDEST JUMPDEST PUSH2 0x263D DUP10 DUP3 DUP11 ADD PUSH2 0x1DD9 JUMP JUMPDEST SWAP7 POP POP PUSH1 0x20 PUSH2 0x264E DUP10 DUP3 DUP11 ADD PUSH2 0x2278 JUMP JUMPDEST SWAP6 POP POP PUSH1 0x40 PUSH2 0x265F DUP10 DUP3 DUP11 ADD PUSH2 0x2278 JUMP JUMPDEST SWAP5 POP POP PUSH1 0x60 PUSH2 0x2670 DUP10 DUP3 DUP11 ADD PUSH2 0x2278 JUMP JUMPDEST SWAP4 POP POP PUSH1 0x80 PUSH2 0x2681 DUP10 DUP3 DUP11 ADD PUSH2 0x2278 JUMP JUMPDEST SWAP3 POP POP PUSH1 0xA0 PUSH2 0x2692 DUP10 DUP3 DUP11 ADD PUSH2 0x2278 JUMP JUMPDEST SWAP2 POP POP SWAP3 SWAP6 POP SWAP3 SWAP6 POP SWAP3 SWAP6 JUMP JUMPDEST PUSH1 0x0 DUP1 PUSH1 0x40 DUP4 DUP6 SUB SLT ISZERO PUSH2 0x26B6 JUMPI PUSH2 0x26B5 PUSH2 0x1CB7 JUMP JUMPDEST JUMPDEST PUSH1 0x0 PUSH2 0x26C4 DUP6 DUP3 DUP7 ADD PUSH2 0x21B5 JUMP JUMPDEST SWAP3 POP POP PUSH1 0x20 DUP4 ADD CALLDATALOAD PUSH8 0xFFFFFFFFFFFFFFFF DUP2 GT ISZERO PUSH2 0x26E5 JUMPI PUSH2 0x26E4 PUSH2 0x1CBC JUMP JUMPDEST JUMPDEST PUSH2 0x26F1 DUP6 DUP3 DUP7 ADD PUSH2 0x1DD9 JUMP JUMPDEST SWAP2 POP POP SWAP3 POP SWAP3 SWAP1 POP JUMP JUMPDEST PUSH1 0x0 PUSH1 0x20 DUP3 ADD SWAP1 POP DUP2 DUP2 SUB PUSH1 0x0 DUP4 ADD MSTORE PUSH2 0x2715 DUP2 DUP5 PUSH2 0x1E96 JUMP JUMPDEST SWAP1 POP SWAP3 SWAP2 POP POP JUMP JUMPDEST PUSH32 0x4E487B7100000000000000000000000000000000000000000000000000000000 PUSH1 0x0 MSTORE PUSH1 0x22 PUSH1 0x4 MSTORE PUSH1 0x24 PUSH1 0x0 REVERT JUMPDEST PUSH1 0x0 PUSH1 0x2 DUP3 DIV SWAP1 POP PUSH1 0x1 DUP3 AND DUP1 PUSH2 0x2764 JUMPI PUSH1 0x7F DUP3 AND SWAP2 POP JUMPDEST PUSH1 0x20 DUP3 LT DUP2 SUB PUSH2 0x2777 JUMPI PUSH2 0x2776 PUSH2 0x271D JUMP JUMPDEST JUMPDEST POP SWAP2 SWAP1 POP JUMP JUMPDEST PUSH32 0x4E487B7100000000000000000000000000000000000000000000000000000000 PUSH1 0x0 MSTORE PUSH1 0x32 PUSH1 0x4 MSTORE PUSH1 0x24 PUSH1 0x0 REVERT JUMPDEST PUSH1 0x0 DUP2 SWAP1 POP DUP2 PUSH1 0x0 MSTORE PUSH1 0x20 PUSH1 0x0 KECCAK256 SWAP1 POP SWAP2 SWAP1 POP JUMP JUMPDEST PUSH1 0x0 PUSH1 0x20 PUSH1 0x1F DUP4 ADD DIV SWAP1 POP SWAP2 SWAP1 POP JUMP JUMPDEST PUSH1 0x0 DUP3 DUP3 SHL SWAP1 POP SWAP3 SWAP2 POP POP JUMP JUMPDEST PUSH1 0x0 PUSH1 0x8 DUP4 MUL PUSH2 0x280E PUSH32 0xFFFFFFFFFFFFFFFFFFFFFFFFFFFFFFFFFFFFFFFFFFFFFFFFFFFFFFFFFFFFFFFF DUP3 PUSH2 0x27D1 JUMP JUMPDEST PUSH2 0x2818 DUP7 DUP4 PUSH2 0x27D1 JUMP JUMPDEST SWAP6 POP DUP1 NOT DUP5 AND SWAP4 POP DUP1 DUP7 AND DUP5 OR SWAP3 POP POP POP SWAP4 SWAP3 POP POP POP JUMP JUMPDEST PUSH1 0x0 DUP2 SWAP1 POP SWAP2 SWAP1 POP JUMP JUMPDEST PUSH1 0x0 PUSH2 0x2855 PUSH2 0x2850 PUSH2 0x284B DUP5 PUSH2 0x1C79 JUMP JUMPDEST PUSH2 0x2830 JUMP JUMPDEST PUSH2 0x1C79 JUMP JUMPDEST SWAP1 POP SWAP2 SWAP1 POP JUMP JUMPDEST PUSH1 0x0 DUP2 SWAP1 POP SWAP2 SWAP1 POP JUMP JUMPDEST PUSH2 0x286F DUP4 PUSH2 0x283A JUMP JUMPDEST PUSH2 0x2883 PUSH2 0x287B DUP3 PUSH2 0x285C JUMP JUMPDEST DUP5 DUP5 SLOAD PUSH2 0x27DE JUMP JUMPDEST DUP3 SSTORE POP POP POP POP JUMP JUMPDEST PUSH1 0x0 SWAP1 JUMP JUMPDEST PUSH2 0x2898 PUSH2 0x288B JUMP JUMPDEST PUSH2 0x28A3 DUP2 DUP5 DUP5 PUSH2 0x2866 JUMP JUMPDEST POP POP POP JUMP JUMPDEST JUMPDEST DUP2 DUP2 LT ISZERO PUSH2 0x28C7 JUMPI PUSH2 0x28BC PUSH1 0x0 DUP3 PUSH2 0x2890 JUMP JUMPDEST PUSH1 0x1 DUP2 ADD SWAP1 POP PUSH2 0x28A9 JUMP JUMPDEST POP POP JUMP JUMPDEST PUSH1 0x1F DUP3 GT ISZERO PUSH2 0x290C JUMPI PUSH2 0x28DD DUP2 PUSH2 0x27AC JUMP JUMPDEST PUSH2 0x28E6 DUP5 PUSH2 0x27C1 JUMP JUMPDEST DUP2 ADD PUSH1 0x20 DUP6 LT ISZERO PUSH2 0x28F5 JUMPI DUP2 SWAP1 POP JUMPDEST PUSH2 0x2909 PUSH2 0x2901 DUP6 PUSH2 0x27C1 JUMP JUMPDEST DUP4 ADD DUP3 PUSH2 0x28A8 JUMP JUMPDEST POP POP JUMPDEST POP POP POP JUMP JUMPDEST PUSH1 0x0 DUP3 DUP3 SHR SWAP1 POP SWAP3 SWAP2 POP POP JUMP JUMPDEST PUSH1 0x0 PUSH2 0x292F PUSH1 0x0 NOT DUP5 PUSH1 0x8 MUL PUSH2 0x2911 JUMP JUMPDEST NOT DUP1 DUP4 AND SWAP2 POP POP SWAP3 SWAP2 POP POP JUMP JUMPDEST PUSH1 0x0 PUSH2 0x2948 DUP4 DUP4 PUSH2 0x291E JUMP JUMPDEST SWAP2 POP DUP3 PUSH1 0x2 MUL DUP3 OR SWAP1 POP SWAP3 SWAP2 POP POP JUMP JUMPDEST PUSH2 0x2961 DUP3 PUSH2 0x1E50 JUMP JUMPDEST PUSH8 0xFFFFFFFFFFFFFFFF DUP2 GT ISZERO PUSH2 0x297A JUMPI PUSH2 0x2979 PUSH2 0x1CDC JUMP JUMPDEST JUMPDEST PUSH2 0x2984 DUP3 SLOAD PUSH2 0x274C JUMP JUMPDEST PUSH2 0x298F DUP3 DUP3 DUP6 PUSH2 0x28CB JUMP JUMPDEST PUSH1 0x0 PUSH1 0x20 SWAP1 POP PUSH1 0x1F DUP4 GT PUSH1 0x1 DUP2 EQ PUSH2 0x29C2 JUMPI PUSH1 0x0 DUP5 ISZERO PUSH2 0x29B0 JUMPI DUP3 DUP8 ADD MLOAD SWAP1 POP JUMPDEST PUSH2 0x29BA DUP6 DUP3 PUSH2 0x293C JUMP JUMPDEST DUP7 SSTORE POP PUSH2 0x2A22 JUMP JUMPDEST PUSH1 0x1F NOT DUP5 AND PUSH2 0x29D0 DUP7 PUSH2 0x27AC JUMP JUMPDEST PUSH1 0x0 JUMPDEST DUP3 DUP2 LT ISZERO PUSH2 0x29F8 JUMPI DUP5 DUP10 ADD MLOAD DUP3 SSTORE PUSH1 0x1 DUP3 ADD SWAP2 POP PUSH1 0x20 DUP6 ADD SWAP5 POP PUSH1 0x20 DUP2 ADD SWAP1 POP PUSH2 0x29D3 JUMP JUMPDEST DUP7 DUP4 LT ISZERO PUSH2 0x2A15 JUMPI DUP5 DUP10 ADD MLOAD PUSH2 0x2A11 PUSH1 0x1F DUP10 AND DUP3 PUSH2 0x291E JUMP JUMPDEST DUP4 SSTORE POP JUMPDEST PUSH1 0x1 PUSH1 0x2 DUP9 MUL ADD DUP9 SSTORE POP POP POP JUMPDEST POP POP POP POP POP POP JUMP JUMPDEST PUSH32 0x4E487B7100000000000000000000000000000000000000000000000000000000 PUSH1 0x0 MSTORE PUSH1 0x11 PUSH1 0x4 MSTORE PUSH1 0x24 PUSH1 0x0 REVERT JUMPDEST PUSH1 0x0 PUSH2 0x2A64 DUP3 PUSH2 0x1C79 JUMP JUMPDEST SWAP2 POP PUSH1 0x0 DUP3 SUB PUSH2 0x2A77 JUMPI PUSH2 0x2A76 PUSH2 0x2A2A JUMP JUMPDEST JUMPDEST PUSH1 0x1 DUP3 SUB SWAP1 POP SWAP2 SWAP1 POP JUMP JUMPDEST PUSH1 0x0 DUP2 SWAP1 POP SWAP3 SWAP2 POP POP JUMP JUMPDEST PUSH1 0x0 PUSH2 0x2A98 DUP3 PUSH2 0x1E50 JUMP JUMPDEST PUSH2 0x2AA2 DUP2 DUP6 PUSH2 0x2A82 JUMP JUMPDEST SWAP4 POP PUSH2 0x2AB2 DUP2 DUP6 PUSH1 0x20 DUP7 ADD PUSH2 0x1E6C JUMP JUMPDEST DUP1 DUP5 ADD SWAP2 POP POP SWAP3 SWAP2 POP POP JUMP JUMPDEST PUSH1 0x0 PUSH2 0x2ACA DUP3 DUP5 PUSH2 0x2A8D JUMP JUMPDEST SWAP2 POP DUP2 SWAP1 POP SWAP3 SWAP2 POP POP JUMP JUMPDEST PUSH1 0x0 PUSH2 0x2AE0 DUP3 PUSH2 0x1C79 JUMP JUMPDEST SWAP2 POP PUSH32 0xFFFFFFFFFFFFFFFFFFFFFFFFFFFFFFFFFFFFFFFFFFFFFFFFFFFFFFFFFFFFFFFF DUP3 SUB PUSH2 0x2B12 JUMPI PUSH2 0x2B11 PUSH2 0x2A2A JUMP JUMPDEST JUMPDEST PUSH1 0x1 DUP3 ADD SWAP1 POP SWAP2 SWAP1 POP JUMP INVALID PUSH5 0x757269616E KECCAK256 PUSH5 0x616D616765 PUSH5 0x20706C6561 PUSH20 0x652073656C65637420616E6F7468657220647572 PUSH10 0x616EA264697066735822 SLT KECCAK256 SELFBALANCE SWAP1 SELFBALANCE 0x4E 0xD9 SWAP3 0xC2 0xAD PUSH9 0x4EE15E42AB8730B475 0xCE CALLDATASIZE 0xF8 0xB8 SWAP10 EXTCODEHASH 0xD2 0xAE ADDMOD 0xEE JUMPI DUP14 DUP16 JUMP PUSH5 0x736F6C6343 STOP ADDMOD SLT STOP CALLER "
				},
				"gasEstimates": {
					"creation": {
						"codeDepositCost": "2226800",
						"executionCost": "infinite",
						"totalCost": "infinite"
					},
					"external": {
						"addDurian(string,uint256,uint256,uint256,uint256,uint256)": "infinite",
						"addStaff(address[],uint256,string,string)": "infinite",
						"deliverDurian(string,string,string)": "infinite",
						"durianCount()": "2430",
						"durians(string)": "infinite",
						"getDurianById(string)": "infinite",
						"getOwnerAdd()": "2566",
						"getTotalDurians()": "2482",
						"ownerFarm()": "2556",
						"receiveDurians(string,string,string)": "infinite",
						"review(string,string,string,uint256[4])": "infinite",
						"soldDurians(address,string)": "infinite",
						"staffs(uint256)": "infinite"
					},
					"internal": {
						"compare(string memory,string memory)": "infinite",
						"convertRatings(uint256)": "154"
					}
				},
				"methodIdentifiers": {
					"addDurian(string,uint256,uint256,uint256,uint256,uint256)": "d273e1c3",
					"addStaff(address[],uint256,string,string)": "45b2bd2f",
					"deliverDurian(string,string,string)": "ea3e7373",
					"durianCount()": "0fd60125",
					"durians(string)": "1dd51307",
					"getDurianById(string)": "5a375258",
					"getOwnerAdd()": "d66d2a57",
					"getTotalDurians()": "7fa9571f",
					"ownerFarm()": "2966b29b",
					"receiveDurians(string,string,string)": "cd3d46fc",
					"review(string,string,string,uint256[4])": "45c68090",
					"soldDurians(address,string)": "e8287d1a",
					"staffs(uint256)": "498d4707"
				}
			},
			"storageLayout": {
				"storage": [
					{
						"astId": 3,
						"contract": "DurianContract.sol:DurianContract",
						"label": "ownerFarm",
						"offset": 0,
						"slot": "0",
						"type": "t_address"
					},
					{
						"astId": 5,
						"contract": "DurianContract.sol:DurianContract",
						"label": "durianCount",
						"offset": 0,
						"slot": "1",
						"type": "t_uint256"
					},
					{
						"astId": 119,
						"contract": "DurianContract.sol:DurianContract",
						"label": "staffs",
						"offset": 0,
						"slot": "2",
						"type": "t_array(t_struct(Staff)115_storage)dyn_storage"
					},
					{
						"astId": 150,
						"contract": "DurianContract.sol:DurianContract",
						"label": "durians",
						"offset": 0,
						"slot": "3",
						"type": "t_mapping(t_string_memory_ptr,t_struct(Durian)145_storage)"
					},
					{
						"astId": 188,
						"contract": "DurianContract.sol:DurianContract",
						"label": "defaultDurian",
						"offset": 0,
						"slot": "4",
						"type": "t_struct(Reviews)173_storage"
					}
				],
				"types": {
					"t_address": {
						"encoding": "inplace",
						"label": "address",
						"numberOfBytes": "20"
					},
					"t_array(t_struct(Staff)115_storage)dyn_storage": {
						"base": "t_struct(Staff)115_storage",
						"encoding": "dynamic_array",
						"label": "struct DurianContract.Staff[]",
						"numberOfBytes": "32"
					},
					"t_bool": {
						"encoding": "inplace",
						"label": "bool",
						"numberOfBytes": "1"
					},
					"t_enum(RatingNo)156": {
						"encoding": "inplace",
						"label": "enum DurianContract.RatingNo",
						"numberOfBytes": "1"
					},
					"t_mapping(t_string_memory_ptr,t_struct(Durian)145_storage)": {
						"encoding": "mapping",
						"key": "t_string_memory_ptr",
						"label": "mapping(string => struct DurianContract.Durian)",
						"numberOfBytes": "32",
						"value": "t_struct(Durian)145_storage"
					},
					"t_string_memory_ptr": {
						"encoding": "bytes",
						"label": "string",
						"numberOfBytes": "32"
					},
					"t_string_storage": {
						"encoding": "bytes",
						"label": "string",
						"numberOfBytes": "32"
					},
					"t_struct(Durian)145_storage": {
						"encoding": "inplace",
						"label": "struct DurianContract.Durian",
						"members": [
							{
								"astId": 121,
								"contract": "DurianContract.sol:DurianContract",
								"label": "id",
								"offset": 0,
								"slot": "0",
								"type": "t_string_storage"
							},
							{
								"astId": 123,
								"contract": "DurianContract.sol:DurianContract",
								"label": "species",
								"offset": 0,
								"slot": "1",
								"type": "t_uint256"
							},
							{
								"astId": 125,
								"contract": "DurianContract.sol:DurianContract",
								"label": "weight",
								"offset": 0,
								"slot": "2",
								"type": "t_uint256"
							},
							{
								"astId": 127,
								"contract": "DurianContract.sol:DurianContract",
								"label": "harvested_date_time",
								"offset": 0,
								"slot": "3",
								"type": "t_uint256"
							},
							{
								"astId": 129,
								"contract": "DurianContract.sol:DurianContract",
								"label": "harvested_by",
								"offset": 0,
								"slot": "4",
								"type": "t_address"
							},
							{
								"astId": 131,
								"contract": "DurianContract.sol:DurianContract",
								"label": "harvest_tree",
								"offset": 0,
								"slot": "5",
								"type": "t_uint256"
							},
							{
								"astId": 133,
								"contract": "DurianContract.sol:DurianContract",
								"label": "harvest_farm",
								"offset": 0,
								"slot": "6",
								"type": "t_uint256"
							},
							{
								"astId": 135,
								"contract": "DurianContract.sol:DurianContract",
								"label": "owner",
								"offset": 0,
								"slot": "7",
								"type": "t_address"
							},
							{
								"astId": 138,
								"contract": "DurianContract.sol:DurianContract",
								"label": "reviews",
								"offset": 0,
								"slot": "8",
								"type": "t_struct(Reviews)173_storage"
							},
							{
								"astId": 140,
								"contract": "DurianContract.sol:DurianContract",
								"label": "location",
								"offset": 0,
								"slot": "11",
								"type": "t_string_storage"
							},
							{
								"astId": 142,
								"contract": "DurianContract.sol:DurianContract",
								"label": "onDelivery",
								"offset": 0,
								"slot": "12",
								"type": "t_bool"
							},
							{
								"astId": 144,
								"contract": "DurianContract.sol:DurianContract",
								"label": "status",
								"offset": 0,
								"slot": "13",
								"type": "t_string_storage"
							}
						],
						"numberOfBytes": "448"
					},
					"t_struct(Reviews)173_storage": {
						"encoding": "inplace",
						"label": "struct DurianContract.Reviews",
						"members": [
							{
								"astId": 158,
								"contract": "DurianContract.sol:DurianContract",
								"label": "personalRemarks",
								"offset": 0,
								"slot": "0",
								"type": "t_string_storage"
							},
							{
								"astId": 160,
								"contract": "DurianContract.sol:DurianContract",
								"label": "color",
								"offset": 0,
								"slot": "1",
								"type": "t_string_storage"
							},
							{
								"astId": 163,
								"contract": "DurianContract.sol:DurianContract",
								"label": "taste",
								"offset": 0,
								"slot": "2",
								"type": "t_enum(RatingNo)156"
							},
							{
								"astId": 166,
								"contract": "DurianContract.sol:DurianContract",
								"label": "fragrance",
								"offset": 1,
								"slot": "2",
								"type": "t_enum(RatingNo)156"
							},
							{
								"astId": 169,
								"contract": "DurianContract.sol:DurianContract",
								"label": "creaminess",
								"offset": 2,
								"slot": "2",
								"type": "t_enum(RatingNo)156"
							},
							{
								"astId": 172,
								"contract": "DurianContract.sol:DurianContract",
								"label": "overall_rating",
								"offset": 3,
								"slot": "2",
								"type": "t_enum(RatingNo)156"
							}
						],
						"numberOfBytes": "96"
					},
					"t_struct(Staff)115_storage": {
						"encoding": "inplace",
						"label": "struct DurianContract.Staff",
						"members": [
							{
								"astId": 108,
								"contract": "DurianContract.sol:DurianContract",
								"label": "staffAddress",
								"offset": 0,
								"slot": "0",
								"type": "t_address"
							},
							{
								"astId": 110,
								"contract": "DurianContract.sol:DurianContract",
								"label": "id",
								"offset": 0,
								"slot": "1",
								"type": "t_uint256"
							},
							{
								"astId": 112,
								"contract": "DurianContract.sol:DurianContract",
								"label": "name",
								"offset": 0,
								"slot": "2",
								"type": "t_string_storage"
							},
							{
								"astId": 114,
								"contract": "DurianContract.sol:DurianContract",
								"label": "title",
								"offset": 0,
								"slot": "3",
								"type": "t_string_storage"
							}
						],
						"numberOfBytes": "128"
					},
					"t_uint256": {
						"encoding": "inplace",
						"label": "uint256",
						"numberOfBytes": "32"
					}
				}
			},
			"userdoc": {
				"kind": "user",
				"methods": {},
				"version": 1
			}
		}
	}
}