{
	"DurianContract.sol": {
		"DurianContract": {
			"abi": [
				{
					"inputs": [],
					"stateMutability": "nonpayable",
					"type": "constructor"
				},
				{
					"inputs": [
						{
							"internalType": "string",
							"name": "",
							"type": "string"
						}
					],
					"name": "PricingList",
					"outputs": [
						{
							"internalType": "string",
							"name": "speciesName",
							"type": "string"
						},
						{
							"internalType": "uint256",
							"name": "pricePerKG",
							"type": "uint256"
						}
					],
					"stateMutability": "view",
					"type": "function"
				},
				{
					"inputs": [
						{
							"internalType": "string",
							"name": "id",
							"type": "string"
						},
						{
							"internalType": "string",
							"name": "species",
							"type": "string"
						},
						{
							"internalType": "uint256",
							"name": "weight",
							"type": "uint256"
						},
						{
							"internalType": "uint256",
							"name": "harvested_date_time",
							"type": "uint256"
						},
						{
							"internalType": "uint256",
							"name": "harvest_tree",
							"type": "uint256"
						},
						{
							"internalType": "uint256",
							"name": "harvest_farm",
							"type": "uint256"
						}
					],
					"name": "addDurian",
					"outputs": [],
					"stateMutability": "nonpayable",
					"type": "function"
				},
				{
					"inputs": [
						{
							"internalType": "string",
							"name": "name",
							"type": "string"
						},
						{
							"internalType": "uint256",
							"name": "price",
							"type": "uint256"
						}
					],
					"name": "addPrice",
					"outputs": [],
					"stateMutability": "nonpayable",
					"type": "function"
				},
				{
					"inputs": [
						{
							"internalType": "address",
							"name": "newstaffs",
							"type": "address"
						},
						{
							"internalType": "uint256",
							"name": "id",
							"type": "uint256"
						},
						{
							"internalType": "string",
							"name": "name",
							"type": "string"
						},
						{
							"internalType": "string",
							"name": "title",
							"type": "string"
						}
					],
					"name": "addStaff",
					"outputs": [],
					"stateMutability": "nonpayable",
					"type": "function"
				},
				{
					"inputs": [
						{
							"internalType": "address",
							"name": "buyer",
							"type": "address"
						},
						{
							"internalType": "string",
							"name": "id",
							"type": "string"
						}
					],
					"name": "buyDurians",
					"outputs": [
						{
							"internalType": "string",
							"name": "",
							"type": "string"
						}
					],
					"stateMutability": "payable",
					"type": "function"
				},
				{
					"inputs": [
						{
							"internalType": "string",
							"name": "startingPoint",
							"type": "string"
						},
						{
							"internalType": "string",
							"name": "destination",
							"type": "string"
						},
						{
							"internalType": "string",
							"name": "id",
							"type": "string"
						}
					],
					"name": "deliverDurian",
					"outputs": [
						{
							"internalType": "bool",
							"name": "",
							"type": "bool"
						}
					],
					"stateMutability": "nonpayable",
					"type": "function"
				},
				{
					"inputs": [],
					"name": "durianCount",
					"outputs": [
						{
							"internalType": "uint256",
							"name": "",
							"type": "uint256"
						}
					],
					"stateMutability": "view",
					"type": "function"
				},
				{
					"inputs": [
						{
							"internalType": "string",
							"name": "",
							"type": "string"
						}
					],
					"name": "durians",
					"outputs": [
						{
							"internalType": "string",
							"name": "id",
							"type": "string"
						},
						{
							"internalType": "string",
							"name": "species",
							"type": "string"
						},
						{
							"internalType": "uint256",
							"name": "weight",
							"type": "uint256"
						},
						{
							"internalType": "uint256",
							"name": "harvested_date_time",
							"type": "uint256"
						},
						{
							"internalType": "address",
							"name": "harvested_by",
							"type": "address"
						},
						{
							"internalType": "uint256",
							"name": "harvest_tree",
							"type": "uint256"
						},
						{
							"internalType": "uint256",
							"name": "harvest_farm",
							"type": "uint256"
						},
						{
							"internalType": "address",
							"name": "owner",
							"type": "address"
						},
						{
							"components": [
								{
									"internalType": "string",
									"name": "personalRemarks",
									"type": "string"
								},
								{
									"internalType": "string",
									"name": "color",
									"type": "string"
								},
								{
									"internalType": "enum DurianContract.RatingNo",
									"name": "taste",
									"type": "uint8"
								},
								{
									"internalType": "enum DurianContract.RatingNo",
									"name": "fragrance",
									"type": "uint8"
								},
								{
									"internalType": "enum DurianContract.RatingNo",
									"name": "creaminess",
									"type": "uint8"
								},
								{
									"internalType": "enum DurianContract.RatingNo",
									"name": "overall_rating",
									"type": "uint8"
								}
							],
							"internalType": "struct DurianContract.Reviews",
							"name": "reviews",
							"type": "tuple"
						},
						{
							"internalType": "string",
							"name": "location",
							"type": "string"
						},
						{
							"internalType": "bool",
							"name": "onDelivery",
							"type": "bool"
						},
						{
							"internalType": "string",
							"name": "status",
							"type": "string"
						}
					],
					"stateMutability": "view",
					"type": "function"
				},
				{
					"inputs": [
						{
							"internalType": "string",
							"name": "id",
							"type": "string"
						}
					],
					"name": "getDurianById",
					"outputs": [
						{
							"components": [
								{
									"internalType": "string",
									"name": "id",
									"type": "string"
								},
								{
									"internalType": "string",
									"name": "species",
									"type": "string"
								},
								{
									"internalType": "uint256",
									"name": "weight",
									"type": "uint256"
								},
								{
									"internalType": "uint256",
									"name": "harvested_date_time",
									"type": "uint256"
								},
								{
									"internalType": "address",
									"name": "harvested_by",
									"type": "address"
								},
								{
									"internalType": "uint256",
									"name": "harvest_tree",
									"type": "uint256"
								},
								{
									"internalType": "uint256",
									"name": "harvest_farm",
									"type": "uint256"
								},
								{
									"internalType": "address",
									"name": "owner",
									"type": "address"
								},
								{
									"components": [
										{
											"internalType": "string",
											"name": "personalRemarks",
											"type": "string"
										},
										{
											"internalType": "string",
											"name": "color",
											"type": "string"
										},
										{
											"internalType": "enum DurianContract.RatingNo",
											"name": "taste",
											"type": "uint8"
										},
										{
											"internalType": "enum DurianContract.RatingNo",
											"name": "fragrance",
											"type": "uint8"
										},
										{
											"internalType": "enum DurianContract.RatingNo",
											"name": "creaminess",
											"type": "uint8"
										},
										{
											"internalType": "enum DurianContract.RatingNo",
											"name": "overall_rating",
											"type": "uint8"
										}
									],
									"internalType": "struct DurianContract.Reviews",
									"name": "reviews",
									"type": "tuple"
								},
								{
									"internalType": "string",
									"name": "location",
									"type": "string"
								},
								{
									"internalType": "bool",
									"name": "onDelivery",
									"type": "bool"
								},
								{
									"internalType": "string",
									"name": "status",
									"type": "string"
								}
							],
							"internalType": "struct DurianContract.Durian",
							"name": "",
							"type": "tuple"
						}
					],
					"stateMutability": "view",
					"type": "function"
				},
				{
					"inputs": [],
					"name": "getOwnerAdd",
					"outputs": [
						{
							"internalType": "address",
							"name": "",
							"type": "address"
						}
					],
					"stateMutability": "view",
					"type": "function"
				},
				{
					"inputs": [],
					"name": "getTotalDurians",
					"outputs": [
						{
							"internalType": "uint256",
							"name": "",
							"type": "uint256"
						}
					],
					"stateMutability": "view",
					"type": "function"
				},
				{
					"inputs": [],
					"name": "getTotalstaffs",
					"outputs": [
						{
							"internalType": "uint256",
							"name": "",
							"type": "uint256"
						}
					],
					"stateMutability": "view",
					"type": "function"
				},
				{
					"inputs": [],
					"name": "ownerFarm",
					"outputs": [
						{
							"internalType": "address payable",
							"name": "",
							"type": "address"
						}
					],
					"stateMutability": "view",
					"type": "function"
				},
				{
					"inputs": [
						{
							"internalType": "string",
							"name": "id",
							"type": "string"
						},
						{
							"internalType": "string",
							"name": "destination",
							"type": "string"
						},
						{
							"internalType": "string",
							"name": "status",
							"type": "string"
						}
					],
					"name": "receiveDurians",
					"outputs": [
						{
							"internalType": "bool",
							"name": "",
							"type": "bool"
						}
					],
					"stateMutability": "nonpayable",
					"type": "function"
				},
				{
					"inputs": [
						{
							"internalType": "string",
							"name": "id",
							"type": "string"
						},
						{
							"internalType": "string",
							"name": "personalReview",
							"type": "string"
						},
						{
							"internalType": "string",
							"name": "color",
							"type": "string"
						},
						{
							"internalType": "uint256[4]",
							"name": "numbers",
							"type": "uint256[4]"
						}
					],
					"name": "review",
					"outputs": [],
					"stateMutability": "nonpayable",
					"type": "function"
				},
				{
					"inputs": [],
					"name": "staffCount",
					"outputs": [
						{
							"internalType": "uint256",
							"name": "",
							"type": "uint256"
						}
					],
					"stateMutability": "view",
					"type": "function"
				},
				{
					"inputs": [
						{
							"internalType": "address",
							"name": "",
							"type": "address"
						}
					],
					"name": "staffs",
					"outputs": [
						{
							"internalType": "address",
							"name": "staffAddress",
							"type": "address"
						},
						{
							"internalType": "uint256",
							"name": "id",
							"type": "uint256"
						},
						{
							"internalType": "string",
							"name": "name",
							"type": "string"
						},
						{
							"internalType": "string",
							"name": "title",
							"type": "string"
						}
					],
					"stateMutability": "view",
					"type": "function"
				}
			],
			"devdoc": {
				"kind": "dev",
				"methods": {},
				"version": 1
			},
			"evm": {
				"assembly": "    /* \"DurianContract.sol\":57:7217  contract DurianContract {... */\n  mstore(0x40, 0x80)\n    /* \"DurianContract.sol\":2483:2584  Reviews(\"default\", \"default\", RatingNo.average, RatingNo.average, RatingNo.average, RatingNo.average) */\n  mload(0x40)\n  dup1\n  0xc0\n  add\n  0x40\n  mstore\n  dup1\n  mload(0x40)\n  dup1\n  0x40\n  add\n  0x40\n  mstore\n  dup1\n  0x07\n  dup2\n  mstore\n  0x20\n  add\n  0x64656661756c7400000000000000000000000000000000000000000000000000\n  dup2\n  mstore\n  pop\n  dup2\n  mstore\n  0x20\n  add\n  mload(0x40)\n  dup1\n  0x40\n  add\n  0x40\n  mstore\n  dup1\n  0x07\n  dup2\n  mstore\n  0x20\n  add\n  0x64656661756c7400000000000000000000000000000000000000000000000000\n  dup2\n  mstore\n  pop\n  dup2\n  mstore\n  0x20\n  add\n    /* \"DurianContract.sol\":2513:2529  RatingNo.average */\n  0x02\n    /* \"DurianContract.sol\":2483:2584  Reviews(\"default\", \"default\", RatingNo.average, RatingNo.average, RatingNo.average, RatingNo.average) */\n  0x04\n  dup2\n  gt\n  iszero\n  tag_1\n  jumpi\n  tag_2\n  tag_3\n  jump\t// in\ntag_2:\ntag_1:\n  dup2\n  mstore\n  0x20\n  add\n    /* \"DurianContract.sol\":2531:2547  RatingNo.average */\n  0x02\n    /* \"DurianContract.sol\":2483:2584  Reviews(\"default\", \"default\", RatingNo.average, RatingNo.average, RatingNo.average, RatingNo.average) */\n  0x04\n  dup2\n  gt\n  iszero\n  tag_4\n  jumpi\n  tag_5\n  tag_3\n  jump\t// in\ntag_5:\ntag_4:\n  dup2\n  mstore\n  0x20\n  add\n    /* \"DurianContract.sol\":2549:2565  RatingNo.average */\n  0x02\n    /* \"DurianContract.sol\":2483:2584  Reviews(\"default\", \"default\", RatingNo.average, RatingNo.average, RatingNo.average, RatingNo.average) */\n  0x04\n  dup2\n  gt\n  iszero\n  tag_6\n  jumpi\n  tag_7\n  tag_3\n  jump\t// in\ntag_7:\ntag_6:\n  dup2\n  mstore\n  0x20\n  add\n    /* \"DurianContract.sol\":2567:2583  RatingNo.average */\n  0x02\n    /* \"DurianContract.sol\":2483:2584  Reviews(\"default\", \"default\", RatingNo.average, RatingNo.average, RatingNo.average, RatingNo.average) */\n  0x04\n  dup2\n  gt\n  iszero\n  tag_8\n  jumpi\n  tag_9\n  tag_3\n  jump\t// in\ntag_9:\ntag_8:\n  dup2\n  mstore\n  pop\n    /* \"DurianContract.sol\":2451:2584  Reviews private defaultDurian = Reviews(\"default\", \"default\", RatingNo.average, RatingNo.average, RatingNo.average, RatingNo.average) */\n  0x05\n  0x00\n  dup3\n  add\n  mload\n  dup2\n  0x00\n  add\n  swap1\n  dup2\n  tag_10\n  swap2\n  swap1\n  tag_11\n  jump\t// in\ntag_10:\n  pop\n  0x20\n  dup3\n  add\n  mload\n  dup2\n  0x01\n  add\n  swap1\n  dup2\n  tag_12\n  swap2\n  swap1\n  tag_11\n  jump\t// in\ntag_12:\n  pop\n  0x40\n  dup3\n  add\n  mload\n  dup2\n  0x02\n  add\n  exp(0x0100, 0x00)\n  dup2\n  sload\n  dup2\n  0xff\n  mul\n  not\n  and\n  swap1\n  dup4\n  0x04\n  dup2\n  gt\n  iszero\n  tag_13\n  jumpi\n  tag_14\n  tag_3\n  jump\t// in\ntag_14:\ntag_13:\n  mul\n  or\n  swap1\n  sstore\n  pop\n  0x60\n  dup3\n  add\n  mload\n  dup2\n  0x02\n  add\n  exp(0x0100, 0x01)\n  dup2\n  sload\n  dup2\n  0xff\n  mul\n  not\n  and\n  swap1\n  dup4\n  0x04\n  dup2\n  gt\n  iszero\n  tag_15\n  jumpi\n  tag_16\n  tag_3\n  jump\t// in\ntag_16:\ntag_15:\n  mul\n  or\n  swap1\n  sstore\n  pop\n  0x80\n  dup3\n  add\n  mload\n  dup2\n  0x02\n  add\n  exp(0x0100, 0x02)\n  dup2\n  sload\n  dup2\n  0xff\n  mul\n  not\n  and\n  swap1\n  dup4\n  0x04\n  dup2\n  gt\n  iszero\n  tag_17\n  jumpi\n  tag_18\n  tag_3\n  jump\t// in\ntag_18:\ntag_17:\n  mul\n  or\n  swap1\n  sstore\n  pop\n  0xa0\n  dup3\n  add\n  mload\n  dup2\n  0x02\n  add\n  exp(0x0100, 0x03)\n  dup2\n  sload\n  dup2\n  0xff\n  mul\n  not\n  and\n  swap1\n  dup4\n  0x04\n  dup2\n  gt\n  iszero\n  tag_19\n  jumpi\n  tag_20\n  tag_3\n  jump\t// in\ntag_20:\ntag_19:\n  mul\n  or\n  swap1\n  sstore\n  pop\n  pop\n  pop\n    /* \"DurianContract.sol\":1342:1404  constructor() {... */\n  callvalue\n  dup1\n  iszero\n  tag_21\n  jumpi\n  0x00\n  dup1\n  revert\ntag_21:\n  pop\n    /* \"DurianContract.sol\":1386:1396  msg.sender */\n  caller\n    /* \"DurianContract.sol\":1366:1375  ownerFarm */\n  0x00\n  dup1\n    /* \"DurianContract.sol\":1366:1397  ownerFarm = payable(msg.sender) */\n  0x0100\n  exp\n  dup2\n  sload\n  dup2\n  0xffffffffffffffffffffffffffffffffffffffff\n  mul\n  not\n  and\n  swap1\n  dup4\n  0xffffffffffffffffffffffffffffffffffffffff\n  and\n  mul\n  or\n  swap1\n  sstore\n  pop\n    /* \"DurianContract.sol\":57:7217  contract DurianContract {... */\n  jump(tag_24)\n    /* \"#utility.yul\":7:187   */\ntag_3:\n    /* \"#utility.yul\":55:132   */\n  0x4e487b7100000000000000000000000000000000000000000000000000000000\n    /* \"#utility.yul\":52:53   */\n  0x00\n    /* \"#utility.yul\":45:133   */\n  mstore\n    /* \"#utility.yul\":152:156   */\n  0x21\n    /* \"#utility.yul\":149:150   */\n  0x04\n    /* \"#utility.yul\":142:157   */\n  mstore\n    /* \"#utility.yul\":176:180   */\n  0x24\n    /* \"#utility.yul\":173:174   */\n  0x00\n    /* \"#utility.yul\":166:181   */\n  revert\n    /* \"#utility.yul\":193:292   */\ntag_25:\n    /* \"#utility.yul\":245:251   */\n  0x00\n    /* \"#utility.yul\":279:284   */\n  dup2\n    /* \"#utility.yul\":273:285   */\n  mload\n    /* \"#utility.yul\":263:285   */\n  swap1\n  pop\n    /* \"#utility.yul\":193:292   */\n  swap2\n  swap1\n  pop\n  jump\t// out\n    /* \"#utility.yul\":298:478   */\ntag_26:\n    /* \"#utility.yul\":346:423   */\n  0x4e487b7100000000000000000000000000000000000000000000000000000000\n    /* \"#utility.yul\":343:344   */\n  0x00\n    /* \"#utility.yul\":336:424   */\n  mstore\n    /* \"#utility.yul\":443:447   */\n  0x41\n    /* \"#utility.yul\":440:441   */\n  0x04\n    /* \"#utility.yul\":433:448   */\n  mstore\n    /* \"#utility.yul\":467:471   */\n  0x24\n    /* \"#utility.yul\":464:465   */\n  0x00\n    /* \"#utility.yul\":457:472   */\n  revert\n    /* \"#utility.yul\":484:664   */\ntag_27:\n    /* \"#utility.yul\":532:609   */\n  0x4e487b7100000000000000000000000000000000000000000000000000000000\n    /* \"#utility.yul\":529:530   */\n  0x00\n    /* \"#utility.yul\":522:610   */\n  mstore\n    /* \"#utility.yul\":629:633   */\n  0x22\n    /* \"#utility.yul\":626:627   */\n  0x04\n    /* \"#utility.yul\":619:634   */\n  mstore\n    /* \"#utility.yul\":653:657   */\n  0x24\n    /* \"#utility.yul\":650:651   */\n  0x00\n    /* \"#utility.yul\":643:658   */\n  revert\n    /* \"#utility.yul\":670:990   */\ntag_28:\n    /* \"#utility.yul\":714:720   */\n  0x00\n    /* \"#utility.yul\":751:752   */\n  0x02\n    /* \"#utility.yul\":745:749   */\n  dup3\n    /* \"#utility.yul\":741:753   */\n  div\n    /* \"#utility.yul\":731:753   */\n  swap1\n  pop\n    /* \"#utility.yul\":798:799   */\n  0x01\n    /* \"#utility.yul\":792:796   */\n  dup3\n    /* \"#utility.yul\":788:800   */\n  and\n    /* \"#utility.yul\":819:837   */\n  dup1\n    /* \"#utility.yul\":809:890   */\n  tag_51\n  jumpi\n    /* \"#utility.yul\":875:879   */\n  0x7f\n    /* \"#utility.yul\":867:873   */\n  dup3\n    /* \"#utility.yul\":863:880   */\n  and\n    /* \"#utility.yul\":853:880   */\n  swap2\n  pop\n    /* \"#utility.yul\":809:890   */\ntag_51:\n    /* \"#utility.yul\":937:939   */\n  0x20\n    /* \"#utility.yul\":929:935   */\n  dup3\n    /* \"#utility.yul\":926:940   */\n  lt\n    /* \"#utility.yul\":906:924   */\n  dup2\n    /* \"#utility.yul\":903:941   */\n  sub\n    /* \"#utility.yul\":900:984   */\n  tag_52\n  jumpi\n    /* \"#utility.yul\":956:974   */\n  tag_53\n  tag_27\n  jump\t// in\ntag_53:\n    /* \"#utility.yul\":900:984   */\ntag_52:\n    /* \"#utility.yul\":721:990   */\n  pop\n    /* \"#utility.yul\":670:990   */\n  swap2\n  swap1\n  pop\n  jump\t// out\n    /* \"#utility.yul\":996:1137   */\ntag_29:\n    /* \"#utility.yul\":1045:1049   */\n  0x00\n    /* \"#utility.yul\":1068:1071   */\n  dup2\n    /* \"#utility.yul\":1060:1071   */\n  swap1\n  pop\n    /* \"#utility.yul\":1091:1094   */\n  dup2\n    /* \"#utility.yul\":1088:1089   */\n  0x00\n    /* \"#utility.yul\":1081:1095   */\n  mstore\n    /* \"#utility.yul\":1125:1129   */\n  0x20\n    /* \"#utility.yul\":1122:1123   */\n  0x00\n    /* \"#utility.yul\":1112:1130   */\n  keccak256\n    /* \"#utility.yul\":1104:1130   */\n  swap1\n  pop\n    /* \"#utility.yul\":996:1137   */\n  swap2\n  swap1\n  pop\n  jump\t// out\n    /* \"#utility.yul\":1143:1236   */\ntag_30:\n    /* \"#utility.yul\":1180:1186   */\n  0x00\n    /* \"#utility.yul\":1227:1229   */\n  0x20\n    /* \"#utility.yul\":1222:1224   */\n  0x1f\n    /* \"#utility.yul\":1215:1220   */\n  dup4\n    /* \"#utility.yul\":1211:1225   */\n  add\n    /* \"#utility.yul\":1207:1230   */\n  div\n    /* \"#utility.yul\":1197:1230   */\n  swap1\n  pop\n    /* \"#utility.yul\":1143:1236   */\n  swap2\n  swap1\n  pop\n  jump\t// out\n    /* \"#utility.yul\":1242:1349   */\ntag_31:\n    /* \"#utility.yul\":1286:1294   */\n  0x00\n    /* \"#utility.yul\":1336:1341   */\n  dup3\n    /* \"#utility.yul\":1330:1334   */\n  dup3\n    /* \"#utility.yul\":1326:1342   */\n  shl\n    /* \"#utility.yul\":1305:1342   */\n  swap1\n  pop\n    /* \"#utility.yul\":1242:1349   */\n  swap3\n  swap2\n  pop\n  pop\n  jump\t// out\n    /* \"#utility.yul\":1355:1748   */\ntag_32:\n    /* \"#utility.yul\":1424:1430   */\n  0x00\n    /* \"#utility.yul\":1474:1475   */\n  0x08\n    /* \"#utility.yul\":1462:1472   */\n  dup4\n    /* \"#utility.yul\":1458:1476   */\n  mul\n    /* \"#utility.yul\":1497:1594   */\n  tag_58\n    /* \"#utility.yul\":1527:1593   */\n  0xffffffffffffffffffffffffffffffffffffffffffffffffffffffffffffffff\n    /* \"#utility.yul\":1516:1525   */\n  dup3\n    /* \"#utility.yul\":1497:1594   */\n  tag_31\n  jump\t// in\ntag_58:\n    /* \"#utility.yul\":1615:1654   */\n  tag_59\n    /* \"#utility.yul\":1645:1653   */\n  dup7\n    /* \"#utility.yul\":1634:1643   */\n  dup4\n    /* \"#utility.yul\":1615:1654   */\n  tag_31\n  jump\t// in\ntag_59:\n    /* \"#utility.yul\":1603:1654   */\n  swap6\n  pop\n    /* \"#utility.yul\":1687:1691   */\n  dup1\n    /* \"#utility.yul\":1683:1692   */\n  not\n    /* \"#utility.yul\":1676:1681   */\n  dup5\n    /* \"#utility.yul\":1672:1693   */\n  and\n    /* \"#utility.yul\":1663:1693   */\n  swap4\n  pop\n    /* \"#utility.yul\":1736:1740   */\n  dup1\n    /* \"#utility.yul\":1726:1734   */\n  dup7\n    /* \"#utility.yul\":1722:1741   */\n  and\n    /* \"#utility.yul\":1715:1720   */\n  dup5\n    /* \"#utility.yul\":1712:1742   */\n  or\n    /* \"#utility.yul\":1702:1742   */\n  swap3\n  pop\n    /* \"#utility.yul\":1431:1748   */\n  pop\n  pop\n    /* \"#utility.yul\":1355:1748   */\n  swap4\n  swap3\n  pop\n  pop\n  pop\n  jump\t// out\n    /* \"#utility.yul\":1754:1831   */\ntag_33:\n    /* \"#utility.yul\":1791:1798   */\n  0x00\n    /* \"#utility.yul\":1820:1825   */\n  dup2\n    /* \"#utility.yul\":1809:1825   */\n  swap1\n  pop\n    /* \"#utility.yul\":1754:1831   */\n  swap2\n  swap1\n  pop\n  jump\t// out\n    /* \"#utility.yul\":1837:1897   */\ntag_34:\n    /* \"#utility.yul\":1865:1868   */\n  0x00\n    /* \"#utility.yul\":1886:1891   */\n  dup2\n    /* \"#utility.yul\":1879:1891   */\n  swap1\n  pop\n    /* \"#utility.yul\":1837:1897   */\n  swap2\n  swap1\n  pop\n  jump\t// out\n    /* \"#utility.yul\":1903:2045   */\ntag_35:\n    /* \"#utility.yul\":1953:1962   */\n  0x00\n    /* \"#utility.yul\":1986:2039   */\n  tag_63\n    /* \"#utility.yul\":2004:2038   */\n  tag_64\n    /* \"#utility.yul\":2013:2037   */\n  tag_65\n    /* \"#utility.yul\":2031:2036   */\n  dup5\n    /* \"#utility.yul\":2013:2037   */\n  tag_33\n  jump\t// in\ntag_65:\n    /* \"#utility.yul\":2004:2038   */\n  tag_34\n  jump\t// in\ntag_64:\n    /* \"#utility.yul\":1986:2039   */\n  tag_33\n  jump\t// in\ntag_63:\n    /* \"#utility.yul\":1973:2039   */\n  swap1\n  pop\n    /* \"#utility.yul\":1903:2045   */\n  swap2\n  swap1\n  pop\n  jump\t// out\n    /* \"#utility.yul\":2051:2126   */\ntag_36:\n    /* \"#utility.yul\":2094:2097   */\n  0x00\n    /* \"#utility.yul\":2115:2120   */\n  dup2\n    /* \"#utility.yul\":2108:2120   */\n  swap1\n  pop\n    /* \"#utility.yul\":2051:2126   */\n  swap2\n  swap1\n  pop\n  jump\t// out\n    /* \"#utility.yul\":2132:2401   */\ntag_37:\n    /* \"#utility.yul\":2242:2281   */\n  tag_68\n    /* \"#utility.yul\":2273:2280   */\n  dup4\n    /* \"#utility.yul\":2242:2281   */\n  tag_35\n  jump\t// in\ntag_68:\n    /* \"#utility.yul\":2303:2394   */\n  tag_69\n    /* \"#utility.yul\":2352:2393   */\n  tag_70\n    /* \"#utility.yul\":2376:2392   */\n  dup3\n    /* \"#utility.yul\":2352:2393   */\n  tag_36\n  jump\t// in\ntag_70:\n    /* \"#utility.yul\":2344:2350   */\n  dup5\n    /* \"#utility.yul\":2337:2341   */\n  dup5\n    /* \"#utility.yul\":2331:2342   */\n  sload\n    /* \"#utility.yul\":2303:2394   */\n  tag_32\n  jump\t// in\ntag_69:\n    /* \"#utility.yul\":2297:2301   */\n  dup3\n    /* \"#utility.yul\":2290:2395   */\n  sstore\n    /* \"#utility.yul\":2208:2401   */\n  pop\n    /* \"#utility.yul\":2132:2401   */\n  pop\n  pop\n  pop\n  jump\t// out\n    /* \"#utility.yul\":2407:2480   */\ntag_38:\n    /* \"#utility.yul\":2452:2455   */\n  0x00\n    /* \"#utility.yul\":2407:2480   */\n  swap1\n  jump\t// out\n    /* \"#utility.yul\":2486:2675   */\ntag_39:\n    /* \"#utility.yul\":2563:2595   */\n  tag_73\n  tag_38\n  jump\t// in\ntag_73:\n    /* \"#utility.yul\":2604:2669   */\n  tag_74\n    /* \"#utility.yul\":2662:2668   */\n  dup2\n    /* \"#utility.yul\":2654:2660   */\n  dup5\n    /* \"#utility.yul\":2648:2652   */\n  dup5\n    /* \"#utility.yul\":2604:2669   */\n  tag_37\n  jump\t// in\ntag_74:\n    /* \"#utility.yul\":2539:2675   */\n  pop\n    /* \"#utility.yul\":2486:2675   */\n  pop\n  pop\n  jump\t// out\n    /* \"#utility.yul\":2681:2867   */\ntag_40:\n    /* \"#utility.yul\":2741:2861   */\ntag_76:\n    /* \"#utility.yul\":2758:2761   */\n  dup2\n    /* \"#utility.yul\":2751:2756   */\n  dup2\n    /* \"#utility.yul\":2748:2762   */\n  lt\n    /* \"#utility.yul\":2741:2861   */\n  iszero\n  tag_78\n  jumpi\n    /* \"#utility.yul\":2812:2851   */\n  tag_79\n    /* \"#utility.yul\":2849:2850   */\n  0x00\n    /* \"#utility.yul\":2842:2847   */\n  dup3\n    /* \"#utility.yul\":2812:2851   */\n  tag_39\n  jump\t// in\ntag_79:\n    /* \"#utility.yul\":2785:2786   */\n  0x01\n    /* \"#utility.yul\":2778:2783   */\n  dup2\n    /* \"#utility.yul\":2774:2787   */\n  add\n    /* \"#utility.yul\":2765:2787   */\n  swap1\n  pop\n    /* \"#utility.yul\":2741:2861   */\n  jump(tag_76)\ntag_78:\n    /* \"#utility.yul\":2681:2867   */\n  pop\n  pop\n  jump\t// out\n    /* \"#utility.yul\":2873:3416   */\ntag_41:\n    /* \"#utility.yul\":2974:2976   */\n  0x1f\n    /* \"#utility.yul\":2969:2972   */\n  dup3\n    /* \"#utility.yul\":2966:2977   */\n  gt\n    /* \"#utility.yul\":2963:3409   */\n  iszero\n  tag_81\n  jumpi\n    /* \"#utility.yul\":3008:3046   */\n  tag_82\n    /* \"#utility.yul\":3040:3045   */\n  dup2\n    /* \"#utility.yul\":3008:3046   */\n  tag_29\n  jump\t// in\ntag_82:\n    /* \"#utility.yul\":3092:3121   */\n  tag_83\n    /* \"#utility.yul\":3110:3120   */\n  dup5\n    /* \"#utility.yul\":3092:3121   */\n  tag_30\n  jump\t// in\ntag_83:\n    /* \"#utility.yul\":3082:3090   */\n  dup2\n    /* \"#utility.yul\":3078:3122   */\n  add\n    /* \"#utility.yul\":3275:3277   */\n  0x20\n    /* \"#utility.yul\":3263:3273   */\n  dup6\n    /* \"#utility.yul\":3260:3278   */\n  lt\n    /* \"#utility.yul\":3257:3306   */\n  iszero\n  tag_84\n  jumpi\n    /* \"#utility.yul\":3296:3304   */\n  dup2\n    /* \"#utility.yul\":3281:3304   */\n  swap1\n  pop\n    /* \"#utility.yul\":3257:3306   */\ntag_84:\n    /* \"#utility.yul\":3319:3399   */\n  tag_85\n    /* \"#utility.yul\":3375:3397   */\n  tag_86\n    /* \"#utility.yul\":3393:3396   */\n  dup6\n    /* \"#utility.yul\":3375:3397   */\n  tag_30\n  jump\t// in\ntag_86:\n    /* \"#utility.yul\":3365:3373   */\n  dup4\n    /* \"#utility.yul\":3361:3398   */\n  add\n    /* \"#utility.yul\":3348:3359   */\n  dup3\n    /* \"#utility.yul\":3319:3399   */\n  tag_40\n  jump\t// in\ntag_85:\n    /* \"#utility.yul\":2978:3409   */\n  pop\n  pop\n    /* \"#utility.yul\":2963:3409   */\ntag_81:\n    /* \"#utility.yul\":2873:3416   */\n  pop\n  pop\n  pop\n  jump\t// out\n    /* \"#utility.yul\":3422:3539   */\ntag_42:\n    /* \"#utility.yul\":3476:3484   */\n  0x00\n    /* \"#utility.yul\":3526:3531   */\n  dup3\n    /* \"#utility.yul\":3520:3524   */\n  dup3\n    /* \"#utility.yul\":3516:3532   */\n  shr\n    /* \"#utility.yul\":3495:3532   */\n  swap1\n  pop\n    /* \"#utility.yul\":3422:3539   */\n  swap3\n  swap2\n  pop\n  pop\n  jump\t// out\n    /* \"#utility.yul\":3545:3714   */\ntag_43:\n    /* \"#utility.yul\":3589:3595   */\n  0x00\n    /* \"#utility.yul\":3622:3673   */\n  tag_89\n    /* \"#utility.yul\":3670:3671   */\n  0x00\n    /* \"#utility.yul\":3666:3672   */\n  not\n    /* \"#utility.yul\":3658:3663   */\n  dup5\n    /* \"#utility.yul\":3655:3656   */\n  0x08\n    /* \"#utility.yul\":3651:3664   */\n  mul\n    /* \"#utility.yul\":3622:3673   */\n  tag_42\n  jump\t// in\ntag_89:\n    /* \"#utility.yul\":3618:3674   */\n  not\n    /* \"#utility.yul\":3703:3707   */\n  dup1\n    /* \"#utility.yul\":3697:3701   */\n  dup4\n    /* \"#utility.yul\":3693:3708   */\n  and\n    /* \"#utility.yul\":3683:3708   */\n  swap2\n  pop\n    /* \"#utility.yul\":3596:3714   */\n  pop\n    /* \"#utility.yul\":3545:3714   */\n  swap3\n  swap2\n  pop\n  pop\n  jump\t// out\n    /* \"#utility.yul\":3719:4014   */\ntag_44:\n    /* \"#utility.yul\":3795:3799   */\n  0x00\n    /* \"#utility.yul\":3941:3970   */\n  tag_91\n    /* \"#utility.yul\":3966:3969   */\n  dup4\n    /* \"#utility.yul\":3960:3964   */\n  dup4\n    /* \"#utility.yul\":3941:3970   */\n  tag_43\n  jump\t// in\ntag_91:\n    /* \"#utility.yul\":3933:3970   */\n  swap2\n  pop\n    /* \"#utility.yul\":4003:4006   */\n  dup3\n    /* \"#utility.yul\":4000:4001   */\n  0x02\n    /* \"#utility.yul\":3996:4007   */\n  mul\n    /* \"#utility.yul\":3990:3994   */\n  dup3\n    /* \"#utility.yul\":3987:4008   */\n  or\n    /* \"#utility.yul\":3979:4008   */\n  swap1\n  pop\n    /* \"#utility.yul\":3719:4014   */\n  swap3\n  swap2\n  pop\n  pop\n  jump\t// out\n    /* \"#utility.yul\":4019:5414   */\ntag_11:\n    /* \"#utility.yul\":4136:4173   */\n  tag_93\n    /* \"#utility.yul\":4169:4172   */\n  dup3\n    /* \"#utility.yul\":4136:4173   */\n  tag_25\n  jump\t// in\ntag_93:\n    /* \"#utility.yul\":4238:4256   */\n  0xffffffffffffffff\n    /* \"#utility.yul\":4230:4236   */\n  dup2\n    /* \"#utility.yul\":4227:4257   */\n  gt\n    /* \"#utility.yul\":4224:4280   */\n  iszero\n  tag_94\n  jumpi\n    /* \"#utility.yul\":4260:4278   */\n  tag_95\n  tag_26\n  jump\t// in\ntag_95:\n    /* \"#utility.yul\":4224:4280   */\ntag_94:\n    /* \"#utility.yul\":4304:4342   */\n  tag_96\n    /* \"#utility.yul\":4336:4340   */\n  dup3\n    /* \"#utility.yul\":4330:4341   */\n  sload\n    /* \"#utility.yul\":4304:4342   */\n  tag_28\n  jump\t// in\ntag_96:\n    /* \"#utility.yul\":4389:4456   */\n  tag_97\n    /* \"#utility.yul\":4449:4455   */\n  dup3\n    /* \"#utility.yul\":4441:4447   */\n  dup3\n    /* \"#utility.yul\":4435:4439   */\n  dup6\n    /* \"#utility.yul\":4389:4456   */\n  tag_41\n  jump\t// in\ntag_97:\n    /* \"#utility.yul\":4483:4484   */\n  0x00\n    /* \"#utility.yul\":4507:4511   */\n  0x20\n    /* \"#utility.yul\":4494:4511   */\n  swap1\n  pop\n    /* \"#utility.yul\":4539:4541   */\n  0x1f\n    /* \"#utility.yul\":4531:4537   */\n  dup4\n    /* \"#utility.yul\":4528:4542   */\n  gt\n    /* \"#utility.yul\":4556:4557   */\n  0x01\n    /* \"#utility.yul\":4551:5169   */\n  dup2\n  eq\n  tag_99\n  jumpi\n    /* \"#utility.yul\":5213:5214   */\n  0x00\n    /* \"#utility.yul\":5230:5236   */\n  dup5\n    /* \"#utility.yul\":5227:5304   */\n  iszero\n  tag_100\n  jumpi\n    /* \"#utility.yul\":5279:5288   */\n  dup3\n    /* \"#utility.yul\":5274:5277   */\n  dup8\n    /* \"#utility.yul\":5270:5289   */\n  add\n    /* \"#utility.yul\":5264:5290   */\n  mload\n    /* \"#utility.yul\":5255:5290   */\n  swap1\n  pop\n    /* \"#utility.yul\":5227:5304   */\ntag_100:\n    /* \"#utility.yul\":5330:5397   */\n  tag_101\n    /* \"#utility.yul\":5390:5396   */\n  dup6\n    /* \"#utility.yul\":5383:5388   */\n  dup3\n    /* \"#utility.yul\":5330:5397   */\n  tag_44\n  jump\t// in\ntag_101:\n    /* \"#utility.yul\":5324:5328   */\n  dup7\n    /* \"#utility.yul\":5317:5398   */\n  sstore\n    /* \"#utility.yul\":5186:5408   */\n  pop\n    /* \"#utility.yul\":4521:5408   */\n  jump(tag_98)\n    /* \"#utility.yul\":4551:5169   */\ntag_99:\n    /* \"#utility.yul\":4603:4607   */\n  0x1f\n    /* \"#utility.yul\":4599:4608   */\n  not\n    /* \"#utility.yul\":4591:4597   */\n  dup5\n    /* \"#utility.yul\":4587:4609   */\n  and\n    /* \"#utility.yul\":4637:4674   */\n  tag_102\n    /* \"#utility.yul\":4669:4673   */\n  dup7\n    /* \"#utility.yul\":4637:4674   */\n  tag_29\n  jump\t// in\ntag_102:\n    /* \"#utility.yul\":4696:4697   */\n  0x00\n    /* \"#utility.yul\":4710:4918   */\ntag_103:\n    /* \"#utility.yul\":4724:4731   */\n  dup3\n    /* \"#utility.yul\":4721:4722   */\n  dup2\n    /* \"#utility.yul\":4718:4732   */\n  lt\n    /* \"#utility.yul\":4710:4918   */\n  iszero\n  tag_105\n  jumpi\n    /* \"#utility.yul\":4803:4812   */\n  dup5\n    /* \"#utility.yul\":4798:4801   */\n  dup10\n    /* \"#utility.yul\":4794:4813   */\n  add\n    /* \"#utility.yul\":4788:4814   */\n  mload\n    /* \"#utility.yul\":4780:4786   */\n  dup3\n    /* \"#utility.yul\":4773:4815   */\n  sstore\n    /* \"#utility.yul\":4854:4855   */\n  0x01\n    /* \"#utility.yul\":4846:4852   */\n  dup3\n    /* \"#utility.yul\":4842:4856   */\n  add\n    /* \"#utility.yul\":4832:4856   */\n  swap2\n  pop\n    /* \"#utility.yul\":4901:4903   */\n  0x20\n    /* \"#utility.yul\":4890:4899   */\n  dup6\n    /* \"#utility.yul\":4886:4904   */\n  add\n    /* \"#utility.yul\":4873:4904   */\n  swap5\n  pop\n    /* \"#utility.yul\":4747:4751   */\n  0x20\n    /* \"#utility.yul\":4744:4745   */\n  dup2\n    /* \"#utility.yul\":4740:4752   */\n  add\n    /* \"#utility.yul\":4735:4752   */\n  swap1\n  pop\n    /* \"#utility.yul\":4710:4918   */\n  jump(tag_103)\ntag_105:\n    /* \"#utility.yul\":4946:4952   */\n  dup7\n    /* \"#utility.yul\":4937:4944   */\n  dup4\n    /* \"#utility.yul\":4934:4953   */\n  lt\n    /* \"#utility.yul\":4931:5110   */\n  iszero\n  tag_106\n  jumpi\n    /* \"#utility.yul\":5004:5013   */\n  dup5\n    /* \"#utility.yul\":4999:5002   */\n  dup10\n    /* \"#utility.yul\":4995:5014   */\n  add\n    /* \"#utility.yul\":4989:5015   */\n  mload\n    /* \"#utility.yul\":5047:5095   */\n  tag_107\n    /* \"#utility.yul\":5089:5093   */\n  0x1f\n    /* \"#utility.yul\":5081:5087   */\n  dup10\n    /* \"#utility.yul\":5077:5094   */\n  and\n    /* \"#utility.yul\":5066:5075   */\n  dup3\n    /* \"#utility.yul\":5047:5095   */\n  tag_43\n  jump\t// in\ntag_107:\n    /* \"#utility.yul\":5039:5045   */\n  dup4\n    /* \"#utility.yul\":5032:5096   */\n  sstore\n    /* \"#utility.yul\":4954:5110   */\n  pop\n    /* \"#utility.yul\":4931:5110   */\ntag_106:\n    /* \"#utility.yul\":5156:5157   */\n  0x01\n    /* \"#utility.yul\":5152:5153   */\n  0x02\n    /* \"#utility.yul\":5144:5150   */\n  dup9\n    /* \"#utility.yul\":5140:5154   */\n  mul\n    /* \"#utility.yul\":5136:5158   */\n  add\n    /* \"#utility.yul\":5130:5134   */\n  dup9\n    /* \"#utility.yul\":5123:5159   */\n  sstore\n    /* \"#utility.yul\":4558:5169   */\n  pop\n  pop\n  pop\n    /* \"#utility.yul\":4521:5408   */\ntag_98:\n  pop\n    /* \"#utility.yul\":4111:5414   */\n  pop\n  pop\n  pop\n    /* \"#utility.yul\":4019:5414   */\n  pop\n  pop\n  jump\t// out\n    /* \"DurianContract.sol\":57:7217  contract DurianContract {... */\ntag_24:\n  dataSize(sub_0)\n  dup1\n  dataOffset(sub_0)\n  0x00\n  codecopy\n  0x00\n  return\nstop\n\nsub_0: assembly {\n        /* \"DurianContract.sol\":57:7217  contract DurianContract {... */\n      mstore(0x40, 0x80)\n      jumpi(tag_1, lt(calldatasize, 0x04))\n      shr(0xe0, calldataload(0x00))\n      dup1\n      0x5a375258\n      gt\n      tag_19\n      jumpi\n      dup1\n      0xcd3d46fc\n      gt\n      tag_20\n      jumpi\n      dup1\n      0xcd3d46fc\n      eq\n      tag_14\n      jumpi\n      dup1\n      0xd66d2a57\n      eq\n      tag_15\n      jumpi\n      dup1\n      0xea3e7373\n      eq\n      tag_16\n      jumpi\n      dup1\n      0xeeb3de73\n      eq\n      tag_17\n      jumpi\n      dup1\n      0xf1a40b6b\n      eq\n      tag_18\n      jumpi\n      jump(tag_1)\n    tag_20:\n      dup1\n      0x5a375258\n      eq\n      tag_10\n      jumpi\n      dup1\n      0x7fa9571f\n      eq\n      tag_11\n      jumpi\n      dup1\n      0x9d9fabda\n      eq\n      tag_12\n      jumpi\n      dup1\n      0xb7ee0adc\n      eq\n      tag_13\n      jumpi\n      jump(tag_1)\n    tag_19:\n      dup1\n      0x217a8432\n      gt\n      tag_21\n      jumpi\n      dup1\n      0x217a8432\n      eq\n      tag_6\n      jumpi\n      dup1\n      0x2966b29b\n      eq\n      tag_7\n      jumpi\n      dup1\n      0x38dda849\n      eq\n      tag_8\n      jumpi\n      dup1\n      0x45c68090\n      eq\n      tag_9\n      jumpi\n      jump(tag_1)\n    tag_21:\n      dup1\n      0x0c8299f3\n      eq\n      tag_2\n      jumpi\n      dup1\n      0x0fd60125\n      eq\n      tag_3\n      jumpi\n      dup1\n      0x1dd51307\n      eq\n      tag_4\n      jumpi\n      dup1\n      0x1f310165\n      eq\n      tag_5\n      jumpi\n    tag_1:\n      0x00\n      dup1\n      revert\n        /* \"DurianContract.sol\":4366:4583  function addPrice(... */\n    tag_2:\n      callvalue\n      dup1\n      iszero\n      tag_22\n      jumpi\n      0x00\n      dup1\n      revert\n    tag_22:\n      pop\n      tag_23\n      0x04\n      dup1\n      calldatasize\n      sub\n      dup2\n      add\n      swap1\n      tag_24\n      swap2\n      swap1\n      tag_25\n      jump\t// in\n    tag_24:\n      tag_26\n      jump\t// in\n    tag_23:\n      stop\n        /* \"DurianContract.sol\":143:169  uint256 public durianCount */\n    tag_3:\n      callvalue\n      dup1\n      iszero\n      tag_27\n      jumpi\n      0x00\n      dup1\n      revert\n    tag_27:\n      pop\n      tag_28\n      tag_29\n      jump\t// in\n    tag_28:\n      mload(0x40)\n      tag_30\n      swap2\n      swap1\n      tag_31\n      jump\t// in\n    tag_30:\n      mload(0x40)\n      dup1\n      swap2\n      sub\n      swap1\n      return\n        /* \"DurianContract.sol\":2028:2069  mapping (string => Durian) public durians */\n    tag_4:\n      callvalue\n      dup1\n      iszero\n      tag_32\n      jumpi\n      0x00\n      dup1\n      revert\n    tag_32:\n      pop\n      tag_33\n      0x04\n      dup1\n      calldatasize\n      sub\n      dup2\n      add\n      swap1\n      tag_34\n      swap2\n      swap1\n      tag_35\n      jump\t// in\n    tag_34:\n      tag_36\n      jump\t// in\n    tag_33:\n      mload(0x40)\n      tag_37\n      swap13\n      swap12\n      swap11\n      swap10\n      swap9\n      swap8\n      swap7\n      swap6\n      swap5\n      swap4\n      swap3\n      swap2\n      swap1\n      tag_38\n      jump\t// in\n    tag_37:\n      mload(0x40)\n      dup1\n      swap2\n      sub\n      swap1\n      return\n        /* \"DurianContract.sol\":5502:6043  function buyDurians (... */\n    tag_5:\n      tag_39\n      0x04\n      dup1\n      calldatasize\n      sub\n      dup2\n      add\n      swap1\n      tag_40\n      swap2\n      swap1\n      tag_41\n      jump\t// in\n    tag_40:\n      tag_42\n      jump\t// in\n    tag_39:\n      mload(0x40)\n      tag_43\n      swap2\n      swap1\n      tag_44\n      jump\t// in\n    tag_43:\n      mload(0x40)\n      dup1\n      swap2\n      sub\n      swap1\n      return\n        /* \"DurianContract.sol\":3746:4326  function addDurian(... */\n    tag_6:\n      callvalue\n      dup1\n      iszero\n      tag_45\n      jumpi\n      0x00\n      dup1\n      revert\n    tag_45:\n      pop\n      tag_46\n      0x04\n      dup1\n      calldatasize\n      sub\n      dup2\n      add\n      swap1\n      tag_47\n      swap2\n      swap1\n      tag_48\n      jump\t// in\n    tag_47:\n      tag_49\n      jump\t// in\n    tag_46:\n      stop\n        /* \"DurianContract.sol\":105:137  address payable public ownerFarm */\n    tag_7:\n      callvalue\n      dup1\n      iszero\n      tag_50\n      jumpi\n      0x00\n      dup1\n      revert\n    tag_50:\n      pop\n      tag_51\n      tag_52\n      jump\t// in\n    tag_51:\n      mload(0x40)\n      tag_53\n      swap2\n      swap1\n      tag_54\n      jump\t// in\n    tag_53:\n      mload(0x40)\n      dup1\n      swap2\n      sub\n      swap1\n      return\n        /* \"DurianContract.sol\":175:200  uint256 public staffCount */\n    tag_8:\n      callvalue\n      dup1\n      iszero\n      tag_55\n      jumpi\n      0x00\n      dup1\n      revert\n    tag_55:\n      pop\n      tag_56\n      tag_57\n      jump\t// in\n    tag_56:\n      mload(0x40)\n      tag_58\n      swap2\n      swap1\n      tag_31\n      jump\t// in\n    tag_58:\n      mload(0x40)\n      dup1\n      swap2\n      sub\n      swap1\n      return\n        /* \"DurianContract.sol\":6076:6592  function review(... */\n    tag_9:\n      callvalue\n      dup1\n      iszero\n      tag_59\n      jumpi\n      0x00\n      dup1\n      revert\n    tag_59:\n      pop\n      tag_60\n      0x04\n      dup1\n      calldatasize\n      sub\n      dup2\n      add\n      swap1\n      tag_61\n      swap2\n      swap1\n      tag_62\n      jump\t// in\n    tag_61:\n      tag_63\n      jump\t// in\n    tag_60:\n      stop\n        /* \"DurianContract.sol\":6915:7027  function getDurianById(string memory id) public view returns (Durian memory) {... */\n    tag_10:\n      callvalue\n      dup1\n      iszero\n      tag_64\n      jumpi\n      0x00\n      dup1\n      revert\n    tag_64:\n      pop\n      tag_65\n      0x04\n      dup1\n      calldatasize\n      sub\n      dup2\n      add\n      swap1\n      tag_66\n      swap2\n      swap1\n      tag_35\n      jump\t// in\n    tag_66:\n      tag_67\n      jump\t// in\n    tag_65:\n      mload(0x40)\n      tag_68\n      swap2\n      swap1\n      tag_69\n      jump\t// in\n    tag_68:\n      mload(0x40)\n      dup1\n      swap2\n      sub\n      swap1\n      return\n        /* \"DurianContract.sol\":6656:6748  function getTotalDurians() public view returns (uint256) {... */\n    tag_11:\n      callvalue\n      dup1\n      iszero\n      tag_70\n      jumpi\n      0x00\n      dup1\n      revert\n    tag_70:\n      pop\n      tag_71\n      tag_72\n      jump\t// in\n    tag_71:\n      mload(0x40)\n      tag_73\n      swap2\n      swap1\n      tag_31\n      jump\t// in\n    tag_73:\n      mload(0x40)\n      dup1\n      swap2\n      sub\n      swap1\n      return\n        /* \"DurianContract.sol\":2713:2764  mapping (string => SpeciesPrice) public PricingList */\n    tag_12:\n      callvalue\n      dup1\n      iszero\n      tag_74\n      jumpi\n      0x00\n      dup1\n      revert\n    tag_74:\n      pop\n      tag_75\n      0x04\n      dup1\n      calldatasize\n      sub\n      dup2\n      add\n      swap1\n      tag_76\n      swap2\n      swap1\n      tag_35\n      jump\t// in\n    tag_76:\n      tag_77\n      jump\t// in\n    tag_75:\n      mload(0x40)\n      tag_78\n      swap3\n      swap2\n      swap1\n      tag_79\n      jump\t// in\n    tag_78:\n      mload(0x40)\n      dup1\n      swap2\n      sub\n      swap1\n      return\n        /* \"DurianContract.sol\":1551:1591  mapping (address => Staff) public staffs */\n    tag_13:\n      callvalue\n      dup1\n      iszero\n      tag_80\n      jumpi\n      0x00\n      dup1\n      revert\n    tag_80:\n      pop\n      tag_81\n      0x04\n      dup1\n      calldatasize\n      sub\n      dup2\n      add\n      swap1\n      tag_82\n      swap2\n      swap1\n      tag_83\n      jump\t// in\n    tag_82:\n      tag_84\n      jump\t// in\n    tag_81:\n      mload(0x40)\n      tag_85\n      swap5\n      swap4\n      swap3\n      swap2\n      swap1\n      tag_86\n      jump\t// in\n    tag_85:\n      mload(0x40)\n      dup1\n      swap2\n      sub\n      swap1\n      return\n        /* \"DurianContract.sol\":5078:5444  function receiveDurians(... */\n    tag_14:\n      callvalue\n      dup1\n      iszero\n      tag_87\n      jumpi\n      0x00\n      dup1\n      revert\n    tag_87:\n      pop\n      tag_88\n      0x04\n      dup1\n      calldatasize\n      sub\n      dup2\n      add\n      swap1\n      tag_89\n      swap2\n      swap1\n      tag_90\n      jump\t// in\n    tag_89:\n      tag_91\n      jump\t// in\n    tag_88:\n      mload(0x40)\n      tag_92\n      swap2\n      swap1\n      tag_93\n      jump\t// in\n    tag_92:\n      mload(0x40)\n      dup1\n      swap2\n      sub\n      swap1\n      return\n        /* \"DurianContract.sol\":7053:7140  function getOwnerAdd() external view returns (address){... */\n    tag_15:\n      callvalue\n      dup1\n      iszero\n      tag_94\n      jumpi\n      0x00\n      dup1\n      revert\n    tag_94:\n      pop\n      tag_95\n      tag_96\n      jump\t// in\n    tag_95:\n      mload(0x40)\n      tag_97\n      swap2\n      swap1\n      tag_98\n      jump\t// in\n    tag_97:\n      mload(0x40)\n      dup1\n      swap2\n      sub\n      swap1\n      return\n        /* \"DurianContract.sol\":4653:5033  function deliverDurian(... */\n    tag_16:\n      callvalue\n      dup1\n      iszero\n      tag_99\n      jumpi\n      0x00\n      dup1\n      revert\n    tag_99:\n      pop\n      tag_100\n      0x04\n      dup1\n      calldatasize\n      sub\n      dup2\n      add\n      swap1\n      tag_101\n      swap2\n      swap1\n      tag_90\n      jump\t// in\n    tag_101:\n      tag_102\n      jump\t// in\n    tag_100:\n      mload(0x40)\n      tag_103\n      swap2\n      swap1\n      tag_93\n      jump\t// in\n    tag_103:\n      mload(0x40)\n      dup1\n      swap2\n      sub\n      swap1\n      return\n        /* \"DurianContract.sol\":3371:3681  function addStaff(... */\n    tag_17:\n      callvalue\n      dup1\n      iszero\n      tag_104\n      jumpi\n      0x00\n      dup1\n      revert\n    tag_104:\n      pop\n      tag_105\n      0x04\n      dup1\n      calldatasize\n      sub\n      dup2\n      add\n      swap1\n      tag_106\n      swap2\n      swap1\n      tag_107\n      jump\t// in\n    tag_106:\n      tag_108\n      jump\t// in\n    tag_105:\n      stop\n        /* \"DurianContract.sol\":6797:6887  function getTotalstaffs() public view returns (uint256) {... */\n    tag_18:\n      callvalue\n      dup1\n      iszero\n      tag_109\n      jumpi\n      0x00\n      dup1\n      revert\n    tag_109:\n      pop\n      tag_110\n      tag_111\n      jump\t// in\n    tag_110:\n      mload(0x40)\n      tag_112\n      swap2\n      swap1\n      tag_31\n      jump\t// in\n    tag_112:\n      mload(0x40)\n      dup1\n      swap2\n      sub\n      swap1\n      return\n        /* \"DurianContract.sol\":4366:4583  function addPrice(... */\n    tag_26:\n        /* \"DurianContract.sol\":885:933  compare(staffs[msg.sender].title, \"Farm Worker\") */\n      tag_114\n        /* \"DurianContract.sol\":893:899  staffs */\n      0x03\n        /* \"DurianContract.sol\":893:911  staffs[msg.sender] */\n      0x00\n        /* \"DurianContract.sol\":900:910  msg.sender */\n      caller\n        /* \"DurianContract.sol\":893:911  staffs[msg.sender] */\n      0xffffffffffffffffffffffffffffffffffffffff\n      and\n      0xffffffffffffffffffffffffffffffffffffffff\n      and\n      dup2\n      mstore\n      0x20\n      add\n      swap1\n      dup2\n      mstore\n      0x20\n      add\n      0x00\n      keccak256\n        /* \"DurianContract.sol\":893:917  staffs[msg.sender].title */\n      0x03\n      add\n        /* \"DurianContract.sol\":885:933  compare(staffs[msg.sender].title, \"Farm Worker\") */\n      dup1\n      sload\n      tag_115\n      swap1\n      tag_116\n      jump\t// in\n    tag_115:\n      dup1\n      0x1f\n      add\n      0x20\n      dup1\n      swap2\n      div\n      mul\n      0x20\n      add\n      mload(0x40)\n      swap1\n      dup2\n      add\n      0x40\n      mstore\n      dup1\n      swap3\n      swap2\n      swap1\n      dup2\n      dup2\n      mstore\n      0x20\n      add\n      dup3\n      dup1\n      sload\n      tag_117\n      swap1\n      tag_116\n      jump\t// in\n    tag_117:\n      dup1\n      iszero\n      tag_118\n      jumpi\n      dup1\n      0x1f\n      lt\n      tag_119\n      jumpi\n      0x0100\n      dup1\n      dup4\n      sload\n      div\n      mul\n      dup4\n      mstore\n      swap2\n      0x20\n      add\n      swap2\n      jump(tag_118)\n    tag_119:\n      dup3\n      add\n      swap2\n      swap1\n      0x00\n      mstore\n      keccak256(0x00, 0x20)\n      swap1\n    tag_120:\n      dup2\n      sload\n      dup2\n      mstore\n      swap1\n      0x01\n      add\n      swap1\n      0x20\n      add\n      dup1\n      dup4\n      gt\n      tag_120\n      jumpi\n      dup3\n      swap1\n      sub\n      0x1f\n      and\n      dup3\n      add\n      swap2\n    tag_118:\n      pop\n      pop\n      pop\n      pop\n      pop\n      mload(0x40)\n      dup1\n      0x40\n      add\n      0x40\n      mstore\n      dup1\n      0x0b\n      dup2\n      mstore\n      0x20\n      add\n      0x4661726d20576f726b6572000000000000000000000000000000000000000000\n      dup2\n      mstore\n      pop\n        /* \"DurianContract.sol\":885:892  compare */\n      tag_121\n        /* \"DurianContract.sol\":885:933  compare(staffs[msg.sender].title, \"Farm Worker\") */\n      jump\t// in\n    tag_114:\n        /* \"DurianContract.sol\":885:960  compare(staffs[msg.sender].title, \"Farm Worker\")||(msg.sender == ownerFarm) */\n      dup1\n      tag_122\n      jumpi\n      pop\n        /* \"DurianContract.sol\":950:959  ownerFarm */\n      0x00\n      dup1\n      sload\n      swap1\n      0x0100\n      exp\n      swap1\n      div\n      0xffffffffffffffffffffffffffffffffffffffff\n      and\n        /* \"DurianContract.sol\":936:959  msg.sender == ownerFarm */\n      0xffffffffffffffffffffffffffffffffffffffff\n      and\n        /* \"DurianContract.sol\":936:946  msg.sender */\n      caller\n        /* \"DurianContract.sol\":936:959  msg.sender == ownerFarm */\n      0xffffffffffffffffffffffffffffffffffffffff\n      and\n      eq\n        /* \"DurianContract.sol\":885:960  compare(staffs[msg.sender].title, \"Farm Worker\")||(msg.sender == ownerFarm) */\n    tag_122:\n        /* \"DurianContract.sol\":877:961  require(compare(staffs[msg.sender].title, \"Farm Worker\")||(msg.sender == ownerFarm)) */\n      tag_123\n      jumpi\n      0x00\n      dup1\n      revert\n    tag_123:\n        /* \"DurianContract.sol\":4494:4553  SpeciesPrice(... */\n      mload(0x40)\n      dup1\n      0x40\n      add\n      0x40\n      mstore\n      dup1\n        /* \"DurianContract.sol\":4520:4524  name */\n      dup4\n        /* \"DurianContract.sol\":4494:4553  SpeciesPrice(... */\n      dup2\n      mstore\n      0x20\n      add\n        /* \"DurianContract.sol\":4538:4543  price */\n      dup3\n        /* \"DurianContract.sol\":4494:4553  SpeciesPrice(... */\n      dup2\n      mstore\n      pop\n        /* \"DurianContract.sol\":4474:4485  PricingList */\n      0x08\n        /* \"DurianContract.sol\":4486:4490  name */\n      dup4\n        /* \"DurianContract.sol\":4474:4491  PricingList[name] */\n      mload(0x40)\n      tag_125\n      swap2\n      swap1\n      tag_126\n      jump\t// in\n    tag_125:\n      swap1\n      dup2\n      mstore\n      0x20\n      add\n      mload(0x40)\n      dup1\n      swap2\n      sub\n      swap1\n      keccak256\n        /* \"DurianContract.sol\":4474:4553  PricingList[name] = SpeciesPrice(... */\n      0x00\n      dup3\n      add\n      mload\n      dup2\n      0x00\n      add\n      swap1\n      dup2\n      tag_127\n      swap2\n      swap1\n      tag_128\n      jump\t// in\n    tag_127:\n      pop\n      0x20\n      dup3\n      add\n      mload\n      dup2\n      0x01\n      add\n      sstore\n      swap1\n      pop\n      pop\n        /* \"DurianContract.sol\":4563:4574  durianCount */\n      0x01\n      0x00\n        /* \"DurianContract.sol\":4563:4576  durianCount++ */\n      dup2\n      sload\n      dup1\n      swap3\n      swap2\n      swap1\n      tag_129\n      swap1\n      tag_130\n      jump\t// in\n    tag_129:\n      swap2\n      swap1\n      pop\n      sstore\n      pop\n        /* \"DurianContract.sol\":4366:4583  function addPrice(... */\n      pop\n      pop\n      jump\t// out\n        /* \"DurianContract.sol\":143:169  uint256 public durianCount */\n    tag_29:\n      sload(0x01)\n      dup2\n      jump\t// out\n        /* \"DurianContract.sol\":2028:2069  mapping (string => Durian) public durians */\n    tag_36:\n      0x04\n      dup2\n      dup1\n      mload\n      0x20\n      dup2\n      add\n      dup3\n      add\n      dup1\n      mload\n      dup5\n      dup3\n      mstore\n      0x20\n      dup4\n      add\n      0x20\n      dup6\n      add\n      keccak256\n      dup2\n      dup4\n      mstore\n      dup1\n      swap6\n      pop\n      pop\n      pop\n      pop\n      pop\n      pop\n      0x00\n      swap2\n      pop\n      swap1\n      pop\n      dup1\n      0x00\n      add\n      dup1\n      sload\n      tag_131\n      swap1\n      tag_116\n      jump\t// in\n    tag_131:\n      dup1\n      0x1f\n      add\n      0x20\n      dup1\n      swap2\n      div\n      mul\n      0x20\n      add\n      mload(0x40)\n      swap1\n      dup2\n      add\n      0x40\n      mstore\n      dup1\n      swap3\n      swap2\n      swap1\n      dup2\n      dup2\n      mstore\n      0x20\n      add\n      dup3\n      dup1\n      sload\n      tag_132\n      swap1\n      tag_116\n      jump\t// in\n    tag_132:\n      dup1\n      iszero\n      tag_133\n      jumpi\n      dup1\n      0x1f\n      lt\n      tag_134\n      jumpi\n      0x0100\n      dup1\n      dup4\n      sload\n      div\n      mul\n      dup4\n      mstore\n      swap2\n      0x20\n      add\n      swap2\n      jump(tag_133)\n    tag_134:\n      dup3\n      add\n      swap2\n      swap1\n      0x00\n      mstore\n      keccak256(0x00, 0x20)\n      swap1\n    tag_135:\n      dup2\n      sload\n      dup2\n      mstore\n      swap1\n      0x01\n      add\n      swap1\n      0x20\n      add\n      dup1\n      dup4\n      gt\n      tag_135\n      jumpi\n      dup3\n      swap1\n      sub\n      0x1f\n      and\n      dup3\n      add\n      swap2\n    tag_133:\n      pop\n      pop\n      pop\n      pop\n      pop\n      swap1\n      dup1\n      0x01\n      add\n      dup1\n      sload\n      tag_136\n      swap1\n      tag_116\n      jump\t// in\n    tag_136:\n      dup1\n      0x1f\n      add\n      0x20\n      dup1\n      swap2\n      div\n      mul\n      0x20\n      add\n      mload(0x40)\n      swap1\n      dup2\n      add\n      0x40\n      mstore\n      dup1\n      swap3\n      swap2\n      swap1\n      dup2\n      dup2\n      mstore\n      0x20\n      add\n      dup3\n      dup1\n      sload\n      tag_137\n      swap1\n      tag_116\n      jump\t// in\n    tag_137:\n      dup1\n      iszero\n      tag_138\n      jumpi\n      dup1\n      0x1f\n      lt\n      tag_139\n      jumpi\n      0x0100\n      dup1\n      dup4\n      sload\n      div\n      mul\n      dup4\n      mstore\n      swap2\n      0x20\n      add\n      swap2\n      jump(tag_138)\n    tag_139:\n      dup3\n      add\n      swap2\n      swap1\n      0x00\n      mstore\n      keccak256(0x00, 0x20)\n      swap1\n    tag_140:\n      dup2\n      sload\n      dup2\n      mstore\n      swap1\n      0x01\n      add\n      swap1\n      0x20\n      add\n      dup1\n      dup4\n      gt\n      tag_140\n      jumpi\n      dup3\n      swap1\n      sub\n      0x1f\n      and\n      dup3\n      add\n      swap2\n    tag_138:\n      pop\n      pop\n      pop\n      pop\n      pop\n      swap1\n      dup1\n      0x02\n      add\n      sload\n      swap1\n      dup1\n      0x03\n      add\n      sload\n      swap1\n      dup1\n      0x04\n      add\n      0x00\n      swap1\n      sload\n      swap1\n      0x0100\n      exp\n      swap1\n      div\n      0xffffffffffffffffffffffffffffffffffffffff\n      and\n      swap1\n      dup1\n      0x05\n      add\n      sload\n      swap1\n      dup1\n      0x06\n      add\n      sload\n      swap1\n      dup1\n      0x07\n      add\n      0x00\n      swap1\n      sload\n      swap1\n      0x0100\n      exp\n      swap1\n      div\n      0xffffffffffffffffffffffffffffffffffffffff\n      and\n      swap1\n      dup1\n      0x08\n      add\n      mload(0x40)\n      dup1\n      0xc0\n      add\n      0x40\n      mstore\n      swap1\n      dup2\n      0x00\n      dup3\n      add\n      dup1\n      sload\n      tag_141\n      swap1\n      tag_116\n      jump\t// in\n    tag_141:\n      dup1\n      0x1f\n      add\n      0x20\n      dup1\n      swap2\n      div\n      mul\n      0x20\n      add\n      mload(0x40)\n      swap1\n      dup2\n      add\n      0x40\n      mstore\n      dup1\n      swap3\n      swap2\n      swap1\n      dup2\n      dup2\n      mstore\n      0x20\n      add\n      dup3\n      dup1\n      sload\n      tag_142\n      swap1\n      tag_116\n      jump\t// in\n    tag_142:\n      dup1\n      iszero\n      tag_143\n      jumpi\n      dup1\n      0x1f\n      lt\n      tag_144\n      jumpi\n      0x0100\n      dup1\n      dup4\n      sload\n      div\n      mul\n      dup4\n      mstore\n      swap2\n      0x20\n      add\n      swap2\n      jump(tag_143)\n    tag_144:\n      dup3\n      add\n      swap2\n      swap1\n      0x00\n      mstore\n      keccak256(0x00, 0x20)\n      swap1\n    tag_145:\n      dup2\n      sload\n      dup2\n      mstore\n      swap1\n      0x01\n      add\n      swap1\n      0x20\n      add\n      dup1\n      dup4\n      gt\n      tag_145\n      jumpi\n      dup3\n      swap1\n      sub\n      0x1f\n      and\n      dup3\n      add\n      swap2\n    tag_143:\n      pop\n      pop\n      pop\n      pop\n      pop\n      dup2\n      mstore\n      0x20\n      add\n      0x01\n      dup3\n      add\n      dup1\n      sload\n      tag_146\n      swap1\n      tag_116\n      jump\t// in\n    tag_146:\n      dup1\n      0x1f\n      add\n      0x20\n      dup1\n      swap2\n      div\n      mul\n      0x20\n      add\n      mload(0x40)\n      swap1\n      dup2\n      add\n      0x40\n      mstore\n      dup1\n      swap3\n      swap2\n      swap1\n      dup2\n      dup2\n      mstore\n      0x20\n      add\n      dup3\n      dup1\n      sload\n      tag_147\n      swap1\n      tag_116\n      jump\t// in\n    tag_147:\n      dup1\n      iszero\n      tag_148\n      jumpi\n      dup1\n      0x1f\n      lt\n      tag_149\n      jumpi\n      0x0100\n      dup1\n      dup4\n      sload\n      div\n      mul\n      dup4\n      mstore\n      swap2\n      0x20\n      add\n      swap2\n      jump(tag_148)\n    tag_149:\n      dup3\n      add\n      swap2\n      swap1\n      0x00\n      mstore\n      keccak256(0x00, 0x20)\n      swap1\n    tag_150:\n      dup2\n      sload\n      dup2\n      mstore\n      swap1\n      0x01\n      add\n      swap1\n      0x20\n      add\n      dup1\n      dup4\n      gt\n      tag_150\n      jumpi\n      dup3\n      swap1\n      sub\n      0x1f\n      and\n      dup3\n      add\n      swap2\n    tag_148:\n      pop\n      pop\n      pop\n      pop\n      pop\n      dup2\n      mstore\n      0x20\n      add\n      0x02\n      dup3\n      add\n      0x00\n      swap1\n      sload\n      swap1\n      0x0100\n      exp\n      swap1\n      div\n      0xff\n      and\n      0x04\n      dup2\n      gt\n      iszero\n      tag_151\n      jumpi\n      tag_152\n      tag_153\n      jump\t// in\n    tag_152:\n    tag_151:\n      0x04\n      dup2\n      gt\n      iszero\n      tag_154\n      jumpi\n      tag_155\n      tag_153\n      jump\t// in\n    tag_155:\n    tag_154:\n      dup2\n      mstore\n      0x20\n      add\n      0x02\n      dup3\n      add\n      0x01\n      swap1\n      sload\n      swap1\n      0x0100\n      exp\n      swap1\n      div\n      0xff\n      and\n      0x04\n      dup2\n      gt\n      iszero\n      tag_156\n      jumpi\n      tag_157\n      tag_153\n      jump\t// in\n    tag_157:\n    tag_156:\n      0x04\n      dup2\n      gt\n      iszero\n      tag_158\n      jumpi\n      tag_159\n      tag_153\n      jump\t// in\n    tag_159:\n    tag_158:\n      dup2\n      mstore\n      0x20\n      add\n      0x02\n      dup3\n      add\n      0x02\n      swap1\n      sload\n      swap1\n      0x0100\n      exp\n      swap1\n      div\n      0xff\n      and\n      0x04\n      dup2\n      gt\n      iszero\n      tag_160\n      jumpi\n      tag_161\n      tag_153\n      jump\t// in\n    tag_161:\n    tag_160:\n      0x04\n      dup2\n      gt\n      iszero\n      tag_162\n      jumpi\n      tag_163\n      tag_153\n      jump\t// in\n    tag_163:\n    tag_162:\n      dup2\n      mstore\n      0x20\n      add\n      0x02\n      dup3\n      add\n      0x03\n      swap1\n      sload\n      swap1\n      0x0100\n      exp\n      swap1\n      div\n      0xff\n      and\n      0x04\n      dup2\n      gt\n      iszero\n      tag_164\n      jumpi\n      tag_165\n      tag_153\n      jump\t// in\n    tag_165:\n    tag_164:\n      0x04\n      dup2\n      gt\n      iszero\n      tag_166\n      jumpi\n      tag_167\n      tag_153\n      jump\t// in\n    tag_167:\n    tag_166:\n      dup2\n      mstore\n      pop\n      pop\n      swap1\n      dup1\n      0x0b\n      add\n      dup1\n      sload\n      tag_168\n      swap1\n      tag_116\n      jump\t// in\n    tag_168:\n      dup1\n      0x1f\n      add\n      0x20\n      dup1\n      swap2\n      div\n      mul\n      0x20\n      add\n      mload(0x40)\n      swap1\n      dup2\n      add\n      0x40\n      mstore\n      dup1\n      swap3\n      swap2\n      swap1\n      dup2\n      dup2\n      mstore\n      0x20\n      add\n      dup3\n      dup1\n      sload\n      tag_169\n      swap1\n      tag_116\n      jump\t// in\n    tag_169:\n      dup1\n      iszero\n      tag_170\n      jumpi\n      dup1\n      0x1f\n      lt\n      tag_171\n      jumpi\n      0x0100\n      dup1\n      dup4\n      sload\n      div\n      mul\n      dup4\n      mstore\n      swap2\n      0x20\n      add\n      swap2\n      jump(tag_170)\n    tag_171:\n      dup3\n      add\n      swap2\n      swap1\n      0x00\n      mstore\n      keccak256(0x00, 0x20)\n      swap1\n    tag_172:\n      dup2\n      sload\n      dup2\n      mstore\n      swap1\n      0x01\n      add\n      swap1\n      0x20\n      add\n      dup1\n      dup4\n      gt\n      tag_172\n      jumpi\n      dup3\n      swap1\n      sub\n      0x1f\n      and\n      dup3\n      add\n      swap2\n    tag_170:\n      pop\n      pop\n      pop\n      pop\n      pop\n      swap1\n      dup1\n      0x0c\n      add\n      0x00\n      swap1\n      sload\n      swap1\n      0x0100\n      exp\n      swap1\n      div\n      0xff\n      and\n      swap1\n      dup1\n      0x0d\n      add\n      dup1\n      sload\n      tag_173\n      swap1\n      tag_116\n      jump\t// in\n    tag_173:\n      dup1\n      0x1f\n      add\n      0x20\n      dup1\n      swap2\n      div\n      mul\n      0x20\n      add\n      mload(0x40)\n      swap1\n      dup2\n      add\n      0x40\n      mstore\n      dup1\n      swap3\n      swap2\n      swap1\n      dup2\n      dup2\n      mstore\n      0x20\n      add\n      dup3\n      dup1\n      sload\n      tag_174\n      swap1\n      tag_116\n      jump\t// in\n    tag_174:\n      dup1\n      iszero\n      tag_175\n      jumpi\n      dup1\n      0x1f\n      lt\n      tag_176\n      jumpi\n      0x0100\n      dup1\n      dup4\n      sload\n      div\n      mul\n      dup4\n      mstore\n      swap2\n      0x20\n      add\n      swap2\n      jump(tag_175)\n    tag_176:\n      dup3\n      add\n      swap2\n      swap1\n      0x00\n      mstore\n      keccak256(0x00, 0x20)\n      swap1\n    tag_177:\n      dup2\n      sload\n      dup2\n      mstore\n      swap1\n      0x01\n      add\n      swap1\n      0x20\n      add\n      dup1\n      dup4\n      gt\n      tag_177\n      jumpi\n      dup3\n      swap1\n      sub\n      0x1f\n      and\n      dup3\n      add\n      swap2\n    tag_175:\n      pop\n      pop\n      pop\n      pop\n      pop\n      swap1\n      pop\n      dup13\n      jump\t// out\n        /* \"DurianContract.sol\":5502:6043  function buyDurians (... */\n    tag_42:\n        /* \"DurianContract.sol\":5602:5615  string memory */\n      0x60\n        /* \"DurianContract.sol\":5631:5669  compare(durians[id].status, \"damaged\") */\n      tag_179\n        /* \"DurianContract.sol\":5639:5646  durians */\n      0x04\n        /* \"DurianContract.sol\":5647:5649  id */\n      dup4\n        /* \"DurianContract.sol\":5639:5650  durians[id] */\n      mload(0x40)\n      tag_180\n      swap2\n      swap1\n      tag_126\n      jump\t// in\n    tag_180:\n      swap1\n      dup2\n      mstore\n      0x20\n      add\n      mload(0x40)\n      dup1\n      swap2\n      sub\n      swap1\n      keccak256\n        /* \"DurianContract.sol\":5639:5657  durians[id].status */\n      0x0d\n      add\n        /* \"DurianContract.sol\":5631:5669  compare(durians[id].status, \"damaged\") */\n      dup1\n      sload\n      tag_181\n      swap1\n      tag_116\n      jump\t// in\n    tag_181:\n      dup1\n      0x1f\n      add\n      0x20\n      dup1\n      swap2\n      div\n      mul\n      0x20\n      add\n      mload(0x40)\n      swap1\n      dup2\n      add\n      0x40\n      mstore\n      dup1\n      swap3\n      swap2\n      swap1\n      dup2\n      dup2\n      mstore\n      0x20\n      add\n      dup3\n      dup1\n      sload\n      tag_182\n      swap1\n      tag_116\n      jump\t// in\n    tag_182:\n      dup1\n      iszero\n      tag_183\n      jumpi\n      dup1\n      0x1f\n      lt\n      tag_184\n      jumpi\n      0x0100\n      dup1\n      dup4\n      sload\n      div\n      mul\n      dup4\n      mstore\n      swap2\n      0x20\n      add\n      swap2\n      jump(tag_183)\n    tag_184:\n      dup3\n      add\n      swap2\n      swap1\n      0x00\n      mstore\n      keccak256(0x00, 0x20)\n      swap1\n    tag_185:\n      dup2\n      sload\n      dup2\n      mstore\n      swap1\n      0x01\n      add\n      swap1\n      0x20\n      add\n      dup1\n      dup4\n      gt\n      tag_185\n      jumpi\n      dup3\n      swap1\n      sub\n      0x1f\n      and\n      dup3\n      add\n      swap2\n    tag_183:\n      pop\n      pop\n      pop\n      pop\n      pop\n      mload(0x40)\n      dup1\n      0x40\n      add\n      0x40\n      mstore\n      dup1\n      0x07\n      dup2\n      mstore\n      0x20\n      add\n      0x64616d6167656400000000000000000000000000000000000000000000000000\n      dup2\n      mstore\n      pop\n        /* \"DurianContract.sol\":5631:5638  compare */\n      tag_121\n        /* \"DurianContract.sol\":5631:5669  compare(durians[id].status, \"damaged\") */\n      jump\t// in\n    tag_179:\n        /* \"DurianContract.sol\":5627:5748  if (compare(durians[id].status, \"damaged\")) {... */\n      iszero\n      tag_186\n      jumpi\n        /* \"DurianContract.sol\":5685:5737  return \"durian damaged please select another durian\" */\n      mload(0x40)\n      dup1\n      0x60\n      add\n      0x40\n      mstore\n      dup1\n      0x2b\n      dup2\n      mstore\n      0x20\n      add\n      data_2fe1bde1b84b10ebdbd3bbdfaafe37aec8f7c7d7968d28514693b7e0a6268ba1\n      0x2b\n      swap2\n      codecopy\n      swap1\n      pop\n      jump(tag_178)\n        /* \"DurianContract.sol\":5627:5748  if (compare(durians[id].status, \"damaged\")) {... */\n    tag_186:\n        /* \"DurianContract.sol\":5783:5784  0 */\n      0x00\n        /* \"DurianContract.sol\":5761:5768  durians */\n      0x04\n        /* \"DurianContract.sol\":5769:5771  id */\n      dup4\n        /* \"DurianContract.sol\":5761:5772  durians[id] */\n      mload(0x40)\n      tag_187\n      swap2\n      swap1\n      tag_126\n      jump\t// in\n    tag_187:\n      swap1\n      dup2\n      mstore\n      0x20\n      add\n      mload(0x40)\n      dup1\n      swap2\n      sub\n      swap1\n      keccak256\n        /* \"DurianContract.sol\":5761:5779  durians[id].weight */\n      0x02\n      add\n      sload\n        /* \"DurianContract.sol\":5761:5784  durians[id].weight == 0 */\n      sub\n        /* \"DurianContract.sol\":5757:5836  if (durians[id].weight == 0) {... */\n      tag_188\n      jumpi\n        /* \"DurianContract.sol\":5800:5825  return \"durian not found\" */\n      mload(0x40)\n      dup1\n      0x40\n      add\n      0x40\n      mstore\n      dup1\n      0x10\n      dup2\n      mstore\n      0x20\n      add\n      0x64757269616e206e6f7420666f756e6400000000000000000000000000000000\n      dup2\n      mstore\n      pop\n      swap1\n      pop\n      jump(tag_178)\n        /* \"DurianContract.sol\":5757:5836  if (durians[id].weight == 0) {... */\n    tag_188:\n        /* \"DurianContract.sol\":5888:5899  PricingList */\n      0x08\n        /* \"DurianContract.sol\":5900:5907  durians */\n      0x04\n        /* \"DurianContract.sol\":5908:5910  id */\n      dup4\n        /* \"DurianContract.sol\":5900:5911  durians[id] */\n      mload(0x40)\n      tag_189\n      swap2\n      swap1\n      tag_126\n      jump\t// in\n    tag_189:\n      swap1\n      dup2\n      mstore\n      0x20\n      add\n      mload(0x40)\n      dup1\n      swap2\n      sub\n      swap1\n      keccak256\n        /* \"DurianContract.sol\":5900:5919  durians[id].species */\n      0x01\n      add\n        /* \"DurianContract.sol\":5888:5920  PricingList[durians[id].species] */\n      mload(0x40)\n      tag_190\n      swap2\n      swap1\n      tag_191\n      jump\t// in\n    tag_190:\n      swap1\n      dup2\n      mstore\n      0x20\n      add\n      mload(0x40)\n      dup1\n      swap2\n      sub\n      swap1\n      keccak256\n        /* \"DurianContract.sol\":5888:5931  PricingList[durians[id].species].pricePerKG */\n      0x01\n      add\n      sload\n        /* \"DurianContract.sol\":5867:5874  durians */\n      0x04\n        /* \"DurianContract.sol\":5875:5877  id */\n      dup4\n        /* \"DurianContract.sol\":5867:5878  durians[id] */\n      mload(0x40)\n      tag_192\n      swap2\n      swap1\n      tag_126\n      jump\t// in\n    tag_192:\n      swap1\n      dup2\n      mstore\n      0x20\n      add\n      mload(0x40)\n      dup1\n      swap2\n      sub\n      swap1\n      keccak256\n        /* \"DurianContract.sol\":5867:5885  durians[id].weight */\n      0x02\n      add\n      sload\n        /* \"DurianContract.sol\":5867:5931  durians[id].weight * PricingList[durians[id].species].pricePerKG */\n      tag_193\n      swap2\n      swap1\n      tag_194\n      jump\t// in\n    tag_193:\n        /* \"DurianContract.sol\":5853:5862  msg.value */\n      callvalue\n        /* \"DurianContract.sol\":5853:5932  msg.value >= (durians[id].weight * PricingList[durians[id].species].pricePerKG) */\n      lt\n      iszero\n        /* \"DurianContract.sol\":5845:5933  require(msg.value >= (durians[id].weight * PricingList[durians[id].species].pricePerKG)) */\n      tag_195\n      jumpi\n      0x00\n      dup1\n      revert\n    tag_195:\n        /* \"DurianContract.sol\":5943:5952  ownerFarm */\n      0x00\n      dup1\n      sload\n      swap1\n      0x0100\n      exp\n      swap1\n      div\n      0xffffffffffffffffffffffffffffffffffffffff\n      and\n        /* \"DurianContract.sol\":5943:5961  ownerFarm.transfer */\n      0xffffffffffffffffffffffffffffffffffffffff\n      and\n        /* \"DurianContract.sol\":5943:5972  ownerFarm.transfer(msg.value) */\n      0x08fc\n        /* \"DurianContract.sol\":5962:5971  msg.value */\n      callvalue\n        /* \"DurianContract.sol\":5943:5972  ownerFarm.transfer(msg.value) */\n      swap1\n      dup2\n      iszero\n      mul\n      swap1\n      mload(0x40)\n      0x00\n      mload(0x40)\n      dup1\n      dup4\n      sub\n      dup2\n      dup6\n      dup9\n      dup9\n      call\n      swap4\n      pop\n      pop\n      pop\n      pop\n      iszero\n      dup1\n      iszero\n      tag_197\n      jumpi\n      returndatasize\n      0x00\n      dup1\n      returndatacopy\n      revert(0x00, returndatasize)\n    tag_197:\n      pop\n        /* \"DurianContract.sol\":6002:6007  buyer */\n      dup3\n        /* \"DurianContract.sol\":5982:5989  durians */\n      0x04\n        /* \"DurianContract.sol\":5990:5992  id */\n      dup4\n        /* \"DurianContract.sol\":5982:5993  durians[id] */\n      mload(0x40)\n      tag_198\n      swap2\n      swap1\n      tag_126\n      jump\t// in\n    tag_198:\n      swap1\n      dup2\n      mstore\n      0x20\n      add\n      mload(0x40)\n      dup1\n      swap2\n      sub\n      swap1\n      keccak256\n        /* \"DurianContract.sol\":5982:5999  durians[id].owner */\n      0x07\n      add\n      0x00\n        /* \"DurianContract.sol\":5982:6007  durians[id].owner = buyer */\n      0x0100\n      exp\n      dup2\n      sload\n      dup2\n      0xffffffffffffffffffffffffffffffffffffffff\n      mul\n      not\n      and\n      swap1\n      dup4\n      0xffffffffffffffffffffffffffffffffffffffff\n      and\n      mul\n      or\n      swap1\n      sstore\n      pop\n        /* \"DurianContract.sol\":6017:6036  return \"successful\" */\n      mload(0x40)\n      dup1\n      0x40\n      add\n      0x40\n      mstore\n      dup1\n      0x0a\n      dup2\n      mstore\n      0x20\n      add\n      0x7375636365737366756c00000000000000000000000000000000000000000000\n      dup2\n      mstore\n      pop\n      swap1\n      pop\n        /* \"DurianContract.sol\":5502:6043  function buyDurians (... */\n    tag_178:\n      swap3\n      swap2\n      pop\n      pop\n      jump\t// out\n        /* \"DurianContract.sol\":3746:4326  function addDurian(... */\n    tag_49:\n        /* \"DurianContract.sol\":885:933  compare(staffs[msg.sender].title, \"Farm Worker\") */\n      tag_200\n        /* \"DurianContract.sol\":893:899  staffs */\n      0x03\n        /* \"DurianContract.sol\":893:911  staffs[msg.sender] */\n      0x00\n        /* \"DurianContract.sol\":900:910  msg.sender */\n      caller\n        /* \"DurianContract.sol\":893:911  staffs[msg.sender] */\n      0xffffffffffffffffffffffffffffffffffffffff\n      and\n      0xffffffffffffffffffffffffffffffffffffffff\n      and\n      dup2\n      mstore\n      0x20\n      add\n      swap1\n      dup2\n      mstore\n      0x20\n      add\n      0x00\n      keccak256\n        /* \"DurianContract.sol\":893:917  staffs[msg.sender].title */\n      0x03\n      add\n        /* \"DurianContract.sol\":885:933  compare(staffs[msg.sender].title, \"Farm Worker\") */\n      dup1\n      sload\n      tag_201\n      swap1\n      tag_116\n      jump\t// in\n    tag_201:\n      dup1\n      0x1f\n      add\n      0x20\n      dup1\n      swap2\n      div\n      mul\n      0x20\n      add\n      mload(0x40)\n      swap1\n      dup2\n      add\n      0x40\n      mstore\n      dup1\n      swap3\n      swap2\n      swap1\n      dup2\n      dup2\n      mstore\n      0x20\n      add\n      dup3\n      dup1\n      sload\n      tag_202\n      swap1\n      tag_116\n      jump\t// in\n    tag_202:\n      dup1\n      iszero\n      tag_203\n      jumpi\n      dup1\n      0x1f\n      lt\n      tag_204\n      jumpi\n      0x0100\n      dup1\n      dup4\n      sload\n      div\n      mul\n      dup4\n      mstore\n      swap2\n      0x20\n      add\n      swap2\n      jump(tag_203)\n    tag_204:\n      dup3\n      add\n      swap2\n      swap1\n      0x00\n      mstore\n      keccak256(0x00, 0x20)\n      swap1\n    tag_205:\n      dup2\n      sload\n      dup2\n      mstore\n      swap1\n      0x01\n      add\n      swap1\n      0x20\n      add\n      dup1\n      dup4\n      gt\n      tag_205\n      jumpi\n      dup3\n      swap1\n      sub\n      0x1f\n      and\n      dup3\n      add\n      swap2\n    tag_203:\n      pop\n      pop\n      pop\n      pop\n      pop\n      mload(0x40)\n      dup1\n      0x40\n      add\n      0x40\n      mstore\n      dup1\n      0x0b\n      dup2\n      mstore\n      0x20\n      add\n      0x4661726d20576f726b6572000000000000000000000000000000000000000000\n      dup2\n      mstore\n      pop\n        /* \"DurianContract.sol\":885:892  compare */\n      tag_121\n        /* \"DurianContract.sol\":885:933  compare(staffs[msg.sender].title, \"Farm Worker\") */\n      jump\t// in\n    tag_200:\n        /* \"DurianContract.sol\":885:960  compare(staffs[msg.sender].title, \"Farm Worker\")||(msg.sender == ownerFarm) */\n      dup1\n      tag_206\n      jumpi\n      pop\n        /* \"DurianContract.sol\":950:959  ownerFarm */\n      0x00\n      dup1\n      sload\n      swap1\n      0x0100\n      exp\n      swap1\n      div\n      0xffffffffffffffffffffffffffffffffffffffff\n      and\n        /* \"DurianContract.sol\":936:959  msg.sender == ownerFarm */\n      0xffffffffffffffffffffffffffffffffffffffff\n      and\n        /* \"DurianContract.sol\":936:946  msg.sender */\n      caller\n        /* \"DurianContract.sol\":936:959  msg.sender == ownerFarm */\n      0xffffffffffffffffffffffffffffffffffffffff\n      and\n      eq\n        /* \"DurianContract.sol\":885:960  compare(staffs[msg.sender].title, \"Farm Worker\")||(msg.sender == ownerFarm) */\n    tag_206:\n        /* \"DurianContract.sol\":877:961  require(compare(staffs[msg.sender].title, \"Farm Worker\")||(msg.sender == ownerFarm)) */\n      tag_207\n      jumpi\n      0x00\n      dup1\n      revert\n    tag_207:\n        /* \"DurianContract.sol\":3996:4296  Durian(... */\n      mload(0x40)\n      dup1\n      0x0180\n      add\n      0x40\n      mstore\n      dup1\n        /* \"DurianContract.sol\":4016:4018  id */\n      dup8\n        /* \"DurianContract.sol\":3996:4296  Durian(... */\n      dup2\n      mstore\n      0x20\n      add\n        /* \"DurianContract.sol\":4033:4040  species */\n      dup7\n        /* \"DurianContract.sol\":3996:4296  Durian(... */\n      dup2\n      mstore\n      0x20\n      add\n        /* \"DurianContract.sol\":4055:4061  weight */\n      dup6\n        /* \"DurianContract.sol\":3996:4296  Durian(... */\n      dup2\n      mstore\n      0x20\n      add\n        /* \"DurianContract.sol\":4076:4095  harvested_date_time */\n      dup5\n        /* \"DurianContract.sol\":3996:4296  Durian(... */\n      dup2\n      mstore\n      0x20\n      add\n        /* \"DurianContract.sol\":4110:4120  msg.sender */\n      caller\n        /* \"DurianContract.sol\":3996:4296  Durian(... */\n      0xffffffffffffffffffffffffffffffffffffffff\n      and\n      dup2\n      mstore\n      0x20\n      add\n        /* \"DurianContract.sol\":4135:4147  harvest_tree */\n      dup4\n        /* \"DurianContract.sol\":3996:4296  Durian(... */\n      dup2\n      mstore\n      0x20\n      add\n        /* \"DurianContract.sol\":4162:4174  harvest_farm */\n      dup3\n        /* \"DurianContract.sol\":3996:4296  Durian(... */\n      dup2\n      mstore\n      0x20\n      add\n        /* \"DurianContract.sol\":4188:4197  ownerFarm */\n      0x00\n      dup1\n      sload\n      swap1\n      0x0100\n      exp\n      swap1\n      div\n      0xffffffffffffffffffffffffffffffffffffffff\n      and\n        /* \"DurianContract.sol\":3996:4296  Durian(... */\n      0xffffffffffffffffffffffffffffffffffffffff\n      and\n      dup2\n      mstore\n      0x20\n      add\n        /* \"DurianContract.sol\":4211:4224  defaultDurian */\n      0x05\n        /* \"DurianContract.sol\":3996:4296  Durian(... */\n      mload(0x40)\n      dup1\n      0xc0\n      add\n      0x40\n      mstore\n      swap1\n      dup2\n      0x00\n      dup3\n      add\n      dup1\n      sload\n      tag_209\n      swap1\n      tag_116\n      jump\t// in\n    tag_209:\n      dup1\n      0x1f\n      add\n      0x20\n      dup1\n      swap2\n      div\n      mul\n      0x20\n      add\n      mload(0x40)\n      swap1\n      dup2\n      add\n      0x40\n      mstore\n      dup1\n      swap3\n      swap2\n      swap1\n      dup2\n      dup2\n      mstore\n      0x20\n      add\n      dup3\n      dup1\n      sload\n      tag_210\n      swap1\n      tag_116\n      jump\t// in\n    tag_210:\n      dup1\n      iszero\n      tag_211\n      jumpi\n      dup1\n      0x1f\n      lt\n      tag_212\n      jumpi\n      0x0100\n      dup1\n      dup4\n      sload\n      div\n      mul\n      dup4\n      mstore\n      swap2\n      0x20\n      add\n      swap2\n      jump(tag_211)\n    tag_212:\n      dup3\n      add\n      swap2\n      swap1\n      0x00\n      mstore\n      keccak256(0x00, 0x20)\n      swap1\n    tag_213:\n      dup2\n      sload\n      dup2\n      mstore\n      swap1\n      0x01\n      add\n      swap1\n      0x20\n      add\n      dup1\n      dup4\n      gt\n      tag_213\n      jumpi\n      dup3\n      swap1\n      sub\n      0x1f\n      and\n      dup3\n      add\n      swap2\n    tag_211:\n      pop\n      pop\n      pop\n      pop\n      pop\n      dup2\n      mstore\n      0x20\n      add\n      0x01\n      dup3\n      add\n      dup1\n      sload\n      tag_214\n      swap1\n      tag_116\n      jump\t// in\n    tag_214:\n      dup1\n      0x1f\n      add\n      0x20\n      dup1\n      swap2\n      div\n      mul\n      0x20\n      add\n      mload(0x40)\n      swap1\n      dup2\n      add\n      0x40\n      mstore\n      dup1\n      swap3\n      swap2\n      swap1\n      dup2\n      dup2\n      mstore\n      0x20\n      add\n      dup3\n      dup1\n      sload\n      tag_215\n      swap1\n      tag_116\n      jump\t// in\n    tag_215:\n      dup1\n      iszero\n      tag_216\n      jumpi\n      dup1\n      0x1f\n      lt\n      tag_217\n      jumpi\n      0x0100\n      dup1\n      dup4\n      sload\n      div\n      mul\n      dup4\n      mstore\n      swap2\n      0x20\n      add\n      swap2\n      jump(tag_216)\n    tag_217:\n      dup3\n      add\n      swap2\n      swap1\n      0x00\n      mstore\n      keccak256(0x00, 0x20)\n      swap1\n    tag_218:\n      dup2\n      sload\n      dup2\n      mstore\n      swap1\n      0x01\n      add\n      swap1\n      0x20\n      add\n      dup1\n      dup4\n      gt\n      tag_218\n      jumpi\n      dup3\n      swap1\n      sub\n      0x1f\n      and\n      dup3\n      add\n      swap2\n    tag_216:\n      pop\n      pop\n      pop\n      pop\n      pop\n      dup2\n      mstore\n      0x20\n      add\n      0x02\n      dup3\n      add\n      0x00\n      swap1\n      sload\n      swap1\n      0x0100\n      exp\n      swap1\n      div\n      0xff\n      and\n      0x04\n      dup2\n      gt\n      iszero\n      tag_219\n      jumpi\n      tag_220\n      tag_153\n      jump\t// in\n    tag_220:\n    tag_219:\n      0x04\n      dup2\n      gt\n      iszero\n      tag_221\n      jumpi\n      tag_222\n      tag_153\n      jump\t// in\n    tag_222:\n    tag_221:\n      dup2\n      mstore\n      0x20\n      add\n      0x02\n      dup3\n      add\n      0x01\n      swap1\n      sload\n      swap1\n      0x0100\n      exp\n      swap1\n      div\n      0xff\n      and\n      0x04\n      dup2\n      gt\n      iszero\n      tag_223\n      jumpi\n      tag_224\n      tag_153\n      jump\t// in\n    tag_224:\n    tag_223:\n      0x04\n      dup2\n      gt\n      iszero\n      tag_225\n      jumpi\n      tag_226\n      tag_153\n      jump\t// in\n    tag_226:\n    tag_225:\n      dup2\n      mstore\n      0x20\n      add\n      0x02\n      dup3\n      add\n      0x02\n      swap1\n      sload\n      swap1\n      0x0100\n      exp\n      swap1\n      div\n      0xff\n      and\n      0x04\n      dup2\n      gt\n      iszero\n      tag_227\n      jumpi\n      tag_228\n      tag_153\n      jump\t// in\n    tag_228:\n    tag_227:\n      0x04\n      dup2\n      gt\n      iszero\n      tag_229\n      jumpi\n      tag_230\n      tag_153\n      jump\t// in\n    tag_230:\n    tag_229:\n      dup2\n      mstore\n      0x20\n      add\n      0x02\n      dup3\n      add\n      0x03\n      swap1\n      sload\n      swap1\n      0x0100\n      exp\n      swap1\n      div\n      0xff\n      and\n      0x04\n      dup2\n      gt\n      iszero\n      tag_231\n      jumpi\n      tag_232\n      tag_153\n      jump\t// in\n    tag_232:\n    tag_231:\n      0x04\n      dup2\n      gt\n      iszero\n      tag_233\n      jumpi\n      tag_234\n      tag_153\n      jump\t// in\n    tag_234:\n    tag_233:\n      dup2\n      mstore\n      pop\n      pop\n      dup2\n      mstore\n      0x20\n      add\n      mload(0x40)\n      dup1\n      0x40\n      add\n      0x40\n      mstore\n      dup1\n      0x04\n      dup2\n      mstore\n      0x20\n      add\n      0x6661726d00000000000000000000000000000000000000000000000000000000\n      dup2\n      mstore\n      pop\n      dup2\n      mstore\n      0x20\n      add\n        /* \"DurianContract.sol\":4258:4263  false */\n      0x00\n        /* \"DurianContract.sol\":3996:4296  Durian(... */\n      iszero\n      iszero\n      dup2\n      mstore\n      0x20\n      add\n      mload(0x40)\n      dup1\n      0x40\n      add\n      0x40\n      mstore\n      dup1\n      0x07\n      dup2\n      mstore\n      0x20\n      add\n      0x7065726665637400000000000000000000000000000000000000000000000000\n      dup2\n      mstore\n      pop\n      dup2\n      mstore\n      pop\n        /* \"DurianContract.sol\":3982:3989  durians */\n      0x04\n        /* \"DurianContract.sol\":3990:3992  id */\n      dup8\n        /* \"DurianContract.sol\":3982:3993  durians[id] */\n      mload(0x40)\n      tag_235\n      swap2\n      swap1\n      tag_126\n      jump\t// in\n    tag_235:\n      swap1\n      dup2\n      mstore\n      0x20\n      add\n      mload(0x40)\n      dup1\n      swap2\n      sub\n      swap1\n      keccak256\n        /* \"DurianContract.sol\":3982:4296  durians[id] = Durian(... */\n      0x00\n      dup3\n      add\n      mload\n      dup2\n      0x00\n      add\n      swap1\n      dup2\n      tag_236\n      swap2\n      swap1\n      tag_128\n      jump\t// in\n    tag_236:\n      pop\n      0x20\n      dup3\n      add\n      mload\n      dup2\n      0x01\n      add\n      swap1\n      dup2\n      tag_237\n      swap2\n      swap1\n      tag_128\n      jump\t// in\n    tag_237:\n      pop\n      0x40\n      dup3\n      add\n      mload\n      dup2\n      0x02\n      add\n      sstore\n      0x60\n      dup3\n      add\n      mload\n      dup2\n      0x03\n      add\n      sstore\n      0x80\n      dup3\n      add\n      mload\n      dup2\n      0x04\n      add\n      exp(0x0100, 0x00)\n      dup2\n      sload\n      dup2\n      0xffffffffffffffffffffffffffffffffffffffff\n      mul\n      not\n      and\n      swap1\n      dup4\n      0xffffffffffffffffffffffffffffffffffffffff\n      and\n      mul\n      or\n      swap1\n      sstore\n      pop\n      0xa0\n      dup3\n      add\n      mload\n      dup2\n      0x05\n      add\n      sstore\n      0xc0\n      dup3\n      add\n      mload\n      dup2\n      0x06\n      add\n      sstore\n      0xe0\n      dup3\n      add\n      mload\n      dup2\n      0x07\n      add\n      exp(0x0100, 0x00)\n      dup2\n      sload\n      dup2\n      0xffffffffffffffffffffffffffffffffffffffff\n      mul\n      not\n      and\n      swap1\n      dup4\n      0xffffffffffffffffffffffffffffffffffffffff\n      and\n      mul\n      or\n      swap1\n      sstore\n      pop\n      0x0100\n      dup3\n      add\n      mload\n      dup2\n      0x08\n      add\n      0x00\n      dup3\n      add\n      mload\n      dup2\n      0x00\n      add\n      swap1\n      dup2\n      tag_238\n      swap2\n      swap1\n      tag_128\n      jump\t// in\n    tag_238:\n      pop\n      0x20\n      dup3\n      add\n      mload\n      dup2\n      0x01\n      add\n      swap1\n      dup2\n      tag_239\n      swap2\n      swap1\n      tag_128\n      jump\t// in\n    tag_239:\n      pop\n      0x40\n      dup3\n      add\n      mload\n      dup2\n      0x02\n      add\n      exp(0x0100, 0x00)\n      dup2\n      sload\n      dup2\n      0xff\n      mul\n      not\n      and\n      swap1\n      dup4\n      0x04\n      dup2\n      gt\n      iszero\n      tag_240\n      jumpi\n      tag_241\n      tag_153\n      jump\t// in\n    tag_241:\n    tag_240:\n      mul\n      or\n      swap1\n      sstore\n      pop\n      0x60\n      dup3\n      add\n      mload\n      dup2\n      0x02\n      add\n      exp(0x0100, 0x01)\n      dup2\n      sload\n      dup2\n      0xff\n      mul\n      not\n      and\n      swap1\n      dup4\n      0x04\n      dup2\n      gt\n      iszero\n      tag_242\n      jumpi\n      tag_243\n      tag_153\n      jump\t// in\n    tag_243:\n    tag_242:\n      mul\n      or\n      swap1\n      sstore\n      pop\n      0x80\n      dup3\n      add\n      mload\n      dup2\n      0x02\n      add\n      exp(0x0100, 0x02)\n      dup2\n      sload\n      dup2\n      0xff\n      mul\n      not\n      and\n      swap1\n      dup4\n      0x04\n      dup2\n      gt\n      iszero\n      tag_244\n      jumpi\n      tag_245\n      tag_153\n      jump\t// in\n    tag_245:\n    tag_244:\n      mul\n      or\n      swap1\n      sstore\n      pop\n      0xa0\n      dup3\n      add\n      mload\n      dup2\n      0x02\n      add\n      exp(0x0100, 0x03)\n      dup2\n      sload\n      dup2\n      0xff\n      mul\n      not\n      and\n      swap1\n      dup4\n      0x04\n      dup2\n      gt\n      iszero\n      tag_246\n      jumpi\n      tag_247\n      tag_153\n      jump\t// in\n    tag_247:\n    tag_246:\n      mul\n      or\n      swap1\n      sstore\n      pop\n      pop\n      pop\n      0x0120\n      dup3\n      add\n      mload\n      dup2\n      0x0b\n      add\n      swap1\n      dup2\n      tag_248\n      swap2\n      swap1\n      tag_128\n      jump\t// in\n    tag_248:\n      pop\n      0x0140\n      dup3\n      add\n      mload\n      dup2\n      0x0c\n      add\n      exp(0x0100, 0x00)\n      dup2\n      sload\n      dup2\n      0xff\n      mul\n      not\n      and\n      swap1\n      dup4\n      iszero\n      iszero\n      mul\n      or\n      swap1\n      sstore\n      pop\n      0x0160\n      dup3\n      add\n      mload\n      dup2\n      0x0d\n      add\n      swap1\n      dup2\n      tag_249\n      swap2\n      swap1\n      tag_128\n      jump\t// in\n    tag_249:\n      pop\n      swap1\n      pop\n      pop\n        /* \"DurianContract.sol\":4306:4317  durianCount */\n      0x01\n      0x00\n        /* \"DurianContract.sol\":4306:4319  durianCount++ */\n      dup2\n      sload\n      dup1\n      swap3\n      swap2\n      swap1\n      tag_250\n      swap1\n      tag_130\n      jump\t// in\n    tag_250:\n      swap2\n      swap1\n      pop\n      sstore\n      pop\n        /* \"DurianContract.sol\":3746:4326  function addDurian(... */\n      pop\n      pop\n      pop\n      pop\n      pop\n      pop\n      jump\t// out\n        /* \"DurianContract.sol\":105:137  address payable public ownerFarm */\n    tag_52:\n      0x00\n      dup1\n      sload\n      swap1\n      0x0100\n      exp\n      swap1\n      div\n      0xffffffffffffffffffffffffffffffffffffffff\n      and\n      dup2\n      jump\t// out\n        /* \"DurianContract.sol\":175:200  uint256 public staffCount */\n    tag_57:\n      sload(0x02)\n      dup2\n      jump\t// out\n        /* \"DurianContract.sol\":6076:6592  function review(... */\n    tag_63:\n        /* \"DurianContract.sol\":6263:6270  durians */\n      0x04\n        /* \"DurianContract.sol\":6271:6273  id */\n      dup5\n        /* \"DurianContract.sol\":6263:6274  durians[id] */\n      mload(0x40)\n      tag_252\n      swap2\n      swap1\n      tag_126\n      jump\t// in\n    tag_252:\n      swap1\n      dup2\n      mstore\n      0x20\n      add\n      mload(0x40)\n      dup1\n      swap2\n      sub\n      swap1\n      keccak256\n        /* \"DurianContract.sol\":6263:6280  durians[id].owner */\n      0x07\n      add\n      0x00\n      swap1\n      sload\n      swap1\n      0x0100\n      exp\n      swap1\n      div\n      0xffffffffffffffffffffffffffffffffffffffff\n      and\n        /* \"DurianContract.sol\":6249:6280  msg.sender == durians[id].owner */\n      0xffffffffffffffffffffffffffffffffffffffff\n      and\n        /* \"DurianContract.sol\":6249:6259  msg.sender */\n      caller\n        /* \"DurianContract.sol\":6249:6280  msg.sender == durians[id].owner */\n      0xffffffffffffffffffffffffffffffffffffffff\n      and\n      sub\n        /* \"DurianContract.sol\":6245:6586  if (msg.sender == durians[id].owner) {... */\n      tag_253\n      jumpi\n        /* \"DurianContract.sol\":6318:6575  Reviews(... */\n      mload(0x40)\n      dup1\n      0xc0\n      add\n      0x40\n      mstore\n      dup1\n        /* \"DurianContract.sol\":6343:6357  personalReview */\n      dup5\n        /* \"DurianContract.sol\":6318:6575  Reviews(... */\n      dup2\n      mstore\n      0x20\n      add\n        /* \"DurianContract.sol\":6376:6381  color */\n      dup4\n        /* \"DurianContract.sol\":6318:6575  Reviews(... */\n      dup2\n      mstore\n      0x20\n      add\n        /* \"DurianContract.sol\":6400:6426  convertRatings(numbers[0]) */\n      tag_254\n        /* \"DurianContract.sol\":6415:6422  numbers */\n      dup4\n        /* \"DurianContract.sol\":6423:6424  0 */\n      0x00\n        /* \"DurianContract.sol\":6415:6425  numbers[0] */\n      0x04\n      dup2\n      lt\n      tag_255\n      jumpi\n      tag_256\n      tag_257\n      jump\t// in\n    tag_256:\n    tag_255:\n      0x20\n      mul\n      add\n      mload\n        /* \"DurianContract.sol\":6400:6414  convertRatings */\n      tag_258\n        /* \"DurianContract.sol\":6400:6426  convertRatings(numbers[0]) */\n      jump\t// in\n    tag_254:\n        /* \"DurianContract.sol\":6318:6575  Reviews(... */\n      0x04\n      dup2\n      gt\n      iszero\n      tag_259\n      jumpi\n      tag_260\n      tag_153\n      jump\t// in\n    tag_260:\n    tag_259:\n      dup2\n      mstore\n      0x20\n      add\n        /* \"DurianContract.sol\":6445:6471  convertRatings(numbers[1]) */\n      tag_261\n        /* \"DurianContract.sol\":6460:6467  numbers */\n      dup4\n        /* \"DurianContract.sol\":6468:6469  1 */\n      0x01\n        /* \"DurianContract.sol\":6460:6470  numbers[1] */\n      0x04\n      dup2\n      lt\n      tag_262\n      jumpi\n      tag_263\n      tag_257\n      jump\t// in\n    tag_263:\n    tag_262:\n      0x20\n      mul\n      add\n      mload\n        /* \"DurianContract.sol\":6445:6459  convertRatings */\n      tag_258\n        /* \"DurianContract.sol\":6445:6471  convertRatings(numbers[1]) */\n      jump\t// in\n    tag_261:\n        /* \"DurianContract.sol\":6318:6575  Reviews(... */\n      0x04\n      dup2\n      gt\n      iszero\n      tag_264\n      jumpi\n      tag_265\n      tag_153\n      jump\t// in\n    tag_265:\n    tag_264:\n      dup2\n      mstore\n      0x20\n      add\n        /* \"DurianContract.sol\":6490:6516  convertRatings(numbers[2]) */\n      tag_266\n        /* \"DurianContract.sol\":6505:6512  numbers */\n      dup4\n        /* \"DurianContract.sol\":6513:6514  2 */\n      0x02\n        /* \"DurianContract.sol\":6505:6515  numbers[2] */\n      0x04\n      dup2\n      lt\n      tag_267\n      jumpi\n      tag_268\n      tag_257\n      jump\t// in\n    tag_268:\n    tag_267:\n      0x20\n      mul\n      add\n      mload\n        /* \"DurianContract.sol\":6490:6504  convertRatings */\n      tag_258\n        /* \"DurianContract.sol\":6490:6516  convertRatings(numbers[2]) */\n      jump\t// in\n    tag_266:\n        /* \"DurianContract.sol\":6318:6575  Reviews(... */\n      0x04\n      dup2\n      gt\n      iszero\n      tag_269\n      jumpi\n      tag_270\n      tag_153\n      jump\t// in\n    tag_270:\n    tag_269:\n      dup2\n      mstore\n      0x20\n      add\n        /* \"DurianContract.sol\":6535:6561  convertRatings(numbers[3]) */\n      tag_271\n        /* \"DurianContract.sol\":6550:6557  numbers */\n      dup4\n        /* \"DurianContract.sol\":6558:6559  3 */\n      0x03\n        /* \"DurianContract.sol\":6550:6560  numbers[3] */\n      0x04\n      dup2\n      lt\n      tag_272\n      jumpi\n      tag_273\n      tag_257\n      jump\t// in\n    tag_273:\n    tag_272:\n      0x20\n      mul\n      add\n      mload\n        /* \"DurianContract.sol\":6535:6549  convertRatings */\n      tag_258\n        /* \"DurianContract.sol\":6535:6561  convertRatings(numbers[3]) */\n      jump\t// in\n    tag_271:\n        /* \"DurianContract.sol\":6318:6575  Reviews(... */\n      0x04\n      dup2\n      gt\n      iszero\n      tag_274\n      jumpi\n      tag_275\n      tag_153\n      jump\t// in\n    tag_275:\n    tag_274:\n      dup2\n      mstore\n      pop\n        /* \"DurianContract.sol\":6296:6303  durians */\n      0x04\n        /* \"DurianContract.sol\":6304:6306  id */\n      dup6\n        /* \"DurianContract.sol\":6296:6307  durians[id] */\n      mload(0x40)\n      tag_276\n      swap2\n      swap1\n      tag_126\n      jump\t// in\n    tag_276:\n      swap1\n      dup2\n      mstore\n      0x20\n      add\n      mload(0x40)\n      dup1\n      swap2\n      sub\n      swap1\n      keccak256\n        /* \"DurianContract.sol\":6296:6315  durians[id].reviews */\n      0x08\n      add\n        /* \"DurianContract.sol\":6296:6575  durians[id].reviews = Reviews(... */\n      0x00\n      dup3\n      add\n      mload\n      dup2\n      0x00\n      add\n      swap1\n      dup2\n      tag_277\n      swap2\n      swap1\n      tag_128\n      jump\t// in\n    tag_277:\n      pop\n      0x20\n      dup3\n      add\n      mload\n      dup2\n      0x01\n      add\n      swap1\n      dup2\n      tag_278\n      swap2\n      swap1\n      tag_128\n      jump\t// in\n    tag_278:\n      pop\n      0x40\n      dup3\n      add\n      mload\n      dup2\n      0x02\n      add\n      exp(0x0100, 0x00)\n      dup2\n      sload\n      dup2\n      0xff\n      mul\n      not\n      and\n      swap1\n      dup4\n      0x04\n      dup2\n      gt\n      iszero\n      tag_279\n      jumpi\n      tag_280\n      tag_153\n      jump\t// in\n    tag_280:\n    tag_279:\n      mul\n      or\n      swap1\n      sstore\n      pop\n      0x60\n      dup3\n      add\n      mload\n      dup2\n      0x02\n      add\n      exp(0x0100, 0x01)\n      dup2\n      sload\n      dup2\n      0xff\n      mul\n      not\n      and\n      swap1\n      dup4\n      0x04\n      dup2\n      gt\n      iszero\n      tag_281\n      jumpi\n      tag_282\n      tag_153\n      jump\t// in\n    tag_282:\n    tag_281:\n      mul\n      or\n      swap1\n      sstore\n      pop\n      0x80\n      dup3\n      add\n      mload\n      dup2\n      0x02\n      add\n      exp(0x0100, 0x02)\n      dup2\n      sload\n      dup2\n      0xff\n      mul\n      not\n      and\n      swap1\n      dup4\n      0x04\n      dup2\n      gt\n      iszero\n      tag_283\n      jumpi\n      tag_284\n      tag_153\n      jump\t// in\n    tag_284:\n    tag_283:\n      mul\n      or\n      swap1\n      sstore\n      pop\n      0xa0\n      dup3\n      add\n      mload\n      dup2\n      0x02\n      add\n      exp(0x0100, 0x03)\n      dup2\n      sload\n      dup2\n      0xff\n      mul\n      not\n      and\n      swap1\n      dup4\n      0x04\n      dup2\n      gt\n      iszero\n      tag_285\n      jumpi\n      tag_286\n      tag_153\n      jump\t// in\n    tag_286:\n    tag_285:\n      mul\n      or\n      swap1\n      sstore\n      pop\n      swap1\n      pop\n      pop\n        /* \"DurianContract.sol\":6245:6586  if (msg.sender == durians[id].owner) {... */\n    tag_253:\n        /* \"DurianContract.sol\":6076:6592  function review(... */\n      pop\n      pop\n      pop\n      pop\n      jump\t// out\n        /* \"DurianContract.sol\":6915:7027  function getDurianById(string memory id) public view returns (Durian memory) {... */\n    tag_67:\n        /* \"DurianContract.sol\":6977:6990  Durian memory */\n      tag_287\n      tag_288\n      jump\t// in\n    tag_287:\n        /* \"DurianContract.sol\":7009:7016  durians */\n      0x04\n        /* \"DurianContract.sol\":7017:7019  id */\n      dup3\n        /* \"DurianContract.sol\":7009:7020  durians[id] */\n      mload(0x40)\n      tag_290\n      swap2\n      swap1\n      tag_126\n      jump\t// in\n    tag_290:\n      swap1\n      dup2\n      mstore\n      0x20\n      add\n      mload(0x40)\n      dup1\n      swap2\n      sub\n      swap1\n      keccak256\n        /* \"DurianContract.sol\":7002:7020  return durians[id] */\n      mload(0x40)\n      dup1\n      0x0180\n      add\n      0x40\n      mstore\n      swap1\n      dup2\n      0x00\n      dup3\n      add\n      dup1\n      sload\n      tag_291\n      swap1\n      tag_116\n      jump\t// in\n    tag_291:\n      dup1\n      0x1f\n      add\n      0x20\n      dup1\n      swap2\n      div\n      mul\n      0x20\n      add\n      mload(0x40)\n      swap1\n      dup2\n      add\n      0x40\n      mstore\n      dup1\n      swap3\n      swap2\n      swap1\n      dup2\n      dup2\n      mstore\n      0x20\n      add\n      dup3\n      dup1\n      sload\n      tag_292\n      swap1\n      tag_116\n      jump\t// in\n    tag_292:\n      dup1\n      iszero\n      tag_293\n      jumpi\n      dup1\n      0x1f\n      lt\n      tag_294\n      jumpi\n      0x0100\n      dup1\n      dup4\n      sload\n      div\n      mul\n      dup4\n      mstore\n      swap2\n      0x20\n      add\n      swap2\n      jump(tag_293)\n    tag_294:\n      dup3\n      add\n      swap2\n      swap1\n      0x00\n      mstore\n      keccak256(0x00, 0x20)\n      swap1\n    tag_295:\n      dup2\n      sload\n      dup2\n      mstore\n      swap1\n      0x01\n      add\n      swap1\n      0x20\n      add\n      dup1\n      dup4\n      gt\n      tag_295\n      jumpi\n      dup3\n      swap1\n      sub\n      0x1f\n      and\n      dup3\n      add\n      swap2\n    tag_293:\n      pop\n      pop\n      pop\n      pop\n      pop\n      dup2\n      mstore\n      0x20\n      add\n      0x01\n      dup3\n      add\n      dup1\n      sload\n      tag_296\n      swap1\n      tag_116\n      jump\t// in\n    tag_296:\n      dup1\n      0x1f\n      add\n      0x20\n      dup1\n      swap2\n      div\n      mul\n      0x20\n      add\n      mload(0x40)\n      swap1\n      dup2\n      add\n      0x40\n      mstore\n      dup1\n      swap3\n      swap2\n      swap1\n      dup2\n      dup2\n      mstore\n      0x20\n      add\n      dup3\n      dup1\n      sload\n      tag_297\n      swap1\n      tag_116\n      jump\t// in\n    tag_297:\n      dup1\n      iszero\n      tag_298\n      jumpi\n      dup1\n      0x1f\n      lt\n      tag_299\n      jumpi\n      0x0100\n      dup1\n      dup4\n      sload\n      div\n      mul\n      dup4\n      mstore\n      swap2\n      0x20\n      add\n      swap2\n      jump(tag_298)\n    tag_299:\n      dup3\n      add\n      swap2\n      swap1\n      0x00\n      mstore\n      keccak256(0x00, 0x20)\n      swap1\n    tag_300:\n      dup2\n      sload\n      dup2\n      mstore\n      swap1\n      0x01\n      add\n      swap1\n      0x20\n      add\n      dup1\n      dup4\n      gt\n      tag_300\n      jumpi\n      dup3\n      swap1\n      sub\n      0x1f\n      and\n      dup3\n      add\n      swap2\n    tag_298:\n      pop\n      pop\n      pop\n      pop\n      pop\n      dup2\n      mstore\n      0x20\n      add\n      0x02\n      dup3\n      add\n      sload\n      dup2\n      mstore\n      0x20\n      add\n      0x03\n      dup3\n      add\n      sload\n      dup2\n      mstore\n      0x20\n      add\n      0x04\n      dup3\n      add\n      0x00\n      swap1\n      sload\n      swap1\n      0x0100\n      exp\n      swap1\n      div\n      0xffffffffffffffffffffffffffffffffffffffff\n      and\n      0xffffffffffffffffffffffffffffffffffffffff\n      and\n      0xffffffffffffffffffffffffffffffffffffffff\n      and\n      dup2\n      mstore\n      0x20\n      add\n      0x05\n      dup3\n      add\n      sload\n      dup2\n      mstore\n      0x20\n      add\n      0x06\n      dup3\n      add\n      sload\n      dup2\n      mstore\n      0x20\n      add\n      0x07\n      dup3\n      add\n      0x00\n      swap1\n      sload\n      swap1\n      0x0100\n      exp\n      swap1\n      div\n      0xffffffffffffffffffffffffffffffffffffffff\n      and\n      0xffffffffffffffffffffffffffffffffffffffff\n      and\n      0xffffffffffffffffffffffffffffffffffffffff\n      and\n      dup2\n      mstore\n      0x20\n      add\n      0x08\n      dup3\n      add\n      mload(0x40)\n      dup1\n      0xc0\n      add\n      0x40\n      mstore\n      swap1\n      dup2\n      0x00\n      dup3\n      add\n      dup1\n      sload\n      tag_301\n      swap1\n      tag_116\n      jump\t// in\n    tag_301:\n      dup1\n      0x1f\n      add\n      0x20\n      dup1\n      swap2\n      div\n      mul\n      0x20\n      add\n      mload(0x40)\n      swap1\n      dup2\n      add\n      0x40\n      mstore\n      dup1\n      swap3\n      swap2\n      swap1\n      dup2\n      dup2\n      mstore\n      0x20\n      add\n      dup3\n      dup1\n      sload\n      tag_302\n      swap1\n      tag_116\n      jump\t// in\n    tag_302:\n      dup1\n      iszero\n      tag_303\n      jumpi\n      dup1\n      0x1f\n      lt\n      tag_304\n      jumpi\n      0x0100\n      dup1\n      dup4\n      sload\n      div\n      mul\n      dup4\n      mstore\n      swap2\n      0x20\n      add\n      swap2\n      jump(tag_303)\n    tag_304:\n      dup3\n      add\n      swap2\n      swap1\n      0x00\n      mstore\n      keccak256(0x00, 0x20)\n      swap1\n    tag_305:\n      dup2\n      sload\n      dup2\n      mstore\n      swap1\n      0x01\n      add\n      swap1\n      0x20\n      add\n      dup1\n      dup4\n      gt\n      tag_305\n      jumpi\n      dup3\n      swap1\n      sub\n      0x1f\n      and\n      dup3\n      add\n      swap2\n    tag_303:\n      pop\n      pop\n      pop\n      pop\n      pop\n      dup2\n      mstore\n      0x20\n      add\n      0x01\n      dup3\n      add\n      dup1\n      sload\n      tag_306\n      swap1\n      tag_116\n      jump\t// in\n    tag_306:\n      dup1\n      0x1f\n      add\n      0x20\n      dup1\n      swap2\n      div\n      mul\n      0x20\n      add\n      mload(0x40)\n      swap1\n      dup2\n      add\n      0x40\n      mstore\n      dup1\n      swap3\n      swap2\n      swap1\n      dup2\n      dup2\n      mstore\n      0x20\n      add\n      dup3\n      dup1\n      sload\n      tag_307\n      swap1\n      tag_116\n      jump\t// in\n    tag_307:\n      dup1\n      iszero\n      tag_308\n      jumpi\n      dup1\n      0x1f\n      lt\n      tag_309\n      jumpi\n      0x0100\n      dup1\n      dup4\n      sload\n      div\n      mul\n      dup4\n      mstore\n      swap2\n      0x20\n      add\n      swap2\n      jump(tag_308)\n    tag_309:\n      dup3\n      add\n      swap2\n      swap1\n      0x00\n      mstore\n      keccak256(0x00, 0x20)\n      swap1\n    tag_310:\n      dup2\n      sload\n      dup2\n      mstore\n      swap1\n      0x01\n      add\n      swap1\n      0x20\n      add\n      dup1\n      dup4\n      gt\n      tag_310\n      jumpi\n      dup3\n      swap1\n      sub\n      0x1f\n      and\n      dup3\n      add\n      swap2\n    tag_308:\n      pop\n      pop\n      pop\n      pop\n      pop\n      dup2\n      mstore\n      0x20\n      add\n      0x02\n      dup3\n      add\n      0x00\n      swap1\n      sload\n      swap1\n      0x0100\n      exp\n      swap1\n      div\n      0xff\n      and\n      0x04\n      dup2\n      gt\n      iszero\n      tag_311\n      jumpi\n      tag_312\n      tag_153\n      jump\t// in\n    tag_312:\n    tag_311:\n      0x04\n      dup2\n      gt\n      iszero\n      tag_313\n      jumpi\n      tag_314\n      tag_153\n      jump\t// in\n    tag_314:\n    tag_313:\n      dup2\n      mstore\n      0x20\n      add\n      0x02\n      dup3\n      add\n      0x01\n      swap1\n      sload\n      swap1\n      0x0100\n      exp\n      swap1\n      div\n      0xff\n      and\n      0x04\n      dup2\n      gt\n      iszero\n      tag_315\n      jumpi\n      tag_316\n      tag_153\n      jump\t// in\n    tag_316:\n    tag_315:\n      0x04\n      dup2\n      gt\n      iszero\n      tag_317\n      jumpi\n      tag_318\n      tag_153\n      jump\t// in\n    tag_318:\n    tag_317:\n      dup2\n      mstore\n      0x20\n      add\n      0x02\n      dup3\n      add\n      0x02\n      swap1\n      sload\n      swap1\n      0x0100\n      exp\n      swap1\n      div\n      0xff\n      and\n      0x04\n      dup2\n      gt\n      iszero\n      tag_319\n      jumpi\n      tag_320\n      tag_153\n      jump\t// in\n    tag_320:\n    tag_319:\n      0x04\n      dup2\n      gt\n      iszero\n      tag_321\n      jumpi\n      tag_322\n      tag_153\n      jump\t// in\n    tag_322:\n    tag_321:\n      dup2\n      mstore\n      0x20\n      add\n      0x02\n      dup3\n      add\n      0x03\n      swap1\n      sload\n      swap1\n      0x0100\n      exp\n      swap1\n      div\n      0xff\n      and\n      0x04\n      dup2\n      gt\n      iszero\n      tag_323\n      jumpi\n      tag_324\n      tag_153\n      jump\t// in\n    tag_324:\n    tag_323:\n      0x04\n      dup2\n      gt\n      iszero\n      tag_325\n      jumpi\n      tag_326\n      tag_153\n      jump\t// in\n    tag_326:\n    tag_325:\n      dup2\n      mstore\n      pop\n      pop\n      dup2\n      mstore\n      0x20\n      add\n      0x0b\n      dup3\n      add\n      dup1\n      sload\n      tag_327\n      swap1\n      tag_116\n      jump\t// in\n    tag_327:\n      dup1\n      0x1f\n      add\n      0x20\n      dup1\n      swap2\n      div\n      mul\n      0x20\n      add\n      mload(0x40)\n      swap1\n      dup2\n      add\n      0x40\n      mstore\n      dup1\n      swap3\n      swap2\n      swap1\n      dup2\n      dup2\n      mstore\n      0x20\n      add\n      dup3\n      dup1\n      sload\n      tag_328\n      swap1\n      tag_116\n      jump\t// in\n    tag_328:\n      dup1\n      iszero\n      tag_329\n      jumpi\n      dup1\n      0x1f\n      lt\n      tag_330\n      jumpi\n      0x0100\n      dup1\n      dup4\n      sload\n      div\n      mul\n      dup4\n      mstore\n      swap2\n      0x20\n      add\n      swap2\n      jump(tag_329)\n    tag_330:\n      dup3\n      add\n      swap2\n      swap1\n      0x00\n      mstore\n      keccak256(0x00, 0x20)\n      swap1\n    tag_331:\n      dup2\n      sload\n      dup2\n      mstore\n      swap1\n      0x01\n      add\n      swap1\n      0x20\n      add\n      dup1\n      dup4\n      gt\n      tag_331\n      jumpi\n      dup3\n      swap1\n      sub\n      0x1f\n      and\n      dup3\n      add\n      swap2\n    tag_329:\n      pop\n      pop\n      pop\n      pop\n      pop\n      dup2\n      mstore\n      0x20\n      add\n      0x0c\n      dup3\n      add\n      0x00\n      swap1\n      sload\n      swap1\n      0x0100\n      exp\n      swap1\n      div\n      0xff\n      and\n      iszero\n      iszero\n      iszero\n      iszero\n      dup2\n      mstore\n      0x20\n      add\n      0x0d\n      dup3\n      add\n      dup1\n      sload\n      tag_332\n      swap1\n      tag_116\n      jump\t// in\n    tag_332:\n      dup1\n      0x1f\n      add\n      0x20\n      dup1\n      swap2\n      div\n      mul\n      0x20\n      add\n      mload(0x40)\n      swap1\n      dup2\n      add\n      0x40\n      mstore\n      dup1\n      swap3\n      swap2\n      swap1\n      dup2\n      dup2\n      mstore\n      0x20\n      add\n      dup3\n      dup1\n      sload\n      tag_333\n      swap1\n      tag_116\n      jump\t// in\n    tag_333:\n      dup1\n      iszero\n      tag_334\n      jumpi\n      dup1\n      0x1f\n      lt\n      tag_335\n      jumpi\n      0x0100\n      dup1\n      dup4\n      sload\n      div\n      mul\n      dup4\n      mstore\n      swap2\n      0x20\n      add\n      swap2\n      jump(tag_334)\n    tag_335:\n      dup3\n      add\n      swap2\n      swap1\n      0x00\n      mstore\n      keccak256(0x00, 0x20)\n      swap1\n    tag_336:\n      dup2\n      sload\n      dup2\n      mstore\n      swap1\n      0x01\n      add\n      swap1\n      0x20\n      add\n      dup1\n      dup4\n      gt\n      tag_336\n      jumpi\n      dup3\n      swap1\n      sub\n      0x1f\n      and\n      dup3\n      add\n      swap2\n    tag_334:\n      pop\n      pop\n      pop\n      pop\n      pop\n      dup2\n      mstore\n      pop\n      pop\n      swap1\n      pop\n        /* \"DurianContract.sol\":6915:7027  function getDurianById(string memory id) public view returns (Durian memory) {... */\n      swap2\n      swap1\n      pop\n      jump\t// out\n        /* \"DurianContract.sol\":6656:6748  function getTotalDurians() public view returns (uint256) {... */\n    tag_72:\n        /* \"DurianContract.sol\":6704:6711  uint256 */\n      0x00\n        /* \"DurianContract.sol\":6730:6741  durianCount */\n      sload(0x01)\n        /* \"DurianContract.sol\":6723:6741  return durianCount */\n      swap1\n      pop\n        /* \"DurianContract.sol\":6656:6748  function getTotalDurians() public view returns (uint256) {... */\n      swap1\n      jump\t// out\n        /* \"DurianContract.sol\":2713:2764  mapping (string => SpeciesPrice) public PricingList */\n    tag_77:\n      0x08\n      dup2\n      dup1\n      mload\n      0x20\n      dup2\n      add\n      dup3\n      add\n      dup1\n      mload\n      dup5\n      dup3\n      mstore\n      0x20\n      dup4\n      add\n      0x20\n      dup6\n      add\n      keccak256\n      dup2\n      dup4\n      mstore\n      dup1\n      swap6\n      pop\n      pop\n      pop\n      pop\n      pop\n      pop\n      0x00\n      swap2\n      pop\n      swap1\n      pop\n      dup1\n      0x00\n      add\n      dup1\n      sload\n      tag_338\n      swap1\n      tag_116\n      jump\t// in\n    tag_338:\n      dup1\n      0x1f\n      add\n      0x20\n      dup1\n      swap2\n      div\n      mul\n      0x20\n      add\n      mload(0x40)\n      swap1\n      dup2\n      add\n      0x40\n      mstore\n      dup1\n      swap3\n      swap2\n      swap1\n      dup2\n      dup2\n      mstore\n      0x20\n      add\n      dup3\n      dup1\n      sload\n      tag_339\n      swap1\n      tag_116\n      jump\t// in\n    tag_339:\n      dup1\n      iszero\n      tag_340\n      jumpi\n      dup1\n      0x1f\n      lt\n      tag_341\n      jumpi\n      0x0100\n      dup1\n      dup4\n      sload\n      div\n      mul\n      dup4\n      mstore\n      swap2\n      0x20\n      add\n      swap2\n      jump(tag_340)\n    tag_341:\n      dup3\n      add\n      swap2\n      swap1\n      0x00\n      mstore\n      keccak256(0x00, 0x20)\n      swap1\n    tag_342:\n      dup2\n      sload\n      dup2\n      mstore\n      swap1\n      0x01\n      add\n      swap1\n      0x20\n      add\n      dup1\n      dup4\n      gt\n      tag_342\n      jumpi\n      dup3\n      swap1\n      sub\n      0x1f\n      and\n      dup3\n      add\n      swap2\n    tag_340:\n      pop\n      pop\n      pop\n      pop\n      pop\n      swap1\n      dup1\n      0x01\n      add\n      sload\n      swap1\n      pop\n      dup3\n      jump\t// out\n        /* \"DurianContract.sol\":1551:1591  mapping (address => Staff) public staffs */\n    tag_84:\n      mstore(0x20, 0x03)\n      dup1\n      0x00\n      mstore\n      keccak256(0x00, 0x40)\n      0x00\n      swap2\n      pop\n      swap1\n      pop\n      dup1\n      0x00\n      add\n      0x00\n      swap1\n      sload\n      swap1\n      0x0100\n      exp\n      swap1\n      div\n      0xffffffffffffffffffffffffffffffffffffffff\n      and\n      swap1\n      dup1\n      0x01\n      add\n      sload\n      swap1\n      dup1\n      0x02\n      add\n      dup1\n      sload\n      tag_343\n      swap1\n      tag_116\n      jump\t// in\n    tag_343:\n      dup1\n      0x1f\n      add\n      0x20\n      dup1\n      swap2\n      div\n      mul\n      0x20\n      add\n      mload(0x40)\n      swap1\n      dup2\n      add\n      0x40\n      mstore\n      dup1\n      swap3\n      swap2\n      swap1\n      dup2\n      dup2\n      mstore\n      0x20\n      add\n      dup3\n      dup1\n      sload\n      tag_344\n      swap1\n      tag_116\n      jump\t// in\n    tag_344:\n      dup1\n      iszero\n      tag_345\n      jumpi\n      dup1\n      0x1f\n      lt\n      tag_346\n      jumpi\n      0x0100\n      dup1\n      dup4\n      sload\n      div\n      mul\n      dup4\n      mstore\n      swap2\n      0x20\n      add\n      swap2\n      jump(tag_345)\n    tag_346:\n      dup3\n      add\n      swap2\n      swap1\n      0x00\n      mstore\n      keccak256(0x00, 0x20)\n      swap1\n    tag_347:\n      dup2\n      sload\n      dup2\n      mstore\n      swap1\n      0x01\n      add\n      swap1\n      0x20\n      add\n      dup1\n      dup4\n      gt\n      tag_347\n      jumpi\n      dup3\n      swap1\n      sub\n      0x1f\n      and\n      dup3\n      add\n      swap2\n    tag_345:\n      pop\n      pop\n      pop\n      pop\n      pop\n      swap1\n      dup1\n      0x03\n      add\n      dup1\n      sload\n      tag_348\n      swap1\n      tag_116\n      jump\t// in\n    tag_348:\n      dup1\n      0x1f\n      add\n      0x20\n      dup1\n      swap2\n      div\n      mul\n      0x20\n      add\n      mload(0x40)\n      swap1\n      dup2\n      add\n      0x40\n      mstore\n      dup1\n      swap3\n      swap2\n      swap1\n      dup2\n      dup2\n      mstore\n      0x20\n      add\n      dup3\n      dup1\n      sload\n      tag_349\n      swap1\n      tag_116\n      jump\t// in\n    tag_349:\n      dup1\n      iszero\n      tag_350\n      jumpi\n      dup1\n      0x1f\n      lt\n      tag_351\n      jumpi\n      0x0100\n      dup1\n      dup4\n      sload\n      div\n      mul\n      dup4\n      mstore\n      swap2\n      0x20\n      add\n      swap2\n      jump(tag_350)\n    tag_351:\n      dup3\n      add\n      swap2\n      swap1\n      0x00\n      mstore\n      keccak256(0x00, 0x20)\n      swap1\n    tag_352:\n      dup2\n      sload\n      dup2\n      mstore\n      swap1\n      0x01\n      add\n      swap1\n      0x20\n      add\n      dup1\n      dup4\n      gt\n      tag_352\n      jumpi\n      dup3\n      swap1\n      sub\n      0x1f\n      and\n      dup3\n      add\n      swap2\n    tag_350:\n      pop\n      pop\n      pop\n      pop\n      pop\n      swap1\n      pop\n      dup5\n      jump\t// out\n        /* \"DurianContract.sol\":5078:5444  function receiveDurians(... */\n    tag_91:\n        /* \"DurianContract.sol\":5231:5235  bool */\n      0x00\n        /* \"DurianContract.sol\":423:479  compare(staffs[msg.sender].title, \"Distribution Worker\") */\n      tag_354\n        /* \"DurianContract.sol\":431:437  staffs */\n      0x03\n        /* \"DurianContract.sol\":431:449  staffs[msg.sender] */\n      0x00\n        /* \"DurianContract.sol\":438:448  msg.sender */\n      caller\n        /* \"DurianContract.sol\":431:449  staffs[msg.sender] */\n      0xffffffffffffffffffffffffffffffffffffffff\n      and\n      0xffffffffffffffffffffffffffffffffffffffff\n      and\n      dup2\n      mstore\n      0x20\n      add\n      swap1\n      dup2\n      mstore\n      0x20\n      add\n      0x00\n      keccak256\n        /* \"DurianContract.sol\":431:455  staffs[msg.sender].title */\n      0x03\n      add\n        /* \"DurianContract.sol\":423:479  compare(staffs[msg.sender].title, \"Distribution Worker\") */\n      dup1\n      sload\n      tag_355\n      swap1\n      tag_116\n      jump\t// in\n    tag_355:\n      dup1\n      0x1f\n      add\n      0x20\n      dup1\n      swap2\n      div\n      mul\n      0x20\n      add\n      mload(0x40)\n      swap1\n      dup2\n      add\n      0x40\n      mstore\n      dup1\n      swap3\n      swap2\n      swap1\n      dup2\n      dup2\n      mstore\n      0x20\n      add\n      dup3\n      dup1\n      sload\n      tag_356\n      swap1\n      tag_116\n      jump\t// in\n    tag_356:\n      dup1\n      iszero\n      tag_357\n      jumpi\n      dup1\n      0x1f\n      lt\n      tag_358\n      jumpi\n      0x0100\n      dup1\n      dup4\n      sload\n      div\n      mul\n      dup4\n      mstore\n      swap2\n      0x20\n      add\n      swap2\n      jump(tag_357)\n    tag_358:\n      dup3\n      add\n      swap2\n      swap1\n      0x00\n      mstore\n      keccak256(0x00, 0x20)\n      swap1\n    tag_359:\n      dup2\n      sload\n      dup2\n      mstore\n      swap1\n      0x01\n      add\n      swap1\n      0x20\n      add\n      dup1\n      dup4\n      gt\n      tag_359\n      jumpi\n      dup3\n      swap1\n      sub\n      0x1f\n      and\n      dup3\n      add\n      swap2\n    tag_357:\n      pop\n      pop\n      pop\n      pop\n      pop\n      mload(0x40)\n      dup1\n      0x40\n      add\n      0x40\n      mstore\n      dup1\n      0x13\n      dup2\n      mstore\n      0x20\n      add\n      0x446973747269627574696f6e20576f726b657200000000000000000000000000\n      dup2\n      mstore\n      pop\n        /* \"DurianContract.sol\":423:430  compare */\n      tag_121\n        /* \"DurianContract.sol\":423:479  compare(staffs[msg.sender].title, \"Distribution Worker\") */\n      jump\t// in\n    tag_354:\n        /* \"DurianContract.sol\":423:531  compare(staffs[msg.sender].title, \"Distribution Worker\")||compare(staffs[msg.sender].title, \"Retail Worker\") */\n      dup1\n      tag_360\n      jumpi\n      pop\n        /* \"DurianContract.sol\":481:531  compare(staffs[msg.sender].title, \"Retail Worker\") */\n      tag_361\n        /* \"DurianContract.sol\":489:495  staffs */\n      0x03\n        /* \"DurianContract.sol\":489:507  staffs[msg.sender] */\n      0x00\n        /* \"DurianContract.sol\":496:506  msg.sender */\n      caller\n        /* \"DurianContract.sol\":489:507  staffs[msg.sender] */\n      0xffffffffffffffffffffffffffffffffffffffff\n      and\n      0xffffffffffffffffffffffffffffffffffffffff\n      and\n      dup2\n      mstore\n      0x20\n      add\n      swap1\n      dup2\n      mstore\n      0x20\n      add\n      0x00\n      keccak256\n        /* \"DurianContract.sol\":489:513  staffs[msg.sender].title */\n      0x03\n      add\n        /* \"DurianContract.sol\":481:531  compare(staffs[msg.sender].title, \"Retail Worker\") */\n      dup1\n      sload\n      tag_362\n      swap1\n      tag_116\n      jump\t// in\n    tag_362:\n      dup1\n      0x1f\n      add\n      0x20\n      dup1\n      swap2\n      div\n      mul\n      0x20\n      add\n      mload(0x40)\n      swap1\n      dup2\n      add\n      0x40\n      mstore\n      dup1\n      swap3\n      swap2\n      swap1\n      dup2\n      dup2\n      mstore\n      0x20\n      add\n      dup3\n      dup1\n      sload\n      tag_363\n      swap1\n      tag_116\n      jump\t// in\n    tag_363:\n      dup1\n      iszero\n      tag_364\n      jumpi\n      dup1\n      0x1f\n      lt\n      tag_365\n      jumpi\n      0x0100\n      dup1\n      dup4\n      sload\n      div\n      mul\n      dup4\n      mstore\n      swap2\n      0x20\n      add\n      swap2\n      jump(tag_364)\n    tag_365:\n      dup3\n      add\n      swap2\n      swap1\n      0x00\n      mstore\n      keccak256(0x00, 0x20)\n      swap1\n    tag_366:\n      dup2\n      sload\n      dup2\n      mstore\n      swap1\n      0x01\n      add\n      swap1\n      0x20\n      add\n      dup1\n      dup4\n      gt\n      tag_366\n      jumpi\n      dup3\n      swap1\n      sub\n      0x1f\n      and\n      dup3\n      add\n      swap2\n    tag_364:\n      pop\n      pop\n      pop\n      pop\n      pop\n      mload(0x40)\n      dup1\n      0x40\n      add\n      0x40\n      mstore\n      dup1\n      0x0d\n      dup2\n      mstore\n      0x20\n      add\n      0x52657461696c20576f726b657200000000000000000000000000000000000000\n      dup2\n      mstore\n      pop\n        /* \"DurianContract.sol\":481:488  compare */\n      tag_121\n        /* \"DurianContract.sol\":481:531  compare(staffs[msg.sender].title, \"Retail Worker\") */\n      jump\t// in\n    tag_361:\n        /* \"DurianContract.sol\":423:531  compare(staffs[msg.sender].title, \"Distribution Worker\")||compare(staffs[msg.sender].title, \"Retail Worker\") */\n    tag_360:\n        /* \"DurianContract.sol\":423:558  compare(staffs[msg.sender].title, \"Distribution Worker\")||compare(staffs[msg.sender].title, \"Retail Worker\")||(msg.sender == ownerFarm) */\n      dup1\n      tag_367\n      jumpi\n      pop\n        /* \"DurianContract.sol\":548:557  ownerFarm */\n      0x00\n      dup1\n      sload\n      swap1\n      0x0100\n      exp\n      swap1\n      div\n      0xffffffffffffffffffffffffffffffffffffffff\n      and\n        /* \"DurianContract.sol\":534:557  msg.sender == ownerFarm */\n      0xffffffffffffffffffffffffffffffffffffffff\n      and\n        /* \"DurianContract.sol\":534:544  msg.sender */\n      caller\n        /* \"DurianContract.sol\":534:557  msg.sender == ownerFarm */\n      0xffffffffffffffffffffffffffffffffffffffff\n      and\n      eq\n        /* \"DurianContract.sol\":423:558  compare(staffs[msg.sender].title, \"Distribution Worker\")||compare(staffs[msg.sender].title, \"Retail Worker\")||(msg.sender == ownerFarm) */\n    tag_367:\n        /* \"DurianContract.sol\":415:559  require(compare(staffs[msg.sender].title, \"Distribution Worker\")||compare(staffs[msg.sender].title, \"Retail Worker\")||(msg.sender == ownerFarm)) */\n      tag_368\n      jumpi\n      0x00\n      dup1\n      revert\n    tag_368:\n        /* \"DurianContract.sol\":5251:5293  compare(destination, durians[id].location) */\n      tag_370\n        /* \"DurianContract.sol\":5259:5270  destination */\n      dup4\n        /* \"DurianContract.sol\":5272:5279  durians */\n      0x04\n        /* \"DurianContract.sol\":5280:5282  id */\n      dup7\n        /* \"DurianContract.sol\":5272:5283  durians[id] */\n      mload(0x40)\n      tag_371\n      swap2\n      swap1\n      tag_126\n      jump\t// in\n    tag_371:\n      swap1\n      dup2\n      mstore\n      0x20\n      add\n      mload(0x40)\n      dup1\n      swap2\n      sub\n      swap1\n      keccak256\n        /* \"DurianContract.sol\":5272:5292  durians[id].location */\n      0x0b\n      add\n        /* \"DurianContract.sol\":5251:5293  compare(destination, durians[id].location) */\n      dup1\n      sload\n      tag_372\n      swap1\n      tag_116\n      jump\t// in\n    tag_372:\n      dup1\n      0x1f\n      add\n      0x20\n      dup1\n      swap2\n      div\n      mul\n      0x20\n      add\n      mload(0x40)\n      swap1\n      dup2\n      add\n      0x40\n      mstore\n      dup1\n      swap3\n      swap2\n      swap1\n      dup2\n      dup2\n      mstore\n      0x20\n      add\n      dup3\n      dup1\n      sload\n      tag_373\n      swap1\n      tag_116\n      jump\t// in\n    tag_373:\n      dup1\n      iszero\n      tag_374\n      jumpi\n      dup1\n      0x1f\n      lt\n      tag_375\n      jumpi\n      0x0100\n      dup1\n      dup4\n      sload\n      div\n      mul\n      dup4\n      mstore\n      swap2\n      0x20\n      add\n      swap2\n      jump(tag_374)\n    tag_375:\n      dup3\n      add\n      swap2\n      swap1\n      0x00\n      mstore\n      keccak256(0x00, 0x20)\n      swap1\n    tag_376:\n      dup2\n      sload\n      dup2\n      mstore\n      swap1\n      0x01\n      add\n      swap1\n      0x20\n      add\n      dup1\n      dup4\n      gt\n      tag_376\n      jumpi\n      dup3\n      swap1\n      sub\n      0x1f\n      and\n      dup3\n      add\n      swap2\n    tag_374:\n      pop\n      pop\n      pop\n      pop\n      pop\n        /* \"DurianContract.sol\":5251:5258  compare */\n      tag_121\n        /* \"DurianContract.sol\":5251:5293  compare(destination, durians[id].location) */\n      jump\t// in\n    tag_370:\n        /* \"DurianContract.sol\":5247:5416  if (compare(destination, durians[id].location)) {... */\n      iszero\n      tag_377\n      jumpi\n        /* \"DurianContract.sol\":5330:5336  status */\n      dup2\n        /* \"DurianContract.sol\":5309:5316  durians */\n      0x04\n        /* \"DurianContract.sol\":5317:5319  id */\n      dup6\n        /* \"DurianContract.sol\":5309:5320  durians[id] */\n      mload(0x40)\n      tag_378\n      swap2\n      swap1\n      tag_126\n      jump\t// in\n    tag_378:\n      swap1\n      dup2\n      mstore\n      0x20\n      add\n      mload(0x40)\n      dup1\n      swap2\n      sub\n      swap1\n      keccak256\n        /* \"DurianContract.sol\":5309:5327  durians[id].status */\n      0x0d\n      add\n        /* \"DurianContract.sol\":5309:5336  durians[id].status = status */\n      swap1\n      dup2\n      tag_379\n      swap2\n      swap1\n      tag_128\n      jump\t// in\n    tag_379:\n      pop\n        /* \"DurianContract.sol\":5375:5380  false */\n      0x00\n        /* \"DurianContract.sol\":5350:5357  durians */\n      0x04\n        /* \"DurianContract.sol\":5358:5360  id */\n      dup6\n        /* \"DurianContract.sol\":5350:5361  durians[id] */\n      mload(0x40)\n      tag_380\n      swap2\n      swap1\n      tag_126\n      jump\t// in\n    tag_380:\n      swap1\n      dup2\n      mstore\n      0x20\n      add\n      mload(0x40)\n      dup1\n      swap2\n      sub\n      swap1\n      keccak256\n        /* \"DurianContract.sol\":5350:5372  durians[id].onDelivery */\n      0x0c\n      add\n      0x00\n        /* \"DurianContract.sol\":5350:5380  durians[id].onDelivery = false */\n      0x0100\n      exp\n      dup2\n      sload\n      dup2\n      0xff\n      mul\n      not\n      and\n      swap1\n      dup4\n      iszero\n      iszero\n      mul\n      or\n      swap1\n      sstore\n      pop\n        /* \"DurianContract.sol\":5401:5405  true */\n      0x01\n        /* \"DurianContract.sol\":5394:5405  return true */\n      swap1\n      pop\n      jump(tag_369)\n        /* \"DurianContract.sol\":5247:5416  if (compare(destination, durians[id].location)) {... */\n    tag_377:\n        /* \"DurianContract.sol\":5432:5437  false */\n      0x00\n        /* \"DurianContract.sol\":5425:5437  return false */\n      swap1\n      pop\n        /* \"DurianContract.sol\":569:570  _ */\n    tag_369:\n        /* \"DurianContract.sol\":5078:5444  function receiveDurians(... */\n      swap4\n      swap3\n      pop\n      pop\n      pop\n      jump\t// out\n        /* \"DurianContract.sol\":7053:7140  function getOwnerAdd() external view returns (address){... */\n    tag_96:\n        /* \"DurianContract.sol\":7099:7106  address */\n      0x00\n        /* \"DurianContract.sol\":7124:7133  ownerFarm */\n      dup1\n      0x00\n      swap1\n      sload\n      swap1\n      0x0100\n      exp\n      swap1\n      div\n      0xffffffffffffffffffffffffffffffffffffffff\n      and\n        /* \"DurianContract.sol\":7117:7133  return ownerFarm */\n      swap1\n      pop\n        /* \"DurianContract.sol\":7053:7140  function getOwnerAdd() external view returns (address){... */\n      swap1\n      jump\t// out\n        /* \"DurianContract.sol\":4653:5033  function deliverDurian(... */\n    tag_102:\n        /* \"DurianContract.sol\":4812:4816  bool */\n      0x00\n        /* \"DurianContract.sol\":655:711  compare(staffs[msg.sender].title, \"Distribution Worker\") */\n      tag_383\n        /* \"DurianContract.sol\":663:669  staffs */\n      0x03\n        /* \"DurianContract.sol\":663:681  staffs[msg.sender] */\n      0x00\n        /* \"DurianContract.sol\":670:680  msg.sender */\n      caller\n        /* \"DurianContract.sol\":663:681  staffs[msg.sender] */\n      0xffffffffffffffffffffffffffffffffffffffff\n      and\n      0xffffffffffffffffffffffffffffffffffffffff\n      and\n      dup2\n      mstore\n      0x20\n      add\n      swap1\n      dup2\n      mstore\n      0x20\n      add\n      0x00\n      keccak256\n        /* \"DurianContract.sol\":663:687  staffs[msg.sender].title */\n      0x03\n      add\n        /* \"DurianContract.sol\":655:711  compare(staffs[msg.sender].title, \"Distribution Worker\") */\n      dup1\n      sload\n      tag_384\n      swap1\n      tag_116\n      jump\t// in\n    tag_384:\n      dup1\n      0x1f\n      add\n      0x20\n      dup1\n      swap2\n      div\n      mul\n      0x20\n      add\n      mload(0x40)\n      swap1\n      dup2\n      add\n      0x40\n      mstore\n      dup1\n      swap3\n      swap2\n      swap1\n      dup2\n      dup2\n      mstore\n      0x20\n      add\n      dup3\n      dup1\n      sload\n      tag_385\n      swap1\n      tag_116\n      jump\t// in\n    tag_385:\n      dup1\n      iszero\n      tag_386\n      jumpi\n      dup1\n      0x1f\n      lt\n      tag_387\n      jumpi\n      0x0100\n      dup1\n      dup4\n      sload\n      div\n      mul\n      dup4\n      mstore\n      swap2\n      0x20\n      add\n      swap2\n      jump(tag_386)\n    tag_387:\n      dup3\n      add\n      swap2\n      swap1\n      0x00\n      mstore\n      keccak256(0x00, 0x20)\n      swap1\n    tag_388:\n      dup2\n      sload\n      dup2\n      mstore\n      swap1\n      0x01\n      add\n      swap1\n      0x20\n      add\n      dup1\n      dup4\n      gt\n      tag_388\n      jumpi\n      dup3\n      swap1\n      sub\n      0x1f\n      and\n      dup3\n      add\n      swap2\n    tag_386:\n      pop\n      pop\n      pop\n      pop\n      pop\n      mload(0x40)\n      dup1\n      0x40\n      add\n      0x40\n      mstore\n      dup1\n      0x13\n      dup2\n      mstore\n      0x20\n      add\n      0x446973747269627574696f6e20576f726b657200000000000000000000000000\n      dup2\n      mstore\n      pop\n        /* \"DurianContract.sol\":655:662  compare */\n      tag_121\n        /* \"DurianContract.sol\":655:711  compare(staffs[msg.sender].title, \"Distribution Worker\") */\n      jump\t// in\n    tag_383:\n        /* \"DurianContract.sol\":655:761  compare(staffs[msg.sender].title, \"Distribution Worker\")||compare(staffs[msg.sender].title, \"Farm Worker\") */\n      dup1\n      tag_389\n      jumpi\n      pop\n        /* \"DurianContract.sol\":713:761  compare(staffs[msg.sender].title, \"Farm Worker\") */\n      tag_390\n        /* \"DurianContract.sol\":721:727  staffs */\n      0x03\n        /* \"DurianContract.sol\":721:739  staffs[msg.sender] */\n      0x00\n        /* \"DurianContract.sol\":728:738  msg.sender */\n      caller\n        /* \"DurianContract.sol\":721:739  staffs[msg.sender] */\n      0xffffffffffffffffffffffffffffffffffffffff\n      and\n      0xffffffffffffffffffffffffffffffffffffffff\n      and\n      dup2\n      mstore\n      0x20\n      add\n      swap1\n      dup2\n      mstore\n      0x20\n      add\n      0x00\n      keccak256\n        /* \"DurianContract.sol\":721:745  staffs[msg.sender].title */\n      0x03\n      add\n        /* \"DurianContract.sol\":713:761  compare(staffs[msg.sender].title, \"Farm Worker\") */\n      dup1\n      sload\n      tag_391\n      swap1\n      tag_116\n      jump\t// in\n    tag_391:\n      dup1\n      0x1f\n      add\n      0x20\n      dup1\n      swap2\n      div\n      mul\n      0x20\n      add\n      mload(0x40)\n      swap1\n      dup2\n      add\n      0x40\n      mstore\n      dup1\n      swap3\n      swap2\n      swap1\n      dup2\n      dup2\n      mstore\n      0x20\n      add\n      dup3\n      dup1\n      sload\n      tag_392\n      swap1\n      tag_116\n      jump\t// in\n    tag_392:\n      dup1\n      iszero\n      tag_393\n      jumpi\n      dup1\n      0x1f\n      lt\n      tag_394\n      jumpi\n      0x0100\n      dup1\n      dup4\n      sload\n      div\n      mul\n      dup4\n      mstore\n      swap2\n      0x20\n      add\n      swap2\n      jump(tag_393)\n    tag_394:\n      dup3\n      add\n      swap2\n      swap1\n      0x00\n      mstore\n      keccak256(0x00, 0x20)\n      swap1\n    tag_395:\n      dup2\n      sload\n      dup2\n      mstore\n      swap1\n      0x01\n      add\n      swap1\n      0x20\n      add\n      dup1\n      dup4\n      gt\n      tag_395\n      jumpi\n      dup3\n      swap1\n      sub\n      0x1f\n      and\n      dup3\n      add\n      swap2\n    tag_393:\n      pop\n      pop\n      pop\n      pop\n      pop\n      mload(0x40)\n      dup1\n      0x40\n      add\n      0x40\n      mstore\n      dup1\n      0x0b\n      dup2\n      mstore\n      0x20\n      add\n      0x4661726d20576f726b6572000000000000000000000000000000000000000000\n      dup2\n      mstore\n      pop\n        /* \"DurianContract.sol\":713:720  compare */\n      tag_121\n        /* \"DurianContract.sol\":713:761  compare(staffs[msg.sender].title, \"Farm Worker\") */\n      jump\t// in\n    tag_390:\n        /* \"DurianContract.sol\":655:761  compare(staffs[msg.sender].title, \"Distribution Worker\")||compare(staffs[msg.sender].title, \"Farm Worker\") */\n    tag_389:\n        /* \"DurianContract.sol\":655:788  compare(staffs[msg.sender].title, \"Distribution Worker\")||compare(staffs[msg.sender].title, \"Farm Worker\")||(msg.sender == ownerFarm) */\n      dup1\n      tag_396\n      jumpi\n      pop\n        /* \"DurianContract.sol\":778:787  ownerFarm */\n      0x00\n      dup1\n      sload\n      swap1\n      0x0100\n      exp\n      swap1\n      div\n      0xffffffffffffffffffffffffffffffffffffffff\n      and\n        /* \"DurianContract.sol\":764:787  msg.sender == ownerFarm */\n      0xffffffffffffffffffffffffffffffffffffffff\n      and\n        /* \"DurianContract.sol\":764:774  msg.sender */\n      caller\n        /* \"DurianContract.sol\":764:787  msg.sender == ownerFarm */\n      0xffffffffffffffffffffffffffffffffffffffff\n      and\n      eq\n        /* \"DurianContract.sol\":655:788  compare(staffs[msg.sender].title, \"Distribution Worker\")||compare(staffs[msg.sender].title, \"Farm Worker\")||(msg.sender == ownerFarm) */\n    tag_396:\n        /* \"DurianContract.sol\":647:789  require(compare(staffs[msg.sender].title, \"Distribution Worker\")||compare(staffs[msg.sender].title, \"Farm Worker\")||(msg.sender == ownerFarm)) */\n      tag_397\n      jumpi\n      0x00\n      dup1\n      revert\n    tag_397:\n        /* \"DurianContract.sol\":4832:4876  compare(startingPoint, durians[id].location) */\n      tag_399\n        /* \"DurianContract.sol\":4840:4853  startingPoint */\n      dup5\n        /* \"DurianContract.sol\":4855:4862  durians */\n      0x04\n        /* \"DurianContract.sol\":4863:4865  id */\n      dup5\n        /* \"DurianContract.sol\":4855:4866  durians[id] */\n      mload(0x40)\n      tag_400\n      swap2\n      swap1\n      tag_126\n      jump\t// in\n    tag_400:\n      swap1\n      dup2\n      mstore\n      0x20\n      add\n      mload(0x40)\n      dup1\n      swap2\n      sub\n      swap1\n      keccak256\n        /* \"DurianContract.sol\":4855:4875  durians[id].location */\n      0x0b\n      add\n        /* \"DurianContract.sol\":4832:4876  compare(startingPoint, durians[id].location) */\n      dup1\n      sload\n      tag_401\n      swap1\n      tag_116\n      jump\t// in\n    tag_401:\n      dup1\n      0x1f\n      add\n      0x20\n      dup1\n      swap2\n      div\n      mul\n      0x20\n      add\n      mload(0x40)\n      swap1\n      dup2\n      add\n      0x40\n      mstore\n      dup1\n      swap3\n      swap2\n      swap1\n      dup2\n      dup2\n      mstore\n      0x20\n      add\n      dup3\n      dup1\n      sload\n      tag_402\n      swap1\n      tag_116\n      jump\t// in\n    tag_402:\n      dup1\n      iszero\n      tag_403\n      jumpi\n      dup1\n      0x1f\n      lt\n      tag_404\n      jumpi\n      0x0100\n      dup1\n      dup4\n      sload\n      div\n      mul\n      dup4\n      mstore\n      swap2\n      0x20\n      add\n      swap2\n      jump(tag_403)\n    tag_404:\n      dup3\n      add\n      swap2\n      swap1\n      0x00\n      mstore\n      keccak256(0x00, 0x20)\n      swap1\n    tag_405:\n      dup2\n      sload\n      dup2\n      mstore\n      swap1\n      0x01\n      add\n      swap1\n      0x20\n      add\n      dup1\n      dup4\n      gt\n      tag_405\n      jumpi\n      dup3\n      swap1\n      sub\n      0x1f\n      and\n      dup3\n      add\n      swap2\n    tag_403:\n      pop\n      pop\n      pop\n      pop\n      pop\n        /* \"DurianContract.sol\":4832:4839  compare */\n      tag_121\n        /* \"DurianContract.sol\":4832:4876  compare(startingPoint, durians[id].location) */\n      jump\t// in\n    tag_399:\n        /* \"DurianContract.sol\":4828:5005  if (compare(startingPoint, durians[id].location)) {... */\n      iszero\n      tag_406\n      jumpi\n        /* \"DurianContract.sol\":4915:4926  destination */\n      dup3\n        /* \"DurianContract.sol\":4892:4899  durians */\n      0x04\n        /* \"DurianContract.sol\":4900:4902  id */\n      dup4\n        /* \"DurianContract.sol\":4892:4903  durians[id] */\n      mload(0x40)\n      tag_407\n      swap2\n      swap1\n      tag_126\n      jump\t// in\n    tag_407:\n      swap1\n      dup2\n      mstore\n      0x20\n      add\n      mload(0x40)\n      dup1\n      swap2\n      sub\n      swap1\n      keccak256\n        /* \"DurianContract.sol\":4892:4912  durians[id].location */\n      0x0b\n      add\n        /* \"DurianContract.sol\":4892:4926  durians[id].location = destination */\n      swap1\n      dup2\n      tag_408\n      swap2\n      swap1\n      tag_128\n      jump\t// in\n    tag_408:\n      pop\n        /* \"DurianContract.sol\":4965:4969  true */\n      0x01\n        /* \"DurianContract.sol\":4940:4947  durians */\n      0x04\n        /* \"DurianContract.sol\":4948:4950  id */\n      dup4\n        /* \"DurianContract.sol\":4940:4951  durians[id] */\n      mload(0x40)\n      tag_409\n      swap2\n      swap1\n      tag_126\n      jump\t// in\n    tag_409:\n      swap1\n      dup2\n      mstore\n      0x20\n      add\n      mload(0x40)\n      dup1\n      swap2\n      sub\n      swap1\n      keccak256\n        /* \"DurianContract.sol\":4940:4962  durians[id].onDelivery */\n      0x0c\n      add\n      0x00\n        /* \"DurianContract.sol\":4940:4969  durians[id].onDelivery = true */\n      0x0100\n      exp\n      dup2\n      sload\n      dup2\n      0xff\n      mul\n      not\n      and\n      swap1\n      dup4\n      iszero\n      iszero\n      mul\n      or\n      swap1\n      sstore\n      pop\n        /* \"DurianContract.sol\":4990:4994  true */\n      0x01\n        /* \"DurianContract.sol\":4983:4994  return true */\n      swap1\n      pop\n      jump(tag_398)\n        /* \"DurianContract.sol\":4828:5005  if (compare(startingPoint, durians[id].location)) {... */\n    tag_406:\n        /* \"DurianContract.sol\":5021:5026  false */\n      0x00\n        /* \"DurianContract.sol\":5014:5026  return false */\n      swap1\n      pop\n        /* \"DurianContract.sol\":799:800  _ */\n    tag_398:\n        /* \"DurianContract.sol\":4653:5033  function deliverDurian(... */\n      swap4\n      swap3\n      pop\n      pop\n      pop\n      jump\t// out\n        /* \"DurianContract.sol\":3371:3681  function addStaff(... */\n    tag_108:\n        /* \"DurianContract.sol\":3516:3525  ownerFarm */\n      0x00\n      dup1\n      sload\n      swap1\n      0x0100\n      exp\n      swap1\n      div\n      0xffffffffffffffffffffffffffffffffffffffff\n      and\n        /* \"DurianContract.sol\":322:330  _account */\n      dup1\n        /* \"DurianContract.sol\":308:330  msg.sender == _account */\n      0xffffffffffffffffffffffffffffffffffffffff\n      and\n        /* \"DurianContract.sol\":308:318  msg.sender */\n      caller\n        /* \"DurianContract.sol\":308:330  msg.sender == _account */\n      0xffffffffffffffffffffffffffffffffffffffff\n      and\n      eq\n        /* \"DurianContract.sol\":300:331  require(msg.sender == _account) */\n      tag_411\n      jumpi\n      0x00\n      dup1\n      revert\n    tag_411:\n        /* \"DurianContract.sol\":3557:3652  Staff(... */\n      mload(0x40)\n      dup1\n      0x80\n      add\n      0x40\n      mstore\n      dup1\n        /* \"DurianContract.sol\":3576:3585  newstaffs */\n      dup7\n        /* \"DurianContract.sol\":3557:3652  Staff(... */\n      0xffffffffffffffffffffffffffffffffffffffff\n      and\n      dup2\n      mstore\n      0x20\n      add\n        /* \"DurianContract.sol\":3600:3602  id */\n      dup6\n        /* \"DurianContract.sol\":3557:3652  Staff(... */\n      dup2\n      mstore\n      0x20\n      add\n        /* \"DurianContract.sol\":3617:3621  name */\n      dup5\n        /* \"DurianContract.sol\":3557:3652  Staff(... */\n      dup2\n      mstore\n      0x20\n      add\n        /* \"DurianContract.sol\":3636:3641  title */\n      dup4\n        /* \"DurianContract.sol\":3557:3652  Staff(... */\n      dup2\n      mstore\n      pop\n        /* \"DurianContract.sol\":3537:3543  staffs */\n      0x03\n        /* \"DurianContract.sol\":3537:3554  staffs[newstaffs] */\n      0x00\n        /* \"DurianContract.sol\":3544:3553  newstaffs */\n      dup8\n        /* \"DurianContract.sol\":3537:3554  staffs[newstaffs] */\n      0xffffffffffffffffffffffffffffffffffffffff\n      and\n      0xffffffffffffffffffffffffffffffffffffffff\n      and\n      dup2\n      mstore\n      0x20\n      add\n      swap1\n      dup2\n      mstore\n      0x20\n      add\n      0x00\n      keccak256\n        /* \"DurianContract.sol\":3537:3652  staffs[newstaffs] = Staff(... */\n      0x00\n      dup3\n      add\n      mload\n      dup2\n      0x00\n      add\n      exp(0x0100, 0x00)\n      dup2\n      sload\n      dup2\n      0xffffffffffffffffffffffffffffffffffffffff\n      mul\n      not\n      and\n      swap1\n      dup4\n      0xffffffffffffffffffffffffffffffffffffffff\n      and\n      mul\n      or\n      swap1\n      sstore\n      pop\n      0x20\n      dup3\n      add\n      mload\n      dup2\n      0x01\n      add\n      sstore\n      0x40\n      dup3\n      add\n      mload\n      dup2\n      0x02\n      add\n      swap1\n      dup2\n      tag_413\n      swap2\n      swap1\n      tag_128\n      jump\t// in\n    tag_413:\n      pop\n      0x60\n      dup3\n      add\n      mload\n      dup2\n      0x03\n      add\n      swap1\n      dup2\n      tag_414\n      swap2\n      swap1\n      tag_128\n      jump\t// in\n    tag_414:\n      pop\n      swap1\n      pop\n      pop\n        /* \"DurianContract.sol\":3662:3672  staffCount */\n      0x02\n      0x00\n        /* \"DurianContract.sol\":3662:3674  staffCount++ */\n      dup2\n      sload\n      dup1\n      swap3\n      swap2\n      swap1\n      tag_415\n      swap1\n      tag_130\n      jump\t// in\n    tag_415:\n      swap2\n      swap1\n      pop\n      sstore\n      pop\n        /* \"DurianContract.sol\":3371:3681  function addStaff(... */\n      pop\n      pop\n      pop\n      pop\n      pop\n      jump\t// out\n        /* \"DurianContract.sol\":6797:6887  function getTotalstaffs() public view returns (uint256) {... */\n    tag_111:\n        /* \"DurianContract.sol\":6844:6851  uint256 */\n      0x00\n        /* \"DurianContract.sol\":6870:6880  staffCount */\n      sload(0x02)\n        /* \"DurianContract.sol\":6863:6880  return staffCount */\n      swap1\n      pop\n        /* \"DurianContract.sol\":6797:6887  function getTotalstaffs() public view returns (uint256) {... */\n      swap1\n      jump\t// out\n        /* \"DurianContract.sol\":1101:1280  function compare(string memory str1, string memory str2) private pure returns (bool) {... */\n    tag_121:\n        /* \"DurianContract.sol\":1180:1184  bool */\n      0x00\n        /* \"DurianContract.sol\":1267:1271  str2 */\n      dup2\n        /* \"DurianContract.sol\":1250:1272  abi.encodePacked(str2) */\n      add(0x20, mload(0x40))\n      tag_418\n      swap2\n      swap1\n      tag_126\n      jump\t// in\n    tag_418:\n      mload(0x40)\n      0x20\n      dup2\n      dup4\n      sub\n      sub\n      dup2\n      mstore\n      swap1\n      0x40\n      mstore\n        /* \"DurianContract.sol\":1240:1273  keccak256(abi.encodePacked(str2)) */\n      dup1\n      mload\n      swap1\n      0x20\n      add\n      keccak256\n        /* \"DurianContract.sol\":1230:1234  str1 */\n      dup4\n        /* \"DurianContract.sol\":1213:1235  abi.encodePacked(str1) */\n      add(0x20, mload(0x40))\n      tag_419\n      swap2\n      swap1\n      tag_126\n      jump\t// in\n    tag_419:\n      mload(0x40)\n      0x20\n      dup2\n      dup4\n      sub\n      sub\n      dup2\n      mstore\n      swap1\n      0x40\n      mstore\n        /* \"DurianContract.sol\":1203:1236  keccak256(abi.encodePacked(str1)) */\n      dup1\n      mload\n      swap1\n      0x20\n      add\n      keccak256\n        /* \"DurianContract.sol\":1203:1273  keccak256(abi.encodePacked(str1)) == keccak256(abi.encodePacked(str2)) */\n      eq\n        /* \"DurianContract.sol\":1196:1273  return keccak256(abi.encodePacked(str1)) == keccak256(abi.encodePacked(str2)) */\n      swap1\n      pop\n        /* \"DurianContract.sol\":1101:1280  function compare(string memory str1, string memory str2) private pure returns (bool) {... */\n      swap3\n      swap2\n      pop\n      pop\n      jump\t// out\n        /* \"DurianContract.sol\":2863:3345  function convertRatings(uint256 number) private pure returns(RatingNo){... */\n    tag_258:\n        /* \"DurianContract.sol\":2924:2932  RatingNo */\n      0x00\n        /* \"DurianContract.sol\":2957:2958  1 */\n      0x01\n        /* \"DurianContract.sol\":2947:2953  number */\n      dup3\n        /* \"DurianContract.sol\":2947:2958  number == 1 */\n      sub\n        /* \"DurianContract.sol\":2943:3004  if (number == 1) {... */\n      tag_421\n      jumpi\n        /* \"DurianContract.sol\":2981:2993  RatingNo.bad */\n      0x00\n        /* \"DurianContract.sol\":2974:2993  return RatingNo.bad */\n      swap1\n      pop\n      jump(tag_420)\n        /* \"DurianContract.sol\":2943:3004  if (number == 1) {... */\n    tag_421:\n        /* \"DurianContract.sol\":3027:3028  2 */\n      0x02\n        /* \"DurianContract.sol\":3017:3023  number */\n      dup3\n        /* \"DurianContract.sol\":3017:3028  number == 2 */\n      sub\n        /* \"DurianContract.sol\":3013:3087  if (number == 2) {... */\n      tag_422\n      jumpi\n        /* \"DurianContract.sol\":3051:3076  RatingNo.still_acceptable */\n      0x01\n        /* \"DurianContract.sol\":3044:3076  return RatingNo.still_acceptable */\n      swap1\n      pop\n      jump(tag_420)\n        /* \"DurianContract.sol\":3013:3087  if (number == 2) {... */\n    tag_422:\n        /* \"DurianContract.sol\":3110:3111  3 */\n      0x03\n        /* \"DurianContract.sol\":3100:3106  number */\n      dup3\n        /* \"DurianContract.sol\":3100:3111  number == 3 */\n      sub\n        /* \"DurianContract.sol\":3096:3161  if (number == 3) {... */\n      tag_423\n      jumpi\n        /* \"DurianContract.sol\":3134:3150  RatingNo.average */\n      0x02\n        /* \"DurianContract.sol\":3127:3150  return RatingNo.average */\n      swap1\n      pop\n      jump(tag_420)\n        /* \"DurianContract.sol\":3096:3161  if (number == 3) {... */\n    tag_423:\n        /* \"DurianContract.sol\":3184:3185  4 */\n      0x04\n        /* \"DurianContract.sol\":3174:3180  number */\n      dup3\n        /* \"DurianContract.sol\":3174:3185  number == 4 */\n      sub\n        /* \"DurianContract.sol\":3170:3232  if (number == 4) {... */\n      tag_424\n      jumpi\n        /* \"DurianContract.sol\":3208:3221  RatingNo.good */\n      0x03\n        /* \"DurianContract.sol\":3201:3221  return RatingNo.good */\n      swap1\n      pop\n      jump(tag_420)\n        /* \"DurianContract.sol\":3170:3232  if (number == 4) {... */\n    tag_424:\n        /* \"DurianContract.sol\":3255:3256  5 */\n      0x05\n        /* \"DurianContract.sol\":3245:3251  number */\n      dup3\n        /* \"DurianContract.sol\":3245:3256  number == 5 */\n      sub\n        /* \"DurianContract.sol\":3241:3306  if (number == 5) {... */\n      tag_425\n      jumpi\n        /* \"DurianContract.sol\":3279:3295  RatingNo.amazing */\n      0x04\n        /* \"DurianContract.sol\":3272:3295  return RatingNo.amazing */\n      swap1\n      pop\n      jump(tag_420)\n        /* \"DurianContract.sol\":3241:3306  if (number == 5) {... */\n    tag_425:\n        /* \"DurianContract.sol\":3322:3338  RatingNo.average */\n      0x02\n        /* \"DurianContract.sol\":3315:3338  return RatingNo.average */\n      swap1\n      pop\n        /* \"DurianContract.sol\":2863:3345  function convertRatings(uint256 number) private pure returns(RatingNo){... */\n    tag_420:\n      swap2\n      swap1\n      pop\n      jump\t// out\n    tag_288:\n      mload(0x40)\n      dup1\n      0x0180\n      add\n      0x40\n      mstore\n      dup1\n      0x60\n      dup2\n      mstore\n      0x20\n      add\n      0x60\n      dup2\n      mstore\n      0x20\n      add\n      0x00\n      dup2\n      mstore\n      0x20\n      add\n      0x00\n      dup2\n      mstore\n      0x20\n      add\n      and(0xffffffffffffffffffffffffffffffffffffffff, 0x00)\n      dup2\n      mstore\n      0x20\n      add\n      0x00\n      dup2\n      mstore\n      0x20\n      add\n      0x00\n      dup2\n      mstore\n      0x20\n      add\n      and(0xffffffffffffffffffffffffffffffffffffffff, 0x00)\n      dup2\n      mstore\n      0x20\n      add\n      tag_426\n      tag_427\n      jump\t// in\n    tag_426:\n      dup2\n      mstore\n      0x20\n      add\n      0x60\n      dup2\n      mstore\n      0x20\n      add\n      iszero(iszero(0x00))\n      dup2\n      mstore\n      0x20\n      add\n      0x60\n      dup2\n      mstore\n      pop\n      swap1\n      jump\t// out\n    tag_427:\n      mload(0x40)\n      dup1\n      0xc0\n      add\n      0x40\n      mstore\n      dup1\n      0x60\n      dup2\n      mstore\n      0x20\n      add\n      0x60\n      dup2\n      mstore\n      0x20\n      add\n      0x00\n      0x04\n      dup2\n      gt\n      iszero\n      tag_428\n      jumpi\n      tag_429\n      tag_153\n      jump\t// in\n    tag_429:\n    tag_428:\n      dup2\n      mstore\n      0x20\n      add\n      0x00\n      0x04\n      dup2\n      gt\n      iszero\n      tag_430\n      jumpi\n      tag_431\n      tag_153\n      jump\t// in\n    tag_431:\n    tag_430:\n      dup2\n      mstore\n      0x20\n      add\n      0x00\n      0x04\n      dup2\n      gt\n      iszero\n      tag_432\n      jumpi\n      tag_433\n      tag_153\n      jump\t// in\n    tag_433:\n    tag_432:\n      dup2\n      mstore\n      0x20\n      add\n      0x00\n      0x04\n      dup2\n      gt\n      iszero\n      tag_434\n      jumpi\n      tag_435\n      tag_153\n      jump\t// in\n    tag_435:\n    tag_434:\n      dup2\n      mstore\n      pop\n      swap1\n      jump\t// out\n        /* \"#utility.yul\":7:82   */\n    tag_436:\n        /* \"#utility.yul\":40:46   */\n      0x00\n        /* \"#utility.yul\":73:75   */\n      0x40\n        /* \"#utility.yul\":67:76   */\n      mload\n        /* \"#utility.yul\":57:76   */\n      swap1\n      pop\n        /* \"#utility.yul\":7:82   */\n      swap1\n      jump\t// out\n        /* \"#utility.yul\":88:205   */\n    tag_437:\n        /* \"#utility.yul\":197:198   */\n      0x00\n        /* \"#utility.yul\":194:195   */\n      dup1\n        /* \"#utility.yul\":187:199   */\n      revert\n        /* \"#utility.yul\":211:328   */\n    tag_438:\n        /* \"#utility.yul\":320:321   */\n      0x00\n        /* \"#utility.yul\":317:318   */\n      dup1\n        /* \"#utility.yul\":310:322   */\n      revert\n        /* \"#utility.yul\":334:451   */\n    tag_439:\n        /* \"#utility.yul\":443:444   */\n      0x00\n        /* \"#utility.yul\":440:441   */\n      dup1\n        /* \"#utility.yul\":433:445   */\n      revert\n        /* \"#utility.yul\":457:574   */\n    tag_440:\n        /* \"#utility.yul\":566:567   */\n      0x00\n        /* \"#utility.yul\":563:564   */\n      dup1\n        /* \"#utility.yul\":556:568   */\n      revert\n        /* \"#utility.yul\":580:682   */\n    tag_441:\n        /* \"#utility.yul\":621:627   */\n      0x00\n        /* \"#utility.yul\":672:674   */\n      0x1f\n        /* \"#utility.yul\":668:675   */\n      not\n        /* \"#utility.yul\":663:665   */\n      0x1f\n        /* \"#utility.yul\":656:661   */\n      dup4\n        /* \"#utility.yul\":652:666   */\n      add\n        /* \"#utility.yul\":648:676   */\n      and\n        /* \"#utility.yul\":638:676   */\n      swap1\n      pop\n        /* \"#utility.yul\":580:682   */\n      swap2\n      swap1\n      pop\n      jump\t// out\n        /* \"#utility.yul\":688:868   */\n    tag_442:\n        /* \"#utility.yul\":736:813   */\n      0x4e487b7100000000000000000000000000000000000000000000000000000000\n        /* \"#utility.yul\":733:734   */\n      0x00\n        /* \"#utility.yul\":726:814   */\n      mstore\n        /* \"#utility.yul\":833:837   */\n      0x41\n        /* \"#utility.yul\":830:831   */\n      0x04\n        /* \"#utility.yul\":823:838   */\n      mstore\n        /* \"#utility.yul\":857:861   */\n      0x24\n        /* \"#utility.yul\":854:855   */\n      0x00\n        /* \"#utility.yul\":847:862   */\n      revert\n        /* \"#utility.yul\":874:1155   */\n    tag_443:\n        /* \"#utility.yul\":957:984   */\n      tag_511\n        /* \"#utility.yul\":979:983   */\n      dup3\n        /* \"#utility.yul\":957:984   */\n      tag_441\n      jump\t// in\n    tag_511:\n        /* \"#utility.yul\":949:955   */\n      dup2\n        /* \"#utility.yul\":945:985   */\n      add\n        /* \"#utility.yul\":1087:1093   */\n      dup2\n        /* \"#utility.yul\":1075:1085   */\n      dup2\n        /* \"#utility.yul\":1072:1094   */\n      lt\n        /* \"#utility.yul\":1051:1069   */\n      0xffffffffffffffff\n        /* \"#utility.yul\":1039:1049   */\n      dup3\n        /* \"#utility.yul\":1036:1070   */\n      gt\n        /* \"#utility.yul\":1033:1095   */\n      or\n        /* \"#utility.yul\":1030:1118   */\n      iszero\n      tag_512\n      jumpi\n        /* \"#utility.yul\":1098:1116   */\n      tag_513\n      tag_442\n      jump\t// in\n    tag_513:\n        /* \"#utility.yul\":1030:1118   */\n    tag_512:\n        /* \"#utility.yul\":1138:1148   */\n      dup1\n        /* \"#utility.yul\":1134:1136   */\n      0x40\n        /* \"#utility.yul\":1127:1149   */\n      mstore\n        /* \"#utility.yul\":917:1155   */\n      pop\n        /* \"#utility.yul\":874:1155   */\n      pop\n      pop\n      jump\t// out\n        /* \"#utility.yul\":1161:1290   */\n    tag_444:\n        /* \"#utility.yul\":1195:1201   */\n      0x00\n        /* \"#utility.yul\":1222:1242   */\n      tag_515\n      tag_436\n      jump\t// in\n    tag_515:\n        /* \"#utility.yul\":1212:1242   */\n      swap1\n      pop\n        /* \"#utility.yul\":1251:1284   */\n      tag_516\n        /* \"#utility.yul\":1279:1283   */\n      dup3\n        /* \"#utility.yul\":1271:1277   */\n      dup3\n        /* \"#utility.yul\":1251:1284   */\n      tag_443\n      jump\t// in\n    tag_516:\n        /* \"#utility.yul\":1161:1290   */\n      swap2\n      swap1\n      pop\n      jump\t// out\n        /* \"#utility.yul\":1296:1604   */\n    tag_445:\n        /* \"#utility.yul\":1358:1362   */\n      0x00\n        /* \"#utility.yul\":1448:1466   */\n      0xffffffffffffffff\n        /* \"#utility.yul\":1440:1446   */\n      dup3\n        /* \"#utility.yul\":1437:1467   */\n      gt\n        /* \"#utility.yul\":1434:1490   */\n      iszero\n      tag_518\n      jumpi\n        /* \"#utility.yul\":1470:1488   */\n      tag_519\n      tag_442\n      jump\t// in\n    tag_519:\n        /* \"#utility.yul\":1434:1490   */\n    tag_518:\n        /* \"#utility.yul\":1508:1537   */\n      tag_520\n        /* \"#utility.yul\":1530:1536   */\n      dup3\n        /* \"#utility.yul\":1508:1537   */\n      tag_441\n      jump\t// in\n    tag_520:\n        /* \"#utility.yul\":1500:1537   */\n      swap1\n      pop\n        /* \"#utility.yul\":1592:1596   */\n      0x20\n        /* \"#utility.yul\":1586:1590   */\n      dup2\n        /* \"#utility.yul\":1582:1597   */\n      add\n        /* \"#utility.yul\":1574:1597   */\n      swap1\n      pop\n        /* \"#utility.yul\":1296:1604   */\n      swap2\n      swap1\n      pop\n      jump\t// out\n        /* \"#utility.yul\":1610:1756   */\n    tag_446:\n        /* \"#utility.yul\":1707:1713   */\n      dup3\n        /* \"#utility.yul\":1702:1705   */\n      dup2\n        /* \"#utility.yul\":1697:1700   */\n      dup4\n        /* \"#utility.yul\":1684:1714   */\n      calldatacopy\n        /* \"#utility.yul\":1748:1749   */\n      0x00\n        /* \"#utility.yul\":1739:1745   */\n      dup4\n        /* \"#utility.yul\":1734:1737   */\n      dup4\n        /* \"#utility.yul\":1730:1746   */\n      add\n        /* \"#utility.yul\":1723:1750   */\n      mstore\n        /* \"#utility.yul\":1610:1756   */\n      pop\n      pop\n      pop\n      jump\t// out\n        /* \"#utility.yul\":1762:2187   */\n    tag_447:\n        /* \"#utility.yul\":1840:1845   */\n      0x00\n        /* \"#utility.yul\":1865:1931   */\n      tag_523\n        /* \"#utility.yul\":1881:1930   */\n      tag_524\n        /* \"#utility.yul\":1923:1929   */\n      dup5\n        /* \"#utility.yul\":1881:1930   */\n      tag_445\n      jump\t// in\n    tag_524:\n        /* \"#utility.yul\":1865:1931   */\n      tag_444\n      jump\t// in\n    tag_523:\n        /* \"#utility.yul\":1856:1931   */\n      swap1\n      pop\n        /* \"#utility.yul\":1954:1960   */\n      dup3\n        /* \"#utility.yul\":1947:1952   */\n      dup2\n        /* \"#utility.yul\":1940:1961   */\n      mstore\n        /* \"#utility.yul\":1992:1996   */\n      0x20\n        /* \"#utility.yul\":1985:1990   */\n      dup2\n        /* \"#utility.yul\":1981:1997   */\n      add\n        /* \"#utility.yul\":2030:2033   */\n      dup5\n        /* \"#utility.yul\":2021:2027   */\n      dup5\n        /* \"#utility.yul\":2016:2019   */\n      dup5\n        /* \"#utility.yul\":2012:2028   */\n      add\n        /* \"#utility.yul\":2009:2034   */\n      gt\n        /* \"#utility.yul\":2006:2118   */\n      iszero\n      tag_525\n      jumpi\n        /* \"#utility.yul\":2037:2116   */\n      tag_526\n      tag_440\n      jump\t// in\n    tag_526:\n        /* \"#utility.yul\":2006:2118   */\n    tag_525:\n        /* \"#utility.yul\":2127:2181   */\n      tag_527\n        /* \"#utility.yul\":2174:2180   */\n      dup5\n        /* \"#utility.yul\":2169:2172   */\n      dup3\n        /* \"#utility.yul\":2164:2167   */\n      dup6\n        /* \"#utility.yul\":2127:2181   */\n      tag_446\n      jump\t// in\n    tag_527:\n        /* \"#utility.yul\":1846:2187   */\n      pop\n        /* \"#utility.yul\":1762:2187   */\n      swap4\n      swap3\n      pop\n      pop\n      pop\n      jump\t// out\n        /* \"#utility.yul\":2207:2547   */\n    tag_448:\n        /* \"#utility.yul\":2263:2268   */\n      0x00\n        /* \"#utility.yul\":2312:2315   */\n      dup3\n        /* \"#utility.yul\":2305:2309   */\n      0x1f\n        /* \"#utility.yul\":2297:2303   */\n      dup4\n        /* \"#utility.yul\":2293:2310   */\n      add\n        /* \"#utility.yul\":2289:2316   */\n      slt\n        /* \"#utility.yul\":2279:2401   */\n      tag_529\n      jumpi\n        /* \"#utility.yul\":2320:2399   */\n      tag_530\n      tag_439\n      jump\t// in\n    tag_530:\n        /* \"#utility.yul\":2279:2401   */\n    tag_529:\n        /* \"#utility.yul\":2437:2443   */\n      dup2\n        /* \"#utility.yul\":2424:2444   */\n      calldataload\n        /* \"#utility.yul\":2462:2541   */\n      tag_531\n        /* \"#utility.yul\":2537:2540   */\n      dup5\n        /* \"#utility.yul\":2529:2535   */\n      dup3\n        /* \"#utility.yul\":2522:2526   */\n      0x20\n        /* \"#utility.yul\":2514:2520   */\n      dup7\n        /* \"#utility.yul\":2510:2527   */\n      add\n        /* \"#utility.yul\":2462:2541   */\n      tag_447\n      jump\t// in\n    tag_531:\n        /* \"#utility.yul\":2453:2541   */\n      swap2\n      pop\n        /* \"#utility.yul\":2269:2547   */\n      pop\n        /* \"#utility.yul\":2207:2547   */\n      swap3\n      swap2\n      pop\n      pop\n      jump\t// out\n        /* \"#utility.yul\":2553:2630   */\n    tag_449:\n        /* \"#utility.yul\":2590:2597   */\n      0x00\n        /* \"#utility.yul\":2619:2624   */\n      dup2\n        /* \"#utility.yul\":2608:2624   */\n      swap1\n      pop\n        /* \"#utility.yul\":2553:2630   */\n      swap2\n      swap1\n      pop\n      jump\t// out\n        /* \"#utility.yul\":2636:2758   */\n    tag_450:\n        /* \"#utility.yul\":2709:2733   */\n      tag_534\n        /* \"#utility.yul\":2727:2732   */\n      dup2\n        /* \"#utility.yul\":2709:2733   */\n      tag_449\n      jump\t// in\n    tag_534:\n        /* \"#utility.yul\":2702:2707   */\n      dup2\n        /* \"#utility.yul\":2699:2734   */\n      eq\n        /* \"#utility.yul\":2689:2752   */\n      tag_535\n      jumpi\n        /* \"#utility.yul\":2748:2749   */\n      0x00\n        /* \"#utility.yul\":2745:2746   */\n      dup1\n        /* \"#utility.yul\":2738:2750   */\n      revert\n        /* \"#utility.yul\":2689:2752   */\n    tag_535:\n        /* \"#utility.yul\":2636:2758   */\n      pop\n      jump\t// out\n        /* \"#utility.yul\":2764:2903   */\n    tag_451:\n        /* \"#utility.yul\":2810:2815   */\n      0x00\n        /* \"#utility.yul\":2848:2854   */\n      dup2\n        /* \"#utility.yul\":2835:2855   */\n      calldataload\n        /* \"#utility.yul\":2826:2855   */\n      swap1\n      pop\n        /* \"#utility.yul\":2864:2897   */\n      tag_537\n        /* \"#utility.yul\":2891:2896   */\n      dup2\n        /* \"#utility.yul\":2864:2897   */\n      tag_450\n      jump\t// in\n    tag_537:\n        /* \"#utility.yul\":2764:2903   */\n      swap3\n      swap2\n      pop\n      pop\n      jump\t// out\n        /* \"#utility.yul\":2909:3563   */\n    tag_25:\n        /* \"#utility.yul\":2987:2993   */\n      0x00\n        /* \"#utility.yul\":2995:3001   */\n      dup1\n        /* \"#utility.yul\":3044:3046   */\n      0x40\n        /* \"#utility.yul\":3032:3041   */\n      dup4\n        /* \"#utility.yul\":3023:3030   */\n      dup6\n        /* \"#utility.yul\":3019:3042   */\n      sub\n        /* \"#utility.yul\":3015:3047   */\n      slt\n        /* \"#utility.yul\":3012:3131   */\n      iszero\n      tag_539\n      jumpi\n        /* \"#utility.yul\":3050:3129   */\n      tag_540\n      tag_437\n      jump\t// in\n    tag_540:\n        /* \"#utility.yul\":3012:3131   */\n    tag_539:\n        /* \"#utility.yul\":3198:3199   */\n      0x00\n        /* \"#utility.yul\":3187:3196   */\n      dup4\n        /* \"#utility.yul\":3183:3200   */\n      add\n        /* \"#utility.yul\":3170:3201   */\n      calldataload\n        /* \"#utility.yul\":3228:3246   */\n      0xffffffffffffffff\n        /* \"#utility.yul\":3220:3226   */\n      dup2\n        /* \"#utility.yul\":3217:3247   */\n      gt\n        /* \"#utility.yul\":3214:3331   */\n      iszero\n      tag_541\n      jumpi\n        /* \"#utility.yul\":3250:3329   */\n      tag_542\n      tag_438\n      jump\t// in\n    tag_542:\n        /* \"#utility.yul\":3214:3331   */\n    tag_541:\n        /* \"#utility.yul\":3355:3418   */\n      tag_543\n        /* \"#utility.yul\":3410:3417   */\n      dup6\n        /* \"#utility.yul\":3401:3407   */\n      dup3\n        /* \"#utility.yul\":3390:3399   */\n      dup7\n        /* \"#utility.yul\":3386:3408   */\n      add\n        /* \"#utility.yul\":3355:3418   */\n      tag_448\n      jump\t// in\n    tag_543:\n        /* \"#utility.yul\":3345:3418   */\n      swap3\n      pop\n        /* \"#utility.yul\":3141:3428   */\n      pop\n        /* \"#utility.yul\":3467:3469   */\n      0x20\n        /* \"#utility.yul\":3493:3546   */\n      tag_544\n        /* \"#utility.yul\":3538:3545   */\n      dup6\n        /* \"#utility.yul\":3529:3535   */\n      dup3\n        /* \"#utility.yul\":3518:3527   */\n      dup7\n        /* \"#utility.yul\":3514:3536   */\n      add\n        /* \"#utility.yul\":3493:3546   */\n      tag_451\n      jump\t// in\n    tag_544:\n        /* \"#utility.yul\":3483:3546   */\n      swap2\n      pop\n        /* \"#utility.yul\":3438:3556   */\n      pop\n        /* \"#utility.yul\":2909:3563   */\n      swap3\n      pop\n      swap3\n      swap1\n      pop\n      jump\t// out\n        /* \"#utility.yul\":3569:3687   */\n    tag_452:\n        /* \"#utility.yul\":3656:3680   */\n      tag_546\n        /* \"#utility.yul\":3674:3679   */\n      dup2\n        /* \"#utility.yul\":3656:3680   */\n      tag_449\n      jump\t// in\n    tag_546:\n        /* \"#utility.yul\":3651:3654   */\n      dup3\n        /* \"#utility.yul\":3644:3681   */\n      mstore\n        /* \"#utility.yul\":3569:3687   */\n      pop\n      pop\n      jump\t// out\n        /* \"#utility.yul\":3693:3915   */\n    tag_31:\n        /* \"#utility.yul\":3786:3790   */\n      0x00\n        /* \"#utility.yul\":3824:3826   */\n      0x20\n        /* \"#utility.yul\":3813:3822   */\n      dup3\n        /* \"#utility.yul\":3809:3827   */\n      add\n        /* \"#utility.yul\":3801:3827   */\n      swap1\n      pop\n        /* \"#utility.yul\":3837:3908   */\n      tag_548\n        /* \"#utility.yul\":3905:3906   */\n      0x00\n        /* \"#utility.yul\":3894:3903   */\n      dup4\n        /* \"#utility.yul\":3890:3907   */\n      add\n        /* \"#utility.yul\":3881:3887   */\n      dup5\n        /* \"#utility.yul\":3837:3908   */\n      tag_452\n      jump\t// in\n    tag_548:\n        /* \"#utility.yul\":3693:3915   */\n      swap3\n      swap2\n      pop\n      pop\n      jump\t// out\n        /* \"#utility.yul\":3921:4430   */\n    tag_35:\n        /* \"#utility.yul\":3990:3996   */\n      0x00\n        /* \"#utility.yul\":4039:4041   */\n      0x20\n        /* \"#utility.yul\":4027:4036   */\n      dup3\n        /* \"#utility.yul\":4018:4025   */\n      dup5\n        /* \"#utility.yul\":4014:4037   */\n      sub\n        /* \"#utility.yul\":4010:4042   */\n      slt\n        /* \"#utility.yul\":4007:4126   */\n      iszero\n      tag_550\n      jumpi\n        /* \"#utility.yul\":4045:4124   */\n      tag_551\n      tag_437\n      jump\t// in\n    tag_551:\n        /* \"#utility.yul\":4007:4126   */\n    tag_550:\n        /* \"#utility.yul\":4193:4194   */\n      0x00\n        /* \"#utility.yul\":4182:4191   */\n      dup3\n        /* \"#utility.yul\":4178:4195   */\n      add\n        /* \"#utility.yul\":4165:4196   */\n      calldataload\n        /* \"#utility.yul\":4223:4241   */\n      0xffffffffffffffff\n        /* \"#utility.yul\":4215:4221   */\n      dup2\n        /* \"#utility.yul\":4212:4242   */\n      gt\n        /* \"#utility.yul\":4209:4326   */\n      iszero\n      tag_552\n      jumpi\n        /* \"#utility.yul\":4245:4324   */\n      tag_553\n      tag_438\n      jump\t// in\n    tag_553:\n        /* \"#utility.yul\":4209:4326   */\n    tag_552:\n        /* \"#utility.yul\":4350:4413   */\n      tag_554\n        /* \"#utility.yul\":4405:4412   */\n      dup5\n        /* \"#utility.yul\":4396:4402   */\n      dup3\n        /* \"#utility.yul\":4385:4394   */\n      dup6\n        /* \"#utility.yul\":4381:4403   */\n      add\n        /* \"#utility.yul\":4350:4413   */\n      tag_448\n      jump\t// in\n    tag_554:\n        /* \"#utility.yul\":4340:4413   */\n      swap2\n      pop\n        /* \"#utility.yul\":4136:4423   */\n      pop\n        /* \"#utility.yul\":3921:4430   */\n      swap3\n      swap2\n      pop\n      pop\n      jump\t// out\n        /* \"#utility.yul\":4436:4535   */\n    tag_453:\n        /* \"#utility.yul\":4488:4494   */\n      0x00\n        /* \"#utility.yul\":4522:4527   */\n      dup2\n        /* \"#utility.yul\":4516:4528   */\n      mload\n        /* \"#utility.yul\":4506:4528   */\n      swap1\n      pop\n        /* \"#utility.yul\":4436:4535   */\n      swap2\n      swap1\n      pop\n      jump\t// out\n        /* \"#utility.yul\":4541:4710   */\n    tag_454:\n        /* \"#utility.yul\":4625:4636   */\n      0x00\n        /* \"#utility.yul\":4659:4665   */\n      dup3\n        /* \"#utility.yul\":4654:4657   */\n      dup3\n        /* \"#utility.yul\":4647:4666   */\n      mstore\n        /* \"#utility.yul\":4699:4703   */\n      0x20\n        /* \"#utility.yul\":4694:4697   */\n      dup3\n        /* \"#utility.yul\":4690:4704   */\n      add\n        /* \"#utility.yul\":4675:4704   */\n      swap1\n      pop\n        /* \"#utility.yul\":4541:4710   */\n      swap3\n      swap2\n      pop\n      pop\n      jump\t// out\n        /* \"#utility.yul\":4716:4962   */\n    tag_455:\n        /* \"#utility.yul\":4797:4798   */\n      0x00\n        /* \"#utility.yul\":4807:4920   */\n    tag_558:\n        /* \"#utility.yul\":4821:4827   */\n      dup4\n        /* \"#utility.yul\":4818:4819   */\n      dup2\n        /* \"#utility.yul\":4815:4828   */\n      lt\n        /* \"#utility.yul\":4807:4920   */\n      iszero\n      tag_560\n      jumpi\n        /* \"#utility.yul\":4906:4907   */\n      dup1\n        /* \"#utility.yul\":4901:4904   */\n      dup3\n        /* \"#utility.yul\":4897:4908   */\n      add\n        /* \"#utility.yul\":4891:4909   */\n      mload\n        /* \"#utility.yul\":4887:4888   */\n      dup2\n        /* \"#utility.yul\":4882:4885   */\n      dup5\n        /* \"#utility.yul\":4878:4889   */\n      add\n        /* \"#utility.yul\":4871:4910   */\n      mstore\n        /* \"#utility.yul\":4843:4845   */\n      0x20\n        /* \"#utility.yul\":4840:4841   */\n      dup2\n        /* \"#utility.yul\":4836:4846   */\n      add\n        /* \"#utility.yul\":4831:4846   */\n      swap1\n      pop\n        /* \"#utility.yul\":4807:4920   */\n      jump(tag_558)\n    tag_560:\n        /* \"#utility.yul\":4954:4955   */\n      0x00\n        /* \"#utility.yul\":4945:4951   */\n      dup5\n        /* \"#utility.yul\":4940:4943   */\n      dup5\n        /* \"#utility.yul\":4936:4952   */\n      add\n        /* \"#utility.yul\":4929:4956   */\n      mstore\n        /* \"#utility.yul\":4778:4962   */\n      pop\n        /* \"#utility.yul\":4716:4962   */\n      pop\n      pop\n      pop\n      jump\t// out\n        /* \"#utility.yul\":4968:5345   */\n    tag_456:\n        /* \"#utility.yul\":5056:5059   */\n      0x00\n        /* \"#utility.yul\":5084:5123   */\n      tag_562\n        /* \"#utility.yul\":5117:5122   */\n      dup3\n        /* \"#utility.yul\":5084:5123   */\n      tag_453\n      jump\t// in\n    tag_562:\n        /* \"#utility.yul\":5139:5210   */\n      tag_563\n        /* \"#utility.yul\":5203:5209   */\n      dup2\n        /* \"#utility.yul\":5198:5201   */\n      dup6\n        /* \"#utility.yul\":5139:5210   */\n      tag_454\n      jump\t// in\n    tag_563:\n        /* \"#utility.yul\":5132:5210   */\n      swap4\n      pop\n        /* \"#utility.yul\":5219:5284   */\n      tag_564\n        /* \"#utility.yul\":5277:5283   */\n      dup2\n        /* \"#utility.yul\":5272:5275   */\n      dup6\n        /* \"#utility.yul\":5265:5269   */\n      0x20\n        /* \"#utility.yul\":5258:5263   */\n      dup7\n        /* \"#utility.yul\":5254:5270   */\n      add\n        /* \"#utility.yul\":5219:5284   */\n      tag_455\n      jump\t// in\n    tag_564:\n        /* \"#utility.yul\":5309:5338   */\n      tag_565\n        /* \"#utility.yul\":5331:5337   */\n      dup2\n        /* \"#utility.yul\":5309:5338   */\n      tag_441\n      jump\t// in\n    tag_565:\n        /* \"#utility.yul\":5304:5307   */\n      dup5\n        /* \"#utility.yul\":5300:5339   */\n      add\n        /* \"#utility.yul\":5293:5339   */\n      swap2\n      pop\n        /* \"#utility.yul\":5060:5345   */\n      pop\n        /* \"#utility.yul\":4968:5345   */\n      swap3\n      swap2\n      pop\n      pop\n      jump\t// out\n        /* \"#utility.yul\":5351:5477   */\n    tag_457:\n        /* \"#utility.yul\":5388:5395   */\n      0x00\n        /* \"#utility.yul\":5428:5470   */\n      0xffffffffffffffffffffffffffffffffffffffff\n        /* \"#utility.yul\":5421:5426   */\n      dup3\n        /* \"#utility.yul\":5417:5471   */\n      and\n        /* \"#utility.yul\":5406:5471   */\n      swap1\n      pop\n        /* \"#utility.yul\":5351:5477   */\n      swap2\n      swap1\n      pop\n      jump\t// out\n        /* \"#utility.yul\":5483:5579   */\n    tag_458:\n        /* \"#utility.yul\":5520:5527   */\n      0x00\n        /* \"#utility.yul\":5549:5573   */\n      tag_568\n        /* \"#utility.yul\":5567:5572   */\n      dup3\n        /* \"#utility.yul\":5549:5573   */\n      tag_457\n      jump\t// in\n    tag_568:\n        /* \"#utility.yul\":5538:5573   */\n      swap1\n      pop\n        /* \"#utility.yul\":5483:5579   */\n      swap2\n      swap1\n      pop\n      jump\t// out\n        /* \"#utility.yul\":5585:5703   */\n    tag_459:\n        /* \"#utility.yul\":5672:5696   */\n      tag_570\n        /* \"#utility.yul\":5690:5695   */\n      dup2\n        /* \"#utility.yul\":5672:5696   */\n      tag_458\n      jump\t// in\n    tag_570:\n        /* \"#utility.yul\":5667:5670   */\n      dup3\n        /* \"#utility.yul\":5660:5697   */\n      mstore\n        /* \"#utility.yul\":5585:5703   */\n      pop\n      pop\n      jump\t// out\n        /* \"#utility.yul\":5709:5868   */\n    tag_460:\n        /* \"#utility.yul\":5783:5794   */\n      0x00\n        /* \"#utility.yul\":5817:5823   */\n      dup3\n        /* \"#utility.yul\":5812:5815   */\n      dup3\n        /* \"#utility.yul\":5805:5824   */\n      mstore\n        /* \"#utility.yul\":5857:5861   */\n      0x20\n        /* \"#utility.yul\":5852:5855   */\n      dup3\n        /* \"#utility.yul\":5848:5862   */\n      add\n        /* \"#utility.yul\":5833:5862   */\n      swap1\n      pop\n        /* \"#utility.yul\":5709:5868   */\n      swap3\n      swap2\n      pop\n      pop\n      jump\t// out\n        /* \"#utility.yul\":5874:6231   */\n    tag_461:\n        /* \"#utility.yul\":5952:5955   */\n      0x00\n        /* \"#utility.yul\":5980:6019   */\n      tag_573\n        /* \"#utility.yul\":6013:6018   */\n      dup3\n        /* \"#utility.yul\":5980:6019   */\n      tag_453\n      jump\t// in\n    tag_573:\n        /* \"#utility.yul\":6035:6096   */\n      tag_574\n        /* \"#utility.yul\":6089:6095   */\n      dup2\n        /* \"#utility.yul\":6084:6087   */\n      dup6\n        /* \"#utility.yul\":6035:6096   */\n      tag_460\n      jump\t// in\n    tag_574:\n        /* \"#utility.yul\":6028:6096   */\n      swap4\n      pop\n        /* \"#utility.yul\":6105:6170   */\n      tag_575\n        /* \"#utility.yul\":6163:6169   */\n      dup2\n        /* \"#utility.yul\":6158:6161   */\n      dup6\n        /* \"#utility.yul\":6151:6155   */\n      0x20\n        /* \"#utility.yul\":6144:6149   */\n      dup7\n        /* \"#utility.yul\":6140:6156   */\n      add\n        /* \"#utility.yul\":6105:6170   */\n      tag_455\n      jump\t// in\n    tag_575:\n        /* \"#utility.yul\":6195:6224   */\n      tag_576\n        /* \"#utility.yul\":6217:6223   */\n      dup2\n        /* \"#utility.yul\":6195:6224   */\n      tag_441\n      jump\t// in\n    tag_576:\n        /* \"#utility.yul\":6190:6193   */\n      dup5\n        /* \"#utility.yul\":6186:6225   */\n      add\n        /* \"#utility.yul\":6179:6225   */\n      swap2\n      pop\n        /* \"#utility.yul\":5956:6231   */\n      pop\n        /* \"#utility.yul\":5874:6231   */\n      swap3\n      swap2\n      pop\n      pop\n      jump\t// out\n        /* \"#utility.yul\":6237:6417   */\n    tag_153:\n        /* \"#utility.yul\":6285:6362   */\n      0x4e487b7100000000000000000000000000000000000000000000000000000000\n        /* \"#utility.yul\":6282:6283   */\n      0x00\n        /* \"#utility.yul\":6275:6363   */\n      mstore\n        /* \"#utility.yul\":6382:6386   */\n      0x21\n        /* \"#utility.yul\":6379:6380   */\n      0x04\n        /* \"#utility.yul\":6372:6387   */\n      mstore\n        /* \"#utility.yul\":6406:6410   */\n      0x24\n        /* \"#utility.yul\":6403:6404   */\n      0x00\n        /* \"#utility.yul\":6396:6411   */\n      revert\n        /* \"#utility.yul\":6423:6540   */\n    tag_462:\n        /* \"#utility.yul\":6508:6509   */\n      0x05\n        /* \"#utility.yul\":6501:6506   */\n      dup2\n        /* \"#utility.yul\":6498:6510   */\n      lt\n        /* \"#utility.yul\":6488:6534   */\n      tag_579\n      jumpi\n        /* \"#utility.yul\":6514:6532   */\n      tag_580\n      tag_153\n      jump\t// in\n    tag_580:\n        /* \"#utility.yul\":6488:6534   */\n    tag_579:\n        /* \"#utility.yul\":6423:6540   */\n      pop\n      jump\t// out\n        /* \"#utility.yul\":6546:6681   */\n    tag_463:\n        /* \"#utility.yul\":6595:6602   */\n      0x00\n        /* \"#utility.yul\":6624:6629   */\n      dup2\n        /* \"#utility.yul\":6613:6629   */\n      swap1\n      pop\n        /* \"#utility.yul\":6630:6675   */\n      tag_582\n        /* \"#utility.yul\":6669:6674   */\n      dup3\n        /* \"#utility.yul\":6630:6675   */\n      tag_462\n      jump\t// in\n    tag_582:\n        /* \"#utility.yul\":6546:6681   */\n      swap2\n      swap1\n      pop\n      jump\t// out\n        /* \"#utility.yul\":6687:6822   */\n    tag_464:\n        /* \"#utility.yul\":6747:6756   */\n      0x00\n        /* \"#utility.yul\":6780:6816   */\n      tag_584\n        /* \"#utility.yul\":6810:6815   */\n      dup3\n        /* \"#utility.yul\":6780:6816   */\n      tag_463\n      jump\t// in\n    tag_584:\n        /* \"#utility.yul\":6767:6816   */\n      swap1\n      pop\n        /* \"#utility.yul\":6687:6822   */\n      swap2\n      swap1\n      pop\n      jump\t// out\n        /* \"#utility.yul\":6828:6969   */\n    tag_465:\n        /* \"#utility.yul\":6915:6962   */\n      tag_586\n        /* \"#utility.yul\":6956:6961   */\n      dup2\n        /* \"#utility.yul\":6915:6962   */\n      tag_464\n      jump\t// in\n    tag_586:\n        /* \"#utility.yul\":6910:6913   */\n      dup3\n        /* \"#utility.yul\":6903:6963   */\n      mstore\n        /* \"#utility.yul\":6828:6969   */\n      pop\n      pop\n      jump\t// out\n        /* \"#utility.yul\":7045:8490   */\n    tag_466:\n        /* \"#utility.yul\":7162:7165   */\n      0x00\n        /* \"#utility.yul\":7198:7202   */\n      0xc0\n        /* \"#utility.yul\":7193:7196   */\n      dup4\n        /* \"#utility.yul\":7189:7203   */\n      add\n        /* \"#utility.yul\":7296:7300   */\n      0x00\n        /* \"#utility.yul\":7289:7294   */\n      dup4\n        /* \"#utility.yul\":7285:7301   */\n      add\n        /* \"#utility.yul\":7279:7302   */\n      mload\n        /* \"#utility.yul\":7349:7352   */\n      dup5\n        /* \"#utility.yul\":7343:7347   */\n      dup3\n        /* \"#utility.yul\":7339:7353   */\n      sub\n        /* \"#utility.yul\":7332:7336   */\n      0x00\n        /* \"#utility.yul\":7327:7330   */\n      dup7\n        /* \"#utility.yul\":7323:7337   */\n      add\n        /* \"#utility.yul\":7316:7354   */\n      mstore\n        /* \"#utility.yul\":7375:7448   */\n      tag_588\n        /* \"#utility.yul\":7443:7447   */\n      dup3\n        /* \"#utility.yul\":7429:7441   */\n      dup3\n        /* \"#utility.yul\":7375:7448   */\n      tag_461\n      jump\t// in\n    tag_588:\n        /* \"#utility.yul\":7367:7448   */\n      swap2\n      pop\n        /* \"#utility.yul\":7213:7459   */\n      pop\n        /* \"#utility.yul\":7542:7546   */\n      0x20\n        /* \"#utility.yul\":7535:7540   */\n      dup4\n        /* \"#utility.yul\":7531:7547   */\n      add\n        /* \"#utility.yul\":7525:7548   */\n      mload\n        /* \"#utility.yul\":7595:7598   */\n      dup5\n        /* \"#utility.yul\":7589:7593   */\n      dup3\n        /* \"#utility.yul\":7585:7599   */\n      sub\n        /* \"#utility.yul\":7578:7582   */\n      0x20\n        /* \"#utility.yul\":7573:7576   */\n      dup7\n        /* \"#utility.yul\":7569:7583   */\n      add\n        /* \"#utility.yul\":7562:7600   */\n      mstore\n        /* \"#utility.yul\":7621:7694   */\n      tag_589\n        /* \"#utility.yul\":7689:7693   */\n      dup3\n        /* \"#utility.yul\":7675:7687   */\n      dup3\n        /* \"#utility.yul\":7621:7694   */\n      tag_461\n      jump\t// in\n    tag_589:\n        /* \"#utility.yul\":7613:7694   */\n      swap2\n      pop\n        /* \"#utility.yul\":7469:7705   */\n      pop\n        /* \"#utility.yul\":7788:7792   */\n      0x40\n        /* \"#utility.yul\":7781:7786   */\n      dup4\n        /* \"#utility.yul\":7777:7793   */\n      add\n        /* \"#utility.yul\":7771:7794   */\n      mload\n        /* \"#utility.yul\":7807:7880   */\n      tag_590\n        /* \"#utility.yul\":7874:7878   */\n      0x40\n        /* \"#utility.yul\":7869:7872   */\n      dup7\n        /* \"#utility.yul\":7865:7879   */\n      add\n        /* \"#utility.yul\":7851:7863   */\n      dup3\n        /* \"#utility.yul\":7807:7880   */\n      tag_465\n      jump\t// in\n    tag_590:\n        /* \"#utility.yul\":7715:7890   */\n      pop\n        /* \"#utility.yul\":7977:7981   */\n      0x60\n        /* \"#utility.yul\":7970:7975   */\n      dup4\n        /* \"#utility.yul\":7966:7982   */\n      add\n        /* \"#utility.yul\":7960:7983   */\n      mload\n        /* \"#utility.yul\":7996:8069   */\n      tag_591\n        /* \"#utility.yul\":8063:8067   */\n      0x60\n        /* \"#utility.yul\":8058:8061   */\n      dup7\n        /* \"#utility.yul\":8054:8068   */\n      add\n        /* \"#utility.yul\":8040:8052   */\n      dup3\n        /* \"#utility.yul\":7996:8069   */\n      tag_465\n      jump\t// in\n    tag_591:\n        /* \"#utility.yul\":7900:8079   */\n      pop\n        /* \"#utility.yul\":8167:8171   */\n      0x80\n        /* \"#utility.yul\":8160:8165   */\n      dup4\n        /* \"#utility.yul\":8156:8172   */\n      add\n        /* \"#utility.yul\":8150:8173   */\n      mload\n        /* \"#utility.yul\":8186:8259   */\n      tag_592\n        /* \"#utility.yul\":8253:8257   */\n      0x80\n        /* \"#utility.yul\":8248:8251   */\n      dup7\n        /* \"#utility.yul\":8244:8258   */\n      add\n        /* \"#utility.yul\":8230:8242   */\n      dup3\n        /* \"#utility.yul\":8186:8259   */\n      tag_465\n      jump\t// in\n    tag_592:\n        /* \"#utility.yul\":8089:8269   */\n      pop\n        /* \"#utility.yul\":8361:8365   */\n      0xa0\n        /* \"#utility.yul\":8354:8359   */\n      dup4\n        /* \"#utility.yul\":8350:8366   */\n      add\n        /* \"#utility.yul\":8344:8367   */\n      mload\n        /* \"#utility.yul\":8380:8453   */\n      tag_593\n        /* \"#utility.yul\":8447:8451   */\n      0xa0\n        /* \"#utility.yul\":8442:8445   */\n      dup7\n        /* \"#utility.yul\":8438:8452   */\n      add\n        /* \"#utility.yul\":8424:8436   */\n      dup3\n        /* \"#utility.yul\":8380:8453   */\n      tag_465\n      jump\t// in\n    tag_593:\n        /* \"#utility.yul\":8279:8463   */\n      pop\n        /* \"#utility.yul\":8480:8484   */\n      dup1\n        /* \"#utility.yul\":8473:8484   */\n      swap2\n      pop\n        /* \"#utility.yul\":7167:8490   */\n      pop\n        /* \"#utility.yul\":7045:8490   */\n      swap3\n      swap2\n      pop\n      pop\n      jump\t// out\n        /* \"#utility.yul\":8496:8586   */\n    tag_467:\n        /* \"#utility.yul\":8530:8537   */\n      0x00\n        /* \"#utility.yul\":8573:8578   */\n      dup2\n        /* \"#utility.yul\":8566:8579   */\n      iszero\n        /* \"#utility.yul\":8559:8580   */\n      iszero\n        /* \"#utility.yul\":8548:8580   */\n      swap1\n      pop\n        /* \"#utility.yul\":8496:8586   */\n      swap2\n      swap1\n      pop\n      jump\t// out\n        /* \"#utility.yul\":8592:8701   */\n    tag_468:\n        /* \"#utility.yul\":8673:8694   */\n      tag_596\n        /* \"#utility.yul\":8688:8693   */\n      dup2\n        /* \"#utility.yul\":8673:8694   */\n      tag_467\n      jump\t// in\n    tag_596:\n        /* \"#utility.yul\":8668:8671   */\n      dup3\n        /* \"#utility.yul\":8661:8695   */\n      mstore\n        /* \"#utility.yul\":8592:8701   */\n      pop\n      pop\n      jump\t// out\n        /* \"#utility.yul\":8707:10651   */\n    tag_38:\n        /* \"#utility.yul\":9232:9236   */\n      0x00\n        /* \"#utility.yul\":9270:9273   */\n      0x0180\n        /* \"#utility.yul\":9259:9268   */\n      dup3\n        /* \"#utility.yul\":9255:9274   */\n      add\n        /* \"#utility.yul\":9247:9274   */\n      swap1\n      pop\n        /* \"#utility.yul\":9320:9329   */\n      dup2\n        /* \"#utility.yul\":9314:9318   */\n      dup2\n        /* \"#utility.yul\":9310:9330   */\n      sub\n        /* \"#utility.yul\":9306:9307   */\n      0x00\n        /* \"#utility.yul\":9295:9304   */\n      dup4\n        /* \"#utility.yul\":9291:9308   */\n      add\n        /* \"#utility.yul\":9284:9331   */\n      mstore\n        /* \"#utility.yul\":9348:9426   */\n      tag_598\n        /* \"#utility.yul\":9421:9425   */\n      dup2\n        /* \"#utility.yul\":9412:9418   */\n      dup16\n        /* \"#utility.yul\":9348:9426   */\n      tag_456\n      jump\t// in\n    tag_598:\n        /* \"#utility.yul\":9340:9426   */\n      swap1\n      pop\n        /* \"#utility.yul\":9473:9482   */\n      dup2\n        /* \"#utility.yul\":9467:9471   */\n      dup2\n        /* \"#utility.yul\":9463:9483   */\n      sub\n        /* \"#utility.yul\":9458:9460   */\n      0x20\n        /* \"#utility.yul\":9447:9456   */\n      dup4\n        /* \"#utility.yul\":9443:9461   */\n      add\n        /* \"#utility.yul\":9436:9484   */\n      mstore\n        /* \"#utility.yul\":9501:9579   */\n      tag_599\n        /* \"#utility.yul\":9574:9578   */\n      dup2\n        /* \"#utility.yul\":9565:9571   */\n      dup15\n        /* \"#utility.yul\":9501:9579   */\n      tag_456\n      jump\t// in\n    tag_599:\n        /* \"#utility.yul\":9493:9579   */\n      swap1\n      pop\n        /* \"#utility.yul\":9589:9661   */\n      tag_600\n        /* \"#utility.yul\":9657:9659   */\n      0x40\n        /* \"#utility.yul\":9646:9655   */\n      dup4\n        /* \"#utility.yul\":9642:9660   */\n      add\n        /* \"#utility.yul\":9633:9639   */\n      dup14\n        /* \"#utility.yul\":9589:9661   */\n      tag_452\n      jump\t// in\n    tag_600:\n        /* \"#utility.yul\":9671:9743   */\n      tag_601\n        /* \"#utility.yul\":9739:9741   */\n      0x60\n        /* \"#utility.yul\":9728:9737   */\n      dup4\n        /* \"#utility.yul\":9724:9742   */\n      add\n        /* \"#utility.yul\":9715:9721   */\n      dup13\n        /* \"#utility.yul\":9671:9743   */\n      tag_452\n      jump\t// in\n    tag_601:\n        /* \"#utility.yul\":9753:9826   */\n      tag_602\n        /* \"#utility.yul\":9821:9824   */\n      0x80\n        /* \"#utility.yul\":9810:9819   */\n      dup4\n        /* \"#utility.yul\":9806:9825   */\n      add\n        /* \"#utility.yul\":9797:9803   */\n      dup12\n        /* \"#utility.yul\":9753:9826   */\n      tag_459\n      jump\t// in\n    tag_602:\n        /* \"#utility.yul\":9836:9909   */\n      tag_603\n        /* \"#utility.yul\":9904:9907   */\n      0xa0\n        /* \"#utility.yul\":9893:9902   */\n      dup4\n        /* \"#utility.yul\":9889:9908   */\n      add\n        /* \"#utility.yul\":9880:9886   */\n      dup11\n        /* \"#utility.yul\":9836:9909   */\n      tag_452\n      jump\t// in\n    tag_603:\n        /* \"#utility.yul\":9919:9992   */\n      tag_604\n        /* \"#utility.yul\":9987:9990   */\n      0xc0\n        /* \"#utility.yul\":9976:9985   */\n      dup4\n        /* \"#utility.yul\":9972:9991   */\n      add\n        /* \"#utility.yul\":9963:9969   */\n      dup10\n        /* \"#utility.yul\":9919:9992   */\n      tag_452\n      jump\t// in\n    tag_604:\n        /* \"#utility.yul\":10002:10075   */\n      tag_605\n        /* \"#utility.yul\":10070:10073   */\n      0xe0\n        /* \"#utility.yul\":10059:10068   */\n      dup4\n        /* \"#utility.yul\":10055:10074   */\n      add\n        /* \"#utility.yul\":10046:10052   */\n      dup9\n        /* \"#utility.yul\":10002:10075   */\n      tag_459\n      jump\t// in\n    tag_605:\n        /* \"#utility.yul\":10123:10132   */\n      dup2\n        /* \"#utility.yul\":10117:10121   */\n      dup2\n        /* \"#utility.yul\":10113:10133   */\n      sub\n        /* \"#utility.yul\":10107:10110   */\n      0x0100\n        /* \"#utility.yul\":10096:10105   */\n      dup4\n        /* \"#utility.yul\":10092:10111   */\n      add\n        /* \"#utility.yul\":10085:10134   */\n      mstore\n        /* \"#utility.yul\":10151:10257   */\n      tag_606\n        /* \"#utility.yul\":10252:10256   */\n      dup2\n        /* \"#utility.yul\":10243:10249   */\n      dup8\n        /* \"#utility.yul\":10151:10257   */\n      tag_466\n      jump\t// in\n    tag_606:\n        /* \"#utility.yul\":10143:10257   */\n      swap1\n      pop\n        /* \"#utility.yul\":10305:10314   */\n      dup2\n        /* \"#utility.yul\":10299:10303   */\n      dup2\n        /* \"#utility.yul\":10295:10315   */\n      sub\n        /* \"#utility.yul\":10289:10292   */\n      0x0120\n        /* \"#utility.yul\":10278:10287   */\n      dup4\n        /* \"#utility.yul\":10274:10293   */\n      add\n        /* \"#utility.yul\":10267:10316   */\n      mstore\n        /* \"#utility.yul\":10333:10411   */\n      tag_607\n        /* \"#utility.yul\":10406:10410   */\n      dup2\n        /* \"#utility.yul\":10397:10403   */\n      dup7\n        /* \"#utility.yul\":10333:10411   */\n      tag_456\n      jump\t// in\n    tag_607:\n        /* \"#utility.yul\":10325:10411   */\n      swap1\n      pop\n        /* \"#utility.yul\":10421:10489   */\n      tag_608\n        /* \"#utility.yul\":10484:10487   */\n      0x0140\n        /* \"#utility.yul\":10473:10482   */\n      dup4\n        /* \"#utility.yul\":10469:10488   */\n      add\n        /* \"#utility.yul\":10459:10466   */\n      dup6\n        /* \"#utility.yul\":10421:10489   */\n      tag_468\n      jump\t// in\n    tag_608:\n        /* \"#utility.yul\":10537:10546   */\n      dup2\n        /* \"#utility.yul\":10531:10535   */\n      dup2\n        /* \"#utility.yul\":10527:10547   */\n      sub\n        /* \"#utility.yul\":10521:10524   */\n      0x0160\n        /* \"#utility.yul\":10510:10519   */\n      dup4\n        /* \"#utility.yul\":10506:10525   */\n      add\n        /* \"#utility.yul\":10499:10548   */\n      mstore\n        /* \"#utility.yul\":10565:10644   */\n      tag_609\n        /* \"#utility.yul\":10639:10643   */\n      dup2\n        /* \"#utility.yul\":10629:10636   */\n      dup5\n        /* \"#utility.yul\":10565:10644   */\n      tag_456\n      jump\t// in\n    tag_609:\n        /* \"#utility.yul\":10557:10644   */\n      swap1\n      pop\n        /* \"#utility.yul\":8707:10651   */\n      swap14\n      swap13\n      pop\n      pop\n      pop\n      pop\n      pop\n      pop\n      pop\n      pop\n      pop\n      pop\n      pop\n      pop\n      pop\n      jump\t// out\n        /* \"#utility.yul\":10657:10779   */\n    tag_469:\n        /* \"#utility.yul\":10730:10754   */\n      tag_611\n        /* \"#utility.yul\":10748:10753   */\n      dup2\n        /* \"#utility.yul\":10730:10754   */\n      tag_458\n      jump\t// in\n    tag_611:\n        /* \"#utility.yul\":10723:10728   */\n      dup2\n        /* \"#utility.yul\":10720:10755   */\n      eq\n        /* \"#utility.yul\":10710:10773   */\n      tag_612\n      jumpi\n        /* \"#utility.yul\":10769:10770   */\n      0x00\n        /* \"#utility.yul\":10766:10767   */\n      dup1\n        /* \"#utility.yul\":10759:10771   */\n      revert\n        /* \"#utility.yul\":10710:10773   */\n    tag_612:\n        /* \"#utility.yul\":10657:10779   */\n      pop\n      jump\t// out\n        /* \"#utility.yul\":10785:10924   */\n    tag_470:\n        /* \"#utility.yul\":10831:10836   */\n      0x00\n        /* \"#utility.yul\":10869:10875   */\n      dup2\n        /* \"#utility.yul\":10856:10876   */\n      calldataload\n        /* \"#utility.yul\":10847:10876   */\n      swap1\n      pop\n        /* \"#utility.yul\":10885:10918   */\n      tag_614\n        /* \"#utility.yul\":10912:10917   */\n      dup2\n        /* \"#utility.yul\":10885:10918   */\n      tag_469\n      jump\t// in\n    tag_614:\n        /* \"#utility.yul\":10785:10924   */\n      swap3\n      swap2\n      pop\n      pop\n      jump\t// out\n        /* \"#utility.yul\":10930:11584   */\n    tag_41:\n        /* \"#utility.yul\":11008:11014   */\n      0x00\n        /* \"#utility.yul\":11016:11022   */\n      dup1\n        /* \"#utility.yul\":11065:11067   */\n      0x40\n        /* \"#utility.yul\":11053:11062   */\n      dup4\n        /* \"#utility.yul\":11044:11051   */\n      dup6\n        /* \"#utility.yul\":11040:11063   */\n      sub\n        /* \"#utility.yul\":11036:11068   */\n      slt\n        /* \"#utility.yul\":11033:11152   */\n      iszero\n      tag_616\n      jumpi\n        /* \"#utility.yul\":11071:11150   */\n      tag_617\n      tag_437\n      jump\t// in\n    tag_617:\n        /* \"#utility.yul\":11033:11152   */\n    tag_616:\n        /* \"#utility.yul\":11191:11192   */\n      0x00\n        /* \"#utility.yul\":11216:11269   */\n      tag_618\n        /* \"#utility.yul\":11261:11268   */\n      dup6\n        /* \"#utility.yul\":11252:11258   */\n      dup3\n        /* \"#utility.yul\":11241:11250   */\n      dup7\n        /* \"#utility.yul\":11237:11259   */\n      add\n        /* \"#utility.yul\":11216:11269   */\n      tag_470\n      jump\t// in\n    tag_618:\n        /* \"#utility.yul\":11206:11269   */\n      swap3\n      pop\n        /* \"#utility.yul\":11162:11279   */\n      pop\n        /* \"#utility.yul\":11346:11348   */\n      0x20\n        /* \"#utility.yul\":11335:11344   */\n      dup4\n        /* \"#utility.yul\":11331:11349   */\n      add\n        /* \"#utility.yul\":11318:11350   */\n      calldataload\n        /* \"#utility.yul\":11377:11395   */\n      0xffffffffffffffff\n        /* \"#utility.yul\":11369:11375   */\n      dup2\n        /* \"#utility.yul\":11366:11396   */\n      gt\n        /* \"#utility.yul\":11363:11480   */\n      iszero\n      tag_619\n      jumpi\n        /* \"#utility.yul\":11399:11478   */\n      tag_620\n      tag_438\n      jump\t// in\n    tag_620:\n        /* \"#utility.yul\":11363:11480   */\n    tag_619:\n        /* \"#utility.yul\":11504:11567   */\n      tag_621\n        /* \"#utility.yul\":11559:11566   */\n      dup6\n        /* \"#utility.yul\":11550:11556   */\n      dup3\n        /* \"#utility.yul\":11539:11548   */\n      dup7\n        /* \"#utility.yul\":11535:11557   */\n      add\n        /* \"#utility.yul\":11504:11567   */\n      tag_448\n      jump\t// in\n    tag_621:\n        /* \"#utility.yul\":11494:11567   */\n      swap2\n      pop\n        /* \"#utility.yul\":11289:11577   */\n      pop\n        /* \"#utility.yul\":10930:11584   */\n      swap3\n      pop\n      swap3\n      swap1\n      pop\n      jump\t// out\n        /* \"#utility.yul\":11590:11903   */\n    tag_44:\n        /* \"#utility.yul\":11703:11707   */\n      0x00\n        /* \"#utility.yul\":11741:11743   */\n      0x20\n        /* \"#utility.yul\":11730:11739   */\n      dup3\n        /* \"#utility.yul\":11726:11744   */\n      add\n        /* \"#utility.yul\":11718:11744   */\n      swap1\n      pop\n        /* \"#utility.yul\":11790:11799   */\n      dup2\n        /* \"#utility.yul\":11784:11788   */\n      dup2\n        /* \"#utility.yul\":11780:11800   */\n      sub\n        /* \"#utility.yul\":11776:11777   */\n      0x00\n        /* \"#utility.yul\":11765:11774   */\n      dup4\n        /* \"#utility.yul\":11761:11778   */\n      add\n        /* \"#utility.yul\":11754:11801   */\n      mstore\n        /* \"#utility.yul\":11818:11896   */\n      tag_623\n        /* \"#utility.yul\":11891:11895   */\n      dup2\n        /* \"#utility.yul\":11882:11888   */\n      dup5\n        /* \"#utility.yul\":11818:11896   */\n      tag_456\n      jump\t// in\n    tag_623:\n        /* \"#utility.yul\":11810:11896   */\n      swap1\n      pop\n        /* \"#utility.yul\":11590:11903   */\n      swap3\n      swap2\n      pop\n      pop\n      jump\t// out\n        /* \"#utility.yul\":11909:13326   */\n    tag_48:\n        /* \"#utility.yul\":12033:12039   */\n      0x00\n        /* \"#utility.yul\":12041:12047   */\n      dup1\n        /* \"#utility.yul\":12049:12055   */\n      0x00\n        /* \"#utility.yul\":12057:12063   */\n      dup1\n        /* \"#utility.yul\":12065:12071   */\n      0x00\n        /* \"#utility.yul\":12073:12079   */\n      dup1\n        /* \"#utility.yul\":12122:12125   */\n      0xc0\n        /* \"#utility.yul\":12110:12119   */\n      dup8\n        /* \"#utility.yul\":12101:12108   */\n      dup10\n        /* \"#utility.yul\":12097:12120   */\n      sub\n        /* \"#utility.yul\":12093:12126   */\n      slt\n        /* \"#utility.yul\":12090:12210   */\n      iszero\n      tag_625\n      jumpi\n        /* \"#utility.yul\":12129:12208   */\n      tag_626\n      tag_437\n      jump\t// in\n    tag_626:\n        /* \"#utility.yul\":12090:12210   */\n    tag_625:\n        /* \"#utility.yul\":12277:12278   */\n      0x00\n        /* \"#utility.yul\":12266:12275   */\n      dup8\n        /* \"#utility.yul\":12262:12279   */\n      add\n        /* \"#utility.yul\":12249:12280   */\n      calldataload\n        /* \"#utility.yul\":12307:12325   */\n      0xffffffffffffffff\n        /* \"#utility.yul\":12299:12305   */\n      dup2\n        /* \"#utility.yul\":12296:12326   */\n      gt\n        /* \"#utility.yul\":12293:12410   */\n      iszero\n      tag_627\n      jumpi\n        /* \"#utility.yul\":12329:12408   */\n      tag_628\n      tag_438\n      jump\t// in\n    tag_628:\n        /* \"#utility.yul\":12293:12410   */\n    tag_627:\n        /* \"#utility.yul\":12434:12497   */\n      tag_629\n        /* \"#utility.yul\":12489:12496   */\n      dup10\n        /* \"#utility.yul\":12480:12486   */\n      dup3\n        /* \"#utility.yul\":12469:12478   */\n      dup11\n        /* \"#utility.yul\":12465:12487   */\n      add\n        /* \"#utility.yul\":12434:12497   */\n      tag_448\n      jump\t// in\n    tag_629:\n        /* \"#utility.yul\":12424:12497   */\n      swap7\n      pop\n        /* \"#utility.yul\":12220:12507   */\n      pop\n        /* \"#utility.yul\":12574:12576   */\n      0x20\n        /* \"#utility.yul\":12563:12572   */\n      dup8\n        /* \"#utility.yul\":12559:12577   */\n      add\n        /* \"#utility.yul\":12546:12578   */\n      calldataload\n        /* \"#utility.yul\":12605:12623   */\n      0xffffffffffffffff\n        /* \"#utility.yul\":12597:12603   */\n      dup2\n        /* \"#utility.yul\":12594:12624   */\n      gt\n        /* \"#utility.yul\":12591:12708   */\n      iszero\n      tag_630\n      jumpi\n        /* \"#utility.yul\":12627:12706   */\n      tag_631\n      tag_438\n      jump\t// in\n    tag_631:\n        /* \"#utility.yul\":12591:12708   */\n    tag_630:\n        /* \"#utility.yul\":12732:12795   */\n      tag_632\n        /* \"#utility.yul\":12787:12794   */\n      dup10\n        /* \"#utility.yul\":12778:12784   */\n      dup3\n        /* \"#utility.yul\":12767:12776   */\n      dup11\n        /* \"#utility.yul\":12763:12785   */\n      add\n        /* \"#utility.yul\":12732:12795   */\n      tag_448\n      jump\t// in\n    tag_632:\n        /* \"#utility.yul\":12722:12795   */\n      swap6\n      pop\n        /* \"#utility.yul\":12517:12805   */\n      pop\n        /* \"#utility.yul\":12844:12846   */\n      0x40\n        /* \"#utility.yul\":12870:12923   */\n      tag_633\n        /* \"#utility.yul\":12915:12922   */\n      dup10\n        /* \"#utility.yul\":12906:12912   */\n      dup3\n        /* \"#utility.yul\":12895:12904   */\n      dup11\n        /* \"#utility.yul\":12891:12913   */\n      add\n        /* \"#utility.yul\":12870:12923   */\n      tag_451\n      jump\t// in\n    tag_633:\n        /* \"#utility.yul\":12860:12923   */\n      swap5\n      pop\n        /* \"#utility.yul\":12815:12933   */\n      pop\n        /* \"#utility.yul\":12972:12974   */\n      0x60\n        /* \"#utility.yul\":12998:13051   */\n      tag_634\n        /* \"#utility.yul\":13043:13050   */\n      dup10\n        /* \"#utility.yul\":13034:13040   */\n      dup3\n        /* \"#utility.yul\":13023:13032   */\n      dup11\n        /* \"#utility.yul\":13019:13041   */\n      add\n        /* \"#utility.yul\":12998:13051   */\n      tag_451\n      jump\t// in\n    tag_634:\n        /* \"#utility.yul\":12988:13051   */\n      swap4\n      pop\n        /* \"#utility.yul\":12943:13061   */\n      pop\n        /* \"#utility.yul\":13100:13103   */\n      0x80\n        /* \"#utility.yul\":13127:13180   */\n      tag_635\n        /* \"#utility.yul\":13172:13179   */\n      dup10\n        /* \"#utility.yul\":13163:13169   */\n      dup3\n        /* \"#utility.yul\":13152:13161   */\n      dup11\n        /* \"#utility.yul\":13148:13170   */\n      add\n        /* \"#utility.yul\":13127:13180   */\n      tag_451\n      jump\t// in\n    tag_635:\n        /* \"#utility.yul\":13117:13180   */\n      swap3\n      pop\n        /* \"#utility.yul\":13071:13190   */\n      pop\n        /* \"#utility.yul\":13229:13232   */\n      0xa0\n        /* \"#utility.yul\":13256:13309   */\n      tag_636\n        /* \"#utility.yul\":13301:13308   */\n      dup10\n        /* \"#utility.yul\":13292:13298   */\n      dup3\n        /* \"#utility.yul\":13281:13290   */\n      dup11\n        /* \"#utility.yul\":13277:13299   */\n      add\n        /* \"#utility.yul\":13256:13309   */\n      tag_451\n      jump\t// in\n    tag_636:\n        /* \"#utility.yul\":13246:13309   */\n      swap2\n      pop\n        /* \"#utility.yul\":13200:13319   */\n      pop\n        /* \"#utility.yul\":11909:13326   */\n      swap3\n      swap6\n      pop\n      swap3\n      swap6\n      pop\n      swap3\n      swap6\n      jump\t// out\n        /* \"#utility.yul\":13332:13436   */\n    tag_471:\n        /* \"#utility.yul\":13377:13384   */\n      0x00\n        /* \"#utility.yul\":13406:13430   */\n      tag_638\n        /* \"#utility.yul\":13424:13429   */\n      dup3\n        /* \"#utility.yul\":13406:13430   */\n      tag_457\n      jump\t// in\n    tag_638:\n        /* \"#utility.yul\":13395:13430   */\n      swap1\n      pop\n        /* \"#utility.yul\":13332:13436   */\n      swap2\n      swap1\n      pop\n      jump\t// out\n        /* \"#utility.yul\":13442:13584   */\n    tag_472:\n        /* \"#utility.yul\":13545:13577   */\n      tag_640\n        /* \"#utility.yul\":13571:13576   */\n      dup2\n        /* \"#utility.yul\":13545:13577   */\n      tag_471\n      jump\t// in\n    tag_640:\n        /* \"#utility.yul\":13540:13543   */\n      dup3\n        /* \"#utility.yul\":13533:13578   */\n      mstore\n        /* \"#utility.yul\":13442:13584   */\n      pop\n      pop\n      jump\t// out\n        /* \"#utility.yul\":13590:13844   */\n    tag_54:\n        /* \"#utility.yul\":13699:13703   */\n      0x00\n        /* \"#utility.yul\":13737:13739   */\n      0x20\n        /* \"#utility.yul\":13726:13735   */\n      dup3\n        /* \"#utility.yul\":13722:13740   */\n      add\n        /* \"#utility.yul\":13714:13740   */\n      swap1\n      pop\n        /* \"#utility.yul\":13750:13837   */\n      tag_642\n        /* \"#utility.yul\":13834:13835   */\n      0x00\n        /* \"#utility.yul\":13823:13832   */\n      dup4\n        /* \"#utility.yul\":13819:13836   */\n      add\n        /* \"#utility.yul\":13810:13816   */\n      dup5\n        /* \"#utility.yul\":13750:13837   */\n      tag_472\n      jump\t// in\n    tag_642:\n        /* \"#utility.yul\":13590:13844   */\n      swap3\n      swap2\n      pop\n      pop\n      jump\t// out\n        /* \"#utility.yul\":13850:14099   */\n    tag_473:\n        /* \"#utility.yul\":13925:13929   */\n      0x00\n        /* \"#utility.yul\":14015:14033   */\n      0xffffffffffffffff\n        /* \"#utility.yul\":14007:14013   */\n      dup3\n        /* \"#utility.yul\":14004:14034   */\n      gt\n        /* \"#utility.yul\":14001:14057   */\n      iszero\n      tag_644\n      jumpi\n        /* \"#utility.yul\":14037:14055   */\n      tag_645\n      tag_442\n      jump\t// in\n    tag_645:\n        /* \"#utility.yul\":14001:14057   */\n    tag_644:\n        /* \"#utility.yul\":14087:14091   */\n      0x20\n        /* \"#utility.yul\":14079:14085   */\n      dup3\n        /* \"#utility.yul\":14075:14092   */\n      mul\n        /* \"#utility.yul\":14067:14092   */\n      swap1\n      pop\n        /* \"#utility.yul\":13850:14099   */\n      swap2\n      swap1\n      pop\n      jump\t// out\n        /* \"#utility.yul\":14105:14222   */\n    tag_474:\n        /* \"#utility.yul\":14214:14215   */\n      0x00\n        /* \"#utility.yul\":14211:14212   */\n      dup1\n        /* \"#utility.yul\":14204:14216   */\n      revert\n        /* \"#utility.yul\":14246:14889   */\n    tag_475:\n        /* \"#utility.yul\":14340:14345   */\n      0x00\n        /* \"#utility.yul\":14365:14444   */\n      tag_648\n        /* \"#utility.yul\":14381:14443   */\n      tag_649\n        /* \"#utility.yul\":14436:14442   */\n      dup5\n        /* \"#utility.yul\":14381:14443   */\n      tag_473\n      jump\t// in\n    tag_649:\n        /* \"#utility.yul\":14365:14444   */\n      tag_444\n      jump\t// in\n    tag_648:\n        /* \"#utility.yul\":14356:14444   */\n      swap1\n      pop\n        /* \"#utility.yul\":14464:14469   */\n      dup1\n        /* \"#utility.yul\":14517:14521   */\n      0x20\n        /* \"#utility.yul\":14509:14515   */\n      dup5\n        /* \"#utility.yul\":14505:14522   */\n      mul\n        /* \"#utility.yul\":14497:14503   */\n      dup4\n        /* \"#utility.yul\":14493:14523   */\n      add\n        /* \"#utility.yul\":14546:14549   */\n      dup6\n        /* \"#utility.yul\":14538:14544   */\n      dup2\n        /* \"#utility.yul\":14535:14550   */\n      gt\n        /* \"#utility.yul\":14532:14654   */\n      iszero\n      tag_650\n      jumpi\n        /* \"#utility.yul\":14565:14644   */\n      tag_651\n      tag_474\n      jump\t// in\n    tag_651:\n        /* \"#utility.yul\":14532:14654   */\n    tag_650:\n        /* \"#utility.yul\":14680:14686   */\n      dup4\n        /* \"#utility.yul\":14663:14883   */\n    tag_652:\n        /* \"#utility.yul\":14697:14703   */\n      dup2\n        /* \"#utility.yul\":14692:14695   */\n      dup2\n        /* \"#utility.yul\":14689:14704   */\n      lt\n        /* \"#utility.yul\":14663:14883   */\n      iszero\n      tag_654\n      jumpi\n        /* \"#utility.yul\":14772:14775   */\n      dup1\n        /* \"#utility.yul\":14801:14838   */\n      tag_655\n        /* \"#utility.yul\":14834:14837   */\n      dup9\n        /* \"#utility.yul\":14822:14832   */\n      dup3\n        /* \"#utility.yul\":14801:14838   */\n      tag_451\n      jump\t// in\n    tag_655:\n        /* \"#utility.yul\":14796:14799   */\n      dup5\n        /* \"#utility.yul\":14789:14839   */\n      mstore\n        /* \"#utility.yul\":14868:14872   */\n      0x20\n        /* \"#utility.yul\":14863:14866   */\n      dup5\n        /* \"#utility.yul\":14859:14873   */\n      add\n        /* \"#utility.yul\":14852:14873   */\n      swap4\n      pop\n        /* \"#utility.yul\":14739:14883   */\n      pop\n        /* \"#utility.yul\":14723:14727   */\n      0x20\n        /* \"#utility.yul\":14718:14721   */\n      dup2\n        /* \"#utility.yul\":14714:14728   */\n      add\n        /* \"#utility.yul\":14707:14728   */\n      swap1\n      pop\n        /* \"#utility.yul\":14663:14883   */\n      jump(tag_652)\n    tag_654:\n        /* \"#utility.yul\":14667:14688   */\n      pop\n        /* \"#utility.yul\":14346:14889   */\n      pop\n      pop\n        /* \"#utility.yul\":14246:14889   */\n      swap4\n      swap3\n      pop\n      pop\n      pop\n      jump\t// out\n        /* \"#utility.yul\":14913:15252   */\n    tag_476:\n        /* \"#utility.yul\":14982:14987   */\n      0x00\n        /* \"#utility.yul\":15031:15034   */\n      dup3\n        /* \"#utility.yul\":15024:15028   */\n      0x1f\n        /* \"#utility.yul\":15016:15022   */\n      dup4\n        /* \"#utility.yul\":15012:15029   */\n      add\n        /* \"#utility.yul\":15008:15035   */\n      slt\n        /* \"#utility.yul\":14998:15120   */\n      tag_657\n      jumpi\n        /* \"#utility.yul\":15039:15118   */\n      tag_658\n      tag_439\n      jump\t// in\n    tag_658:\n        /* \"#utility.yul\":14998:15120   */\n    tag_657:\n        /* \"#utility.yul\":15143:15147   */\n      0x04\n        /* \"#utility.yul\":15165:15246   */\n      tag_659\n        /* \"#utility.yul\":15242:15245   */\n      dup5\n        /* \"#utility.yul\":15234:15240   */\n      dup3\n        /* \"#utility.yul\":15226:15232   */\n      dup6\n        /* \"#utility.yul\":15165:15246   */\n      tag_475\n      jump\t// in\n    tag_659:\n        /* \"#utility.yul\":15156:15246   */\n      swap2\n      pop\n        /* \"#utility.yul\":14988:15252   */\n      pop\n        /* \"#utility.yul\":14913:15252   */\n      swap3\n      swap2\n      pop\n      pop\n      jump\t// out\n        /* \"#utility.yul\":15258:16609   */\n    tag_62:\n        /* \"#utility.yul\":15397:15403   */\n      0x00\n        /* \"#utility.yul\":15405:15411   */\n      dup1\n        /* \"#utility.yul\":15413:15419   */\n      0x00\n        /* \"#utility.yul\":15421:15427   */\n      dup1\n        /* \"#utility.yul\":15470:15473   */\n      0xe0\n        /* \"#utility.yul\":15458:15467   */\n      dup6\n        /* \"#utility.yul\":15449:15456   */\n      dup8\n        /* \"#utility.yul\":15445:15468   */\n      sub\n        /* \"#utility.yul\":15441:15474   */\n      slt\n        /* \"#utility.yul\":15438:15558   */\n      iszero\n      tag_661\n      jumpi\n        /* \"#utility.yul\":15477:15556   */\n      tag_662\n      tag_437\n      jump\t// in\n    tag_662:\n        /* \"#utility.yul\":15438:15558   */\n    tag_661:\n        /* \"#utility.yul\":15625:15626   */\n      0x00\n        /* \"#utility.yul\":15614:15623   */\n      dup6\n        /* \"#utility.yul\":15610:15627   */\n      add\n        /* \"#utility.yul\":15597:15628   */\n      calldataload\n        /* \"#utility.yul\":15655:15673   */\n      0xffffffffffffffff\n        /* \"#utility.yul\":15647:15653   */\n      dup2\n        /* \"#utility.yul\":15644:15674   */\n      gt\n        /* \"#utility.yul\":15641:15758   */\n      iszero\n      tag_663\n      jumpi\n        /* \"#utility.yul\":15677:15756   */\n      tag_664\n      tag_438\n      jump\t// in\n    tag_664:\n        /* \"#utility.yul\":15641:15758   */\n    tag_663:\n        /* \"#utility.yul\":15782:15845   */\n      tag_665\n        /* \"#utility.yul\":15837:15844   */\n      dup8\n        /* \"#utility.yul\":15828:15834   */\n      dup3\n        /* \"#utility.yul\":15817:15826   */\n      dup9\n        /* \"#utility.yul\":15813:15835   */\n      add\n        /* \"#utility.yul\":15782:15845   */\n      tag_448\n      jump\t// in\n    tag_665:\n        /* \"#utility.yul\":15772:15845   */\n      swap5\n      pop\n        /* \"#utility.yul\":15568:15855   */\n      pop\n        /* \"#utility.yul\":15922:15924   */\n      0x20\n        /* \"#utility.yul\":15911:15920   */\n      dup6\n        /* \"#utility.yul\":15907:15925   */\n      add\n        /* \"#utility.yul\":15894:15926   */\n      calldataload\n        /* \"#utility.yul\":15953:15971   */\n      0xffffffffffffffff\n        /* \"#utility.yul\":15945:15951   */\n      dup2\n        /* \"#utility.yul\":15942:15972   */\n      gt\n        /* \"#utility.yul\":15939:16056   */\n      iszero\n      tag_666\n      jumpi\n        /* \"#utility.yul\":15975:16054   */\n      tag_667\n      tag_438\n      jump\t// in\n    tag_667:\n        /* \"#utility.yul\":15939:16056   */\n    tag_666:\n        /* \"#utility.yul\":16080:16143   */\n      tag_668\n        /* \"#utility.yul\":16135:16142   */\n      dup8\n        /* \"#utility.yul\":16126:16132   */\n      dup3\n        /* \"#utility.yul\":16115:16124   */\n      dup9\n        /* \"#utility.yul\":16111:16133   */\n      add\n        /* \"#utility.yul\":16080:16143   */\n      tag_448\n      jump\t// in\n    tag_668:\n        /* \"#utility.yul\":16070:16143   */\n      swap4\n      pop\n        /* \"#utility.yul\":15865:16153   */\n      pop\n        /* \"#utility.yul\":16220:16222   */\n      0x40\n        /* \"#utility.yul\":16209:16218   */\n      dup6\n        /* \"#utility.yul\":16205:16223   */\n      add\n        /* \"#utility.yul\":16192:16224   */\n      calldataload\n        /* \"#utility.yul\":16251:16269   */\n      0xffffffffffffffff\n        /* \"#utility.yul\":16243:16249   */\n      dup2\n        /* \"#utility.yul\":16240:16270   */\n      gt\n        /* \"#utility.yul\":16237:16354   */\n      iszero\n      tag_669\n      jumpi\n        /* \"#utility.yul\":16273:16352   */\n      tag_670\n      tag_438\n      jump\t// in\n    tag_670:\n        /* \"#utility.yul\":16237:16354   */\n    tag_669:\n        /* \"#utility.yul\":16378:16441   */\n      tag_671\n        /* \"#utility.yul\":16433:16440   */\n      dup8\n        /* \"#utility.yul\":16424:16430   */\n      dup3\n        /* \"#utility.yul\":16413:16422   */\n      dup9\n        /* \"#utility.yul\":16409:16431   */\n      add\n        /* \"#utility.yul\":16378:16441   */\n      tag_448\n      jump\t// in\n    tag_671:\n        /* \"#utility.yul\":16368:16441   */\n      swap3\n      pop\n        /* \"#utility.yul\":16163:16451   */\n      pop\n        /* \"#utility.yul\":16490:16492   */\n      0x60\n        /* \"#utility.yul\":16516:16592   */\n      tag_672\n        /* \"#utility.yul\":16584:16591   */\n      dup8\n        /* \"#utility.yul\":16575:16581   */\n      dup3\n        /* \"#utility.yul\":16564:16573   */\n      dup9\n        /* \"#utility.yul\":16560:16582   */\n      add\n        /* \"#utility.yul\":16516:16592   */\n      tag_476\n      jump\t// in\n    tag_672:\n        /* \"#utility.yul\":16506:16592   */\n      swap2\n      pop\n        /* \"#utility.yul\":16461:16602   */\n      pop\n        /* \"#utility.yul\":15258:16609   */\n      swap3\n      swap6\n      swap2\n      swap5\n      pop\n      swap3\n      pop\n      jump\t// out\n        /* \"#utility.yul\":16615:16723   */\n    tag_477:\n        /* \"#utility.yul\":16692:16716   */\n      tag_674\n        /* \"#utility.yul\":16710:16715   */\n      dup2\n        /* \"#utility.yul\":16692:16716   */\n      tag_449\n      jump\t// in\n    tag_674:\n        /* \"#utility.yul\":16687:16690   */\n      dup3\n        /* \"#utility.yul\":16680:16717   */\n      mstore\n        /* \"#utility.yul\":16615:16723   */\n      pop\n      pop\n      jump\t// out\n        /* \"#utility.yul\":16729:16837   */\n    tag_478:\n        /* \"#utility.yul\":16806:16830   */\n      tag_676\n        /* \"#utility.yul\":16824:16829   */\n      dup2\n        /* \"#utility.yul\":16806:16830   */\n      tag_458\n      jump\t// in\n    tag_676:\n        /* \"#utility.yul\":16801:16804   */\n      dup3\n        /* \"#utility.yul\":16794:16831   */\n      mstore\n        /* \"#utility.yul\":16729:16837   */\n      pop\n      pop\n      jump\t// out\n        /* \"#utility.yul\":16913:18348   */\n    tag_479:\n        /* \"#utility.yul\":17020:17023   */\n      0x00\n        /* \"#utility.yul\":17056:17060   */\n      0xc0\n        /* \"#utility.yul\":17051:17054   */\n      dup4\n        /* \"#utility.yul\":17047:17061   */\n      add\n        /* \"#utility.yul\":17154:17158   */\n      0x00\n        /* \"#utility.yul\":17147:17152   */\n      dup4\n        /* \"#utility.yul\":17143:17159   */\n      add\n        /* \"#utility.yul\":17137:17160   */\n      mload\n        /* \"#utility.yul\":17207:17210   */\n      dup5\n        /* \"#utility.yul\":17201:17205   */\n      dup3\n        /* \"#utility.yul\":17197:17211   */\n      sub\n        /* \"#utility.yul\":17190:17194   */\n      0x00\n        /* \"#utility.yul\":17185:17188   */\n      dup7\n        /* \"#utility.yul\":17181:17195   */\n      add\n        /* \"#utility.yul\":17174:17212   */\n      mstore\n        /* \"#utility.yul\":17233:17306   */\n      tag_678\n        /* \"#utility.yul\":17301:17305   */\n      dup3\n        /* \"#utility.yul\":17287:17299   */\n      dup3\n        /* \"#utility.yul\":17233:17306   */\n      tag_461\n      jump\t// in\n    tag_678:\n        /* \"#utility.yul\":17225:17306   */\n      swap2\n      pop\n        /* \"#utility.yul\":17071:17317   */\n      pop\n        /* \"#utility.yul\":17400:17404   */\n      0x20\n        /* \"#utility.yul\":17393:17398   */\n      dup4\n        /* \"#utility.yul\":17389:17405   */\n      add\n        /* \"#utility.yul\":17383:17406   */\n      mload\n        /* \"#utility.yul\":17453:17456   */\n      dup5\n        /* \"#utility.yul\":17447:17451   */\n      dup3\n        /* \"#utility.yul\":17443:17457   */\n      sub\n        /* \"#utility.yul\":17436:17440   */\n      0x20\n        /* \"#utility.yul\":17431:17434   */\n      dup7\n        /* \"#utility.yul\":17427:17441   */\n      add\n        /* \"#utility.yul\":17420:17458   */\n      mstore\n        /* \"#utility.yul\":17479:17552   */\n      tag_679\n        /* \"#utility.yul\":17547:17551   */\n      dup3\n        /* \"#utility.yul\":17533:17545   */\n      dup3\n        /* \"#utility.yul\":17479:17552   */\n      tag_461\n      jump\t// in\n    tag_679:\n        /* \"#utility.yul\":17471:17552   */\n      swap2\n      pop\n        /* \"#utility.yul\":17327:17563   */\n      pop\n        /* \"#utility.yul\":17646:17650   */\n      0x40\n        /* \"#utility.yul\":17639:17644   */\n      dup4\n        /* \"#utility.yul\":17635:17651   */\n      add\n        /* \"#utility.yul\":17629:17652   */\n      mload\n        /* \"#utility.yul\":17665:17738   */\n      tag_680\n        /* \"#utility.yul\":17732:17736   */\n      0x40\n        /* \"#utility.yul\":17727:17730   */\n      dup7\n        /* \"#utility.yul\":17723:17737   */\n      add\n        /* \"#utility.yul\":17709:17721   */\n      dup3\n        /* \"#utility.yul\":17665:17738   */\n      tag_465\n      jump\t// in\n    tag_680:\n        /* \"#utility.yul\":17573:17748   */\n      pop\n        /* \"#utility.yul\":17835:17839   */\n      0x60\n        /* \"#utility.yul\":17828:17833   */\n      dup4\n        /* \"#utility.yul\":17824:17840   */\n      add\n        /* \"#utility.yul\":17818:17841   */\n      mload\n        /* \"#utility.yul\":17854:17927   */\n      tag_681\n        /* \"#utility.yul\":17921:17925   */\n      0x60\n        /* \"#utility.yul\":17916:17919   */\n      dup7\n        /* \"#utility.yul\":17912:17926   */\n      add\n        /* \"#utility.yul\":17898:17910   */\n      dup3\n        /* \"#utility.yul\":17854:17927   */\n      tag_465\n      jump\t// in\n    tag_681:\n        /* \"#utility.yul\":17758:17937   */\n      pop\n        /* \"#utility.yul\":18025:18029   */\n      0x80\n        /* \"#utility.yul\":18018:18023   */\n      dup4\n        /* \"#utility.yul\":18014:18030   */\n      add\n        /* \"#utility.yul\":18008:18031   */\n      mload\n        /* \"#utility.yul\":18044:18117   */\n      tag_682\n        /* \"#utility.yul\":18111:18115   */\n      0x80\n        /* \"#utility.yul\":18106:18109   */\n      dup7\n        /* \"#utility.yul\":18102:18116   */\n      add\n        /* \"#utility.yul\":18088:18100   */\n      dup3\n        /* \"#utility.yul\":18044:18117   */\n      tag_465\n      jump\t// in\n    tag_682:\n        /* \"#utility.yul\":17947:18127   */\n      pop\n        /* \"#utility.yul\":18219:18223   */\n      0xa0\n        /* \"#utility.yul\":18212:18217   */\n      dup4\n        /* \"#utility.yul\":18208:18224   */\n      add\n        /* \"#utility.yul\":18202:18225   */\n      mload\n        /* \"#utility.yul\":18238:18311   */\n      tag_683\n        /* \"#utility.yul\":18305:18309   */\n      0xa0\n        /* \"#utility.yul\":18300:18303   */\n      dup7\n        /* \"#utility.yul\":18296:18310   */\n      add\n        /* \"#utility.yul\":18282:18294   */\n      dup3\n        /* \"#utility.yul\":18238:18311   */\n      tag_465\n      jump\t// in\n    tag_683:\n        /* \"#utility.yul\":18137:18321   */\n      pop\n        /* \"#utility.yul\":18338:18342   */\n      dup1\n        /* \"#utility.yul\":18331:18342   */\n      swap2\n      pop\n        /* \"#utility.yul\":17025:18348   */\n      pop\n        /* \"#utility.yul\":16913:18348   */\n      swap3\n      swap2\n      pop\n      pop\n      jump\t// out\n        /* \"#utility.yul\":18354:18453   */\n    tag_480:\n        /* \"#utility.yul\":18425:18446   */\n      tag_685\n        /* \"#utility.yul\":18440:18445   */\n      dup2\n        /* \"#utility.yul\":18425:18446   */\n      tag_467\n      jump\t// in\n    tag_685:\n        /* \"#utility.yul\":18420:18423   */\n      dup3\n        /* \"#utility.yul\":18413:18447   */\n      mstore\n        /* \"#utility.yul\":18354:18453   */\n      pop\n      pop\n      jump\t// out\n        /* \"#utility.yul\":18527:21251   */\n    tag_481:\n        /* \"#utility.yul\":18642:18645   */\n      0x00\n        /* \"#utility.yul\":18678:18684   */\n      0x0180\n        /* \"#utility.yul\":18673:18676   */\n      dup4\n        /* \"#utility.yul\":18669:18685   */\n      add\n        /* \"#utility.yul\":18765:18769   */\n      0x00\n        /* \"#utility.yul\":18758:18763   */\n      dup4\n        /* \"#utility.yul\":18754:18770   */\n      add\n        /* \"#utility.yul\":18748:18771   */\n      mload\n        /* \"#utility.yul\":18818:18821   */\n      dup5\n        /* \"#utility.yul\":18812:18816   */\n      dup3\n        /* \"#utility.yul\":18808:18822   */\n      sub\n        /* \"#utility.yul\":18801:18805   */\n      0x00\n        /* \"#utility.yul\":18796:18799   */\n      dup7\n        /* \"#utility.yul\":18792:18806   */\n      add\n        /* \"#utility.yul\":18785:18823   */\n      mstore\n        /* \"#utility.yul\":18844:18917   */\n      tag_687\n        /* \"#utility.yul\":18912:18916   */\n      dup3\n        /* \"#utility.yul\":18898:18910   */\n      dup3\n        /* \"#utility.yul\":18844:18917   */\n      tag_461\n      jump\t// in\n    tag_687:\n        /* \"#utility.yul\":18836:18917   */\n      swap2\n      pop\n        /* \"#utility.yul\":18695:18928   */\n      pop\n        /* \"#utility.yul\":19013:19017   */\n      0x20\n        /* \"#utility.yul\":19006:19011   */\n      dup4\n        /* \"#utility.yul\":19002:19018   */\n      add\n        /* \"#utility.yul\":18996:19019   */\n      mload\n        /* \"#utility.yul\":19066:19069   */\n      dup5\n        /* \"#utility.yul\":19060:19064   */\n      dup3\n        /* \"#utility.yul\":19056:19070   */\n      sub\n        /* \"#utility.yul\":19049:19053   */\n      0x20\n        /* \"#utility.yul\":19044:19047   */\n      dup7\n        /* \"#utility.yul\":19040:19054   */\n      add\n        /* \"#utility.yul\":19033:19071   */\n      mstore\n        /* \"#utility.yul\":19092:19165   */\n      tag_688\n        /* \"#utility.yul\":19160:19164   */\n      dup3\n        /* \"#utility.yul\":19146:19158   */\n      dup3\n        /* \"#utility.yul\":19092:19165   */\n      tag_461\n      jump\t// in\n    tag_688:\n        /* \"#utility.yul\":19084:19165   */\n      swap2\n      pop\n        /* \"#utility.yul\":18938:19176   */\n      pop\n        /* \"#utility.yul\":19260:19264   */\n      0x40\n        /* \"#utility.yul\":19253:19258   */\n      dup4\n        /* \"#utility.yul\":19249:19265   */\n      add\n        /* \"#utility.yul\":19243:19266   */\n      mload\n        /* \"#utility.yul\":19279:19342   */\n      tag_689\n        /* \"#utility.yul\":19336:19340   */\n      0x40\n        /* \"#utility.yul\":19331:19334   */\n      dup7\n        /* \"#utility.yul\":19327:19341   */\n      add\n        /* \"#utility.yul\":19313:19325   */\n      dup3\n        /* \"#utility.yul\":19279:19342   */\n      tag_477\n      jump\t// in\n    tag_689:\n        /* \"#utility.yul\":19186:19352   */\n      pop\n        /* \"#utility.yul\":19449:19453   */\n      0x60\n        /* \"#utility.yul\":19442:19447   */\n      dup4\n        /* \"#utility.yul\":19438:19454   */\n      add\n        /* \"#utility.yul\":19432:19455   */\n      mload\n        /* \"#utility.yul\":19468:19531   */\n      tag_690\n        /* \"#utility.yul\":19525:19529   */\n      0x60\n        /* \"#utility.yul\":19520:19523   */\n      dup7\n        /* \"#utility.yul\":19516:19530   */\n      add\n        /* \"#utility.yul\":19502:19514   */\n      dup3\n        /* \"#utility.yul\":19468:19531   */\n      tag_477\n      jump\t// in\n    tag_690:\n        /* \"#utility.yul\":19362:19541   */\n      pop\n        /* \"#utility.yul\":19631:19635   */\n      0x80\n        /* \"#utility.yul\":19624:19629   */\n      dup4\n        /* \"#utility.yul\":19620:19636   */\n      add\n        /* \"#utility.yul\":19614:19637   */\n      mload\n        /* \"#utility.yul\":19650:19713   */\n      tag_691\n        /* \"#utility.yul\":19707:19711   */\n      0x80\n        /* \"#utility.yul\":19702:19705   */\n      dup7\n        /* \"#utility.yul\":19698:19712   */\n      add\n        /* \"#utility.yul\":19684:19696   */\n      dup3\n        /* \"#utility.yul\":19650:19713   */\n      tag_478\n      jump\t// in\n    tag_691:\n        /* \"#utility.yul\":19551:19723   */\n      pop\n        /* \"#utility.yul\":19813:19817   */\n      0xa0\n        /* \"#utility.yul\":19806:19811   */\n      dup4\n        /* \"#utility.yul\":19802:19818   */\n      add\n        /* \"#utility.yul\":19796:19819   */\n      mload\n        /* \"#utility.yul\":19832:19895   */\n      tag_692\n        /* \"#utility.yul\":19889:19893   */\n      0xa0\n        /* \"#utility.yul\":19884:19887   */\n      dup7\n        /* \"#utility.yul\":19880:19894   */\n      add\n        /* \"#utility.yul\":19866:19878   */\n      dup3\n        /* \"#utility.yul\":19832:19895   */\n      tag_477\n      jump\t// in\n    tag_692:\n        /* \"#utility.yul\":19733:19905   */\n      pop\n        /* \"#utility.yul\":19995:19999   */\n      0xc0\n        /* \"#utility.yul\":19988:19993   */\n      dup4\n        /* \"#utility.yul\":19984:20000   */\n      add\n        /* \"#utility.yul\":19978:20001   */\n      mload\n        /* \"#utility.yul\":20014:20077   */\n      tag_693\n        /* \"#utility.yul\":20071:20075   */\n      0xc0\n        /* \"#utility.yul\":20066:20069   */\n      dup7\n        /* \"#utility.yul\":20062:20076   */\n      add\n        /* \"#utility.yul\":20048:20060   */\n      dup3\n        /* \"#utility.yul\":20014:20077   */\n      tag_477\n      jump\t// in\n    tag_693:\n        /* \"#utility.yul\":19915:20087   */\n      pop\n        /* \"#utility.yul\":20170:20174   */\n      0xe0\n        /* \"#utility.yul\":20163:20168   */\n      dup4\n        /* \"#utility.yul\":20159:20175   */\n      add\n        /* \"#utility.yul\":20153:20176   */\n      mload\n        /* \"#utility.yul\":20189:20252   */\n      tag_694\n        /* \"#utility.yul\":20246:20250   */\n      0xe0\n        /* \"#utility.yul\":20241:20244   */\n      dup7\n        /* \"#utility.yul\":20237:20251   */\n      add\n        /* \"#utility.yul\":20223:20235   */\n      dup3\n        /* \"#utility.yul\":20189:20252   */\n      tag_478\n      jump\t// in\n    tag_694:\n        /* \"#utility.yul\":20097:20262   */\n      pop\n        /* \"#utility.yul\":20347:20353   */\n      0x0100\n        /* \"#utility.yul\":20340:20345   */\n      dup4\n        /* \"#utility.yul\":20336:20354   */\n      add\n        /* \"#utility.yul\":20330:20355   */\n      mload\n        /* \"#utility.yul\":20404:20407   */\n      dup5\n        /* \"#utility.yul\":20398:20402   */\n      dup3\n        /* \"#utility.yul\":20394:20408   */\n      sub\n        /* \"#utility.yul\":20385:20391   */\n      0x0100\n        /* \"#utility.yul\":20380:20383   */\n      dup7\n        /* \"#utility.yul\":20376:20392   */\n      add\n        /* \"#utility.yul\":20369:20409   */\n      mstore\n        /* \"#utility.yul\":20430:20531   */\n      tag_695\n        /* \"#utility.yul\":20526:20530   */\n      dup3\n        /* \"#utility.yul\":20512:20524   */\n      dup3\n        /* \"#utility.yul\":20430:20531   */\n      tag_479\n      jump\t// in\n    tag_695:\n        /* \"#utility.yul\":20422:20531   */\n      swap2\n      pop\n        /* \"#utility.yul\":20272:20542   */\n      pop\n        /* \"#utility.yul\":20628:20634   */\n      0x0120\n        /* \"#utility.yul\":20621:20626   */\n      dup4\n        /* \"#utility.yul\":20617:20635   */\n      add\n        /* \"#utility.yul\":20611:20636   */\n      mload\n        /* \"#utility.yul\":20685:20688   */\n      dup5\n        /* \"#utility.yul\":20679:20683   */\n      dup3\n        /* \"#utility.yul\":20675:20689   */\n      sub\n        /* \"#utility.yul\":20666:20672   */\n      0x0120\n        /* \"#utility.yul\":20661:20664   */\n      dup7\n        /* \"#utility.yul\":20657:20673   */\n      add\n        /* \"#utility.yul\":20650:20690   */\n      mstore\n        /* \"#utility.yul\":20711:20784   */\n      tag_696\n        /* \"#utility.yul\":20779:20783   */\n      dup3\n        /* \"#utility.yul\":20765:20777   */\n      dup3\n        /* \"#utility.yul\":20711:20784   */\n      tag_461\n      jump\t// in\n    tag_696:\n        /* \"#utility.yul\":20703:20784   */\n      swap2\n      pop\n        /* \"#utility.yul\":20552:20795   */\n      pop\n        /* \"#utility.yul\":20883:20889   */\n      0x0140\n        /* \"#utility.yul\":20876:20881   */\n      dup4\n        /* \"#utility.yul\":20872:20890   */\n      add\n        /* \"#utility.yul\":20866:20891   */\n      mload\n        /* \"#utility.yul\":20904:20963   */\n      tag_697\n        /* \"#utility.yul\":20955:20961   */\n      0x0140\n        /* \"#utility.yul\":20950:20953   */\n      dup7\n        /* \"#utility.yul\":20946:20962   */\n      add\n        /* \"#utility.yul\":20932:20944   */\n      dup3\n        /* \"#utility.yul\":20904:20963   */\n      tag_480\n      jump\t// in\n    tag_697:\n        /* \"#utility.yul\":20805:20973   */\n      pop\n        /* \"#utility.yul\":21057:21063   */\n      0x0160\n        /* \"#utility.yul\":21050:21055   */\n      dup4\n        /* \"#utility.yul\":21046:21064   */\n      add\n        /* \"#utility.yul\":21040:21065   */\n      mload\n        /* \"#utility.yul\":21114:21117   */\n      dup5\n        /* \"#utility.yul\":21108:21112   */\n      dup3\n        /* \"#utility.yul\":21104:21118   */\n      sub\n        /* \"#utility.yul\":21095:21101   */\n      0x0160\n        /* \"#utility.yul\":21090:21093   */\n      dup7\n        /* \"#utility.yul\":21086:21102   */\n      add\n        /* \"#utility.yul\":21079:21119   */\n      mstore\n        /* \"#utility.yul\":21140:21213   */\n      tag_698\n        /* \"#utility.yul\":21208:21212   */\n      dup3\n        /* \"#utility.yul\":21194:21206   */\n      dup3\n        /* \"#utility.yul\":21140:21213   */\n      tag_461\n      jump\t// in\n    tag_698:\n        /* \"#utility.yul\":21132:21213   */\n      swap2\n      pop\n        /* \"#utility.yul\":20983:21224   */\n      pop\n        /* \"#utility.yul\":21241:21245   */\n      dup1\n        /* \"#utility.yul\":21234:21245   */\n      swap2\n      pop\n        /* \"#utility.yul\":18647:21251   */\n      pop\n        /* \"#utility.yul\":18527:21251   */\n      swap3\n      swap2\n      pop\n      pop\n      jump\t// out\n        /* \"#utility.yul\":21257:21622   */\n    tag_69:\n        /* \"#utility.yul\":21396:21400   */\n      0x00\n        /* \"#utility.yul\":21434:21436   */\n      0x20\n        /* \"#utility.yul\":21423:21432   */\n      dup3\n        /* \"#utility.yul\":21419:21437   */\n      add\n        /* \"#utility.yul\":21411:21437   */\n      swap1\n      pop\n        /* \"#utility.yul\":21483:21492   */\n      dup2\n        /* \"#utility.yul\":21477:21481   */\n      dup2\n        /* \"#utility.yul\":21473:21493   */\n      sub\n        /* \"#utility.yul\":21469:21470   */\n      0x00\n        /* \"#utility.yul\":21458:21467   */\n      dup4\n        /* \"#utility.yul\":21454:21471   */\n      add\n        /* \"#utility.yul\":21447:21494   */\n      mstore\n        /* \"#utility.yul\":21511:21615   */\n      tag_700\n        /* \"#utility.yul\":21610:21614   */\n      dup2\n        /* \"#utility.yul\":21601:21607   */\n      dup5\n        /* \"#utility.yul\":21511:21615   */\n      tag_481\n      jump\t// in\n    tag_700:\n        /* \"#utility.yul\":21503:21615   */\n      swap1\n      pop\n        /* \"#utility.yul\":21257:21622   */\n      swap3\n      swap2\n      pop\n      pop\n      jump\t// out\n        /* \"#utility.yul\":21628:22051   */\n    tag_79:\n        /* \"#utility.yul\":21769:21773   */\n      0x00\n        /* \"#utility.yul\":21807:21809   */\n      0x40\n        /* \"#utility.yul\":21796:21805   */\n      dup3\n        /* \"#utility.yul\":21792:21810   */\n      add\n        /* \"#utility.yul\":21784:21810   */\n      swap1\n      pop\n        /* \"#utility.yul\":21856:21865   */\n      dup2\n        /* \"#utility.yul\":21850:21854   */\n      dup2\n        /* \"#utility.yul\":21846:21866   */\n      sub\n        /* \"#utility.yul\":21842:21843   */\n      0x00\n        /* \"#utility.yul\":21831:21840   */\n      dup4\n        /* \"#utility.yul\":21827:21844   */\n      add\n        /* \"#utility.yul\":21820:21867   */\n      mstore\n        /* \"#utility.yul\":21884:21962   */\n      tag_702\n        /* \"#utility.yul\":21957:21961   */\n      dup2\n        /* \"#utility.yul\":21948:21954   */\n      dup6\n        /* \"#utility.yul\":21884:21962   */\n      tag_456\n      jump\t// in\n    tag_702:\n        /* \"#utility.yul\":21876:21962   */\n      swap1\n      pop\n        /* \"#utility.yul\":21972:22044   */\n      tag_703\n        /* \"#utility.yul\":22040:22042   */\n      0x20\n        /* \"#utility.yul\":22029:22038   */\n      dup4\n        /* \"#utility.yul\":22025:22043   */\n      add\n        /* \"#utility.yul\":22016:22022   */\n      dup5\n        /* \"#utility.yul\":21972:22044   */\n      tag_452\n      jump\t// in\n    tag_703:\n        /* \"#utility.yul\":21628:22051   */\n      swap4\n      swap3\n      pop\n      pop\n      pop\n      jump\t// out\n        /* \"#utility.yul\":22057:22386   */\n    tag_83:\n        /* \"#utility.yul\":22116:22122   */\n      0x00\n        /* \"#utility.yul\":22165:22167   */\n      0x20\n        /* \"#utility.yul\":22153:22162   */\n      dup3\n        /* \"#utility.yul\":22144:22151   */\n      dup5\n        /* \"#utility.yul\":22140:22163   */\n      sub\n        /* \"#utility.yul\":22136:22168   */\n      slt\n        /* \"#utility.yul\":22133:22252   */\n      iszero\n      tag_705\n      jumpi\n        /* \"#utility.yul\":22171:22250   */\n      tag_706\n      tag_437\n      jump\t// in\n    tag_706:\n        /* \"#utility.yul\":22133:22252   */\n    tag_705:\n        /* \"#utility.yul\":22291:22292   */\n      0x00\n        /* \"#utility.yul\":22316:22369   */\n      tag_707\n        /* \"#utility.yul\":22361:22368   */\n      dup5\n        /* \"#utility.yul\":22352:22358   */\n      dup3\n        /* \"#utility.yul\":22341:22350   */\n      dup6\n        /* \"#utility.yul\":22337:22359   */\n      add\n        /* \"#utility.yul\":22316:22369   */\n      tag_470\n      jump\t// in\n    tag_707:\n        /* \"#utility.yul\":22306:22369   */\n      swap2\n      pop\n        /* \"#utility.yul\":22262:22379   */\n      pop\n        /* \"#utility.yul\":22057:22386   */\n      swap3\n      swap2\n      pop\n      pop\n      jump\t// out\n        /* \"#utility.yul\":22392:23127   */\n    tag_86:\n        /* \"#utility.yul\":22609:22613   */\n      0x00\n        /* \"#utility.yul\":22647:22650   */\n      0x80\n        /* \"#utility.yul\":22636:22645   */\n      dup3\n        /* \"#utility.yul\":22632:22651   */\n      add\n        /* \"#utility.yul\":22624:22651   */\n      swap1\n      pop\n        /* \"#utility.yul\":22661:22732   */\n      tag_709\n        /* \"#utility.yul\":22729:22730   */\n      0x00\n        /* \"#utility.yul\":22718:22727   */\n      dup4\n        /* \"#utility.yul\":22714:22731   */\n      add\n        /* \"#utility.yul\":22705:22711   */\n      dup8\n        /* \"#utility.yul\":22661:22732   */\n      tag_459\n      jump\t// in\n    tag_709:\n        /* \"#utility.yul\":22742:22814   */\n      tag_710\n        /* \"#utility.yul\":22810:22812   */\n      0x20\n        /* \"#utility.yul\":22799:22808   */\n      dup4\n        /* \"#utility.yul\":22795:22813   */\n      add\n        /* \"#utility.yul\":22786:22792   */\n      dup7\n        /* \"#utility.yul\":22742:22814   */\n      tag_452\n      jump\t// in\n    tag_710:\n        /* \"#utility.yul\":22861:22870   */\n      dup2\n        /* \"#utility.yul\":22855:22859   */\n      dup2\n        /* \"#utility.yul\":22851:22871   */\n      sub\n        /* \"#utility.yul\":22846:22848   */\n      0x40\n        /* \"#utility.yul\":22835:22844   */\n      dup4\n        /* \"#utility.yul\":22831:22849   */\n      add\n        /* \"#utility.yul\":22824:22872   */\n      mstore\n        /* \"#utility.yul\":22889:22967   */\n      tag_711\n        /* \"#utility.yul\":22962:22966   */\n      dup2\n        /* \"#utility.yul\":22953:22959   */\n      dup6\n        /* \"#utility.yul\":22889:22967   */\n      tag_456\n      jump\t// in\n    tag_711:\n        /* \"#utility.yul\":22881:22967   */\n      swap1\n      pop\n        /* \"#utility.yul\":23014:23023   */\n      dup2\n        /* \"#utility.yul\":23008:23012   */\n      dup2\n        /* \"#utility.yul\":23004:23024   */\n      sub\n        /* \"#utility.yul\":22999:23001   */\n      0x60\n        /* \"#utility.yul\":22988:22997   */\n      dup4\n        /* \"#utility.yul\":22984:23002   */\n      add\n        /* \"#utility.yul\":22977:23025   */\n      mstore\n        /* \"#utility.yul\":23042:23120   */\n      tag_712\n        /* \"#utility.yul\":23115:23119   */\n      dup2\n        /* \"#utility.yul\":23106:23112   */\n      dup5\n        /* \"#utility.yul\":23042:23120   */\n      tag_456\n      jump\t// in\n    tag_712:\n        /* \"#utility.yul\":23034:23120   */\n      swap1\n      pop\n        /* \"#utility.yul\":22392:23127   */\n      swap6\n      swap5\n      pop\n      pop\n      pop\n      pop\n      pop\n      jump\t// out\n        /* \"#utility.yul\":23133:24292   */\n    tag_90:\n        /* \"#utility.yul\":23240:23246   */\n      0x00\n        /* \"#utility.yul\":23248:23254   */\n      dup1\n        /* \"#utility.yul\":23256:23262   */\n      0x00\n        /* \"#utility.yul\":23305:23307   */\n      0x60\n        /* \"#utility.yul\":23293:23302   */\n      dup5\n        /* \"#utility.yul\":23284:23291   */\n      dup7\n        /* \"#utility.yul\":23280:23303   */\n      sub\n        /* \"#utility.yul\":23276:23308   */\n      slt\n        /* \"#utility.yul\":23273:23392   */\n      iszero\n      tag_714\n      jumpi\n        /* \"#utility.yul\":23311:23390   */\n      tag_715\n      tag_437\n      jump\t// in\n    tag_715:\n        /* \"#utility.yul\":23273:23392   */\n    tag_714:\n        /* \"#utility.yul\":23459:23460   */\n      0x00\n        /* \"#utility.yul\":23448:23457   */\n      dup5\n        /* \"#utility.yul\":23444:23461   */\n      add\n        /* \"#utility.yul\":23431:23462   */\n      calldataload\n        /* \"#utility.yul\":23489:23507   */\n      0xffffffffffffffff\n        /* \"#utility.yul\":23481:23487   */\n      dup2\n        /* \"#utility.yul\":23478:23508   */\n      gt\n        /* \"#utility.yul\":23475:23592   */\n      iszero\n      tag_716\n      jumpi\n        /* \"#utility.yul\":23511:23590   */\n      tag_717\n      tag_438\n      jump\t// in\n    tag_717:\n        /* \"#utility.yul\":23475:23592   */\n    tag_716:\n        /* \"#utility.yul\":23616:23679   */\n      tag_718\n        /* \"#utility.yul\":23671:23678   */\n      dup7\n        /* \"#utility.yul\":23662:23668   */\n      dup3\n        /* \"#utility.yul\":23651:23660   */\n      dup8\n        /* \"#utility.yul\":23647:23669   */\n      add\n        /* \"#utility.yul\":23616:23679   */\n      tag_448\n      jump\t// in\n    tag_718:\n        /* \"#utility.yul\":23606:23679   */\n      swap4\n      pop\n        /* \"#utility.yul\":23402:23689   */\n      pop\n        /* \"#utility.yul\":23756:23758   */\n      0x20\n        /* \"#utility.yul\":23745:23754   */\n      dup5\n        /* \"#utility.yul\":23741:23759   */\n      add\n        /* \"#utility.yul\":23728:23760   */\n      calldataload\n        /* \"#utility.yul\":23787:23805   */\n      0xffffffffffffffff\n        /* \"#utility.yul\":23779:23785   */\n      dup2\n        /* \"#utility.yul\":23776:23806   */\n      gt\n        /* \"#utility.yul\":23773:23890   */\n      iszero\n      tag_719\n      jumpi\n        /* \"#utility.yul\":23809:23888   */\n      tag_720\n      tag_438\n      jump\t// in\n    tag_720:\n        /* \"#utility.yul\":23773:23890   */\n    tag_719:\n        /* \"#utility.yul\":23914:23977   */\n      tag_721\n        /* \"#utility.yul\":23969:23976   */\n      dup7\n        /* \"#utility.yul\":23960:23966   */\n      dup3\n        /* \"#utility.yul\":23949:23958   */\n      dup8\n        /* \"#utility.yul\":23945:23967   */\n      add\n        /* \"#utility.yul\":23914:23977   */\n      tag_448\n      jump\t// in\n    tag_721:\n        /* \"#utility.yul\":23904:23977   */\n      swap3\n      pop\n        /* \"#utility.yul\":23699:23987   */\n      pop\n        /* \"#utility.yul\":24054:24056   */\n      0x40\n        /* \"#utility.yul\":24043:24052   */\n      dup5\n        /* \"#utility.yul\":24039:24057   */\n      add\n        /* \"#utility.yul\":24026:24058   */\n      calldataload\n        /* \"#utility.yul\":24085:24103   */\n      0xffffffffffffffff\n        /* \"#utility.yul\":24077:24083   */\n      dup2\n        /* \"#utility.yul\":24074:24104   */\n      gt\n        /* \"#utility.yul\":24071:24188   */\n      iszero\n      tag_722\n      jumpi\n        /* \"#utility.yul\":24107:24186   */\n      tag_723\n      tag_438\n      jump\t// in\n    tag_723:\n        /* \"#utility.yul\":24071:24188   */\n    tag_722:\n        /* \"#utility.yul\":24212:24275   */\n      tag_724\n        /* \"#utility.yul\":24267:24274   */\n      dup7\n        /* \"#utility.yul\":24258:24264   */\n      dup3\n        /* \"#utility.yul\":24247:24256   */\n      dup8\n        /* \"#utility.yul\":24243:24265   */\n      add\n        /* \"#utility.yul\":24212:24275   */\n      tag_448\n      jump\t// in\n    tag_724:\n        /* \"#utility.yul\":24202:24275   */\n      swap2\n      pop\n        /* \"#utility.yul\":23997:24285   */\n      pop\n        /* \"#utility.yul\":23133:24292   */\n      swap3\n      pop\n      swap3\n      pop\n      swap3\n      jump\t// out\n        /* \"#utility.yul\":24298:24508   */\n    tag_93:\n        /* \"#utility.yul\":24385:24389   */\n      0x00\n        /* \"#utility.yul\":24423:24425   */\n      0x20\n        /* \"#utility.yul\":24412:24421   */\n      dup3\n        /* \"#utility.yul\":24408:24426   */\n      add\n        /* \"#utility.yul\":24400:24426   */\n      swap1\n      pop\n        /* \"#utility.yul\":24436:24501   */\n      tag_726\n        /* \"#utility.yul\":24498:24499   */\n      0x00\n        /* \"#utility.yul\":24487:24496   */\n      dup4\n        /* \"#utility.yul\":24483:24500   */\n      add\n        /* \"#utility.yul\":24474:24480   */\n      dup5\n        /* \"#utility.yul\":24436:24501   */\n      tag_468\n      jump\t// in\n    tag_726:\n        /* \"#utility.yul\":24298:24508   */\n      swap3\n      swap2\n      pop\n      pop\n      jump\t// out\n        /* \"#utility.yul\":24514:24736   */\n    tag_98:\n        /* \"#utility.yul\":24607:24611   */\n      0x00\n        /* \"#utility.yul\":24645:24647   */\n      0x20\n        /* \"#utility.yul\":24634:24643   */\n      dup3\n        /* \"#utility.yul\":24630:24648   */\n      add\n        /* \"#utility.yul\":24622:24648   */\n      swap1\n      pop\n        /* \"#utility.yul\":24658:24729   */\n      tag_728\n        /* \"#utility.yul\":24726:24727   */\n      0x00\n        /* \"#utility.yul\":24715:24724   */\n      dup4\n        /* \"#utility.yul\":24711:24728   */\n      add\n        /* \"#utility.yul\":24702:24708   */\n      dup5\n        /* \"#utility.yul\":24658:24729   */\n      tag_459\n      jump\t// in\n    tag_728:\n        /* \"#utility.yul\":24514:24736   */\n      swap3\n      swap2\n      pop\n      pop\n      jump\t// out\n        /* \"#utility.yul\":24742:25867   */\n    tag_107:\n        /* \"#utility.yul\":24848:24854   */\n      0x00\n        /* \"#utility.yul\":24856:24862   */\n      dup1\n        /* \"#utility.yul\":24864:24870   */\n      0x00\n        /* \"#utility.yul\":24872:24878   */\n      dup1\n        /* \"#utility.yul\":24921:24924   */\n      0x80\n        /* \"#utility.yul\":24909:24918   */\n      dup6\n        /* \"#utility.yul\":24900:24907   */\n      dup8\n        /* \"#utility.yul\":24896:24919   */\n      sub\n        /* \"#utility.yul\":24892:24925   */\n      slt\n        /* \"#utility.yul\":24889:25009   */\n      iszero\n      tag_730\n      jumpi\n        /* \"#utility.yul\":24928:25007   */\n      tag_731\n      tag_437\n      jump\t// in\n    tag_731:\n        /* \"#utility.yul\":24889:25009   */\n    tag_730:\n        /* \"#utility.yul\":25048:25049   */\n      0x00\n        /* \"#utility.yul\":25073:25126   */\n      tag_732\n        /* \"#utility.yul\":25118:25125   */\n      dup8\n        /* \"#utility.yul\":25109:25115   */\n      dup3\n        /* \"#utility.yul\":25098:25107   */\n      dup9\n        /* \"#utility.yul\":25094:25116   */\n      add\n        /* \"#utility.yul\":25073:25126   */\n      tag_470\n      jump\t// in\n    tag_732:\n        /* \"#utility.yul\":25063:25126   */\n      swap5\n      pop\n        /* \"#utility.yul\":25019:25136   */\n      pop\n        /* \"#utility.yul\":25175:25177   */\n      0x20\n        /* \"#utility.yul\":25201:25254   */\n      tag_733\n        /* \"#utility.yul\":25246:25253   */\n      dup8\n        /* \"#utility.yul\":25237:25243   */\n      dup3\n        /* \"#utility.yul\":25226:25235   */\n      dup9\n        /* \"#utility.yul\":25222:25244   */\n      add\n        /* \"#utility.yul\":25201:25254   */\n      tag_451\n      jump\t// in\n    tag_733:\n        /* \"#utility.yul\":25191:25254   */\n      swap4\n      pop\n        /* \"#utility.yul\":25146:25264   */\n      pop\n        /* \"#utility.yul\":25331:25333   */\n      0x40\n        /* \"#utility.yul\":25320:25329   */\n      dup6\n        /* \"#utility.yul\":25316:25334   */\n      add\n        /* \"#utility.yul\":25303:25335   */\n      calldataload\n        /* \"#utility.yul\":25362:25380   */\n      0xffffffffffffffff\n        /* \"#utility.yul\":25354:25360   */\n      dup2\n        /* \"#utility.yul\":25351:25381   */\n      gt\n        /* \"#utility.yul\":25348:25465   */\n      iszero\n      tag_734\n      jumpi\n        /* \"#utility.yul\":25384:25463   */\n      tag_735\n      tag_438\n      jump\t// in\n    tag_735:\n        /* \"#utility.yul\":25348:25465   */\n    tag_734:\n        /* \"#utility.yul\":25489:25552   */\n      tag_736\n        /* \"#utility.yul\":25544:25551   */\n      dup8\n        /* \"#utility.yul\":25535:25541   */\n      dup3\n        /* \"#utility.yul\":25524:25533   */\n      dup9\n        /* \"#utility.yul\":25520:25542   */\n      add\n        /* \"#utility.yul\":25489:25552   */\n      tag_448\n      jump\t// in\n    tag_736:\n        /* \"#utility.yul\":25479:25552   */\n      swap3\n      pop\n        /* \"#utility.yul\":25274:25562   */\n      pop\n        /* \"#utility.yul\":25629:25631   */\n      0x60\n        /* \"#utility.yul\":25618:25627   */\n      dup6\n        /* \"#utility.yul\":25614:25632   */\n      add\n        /* \"#utility.yul\":25601:25633   */\n      calldataload\n        /* \"#utility.yul\":25660:25678   */\n      0xffffffffffffffff\n        /* \"#utility.yul\":25652:25658   */\n      dup2\n        /* \"#utility.yul\":25649:25679   */\n      gt\n        /* \"#utility.yul\":25646:25763   */\n      iszero\n      tag_737\n      jumpi\n        /* \"#utility.yul\":25682:25761   */\n      tag_738\n      tag_438\n      jump\t// in\n    tag_738:\n        /* \"#utility.yul\":25646:25763   */\n    tag_737:\n        /* \"#utility.yul\":25787:25850   */\n      tag_739\n        /* \"#utility.yul\":25842:25849   */\n      dup8\n        /* \"#utility.yul\":25833:25839   */\n      dup3\n        /* \"#utility.yul\":25822:25831   */\n      dup9\n        /* \"#utility.yul\":25818:25840   */\n      add\n        /* \"#utility.yul\":25787:25850   */\n      tag_448\n      jump\t// in\n    tag_739:\n        /* \"#utility.yul\":25777:25850   */\n      swap2\n      pop\n        /* \"#utility.yul\":25572:25860   */\n      pop\n        /* \"#utility.yul\":24742:25867   */\n      swap3\n      swap6\n      swap2\n      swap5\n      pop\n      swap3\n      pop\n      jump\t// out\n        /* \"#utility.yul\":25873:26053   */\n    tag_482:\n        /* \"#utility.yul\":25921:25998   */\n      0x4e487b7100000000000000000000000000000000000000000000000000000000\n        /* \"#utility.yul\":25918:25919   */\n      0x00\n        /* \"#utility.yul\":25911:25999   */\n      mstore\n        /* \"#utility.yul\":26018:26022   */\n      0x22\n        /* \"#utility.yul\":26015:26016   */\n      0x04\n        /* \"#utility.yul\":26008:26023   */\n      mstore\n        /* \"#utility.yul\":26042:26046   */\n      0x24\n        /* \"#utility.yul\":26039:26040   */\n      0x00\n        /* \"#utility.yul\":26032:26047   */\n      revert\n        /* \"#utility.yul\":26059:26379   */\n    tag_116:\n        /* \"#utility.yul\":26103:26109   */\n      0x00\n        /* \"#utility.yul\":26140:26141   */\n      0x02\n        /* \"#utility.yul\":26134:26138   */\n      dup3\n        /* \"#utility.yul\":26130:26142   */\n      div\n        /* \"#utility.yul\":26120:26142   */\n      swap1\n      pop\n        /* \"#utility.yul\":26187:26188   */\n      0x01\n        /* \"#utility.yul\":26181:26185   */\n      dup3\n        /* \"#utility.yul\":26177:26189   */\n      and\n        /* \"#utility.yul\":26208:26226   */\n      dup1\n        /* \"#utility.yul\":26198:26279   */\n      tag_742\n      jumpi\n        /* \"#utility.yul\":26264:26268   */\n      0x7f\n        /* \"#utility.yul\":26256:26262   */\n      dup3\n        /* \"#utility.yul\":26252:26269   */\n      and\n        /* \"#utility.yul\":26242:26269   */\n      swap2\n      pop\n        /* \"#utility.yul\":26198:26279   */\n    tag_742:\n        /* \"#utility.yul\":26326:26328   */\n      0x20\n        /* \"#utility.yul\":26318:26324   */\n      dup3\n        /* \"#utility.yul\":26315:26329   */\n      lt\n        /* \"#utility.yul\":26295:26313   */\n      dup2\n        /* \"#utility.yul\":26292:26330   */\n      sub\n        /* \"#utility.yul\":26289:26373   */\n      tag_743\n      jumpi\n        /* \"#utility.yul\":26345:26363   */\n      tag_744\n      tag_482\n      jump\t// in\n    tag_744:\n        /* \"#utility.yul\":26289:26373   */\n    tag_743:\n        /* \"#utility.yul\":26110:26379   */\n      pop\n        /* \"#utility.yul\":26059:26379   */\n      swap2\n      swap1\n      pop\n      jump\t// out\n        /* \"#utility.yul\":26385:26533   */\n    tag_483:\n        /* \"#utility.yul\":26487:26498   */\n      0x00\n        /* \"#utility.yul\":26524:26527   */\n      dup2\n        /* \"#utility.yul\":26509:26527   */\n      swap1\n      pop\n        /* \"#utility.yul\":26385:26533   */\n      swap3\n      swap2\n      pop\n      pop\n      jump\t// out\n        /* \"#utility.yul\":26539:26929   */\n    tag_484:\n        /* \"#utility.yul\":26645:26648   */\n      0x00\n        /* \"#utility.yul\":26673:26712   */\n      tag_747\n        /* \"#utility.yul\":26706:26711   */\n      dup3\n        /* \"#utility.yul\":26673:26712   */\n      tag_453\n      jump\t// in\n    tag_747:\n        /* \"#utility.yul\":26728:26817   */\n      tag_748\n        /* \"#utility.yul\":26810:26816   */\n      dup2\n        /* \"#utility.yul\":26805:26808   */\n      dup6\n        /* \"#utility.yul\":26728:26817   */\n      tag_483\n      jump\t// in\n    tag_748:\n        /* \"#utility.yul\":26721:26817   */\n      swap4\n      pop\n        /* \"#utility.yul\":26826:26891   */\n      tag_749\n        /* \"#utility.yul\":26884:26890   */\n      dup2\n        /* \"#utility.yul\":26879:26882   */\n      dup6\n        /* \"#utility.yul\":26872:26876   */\n      0x20\n        /* \"#utility.yul\":26865:26870   */\n      dup7\n        /* \"#utility.yul\":26861:26877   */\n      add\n        /* \"#utility.yul\":26826:26891   */\n      tag_455\n      jump\t// in\n    tag_749:\n        /* \"#utility.yul\":26916:26922   */\n      dup1\n        /* \"#utility.yul\":26911:26914   */\n      dup5\n        /* \"#utility.yul\":26907:26923   */\n      add\n        /* \"#utility.yul\":26900:26923   */\n      swap2\n      pop\n        /* \"#utility.yul\":26649:26929   */\n      pop\n        /* \"#utility.yul\":26539:26929   */\n      swap3\n      swap2\n      pop\n      pop\n      jump\t// out\n        /* \"#utility.yul\":26935:27210   */\n    tag_126:\n        /* \"#utility.yul\":27067:27070   */\n      0x00\n        /* \"#utility.yul\":27089:27184   */\n      tag_751\n        /* \"#utility.yul\":27180:27183   */\n      dup3\n        /* \"#utility.yul\":27171:27177   */\n      dup5\n        /* \"#utility.yul\":27089:27184   */\n      tag_484\n      jump\t// in\n    tag_751:\n        /* \"#utility.yul\":27082:27184   */\n      swap2\n      pop\n        /* \"#utility.yul\":27201:27204   */\n      dup2\n        /* \"#utility.yul\":27194:27204   */\n      swap1\n      pop\n        /* \"#utility.yul\":26935:27210   */\n      swap3\n      swap2\n      pop\n      pop\n      jump\t// out\n        /* \"#utility.yul\":27216:27357   */\n    tag_485:\n        /* \"#utility.yul\":27265:27269   */\n      0x00\n        /* \"#utility.yul\":27288:27291   */\n      dup2\n        /* \"#utility.yul\":27280:27291   */\n      swap1\n      pop\n        /* \"#utility.yul\":27311:27314   */\n      dup2\n        /* \"#utility.yul\":27308:27309   */\n      0x00\n        /* \"#utility.yul\":27301:27315   */\n      mstore\n        /* \"#utility.yul\":27345:27349   */\n      0x20\n        /* \"#utility.yul\":27342:27343   */\n      0x00\n        /* \"#utility.yul\":27332:27350   */\n      keccak256\n        /* \"#utility.yul\":27324:27350   */\n      swap1\n      pop\n        /* \"#utility.yul\":27216:27357   */\n      swap2\n      swap1\n      pop\n      jump\t// out\n        /* \"#utility.yul\":27363:27456   */\n    tag_486:\n        /* \"#utility.yul\":27400:27406   */\n      0x00\n        /* \"#utility.yul\":27447:27449   */\n      0x20\n        /* \"#utility.yul\":27442:27444   */\n      0x1f\n        /* \"#utility.yul\":27435:27440   */\n      dup4\n        /* \"#utility.yul\":27431:27445   */\n      add\n        /* \"#utility.yul\":27427:27450   */\n      div\n        /* \"#utility.yul\":27417:27450   */\n      swap1\n      pop\n        /* \"#utility.yul\":27363:27456   */\n      swap2\n      swap1\n      pop\n      jump\t// out\n        /* \"#utility.yul\":27462:27569   */\n    tag_487:\n        /* \"#utility.yul\":27506:27514   */\n      0x00\n        /* \"#utility.yul\":27556:27561   */\n      dup3\n        /* \"#utility.yul\":27550:27554   */\n      dup3\n        /* \"#utility.yul\":27546:27562   */\n      shl\n        /* \"#utility.yul\":27525:27562   */\n      swap1\n      pop\n        /* \"#utility.yul\":27462:27569   */\n      swap3\n      swap2\n      pop\n      pop\n      jump\t// out\n        /* \"#utility.yul\":27575:27968   */\n    tag_488:\n        /* \"#utility.yul\":27644:27650   */\n      0x00\n        /* \"#utility.yul\":27694:27695   */\n      0x08\n        /* \"#utility.yul\":27682:27692   */\n      dup4\n        /* \"#utility.yul\":27678:27696   */\n      mul\n        /* \"#utility.yul\":27717:27814   */\n      tag_756\n        /* \"#utility.yul\":27747:27813   */\n      0xffffffffffffffffffffffffffffffffffffffffffffffffffffffffffffffff\n        /* \"#utility.yul\":27736:27745   */\n      dup3\n        /* \"#utility.yul\":27717:27814   */\n      tag_487\n      jump\t// in\n    tag_756:\n        /* \"#utility.yul\":27835:27874   */\n      tag_757\n        /* \"#utility.yul\":27865:27873   */\n      dup7\n        /* \"#utility.yul\":27854:27863   */\n      dup4\n        /* \"#utility.yul\":27835:27874   */\n      tag_487\n      jump\t// in\n    tag_757:\n        /* \"#utility.yul\":27823:27874   */\n      swap6\n      pop\n        /* \"#utility.yul\":27907:27911   */\n      dup1\n        /* \"#utility.yul\":27903:27912   */\n      not\n        /* \"#utility.yul\":27896:27901   */\n      dup5\n        /* \"#utility.yul\":27892:27913   */\n      and\n        /* \"#utility.yul\":27883:27913   */\n      swap4\n      pop\n        /* \"#utility.yul\":27956:27960   */\n      dup1\n        /* \"#utility.yul\":27946:27954   */\n      dup7\n        /* \"#utility.yul\":27942:27961   */\n      and\n        /* \"#utility.yul\":27935:27940   */\n      dup5\n        /* \"#utility.yul\":27932:27962   */\n      or\n        /* \"#utility.yul\":27922:27962   */\n      swap3\n      pop\n        /* \"#utility.yul\":27651:27968   */\n      pop\n      pop\n        /* \"#utility.yul\":27575:27968   */\n      swap4\n      swap3\n      pop\n      pop\n      pop\n      jump\t// out\n        /* \"#utility.yul\":27974:28034   */\n    tag_489:\n        /* \"#utility.yul\":28002:28005   */\n      0x00\n        /* \"#utility.yul\":28023:28028   */\n      dup2\n        /* \"#utility.yul\":28016:28028   */\n      swap1\n      pop\n        /* \"#utility.yul\":27974:28034   */\n      swap2\n      swap1\n      pop\n      jump\t// out\n        /* \"#utility.yul\":28040:28182   */\n    tag_490:\n        /* \"#utility.yul\":28090:28099   */\n      0x00\n        /* \"#utility.yul\":28123:28176   */\n      tag_760\n        /* \"#utility.yul\":28141:28175   */\n      tag_761\n        /* \"#utility.yul\":28150:28174   */\n      tag_762\n        /* \"#utility.yul\":28168:28173   */\n      dup5\n        /* \"#utility.yul\":28150:28174   */\n      tag_449\n      jump\t// in\n    tag_762:\n        /* \"#utility.yul\":28141:28175   */\n      tag_489\n      jump\t// in\n    tag_761:\n        /* \"#utility.yul\":28123:28176   */\n      tag_449\n      jump\t// in\n    tag_760:\n        /* \"#utility.yul\":28110:28176   */\n      swap1\n      pop\n        /* \"#utility.yul\":28040:28182   */\n      swap2\n      swap1\n      pop\n      jump\t// out\n        /* \"#utility.yul\":28188:28263   */\n    tag_491:\n        /* \"#utility.yul\":28231:28234   */\n      0x00\n        /* \"#utility.yul\":28252:28257   */\n      dup2\n        /* \"#utility.yul\":28245:28257   */\n      swap1\n      pop\n        /* \"#utility.yul\":28188:28263   */\n      swap2\n      swap1\n      pop\n      jump\t// out\n        /* \"#utility.yul\":28269:28538   */\n    tag_492:\n        /* \"#utility.yul\":28379:28418   */\n      tag_765\n        /* \"#utility.yul\":28410:28417   */\n      dup4\n        /* \"#utility.yul\":28379:28418   */\n      tag_490\n      jump\t// in\n    tag_765:\n        /* \"#utility.yul\":28440:28531   */\n      tag_766\n        /* \"#utility.yul\":28489:28530   */\n      tag_767\n        /* \"#utility.yul\":28513:28529   */\n      dup3\n        /* \"#utility.yul\":28489:28530   */\n      tag_491\n      jump\t// in\n    tag_767:\n        /* \"#utility.yul\":28481:28487   */\n      dup5\n        /* \"#utility.yul\":28474:28478   */\n      dup5\n        /* \"#utility.yul\":28468:28479   */\n      sload\n        /* \"#utility.yul\":28440:28531   */\n      tag_488\n      jump\t// in\n    tag_766:\n        /* \"#utility.yul\":28434:28438   */\n      dup3\n        /* \"#utility.yul\":28427:28532   */\n      sstore\n        /* \"#utility.yul\":28345:28538   */\n      pop\n        /* \"#utility.yul\":28269:28538   */\n      pop\n      pop\n      pop\n      jump\t// out\n        /* \"#utility.yul\":28544:28617   */\n    tag_493:\n        /* \"#utility.yul\":28589:28592   */\n      0x00\n        /* \"#utility.yul\":28544:28617   */\n      swap1\n      jump\t// out\n        /* \"#utility.yul\":28623:28812   */\n    tag_494:\n        /* \"#utility.yul\":28700:28732   */\n      tag_770\n      tag_493\n      jump\t// in\n    tag_770:\n        /* \"#utility.yul\":28741:28806   */\n      tag_771\n        /* \"#utility.yul\":28799:28805   */\n      dup2\n        /* \"#utility.yul\":28791:28797   */\n      dup5\n        /* \"#utility.yul\":28785:28789   */\n      dup5\n        /* \"#utility.yul\":28741:28806   */\n      tag_492\n      jump\t// in\n    tag_771:\n        /* \"#utility.yul\":28676:28812   */\n      pop\n        /* \"#utility.yul\":28623:28812   */\n      pop\n      pop\n      jump\t// out\n        /* \"#utility.yul\":28818:29004   */\n    tag_495:\n        /* \"#utility.yul\":28878:28998   */\n    tag_773:\n        /* \"#utility.yul\":28895:28898   */\n      dup2\n        /* \"#utility.yul\":28888:28893   */\n      dup2\n        /* \"#utility.yul\":28885:28899   */\n      lt\n        /* \"#utility.yul\":28878:28998   */\n      iszero\n      tag_775\n      jumpi\n        /* \"#utility.yul\":28949:28988   */\n      tag_776\n        /* \"#utility.yul\":28986:28987   */\n      0x00\n        /* \"#utility.yul\":28979:28984   */\n      dup3\n        /* \"#utility.yul\":28949:28988   */\n      tag_494\n      jump\t// in\n    tag_776:\n        /* \"#utility.yul\":28922:28923   */\n      0x01\n        /* \"#utility.yul\":28915:28920   */\n      dup2\n        /* \"#utility.yul\":28911:28924   */\n      add\n        /* \"#utility.yul\":28902:28924   */\n      swap1\n      pop\n        /* \"#utility.yul\":28878:28998   */\n      jump(tag_773)\n    tag_775:\n        /* \"#utility.yul\":28818:29004   */\n      pop\n      pop\n      jump\t// out\n        /* \"#utility.yul\":29010:29553   */\n    tag_496:\n        /* \"#utility.yul\":29111:29113   */\n      0x1f\n        /* \"#utility.yul\":29106:29109   */\n      dup3\n        /* \"#utility.yul\":29103:29114   */\n      gt\n        /* \"#utility.yul\":29100:29546   */\n      iszero\n      tag_778\n      jumpi\n        /* \"#utility.yul\":29145:29183   */\n      tag_779\n        /* \"#utility.yul\":29177:29182   */\n      dup2\n        /* \"#utility.yul\":29145:29183   */\n      tag_485\n      jump\t// in\n    tag_779:\n        /* \"#utility.yul\":29229:29258   */\n      tag_780\n        /* \"#utility.yul\":29247:29257   */\n      dup5\n        /* \"#utility.yul\":29229:29258   */\n      tag_486\n      jump\t// in\n    tag_780:\n        /* \"#utility.yul\":29219:29227   */\n      dup2\n        /* \"#utility.yul\":29215:29259   */\n      add\n        /* \"#utility.yul\":29412:29414   */\n      0x20\n        /* \"#utility.yul\":29400:29410   */\n      dup6\n        /* \"#utility.yul\":29397:29415   */\n      lt\n        /* \"#utility.yul\":29394:29443   */\n      iszero\n      tag_781\n      jumpi\n        /* \"#utility.yul\":29433:29441   */\n      dup2\n        /* \"#utility.yul\":29418:29441   */\n      swap1\n      pop\n        /* \"#utility.yul\":29394:29443   */\n    tag_781:\n        /* \"#utility.yul\":29456:29536   */\n      tag_782\n        /* \"#utility.yul\":29512:29534   */\n      tag_783\n        /* \"#utility.yul\":29530:29533   */\n      dup6\n        /* \"#utility.yul\":29512:29534   */\n      tag_486\n      jump\t// in\n    tag_783:\n        /* \"#utility.yul\":29502:29510   */\n      dup4\n        /* \"#utility.yul\":29498:29535   */\n      add\n        /* \"#utility.yul\":29485:29496   */\n      dup3\n        /* \"#utility.yul\":29456:29536   */\n      tag_495\n      jump\t// in\n    tag_782:\n        /* \"#utility.yul\":29115:29546   */\n      pop\n      pop\n        /* \"#utility.yul\":29100:29546   */\n    tag_778:\n        /* \"#utility.yul\":29010:29553   */\n      pop\n      pop\n      pop\n      jump\t// out\n        /* \"#utility.yul\":29559:29676   */\n    tag_497:\n        /* \"#utility.yul\":29613:29621   */\n      0x00\n        /* \"#utility.yul\":29663:29668   */\n      dup3\n        /* \"#utility.yul\":29657:29661   */\n      dup3\n        /* \"#utility.yul\":29653:29669   */\n      shr\n        /* \"#utility.yul\":29632:29669   */\n      swap1\n      pop\n        /* \"#utility.yul\":29559:29676   */\n      swap3\n      swap2\n      pop\n      pop\n      jump\t// out\n        /* \"#utility.yul\":29682:29851   */\n    tag_498:\n        /* \"#utility.yul\":29726:29732   */\n      0x00\n        /* \"#utility.yul\":29759:29810   */\n      tag_786\n        /* \"#utility.yul\":29807:29808   */\n      0x00\n        /* \"#utility.yul\":29803:29809   */\n      not\n        /* \"#utility.yul\":29795:29800   */\n      dup5\n        /* \"#utility.yul\":29792:29793   */\n      0x08\n        /* \"#utility.yul\":29788:29801   */\n      mul\n        /* \"#utility.yul\":29759:29810   */\n      tag_497\n      jump\t// in\n    tag_786:\n        /* \"#utility.yul\":29755:29811   */\n      not\n        /* \"#utility.yul\":29840:29844   */\n      dup1\n        /* \"#utility.yul\":29834:29838   */\n      dup4\n        /* \"#utility.yul\":29830:29845   */\n      and\n        /* \"#utility.yul\":29820:29845   */\n      swap2\n      pop\n        /* \"#utility.yul\":29733:29851   */\n      pop\n        /* \"#utility.yul\":29682:29851   */\n      swap3\n      swap2\n      pop\n      pop\n      jump\t// out\n        /* \"#utility.yul\":29856:30151   */\n    tag_499:\n        /* \"#utility.yul\":29932:29936   */\n      0x00\n        /* \"#utility.yul\":30078:30107   */\n      tag_788\n        /* \"#utility.yul\":30103:30106   */\n      dup4\n        /* \"#utility.yul\":30097:30101   */\n      dup4\n        /* \"#utility.yul\":30078:30107   */\n      tag_498\n      jump\t// in\n    tag_788:\n        /* \"#utility.yul\":30070:30107   */\n      swap2\n      pop\n        /* \"#utility.yul\":30140:30143   */\n      dup3\n        /* \"#utility.yul\":30137:30138   */\n      0x02\n        /* \"#utility.yul\":30133:30144   */\n      mul\n        /* \"#utility.yul\":30127:30131   */\n      dup3\n        /* \"#utility.yul\":30124:30145   */\n      or\n        /* \"#utility.yul\":30116:30145   */\n      swap1\n      pop\n        /* \"#utility.yul\":29856:30151   */\n      swap3\n      swap2\n      pop\n      pop\n      jump\t// out\n        /* \"#utility.yul\":30156:31551   */\n    tag_128:\n        /* \"#utility.yul\":30273:30310   */\n      tag_790\n        /* \"#utility.yul\":30306:30309   */\n      dup3\n        /* \"#utility.yul\":30273:30310   */\n      tag_453\n      jump\t// in\n    tag_790:\n        /* \"#utility.yul\":30375:30393   */\n      0xffffffffffffffff\n        /* \"#utility.yul\":30367:30373   */\n      dup2\n        /* \"#utility.yul\":30364:30394   */\n      gt\n        /* \"#utility.yul\":30361:30417   */\n      iszero\n      tag_791\n      jumpi\n        /* \"#utility.yul\":30397:30415   */\n      tag_792\n      tag_442\n      jump\t// in\n    tag_792:\n        /* \"#utility.yul\":30361:30417   */\n    tag_791:\n        /* \"#utility.yul\":30441:30479   */\n      tag_793\n        /* \"#utility.yul\":30473:30477   */\n      dup3\n        /* \"#utility.yul\":30467:30478   */\n      sload\n        /* \"#utility.yul\":30441:30479   */\n      tag_116\n      jump\t// in\n    tag_793:\n        /* \"#utility.yul\":30526:30593   */\n      tag_794\n        /* \"#utility.yul\":30586:30592   */\n      dup3\n        /* \"#utility.yul\":30578:30584   */\n      dup3\n        /* \"#utility.yul\":30572:30576   */\n      dup6\n        /* \"#utility.yul\":30526:30593   */\n      tag_496\n      jump\t// in\n    tag_794:\n        /* \"#utility.yul\":30620:30621   */\n      0x00\n        /* \"#utility.yul\":30644:30648   */\n      0x20\n        /* \"#utility.yul\":30631:30648   */\n      swap1\n      pop\n        /* \"#utility.yul\":30676:30678   */\n      0x1f\n        /* \"#utility.yul\":30668:30674   */\n      dup4\n        /* \"#utility.yul\":30665:30679   */\n      gt\n        /* \"#utility.yul\":30693:30694   */\n      0x01\n        /* \"#utility.yul\":30688:31306   */\n      dup2\n      eq\n      tag_796\n      jumpi\n        /* \"#utility.yul\":31350:31351   */\n      0x00\n        /* \"#utility.yul\":31367:31373   */\n      dup5\n        /* \"#utility.yul\":31364:31441   */\n      iszero\n      tag_797\n      jumpi\n        /* \"#utility.yul\":31416:31425   */\n      dup3\n        /* \"#utility.yul\":31411:31414   */\n      dup8\n        /* \"#utility.yul\":31407:31426   */\n      add\n        /* \"#utility.yul\":31401:31427   */\n      mload\n        /* \"#utility.yul\":31392:31427   */\n      swap1\n      pop\n        /* \"#utility.yul\":31364:31441   */\n    tag_797:\n        /* \"#utility.yul\":31467:31534   */\n      tag_798\n        /* \"#utility.yul\":31527:31533   */\n      dup6\n        /* \"#utility.yul\":31520:31525   */\n      dup3\n        /* \"#utility.yul\":31467:31534   */\n      tag_499\n      jump\t// in\n    tag_798:\n        /* \"#utility.yul\":31461:31465   */\n      dup7\n        /* \"#utility.yul\":31454:31535   */\n      sstore\n        /* \"#utility.yul\":31323:31545   */\n      pop\n        /* \"#utility.yul\":30658:31545   */\n      jump(tag_795)\n        /* \"#utility.yul\":30688:31306   */\n    tag_796:\n        /* \"#utility.yul\":30740:30744   */\n      0x1f\n        /* \"#utility.yul\":30736:30745   */\n      not\n        /* \"#utility.yul\":30728:30734   */\n      dup5\n        /* \"#utility.yul\":30724:30746   */\n      and\n        /* \"#utility.yul\":30774:30811   */\n      tag_799\n        /* \"#utility.yul\":30806:30810   */\n      dup7\n        /* \"#utility.yul\":30774:30811   */\n      tag_485\n      jump\t// in\n    tag_799:\n        /* \"#utility.yul\":30833:30834   */\n      0x00\n        /* \"#utility.yul\":30847:31055   */\n    tag_800:\n        /* \"#utility.yul\":30861:30868   */\n      dup3\n        /* \"#utility.yul\":30858:30859   */\n      dup2\n        /* \"#utility.yul\":30855:30869   */\n      lt\n        /* \"#utility.yul\":30847:31055   */\n      iszero\n      tag_802\n      jumpi\n        /* \"#utility.yul\":30940:30949   */\n      dup5\n        /* \"#utility.yul\":30935:30938   */\n      dup10\n        /* \"#utility.yul\":30931:30950   */\n      add\n        /* \"#utility.yul\":30925:30951   */\n      mload\n        /* \"#utility.yul\":30917:30923   */\n      dup3\n        /* \"#utility.yul\":30910:30952   */\n      sstore\n        /* \"#utility.yul\":30991:30992   */\n      0x01\n        /* \"#utility.yul\":30983:30989   */\n      dup3\n        /* \"#utility.yul\":30979:30993   */\n      add\n        /* \"#utility.yul\":30969:30993   */\n      swap2\n      pop\n        /* \"#utility.yul\":31038:31040   */\n      0x20\n        /* \"#utility.yul\":31027:31036   */\n      dup6\n        /* \"#utility.yul\":31023:31041   */\n      add\n        /* \"#utility.yul\":31010:31041   */\n      swap5\n      pop\n        /* \"#utility.yul\":30884:30888   */\n      0x20\n        /* \"#utility.yul\":30881:30882   */\n      dup2\n        /* \"#utility.yul\":30877:30889   */\n      add\n        /* \"#utility.yul\":30872:30889   */\n      swap1\n      pop\n        /* \"#utility.yul\":30847:31055   */\n      jump(tag_800)\n    tag_802:\n        /* \"#utility.yul\":31083:31089   */\n      dup7\n        /* \"#utility.yul\":31074:31081   */\n      dup4\n        /* \"#utility.yul\":31071:31090   */\n      lt\n        /* \"#utility.yul\":31068:31247   */\n      iszero\n      tag_803\n      jumpi\n        /* \"#utility.yul\":31141:31150   */\n      dup5\n        /* \"#utility.yul\":31136:31139   */\n      dup10\n        /* \"#utility.yul\":31132:31151   */\n      add\n        /* \"#utility.yul\":31126:31152   */\n      mload\n        /* \"#utility.yul\":31184:31232   */\n      tag_804\n        /* \"#utility.yul\":31226:31230   */\n      0x1f\n        /* \"#utility.yul\":31218:31224   */\n      dup10\n        /* \"#utility.yul\":31214:31231   */\n      and\n        /* \"#utility.yul\":31203:31212   */\n      dup3\n        /* \"#utility.yul\":31184:31232   */\n      tag_498\n      jump\t// in\n    tag_804:\n        /* \"#utility.yul\":31176:31182   */\n      dup4\n        /* \"#utility.yul\":31169:31233   */\n      sstore\n        /* \"#utility.yul\":31091:31247   */\n      pop\n        /* \"#utility.yul\":31068:31247   */\n    tag_803:\n        /* \"#utility.yul\":31293:31294   */\n      0x01\n        /* \"#utility.yul\":31289:31290   */\n      0x02\n        /* \"#utility.yul\":31281:31287   */\n      dup9\n        /* \"#utility.yul\":31277:31291   */\n      mul\n        /* \"#utility.yul\":31273:31295   */\n      add\n        /* \"#utility.yul\":31267:31271   */\n      dup9\n        /* \"#utility.yul\":31260:31296   */\n      sstore\n        /* \"#utility.yul\":30695:31306   */\n      pop\n      pop\n      pop\n        /* \"#utility.yul\":30658:31545   */\n    tag_795:\n      pop\n        /* \"#utility.yul\":30248:31551   */\n      pop\n      pop\n      pop\n        /* \"#utility.yul\":30156:31551   */\n      pop\n      pop\n      jump\t// out\n        /* \"#utility.yul\":31557:31737   */\n    tag_500:\n        /* \"#utility.yul\":31605:31682   */\n      0x4e487b7100000000000000000000000000000000000000000000000000000000\n        /* \"#utility.yul\":31602:31603   */\n      0x00\n        /* \"#utility.yul\":31595:31683   */\n      mstore\n        /* \"#utility.yul\":31702:31706   */\n      0x11\n        /* \"#utility.yul\":31699:31700   */\n      0x04\n        /* \"#utility.yul\":31692:31707   */\n      mstore\n        /* \"#utility.yul\":31726:31730   */\n      0x24\n        /* \"#utility.yul\":31723:31724   */\n      0x00\n        /* \"#utility.yul\":31716:31731   */\n      revert\n        /* \"#utility.yul\":31743:31976   */\n    tag_130:\n        /* \"#utility.yul\":31782:31785   */\n      0x00\n        /* \"#utility.yul\":31805:31829   */\n      tag_807\n        /* \"#utility.yul\":31823:31828   */\n      dup3\n        /* \"#utility.yul\":31805:31829   */\n      tag_449\n      jump\t// in\n    tag_807:\n        /* \"#utility.yul\":31796:31829   */\n      swap2\n      pop\n        /* \"#utility.yul\":31851:31917   */\n      0xffffffffffffffffffffffffffffffffffffffffffffffffffffffffffffffff\n        /* \"#utility.yul\":31844:31849   */\n      dup3\n        /* \"#utility.yul\":31841:31918   */\n      sub\n        /* \"#utility.yul\":31838:31941   */\n      tag_808\n      jumpi\n        /* \"#utility.yul\":31921:31939   */\n      tag_809\n      tag_500\n      jump\t// in\n    tag_809:\n        /* \"#utility.yul\":31838:31941   */\n    tag_808:\n        /* \"#utility.yul\":31968:31969   */\n      0x01\n        /* \"#utility.yul\":31961:31966   */\n      dup3\n        /* \"#utility.yul\":31957:31970   */\n      add\n        /* \"#utility.yul\":31950:31970   */\n      swap1\n      pop\n        /* \"#utility.yul\":31743:31976   */\n      swap2\n      swap1\n      pop\n      jump\t// out\n        /* \"#utility.yul\":32006:32880   */\n    tag_501:\n        /* \"#utility.yul\":32109:32112   */\n      0x00\n        /* \"#utility.yul\":32146:32151   */\n      dup2\n        /* \"#utility.yul\":32140:32152   */\n      sload\n        /* \"#utility.yul\":32175:32211   */\n      tag_811\n        /* \"#utility.yul\":32201:32210   */\n      dup2\n        /* \"#utility.yul\":32175:32211   */\n      tag_116\n      jump\t// in\n    tag_811:\n        /* \"#utility.yul\":32227:32316   */\n      tag_812\n        /* \"#utility.yul\":32309:32315   */\n      dup2\n        /* \"#utility.yul\":32304:32307   */\n      dup7\n        /* \"#utility.yul\":32227:32316   */\n      tag_483\n      jump\t// in\n    tag_812:\n        /* \"#utility.yul\":32220:32316   */\n      swap5\n      pop\n        /* \"#utility.yul\":32347:32348   */\n      0x01\n        /* \"#utility.yul\":32336:32345   */\n      dup3\n        /* \"#utility.yul\":32332:32349   */\n      and\n        /* \"#utility.yul\":32363:32364   */\n      0x00\n        /* \"#utility.yul\":32358:32524   */\n      dup2\n      eq\n      tag_814\n      jumpi\n        /* \"#utility.yul\":32538:32539   */\n      0x01\n        /* \"#utility.yul\":32533:32874   */\n      dup2\n      eq\n      tag_815\n      jumpi\n        /* \"#utility.yul\":32325:32874   */\n      jump(tag_813)\n        /* \"#utility.yul\":32358:32524   */\n    tag_814:\n        /* \"#utility.yul\":32442:32446   */\n      0xff\n        /* \"#utility.yul\":32438:32447   */\n      not\n        /* \"#utility.yul\":32427:32436   */\n      dup4\n        /* \"#utility.yul\":32423:32448   */\n      and\n        /* \"#utility.yul\":32418:32421   */\n      dup7\n        /* \"#utility.yul\":32411:32449   */\n      mstore\n        /* \"#utility.yul\":32504:32510   */\n      dup2\n        /* \"#utility.yul\":32497:32511   */\n      iszero\n        /* \"#utility.yul\":32490:32512   */\n      iszero\n        /* \"#utility.yul\":32482:32488   */\n      dup3\n        /* \"#utility.yul\":32478:32513   */\n      mul\n        /* \"#utility.yul\":32473:32476   */\n      dup7\n        /* \"#utility.yul\":32469:32514   */\n      add\n        /* \"#utility.yul\":32462:32514   */\n      swap4\n      pop\n        /* \"#utility.yul\":32358:32524   */\n      jump(tag_813)\n        /* \"#utility.yul\":32533:32874   */\n    tag_815:\n        /* \"#utility.yul\":32600:32638   */\n      tag_816\n        /* \"#utility.yul\":32632:32637   */\n      dup6\n        /* \"#utility.yul\":32600:32638   */\n      tag_485\n      jump\t// in\n    tag_816:\n        /* \"#utility.yul\":32660:32661   */\n      0x00\n        /* \"#utility.yul\":32674:32828   */\n    tag_817:\n        /* \"#utility.yul\":32688:32694   */\n      dup4\n        /* \"#utility.yul\":32685:32686   */\n      dup2\n        /* \"#utility.yul\":32682:32695   */\n      lt\n        /* \"#utility.yul\":32674:32828   */\n      iszero\n      tag_819\n      jumpi\n        /* \"#utility.yul\":32762:32769   */\n      dup2\n        /* \"#utility.yul\":32756:32770   */\n      sload\n        /* \"#utility.yul\":32752:32753   */\n      dup2\n        /* \"#utility.yul\":32747:32750   */\n      dup10\n        /* \"#utility.yul\":32743:32754   */\n      add\n        /* \"#utility.yul\":32736:32771   */\n      mstore\n        /* \"#utility.yul\":32812:32813   */\n      0x01\n        /* \"#utility.yul\":32803:32810   */\n      dup3\n        /* \"#utility.yul\":32799:32814   */\n      add\n        /* \"#utility.yul\":32788:32814   */\n      swap2\n      pop\n        /* \"#utility.yul\":32710:32714   */\n      0x20\n        /* \"#utility.yul\":32707:32708   */\n      dup2\n        /* \"#utility.yul\":32703:32715   */\n      add\n        /* \"#utility.yul\":32698:32715   */\n      swap1\n      pop\n        /* \"#utility.yul\":32674:32828   */\n      jump(tag_817)\n    tag_819:\n        /* \"#utility.yul\":32857:32863   */\n      dup4\n        /* \"#utility.yul\":32852:32855   */\n      dup9\n        /* \"#utility.yul\":32848:32864   */\n      add\n        /* \"#utility.yul\":32841:32864   */\n      swap6\n      pop\n        /* \"#utility.yul\":32540:32874   */\n      pop\n      pop\n        /* \"#utility.yul\":32325:32874   */\n    tag_813:\n      pop\n        /* \"#utility.yul\":32113:32880   */\n      pop\n      pop\n        /* \"#utility.yul\":32006:32880   */\n      swap3\n      swap2\n      pop\n      pop\n      jump\t// out\n        /* \"#utility.yul\":32886:33155   */\n    tag_191:\n        /* \"#utility.yul\":33015:33018   */\n      0x00\n        /* \"#utility.yul\":33037:33129   */\n      tag_821\n        /* \"#utility.yul\":33125:33128   */\n      dup3\n        /* \"#utility.yul\":33116:33122   */\n      dup5\n        /* \"#utility.yul\":33037:33129   */\n      tag_501\n      jump\t// in\n    tag_821:\n        /* \"#utility.yul\":33030:33129   */\n      swap2\n      pop\n        /* \"#utility.yul\":33146:33149   */\n      dup2\n        /* \"#utility.yul\":33139:33149   */\n      swap1\n      pop\n        /* \"#utility.yul\":32886:33155   */\n      swap3\n      swap2\n      pop\n      pop\n      jump\t// out\n        /* \"#utility.yul\":33161:33571   */\n    tag_194:\n        /* \"#utility.yul\":33201:33208   */\n      0x00\n        /* \"#utility.yul\":33224:33244   */\n      tag_823\n        /* \"#utility.yul\":33242:33243   */\n      dup3\n        /* \"#utility.yul\":33224:33244   */\n      tag_449\n      jump\t// in\n    tag_823:\n        /* \"#utility.yul\":33219:33244   */\n      swap2\n      pop\n        /* \"#utility.yul\":33258:33278   */\n      tag_824\n        /* \"#utility.yul\":33276:33277   */\n      dup4\n        /* \"#utility.yul\":33258:33278   */\n      tag_449\n      jump\t// in\n    tag_824:\n        /* \"#utility.yul\":33253:33278   */\n      swap3\n      pop\n        /* \"#utility.yul\":33313:33314   */\n      dup3\n        /* \"#utility.yul\":33310:33311   */\n      dup3\n        /* \"#utility.yul\":33306:33315   */\n      mul\n        /* \"#utility.yul\":33335:33365   */\n      tag_825\n        /* \"#utility.yul\":33353:33364   */\n      dup2\n        /* \"#utility.yul\":33335:33365   */\n      tag_449\n      jump\t// in\n    tag_825:\n        /* \"#utility.yul\":33324:33365   */\n      swap2\n      pop\n        /* \"#utility.yul\":33514:33515   */\n      dup3\n        /* \"#utility.yul\":33505:33512   */\n      dup3\n        /* \"#utility.yul\":33501:33516   */\n      div\n        /* \"#utility.yul\":33498:33499   */\n      dup5\n        /* \"#utility.yul\":33495:33517   */\n      eq\n        /* \"#utility.yul\":33475:33476   */\n      dup4\n        /* \"#utility.yul\":33468:33477   */\n      iszero\n        /* \"#utility.yul\":33448:33531   */\n      or\n        /* \"#utility.yul\":33425:33564   */\n      tag_826\n      jumpi\n        /* \"#utility.yul\":33544:33562   */\n      tag_827\n      tag_500\n      jump\t// in\n    tag_827:\n        /* \"#utility.yul\":33425:33564   */\n    tag_826:\n        /* \"#utility.yul\":33209:33571   */\n      pop\n        /* \"#utility.yul\":33161:33571   */\n      swap3\n      swap2\n      pop\n      pop\n      jump\t// out\n        /* \"#utility.yul\":33577:33757   */\n    tag_257:\n        /* \"#utility.yul\":33625:33702   */\n      0x4e487b7100000000000000000000000000000000000000000000000000000000\n        /* \"#utility.yul\":33622:33623   */\n      0x00\n        /* \"#utility.yul\":33615:33703   */\n      mstore\n        /* \"#utility.yul\":33722:33726   */\n      0x32\n        /* \"#utility.yul\":33719:33720   */\n      0x04\n        /* \"#utility.yul\":33712:33727   */\n      mstore\n        /* \"#utility.yul\":33746:33750   */\n      0x24\n        /* \"#utility.yul\":33743:33744   */\n      0x00\n        /* \"#utility.yul\":33736:33751   */\n      revert\n    stop\n    data_2fe1bde1b84b10ebdbd3bbdfaafe37aec8f7c7d7968d28514693b7e0a6268ba1 64757269616e2064616d6167656420706c656173652073656c65637420616e6f746865722064757269616e\n\n    auxdata: 0xa2646970667358221220f8183aa5bfb9d71c4a150b0568835db43b4adcdccaa1c167e3cac4b88f8faa4f64736f6c63430008120033\n}\n",
				"bytecode": {
					"linkReferences": {},
					"object": "60806040526040518060c001604052806040518060400160405280600781526020017f64656661756c740000000000000000000000000000000000000000000000000081525081526020016040518060400160405280600781526020017f64656661756c74000000000000000000000000000000000000000000000000008152508152602001600260048111156200009c576200009b62000247565b5b815260200160026004811115620000b857620000b762000247565b5b815260200160026004811115620000d457620000d362000247565b5b815260200160026004811115620000f057620000ef62000247565b5b815250600560008201518160000190816200010c9190620004f0565b506020820151816001019081620001249190620004f0565b5060408201518160020160006101000a81548160ff0219169083600481111562000153576200015262000247565b5b021790555060608201518160020160016101000a81548160ff0219169083600481111562000186576200018562000247565b5b021790555060808201518160020160026101000a81548160ff02191690836004811115620001b957620001b862000247565b5b021790555060a08201518160020160036101000a81548160ff02191690836004811115620001ec57620001eb62000247565b5b021790555050503480156200020057600080fd5b50336000806101000a81548173ffffffffffffffffffffffffffffffffffffffff021916908373ffffffffffffffffffffffffffffffffffffffff160217905550620005d7565b7f4e487b7100000000000000000000000000000000000000000000000000000000600052602160045260246000fd5b600081519050919050565b7f4e487b7100000000000000000000000000000000000000000000000000000000600052604160045260246000fd5b7f4e487b7100000000000000000000000000000000000000000000000000000000600052602260045260246000fd5b60006002820490506001821680620002f857607f821691505b6020821081036200030e576200030d620002b0565b5b50919050565b60008190508160005260206000209050919050565b60006020601f8301049050919050565b600082821b905092915050565b600060088302620003787fffffffffffffffffffffffffffffffffffffffffffffffffffffffffffffffff8262000339565b62000384868362000339565b95508019841693508086168417925050509392505050565b6000819050919050565b6000819050919050565b6000620003d1620003cb620003c5846200039c565b620003a6565b6200039c565b9050919050565b6000819050919050565b620003ed83620003b0565b62000405620003fc82620003d8565b84845462000346565b825550505050565b600090565b6200041c6200040d565b62000429818484620003e2565b505050565b5b8181101562000451576200044560008262000412565b6001810190506200042f565b5050565b601f821115620004a0576200046a8162000314565b620004758462000329565b8101602085101562000485578190505b6200049d620004948562000329565b8301826200042e565b50505b505050565b600082821c905092915050565b6000620004c560001984600802620004a5565b1980831691505092915050565b6000620004e08383620004b2565b9150826002028217905092915050565b620004fb8262000276565b67ffffffffffffffff81111562000517576200051662000281565b5b620005238254620002df565b6200053082828562000455565b600060209050601f83116001811462000568576000841562000553578287015190505b6200055f8582620004d2565b865550620005cf565b601f198416620005788662000314565b60005b82811015620005a2578489015182556001820191506020850194506020810190506200057b565b86831015620005c25784890151620005be601f891682620004b2565b8355505b6001600288020188555050505b505050505050565b613c1c80620005e76000396000f3fe6080604052600436106100fe5760003560e01c80635a37525811610095578063cd3d46fc11610064578063cd3d46fc1461035d578063d66d2a571461039a578063ea3e7373146103c5578063eeb3de7314610402578063f1a40b6b1461042b576100fe565b80635a375258146102775780637fa9571f146102b45780639d9fabda146102df578063b7ee0adc1461031d576100fe565b8063217a8432116100d1578063217a8432146101cf5780632966b29b146101f857806338dda8491461022357806345c680901461024e576100fe565b80630c8299f3146101035780630fd601251461012c5780631dd51307146101575780631f3101651461019f575b600080fd5b34801561010f57600080fd5b5061012a60048036038101906101259190612be9565b610456565b005b34801561013857600080fd5b50610141610630565b60405161014e9190612c54565b60405180910390f35b34801561016357600080fd5b5061017e60048036038101906101799190612c6f565b610636565b6040516101969c9b9a99989796959493929190612ee4565b60405180910390f35b6101b960048036038101906101b49190612fed565b610b33565b6040516101c69190613049565b60405180910390f35b3480156101db57600080fd5b506101f660048036038101906101f1919061306b565b610e28565b005b34801561020457600080fd5b5061020d611521565b60405161021a9190613151565b60405180910390f35b34801561022f57600080fd5b50610238611545565b6040516102459190612c54565b60405180910390f35b34801561025a57600080fd5b5061027560048036038101906102709190613222565b61154b565b005b34801561028357600080fd5b5061029e60048036038101906102999190612c6f565b6117cb565b6040516102ab91906134ba565b60405180910390f35b3480156102c057600080fd5b506102c9611d5f565b6040516102d69190612c54565b60405180910390f35b3480156102eb57600080fd5b5061030660048036038101906103019190612c6f565b611d69565b6040516103149291906134dc565b60405180910390f35b34801561032957600080fd5b50610344600480360381019061033f919061350c565b611e2b565b6040516103549493929190613539565b60405180910390f35b34801561036957600080fd5b50610384600480360381019061037f919061358c565b611f8b565b6040516103919190613633565b60405180910390f35b3480156103a657600080fd5b506103af61233b565b6040516103bc919061364e565b60405180910390f35b3480156103d157600080fd5b506103ec60048036038101906103e7919061358c565b612364565b6040516103f99190613633565b60405180910390f35b34801561040e57600080fd5b5061042960048036038101906104249190613669565b612714565b005b34801561043757600080fd5b50610440612882565b60405161044d9190612c54565b60405180910390f35b61055f600360003373ffffffffffffffffffffffffffffffffffffffff1673ffffffffffffffffffffffffffffffffffffffff16815260200190815260200160002060030180546104a690613737565b80601f01602080910402602001604051908101604052809291908181526020018280546104d290613737565b801561051f5780601f106104f45761010080835404028352916020019161051f565b820191906000526020600020905b81548152906001019060200180831161050257829003601f168201915b50505050506040518060400160405280600b81526020017f4661726d20576f726b657200000000000000000000000000000000000000000081525061288c565b806105b5575060008054906101000a900473ffffffffffffffffffffffffffffffffffffffff1673ffffffffffffffffffffffffffffffffffffffff163373ffffffffffffffffffffffffffffffffffffffff16145b6105be57600080fd5b6040518060400160405280838152602001828152506008836040516105e391906137a4565b908152602001604051809103902060008201518160000190816106069190613967565b50602082015181600101559050506001600081548092919061062790613a68565b91905055505050565b60015481565b60048180516020810182018051848252602083016020850120818352809550505050505060009150905080600001805461066f90613737565b80601f016020809104026020016040519081016040528092919081815260200182805461069b90613737565b80156106e85780601f106106bd576101008083540402835291602001916106e8565b820191906000526020600020905b8154815290600101906020018083116106cb57829003601f168201915b5050505050908060010180546106fd90613737565b80601f016020809104026020016040519081016040528092919081815260200182805461072990613737565b80156107765780601f1061074b57610100808354040283529160200191610776565b820191906000526020600020905b81548152906001019060200180831161075957829003601f168201915b5050505050908060020154908060030154908060040160009054906101000a900473ffffffffffffffffffffffffffffffffffffffff16908060050154908060060154908060070160009054906101000a900473ffffffffffffffffffffffffffffffffffffffff1690806008016040518060c00160405290816000820180546107ff90613737565b80601f016020809104026020016040519081016040528092919081815260200182805461082b90613737565b80156108785780601f1061084d57610100808354040283529160200191610878565b820191906000526020600020905b81548152906001019060200180831161085b57829003601f168201915b5050505050815260200160018201805461089190613737565b80601f01602080910402602001604051908101604052809291908181526020018280546108bd90613737565b801561090a5780601f106108df5761010080835404028352916020019161090a565b820191906000526020600020905b8154815290600101906020018083116108ed57829003601f168201915b505050505081526020016002820160009054906101000a900460ff16600481111561093857610937612dc2565b5b600481111561094a57610949612dc2565b5b81526020016002820160019054906101000a900460ff16600481111561097357610972612dc2565b5b600481111561098557610984612dc2565b5b81526020016002820160029054906101000a900460ff1660048111156109ae576109ad612dc2565b5b60048111156109c0576109bf612dc2565b5b81526020016002820160039054906101000a900460ff1660048111156109e9576109e8612dc2565b5b60048111156109fb576109fa612dc2565b5b815250509080600b018054610a0f90613737565b80601f0160208091040260200160405190810160405280929190818152602001828054610a3b90613737565b8015610a885780601f10610a5d57610100808354040283529160200191610a88565b820191906000526020600020905b815481529060010190602001808311610a6b57829003601f168201915b50505050509080600c0160009054906101000a900460ff169080600d018054610ab090613737565b80601f0160208091040260200160405190810160405280929190818152602001828054610adc90613737565b8015610b295780601f10610afe57610100808354040283529160200191610b29565b820191906000526020600020905b815481529060010190602001808311610b0c57829003601f168201915b505050505090508c565b6060610c1d600483604051610b4891906137a4565b9081526020016040518091039020600d018054610b6490613737565b80601f0160208091040260200160405190810160405280929190818152602001828054610b9090613737565b8015610bdd5780601f10610bb257610100808354040283529160200191610bdd565b820191906000526020600020905b815481529060010190602001808311610bc057829003601f168201915b50505050506040518060400160405280600781526020017f64616d616765640000000000000000000000000000000000000000000000000081525061288c565b15610c42576040518060600160405280602b8152602001613bbc602b91399050610e22565b6000600483604051610c5491906137a4565b90815260200160405180910390206002015403610ca8576040518060400160405280601081526020017f64757269616e206e6f7420666f756e64000000000000000000000000000000008152509050610e22565b6008600483604051610cba91906137a4565b9081526020016040518091039020600101604051610cd89190613b33565b908152602001604051809103902060010154600483604051610cfa91906137a4565b908152602001604051809103902060020154610d169190613b4a565b341015610d2257600080fd5b60008054906101000a900473ffffffffffffffffffffffffffffffffffffffff1673ffffffffffffffffffffffffffffffffffffffff166108fc349081150290604051600060405180830381858888f19350505050158015610d88573d6000803e3d6000fd5b5082600483604051610d9a91906137a4565b908152602001604051809103902060070160006101000a81548173ffffffffffffffffffffffffffffffffffffffff021916908373ffffffffffffffffffffffffffffffffffffffff1602179055506040518060400160405280600a81526020017f7375636365737366756c0000000000000000000000000000000000000000000081525090505b92915050565b610f31600360003373ffffffffffffffffffffffffffffffffffffffff1673ffffffffffffffffffffffffffffffffffffffff1681526020019081526020016000206003018054610e7890613737565b80601f0160208091040260200160405190810160405280929190818152602001828054610ea490613737565b8015610ef15780601f10610ec657610100808354040283529160200191610ef1565b820191906000526020600020905b815481529060010190602001808311610ed457829003601f168201915b50505050506040518060400160405280600b81526020017f4661726d20576f726b657200000000000000000000000000000000000000000081525061288c565b80610f87575060008054906101000a900473ffffffffffffffffffffffffffffffffffffffff1673ffffffffffffffffffffffffffffffffffffffff163373ffffffffffffffffffffffffffffffffffffffff16145b610f9057600080fd5b6040518061018001604052808781526020018681526020018581526020018481526020013373ffffffffffffffffffffffffffffffffffffffff16815260200183815260200182815260200160008054906101000a900473ffffffffffffffffffffffffffffffffffffffff1673ffffffffffffffffffffffffffffffffffffffff16815260200160056040518060c001604052908160008201805461103590613737565b80601f016020809104026020016040519081016040528092919081815260200182805461106190613737565b80156110ae5780601f10611083576101008083540402835291602001916110ae565b820191906000526020600020905b81548152906001019060200180831161109157829003601f168201915b505050505081526020016001820180546110c790613737565b80601f01602080910402602001604051908101604052809291908181526020018280546110f390613737565b80156111405780601f1061111557610100808354040283529160200191611140565b820191906000526020600020905b81548152906001019060200180831161112357829003601f168201915b505050505081526020016002820160009054906101000a900460ff16600481111561116e5761116d612dc2565b5b60048111156111805761117f612dc2565b5b81526020016002820160019054906101000a900460ff1660048111156111a9576111a8612dc2565b5b60048111156111bb576111ba612dc2565b5b81526020016002820160029054906101000a900460ff1660048111156111e4576111e3612dc2565b5b60048111156111f6576111f5612dc2565b5b81526020016002820160039054906101000a900460ff16600481111561121f5761121e612dc2565b5b600481111561123157611230612dc2565b5b8152505081526020016040518060400160405280600481526020017f6661726d0000000000000000000000000000000000000000000000000000000081525081526020016000151581526020016040518060400160405280600781526020017f70657266656374000000000000000000000000000000000000000000000000008152508152506004876040516112c791906137a4565b908152602001604051809103902060008201518160000190816112ea9190613967565b5060208201518160010190816113009190613967565b50604082015181600201556060820151816003015560808201518160040160006101000a81548173ffffffffffffffffffffffffffffffffffffffff021916908373ffffffffffffffffffffffffffffffffffffffff16021790555060a0820151816005015560c0820151816006015560e08201518160070160006101000a81548173ffffffffffffffffffffffffffffffffffffffff021916908373ffffffffffffffffffffffffffffffffffffffff1602179055506101008201518160080160008201518160000190816113d69190613967565b5060208201518160010190816113ec9190613967565b5060408201518160020160006101000a81548160ff0219169083600481111561141857611417612dc2565b5b021790555060608201518160020160016101000a81548160ff0219169083600481111561144857611447612dc2565b5b021790555060808201518160020160026101000a81548160ff0219169083600481111561147857611477612dc2565b5b021790555060a08201518160020160036101000a81548160ff021916908360048111156114a8576114a7612dc2565b5b0217905550505061012082015181600b0190816114c59190613967565b5061014082015181600c0160006101000a81548160ff02191690831515021790555061016082015181600d0190816114fd9190613967565b509050506001600081548092919061151490613a68565b9190505550505050505050565b60008054906101000a900473ffffffffffffffffffffffffffffffffffffffff1681565b60025481565b60048460405161155b91906137a4565b908152602001604051809103902060070160009054906101000a900473ffffffffffffffffffffffffffffffffffffffff1673ffffffffffffffffffffffffffffffffffffffff163373ffffffffffffffffffffffffffffffffffffffff16036117c5576040518060c001604052808481526020018381526020016115f7836000600481106115ed576115ec613b8c565b5b60200201516128e5565b600481111561160957611608612dc2565b5b815260200161162f8360016004811061162557611624613b8c565b5b60200201516128e5565b600481111561164157611640612dc2565b5b81526020016116678360026004811061165d5761165c613b8c565b5b60200201516128e5565b600481111561167957611678612dc2565b5b815260200161169f8360036004811061169557611694613b8c565b5b60200201516128e5565b60048111156116b1576116b0612dc2565b5b8152506004856040516116c491906137a4565b908152602001604051809103902060080160008201518160000190816116ea9190613967565b5060208201518160010190816117009190613967565b5060408201518160020160006101000a81548160ff0219169083600481111561172c5761172b612dc2565b5b021790555060608201518160020160016101000a81548160ff0219169083600481111561175c5761175b612dc2565b5b021790555060808201518160020160026101000a81548160ff0219169083600481111561178c5761178b612dc2565b5b021790555060a08201518160020160036101000a81548160ff021916908360048111156117bc576117bb612dc2565b5b02179055509050505b50505050565b6117d3612946565b6004826040516117e391906137a4565b90815260200160405180910390206040518061018001604052908160008201805461180d90613737565b80601f016020809104026020016040519081016040528092919081815260200182805461183990613737565b80156118865780601f1061185b57610100808354040283529160200191611886565b820191906000526020600020905b81548152906001019060200180831161186957829003601f168201915b5050505050815260200160018201805461189f90613737565b80601f01602080910402602001604051908101604052809291908181526020018280546118cb90613737565b80156119185780601f106118ed57610100808354040283529160200191611918565b820191906000526020600020905b8154815290600101906020018083116118fb57829003601f168201915b5050505050815260200160028201548152602001600382015481526020016004820160009054906101000a900473ffffffffffffffffffffffffffffffffffffffff1673ffffffffffffffffffffffffffffffffffffffff1673ffffffffffffffffffffffffffffffffffffffff16815260200160058201548152602001600682015481526020016007820160009054906101000a900473ffffffffffffffffffffffffffffffffffffffff1673ffffffffffffffffffffffffffffffffffffffff1673ffffffffffffffffffffffffffffffffffffffff168152602001600882016040518060c0016040529081600082018054611a1590613737565b80601f0160208091040260200160405190810160405280929190818152602001828054611a4190613737565b8015611a8e5780601f10611a6357610100808354040283529160200191611a8e565b820191906000526020600020905b815481529060010190602001808311611a7157829003601f168201915b50505050508152602001600182018054611aa790613737565b80601f0160208091040260200160405190810160405280929190818152602001828054611ad390613737565b8015611b205780601f10611af557610100808354040283529160200191611b20565b820191906000526020600020905b815481529060010190602001808311611b0357829003601f168201915b505050505081526020016002820160009054906101000a900460ff166004811115611b4e57611b4d612dc2565b5b6004811115611b6057611b5f612dc2565b5b81526020016002820160019054906101000a900460ff166004811115611b8957611b88612dc2565b5b6004811115611b9b57611b9a612dc2565b5b81526020016002820160029054906101000a900460ff166004811115611bc457611bc3612dc2565b5b6004811115611bd657611bd5612dc2565b5b81526020016002820160039054906101000a900460ff166004811115611bff57611bfe612dc2565b5b6004811115611c1157611c10612dc2565b5b815250508152602001600b82018054611c2990613737565b80601f0160208091040260200160405190810160405280929190818152602001828054611c5590613737565b8015611ca25780601f10611c7757610100808354040283529160200191611ca2565b820191906000526020600020905b815481529060010190602001808311611c8557829003601f168201915b50505050508152602001600c820160009054906101000a900460ff16151515158152602001600d82018054611cd690613737565b80601f0160208091040260200160405190810160405280929190818152602001828054611d0290613737565b8015611d4f5780601f10611d2457610100808354040283529160200191611d4f565b820191906000526020600020905b815481529060010190602001808311611d3257829003601f168201915b5050505050815250509050919050565b6000600154905090565b600881805160208101820180518482526020830160208501208183528095505050505050600091509050806000018054611da290613737565b80601f0160208091040260200160405190810160405280929190818152602001828054611dce90613737565b8015611e1b5780601f10611df057610100808354040283529160200191611e1b565b820191906000526020600020905b815481529060010190602001808311611dfe57829003601f168201915b5050505050908060010154905082565b60036020528060005260406000206000915090508060000160009054906101000a900473ffffffffffffffffffffffffffffffffffffffff1690806001015490806002018054611e7a90613737565b80601f0160208091040260200160405190810160405280929190818152602001828054611ea690613737565b8015611ef35780601f10611ec857610100808354040283529160200191611ef3565b820191906000526020600020905b815481529060010190602001808311611ed657829003601f168201915b505050505090806003018054611f0890613737565b80601f0160208091040260200160405190810160405280929190818152602001828054611f3490613737565b8015611f815780601f10611f5657610100808354040283529160200191611f81565b820191906000526020600020905b815481529060010190602001808311611f6457829003601f168201915b5050505050905084565b6000612096600360003373ffffffffffffffffffffffffffffffffffffffff1673ffffffffffffffffffffffffffffffffffffffff1681526020019081526020016000206003018054611fdd90613737565b80601f016020809104026020016040519081016040528092919081815260200182805461200990613737565b80156120565780601f1061202b57610100808354040283529160200191612056565b820191906000526020600020905b81548152906001019060200180831161203957829003601f168201915b50505050506040518060400160405280601381526020017f446973747269627574696f6e20576f726b65720000000000000000000000000081525061288c565b806121a657506121a5600360003373ffffffffffffffffffffffffffffffffffffffff1673ffffffffffffffffffffffffffffffffffffffff16815260200190815260200160002060030180546120ec90613737565b80601f016020809104026020016040519081016040528092919081815260200182805461211890613737565b80156121655780601f1061213a57610100808354040283529160200191612165565b820191906000526020600020905b81548152906001019060200180831161214857829003601f168201915b50505050506040518060400160405280600d81526020017f52657461696c20576f726b65720000000000000000000000000000000000000081525061288c565b5b806121fc575060008054906101000a900473ffffffffffffffffffffffffffffffffffffffff1673ffffffffffffffffffffffffffffffffffffffff163373ffffffffffffffffffffffffffffffffffffffff16145b61220557600080fd5b6122b88360048660405161221991906137a4565b9081526020016040518091039020600b01805461223590613737565b80601f016020809104026020016040519081016040528092919081815260200182805461226190613737565b80156122ae5780601f10612283576101008083540402835291602001916122ae565b820191906000526020600020905b81548152906001019060200180831161229157829003601f168201915b505050505061288c565b1561232f57816004856040516122ce91906137a4565b9081526020016040518091039020600d0190816122eb9190613967565b5060006004856040516122fe91906137a4565b9081526020016040518091039020600c0160006101000a81548160ff02191690831515021790555060019050612334565b600090505b9392505050565b60008060009054906101000a900473ffffffffffffffffffffffffffffffffffffffff16905090565b600061246f600360003373ffffffffffffffffffffffffffffffffffffffff1673ffffffffffffffffffffffffffffffffffffffff16815260200190815260200160002060030180546123b690613737565b80601f01602080910402602001604051908101604052809291908181526020018280546123e290613737565b801561242f5780601f106124045761010080835404028352916020019161242f565b820191906000526020600020905b81548152906001019060200180831161241257829003601f168201915b50505050506040518060400160405280601381526020017f446973747269627574696f6e20576f726b65720000000000000000000000000081525061288c565b8061257f575061257e600360003373ffffffffffffffffffffffffffffffffffffffff1673ffffffffffffffffffffffffffffffffffffffff16815260200190815260200160002060030180546124c590613737565b80601f01602080910402602001604051908101604052809291908181526020018280546124f190613737565b801561253e5780601f106125135761010080835404028352916020019161253e565b820191906000526020600020905b81548152906001019060200180831161252157829003601f168201915b50505050506040518060400160405280600b81526020017f4661726d20576f726b657200000000000000000000000000000000000000000081525061288c565b5b806125d5575060008054906101000a900473ffffffffffffffffffffffffffffffffffffffff1673ffffffffffffffffffffffffffffffffffffffff163373ffffffffffffffffffffffffffffffffffffffff16145b6125de57600080fd5b612691846004846040516125f291906137a4565b9081526020016040518091039020600b01805461260e90613737565b80601f016020809104026020016040519081016040528092919081815260200182805461263a90613737565b80156126875780601f1061265c57610100808354040283529160200191612687565b820191906000526020600020905b81548152906001019060200180831161266a57829003601f168201915b505050505061288c565b1561270857826004836040516126a791906137a4565b9081526020016040518091039020600b0190816126c49190613967565b5060016004836040516126d791906137a4565b9081526020016040518091039020600c0160006101000a81548160ff0219169083151502179055506001905061270d565b600090505b9392505050565b60008054906101000a900473ffffffffffffffffffffffffffffffffffffffff168073ffffffffffffffffffffffffffffffffffffffff163373ffffffffffffffffffffffffffffffffffffffff161461276d57600080fd5b60405180608001604052808673ffffffffffffffffffffffffffffffffffffffff16815260200185815260200184815260200183815250600360008773ffffffffffffffffffffffffffffffffffffffff1673ffffffffffffffffffffffffffffffffffffffff16815260200190815260200160002060008201518160000160006101000a81548173ffffffffffffffffffffffffffffffffffffffff021916908373ffffffffffffffffffffffffffffffffffffffff1602179055506020820151816001015560408201518160020190816128499190613967565b50606082015181600301908161285f9190613967565b509050506002600081548092919061287690613a68565b91905055505050505050565b6000600254905090565b60008160405160200161289f91906137a4565b60405160208183030381529060405280519060200120836040516020016128c691906137a4565b6040516020818303038152906040528051906020012014905092915050565b6000600182036128f85760009050612941565b600282036129095760019050612941565b6003820361291a5760029050612941565b6004820361292b5760039050612941565b6005820361293c5760049050612941565b600290505b919050565b60405180610180016040528060608152602001606081526020016000815260200160008152602001600073ffffffffffffffffffffffffffffffffffffffff1681526020016000815260200160008152602001600073ffffffffffffffffffffffffffffffffffffffff1681526020016129be6129db565b815260200160608152602001600015158152602001606081525090565b6040518060c00160405280606081526020016060815260200160006004811115612a0857612a07612dc2565b5b815260200160006004811115612a2157612a20612dc2565b5b815260200160006004811115612a3a57612a39612dc2565b5b815260200160006004811115612a5357612a52612dc2565b5b81525090565b6000604051905090565b600080fd5b600080fd5b600080fd5b600080fd5b6000601f19601f8301169050919050565b7f4e487b7100000000000000000000000000000000000000000000000000000000600052604160045260246000fd5b612ac082612a77565b810181811067ffffffffffffffff82111715612adf57612ade612a88565b5b80604052505050565b6000612af2612a59565b9050612afe8282612ab7565b919050565b600067ffffffffffffffff821115612b1e57612b1d612a88565b5b612b2782612a77565b9050602081019050919050565b82818337600083830152505050565b6000612b56612b5184612b03565b612ae8565b905082815260208101848484011115612b7257612b71612a72565b5b612b7d848285612b34565b509392505050565b600082601f830112612b9a57612b99612a6d565b5b8135612baa848260208601612b43565b91505092915050565b6000819050919050565b612bc681612bb3565b8114612bd157600080fd5b50565b600081359050612be381612bbd565b92915050565b60008060408385031215612c0057612bff612a63565b5b600083013567ffffffffffffffff811115612c1e57612c1d612a68565b5b612c2a85828601612b85565b9250506020612c3b85828601612bd4565b9150509250929050565b612c4e81612bb3565b82525050565b6000602082019050612c696000830184612c45565b92915050565b600060208284031215612c8557612c84612a63565b5b600082013567ffffffffffffffff811115612ca357612ca2612a68565b5b612caf84828501612b85565b91505092915050565b600081519050919050565b600082825260208201905092915050565b60005b83811015612cf2578082015181840152602081019050612cd7565b60008484015250505050565b6000612d0982612cb8565b612d138185612cc3565b9350612d23818560208601612cd4565b612d2c81612a77565b840191505092915050565b600073ffffffffffffffffffffffffffffffffffffffff82169050919050565b6000612d6282612d37565b9050919050565b612d7281612d57565b82525050565b600082825260208201905092915050565b6000612d9482612cb8565b612d9e8185612d78565b9350612dae818560208601612cd4565b612db781612a77565b840191505092915050565b7f4e487b7100000000000000000000000000000000000000000000000000000000600052602160045260246000fd5b60058110612e0257612e01612dc2565b5b50565b6000819050612e1382612df1565b919050565b6000612e2382612e05565b9050919050565b612e3381612e18565b82525050565b600060c0830160008301518482036000860152612e568282612d89565b91505060208301518482036020860152612e708282612d89565b9150506040830151612e856040860182612e2a565b506060830151612e986060860182612e2a565b506080830151612eab6080860182612e2a565b5060a0830151612ebe60a0860182612e2a565b508091505092915050565b60008115159050919050565b612ede81612ec9565b82525050565b6000610180820190508181036000830152612eff818f612cfe565b90508181036020830152612f13818e612cfe565b9050612f22604083018d612c45565b612f2f606083018c612c45565b612f3c608083018b612d69565b612f4960a083018a612c45565b612f5660c0830189612c45565b612f6360e0830188612d69565b818103610100830152612f768187612e39565b9050818103610120830152612f8b8186612cfe565b9050612f9b610140830185612ed5565b818103610160830152612fae8184612cfe565b90509d9c50505050505050505050505050565b612fca81612d57565b8114612fd557600080fd5b50565b600081359050612fe781612fc1565b92915050565b6000806040838503121561300457613003612a63565b5b600061301285828601612fd8565b925050602083013567ffffffffffffffff81111561303357613032612a68565b5b61303f85828601612b85565b9150509250929050565b600060208201905081810360008301526130638184612cfe565b905092915050565b60008060008060008060c0878903121561308857613087612a63565b5b600087013567ffffffffffffffff8111156130a6576130a5612a68565b5b6130b289828a01612b85565b965050602087013567ffffffffffffffff8111156130d3576130d2612a68565b5b6130df89828a01612b85565b95505060406130f089828a01612bd4565b945050606061310189828a01612bd4565b935050608061311289828a01612bd4565b92505060a061312389828a01612bd4565b9150509295509295509295565b600061313b82612d37565b9050919050565b61314b81613130565b82525050565b60006020820190506131666000830184613142565b92915050565b600067ffffffffffffffff82111561318757613186612a88565b5b602082029050919050565b600080fd5b60006131aa6131a58461316c565b612ae8565b905080602084028301858111156131c4576131c3613192565b5b835b818110156131ed57806131d98882612bd4565b8452602084019350506020810190506131c6565b5050509392505050565b600082601f83011261320c5761320b612a6d565b5b6004613219848285613197565b91505092915050565b60008060008060e0858703121561323c5761323b612a63565b5b600085013567ffffffffffffffff81111561325a57613259612a68565b5b61326687828801612b85565b945050602085013567ffffffffffffffff81111561328757613286612a68565b5b61329387828801612b85565b935050604085013567ffffffffffffffff8111156132b4576132b3612a68565b5b6132c087828801612b85565b92505060606132d1878288016131f7565b91505092959194509250565b6132e681612bb3565b82525050565b6132f581612d57565b82525050565b600060c08301600083015184820360008601526133188282612d89565b915050602083015184820360208601526133328282612d89565b91505060408301516133476040860182612e2a565b50606083015161335a6060860182612e2a565b50608083015161336d6080860182612e2a565b5060a083015161338060a0860182612e2a565b508091505092915050565b61339481612ec9565b82525050565b60006101808301600083015184820360008601526133b88282612d89565b915050602083015184820360208601526133d28282612d89565b91505060408301516133e760408601826132dd565b5060608301516133fa60608601826132dd565b50608083015161340d60808601826132ec565b5060a083015161342060a08601826132dd565b5060c083015161343360c08601826132dd565b5060e083015161344660e08601826132ec565b5061010083015184820361010086015261346082826132fb565b91505061012083015184820361012086015261347c8282612d89565b91505061014083015161349361014086018261338b565b506101608301518482036101608601526134ad8282612d89565b9150508091505092915050565b600060208201905081810360008301526134d4818461339a565b905092915050565b600060408201905081810360008301526134f68185612cfe565b90506135056020830184612c45565b9392505050565b60006020828403121561352257613521612a63565b5b600061353084828501612fd8565b91505092915050565b600060808201905061354e6000830187612d69565b61355b6020830186612c45565b818103604083015261356d8185612cfe565b905081810360608301526135818184612cfe565b905095945050505050565b6000806000606084860312156135a5576135a4612a63565b5b600084013567ffffffffffffffff8111156135c3576135c2612a68565b5b6135cf86828701612b85565b935050602084013567ffffffffffffffff8111156135f0576135ef612a68565b5b6135fc86828701612b85565b925050604084013567ffffffffffffffff81111561361d5761361c612a68565b5b61362986828701612b85565b9150509250925092565b60006020820190506136486000830184612ed5565b92915050565b60006020820190506136636000830184612d69565b92915050565b6000806000806080858703121561368357613682612a63565b5b600061369187828801612fd8565b94505060206136a287828801612bd4565b935050604085013567ffffffffffffffff8111156136c3576136c2612a68565b5b6136cf87828801612b85565b925050606085013567ffffffffffffffff8111156136f0576136ef612a68565b5b6136fc87828801612b85565b91505092959194509250565b7f4e487b7100000000000000000000000000000000000000000000000000000000600052602260045260246000fd5b6000600282049050600182168061374f57607f821691505b60208210810361376257613761613708565b5b50919050565b600081905092915050565b600061377e82612cb8565b6137888185613768565b9350613798818560208601612cd4565b80840191505092915050565b60006137b08284613773565b915081905092915050565b60008190508160005260206000209050919050565b60006020601f8301049050919050565b600082821b905092915050565b60006008830261381d7fffffffffffffffffffffffffffffffffffffffffffffffffffffffffffffffff826137e0565b61382786836137e0565b95508019841693508086168417925050509392505050565b6000819050919050565b600061386461385f61385a84612bb3565b61383f565b612bb3565b9050919050565b6000819050919050565b61387e83613849565b61389261388a8261386b565b8484546137ed565b825550505050565b600090565b6138a761389a565b6138b2818484613875565b505050565b5b818110156138d6576138cb60008261389f565b6001810190506138b8565b5050565b601f82111561391b576138ec816137bb565b6138f5846137d0565b81016020851015613904578190505b613918613910856137d0565b8301826138b7565b50505b505050565b600082821c905092915050565b600061393e60001984600802613920565b1980831691505092915050565b6000613957838361392d565b9150826002028217905092915050565b61397082612cb8565b67ffffffffffffffff81111561398957613988612a88565b5b6139938254613737565b61399e8282856138da565b600060209050601f8311600181146139d157600084156139bf578287015190505b6139c9858261394b565b865550613a31565b601f1984166139df866137bb565b60005b82811015613a07578489015182556001820191506020850194506020810190506139e2565b86831015613a245784890151613a20601f89168261392d565b8355505b6001600288020188555050505b505050505050565b7f4e487b7100000000000000000000000000000000000000000000000000000000600052601160045260246000fd5b6000613a7382612bb3565b91507fffffffffffffffffffffffffffffffffffffffffffffffffffffffffffffffff8203613aa557613aa4613a39565b5b600182019050919050565b60008154613abd81613737565b613ac78186613768565b94506001821660008114613ae25760018114613af757613b2a565b60ff1983168652811515820286019350613b2a565b613b00856137bb565b60005b83811015613b2257815481890152600182019150602081019050613b03565b838801955050505b50505092915050565b6000613b3f8284613ab0565b915081905092915050565b6000613b5582612bb3565b9150613b6083612bb3565b9250828202613b6e81612bb3565b91508282048414831517613b8557613b84613a39565b5b5092915050565b7f4e487b7100000000000000000000000000000000000000000000000000000000600052603260045260246000fdfe64757269616e2064616d6167656420706c656173652073656c65637420616e6f746865722064757269616ea2646970667358221220f8183aa5bfb9d71c4a150b0568835db43b4adcdccaa1c167e3cac4b88f8faa4f64736f6c63430008120033",
					"opcodes": "PUSH1 0x80 PUSH1 0x40 MSTORE PUSH1 0x40 MLOAD DUP1 PUSH1 0xC0 ADD PUSH1 0x40 MSTORE DUP1 PUSH1 0x40 MLOAD DUP1 PUSH1 0x40 ADD PUSH1 0x40 MSTORE DUP1 PUSH1 0x7 DUP2 MSTORE PUSH1 0x20 ADD PUSH32 0x64656661756C7400000000000000000000000000000000000000000000000000 DUP2 MSTORE POP DUP2 MSTORE PUSH1 0x20 ADD PUSH1 0x40 MLOAD DUP1 PUSH1 0x40 ADD PUSH1 0x40 MSTORE DUP1 PUSH1 0x7 DUP2 MSTORE PUSH1 0x20 ADD PUSH32 0x64656661756C7400000000000000000000000000000000000000000000000000 DUP2 MSTORE POP DUP2 MSTORE PUSH1 0x20 ADD PUSH1 0x2 PUSH1 0x4 DUP2 GT ISZERO PUSH3 0x9C JUMPI PUSH3 0x9B PUSH3 0x247 JUMP JUMPDEST JUMPDEST DUP2 MSTORE PUSH1 0x20 ADD PUSH1 0x2 PUSH1 0x4 DUP2 GT ISZERO PUSH3 0xB8 JUMPI PUSH3 0xB7 PUSH3 0x247 JUMP JUMPDEST JUMPDEST DUP2 MSTORE PUSH1 0x20 ADD PUSH1 0x2 PUSH1 0x4 DUP2 GT ISZERO PUSH3 0xD4 JUMPI PUSH3 0xD3 PUSH3 0x247 JUMP JUMPDEST JUMPDEST DUP2 MSTORE PUSH1 0x20 ADD PUSH1 0x2 PUSH1 0x4 DUP2 GT ISZERO PUSH3 0xF0 JUMPI PUSH3 0xEF PUSH3 0x247 JUMP JUMPDEST JUMPDEST DUP2 MSTORE POP PUSH1 0x5 PUSH1 0x0 DUP3 ADD MLOAD DUP2 PUSH1 0x0 ADD SWAP1 DUP2 PUSH3 0x10C SWAP2 SWAP1 PUSH3 0x4F0 JUMP JUMPDEST POP PUSH1 0x20 DUP3 ADD MLOAD DUP2 PUSH1 0x1 ADD SWAP1 DUP2 PUSH3 0x124 SWAP2 SWAP1 PUSH3 0x4F0 JUMP JUMPDEST POP PUSH1 0x40 DUP3 ADD MLOAD DUP2 PUSH1 0x2 ADD PUSH1 0x0 PUSH2 0x100 EXP DUP2 SLOAD DUP2 PUSH1 0xFF MUL NOT AND SWAP1 DUP4 PUSH1 0x4 DUP2 GT ISZERO PUSH3 0x153 JUMPI PUSH3 0x152 PUSH3 0x247 JUMP JUMPDEST JUMPDEST MUL OR SWAP1 SSTORE POP PUSH1 0x60 DUP3 ADD MLOAD DUP2 PUSH1 0x2 ADD PUSH1 0x1 PUSH2 0x100 EXP DUP2 SLOAD DUP2 PUSH1 0xFF MUL NOT AND SWAP1 DUP4 PUSH1 0x4 DUP2 GT ISZERO PUSH3 0x186 JUMPI PUSH3 0x185 PUSH3 0x247 JUMP JUMPDEST JUMPDEST MUL OR SWAP1 SSTORE POP PUSH1 0x80 DUP3 ADD MLOAD DUP2 PUSH1 0x2 ADD PUSH1 0x2 PUSH2 0x100 EXP DUP2 SLOAD DUP2 PUSH1 0xFF MUL NOT AND SWAP1 DUP4 PUSH1 0x4 DUP2 GT ISZERO PUSH3 0x1B9 JUMPI PUSH3 0x1B8 PUSH3 0x247 JUMP JUMPDEST JUMPDEST MUL OR SWAP1 SSTORE POP PUSH1 0xA0 DUP3 ADD MLOAD DUP2 PUSH1 0x2 ADD PUSH1 0x3 PUSH2 0x100 EXP DUP2 SLOAD DUP2 PUSH1 0xFF MUL NOT AND SWAP1 DUP4 PUSH1 0x4 DUP2 GT ISZERO PUSH3 0x1EC JUMPI PUSH3 0x1EB PUSH3 0x247 JUMP JUMPDEST JUMPDEST MUL OR SWAP1 SSTORE POP POP POP CALLVALUE DUP1 ISZERO PUSH3 0x200 JUMPI PUSH1 0x0 DUP1 REVERT JUMPDEST POP CALLER PUSH1 0x0 DUP1 PUSH2 0x100 EXP DUP2 SLOAD DUP2 PUSH20 0xFFFFFFFFFFFFFFFFFFFFFFFFFFFFFFFFFFFFFFFF MUL NOT AND SWAP1 DUP4 PUSH20 0xFFFFFFFFFFFFFFFFFFFFFFFFFFFFFFFFFFFFFFFF AND MUL OR SWAP1 SSTORE POP PUSH3 0x5D7 JUMP JUMPDEST PUSH32 0x4E487B7100000000000000000000000000000000000000000000000000000000 PUSH1 0x0 MSTORE PUSH1 0x21 PUSH1 0x4 MSTORE PUSH1 0x24 PUSH1 0x0 REVERT JUMPDEST PUSH1 0x0 DUP2 MLOAD SWAP1 POP SWAP2 SWAP1 POP JUMP JUMPDEST PUSH32 0x4E487B7100000000000000000000000000000000000000000000000000000000 PUSH1 0x0 MSTORE PUSH1 0x41 PUSH1 0x4 MSTORE PUSH1 0x24 PUSH1 0x0 REVERT JUMPDEST PUSH32 0x4E487B7100000000000000000000000000000000000000000000000000000000 PUSH1 0x0 MSTORE PUSH1 0x22 PUSH1 0x4 MSTORE PUSH1 0x24 PUSH1 0x0 REVERT JUMPDEST PUSH1 0x0 PUSH1 0x2 DUP3 DIV SWAP1 POP PUSH1 0x1 DUP3 AND DUP1 PUSH3 0x2F8 JUMPI PUSH1 0x7F DUP3 AND SWAP2 POP JUMPDEST PUSH1 0x20 DUP3 LT DUP2 SUB PUSH3 0x30E JUMPI PUSH3 0x30D PUSH3 0x2B0 JUMP JUMPDEST JUMPDEST POP SWAP2 SWAP1 POP JUMP JUMPDEST PUSH1 0x0 DUP2 SWAP1 POP DUP2 PUSH1 0x0 MSTORE PUSH1 0x20 PUSH1 0x0 KECCAK256 SWAP1 POP SWAP2 SWAP1 POP JUMP JUMPDEST PUSH1 0x0 PUSH1 0x20 PUSH1 0x1F DUP4 ADD DIV SWAP1 POP SWAP2 SWAP1 POP JUMP JUMPDEST PUSH1 0x0 DUP3 DUP3 SHL SWAP1 POP SWAP3 SWAP2 POP POP JUMP JUMPDEST PUSH1 0x0 PUSH1 0x8 DUP4 MUL PUSH3 0x378 PUSH32 0xFFFFFFFFFFFFFFFFFFFFFFFFFFFFFFFFFFFFFFFFFFFFFFFFFFFFFFFFFFFFFFFF DUP3 PUSH3 0x339 JUMP JUMPDEST PUSH3 0x384 DUP7 DUP4 PUSH3 0x339 JUMP JUMPDEST SWAP6 POP DUP1 NOT DUP5 AND SWAP4 POP DUP1 DUP7 AND DUP5 OR SWAP3 POP POP POP SWAP4 SWAP3 POP POP POP JUMP JUMPDEST PUSH1 0x0 DUP2 SWAP1 POP SWAP2 SWAP1 POP JUMP JUMPDEST PUSH1 0x0 DUP2 SWAP1 POP SWAP2 SWAP1 POP JUMP JUMPDEST PUSH1 0x0 PUSH3 0x3D1 PUSH3 0x3CB PUSH3 0x3C5 DUP5 PUSH3 0x39C JUMP JUMPDEST PUSH3 0x3A6 JUMP JUMPDEST PUSH3 0x39C JUMP JUMPDEST SWAP1 POP SWAP2 SWAP1 POP JUMP JUMPDEST PUSH1 0x0 DUP2 SWAP1 POP SWAP2 SWAP1 POP JUMP JUMPDEST PUSH3 0x3ED DUP4 PUSH3 0x3B0 JUMP JUMPDEST PUSH3 0x405 PUSH3 0x3FC DUP3 PUSH3 0x3D8 JUMP JUMPDEST DUP5 DUP5 SLOAD PUSH3 0x346 JUMP JUMPDEST DUP3 SSTORE POP POP POP POP JUMP JUMPDEST PUSH1 0x0 SWAP1 JUMP JUMPDEST PUSH3 0x41C PUSH3 0x40D JUMP JUMPDEST PUSH3 0x429 DUP2 DUP5 DUP5 PUSH3 0x3E2 JUMP JUMPDEST POP POP POP JUMP JUMPDEST JUMPDEST DUP2 DUP2 LT ISZERO PUSH3 0x451 JUMPI PUSH3 0x445 PUSH1 0x0 DUP3 PUSH3 0x412 JUMP JUMPDEST PUSH1 0x1 DUP2 ADD SWAP1 POP PUSH3 0x42F JUMP JUMPDEST POP POP JUMP JUMPDEST PUSH1 0x1F DUP3 GT ISZERO PUSH3 0x4A0 JUMPI PUSH3 0x46A DUP2 PUSH3 0x314 JUMP JUMPDEST PUSH3 0x475 DUP5 PUSH3 0x329 JUMP JUMPDEST DUP2 ADD PUSH1 0x20 DUP6 LT ISZERO PUSH3 0x485 JUMPI DUP2 SWAP1 POP JUMPDEST PUSH3 0x49D PUSH3 0x494 DUP6 PUSH3 0x329 JUMP JUMPDEST DUP4 ADD DUP3 PUSH3 0x42E JUMP JUMPDEST POP POP JUMPDEST POP POP POP JUMP JUMPDEST PUSH1 0x0 DUP3 DUP3 SHR SWAP1 POP SWAP3 SWAP2 POP POP JUMP JUMPDEST PUSH1 0x0 PUSH3 0x4C5 PUSH1 0x0 NOT DUP5 PUSH1 0x8 MUL PUSH3 0x4A5 JUMP JUMPDEST NOT DUP1 DUP4 AND SWAP2 POP POP SWAP3 SWAP2 POP POP JUMP JUMPDEST PUSH1 0x0 PUSH3 0x4E0 DUP4 DUP4 PUSH3 0x4B2 JUMP JUMPDEST SWAP2 POP DUP3 PUSH1 0x2 MUL DUP3 OR SWAP1 POP SWAP3 SWAP2 POP POP JUMP JUMPDEST PUSH3 0x4FB DUP3 PUSH3 0x276 JUMP JUMPDEST PUSH8 0xFFFFFFFFFFFFFFFF DUP2 GT ISZERO PUSH3 0x517 JUMPI PUSH3 0x516 PUSH3 0x281 JUMP JUMPDEST JUMPDEST PUSH3 0x523 DUP3 SLOAD PUSH3 0x2DF JUMP JUMPDEST PUSH3 0x530 DUP3 DUP3 DUP6 PUSH3 0x455 JUMP JUMPDEST PUSH1 0x0 PUSH1 0x20 SWAP1 POP PUSH1 0x1F DUP4 GT PUSH1 0x1 DUP2 EQ PUSH3 0x568 JUMPI PUSH1 0x0 DUP5 ISZERO PUSH3 0x553 JUMPI DUP3 DUP8 ADD MLOAD SWAP1 POP JUMPDEST PUSH3 0x55F DUP6 DUP3 PUSH3 0x4D2 JUMP JUMPDEST DUP7 SSTORE POP PUSH3 0x5CF JUMP JUMPDEST PUSH1 0x1F NOT DUP5 AND PUSH3 0x578 DUP7 PUSH3 0x314 JUMP JUMPDEST PUSH1 0x0 JUMPDEST DUP3 DUP2 LT ISZERO PUSH3 0x5A2 JUMPI DUP5 DUP10 ADD MLOAD DUP3 SSTORE PUSH1 0x1 DUP3 ADD SWAP2 POP PUSH1 0x20 DUP6 ADD SWAP5 POP PUSH1 0x20 DUP2 ADD SWAP1 POP PUSH3 0x57B JUMP JUMPDEST DUP7 DUP4 LT ISZERO PUSH3 0x5C2 JUMPI DUP5 DUP10 ADD MLOAD PUSH3 0x5BE PUSH1 0x1F DUP10 AND DUP3 PUSH3 0x4B2 JUMP JUMPDEST DUP4 SSTORE POP JUMPDEST PUSH1 0x1 PUSH1 0x2 DUP9 MUL ADD DUP9 SSTORE POP POP POP JUMPDEST POP POP POP POP POP POP JUMP JUMPDEST PUSH2 0x3C1C DUP1 PUSH3 0x5E7 PUSH1 0x0 CODECOPY PUSH1 0x0 RETURN INVALID PUSH1 0x80 PUSH1 0x40 MSTORE PUSH1 0x4 CALLDATASIZE LT PUSH2 0xFE JUMPI PUSH1 0x0 CALLDATALOAD PUSH1 0xE0 SHR DUP1 PUSH4 0x5A375258 GT PUSH2 0x95 JUMPI DUP1 PUSH4 0xCD3D46FC GT PUSH2 0x64 JUMPI DUP1 PUSH4 0xCD3D46FC EQ PUSH2 0x35D JUMPI DUP1 PUSH4 0xD66D2A57 EQ PUSH2 0x39A JUMPI DUP1 PUSH4 0xEA3E7373 EQ PUSH2 0x3C5 JUMPI DUP1 PUSH4 0xEEB3DE73 EQ PUSH2 0x402 JUMPI DUP1 PUSH4 0xF1A40B6B EQ PUSH2 0x42B JUMPI PUSH2 0xFE JUMP JUMPDEST DUP1 PUSH4 0x5A375258 EQ PUSH2 0x277 JUMPI DUP1 PUSH4 0x7FA9571F EQ PUSH2 0x2B4 JUMPI DUP1 PUSH4 0x9D9FABDA EQ PUSH2 0x2DF JUMPI DUP1 PUSH4 0xB7EE0ADC EQ PUSH2 0x31D JUMPI PUSH2 0xFE JUMP JUMPDEST DUP1 PUSH4 0x217A8432 GT PUSH2 0xD1 JUMPI DUP1 PUSH4 0x217A8432 EQ PUSH2 0x1CF JUMPI DUP1 PUSH4 0x2966B29B EQ PUSH2 0x1F8 JUMPI DUP1 PUSH4 0x38DDA849 EQ PUSH2 0x223 JUMPI DUP1 PUSH4 0x45C68090 EQ PUSH2 0x24E JUMPI PUSH2 0xFE JUMP JUMPDEST DUP1 PUSH4 0xC8299F3 EQ PUSH2 0x103 JUMPI DUP1 PUSH4 0xFD60125 EQ PUSH2 0x12C JUMPI DUP1 PUSH4 0x1DD51307 EQ PUSH2 0x157 JUMPI DUP1 PUSH4 0x1F310165 EQ PUSH2 0x19F JUMPI JUMPDEST PUSH1 0x0 DUP1 REVERT JUMPDEST CALLVALUE DUP1 ISZERO PUSH2 0x10F JUMPI PUSH1 0x0 DUP1 REVERT JUMPDEST POP PUSH2 0x12A PUSH1 0x4 DUP1 CALLDATASIZE SUB DUP2 ADD SWAP1 PUSH2 0x125 SWAP2 SWAP1 PUSH2 0x2BE9 JUMP JUMPDEST PUSH2 0x456 JUMP JUMPDEST STOP JUMPDEST CALLVALUE DUP1 ISZERO PUSH2 0x138 JUMPI PUSH1 0x0 DUP1 REVERT JUMPDEST POP PUSH2 0x141 PUSH2 0x630 JUMP JUMPDEST PUSH1 0x40 MLOAD PUSH2 0x14E SWAP2 SWAP1 PUSH2 0x2C54 JUMP JUMPDEST PUSH1 0x40 MLOAD DUP1 SWAP2 SUB SWAP1 RETURN JUMPDEST CALLVALUE DUP1 ISZERO PUSH2 0x163 JUMPI PUSH1 0x0 DUP1 REVERT JUMPDEST POP PUSH2 0x17E PUSH1 0x4 DUP1 CALLDATASIZE SUB DUP2 ADD SWAP1 PUSH2 0x179 SWAP2 SWAP1 PUSH2 0x2C6F JUMP JUMPDEST PUSH2 0x636 JUMP JUMPDEST PUSH1 0x40 MLOAD PUSH2 0x196 SWAP13 SWAP12 SWAP11 SWAP10 SWAP9 SWAP8 SWAP7 SWAP6 SWAP5 SWAP4 SWAP3 SWAP2 SWAP1 PUSH2 0x2EE4 JUMP JUMPDEST PUSH1 0x40 MLOAD DUP1 SWAP2 SUB SWAP1 RETURN JUMPDEST PUSH2 0x1B9 PUSH1 0x4 DUP1 CALLDATASIZE SUB DUP2 ADD SWAP1 PUSH2 0x1B4 SWAP2 SWAP1 PUSH2 0x2FED JUMP JUMPDEST PUSH2 0xB33 JUMP JUMPDEST PUSH1 0x40 MLOAD PUSH2 0x1C6 SWAP2 SWAP1 PUSH2 0x3049 JUMP JUMPDEST PUSH1 0x40 MLOAD DUP1 SWAP2 SUB SWAP1 RETURN JUMPDEST CALLVALUE DUP1 ISZERO PUSH2 0x1DB JUMPI PUSH1 0x0 DUP1 REVERT JUMPDEST POP PUSH2 0x1F6 PUSH1 0x4 DUP1 CALLDATASIZE SUB DUP2 ADD SWAP1 PUSH2 0x1F1 SWAP2 SWAP1 PUSH2 0x306B JUMP JUMPDEST PUSH2 0xE28 JUMP JUMPDEST STOP JUMPDEST CALLVALUE DUP1 ISZERO PUSH2 0x204 JUMPI PUSH1 0x0 DUP1 REVERT JUMPDEST POP PUSH2 0x20D PUSH2 0x1521 JUMP JUMPDEST PUSH1 0x40 MLOAD PUSH2 0x21A SWAP2 SWAP1 PUSH2 0x3151 JUMP JUMPDEST PUSH1 0x40 MLOAD DUP1 SWAP2 SUB SWAP1 RETURN JUMPDEST CALLVALUE DUP1 ISZERO PUSH2 0x22F JUMPI PUSH1 0x0 DUP1 REVERT JUMPDEST POP PUSH2 0x238 PUSH2 0x1545 JUMP JUMPDEST PUSH1 0x40 MLOAD PUSH2 0x245 SWAP2 SWAP1 PUSH2 0x2C54 JUMP JUMPDEST PUSH1 0x40 MLOAD DUP1 SWAP2 SUB SWAP1 RETURN JUMPDEST CALLVALUE DUP1 ISZERO PUSH2 0x25A JUMPI PUSH1 0x0 DUP1 REVERT JUMPDEST POP PUSH2 0x275 PUSH1 0x4 DUP1 CALLDATASIZE SUB DUP2 ADD SWAP1 PUSH2 0x270 SWAP2 SWAP1 PUSH2 0x3222 JUMP JUMPDEST PUSH2 0x154B JUMP JUMPDEST STOP JUMPDEST CALLVALUE DUP1 ISZERO PUSH2 0x283 JUMPI PUSH1 0x0 DUP1 REVERT JUMPDEST POP PUSH2 0x29E PUSH1 0x4 DUP1 CALLDATASIZE SUB DUP2 ADD SWAP1 PUSH2 0x299 SWAP2 SWAP1 PUSH2 0x2C6F JUMP JUMPDEST PUSH2 0x17CB JUMP JUMPDEST PUSH1 0x40 MLOAD PUSH2 0x2AB SWAP2 SWAP1 PUSH2 0x34BA JUMP JUMPDEST PUSH1 0x40 MLOAD DUP1 SWAP2 SUB SWAP1 RETURN JUMPDEST CALLVALUE DUP1 ISZERO PUSH2 0x2C0 JUMPI PUSH1 0x0 DUP1 REVERT JUMPDEST POP PUSH2 0x2C9 PUSH2 0x1D5F JUMP JUMPDEST PUSH1 0x40 MLOAD PUSH2 0x2D6 SWAP2 SWAP1 PUSH2 0x2C54 JUMP JUMPDEST PUSH1 0x40 MLOAD DUP1 SWAP2 SUB SWAP1 RETURN JUMPDEST CALLVALUE DUP1 ISZERO PUSH2 0x2EB JUMPI PUSH1 0x0 DUP1 REVERT JUMPDEST POP PUSH2 0x306 PUSH1 0x4 DUP1 CALLDATASIZE SUB DUP2 ADD SWAP1 PUSH2 0x301 SWAP2 SWAP1 PUSH2 0x2C6F JUMP JUMPDEST PUSH2 0x1D69 JUMP JUMPDEST PUSH1 0x40 MLOAD PUSH2 0x314 SWAP3 SWAP2 SWAP1 PUSH2 0x34DC JUMP JUMPDEST PUSH1 0x40 MLOAD DUP1 SWAP2 SUB SWAP1 RETURN JUMPDEST CALLVALUE DUP1 ISZERO PUSH2 0x329 JUMPI PUSH1 0x0 DUP1 REVERT JUMPDEST POP PUSH2 0x344 PUSH1 0x4 DUP1 CALLDATASIZE SUB DUP2 ADD SWAP1 PUSH2 0x33F SWAP2 SWAP1 PUSH2 0x350C JUMP JUMPDEST PUSH2 0x1E2B JUMP JUMPDEST PUSH1 0x40 MLOAD PUSH2 0x354 SWAP5 SWAP4 SWAP3 SWAP2 SWAP1 PUSH2 0x3539 JUMP JUMPDEST PUSH1 0x40 MLOAD DUP1 SWAP2 SUB SWAP1 RETURN JUMPDEST CALLVALUE DUP1 ISZERO PUSH2 0x369 JUMPI PUSH1 0x0 DUP1 REVERT JUMPDEST POP PUSH2 0x384 PUSH1 0x4 DUP1 CALLDATASIZE SUB DUP2 ADD SWAP1 PUSH2 0x37F SWAP2 SWAP1 PUSH2 0x358C JUMP JUMPDEST PUSH2 0x1F8B JUMP JUMPDEST PUSH1 0x40 MLOAD PUSH2 0x391 SWAP2 SWAP1 PUSH2 0x3633 JUMP JUMPDEST PUSH1 0x40 MLOAD DUP1 SWAP2 SUB SWAP1 RETURN JUMPDEST CALLVALUE DUP1 ISZERO PUSH2 0x3A6 JUMPI PUSH1 0x0 DUP1 REVERT JUMPDEST POP PUSH2 0x3AF PUSH2 0x233B JUMP JUMPDEST PUSH1 0x40 MLOAD PUSH2 0x3BC SWAP2 SWAP1 PUSH2 0x364E JUMP JUMPDEST PUSH1 0x40 MLOAD DUP1 SWAP2 SUB SWAP1 RETURN JUMPDEST CALLVALUE DUP1 ISZERO PUSH2 0x3D1 JUMPI PUSH1 0x0 DUP1 REVERT JUMPDEST POP PUSH2 0x3EC PUSH1 0x4 DUP1 CALLDATASIZE SUB DUP2 ADD SWAP1 PUSH2 0x3E7 SWAP2 SWAP1 PUSH2 0x358C JUMP JUMPDEST PUSH2 0x2364 JUMP JUMPDEST PUSH1 0x40 MLOAD PUSH2 0x3F9 SWAP2 SWAP1 PUSH2 0x3633 JUMP JUMPDEST PUSH1 0x40 MLOAD DUP1 SWAP2 SUB SWAP1 RETURN JUMPDEST CALLVALUE DUP1 ISZERO PUSH2 0x40E JUMPI PUSH1 0x0 DUP1 REVERT JUMPDEST POP PUSH2 0x429 PUSH1 0x4 DUP1 CALLDATASIZE SUB DUP2 ADD SWAP1 PUSH2 0x424 SWAP2 SWAP1 PUSH2 0x3669 JUMP JUMPDEST PUSH2 0x2714 JUMP JUMPDEST STOP JUMPDEST CALLVALUE DUP1 ISZERO PUSH2 0x437 JUMPI PUSH1 0x0 DUP1 REVERT JUMPDEST POP PUSH2 0x440 PUSH2 0x2882 JUMP JUMPDEST PUSH1 0x40 MLOAD PUSH2 0x44D SWAP2 SWAP1 PUSH2 0x2C54 JUMP JUMPDEST PUSH1 0x40 MLOAD DUP1 SWAP2 SUB SWAP1 RETURN JUMPDEST PUSH2 0x55F PUSH1 0x3 PUSH1 0x0 CALLER PUSH20 0xFFFFFFFFFFFFFFFFFFFFFFFFFFFFFFFFFFFFFFFF AND PUSH20 0xFFFFFFFFFFFFFFFFFFFFFFFFFFFFFFFFFFFFFFFF AND DUP2 MSTORE PUSH1 0x20 ADD SWAP1 DUP2 MSTORE PUSH1 0x20 ADD PUSH1 0x0 KECCAK256 PUSH1 0x3 ADD DUP1 SLOAD PUSH2 0x4A6 SWAP1 PUSH2 0x3737 JUMP JUMPDEST DUP1 PUSH1 0x1F ADD PUSH1 0x20 DUP1 SWAP2 DIV MUL PUSH1 0x20 ADD PUSH1 0x40 MLOAD SWAP1 DUP2 ADD PUSH1 0x40 MSTORE DUP1 SWAP3 SWAP2 SWAP1 DUP2 DUP2 MSTORE PUSH1 0x20 ADD DUP3 DUP1 SLOAD PUSH2 0x4D2 SWAP1 PUSH2 0x3737 JUMP JUMPDEST DUP1 ISZERO PUSH2 0x51F JUMPI DUP1 PUSH1 0x1F LT PUSH2 0x4F4 JUMPI PUSH2 0x100 DUP1 DUP4 SLOAD DIV MUL DUP4 MSTORE SWAP2 PUSH1 0x20 ADD SWAP2 PUSH2 0x51F JUMP JUMPDEST DUP3 ADD SWAP2 SWAP1 PUSH1 0x0 MSTORE PUSH1 0x20 PUSH1 0x0 KECCAK256 SWAP1 JUMPDEST DUP2 SLOAD DUP2 MSTORE SWAP1 PUSH1 0x1 ADD SWAP1 PUSH1 0x20 ADD DUP1 DUP4 GT PUSH2 0x502 JUMPI DUP3 SWAP1 SUB PUSH1 0x1F AND DUP3 ADD SWAP2 JUMPDEST POP POP POP POP POP PUSH1 0x40 MLOAD DUP1 PUSH1 0x40 ADD PUSH1 0x40 MSTORE DUP1 PUSH1 0xB DUP2 MSTORE PUSH1 0x20 ADD PUSH32 0x4661726D20576F726B6572000000000000000000000000000000000000000000 DUP2 MSTORE POP PUSH2 0x288C JUMP JUMPDEST DUP1 PUSH2 0x5B5 JUMPI POP PUSH1 0x0 DUP1 SLOAD SWAP1 PUSH2 0x100 EXP SWAP1 DIV PUSH20 0xFFFFFFFFFFFFFFFFFFFFFFFFFFFFFFFFFFFFFFFF AND PUSH20 0xFFFFFFFFFFFFFFFFFFFFFFFFFFFFFFFFFFFFFFFF AND CALLER PUSH20 0xFFFFFFFFFFFFFFFFFFFFFFFFFFFFFFFFFFFFFFFF AND EQ JUMPDEST PUSH2 0x5BE JUMPI PUSH1 0x0 DUP1 REVERT JUMPDEST PUSH1 0x40 MLOAD DUP1 PUSH1 0x40 ADD PUSH1 0x40 MSTORE DUP1 DUP4 DUP2 MSTORE PUSH1 0x20 ADD DUP3 DUP2 MSTORE POP PUSH1 0x8 DUP4 PUSH1 0x40 MLOAD PUSH2 0x5E3 SWAP2 SWAP1 PUSH2 0x37A4 JUMP JUMPDEST SWAP1 DUP2 MSTORE PUSH1 0x20 ADD PUSH1 0x40 MLOAD DUP1 SWAP2 SUB SWAP1 KECCAK256 PUSH1 0x0 DUP3 ADD MLOAD DUP2 PUSH1 0x0 ADD SWAP1 DUP2 PUSH2 0x606 SWAP2 SWAP1 PUSH2 0x3967 JUMP JUMPDEST POP PUSH1 0x20 DUP3 ADD MLOAD DUP2 PUSH1 0x1 ADD SSTORE SWAP1 POP POP PUSH1 0x1 PUSH1 0x0 DUP2 SLOAD DUP1 SWAP3 SWAP2 SWAP1 PUSH2 0x627 SWAP1 PUSH2 0x3A68 JUMP JUMPDEST SWAP2 SWAP1 POP SSTORE POP POP POP JUMP JUMPDEST PUSH1 0x1 SLOAD DUP2 JUMP JUMPDEST PUSH1 0x4 DUP2 DUP1 MLOAD PUSH1 0x20 DUP2 ADD DUP3 ADD DUP1 MLOAD DUP5 DUP3 MSTORE PUSH1 0x20 DUP4 ADD PUSH1 0x20 DUP6 ADD KECCAK256 DUP2 DUP4 MSTORE DUP1 SWAP6 POP POP POP POP POP POP PUSH1 0x0 SWAP2 POP SWAP1 POP DUP1 PUSH1 0x0 ADD DUP1 SLOAD PUSH2 0x66F SWAP1 PUSH2 0x3737 JUMP JUMPDEST DUP1 PUSH1 0x1F ADD PUSH1 0x20 DUP1 SWAP2 DIV MUL PUSH1 0x20 ADD PUSH1 0x40 MLOAD SWAP1 DUP2 ADD PUSH1 0x40 MSTORE DUP1 SWAP3 SWAP2 SWAP1 DUP2 DUP2 MSTORE PUSH1 0x20 ADD DUP3 DUP1 SLOAD PUSH2 0x69B SWAP1 PUSH2 0x3737 JUMP JUMPDEST DUP1 ISZERO PUSH2 0x6E8 JUMPI DUP1 PUSH1 0x1F LT PUSH2 0x6BD JUMPI PUSH2 0x100 DUP1 DUP4 SLOAD DIV MUL DUP4 MSTORE SWAP2 PUSH1 0x20 ADD SWAP2 PUSH2 0x6E8 JUMP JUMPDEST DUP3 ADD SWAP2 SWAP1 PUSH1 0x0 MSTORE PUSH1 0x20 PUSH1 0x0 KECCAK256 SWAP1 JUMPDEST DUP2 SLOAD DUP2 MSTORE SWAP1 PUSH1 0x1 ADD SWAP1 PUSH1 0x20 ADD DUP1 DUP4 GT PUSH2 0x6CB JUMPI DUP3 SWAP1 SUB PUSH1 0x1F AND DUP3 ADD SWAP2 JUMPDEST POP POP POP POP POP SWAP1 DUP1 PUSH1 0x1 ADD DUP1 SLOAD PUSH2 0x6FD SWAP1 PUSH2 0x3737 JUMP JUMPDEST DUP1 PUSH1 0x1F ADD PUSH1 0x20 DUP1 SWAP2 DIV MUL PUSH1 0x20 ADD PUSH1 0x40 MLOAD SWAP1 DUP2 ADD PUSH1 0x40 MSTORE DUP1 SWAP3 SWAP2 SWAP1 DUP2 DUP2 MSTORE PUSH1 0x20 ADD DUP3 DUP1 SLOAD PUSH2 0x729 SWAP1 PUSH2 0x3737 JUMP JUMPDEST DUP1 ISZERO PUSH2 0x776 JUMPI DUP1 PUSH1 0x1F LT PUSH2 0x74B JUMPI PUSH2 0x100 DUP1 DUP4 SLOAD DIV MUL DUP4 MSTORE SWAP2 PUSH1 0x20 ADD SWAP2 PUSH2 0x776 JUMP JUMPDEST DUP3 ADD SWAP2 SWAP1 PUSH1 0x0 MSTORE PUSH1 0x20 PUSH1 0x0 KECCAK256 SWAP1 JUMPDEST DUP2 SLOAD DUP2 MSTORE SWAP1 PUSH1 0x1 ADD SWAP1 PUSH1 0x20 ADD DUP1 DUP4 GT PUSH2 0x759 JUMPI DUP3 SWAP1 SUB PUSH1 0x1F AND DUP3 ADD SWAP2 JUMPDEST POP POP POP POP POP SWAP1 DUP1 PUSH1 0x2 ADD SLOAD SWAP1 DUP1 PUSH1 0x3 ADD SLOAD SWAP1 DUP1 PUSH1 0x4 ADD PUSH1 0x0 SWAP1 SLOAD SWAP1 PUSH2 0x100 EXP SWAP1 DIV PUSH20 0xFFFFFFFFFFFFFFFFFFFFFFFFFFFFFFFFFFFFFFFF AND SWAP1 DUP1 PUSH1 0x5 ADD SLOAD SWAP1 DUP1 PUSH1 0x6 ADD SLOAD SWAP1 DUP1 PUSH1 0x7 ADD PUSH1 0x0 SWAP1 SLOAD SWAP1 PUSH2 0x100 EXP SWAP1 DIV PUSH20 0xFFFFFFFFFFFFFFFFFFFFFFFFFFFFFFFFFFFFFFFF AND SWAP1 DUP1 PUSH1 0x8 ADD PUSH1 0x40 MLOAD DUP1 PUSH1 0xC0 ADD PUSH1 0x40 MSTORE SWAP1 DUP2 PUSH1 0x0 DUP3 ADD DUP1 SLOAD PUSH2 0x7FF SWAP1 PUSH2 0x3737 JUMP JUMPDEST DUP1 PUSH1 0x1F ADD PUSH1 0x20 DUP1 SWAP2 DIV MUL PUSH1 0x20 ADD PUSH1 0x40 MLOAD SWAP1 DUP2 ADD PUSH1 0x40 MSTORE DUP1 SWAP3 SWAP2 SWAP1 DUP2 DUP2 MSTORE PUSH1 0x20 ADD DUP3 DUP1 SLOAD PUSH2 0x82B SWAP1 PUSH2 0x3737 JUMP JUMPDEST DUP1 ISZERO PUSH2 0x878 JUMPI DUP1 PUSH1 0x1F LT PUSH2 0x84D JUMPI PUSH2 0x100 DUP1 DUP4 SLOAD DIV MUL DUP4 MSTORE SWAP2 PUSH1 0x20 ADD SWAP2 PUSH2 0x878 JUMP JUMPDEST DUP3 ADD SWAP2 SWAP1 PUSH1 0x0 MSTORE PUSH1 0x20 PUSH1 0x0 KECCAK256 SWAP1 JUMPDEST DUP2 SLOAD DUP2 MSTORE SWAP1 PUSH1 0x1 ADD SWAP1 PUSH1 0x20 ADD DUP1 DUP4 GT PUSH2 0x85B JUMPI DUP3 SWAP1 SUB PUSH1 0x1F AND DUP3 ADD SWAP2 JUMPDEST POP POP POP POP POP DUP2 MSTORE PUSH1 0x20 ADD PUSH1 0x1 DUP3 ADD DUP1 SLOAD PUSH2 0x891 SWAP1 PUSH2 0x3737 JUMP JUMPDEST DUP1 PUSH1 0x1F ADD PUSH1 0x20 DUP1 SWAP2 DIV MUL PUSH1 0x20 ADD PUSH1 0x40 MLOAD SWAP1 DUP2 ADD PUSH1 0x40 MSTORE DUP1 SWAP3 SWAP2 SWAP1 DUP2 DUP2 MSTORE PUSH1 0x20 ADD DUP3 DUP1 SLOAD PUSH2 0x8BD SWAP1 PUSH2 0x3737 JUMP JUMPDEST DUP1 ISZERO PUSH2 0x90A JUMPI DUP1 PUSH1 0x1F LT PUSH2 0x8DF JUMPI PUSH2 0x100 DUP1 DUP4 SLOAD DIV MUL DUP4 MSTORE SWAP2 PUSH1 0x20 ADD SWAP2 PUSH2 0x90A JUMP JUMPDEST DUP3 ADD SWAP2 SWAP1 PUSH1 0x0 MSTORE PUSH1 0x20 PUSH1 0x0 KECCAK256 SWAP1 JUMPDEST DUP2 SLOAD DUP2 MSTORE SWAP1 PUSH1 0x1 ADD SWAP1 PUSH1 0x20 ADD DUP1 DUP4 GT PUSH2 0x8ED JUMPI DUP3 SWAP1 SUB PUSH1 0x1F AND DUP3 ADD SWAP2 JUMPDEST POP POP POP POP POP DUP2 MSTORE PUSH1 0x20 ADD PUSH1 0x2 DUP3 ADD PUSH1 0x0 SWAP1 SLOAD SWAP1 PUSH2 0x100 EXP SWAP1 DIV PUSH1 0xFF AND PUSH1 0x4 DUP2 GT ISZERO PUSH2 0x938 JUMPI PUSH2 0x937 PUSH2 0x2DC2 JUMP JUMPDEST JUMPDEST PUSH1 0x4 DUP2 GT ISZERO PUSH2 0x94A JUMPI PUSH2 0x949 PUSH2 0x2DC2 JUMP JUMPDEST JUMPDEST DUP2 MSTORE PUSH1 0x20 ADD PUSH1 0x2 DUP3 ADD PUSH1 0x1 SWAP1 SLOAD SWAP1 PUSH2 0x100 EXP SWAP1 DIV PUSH1 0xFF AND PUSH1 0x4 DUP2 GT ISZERO PUSH2 0x973 JUMPI PUSH2 0x972 PUSH2 0x2DC2 JUMP JUMPDEST JUMPDEST PUSH1 0x4 DUP2 GT ISZERO PUSH2 0x985 JUMPI PUSH2 0x984 PUSH2 0x2DC2 JUMP JUMPDEST JUMPDEST DUP2 MSTORE PUSH1 0x20 ADD PUSH1 0x2 DUP3 ADD PUSH1 0x2 SWAP1 SLOAD SWAP1 PUSH2 0x100 EXP SWAP1 DIV PUSH1 0xFF AND PUSH1 0x4 DUP2 GT ISZERO PUSH2 0x9AE JUMPI PUSH2 0x9AD PUSH2 0x2DC2 JUMP JUMPDEST JUMPDEST PUSH1 0x4 DUP2 GT ISZERO PUSH2 0x9C0 JUMPI PUSH2 0x9BF PUSH2 0x2DC2 JUMP JUMPDEST JUMPDEST DUP2 MSTORE PUSH1 0x20 ADD PUSH1 0x2 DUP3 ADD PUSH1 0x3 SWAP1 SLOAD SWAP1 PUSH2 0x100 EXP SWAP1 DIV PUSH1 0xFF AND PUSH1 0x4 DUP2 GT ISZERO PUSH2 0x9E9 JUMPI PUSH2 0x9E8 PUSH2 0x2DC2 JUMP JUMPDEST JUMPDEST PUSH1 0x4 DUP2 GT ISZERO PUSH2 0x9FB JUMPI PUSH2 0x9FA PUSH2 0x2DC2 JUMP JUMPDEST JUMPDEST DUP2 MSTORE POP POP SWAP1 DUP1 PUSH1 0xB ADD DUP1 SLOAD PUSH2 0xA0F SWAP1 PUSH2 0x3737 JUMP JUMPDEST DUP1 PUSH1 0x1F ADD PUSH1 0x20 DUP1 SWAP2 DIV MUL PUSH1 0x20 ADD PUSH1 0x40 MLOAD SWAP1 DUP2 ADD PUSH1 0x40 MSTORE DUP1 SWAP3 SWAP2 SWAP1 DUP2 DUP2 MSTORE PUSH1 0x20 ADD DUP3 DUP1 SLOAD PUSH2 0xA3B SWAP1 PUSH2 0x3737 JUMP JUMPDEST DUP1 ISZERO PUSH2 0xA88 JUMPI DUP1 PUSH1 0x1F LT PUSH2 0xA5D JUMPI PUSH2 0x100 DUP1 DUP4 SLOAD DIV MUL DUP4 MSTORE SWAP2 PUSH1 0x20 ADD SWAP2 PUSH2 0xA88 JUMP JUMPDEST DUP3 ADD SWAP2 SWAP1 PUSH1 0x0 MSTORE PUSH1 0x20 PUSH1 0x0 KECCAK256 SWAP1 JUMPDEST DUP2 SLOAD DUP2 MSTORE SWAP1 PUSH1 0x1 ADD SWAP1 PUSH1 0x20 ADD DUP1 DUP4 GT PUSH2 0xA6B JUMPI DUP3 SWAP1 SUB PUSH1 0x1F AND DUP3 ADD SWAP2 JUMPDEST POP POP POP POP POP SWAP1 DUP1 PUSH1 0xC ADD PUSH1 0x0 SWAP1 SLOAD SWAP1 PUSH2 0x100 EXP SWAP1 DIV PUSH1 0xFF AND SWAP1 DUP1 PUSH1 0xD ADD DUP1 SLOAD PUSH2 0xAB0 SWAP1 PUSH2 0x3737 JUMP JUMPDEST DUP1 PUSH1 0x1F ADD PUSH1 0x20 DUP1 SWAP2 DIV MUL PUSH1 0x20 ADD PUSH1 0x40 MLOAD SWAP1 DUP2 ADD PUSH1 0x40 MSTORE DUP1 SWAP3 SWAP2 SWAP1 DUP2 DUP2 MSTORE PUSH1 0x20 ADD DUP3 DUP1 SLOAD PUSH2 0xADC SWAP1 PUSH2 0x3737 JUMP JUMPDEST DUP1 ISZERO PUSH2 0xB29 JUMPI DUP1 PUSH1 0x1F LT PUSH2 0xAFE JUMPI PUSH2 0x100 DUP1 DUP4 SLOAD DIV MUL DUP4 MSTORE SWAP2 PUSH1 0x20 ADD SWAP2 PUSH2 0xB29 JUMP JUMPDEST DUP3 ADD SWAP2 SWAP1 PUSH1 0x0 MSTORE PUSH1 0x20 PUSH1 0x0 KECCAK256 SWAP1 JUMPDEST DUP2 SLOAD DUP2 MSTORE SWAP1 PUSH1 0x1 ADD SWAP1 PUSH1 0x20 ADD DUP1 DUP4 GT PUSH2 0xB0C JUMPI DUP3 SWAP1 SUB PUSH1 0x1F AND DUP3 ADD SWAP2 JUMPDEST POP POP POP POP POP SWAP1 POP DUP13 JUMP JUMPDEST PUSH1 0x60 PUSH2 0xC1D PUSH1 0x4 DUP4 PUSH1 0x40 MLOAD PUSH2 0xB48 SWAP2 SWAP1 PUSH2 0x37A4 JUMP JUMPDEST SWAP1 DUP2 MSTORE PUSH1 0x20 ADD PUSH1 0x40 MLOAD DUP1 SWAP2 SUB SWAP1 KECCAK256 PUSH1 0xD ADD DUP1 SLOAD PUSH2 0xB64 SWAP1 PUSH2 0x3737 JUMP JUMPDEST DUP1 PUSH1 0x1F ADD PUSH1 0x20 DUP1 SWAP2 DIV MUL PUSH1 0x20 ADD PUSH1 0x40 MLOAD SWAP1 DUP2 ADD PUSH1 0x40 MSTORE DUP1 SWAP3 SWAP2 SWAP1 DUP2 DUP2 MSTORE PUSH1 0x20 ADD DUP3 DUP1 SLOAD PUSH2 0xB90 SWAP1 PUSH2 0x3737 JUMP JUMPDEST DUP1 ISZERO PUSH2 0xBDD JUMPI DUP1 PUSH1 0x1F LT PUSH2 0xBB2 JUMPI PUSH2 0x100 DUP1 DUP4 SLOAD DIV MUL DUP4 MSTORE SWAP2 PUSH1 0x20 ADD SWAP2 PUSH2 0xBDD JUMP JUMPDEST DUP3 ADD SWAP2 SWAP1 PUSH1 0x0 MSTORE PUSH1 0x20 PUSH1 0x0 KECCAK256 SWAP1 JUMPDEST DUP2 SLOAD DUP2 MSTORE SWAP1 PUSH1 0x1 ADD SWAP1 PUSH1 0x20 ADD DUP1 DUP4 GT PUSH2 0xBC0 JUMPI DUP3 SWAP1 SUB PUSH1 0x1F AND DUP3 ADD SWAP2 JUMPDEST POP POP POP POP POP PUSH1 0x40 MLOAD DUP1 PUSH1 0x40 ADD PUSH1 0x40 MSTORE DUP1 PUSH1 0x7 DUP2 MSTORE PUSH1 0x20 ADD PUSH32 0x64616D6167656400000000000000000000000000000000000000000000000000 DUP2 MSTORE POP PUSH2 0x288C JUMP JUMPDEST ISZERO PUSH2 0xC42 JUMPI PUSH1 0x40 MLOAD DUP1 PUSH1 0x60 ADD PUSH1 0x40 MSTORE DUP1 PUSH1 0x2B DUP2 MSTORE PUSH1 0x20 ADD PUSH2 0x3BBC PUSH1 0x2B SWAP2 CODECOPY SWAP1 POP PUSH2 0xE22 JUMP JUMPDEST PUSH1 0x0 PUSH1 0x4 DUP4 PUSH1 0x40 MLOAD PUSH2 0xC54 SWAP2 SWAP1 PUSH2 0x37A4 JUMP JUMPDEST SWAP1 DUP2 MSTORE PUSH1 0x20 ADD PUSH1 0x40 MLOAD DUP1 SWAP2 SUB SWAP1 KECCAK256 PUSH1 0x2 ADD SLOAD SUB PUSH2 0xCA8 JUMPI PUSH1 0x40 MLOAD DUP1 PUSH1 0x40 ADD PUSH1 0x40 MSTORE DUP1 PUSH1 0x10 DUP2 MSTORE PUSH1 0x20 ADD PUSH32 0x64757269616E206E6F7420666F756E6400000000000000000000000000000000 DUP2 MSTORE POP SWAP1 POP PUSH2 0xE22 JUMP JUMPDEST PUSH1 0x8 PUSH1 0x4 DUP4 PUSH1 0x40 MLOAD PUSH2 0xCBA SWAP2 SWAP1 PUSH2 0x37A4 JUMP JUMPDEST SWAP1 DUP2 MSTORE PUSH1 0x20 ADD PUSH1 0x40 MLOAD DUP1 SWAP2 SUB SWAP1 KECCAK256 PUSH1 0x1 ADD PUSH1 0x40 MLOAD PUSH2 0xCD8 SWAP2 SWAP1 PUSH2 0x3B33 JUMP JUMPDEST SWAP1 DUP2 MSTORE PUSH1 0x20 ADD PUSH1 0x40 MLOAD DUP1 SWAP2 SUB SWAP1 KECCAK256 PUSH1 0x1 ADD SLOAD PUSH1 0x4 DUP4 PUSH1 0x40 MLOAD PUSH2 0xCFA SWAP2 SWAP1 PUSH2 0x37A4 JUMP JUMPDEST SWAP1 DUP2 MSTORE PUSH1 0x20 ADD PUSH1 0x40 MLOAD DUP1 SWAP2 SUB SWAP1 KECCAK256 PUSH1 0x2 ADD SLOAD PUSH2 0xD16 SWAP2 SWAP1 PUSH2 0x3B4A JUMP JUMPDEST CALLVALUE LT ISZERO PUSH2 0xD22 JUMPI PUSH1 0x0 DUP1 REVERT JUMPDEST PUSH1 0x0 DUP1 SLOAD SWAP1 PUSH2 0x100 EXP SWAP1 DIV PUSH20 0xFFFFFFFFFFFFFFFFFFFFFFFFFFFFFFFFFFFFFFFF AND PUSH20 0xFFFFFFFFFFFFFFFFFFFFFFFFFFFFFFFFFFFFFFFF AND PUSH2 0x8FC CALLVALUE SWAP1 DUP2 ISZERO MUL SWAP1 PUSH1 0x40 MLOAD PUSH1 0x0 PUSH1 0x40 MLOAD DUP1 DUP4 SUB DUP2 DUP6 DUP9 DUP9 CALL SWAP4 POP POP POP POP ISZERO DUP1 ISZERO PUSH2 0xD88 JUMPI RETURNDATASIZE PUSH1 0x0 DUP1 RETURNDATACOPY RETURNDATASIZE PUSH1 0x0 REVERT JUMPDEST POP DUP3 PUSH1 0x4 DUP4 PUSH1 0x40 MLOAD PUSH2 0xD9A SWAP2 SWAP1 PUSH2 0x37A4 JUMP JUMPDEST SWAP1 DUP2 MSTORE PUSH1 0x20 ADD PUSH1 0x40 MLOAD DUP1 SWAP2 SUB SWAP1 KECCAK256 PUSH1 0x7 ADD PUSH1 0x0 PUSH2 0x100 EXP DUP2 SLOAD DUP2 PUSH20 0xFFFFFFFFFFFFFFFFFFFFFFFFFFFFFFFFFFFFFFFF MUL NOT AND SWAP1 DUP4 PUSH20 0xFFFFFFFFFFFFFFFFFFFFFFFFFFFFFFFFFFFFFFFF AND MUL OR SWAP1 SSTORE POP PUSH1 0x40 MLOAD DUP1 PUSH1 0x40 ADD PUSH1 0x40 MSTORE DUP1 PUSH1 0xA DUP2 MSTORE PUSH1 0x20 ADD PUSH32 0x7375636365737366756C00000000000000000000000000000000000000000000 DUP2 MSTORE POP SWAP1 POP JUMPDEST SWAP3 SWAP2 POP POP JUMP JUMPDEST PUSH2 0xF31 PUSH1 0x3 PUSH1 0x0 CALLER PUSH20 0xFFFFFFFFFFFFFFFFFFFFFFFFFFFFFFFFFFFFFFFF AND PUSH20 0xFFFFFFFFFFFFFFFFFFFFFFFFFFFFFFFFFFFFFFFF AND DUP2 MSTORE PUSH1 0x20 ADD SWAP1 DUP2 MSTORE PUSH1 0x20 ADD PUSH1 0x0 KECCAK256 PUSH1 0x3 ADD DUP1 SLOAD PUSH2 0xE78 SWAP1 PUSH2 0x3737 JUMP JUMPDEST DUP1 PUSH1 0x1F ADD PUSH1 0x20 DUP1 SWAP2 DIV MUL PUSH1 0x20 ADD PUSH1 0x40 MLOAD SWAP1 DUP2 ADD PUSH1 0x40 MSTORE DUP1 SWAP3 SWAP2 SWAP1 DUP2 DUP2 MSTORE PUSH1 0x20 ADD DUP3 DUP1 SLOAD PUSH2 0xEA4 SWAP1 PUSH2 0x3737 JUMP JUMPDEST DUP1 ISZERO PUSH2 0xEF1 JUMPI DUP1 PUSH1 0x1F LT PUSH2 0xEC6 JUMPI PUSH2 0x100 DUP1 DUP4 SLOAD DIV MUL DUP4 MSTORE SWAP2 PUSH1 0x20 ADD SWAP2 PUSH2 0xEF1 JUMP JUMPDEST DUP3 ADD SWAP2 SWAP1 PUSH1 0x0 MSTORE PUSH1 0x20 PUSH1 0x0 KECCAK256 SWAP1 JUMPDEST DUP2 SLOAD DUP2 MSTORE SWAP1 PUSH1 0x1 ADD SWAP1 PUSH1 0x20 ADD DUP1 DUP4 GT PUSH2 0xED4 JUMPI DUP3 SWAP1 SUB PUSH1 0x1F AND DUP3 ADD SWAP2 JUMPDEST POP POP POP POP POP PUSH1 0x40 MLOAD DUP1 PUSH1 0x40 ADD PUSH1 0x40 MSTORE DUP1 PUSH1 0xB DUP2 MSTORE PUSH1 0x20 ADD PUSH32 0x4661726D20576F726B6572000000000000000000000000000000000000000000 DUP2 MSTORE POP PUSH2 0x288C JUMP JUMPDEST DUP1 PUSH2 0xF87 JUMPI POP PUSH1 0x0 DUP1 SLOAD SWAP1 PUSH2 0x100 EXP SWAP1 DIV PUSH20 0xFFFFFFFFFFFFFFFFFFFFFFFFFFFFFFFFFFFFFFFF AND PUSH20 0xFFFFFFFFFFFFFFFFFFFFFFFFFFFFFFFFFFFFFFFF AND CALLER PUSH20 0xFFFFFFFFFFFFFFFFFFFFFFFFFFFFFFFFFFFFFFFF AND EQ JUMPDEST PUSH2 0xF90 JUMPI PUSH1 0x0 DUP1 REVERT JUMPDEST PUSH1 0x40 MLOAD DUP1 PUSH2 0x180 ADD PUSH1 0x40 MSTORE DUP1 DUP8 DUP2 MSTORE PUSH1 0x20 ADD DUP7 DUP2 MSTORE PUSH1 0x20 ADD DUP6 DUP2 MSTORE PUSH1 0x20 ADD DUP5 DUP2 MSTORE PUSH1 0x20 ADD CALLER PUSH20 0xFFFFFFFFFFFFFFFFFFFFFFFFFFFFFFFFFFFFFFFF AND DUP2 MSTORE PUSH1 0x20 ADD DUP4 DUP2 MSTORE PUSH1 0x20 ADD DUP3 DUP2 MSTORE PUSH1 0x20 ADD PUSH1 0x0 DUP1 SLOAD SWAP1 PUSH2 0x100 EXP SWAP1 DIV PUSH20 0xFFFFFFFFFFFFFFFFFFFFFFFFFFFFFFFFFFFFFFFF AND PUSH20 0xFFFFFFFFFFFFFFFFFFFFFFFFFFFFFFFFFFFFFFFF AND DUP2 MSTORE PUSH1 0x20 ADD PUSH1 0x5 PUSH1 0x40 MLOAD DUP1 PUSH1 0xC0 ADD PUSH1 0x40 MSTORE SWAP1 DUP2 PUSH1 0x0 DUP3 ADD DUP1 SLOAD PUSH2 0x1035 SWAP1 PUSH2 0x3737 JUMP JUMPDEST DUP1 PUSH1 0x1F ADD PUSH1 0x20 DUP1 SWAP2 DIV MUL PUSH1 0x20 ADD PUSH1 0x40 MLOAD SWAP1 DUP2 ADD PUSH1 0x40 MSTORE DUP1 SWAP3 SWAP2 SWAP1 DUP2 DUP2 MSTORE PUSH1 0x20 ADD DUP3 DUP1 SLOAD PUSH2 0x1061 SWAP1 PUSH2 0x3737 JUMP JUMPDEST DUP1 ISZERO PUSH2 0x10AE JUMPI DUP1 PUSH1 0x1F LT PUSH2 0x1083 JUMPI PUSH2 0x100 DUP1 DUP4 SLOAD DIV MUL DUP4 MSTORE SWAP2 PUSH1 0x20 ADD SWAP2 PUSH2 0x10AE JUMP JUMPDEST DUP3 ADD SWAP2 SWAP1 PUSH1 0x0 MSTORE PUSH1 0x20 PUSH1 0x0 KECCAK256 SWAP1 JUMPDEST DUP2 SLOAD DUP2 MSTORE SWAP1 PUSH1 0x1 ADD SWAP1 PUSH1 0x20 ADD DUP1 DUP4 GT PUSH2 0x1091 JUMPI DUP3 SWAP1 SUB PUSH1 0x1F AND DUP3 ADD SWAP2 JUMPDEST POP POP POP POP POP DUP2 MSTORE PUSH1 0x20 ADD PUSH1 0x1 DUP3 ADD DUP1 SLOAD PUSH2 0x10C7 SWAP1 PUSH2 0x3737 JUMP JUMPDEST DUP1 PUSH1 0x1F ADD PUSH1 0x20 DUP1 SWAP2 DIV MUL PUSH1 0x20 ADD PUSH1 0x40 MLOAD SWAP1 DUP2 ADD PUSH1 0x40 MSTORE DUP1 SWAP3 SWAP2 SWAP1 DUP2 DUP2 MSTORE PUSH1 0x20 ADD DUP3 DUP1 SLOAD PUSH2 0x10F3 SWAP1 PUSH2 0x3737 JUMP JUMPDEST DUP1 ISZERO PUSH2 0x1140 JUMPI DUP1 PUSH1 0x1F LT PUSH2 0x1115 JUMPI PUSH2 0x100 DUP1 DUP4 SLOAD DIV MUL DUP4 MSTORE SWAP2 PUSH1 0x20 ADD SWAP2 PUSH2 0x1140 JUMP JUMPDEST DUP3 ADD SWAP2 SWAP1 PUSH1 0x0 MSTORE PUSH1 0x20 PUSH1 0x0 KECCAK256 SWAP1 JUMPDEST DUP2 SLOAD DUP2 MSTORE SWAP1 PUSH1 0x1 ADD SWAP1 PUSH1 0x20 ADD DUP1 DUP4 GT PUSH2 0x1123 JUMPI DUP3 SWAP1 SUB PUSH1 0x1F AND DUP3 ADD SWAP2 JUMPDEST POP POP POP POP POP DUP2 MSTORE PUSH1 0x20 ADD PUSH1 0x2 DUP3 ADD PUSH1 0x0 SWAP1 SLOAD SWAP1 PUSH2 0x100 EXP SWAP1 DIV PUSH1 0xFF AND PUSH1 0x4 DUP2 GT ISZERO PUSH2 0x116E JUMPI PUSH2 0x116D PUSH2 0x2DC2 JUMP JUMPDEST JUMPDEST PUSH1 0x4 DUP2 GT ISZERO PUSH2 0x1180 JUMPI PUSH2 0x117F PUSH2 0x2DC2 JUMP JUMPDEST JUMPDEST DUP2 MSTORE PUSH1 0x20 ADD PUSH1 0x2 DUP3 ADD PUSH1 0x1 SWAP1 SLOAD SWAP1 PUSH2 0x100 EXP SWAP1 DIV PUSH1 0xFF AND PUSH1 0x4 DUP2 GT ISZERO PUSH2 0x11A9 JUMPI PUSH2 0x11A8 PUSH2 0x2DC2 JUMP JUMPDEST JUMPDEST PUSH1 0x4 DUP2 GT ISZERO PUSH2 0x11BB JUMPI PUSH2 0x11BA PUSH2 0x2DC2 JUMP JUMPDEST JUMPDEST DUP2 MSTORE PUSH1 0x20 ADD PUSH1 0x2 DUP3 ADD PUSH1 0x2 SWAP1 SLOAD SWAP1 PUSH2 0x100 EXP SWAP1 DIV PUSH1 0xFF AND PUSH1 0x4 DUP2 GT ISZERO PUSH2 0x11E4 JUMPI PUSH2 0x11E3 PUSH2 0x2DC2 JUMP JUMPDEST JUMPDEST PUSH1 0x4 DUP2 GT ISZERO PUSH2 0x11F6 JUMPI PUSH2 0x11F5 PUSH2 0x2DC2 JUMP JUMPDEST JUMPDEST DUP2 MSTORE PUSH1 0x20 ADD PUSH1 0x2 DUP3 ADD PUSH1 0x3 SWAP1 SLOAD SWAP1 PUSH2 0x100 EXP SWAP1 DIV PUSH1 0xFF AND PUSH1 0x4 DUP2 GT ISZERO PUSH2 0x121F JUMPI PUSH2 0x121E PUSH2 0x2DC2 JUMP JUMPDEST JUMPDEST PUSH1 0x4 DUP2 GT ISZERO PUSH2 0x1231 JUMPI PUSH2 0x1230 PUSH2 0x2DC2 JUMP JUMPDEST JUMPDEST DUP2 MSTORE POP POP DUP2 MSTORE PUSH1 0x20 ADD PUSH1 0x40 MLOAD DUP1 PUSH1 0x40 ADD PUSH1 0x40 MSTORE DUP1 PUSH1 0x4 DUP2 MSTORE PUSH1 0x20 ADD PUSH32 0x6661726D00000000000000000000000000000000000000000000000000000000 DUP2 MSTORE POP DUP2 MSTORE PUSH1 0x20 ADD PUSH1 0x0 ISZERO ISZERO DUP2 MSTORE PUSH1 0x20 ADD PUSH1 0x40 MLOAD DUP1 PUSH1 0x40 ADD PUSH1 0x40 MSTORE DUP1 PUSH1 0x7 DUP2 MSTORE PUSH1 0x20 ADD PUSH32 0x7065726665637400000000000000000000000000000000000000000000000000 DUP2 MSTORE POP DUP2 MSTORE POP PUSH1 0x4 DUP8 PUSH1 0x40 MLOAD PUSH2 0x12C7 SWAP2 SWAP1 PUSH2 0x37A4 JUMP JUMPDEST SWAP1 DUP2 MSTORE PUSH1 0x20 ADD PUSH1 0x40 MLOAD DUP1 SWAP2 SUB SWAP1 KECCAK256 PUSH1 0x0 DUP3 ADD MLOAD DUP2 PUSH1 0x0 ADD SWAP1 DUP2 PUSH2 0x12EA SWAP2 SWAP1 PUSH2 0x3967 JUMP JUMPDEST POP PUSH1 0x20 DUP3 ADD MLOAD DUP2 PUSH1 0x1 ADD SWAP1 DUP2 PUSH2 0x1300 SWAP2 SWAP1 PUSH2 0x3967 JUMP JUMPDEST POP PUSH1 0x40 DUP3 ADD MLOAD DUP2 PUSH1 0x2 ADD SSTORE PUSH1 0x60 DUP3 ADD MLOAD DUP2 PUSH1 0x3 ADD SSTORE PUSH1 0x80 DUP3 ADD MLOAD DUP2 PUSH1 0x4 ADD PUSH1 0x0 PUSH2 0x100 EXP DUP2 SLOAD DUP2 PUSH20 0xFFFFFFFFFFFFFFFFFFFFFFFFFFFFFFFFFFFFFFFF MUL NOT AND SWAP1 DUP4 PUSH20 0xFFFFFFFFFFFFFFFFFFFFFFFFFFFFFFFFFFFFFFFF AND MUL OR SWAP1 SSTORE POP PUSH1 0xA0 DUP3 ADD MLOAD DUP2 PUSH1 0x5 ADD SSTORE PUSH1 0xC0 DUP3 ADD MLOAD DUP2 PUSH1 0x6 ADD SSTORE PUSH1 0xE0 DUP3 ADD MLOAD DUP2 PUSH1 0x7 ADD PUSH1 0x0 PUSH2 0x100 EXP DUP2 SLOAD DUP2 PUSH20 0xFFFFFFFFFFFFFFFFFFFFFFFFFFFFFFFFFFFFFFFF MUL NOT AND SWAP1 DUP4 PUSH20 0xFFFFFFFFFFFFFFFFFFFFFFFFFFFFFFFFFFFFFFFF AND MUL OR SWAP1 SSTORE POP PUSH2 0x100 DUP3 ADD MLOAD DUP2 PUSH1 0x8 ADD PUSH1 0x0 DUP3 ADD MLOAD DUP2 PUSH1 0x0 ADD SWAP1 DUP2 PUSH2 0x13D6 SWAP2 SWAP1 PUSH2 0x3967 JUMP JUMPDEST POP PUSH1 0x20 DUP3 ADD MLOAD DUP2 PUSH1 0x1 ADD SWAP1 DUP2 PUSH2 0x13EC SWAP2 SWAP1 PUSH2 0x3967 JUMP JUMPDEST POP PUSH1 0x40 DUP3 ADD MLOAD DUP2 PUSH1 0x2 ADD PUSH1 0x0 PUSH2 0x100 EXP DUP2 SLOAD DUP2 PUSH1 0xFF MUL NOT AND SWAP1 DUP4 PUSH1 0x4 DUP2 GT ISZERO PUSH2 0x1418 JUMPI PUSH2 0x1417 PUSH2 0x2DC2 JUMP JUMPDEST JUMPDEST MUL OR SWAP1 SSTORE POP PUSH1 0x60 DUP3 ADD MLOAD DUP2 PUSH1 0x2 ADD PUSH1 0x1 PUSH2 0x100 EXP DUP2 SLOAD DUP2 PUSH1 0xFF MUL NOT AND SWAP1 DUP4 PUSH1 0x4 DUP2 GT ISZERO PUSH2 0x1448 JUMPI PUSH2 0x1447 PUSH2 0x2DC2 JUMP JUMPDEST JUMPDEST MUL OR SWAP1 SSTORE POP PUSH1 0x80 DUP3 ADD MLOAD DUP2 PUSH1 0x2 ADD PUSH1 0x2 PUSH2 0x100 EXP DUP2 SLOAD DUP2 PUSH1 0xFF MUL NOT AND SWAP1 DUP4 PUSH1 0x4 DUP2 GT ISZERO PUSH2 0x1478 JUMPI PUSH2 0x1477 PUSH2 0x2DC2 JUMP JUMPDEST JUMPDEST MUL OR SWAP1 SSTORE POP PUSH1 0xA0 DUP3 ADD MLOAD DUP2 PUSH1 0x2 ADD PUSH1 0x3 PUSH2 0x100 EXP DUP2 SLOAD DUP2 PUSH1 0xFF MUL NOT AND SWAP1 DUP4 PUSH1 0x4 DUP2 GT ISZERO PUSH2 0x14A8 JUMPI PUSH2 0x14A7 PUSH2 0x2DC2 JUMP JUMPDEST JUMPDEST MUL OR SWAP1 SSTORE POP POP POP PUSH2 0x120 DUP3 ADD MLOAD DUP2 PUSH1 0xB ADD SWAP1 DUP2 PUSH2 0x14C5 SWAP2 SWAP1 PUSH2 0x3967 JUMP JUMPDEST POP PUSH2 0x140 DUP3 ADD MLOAD DUP2 PUSH1 0xC ADD PUSH1 0x0 PUSH2 0x100 EXP DUP2 SLOAD DUP2 PUSH1 0xFF MUL NOT AND SWAP1 DUP4 ISZERO ISZERO MUL OR SWAP1 SSTORE POP PUSH2 0x160 DUP3 ADD MLOAD DUP2 PUSH1 0xD ADD SWAP1 DUP2 PUSH2 0x14FD SWAP2 SWAP1 PUSH2 0x3967 JUMP JUMPDEST POP SWAP1 POP POP PUSH1 0x1 PUSH1 0x0 DUP2 SLOAD DUP1 SWAP3 SWAP2 SWAP1 PUSH2 0x1514 SWAP1 PUSH2 0x3A68 JUMP JUMPDEST SWAP2 SWAP1 POP SSTORE POP POP POP POP POP POP POP JUMP JUMPDEST PUSH1 0x0 DUP1 SLOAD SWAP1 PUSH2 0x100 EXP SWAP1 DIV PUSH20 0xFFFFFFFFFFFFFFFFFFFFFFFFFFFFFFFFFFFFFFFF AND DUP2 JUMP JUMPDEST PUSH1 0x2 SLOAD DUP2 JUMP JUMPDEST PUSH1 0x4 DUP5 PUSH1 0x40 MLOAD PUSH2 0x155B SWAP2 SWAP1 PUSH2 0x37A4 JUMP JUMPDEST SWAP1 DUP2 MSTORE PUSH1 0x20 ADD PUSH1 0x40 MLOAD DUP1 SWAP2 SUB SWAP1 KECCAK256 PUSH1 0x7 ADD PUSH1 0x0 SWAP1 SLOAD SWAP1 PUSH2 0x100 EXP SWAP1 DIV PUSH20 0xFFFFFFFFFFFFFFFFFFFFFFFFFFFFFFFFFFFFFFFF AND PUSH20 0xFFFFFFFFFFFFFFFFFFFFFFFFFFFFFFFFFFFFFFFF AND CALLER PUSH20 0xFFFFFFFFFFFFFFFFFFFFFFFFFFFFFFFFFFFFFFFF AND SUB PUSH2 0x17C5 JUMPI PUSH1 0x40 MLOAD DUP1 PUSH1 0xC0 ADD PUSH1 0x40 MSTORE DUP1 DUP5 DUP2 MSTORE PUSH1 0x20 ADD DUP4 DUP2 MSTORE PUSH1 0x20 ADD PUSH2 0x15F7 DUP4 PUSH1 0x0 PUSH1 0x4 DUP2 LT PUSH2 0x15ED JUMPI PUSH2 0x15EC PUSH2 0x3B8C JUMP JUMPDEST JUMPDEST PUSH1 0x20 MUL ADD MLOAD PUSH2 0x28E5 JUMP JUMPDEST PUSH1 0x4 DUP2 GT ISZERO PUSH2 0x1609 JUMPI PUSH2 0x1608 PUSH2 0x2DC2 JUMP JUMPDEST JUMPDEST DUP2 MSTORE PUSH1 0x20 ADD PUSH2 0x162F DUP4 PUSH1 0x1 PUSH1 0x4 DUP2 LT PUSH2 0x1625 JUMPI PUSH2 0x1624 PUSH2 0x3B8C JUMP JUMPDEST JUMPDEST PUSH1 0x20 MUL ADD MLOAD PUSH2 0x28E5 JUMP JUMPDEST PUSH1 0x4 DUP2 GT ISZERO PUSH2 0x1641 JUMPI PUSH2 0x1640 PUSH2 0x2DC2 JUMP JUMPDEST JUMPDEST DUP2 MSTORE PUSH1 0x20 ADD PUSH2 0x1667 DUP4 PUSH1 0x2 PUSH1 0x4 DUP2 LT PUSH2 0x165D JUMPI PUSH2 0x165C PUSH2 0x3B8C JUMP JUMPDEST JUMPDEST PUSH1 0x20 MUL ADD MLOAD PUSH2 0x28E5 JUMP JUMPDEST PUSH1 0x4 DUP2 GT ISZERO PUSH2 0x1679 JUMPI PUSH2 0x1678 PUSH2 0x2DC2 JUMP JUMPDEST JUMPDEST DUP2 MSTORE PUSH1 0x20 ADD PUSH2 0x169F DUP4 PUSH1 0x3 PUSH1 0x4 DUP2 LT PUSH2 0x1695 JUMPI PUSH2 0x1694 PUSH2 0x3B8C JUMP JUMPDEST JUMPDEST PUSH1 0x20 MUL ADD MLOAD PUSH2 0x28E5 JUMP JUMPDEST PUSH1 0x4 DUP2 GT ISZERO PUSH2 0x16B1 JUMPI PUSH2 0x16B0 PUSH2 0x2DC2 JUMP JUMPDEST JUMPDEST DUP2 MSTORE POP PUSH1 0x4 DUP6 PUSH1 0x40 MLOAD PUSH2 0x16C4 SWAP2 SWAP1 PUSH2 0x37A4 JUMP JUMPDEST SWAP1 DUP2 MSTORE PUSH1 0x20 ADD PUSH1 0x40 MLOAD DUP1 SWAP2 SUB SWAP1 KECCAK256 PUSH1 0x8 ADD PUSH1 0x0 DUP3 ADD MLOAD DUP2 PUSH1 0x0 ADD SWAP1 DUP2 PUSH2 0x16EA SWAP2 SWAP1 PUSH2 0x3967 JUMP JUMPDEST POP PUSH1 0x20 DUP3 ADD MLOAD DUP2 PUSH1 0x1 ADD SWAP1 DUP2 PUSH2 0x1700 SWAP2 SWAP1 PUSH2 0x3967 JUMP JUMPDEST POP PUSH1 0x40 DUP3 ADD MLOAD DUP2 PUSH1 0x2 ADD PUSH1 0x0 PUSH2 0x100 EXP DUP2 SLOAD DUP2 PUSH1 0xFF MUL NOT AND SWAP1 DUP4 PUSH1 0x4 DUP2 GT ISZERO PUSH2 0x172C JUMPI PUSH2 0x172B PUSH2 0x2DC2 JUMP JUMPDEST JUMPDEST MUL OR SWAP1 SSTORE POP PUSH1 0x60 DUP3 ADD MLOAD DUP2 PUSH1 0x2 ADD PUSH1 0x1 PUSH2 0x100 EXP DUP2 SLOAD DUP2 PUSH1 0xFF MUL NOT AND SWAP1 DUP4 PUSH1 0x4 DUP2 GT ISZERO PUSH2 0x175C JUMPI PUSH2 0x175B PUSH2 0x2DC2 JUMP JUMPDEST JUMPDEST MUL OR SWAP1 SSTORE POP PUSH1 0x80 DUP3 ADD MLOAD DUP2 PUSH1 0x2 ADD PUSH1 0x2 PUSH2 0x100 EXP DUP2 SLOAD DUP2 PUSH1 0xFF MUL NOT AND SWAP1 DUP4 PUSH1 0x4 DUP2 GT ISZERO PUSH2 0x178C JUMPI PUSH2 0x178B PUSH2 0x2DC2 JUMP JUMPDEST JUMPDEST MUL OR SWAP1 SSTORE POP PUSH1 0xA0 DUP3 ADD MLOAD DUP2 PUSH1 0x2 ADD PUSH1 0x3 PUSH2 0x100 EXP DUP2 SLOAD DUP2 PUSH1 0xFF MUL NOT AND SWAP1 DUP4 PUSH1 0x4 DUP2 GT ISZERO PUSH2 0x17BC JUMPI PUSH2 0x17BB PUSH2 0x2DC2 JUMP JUMPDEST JUMPDEST MUL OR SWAP1 SSTORE POP SWAP1 POP POP JUMPDEST POP POP POP POP JUMP JUMPDEST PUSH2 0x17D3 PUSH2 0x2946 JUMP JUMPDEST PUSH1 0x4 DUP3 PUSH1 0x40 MLOAD PUSH2 0x17E3 SWAP2 SWAP1 PUSH2 0x37A4 JUMP JUMPDEST SWAP1 DUP2 MSTORE PUSH1 0x20 ADD PUSH1 0x40 MLOAD DUP1 SWAP2 SUB SWAP1 KECCAK256 PUSH1 0x40 MLOAD DUP1 PUSH2 0x180 ADD PUSH1 0x40 MSTORE SWAP1 DUP2 PUSH1 0x0 DUP3 ADD DUP1 SLOAD PUSH2 0x180D SWAP1 PUSH2 0x3737 JUMP JUMPDEST DUP1 PUSH1 0x1F ADD PUSH1 0x20 DUP1 SWAP2 DIV MUL PUSH1 0x20 ADD PUSH1 0x40 MLOAD SWAP1 DUP2 ADD PUSH1 0x40 MSTORE DUP1 SWAP3 SWAP2 SWAP1 DUP2 DUP2 MSTORE PUSH1 0x20 ADD DUP3 DUP1 SLOAD PUSH2 0x1839 SWAP1 PUSH2 0x3737 JUMP JUMPDEST DUP1 ISZERO PUSH2 0x1886 JUMPI DUP1 PUSH1 0x1F LT PUSH2 0x185B JUMPI PUSH2 0x100 DUP1 DUP4 SLOAD DIV MUL DUP4 MSTORE SWAP2 PUSH1 0x20 ADD SWAP2 PUSH2 0x1886 JUMP JUMPDEST DUP3 ADD SWAP2 SWAP1 PUSH1 0x0 MSTORE PUSH1 0x20 PUSH1 0x0 KECCAK256 SWAP1 JUMPDEST DUP2 SLOAD DUP2 MSTORE SWAP1 PUSH1 0x1 ADD SWAP1 PUSH1 0x20 ADD DUP1 DUP4 GT PUSH2 0x1869 JUMPI DUP3 SWAP1 SUB PUSH1 0x1F AND DUP3 ADD SWAP2 JUMPDEST POP POP POP POP POP DUP2 MSTORE PUSH1 0x20 ADD PUSH1 0x1 DUP3 ADD DUP1 SLOAD PUSH2 0x189F SWAP1 PUSH2 0x3737 JUMP JUMPDEST DUP1 PUSH1 0x1F ADD PUSH1 0x20 DUP1 SWAP2 DIV MUL PUSH1 0x20 ADD PUSH1 0x40 MLOAD SWAP1 DUP2 ADD PUSH1 0x40 MSTORE DUP1 SWAP3 SWAP2 SWAP1 DUP2 DUP2 MSTORE PUSH1 0x20 ADD DUP3 DUP1 SLOAD PUSH2 0x18CB SWAP1 PUSH2 0x3737 JUMP JUMPDEST DUP1 ISZERO PUSH2 0x1918 JUMPI DUP1 PUSH1 0x1F LT PUSH2 0x18ED JUMPI PUSH2 0x100 DUP1 DUP4 SLOAD DIV MUL DUP4 MSTORE SWAP2 PUSH1 0x20 ADD SWAP2 PUSH2 0x1918 JUMP JUMPDEST DUP3 ADD SWAP2 SWAP1 PUSH1 0x0 MSTORE PUSH1 0x20 PUSH1 0x0 KECCAK256 SWAP1 JUMPDEST DUP2 SLOAD DUP2 MSTORE SWAP1 PUSH1 0x1 ADD SWAP1 PUSH1 0x20 ADD DUP1 DUP4 GT PUSH2 0x18FB JUMPI DUP3 SWAP1 SUB PUSH1 0x1F AND DUP3 ADD SWAP2 JUMPDEST POP POP POP POP POP DUP2 MSTORE PUSH1 0x20 ADD PUSH1 0x2 DUP3 ADD SLOAD DUP2 MSTORE PUSH1 0x20 ADD PUSH1 0x3 DUP3 ADD SLOAD DUP2 MSTORE PUSH1 0x20 ADD PUSH1 0x4 DUP3 ADD PUSH1 0x0 SWAP1 SLOAD SWAP1 PUSH2 0x100 EXP SWAP1 DIV PUSH20 0xFFFFFFFFFFFFFFFFFFFFFFFFFFFFFFFFFFFFFFFF AND PUSH20 0xFFFFFFFFFFFFFFFFFFFFFFFFFFFFFFFFFFFFFFFF AND PUSH20 0xFFFFFFFFFFFFFFFFFFFFFFFFFFFFFFFFFFFFFFFF AND DUP2 MSTORE PUSH1 0x20 ADD PUSH1 0x5 DUP3 ADD SLOAD DUP2 MSTORE PUSH1 0x20 ADD PUSH1 0x6 DUP3 ADD SLOAD DUP2 MSTORE PUSH1 0x20 ADD PUSH1 0x7 DUP3 ADD PUSH1 0x0 SWAP1 SLOAD SWAP1 PUSH2 0x100 EXP SWAP1 DIV PUSH20 0xFFFFFFFFFFFFFFFFFFFFFFFFFFFFFFFFFFFFFFFF AND PUSH20 0xFFFFFFFFFFFFFFFFFFFFFFFFFFFFFFFFFFFFFFFF AND PUSH20 0xFFFFFFFFFFFFFFFFFFFFFFFFFFFFFFFFFFFFFFFF AND DUP2 MSTORE PUSH1 0x20 ADD PUSH1 0x8 DUP3 ADD PUSH1 0x40 MLOAD DUP1 PUSH1 0xC0 ADD PUSH1 0x40 MSTORE SWAP1 DUP2 PUSH1 0x0 DUP3 ADD DUP1 SLOAD PUSH2 0x1A15 SWAP1 PUSH2 0x3737 JUMP JUMPDEST DUP1 PUSH1 0x1F ADD PUSH1 0x20 DUP1 SWAP2 DIV MUL PUSH1 0x20 ADD PUSH1 0x40 MLOAD SWAP1 DUP2 ADD PUSH1 0x40 MSTORE DUP1 SWAP3 SWAP2 SWAP1 DUP2 DUP2 MSTORE PUSH1 0x20 ADD DUP3 DUP1 SLOAD PUSH2 0x1A41 SWAP1 PUSH2 0x3737 JUMP JUMPDEST DUP1 ISZERO PUSH2 0x1A8E JUMPI DUP1 PUSH1 0x1F LT PUSH2 0x1A63 JUMPI PUSH2 0x100 DUP1 DUP4 SLOAD DIV MUL DUP4 MSTORE SWAP2 PUSH1 0x20 ADD SWAP2 PUSH2 0x1A8E JUMP JUMPDEST DUP3 ADD SWAP2 SWAP1 PUSH1 0x0 MSTORE PUSH1 0x20 PUSH1 0x0 KECCAK256 SWAP1 JUMPDEST DUP2 SLOAD DUP2 MSTORE SWAP1 PUSH1 0x1 ADD SWAP1 PUSH1 0x20 ADD DUP1 DUP4 GT PUSH2 0x1A71 JUMPI DUP3 SWAP1 SUB PUSH1 0x1F AND DUP3 ADD SWAP2 JUMPDEST POP POP POP POP POP DUP2 MSTORE PUSH1 0x20 ADD PUSH1 0x1 DUP3 ADD DUP1 SLOAD PUSH2 0x1AA7 SWAP1 PUSH2 0x3737 JUMP JUMPDEST DUP1 PUSH1 0x1F ADD PUSH1 0x20 DUP1 SWAP2 DIV MUL PUSH1 0x20 ADD PUSH1 0x40 MLOAD SWAP1 DUP2 ADD PUSH1 0x40 MSTORE DUP1 SWAP3 SWAP2 SWAP1 DUP2 DUP2 MSTORE PUSH1 0x20 ADD DUP3 DUP1 SLOAD PUSH2 0x1AD3 SWAP1 PUSH2 0x3737 JUMP JUMPDEST DUP1 ISZERO PUSH2 0x1B20 JUMPI DUP1 PUSH1 0x1F LT PUSH2 0x1AF5 JUMPI PUSH2 0x100 DUP1 DUP4 SLOAD DIV MUL DUP4 MSTORE SWAP2 PUSH1 0x20 ADD SWAP2 PUSH2 0x1B20 JUMP JUMPDEST DUP3 ADD SWAP2 SWAP1 PUSH1 0x0 MSTORE PUSH1 0x20 PUSH1 0x0 KECCAK256 SWAP1 JUMPDEST DUP2 SLOAD DUP2 MSTORE SWAP1 PUSH1 0x1 ADD SWAP1 PUSH1 0x20 ADD DUP1 DUP4 GT PUSH2 0x1B03 JUMPI DUP3 SWAP1 SUB PUSH1 0x1F AND DUP3 ADD SWAP2 JUMPDEST POP POP POP POP POP DUP2 MSTORE PUSH1 0x20 ADD PUSH1 0x2 DUP3 ADD PUSH1 0x0 SWAP1 SLOAD SWAP1 PUSH2 0x100 EXP SWAP1 DIV PUSH1 0xFF AND PUSH1 0x4 DUP2 GT ISZERO PUSH2 0x1B4E JUMPI PUSH2 0x1B4D PUSH2 0x2DC2 JUMP JUMPDEST JUMPDEST PUSH1 0x4 DUP2 GT ISZERO PUSH2 0x1B60 JUMPI PUSH2 0x1B5F PUSH2 0x2DC2 JUMP JUMPDEST JUMPDEST DUP2 MSTORE PUSH1 0x20 ADD PUSH1 0x2 DUP3 ADD PUSH1 0x1 SWAP1 SLOAD SWAP1 PUSH2 0x100 EXP SWAP1 DIV PUSH1 0xFF AND PUSH1 0x4 DUP2 GT ISZERO PUSH2 0x1B89 JUMPI PUSH2 0x1B88 PUSH2 0x2DC2 JUMP JUMPDEST JUMPDEST PUSH1 0x4 DUP2 GT ISZERO PUSH2 0x1B9B JUMPI PUSH2 0x1B9A PUSH2 0x2DC2 JUMP JUMPDEST JUMPDEST DUP2 MSTORE PUSH1 0x20 ADD PUSH1 0x2 DUP3 ADD PUSH1 0x2 SWAP1 SLOAD SWAP1 PUSH2 0x100 EXP SWAP1 DIV PUSH1 0xFF AND PUSH1 0x4 DUP2 GT ISZERO PUSH2 0x1BC4 JUMPI PUSH2 0x1BC3 PUSH2 0x2DC2 JUMP JUMPDEST JUMPDEST PUSH1 0x4 DUP2 GT ISZERO PUSH2 0x1BD6 JUMPI PUSH2 0x1BD5 PUSH2 0x2DC2 JUMP JUMPDEST JUMPDEST DUP2 MSTORE PUSH1 0x20 ADD PUSH1 0x2 DUP3 ADD PUSH1 0x3 SWAP1 SLOAD SWAP1 PUSH2 0x100 EXP SWAP1 DIV PUSH1 0xFF AND PUSH1 0x4 DUP2 GT ISZERO PUSH2 0x1BFF JUMPI PUSH2 0x1BFE PUSH2 0x2DC2 JUMP JUMPDEST JUMPDEST PUSH1 0x4 DUP2 GT ISZERO PUSH2 0x1C11 JUMPI PUSH2 0x1C10 PUSH2 0x2DC2 JUMP JUMPDEST JUMPDEST DUP2 MSTORE POP POP DUP2 MSTORE PUSH1 0x20 ADD PUSH1 0xB DUP3 ADD DUP1 SLOAD PUSH2 0x1C29 SWAP1 PUSH2 0x3737 JUMP JUMPDEST DUP1 PUSH1 0x1F ADD PUSH1 0x20 DUP1 SWAP2 DIV MUL PUSH1 0x20 ADD PUSH1 0x40 MLOAD SWAP1 DUP2 ADD PUSH1 0x40 MSTORE DUP1 SWAP3 SWAP2 SWAP1 DUP2 DUP2 MSTORE PUSH1 0x20 ADD DUP3 DUP1 SLOAD PUSH2 0x1C55 SWAP1 PUSH2 0x3737 JUMP JUMPDEST DUP1 ISZERO PUSH2 0x1CA2 JUMPI DUP1 PUSH1 0x1F LT PUSH2 0x1C77 JUMPI PUSH2 0x100 DUP1 DUP4 SLOAD DIV MUL DUP4 MSTORE SWAP2 PUSH1 0x20 ADD SWAP2 PUSH2 0x1CA2 JUMP JUMPDEST DUP3 ADD SWAP2 SWAP1 PUSH1 0x0 MSTORE PUSH1 0x20 PUSH1 0x0 KECCAK256 SWAP1 JUMPDEST DUP2 SLOAD DUP2 MSTORE SWAP1 PUSH1 0x1 ADD SWAP1 PUSH1 0x20 ADD DUP1 DUP4 GT PUSH2 0x1C85 JUMPI DUP3 SWAP1 SUB PUSH1 0x1F AND DUP3 ADD SWAP2 JUMPDEST POP POP POP POP POP DUP2 MSTORE PUSH1 0x20 ADD PUSH1 0xC DUP3 ADD PUSH1 0x0 SWAP1 SLOAD SWAP1 PUSH2 0x100 EXP SWAP1 DIV PUSH1 0xFF AND ISZERO ISZERO ISZERO ISZERO DUP2 MSTORE PUSH1 0x20 ADD PUSH1 0xD DUP3 ADD DUP1 SLOAD PUSH2 0x1CD6 SWAP1 PUSH2 0x3737 JUMP JUMPDEST DUP1 PUSH1 0x1F ADD PUSH1 0x20 DUP1 SWAP2 DIV MUL PUSH1 0x20 ADD PUSH1 0x40 MLOAD SWAP1 DUP2 ADD PUSH1 0x40 MSTORE DUP1 SWAP3 SWAP2 SWAP1 DUP2 DUP2 MSTORE PUSH1 0x20 ADD DUP3 DUP1 SLOAD PUSH2 0x1D02 SWAP1 PUSH2 0x3737 JUMP JUMPDEST DUP1 ISZERO PUSH2 0x1D4F JUMPI DUP1 PUSH1 0x1F LT PUSH2 0x1D24 JUMPI PUSH2 0x100 DUP1 DUP4 SLOAD DIV MUL DUP4 MSTORE SWAP2 PUSH1 0x20 ADD SWAP2 PUSH2 0x1D4F JUMP JUMPDEST DUP3 ADD SWAP2 SWAP1 PUSH1 0x0 MSTORE PUSH1 0x20 PUSH1 0x0 KECCAK256 SWAP1 JUMPDEST DUP2 SLOAD DUP2 MSTORE SWAP1 PUSH1 0x1 ADD SWAP1 PUSH1 0x20 ADD DUP1 DUP4 GT PUSH2 0x1D32 JUMPI DUP3 SWAP1 SUB PUSH1 0x1F AND DUP3 ADD SWAP2 JUMPDEST POP POP POP POP POP DUP2 MSTORE POP POP SWAP1 POP SWAP2 SWAP1 POP JUMP JUMPDEST PUSH1 0x0 PUSH1 0x1 SLOAD SWAP1 POP SWAP1 JUMP JUMPDEST PUSH1 0x8 DUP2 DUP1 MLOAD PUSH1 0x20 DUP2 ADD DUP3 ADD DUP1 MLOAD DUP5 DUP3 MSTORE PUSH1 0x20 DUP4 ADD PUSH1 0x20 DUP6 ADD KECCAK256 DUP2 DUP4 MSTORE DUP1 SWAP6 POP POP POP POP POP POP PUSH1 0x0 SWAP2 POP SWAP1 POP DUP1 PUSH1 0x0 ADD DUP1 SLOAD PUSH2 0x1DA2 SWAP1 PUSH2 0x3737 JUMP JUMPDEST DUP1 PUSH1 0x1F ADD PUSH1 0x20 DUP1 SWAP2 DIV MUL PUSH1 0x20 ADD PUSH1 0x40 MLOAD SWAP1 DUP2 ADD PUSH1 0x40 MSTORE DUP1 SWAP3 SWAP2 SWAP1 DUP2 DUP2 MSTORE PUSH1 0x20 ADD DUP3 DUP1 SLOAD PUSH2 0x1DCE SWAP1 PUSH2 0x3737 JUMP JUMPDEST DUP1 ISZERO PUSH2 0x1E1B JUMPI DUP1 PUSH1 0x1F LT PUSH2 0x1DF0 JUMPI PUSH2 0x100 DUP1 DUP4 SLOAD DIV MUL DUP4 MSTORE SWAP2 PUSH1 0x20 ADD SWAP2 PUSH2 0x1E1B JUMP JUMPDEST DUP3 ADD SWAP2 SWAP1 PUSH1 0x0 MSTORE PUSH1 0x20 PUSH1 0x0 KECCAK256 SWAP1 JUMPDEST DUP2 SLOAD DUP2 MSTORE SWAP1 PUSH1 0x1 ADD SWAP1 PUSH1 0x20 ADD DUP1 DUP4 GT PUSH2 0x1DFE JUMPI DUP3 SWAP1 SUB PUSH1 0x1F AND DUP3 ADD SWAP2 JUMPDEST POP POP POP POP POP SWAP1 DUP1 PUSH1 0x1 ADD SLOAD SWAP1 POP DUP3 JUMP JUMPDEST PUSH1 0x3 PUSH1 0x20 MSTORE DUP1 PUSH1 0x0 MSTORE PUSH1 0x40 PUSH1 0x0 KECCAK256 PUSH1 0x0 SWAP2 POP SWAP1 POP DUP1 PUSH1 0x0 ADD PUSH1 0x0 SWAP1 SLOAD SWAP1 PUSH2 0x100 EXP SWAP1 DIV PUSH20 0xFFFFFFFFFFFFFFFFFFFFFFFFFFFFFFFFFFFFFFFF AND SWAP1 DUP1 PUSH1 0x1 ADD SLOAD SWAP1 DUP1 PUSH1 0x2 ADD DUP1 SLOAD PUSH2 0x1E7A SWAP1 PUSH2 0x3737 JUMP JUMPDEST DUP1 PUSH1 0x1F ADD PUSH1 0x20 DUP1 SWAP2 DIV MUL PUSH1 0x20 ADD PUSH1 0x40 MLOAD SWAP1 DUP2 ADD PUSH1 0x40 MSTORE DUP1 SWAP3 SWAP2 SWAP1 DUP2 DUP2 MSTORE PUSH1 0x20 ADD DUP3 DUP1 SLOAD PUSH2 0x1EA6 SWAP1 PUSH2 0x3737 JUMP JUMPDEST DUP1 ISZERO PUSH2 0x1EF3 JUMPI DUP1 PUSH1 0x1F LT PUSH2 0x1EC8 JUMPI PUSH2 0x100 DUP1 DUP4 SLOAD DIV MUL DUP4 MSTORE SWAP2 PUSH1 0x20 ADD SWAP2 PUSH2 0x1EF3 JUMP JUMPDEST DUP3 ADD SWAP2 SWAP1 PUSH1 0x0 MSTORE PUSH1 0x20 PUSH1 0x0 KECCAK256 SWAP1 JUMPDEST DUP2 SLOAD DUP2 MSTORE SWAP1 PUSH1 0x1 ADD SWAP1 PUSH1 0x20 ADD DUP1 DUP4 GT PUSH2 0x1ED6 JUMPI DUP3 SWAP1 SUB PUSH1 0x1F AND DUP3 ADD SWAP2 JUMPDEST POP POP POP POP POP SWAP1 DUP1 PUSH1 0x3 ADD DUP1 SLOAD PUSH2 0x1F08 SWAP1 PUSH2 0x3737 JUMP JUMPDEST DUP1 PUSH1 0x1F ADD PUSH1 0x20 DUP1 SWAP2 DIV MUL PUSH1 0x20 ADD PUSH1 0x40 MLOAD SWAP1 DUP2 ADD PUSH1 0x40 MSTORE DUP1 SWAP3 SWAP2 SWAP1 DUP2 DUP2 MSTORE PUSH1 0x20 ADD DUP3 DUP1 SLOAD PUSH2 0x1F34 SWAP1 PUSH2 0x3737 JUMP JUMPDEST DUP1 ISZERO PUSH2 0x1F81 JUMPI DUP1 PUSH1 0x1F LT PUSH2 0x1F56 JUMPI PUSH2 0x100 DUP1 DUP4 SLOAD DIV MUL DUP4 MSTORE SWAP2 PUSH1 0x20 ADD SWAP2 PUSH2 0x1F81 JUMP JUMPDEST DUP3 ADD SWAP2 SWAP1 PUSH1 0x0 MSTORE PUSH1 0x20 PUSH1 0x0 KECCAK256 SWAP1 JUMPDEST DUP2 SLOAD DUP2 MSTORE SWAP1 PUSH1 0x1 ADD SWAP1 PUSH1 0x20 ADD DUP1 DUP4 GT PUSH2 0x1F64 JUMPI DUP3 SWAP1 SUB PUSH1 0x1F AND DUP3 ADD SWAP2 JUMPDEST POP POP POP POP POP SWAP1 POP DUP5 JUMP JUMPDEST PUSH1 0x0 PUSH2 0x2096 PUSH1 0x3 PUSH1 0x0 CALLER PUSH20 0xFFFFFFFFFFFFFFFFFFFFFFFFFFFFFFFFFFFFFFFF AND PUSH20 0xFFFFFFFFFFFFFFFFFFFFFFFFFFFFFFFFFFFFFFFF AND DUP2 MSTORE PUSH1 0x20 ADD SWAP1 DUP2 MSTORE PUSH1 0x20 ADD PUSH1 0x0 KECCAK256 PUSH1 0x3 ADD DUP1 SLOAD PUSH2 0x1FDD SWAP1 PUSH2 0x3737 JUMP JUMPDEST DUP1 PUSH1 0x1F ADD PUSH1 0x20 DUP1 SWAP2 DIV MUL PUSH1 0x20 ADD PUSH1 0x40 MLOAD SWAP1 DUP2 ADD PUSH1 0x40 MSTORE DUP1 SWAP3 SWAP2 SWAP1 DUP2 DUP2 MSTORE PUSH1 0x20 ADD DUP3 DUP1 SLOAD PUSH2 0x2009 SWAP1 PUSH2 0x3737 JUMP JUMPDEST DUP1 ISZERO PUSH2 0x2056 JUMPI DUP1 PUSH1 0x1F LT PUSH2 0x202B JUMPI PUSH2 0x100 DUP1 DUP4 SLOAD DIV MUL DUP4 MSTORE SWAP2 PUSH1 0x20 ADD SWAP2 PUSH2 0x2056 JUMP JUMPDEST DUP3 ADD SWAP2 SWAP1 PUSH1 0x0 MSTORE PUSH1 0x20 PUSH1 0x0 KECCAK256 SWAP1 JUMPDEST DUP2 SLOAD DUP2 MSTORE SWAP1 PUSH1 0x1 ADD SWAP1 PUSH1 0x20 ADD DUP1 DUP4 GT PUSH2 0x2039 JUMPI DUP3 SWAP1 SUB PUSH1 0x1F AND DUP3 ADD SWAP2 JUMPDEST POP POP POP POP POP PUSH1 0x40 MLOAD DUP1 PUSH1 0x40 ADD PUSH1 0x40 MSTORE DUP1 PUSH1 0x13 DUP2 MSTORE PUSH1 0x20 ADD PUSH32 0x446973747269627574696F6E20576F726B657200000000000000000000000000 DUP2 MSTORE POP PUSH2 0x288C JUMP JUMPDEST DUP1 PUSH2 0x21A6 JUMPI POP PUSH2 0x21A5 PUSH1 0x3 PUSH1 0x0 CALLER PUSH20 0xFFFFFFFFFFFFFFFFFFFFFFFFFFFFFFFFFFFFFFFF AND PUSH20 0xFFFFFFFFFFFFFFFFFFFFFFFFFFFFFFFFFFFFFFFF AND DUP2 MSTORE PUSH1 0x20 ADD SWAP1 DUP2 MSTORE PUSH1 0x20 ADD PUSH1 0x0 KECCAK256 PUSH1 0x3 ADD DUP1 SLOAD PUSH2 0x20EC SWAP1 PUSH2 0x3737 JUMP JUMPDEST DUP1 PUSH1 0x1F ADD PUSH1 0x20 DUP1 SWAP2 DIV MUL PUSH1 0x20 ADD PUSH1 0x40 MLOAD SWAP1 DUP2 ADD PUSH1 0x40 MSTORE DUP1 SWAP3 SWAP2 SWAP1 DUP2 DUP2 MSTORE PUSH1 0x20 ADD DUP3 DUP1 SLOAD PUSH2 0x2118 SWAP1 PUSH2 0x3737 JUMP JUMPDEST DUP1 ISZERO PUSH2 0x2165 JUMPI DUP1 PUSH1 0x1F LT PUSH2 0x213A JUMPI PUSH2 0x100 DUP1 DUP4 SLOAD DIV MUL DUP4 MSTORE SWAP2 PUSH1 0x20 ADD SWAP2 PUSH2 0x2165 JUMP JUMPDEST DUP3 ADD SWAP2 SWAP1 PUSH1 0x0 MSTORE PUSH1 0x20 PUSH1 0x0 KECCAK256 SWAP1 JUMPDEST DUP2 SLOAD DUP2 MSTORE SWAP1 PUSH1 0x1 ADD SWAP1 PUSH1 0x20 ADD DUP1 DUP4 GT PUSH2 0x2148 JUMPI DUP3 SWAP1 SUB PUSH1 0x1F AND DUP3 ADD SWAP2 JUMPDEST POP POP POP POP POP PUSH1 0x40 MLOAD DUP1 PUSH1 0x40 ADD PUSH1 0x40 MSTORE DUP1 PUSH1 0xD DUP2 MSTORE PUSH1 0x20 ADD PUSH32 0x52657461696C20576F726B657200000000000000000000000000000000000000 DUP2 MSTORE POP PUSH2 0x288C JUMP JUMPDEST JUMPDEST DUP1 PUSH2 0x21FC JUMPI POP PUSH1 0x0 DUP1 SLOAD SWAP1 PUSH2 0x100 EXP SWAP1 DIV PUSH20 0xFFFFFFFFFFFFFFFFFFFFFFFFFFFFFFFFFFFFFFFF AND PUSH20 0xFFFFFFFFFFFFFFFFFFFFFFFFFFFFFFFFFFFFFFFF AND CALLER PUSH20 0xFFFFFFFFFFFFFFFFFFFFFFFFFFFFFFFFFFFFFFFF AND EQ JUMPDEST PUSH2 0x2205 JUMPI PUSH1 0x0 DUP1 REVERT JUMPDEST PUSH2 0x22B8 DUP4 PUSH1 0x4 DUP7 PUSH1 0x40 MLOAD PUSH2 0x2219 SWAP2 SWAP1 PUSH2 0x37A4 JUMP JUMPDEST SWAP1 DUP2 MSTORE PUSH1 0x20 ADD PUSH1 0x40 MLOAD DUP1 SWAP2 SUB SWAP1 KECCAK256 PUSH1 0xB ADD DUP1 SLOAD PUSH2 0x2235 SWAP1 PUSH2 0x3737 JUMP JUMPDEST DUP1 PUSH1 0x1F ADD PUSH1 0x20 DUP1 SWAP2 DIV MUL PUSH1 0x20 ADD PUSH1 0x40 MLOAD SWAP1 DUP2 ADD PUSH1 0x40 MSTORE DUP1 SWAP3 SWAP2 SWAP1 DUP2 DUP2 MSTORE PUSH1 0x20 ADD DUP3 DUP1 SLOAD PUSH2 0x2261 SWAP1 PUSH2 0x3737 JUMP JUMPDEST DUP1 ISZERO PUSH2 0x22AE JUMPI DUP1 PUSH1 0x1F LT PUSH2 0x2283 JUMPI PUSH2 0x100 DUP1 DUP4 SLOAD DIV MUL DUP4 MSTORE SWAP2 PUSH1 0x20 ADD SWAP2 PUSH2 0x22AE JUMP JUMPDEST DUP3 ADD SWAP2 SWAP1 PUSH1 0x0 MSTORE PUSH1 0x20 PUSH1 0x0 KECCAK256 SWAP1 JUMPDEST DUP2 SLOAD DUP2 MSTORE SWAP1 PUSH1 0x1 ADD SWAP1 PUSH1 0x20 ADD DUP1 DUP4 GT PUSH2 0x2291 JUMPI DUP3 SWAP1 SUB PUSH1 0x1F AND DUP3 ADD SWAP2 JUMPDEST POP POP POP POP POP PUSH2 0x288C JUMP JUMPDEST ISZERO PUSH2 0x232F JUMPI DUP2 PUSH1 0x4 DUP6 PUSH1 0x40 MLOAD PUSH2 0x22CE SWAP2 SWAP1 PUSH2 0x37A4 JUMP JUMPDEST SWAP1 DUP2 MSTORE PUSH1 0x20 ADD PUSH1 0x40 MLOAD DUP1 SWAP2 SUB SWAP1 KECCAK256 PUSH1 0xD ADD SWAP1 DUP2 PUSH2 0x22EB SWAP2 SWAP1 PUSH2 0x3967 JUMP JUMPDEST POP PUSH1 0x0 PUSH1 0x4 DUP6 PUSH1 0x40 MLOAD PUSH2 0x22FE SWAP2 SWAP1 PUSH2 0x37A4 JUMP JUMPDEST SWAP1 DUP2 MSTORE PUSH1 0x20 ADD PUSH1 0x40 MLOAD DUP1 SWAP2 SUB SWAP1 KECCAK256 PUSH1 0xC ADD PUSH1 0x0 PUSH2 0x100 EXP DUP2 SLOAD DUP2 PUSH1 0xFF MUL NOT AND SWAP1 DUP4 ISZERO ISZERO MUL OR SWAP1 SSTORE POP PUSH1 0x1 SWAP1 POP PUSH2 0x2334 JUMP JUMPDEST PUSH1 0x0 SWAP1 POP JUMPDEST SWAP4 SWAP3 POP POP POP JUMP JUMPDEST PUSH1 0x0 DUP1 PUSH1 0x0 SWAP1 SLOAD SWAP1 PUSH2 0x100 EXP SWAP1 DIV PUSH20 0xFFFFFFFFFFFFFFFFFFFFFFFFFFFFFFFFFFFFFFFF AND SWAP1 POP SWAP1 JUMP JUMPDEST PUSH1 0x0 PUSH2 0x246F PUSH1 0x3 PUSH1 0x0 CALLER PUSH20 0xFFFFFFFFFFFFFFFFFFFFFFFFFFFFFFFFFFFFFFFF AND PUSH20 0xFFFFFFFFFFFFFFFFFFFFFFFFFFFFFFFFFFFFFFFF AND DUP2 MSTORE PUSH1 0x20 ADD SWAP1 DUP2 MSTORE PUSH1 0x20 ADD PUSH1 0x0 KECCAK256 PUSH1 0x3 ADD DUP1 SLOAD PUSH2 0x23B6 SWAP1 PUSH2 0x3737 JUMP JUMPDEST DUP1 PUSH1 0x1F ADD PUSH1 0x20 DUP1 SWAP2 DIV MUL PUSH1 0x20 ADD PUSH1 0x40 MLOAD SWAP1 DUP2 ADD PUSH1 0x40 MSTORE DUP1 SWAP3 SWAP2 SWAP1 DUP2 DUP2 MSTORE PUSH1 0x20 ADD DUP3 DUP1 SLOAD PUSH2 0x23E2 SWAP1 PUSH2 0x3737 JUMP JUMPDEST DUP1 ISZERO PUSH2 0x242F JUMPI DUP1 PUSH1 0x1F LT PUSH2 0x2404 JUMPI PUSH2 0x100 DUP1 DUP4 SLOAD DIV MUL DUP4 MSTORE SWAP2 PUSH1 0x20 ADD SWAP2 PUSH2 0x242F JUMP JUMPDEST DUP3 ADD SWAP2 SWAP1 PUSH1 0x0 MSTORE PUSH1 0x20 PUSH1 0x0 KECCAK256 SWAP1 JUMPDEST DUP2 SLOAD DUP2 MSTORE SWAP1 PUSH1 0x1 ADD SWAP1 PUSH1 0x20 ADD DUP1 DUP4 GT PUSH2 0x2412 JUMPI DUP3 SWAP1 SUB PUSH1 0x1F AND DUP3 ADD SWAP2 JUMPDEST POP POP POP POP POP PUSH1 0x40 MLOAD DUP1 PUSH1 0x40 ADD PUSH1 0x40 MSTORE DUP1 PUSH1 0x13 DUP2 MSTORE PUSH1 0x20 ADD PUSH32 0x446973747269627574696F6E20576F726B657200000000000000000000000000 DUP2 MSTORE POP PUSH2 0x288C JUMP JUMPDEST DUP1 PUSH2 0x257F JUMPI POP PUSH2 0x257E PUSH1 0x3 PUSH1 0x0 CALLER PUSH20 0xFFFFFFFFFFFFFFFFFFFFFFFFFFFFFFFFFFFFFFFF AND PUSH20 0xFFFFFFFFFFFFFFFFFFFFFFFFFFFFFFFFFFFFFFFF AND DUP2 MSTORE PUSH1 0x20 ADD SWAP1 DUP2 MSTORE PUSH1 0x20 ADD PUSH1 0x0 KECCAK256 PUSH1 0x3 ADD DUP1 SLOAD PUSH2 0x24C5 SWAP1 PUSH2 0x3737 JUMP JUMPDEST DUP1 PUSH1 0x1F ADD PUSH1 0x20 DUP1 SWAP2 DIV MUL PUSH1 0x20 ADD PUSH1 0x40 MLOAD SWAP1 DUP2 ADD PUSH1 0x40 MSTORE DUP1 SWAP3 SWAP2 SWAP1 DUP2 DUP2 MSTORE PUSH1 0x20 ADD DUP3 DUP1 SLOAD PUSH2 0x24F1 SWAP1 PUSH2 0x3737 JUMP JUMPDEST DUP1 ISZERO PUSH2 0x253E JUMPI DUP1 PUSH1 0x1F LT PUSH2 0x2513 JUMPI PUSH2 0x100 DUP1 DUP4 SLOAD DIV MUL DUP4 MSTORE SWAP2 PUSH1 0x20 ADD SWAP2 PUSH2 0x253E JUMP JUMPDEST DUP3 ADD SWAP2 SWAP1 PUSH1 0x0 MSTORE PUSH1 0x20 PUSH1 0x0 KECCAK256 SWAP1 JUMPDEST DUP2 SLOAD DUP2 MSTORE SWAP1 PUSH1 0x1 ADD SWAP1 PUSH1 0x20 ADD DUP1 DUP4 GT PUSH2 0x2521 JUMPI DUP3 SWAP1 SUB PUSH1 0x1F AND DUP3 ADD SWAP2 JUMPDEST POP POP POP POP POP PUSH1 0x40 MLOAD DUP1 PUSH1 0x40 ADD PUSH1 0x40 MSTORE DUP1 PUSH1 0xB DUP2 MSTORE PUSH1 0x20 ADD PUSH32 0x4661726D20576F726B6572000000000000000000000000000000000000000000 DUP2 MSTORE POP PUSH2 0x288C JUMP JUMPDEST JUMPDEST DUP1 PUSH2 0x25D5 JUMPI POP PUSH1 0x0 DUP1 SLOAD SWAP1 PUSH2 0x100 EXP SWAP1 DIV PUSH20 0xFFFFFFFFFFFFFFFFFFFFFFFFFFFFFFFFFFFFFFFF AND PUSH20 0xFFFFFFFFFFFFFFFFFFFFFFFFFFFFFFFFFFFFFFFF AND CALLER PUSH20 0xFFFFFFFFFFFFFFFFFFFFFFFFFFFFFFFFFFFFFFFF AND EQ JUMPDEST PUSH2 0x25DE JUMPI PUSH1 0x0 DUP1 REVERT JUMPDEST PUSH2 0x2691 DUP5 PUSH1 0x4 DUP5 PUSH1 0x40 MLOAD PUSH2 0x25F2 SWAP2 SWAP1 PUSH2 0x37A4 JUMP JUMPDEST SWAP1 DUP2 MSTORE PUSH1 0x20 ADD PUSH1 0x40 MLOAD DUP1 SWAP2 SUB SWAP1 KECCAK256 PUSH1 0xB ADD DUP1 SLOAD PUSH2 0x260E SWAP1 PUSH2 0x3737 JUMP JUMPDEST DUP1 PUSH1 0x1F ADD PUSH1 0x20 DUP1 SWAP2 DIV MUL PUSH1 0x20 ADD PUSH1 0x40 MLOAD SWAP1 DUP2 ADD PUSH1 0x40 MSTORE DUP1 SWAP3 SWAP2 SWAP1 DUP2 DUP2 MSTORE PUSH1 0x20 ADD DUP3 DUP1 SLOAD PUSH2 0x263A SWAP1 PUSH2 0x3737 JUMP JUMPDEST DUP1 ISZERO PUSH2 0x2687 JUMPI DUP1 PUSH1 0x1F LT PUSH2 0x265C JUMPI PUSH2 0x100 DUP1 DUP4 SLOAD DIV MUL DUP4 MSTORE SWAP2 PUSH1 0x20 ADD SWAP2 PUSH2 0x2687 JUMP JUMPDEST DUP3 ADD SWAP2 SWAP1 PUSH1 0x0 MSTORE PUSH1 0x20 PUSH1 0x0 KECCAK256 SWAP1 JUMPDEST DUP2 SLOAD DUP2 MSTORE SWAP1 PUSH1 0x1 ADD SWAP1 PUSH1 0x20 ADD DUP1 DUP4 GT PUSH2 0x266A JUMPI DUP3 SWAP1 SUB PUSH1 0x1F AND DUP3 ADD SWAP2 JUMPDEST POP POP POP POP POP PUSH2 0x288C JUMP JUMPDEST ISZERO PUSH2 0x2708 JUMPI DUP3 PUSH1 0x4 DUP4 PUSH1 0x40 MLOAD PUSH2 0x26A7 SWAP2 SWAP1 PUSH2 0x37A4 JUMP JUMPDEST SWAP1 DUP2 MSTORE PUSH1 0x20 ADD PUSH1 0x40 MLOAD DUP1 SWAP2 SUB SWAP1 KECCAK256 PUSH1 0xB ADD SWAP1 DUP2 PUSH2 0x26C4 SWAP2 SWAP1 PUSH2 0x3967 JUMP JUMPDEST POP PUSH1 0x1 PUSH1 0x4 DUP4 PUSH1 0x40 MLOAD PUSH2 0x26D7 SWAP2 SWAP1 PUSH2 0x37A4 JUMP JUMPDEST SWAP1 DUP2 MSTORE PUSH1 0x20 ADD PUSH1 0x40 MLOAD DUP1 SWAP2 SUB SWAP1 KECCAK256 PUSH1 0xC ADD PUSH1 0x0 PUSH2 0x100 EXP DUP2 SLOAD DUP2 PUSH1 0xFF MUL NOT AND SWAP1 DUP4 ISZERO ISZERO MUL OR SWAP1 SSTORE POP PUSH1 0x1 SWAP1 POP PUSH2 0x270D JUMP JUMPDEST PUSH1 0x0 SWAP1 POP JUMPDEST SWAP4 SWAP3 POP POP POP JUMP JUMPDEST PUSH1 0x0 DUP1 SLOAD SWAP1 PUSH2 0x100 EXP SWAP1 DIV PUSH20 0xFFFFFFFFFFFFFFFFFFFFFFFFFFFFFFFFFFFFFFFF AND DUP1 PUSH20 0xFFFFFFFFFFFFFFFFFFFFFFFFFFFFFFFFFFFFFFFF AND CALLER PUSH20 0xFFFFFFFFFFFFFFFFFFFFFFFFFFFFFFFFFFFFFFFF AND EQ PUSH2 0x276D JUMPI PUSH1 0x0 DUP1 REVERT JUMPDEST PUSH1 0x40 MLOAD DUP1 PUSH1 0x80 ADD PUSH1 0x40 MSTORE DUP1 DUP7 PUSH20 0xFFFFFFFFFFFFFFFFFFFFFFFFFFFFFFFFFFFFFFFF AND DUP2 MSTORE PUSH1 0x20 ADD DUP6 DUP2 MSTORE PUSH1 0x20 ADD DUP5 DUP2 MSTORE PUSH1 0x20 ADD DUP4 DUP2 MSTORE POP PUSH1 0x3 PUSH1 0x0 DUP8 PUSH20 0xFFFFFFFFFFFFFFFFFFFFFFFFFFFFFFFFFFFFFFFF AND PUSH20 0xFFFFFFFFFFFFFFFFFFFFFFFFFFFFFFFFFFFFFFFF AND DUP2 MSTORE PUSH1 0x20 ADD SWAP1 DUP2 MSTORE PUSH1 0x20 ADD PUSH1 0x0 KECCAK256 PUSH1 0x0 DUP3 ADD MLOAD DUP2 PUSH1 0x0 ADD PUSH1 0x0 PUSH2 0x100 EXP DUP2 SLOAD DUP2 PUSH20 0xFFFFFFFFFFFFFFFFFFFFFFFFFFFFFFFFFFFFFFFF MUL NOT AND SWAP1 DUP4 PUSH20 0xFFFFFFFFFFFFFFFFFFFFFFFFFFFFFFFFFFFFFFFF AND MUL OR SWAP1 SSTORE POP PUSH1 0x20 DUP3 ADD MLOAD DUP2 PUSH1 0x1 ADD SSTORE PUSH1 0x40 DUP3 ADD MLOAD DUP2 PUSH1 0x2 ADD SWAP1 DUP2 PUSH2 0x2849 SWAP2 SWAP1 PUSH2 0x3967 JUMP JUMPDEST POP PUSH1 0x60 DUP3 ADD MLOAD DUP2 PUSH1 0x3 ADD SWAP1 DUP2 PUSH2 0x285F SWAP2 SWAP1 PUSH2 0x3967 JUMP JUMPDEST POP SWAP1 POP POP PUSH1 0x2 PUSH1 0x0 DUP2 SLOAD DUP1 SWAP3 SWAP2 SWAP1 PUSH2 0x2876 SWAP1 PUSH2 0x3A68 JUMP JUMPDEST SWAP2 SWAP1 POP SSTORE POP POP POP POP POP POP JUMP JUMPDEST PUSH1 0x0 PUSH1 0x2 SLOAD SWAP1 POP SWAP1 JUMP JUMPDEST PUSH1 0x0 DUP2 PUSH1 0x40 MLOAD PUSH1 0x20 ADD PUSH2 0x289F SWAP2 SWAP1 PUSH2 0x37A4 JUMP JUMPDEST PUSH1 0x40 MLOAD PUSH1 0x20 DUP2 DUP4 SUB SUB DUP2 MSTORE SWAP1 PUSH1 0x40 MSTORE DUP1 MLOAD SWAP1 PUSH1 0x20 ADD KECCAK256 DUP4 PUSH1 0x40 MLOAD PUSH1 0x20 ADD PUSH2 0x28C6 SWAP2 SWAP1 PUSH2 0x37A4 JUMP JUMPDEST PUSH1 0x40 MLOAD PUSH1 0x20 DUP2 DUP4 SUB SUB DUP2 MSTORE SWAP1 PUSH1 0x40 MSTORE DUP1 MLOAD SWAP1 PUSH1 0x20 ADD KECCAK256 EQ SWAP1 POP SWAP3 SWAP2 POP POP JUMP JUMPDEST PUSH1 0x0 PUSH1 0x1 DUP3 SUB PUSH2 0x28F8 JUMPI PUSH1 0x0 SWAP1 POP PUSH2 0x2941 JUMP JUMPDEST PUSH1 0x2 DUP3 SUB PUSH2 0x2909 JUMPI PUSH1 0x1 SWAP1 POP PUSH2 0x2941 JUMP JUMPDEST PUSH1 0x3 DUP3 SUB PUSH2 0x291A JUMPI PUSH1 0x2 SWAP1 POP PUSH2 0x2941 JUMP JUMPDEST PUSH1 0x4 DUP3 SUB PUSH2 0x292B JUMPI PUSH1 0x3 SWAP1 POP PUSH2 0x2941 JUMP JUMPDEST PUSH1 0x5 DUP3 SUB PUSH2 0x293C JUMPI PUSH1 0x4 SWAP1 POP PUSH2 0x2941 JUMP JUMPDEST PUSH1 0x2 SWAP1 POP JUMPDEST SWAP2 SWAP1 POP JUMP JUMPDEST PUSH1 0x40 MLOAD DUP1 PUSH2 0x180 ADD PUSH1 0x40 MSTORE DUP1 PUSH1 0x60 DUP2 MSTORE PUSH1 0x20 ADD PUSH1 0x60 DUP2 MSTORE PUSH1 0x20 ADD PUSH1 0x0 DUP2 MSTORE PUSH1 0x20 ADD PUSH1 0x0 DUP2 MSTORE PUSH1 0x20 ADD PUSH1 0x0 PUSH20 0xFFFFFFFFFFFFFFFFFFFFFFFFFFFFFFFFFFFFFFFF AND DUP2 MSTORE PUSH1 0x20 ADD PUSH1 0x0 DUP2 MSTORE PUSH1 0x20 ADD PUSH1 0x0 DUP2 MSTORE PUSH1 0x20 ADD PUSH1 0x0 PUSH20 0xFFFFFFFFFFFFFFFFFFFFFFFFFFFFFFFFFFFFFFFF AND DUP2 MSTORE PUSH1 0x20 ADD PUSH2 0x29BE PUSH2 0x29DB JUMP JUMPDEST DUP2 MSTORE PUSH1 0x20 ADD PUSH1 0x60 DUP2 MSTORE PUSH1 0x20 ADD PUSH1 0x0 ISZERO ISZERO DUP2 MSTORE PUSH1 0x20 ADD PUSH1 0x60 DUP2 MSTORE POP SWAP1 JUMP JUMPDEST PUSH1 0x40 MLOAD DUP1 PUSH1 0xC0 ADD PUSH1 0x40 MSTORE DUP1 PUSH1 0x60 DUP2 MSTORE PUSH1 0x20 ADD PUSH1 0x60 DUP2 MSTORE PUSH1 0x20 ADD PUSH1 0x0 PUSH1 0x4 DUP2 GT ISZERO PUSH2 0x2A08 JUMPI PUSH2 0x2A07 PUSH2 0x2DC2 JUMP JUMPDEST JUMPDEST DUP2 MSTORE PUSH1 0x20 ADD PUSH1 0x0 PUSH1 0x4 DUP2 GT ISZERO PUSH2 0x2A21 JUMPI PUSH2 0x2A20 PUSH2 0x2DC2 JUMP JUMPDEST JUMPDEST DUP2 MSTORE PUSH1 0x20 ADD PUSH1 0x0 PUSH1 0x4 DUP2 GT ISZERO PUSH2 0x2A3A JUMPI PUSH2 0x2A39 PUSH2 0x2DC2 JUMP JUMPDEST JUMPDEST DUP2 MSTORE PUSH1 0x20 ADD PUSH1 0x0 PUSH1 0x4 DUP2 GT ISZERO PUSH2 0x2A53 JUMPI PUSH2 0x2A52 PUSH2 0x2DC2 JUMP JUMPDEST JUMPDEST DUP2 MSTORE POP SWAP1 JUMP JUMPDEST PUSH1 0x0 PUSH1 0x40 MLOAD SWAP1 POP SWAP1 JUMP JUMPDEST PUSH1 0x0 DUP1 REVERT JUMPDEST PUSH1 0x0 DUP1 REVERT JUMPDEST PUSH1 0x0 DUP1 REVERT JUMPDEST PUSH1 0x0 DUP1 REVERT JUMPDEST PUSH1 0x0 PUSH1 0x1F NOT PUSH1 0x1F DUP4 ADD AND SWAP1 POP SWAP2 SWAP1 POP JUMP JUMPDEST PUSH32 0x4E487B7100000000000000000000000000000000000000000000000000000000 PUSH1 0x0 MSTORE PUSH1 0x41 PUSH1 0x4 MSTORE PUSH1 0x24 PUSH1 0x0 REVERT JUMPDEST PUSH2 0x2AC0 DUP3 PUSH2 0x2A77 JUMP JUMPDEST DUP2 ADD DUP2 DUP2 LT PUSH8 0xFFFFFFFFFFFFFFFF DUP3 GT OR ISZERO PUSH2 0x2ADF JUMPI PUSH2 0x2ADE PUSH2 0x2A88 JUMP JUMPDEST JUMPDEST DUP1 PUSH1 0x40 MSTORE POP POP POP JUMP JUMPDEST PUSH1 0x0 PUSH2 0x2AF2 PUSH2 0x2A59 JUMP JUMPDEST SWAP1 POP PUSH2 0x2AFE DUP3 DUP3 PUSH2 0x2AB7 JUMP JUMPDEST SWAP2 SWAP1 POP JUMP JUMPDEST PUSH1 0x0 PUSH8 0xFFFFFFFFFFFFFFFF DUP3 GT ISZERO PUSH2 0x2B1E JUMPI PUSH2 0x2B1D PUSH2 0x2A88 JUMP JUMPDEST JUMPDEST PUSH2 0x2B27 DUP3 PUSH2 0x2A77 JUMP JUMPDEST SWAP1 POP PUSH1 0x20 DUP2 ADD SWAP1 POP SWAP2 SWAP1 POP JUMP JUMPDEST DUP3 DUP2 DUP4 CALLDATACOPY PUSH1 0x0 DUP4 DUP4 ADD MSTORE POP POP POP JUMP JUMPDEST PUSH1 0x0 PUSH2 0x2B56 PUSH2 0x2B51 DUP5 PUSH2 0x2B03 JUMP JUMPDEST PUSH2 0x2AE8 JUMP JUMPDEST SWAP1 POP DUP3 DUP2 MSTORE PUSH1 0x20 DUP2 ADD DUP5 DUP5 DUP5 ADD GT ISZERO PUSH2 0x2B72 JUMPI PUSH2 0x2B71 PUSH2 0x2A72 JUMP JUMPDEST JUMPDEST PUSH2 0x2B7D DUP5 DUP3 DUP6 PUSH2 0x2B34 JUMP JUMPDEST POP SWAP4 SWAP3 POP POP POP JUMP JUMPDEST PUSH1 0x0 DUP3 PUSH1 0x1F DUP4 ADD SLT PUSH2 0x2B9A JUMPI PUSH2 0x2B99 PUSH2 0x2A6D JUMP JUMPDEST JUMPDEST DUP2 CALLDATALOAD PUSH2 0x2BAA DUP5 DUP3 PUSH1 0x20 DUP7 ADD PUSH2 0x2B43 JUMP JUMPDEST SWAP2 POP POP SWAP3 SWAP2 POP POP JUMP JUMPDEST PUSH1 0x0 DUP2 SWAP1 POP SWAP2 SWAP1 POP JUMP JUMPDEST PUSH2 0x2BC6 DUP2 PUSH2 0x2BB3 JUMP JUMPDEST DUP2 EQ PUSH2 0x2BD1 JUMPI PUSH1 0x0 DUP1 REVERT JUMPDEST POP JUMP JUMPDEST PUSH1 0x0 DUP2 CALLDATALOAD SWAP1 POP PUSH2 0x2BE3 DUP2 PUSH2 0x2BBD JUMP JUMPDEST SWAP3 SWAP2 POP POP JUMP JUMPDEST PUSH1 0x0 DUP1 PUSH1 0x40 DUP4 DUP6 SUB SLT ISZERO PUSH2 0x2C00 JUMPI PUSH2 0x2BFF PUSH2 0x2A63 JUMP JUMPDEST JUMPDEST PUSH1 0x0 DUP4 ADD CALLDATALOAD PUSH8 0xFFFFFFFFFFFFFFFF DUP2 GT ISZERO PUSH2 0x2C1E JUMPI PUSH2 0x2C1D PUSH2 0x2A68 JUMP JUMPDEST JUMPDEST PUSH2 0x2C2A DUP6 DUP3 DUP7 ADD PUSH2 0x2B85 JUMP JUMPDEST SWAP3 POP POP PUSH1 0x20 PUSH2 0x2C3B DUP6 DUP3 DUP7 ADD PUSH2 0x2BD4 JUMP JUMPDEST SWAP2 POP POP SWAP3 POP SWAP3 SWAP1 POP JUMP JUMPDEST PUSH2 0x2C4E DUP2 PUSH2 0x2BB3 JUMP JUMPDEST DUP3 MSTORE POP POP JUMP JUMPDEST PUSH1 0x0 PUSH1 0x20 DUP3 ADD SWAP1 POP PUSH2 0x2C69 PUSH1 0x0 DUP4 ADD DUP5 PUSH2 0x2C45 JUMP JUMPDEST SWAP3 SWAP2 POP POP JUMP JUMPDEST PUSH1 0x0 PUSH1 0x20 DUP3 DUP5 SUB SLT ISZERO PUSH2 0x2C85 JUMPI PUSH2 0x2C84 PUSH2 0x2A63 JUMP JUMPDEST JUMPDEST PUSH1 0x0 DUP3 ADD CALLDATALOAD PUSH8 0xFFFFFFFFFFFFFFFF DUP2 GT ISZERO PUSH2 0x2CA3 JUMPI PUSH2 0x2CA2 PUSH2 0x2A68 JUMP JUMPDEST JUMPDEST PUSH2 0x2CAF DUP5 DUP3 DUP6 ADD PUSH2 0x2B85 JUMP JUMPDEST SWAP2 POP POP SWAP3 SWAP2 POP POP JUMP JUMPDEST PUSH1 0x0 DUP2 MLOAD SWAP1 POP SWAP2 SWAP1 POP JUMP JUMPDEST PUSH1 0x0 DUP3 DUP3 MSTORE PUSH1 0x20 DUP3 ADD SWAP1 POP SWAP3 SWAP2 POP POP JUMP JUMPDEST PUSH1 0x0 JUMPDEST DUP4 DUP2 LT ISZERO PUSH2 0x2CF2 JUMPI DUP1 DUP3 ADD MLOAD DUP2 DUP5 ADD MSTORE PUSH1 0x20 DUP2 ADD SWAP1 POP PUSH2 0x2CD7 JUMP JUMPDEST PUSH1 0x0 DUP5 DUP5 ADD MSTORE POP POP POP POP JUMP JUMPDEST PUSH1 0x0 PUSH2 0x2D09 DUP3 PUSH2 0x2CB8 JUMP JUMPDEST PUSH2 0x2D13 DUP2 DUP6 PUSH2 0x2CC3 JUMP JUMPDEST SWAP4 POP PUSH2 0x2D23 DUP2 DUP6 PUSH1 0x20 DUP7 ADD PUSH2 0x2CD4 JUMP JUMPDEST PUSH2 0x2D2C DUP2 PUSH2 0x2A77 JUMP JUMPDEST DUP5 ADD SWAP2 POP POP SWAP3 SWAP2 POP POP JUMP JUMPDEST PUSH1 0x0 PUSH20 0xFFFFFFFFFFFFFFFFFFFFFFFFFFFFFFFFFFFFFFFF DUP3 AND SWAP1 POP SWAP2 SWAP1 POP JUMP JUMPDEST PUSH1 0x0 PUSH2 0x2D62 DUP3 PUSH2 0x2D37 JUMP JUMPDEST SWAP1 POP SWAP2 SWAP1 POP JUMP JUMPDEST PUSH2 0x2D72 DUP2 PUSH2 0x2D57 JUMP JUMPDEST DUP3 MSTORE POP POP JUMP JUMPDEST PUSH1 0x0 DUP3 DUP3 MSTORE PUSH1 0x20 DUP3 ADD SWAP1 POP SWAP3 SWAP2 POP POP JUMP JUMPDEST PUSH1 0x0 PUSH2 0x2D94 DUP3 PUSH2 0x2CB8 JUMP JUMPDEST PUSH2 0x2D9E DUP2 DUP6 PUSH2 0x2D78 JUMP JUMPDEST SWAP4 POP PUSH2 0x2DAE DUP2 DUP6 PUSH1 0x20 DUP7 ADD PUSH2 0x2CD4 JUMP JUMPDEST PUSH2 0x2DB7 DUP2 PUSH2 0x2A77 JUMP JUMPDEST DUP5 ADD SWAP2 POP POP SWAP3 SWAP2 POP POP JUMP JUMPDEST PUSH32 0x4E487B7100000000000000000000000000000000000000000000000000000000 PUSH1 0x0 MSTORE PUSH1 0x21 PUSH1 0x4 MSTORE PUSH1 0x24 PUSH1 0x0 REVERT JUMPDEST PUSH1 0x5 DUP2 LT PUSH2 0x2E02 JUMPI PUSH2 0x2E01 PUSH2 0x2DC2 JUMP JUMPDEST JUMPDEST POP JUMP JUMPDEST PUSH1 0x0 DUP2 SWAP1 POP PUSH2 0x2E13 DUP3 PUSH2 0x2DF1 JUMP JUMPDEST SWAP2 SWAP1 POP JUMP JUMPDEST PUSH1 0x0 PUSH2 0x2E23 DUP3 PUSH2 0x2E05 JUMP JUMPDEST SWAP1 POP SWAP2 SWAP1 POP JUMP JUMPDEST PUSH2 0x2E33 DUP2 PUSH2 0x2E18 JUMP JUMPDEST DUP3 MSTORE POP POP JUMP JUMPDEST PUSH1 0x0 PUSH1 0xC0 DUP4 ADD PUSH1 0x0 DUP4 ADD MLOAD DUP5 DUP3 SUB PUSH1 0x0 DUP7 ADD MSTORE PUSH2 0x2E56 DUP3 DUP3 PUSH2 0x2D89 JUMP JUMPDEST SWAP2 POP POP PUSH1 0x20 DUP4 ADD MLOAD DUP5 DUP3 SUB PUSH1 0x20 DUP7 ADD MSTORE PUSH2 0x2E70 DUP3 DUP3 PUSH2 0x2D89 JUMP JUMPDEST SWAP2 POP POP PUSH1 0x40 DUP4 ADD MLOAD PUSH2 0x2E85 PUSH1 0x40 DUP7 ADD DUP3 PUSH2 0x2E2A JUMP JUMPDEST POP PUSH1 0x60 DUP4 ADD MLOAD PUSH2 0x2E98 PUSH1 0x60 DUP7 ADD DUP3 PUSH2 0x2E2A JUMP JUMPDEST POP PUSH1 0x80 DUP4 ADD MLOAD PUSH2 0x2EAB PUSH1 0x80 DUP7 ADD DUP3 PUSH2 0x2E2A JUMP JUMPDEST POP PUSH1 0xA0 DUP4 ADD MLOAD PUSH2 0x2EBE PUSH1 0xA0 DUP7 ADD DUP3 PUSH2 0x2E2A JUMP JUMPDEST POP DUP1 SWAP2 POP POP SWAP3 SWAP2 POP POP JUMP JUMPDEST PUSH1 0x0 DUP2 ISZERO ISZERO SWAP1 POP SWAP2 SWAP1 POP JUMP JUMPDEST PUSH2 0x2EDE DUP2 PUSH2 0x2EC9 JUMP JUMPDEST DUP3 MSTORE POP POP JUMP JUMPDEST PUSH1 0x0 PUSH2 0x180 DUP3 ADD SWAP1 POP DUP2 DUP2 SUB PUSH1 0x0 DUP4 ADD MSTORE PUSH2 0x2EFF DUP2 DUP16 PUSH2 0x2CFE JUMP JUMPDEST SWAP1 POP DUP2 DUP2 SUB PUSH1 0x20 DUP4 ADD MSTORE PUSH2 0x2F13 DUP2 DUP15 PUSH2 0x2CFE JUMP JUMPDEST SWAP1 POP PUSH2 0x2F22 PUSH1 0x40 DUP4 ADD DUP14 PUSH2 0x2C45 JUMP JUMPDEST PUSH2 0x2F2F PUSH1 0x60 DUP4 ADD DUP13 PUSH2 0x2C45 JUMP JUMPDEST PUSH2 0x2F3C PUSH1 0x80 DUP4 ADD DUP12 PUSH2 0x2D69 JUMP JUMPDEST PUSH2 0x2F49 PUSH1 0xA0 DUP4 ADD DUP11 PUSH2 0x2C45 JUMP JUMPDEST PUSH2 0x2F56 PUSH1 0xC0 DUP4 ADD DUP10 PUSH2 0x2C45 JUMP JUMPDEST PUSH2 0x2F63 PUSH1 0xE0 DUP4 ADD DUP9 PUSH2 0x2D69 JUMP JUMPDEST DUP2 DUP2 SUB PUSH2 0x100 DUP4 ADD MSTORE PUSH2 0x2F76 DUP2 DUP8 PUSH2 0x2E39 JUMP JUMPDEST SWAP1 POP DUP2 DUP2 SUB PUSH2 0x120 DUP4 ADD MSTORE PUSH2 0x2F8B DUP2 DUP7 PUSH2 0x2CFE JUMP JUMPDEST SWAP1 POP PUSH2 0x2F9B PUSH2 0x140 DUP4 ADD DUP6 PUSH2 0x2ED5 JUMP JUMPDEST DUP2 DUP2 SUB PUSH2 0x160 DUP4 ADD MSTORE PUSH2 0x2FAE DUP2 DUP5 PUSH2 0x2CFE JUMP JUMPDEST SWAP1 POP SWAP14 SWAP13 POP POP POP POP POP POP POP POP POP POP POP POP POP JUMP JUMPDEST PUSH2 0x2FCA DUP2 PUSH2 0x2D57 JUMP JUMPDEST DUP2 EQ PUSH2 0x2FD5 JUMPI PUSH1 0x0 DUP1 REVERT JUMPDEST POP JUMP JUMPDEST PUSH1 0x0 DUP2 CALLDATALOAD SWAP1 POP PUSH2 0x2FE7 DUP2 PUSH2 0x2FC1 JUMP JUMPDEST SWAP3 SWAP2 POP POP JUMP JUMPDEST PUSH1 0x0 DUP1 PUSH1 0x40 DUP4 DUP6 SUB SLT ISZERO PUSH2 0x3004 JUMPI PUSH2 0x3003 PUSH2 0x2A63 JUMP JUMPDEST JUMPDEST PUSH1 0x0 PUSH2 0x3012 DUP6 DUP3 DUP7 ADD PUSH2 0x2FD8 JUMP JUMPDEST SWAP3 POP POP PUSH1 0x20 DUP4 ADD CALLDATALOAD PUSH8 0xFFFFFFFFFFFFFFFF DUP2 GT ISZERO PUSH2 0x3033 JUMPI PUSH2 0x3032 PUSH2 0x2A68 JUMP JUMPDEST JUMPDEST PUSH2 0x303F DUP6 DUP3 DUP7 ADD PUSH2 0x2B85 JUMP JUMPDEST SWAP2 POP POP SWAP3 POP SWAP3 SWAP1 POP JUMP JUMPDEST PUSH1 0x0 PUSH1 0x20 DUP3 ADD SWAP1 POP DUP2 DUP2 SUB PUSH1 0x0 DUP4 ADD MSTORE PUSH2 0x3063 DUP2 DUP5 PUSH2 0x2CFE JUMP JUMPDEST SWAP1 POP SWAP3 SWAP2 POP POP JUMP JUMPDEST PUSH1 0x0 DUP1 PUSH1 0x0 DUP1 PUSH1 0x0 DUP1 PUSH1 0xC0 DUP8 DUP10 SUB SLT ISZERO PUSH2 0x3088 JUMPI PUSH2 0x3087 PUSH2 0x2A63 JUMP JUMPDEST JUMPDEST PUSH1 0x0 DUP8 ADD CALLDATALOAD PUSH8 0xFFFFFFFFFFFFFFFF DUP2 GT ISZERO PUSH2 0x30A6 JUMPI PUSH2 0x30A5 PUSH2 0x2A68 JUMP JUMPDEST JUMPDEST PUSH2 0x30B2 DUP10 DUP3 DUP11 ADD PUSH2 0x2B85 JUMP JUMPDEST SWAP7 POP POP PUSH1 0x20 DUP8 ADD CALLDATALOAD PUSH8 0xFFFFFFFFFFFFFFFF DUP2 GT ISZERO PUSH2 0x30D3 JUMPI PUSH2 0x30D2 PUSH2 0x2A68 JUMP JUMPDEST JUMPDEST PUSH2 0x30DF DUP10 DUP3 DUP11 ADD PUSH2 0x2B85 JUMP JUMPDEST SWAP6 POP POP PUSH1 0x40 PUSH2 0x30F0 DUP10 DUP3 DUP11 ADD PUSH2 0x2BD4 JUMP JUMPDEST SWAP5 POP POP PUSH1 0x60 PUSH2 0x3101 DUP10 DUP3 DUP11 ADD PUSH2 0x2BD4 JUMP JUMPDEST SWAP4 POP POP PUSH1 0x80 PUSH2 0x3112 DUP10 DUP3 DUP11 ADD PUSH2 0x2BD4 JUMP JUMPDEST SWAP3 POP POP PUSH1 0xA0 PUSH2 0x3123 DUP10 DUP3 DUP11 ADD PUSH2 0x2BD4 JUMP JUMPDEST SWAP2 POP POP SWAP3 SWAP6 POP SWAP3 SWAP6 POP SWAP3 SWAP6 JUMP JUMPDEST PUSH1 0x0 PUSH2 0x313B DUP3 PUSH2 0x2D37 JUMP JUMPDEST SWAP1 POP SWAP2 SWAP1 POP JUMP JUMPDEST PUSH2 0x314B DUP2 PUSH2 0x3130 JUMP JUMPDEST DUP3 MSTORE POP POP JUMP JUMPDEST PUSH1 0x0 PUSH1 0x20 DUP3 ADD SWAP1 POP PUSH2 0x3166 PUSH1 0x0 DUP4 ADD DUP5 PUSH2 0x3142 JUMP JUMPDEST SWAP3 SWAP2 POP POP JUMP JUMPDEST PUSH1 0x0 PUSH8 0xFFFFFFFFFFFFFFFF DUP3 GT ISZERO PUSH2 0x3187 JUMPI PUSH2 0x3186 PUSH2 0x2A88 JUMP JUMPDEST JUMPDEST PUSH1 0x20 DUP3 MUL SWAP1 POP SWAP2 SWAP1 POP JUMP JUMPDEST PUSH1 0x0 DUP1 REVERT JUMPDEST PUSH1 0x0 PUSH2 0x31AA PUSH2 0x31A5 DUP5 PUSH2 0x316C JUMP JUMPDEST PUSH2 0x2AE8 JUMP JUMPDEST SWAP1 POP DUP1 PUSH1 0x20 DUP5 MUL DUP4 ADD DUP6 DUP2 GT ISZERO PUSH2 0x31C4 JUMPI PUSH2 0x31C3 PUSH2 0x3192 JUMP JUMPDEST JUMPDEST DUP4 JUMPDEST DUP2 DUP2 LT ISZERO PUSH2 0x31ED JUMPI DUP1 PUSH2 0x31D9 DUP9 DUP3 PUSH2 0x2BD4 JUMP JUMPDEST DUP5 MSTORE PUSH1 0x20 DUP5 ADD SWAP4 POP POP PUSH1 0x20 DUP2 ADD SWAP1 POP PUSH2 0x31C6 JUMP JUMPDEST POP POP POP SWAP4 SWAP3 POP POP POP JUMP JUMPDEST PUSH1 0x0 DUP3 PUSH1 0x1F DUP4 ADD SLT PUSH2 0x320C JUMPI PUSH2 0x320B PUSH2 0x2A6D JUMP JUMPDEST JUMPDEST PUSH1 0x4 PUSH2 0x3219 DUP5 DUP3 DUP6 PUSH2 0x3197 JUMP JUMPDEST SWAP2 POP POP SWAP3 SWAP2 POP POP JUMP JUMPDEST PUSH1 0x0 DUP1 PUSH1 0x0 DUP1 PUSH1 0xE0 DUP6 DUP8 SUB SLT ISZERO PUSH2 0x323C JUMPI PUSH2 0x323B PUSH2 0x2A63 JUMP JUMPDEST JUMPDEST PUSH1 0x0 DUP6 ADD CALLDATALOAD PUSH8 0xFFFFFFFFFFFFFFFF DUP2 GT ISZERO PUSH2 0x325A JUMPI PUSH2 0x3259 PUSH2 0x2A68 JUMP JUMPDEST JUMPDEST PUSH2 0x3266 DUP8 DUP3 DUP9 ADD PUSH2 0x2B85 JUMP JUMPDEST SWAP5 POP POP PUSH1 0x20 DUP6 ADD CALLDATALOAD PUSH8 0xFFFFFFFFFFFFFFFF DUP2 GT ISZERO PUSH2 0x3287 JUMPI PUSH2 0x3286 PUSH2 0x2A68 JUMP JUMPDEST JUMPDEST PUSH2 0x3293 DUP8 DUP3 DUP9 ADD PUSH2 0x2B85 JUMP JUMPDEST SWAP4 POP POP PUSH1 0x40 DUP6 ADD CALLDATALOAD PUSH8 0xFFFFFFFFFFFFFFFF DUP2 GT ISZERO PUSH2 0x32B4 JUMPI PUSH2 0x32B3 PUSH2 0x2A68 JUMP JUMPDEST JUMPDEST PUSH2 0x32C0 DUP8 DUP3 DUP9 ADD PUSH2 0x2B85 JUMP JUMPDEST SWAP3 POP POP PUSH1 0x60 PUSH2 0x32D1 DUP8 DUP3 DUP9 ADD PUSH2 0x31F7 JUMP JUMPDEST SWAP2 POP POP SWAP3 SWAP6 SWAP2 SWAP5 POP SWAP3 POP JUMP JUMPDEST PUSH2 0x32E6 DUP2 PUSH2 0x2BB3 JUMP JUMPDEST DUP3 MSTORE POP POP JUMP JUMPDEST PUSH2 0x32F5 DUP2 PUSH2 0x2D57 JUMP JUMPDEST DUP3 MSTORE POP POP JUMP JUMPDEST PUSH1 0x0 PUSH1 0xC0 DUP4 ADD PUSH1 0x0 DUP4 ADD MLOAD DUP5 DUP3 SUB PUSH1 0x0 DUP7 ADD MSTORE PUSH2 0x3318 DUP3 DUP3 PUSH2 0x2D89 JUMP JUMPDEST SWAP2 POP POP PUSH1 0x20 DUP4 ADD MLOAD DUP5 DUP3 SUB PUSH1 0x20 DUP7 ADD MSTORE PUSH2 0x3332 DUP3 DUP3 PUSH2 0x2D89 JUMP JUMPDEST SWAP2 POP POP PUSH1 0x40 DUP4 ADD MLOAD PUSH2 0x3347 PUSH1 0x40 DUP7 ADD DUP3 PUSH2 0x2E2A JUMP JUMPDEST POP PUSH1 0x60 DUP4 ADD MLOAD PUSH2 0x335A PUSH1 0x60 DUP7 ADD DUP3 PUSH2 0x2E2A JUMP JUMPDEST POP PUSH1 0x80 DUP4 ADD MLOAD PUSH2 0x336D PUSH1 0x80 DUP7 ADD DUP3 PUSH2 0x2E2A JUMP JUMPDEST POP PUSH1 0xA0 DUP4 ADD MLOAD PUSH2 0x3380 PUSH1 0xA0 DUP7 ADD DUP3 PUSH2 0x2E2A JUMP JUMPDEST POP DUP1 SWAP2 POP POP SWAP3 SWAP2 POP POP JUMP JUMPDEST PUSH2 0x3394 DUP2 PUSH2 0x2EC9 JUMP JUMPDEST DUP3 MSTORE POP POP JUMP JUMPDEST PUSH1 0x0 PUSH2 0x180 DUP4 ADD PUSH1 0x0 DUP4 ADD MLOAD DUP5 DUP3 SUB PUSH1 0x0 DUP7 ADD MSTORE PUSH2 0x33B8 DUP3 DUP3 PUSH2 0x2D89 JUMP JUMPDEST SWAP2 POP POP PUSH1 0x20 DUP4 ADD MLOAD DUP5 DUP3 SUB PUSH1 0x20 DUP7 ADD MSTORE PUSH2 0x33D2 DUP3 DUP3 PUSH2 0x2D89 JUMP JUMPDEST SWAP2 POP POP PUSH1 0x40 DUP4 ADD MLOAD PUSH2 0x33E7 PUSH1 0x40 DUP7 ADD DUP3 PUSH2 0x32DD JUMP JUMPDEST POP PUSH1 0x60 DUP4 ADD MLOAD PUSH2 0x33FA PUSH1 0x60 DUP7 ADD DUP3 PUSH2 0x32DD JUMP JUMPDEST POP PUSH1 0x80 DUP4 ADD MLOAD PUSH2 0x340D PUSH1 0x80 DUP7 ADD DUP3 PUSH2 0x32EC JUMP JUMPDEST POP PUSH1 0xA0 DUP4 ADD MLOAD PUSH2 0x3420 PUSH1 0xA0 DUP7 ADD DUP3 PUSH2 0x32DD JUMP JUMPDEST POP PUSH1 0xC0 DUP4 ADD MLOAD PUSH2 0x3433 PUSH1 0xC0 DUP7 ADD DUP3 PUSH2 0x32DD JUMP JUMPDEST POP PUSH1 0xE0 DUP4 ADD MLOAD PUSH2 0x3446 PUSH1 0xE0 DUP7 ADD DUP3 PUSH2 0x32EC JUMP JUMPDEST POP PUSH2 0x100 DUP4 ADD MLOAD DUP5 DUP3 SUB PUSH2 0x100 DUP7 ADD MSTORE PUSH2 0x3460 DUP3 DUP3 PUSH2 0x32FB JUMP JUMPDEST SWAP2 POP POP PUSH2 0x120 DUP4 ADD MLOAD DUP5 DUP3 SUB PUSH2 0x120 DUP7 ADD MSTORE PUSH2 0x347C DUP3 DUP3 PUSH2 0x2D89 JUMP JUMPDEST SWAP2 POP POP PUSH2 0x140 DUP4 ADD MLOAD PUSH2 0x3493 PUSH2 0x140 DUP7 ADD DUP3 PUSH2 0x338B JUMP JUMPDEST POP PUSH2 0x160 DUP4 ADD MLOAD DUP5 DUP3 SUB PUSH2 0x160 DUP7 ADD MSTORE PUSH2 0x34AD DUP3 DUP3 PUSH2 0x2D89 JUMP JUMPDEST SWAP2 POP POP DUP1 SWAP2 POP POP SWAP3 SWAP2 POP POP JUMP JUMPDEST PUSH1 0x0 PUSH1 0x20 DUP3 ADD SWAP1 POP DUP2 DUP2 SUB PUSH1 0x0 DUP4 ADD MSTORE PUSH2 0x34D4 DUP2 DUP5 PUSH2 0x339A JUMP JUMPDEST SWAP1 POP SWAP3 SWAP2 POP POP JUMP JUMPDEST PUSH1 0x0 PUSH1 0x40 DUP3 ADD SWAP1 POP DUP2 DUP2 SUB PUSH1 0x0 DUP4 ADD MSTORE PUSH2 0x34F6 DUP2 DUP6 PUSH2 0x2CFE JUMP JUMPDEST SWAP1 POP PUSH2 0x3505 PUSH1 0x20 DUP4 ADD DUP5 PUSH2 0x2C45 JUMP JUMPDEST SWAP4 SWAP3 POP POP POP JUMP JUMPDEST PUSH1 0x0 PUSH1 0x20 DUP3 DUP5 SUB SLT ISZERO PUSH2 0x3522 JUMPI PUSH2 0x3521 PUSH2 0x2A63 JUMP JUMPDEST JUMPDEST PUSH1 0x0 PUSH2 0x3530 DUP5 DUP3 DUP6 ADD PUSH2 0x2FD8 JUMP JUMPDEST SWAP2 POP POP SWAP3 SWAP2 POP POP JUMP JUMPDEST PUSH1 0x0 PUSH1 0x80 DUP3 ADD SWAP1 POP PUSH2 0x354E PUSH1 0x0 DUP4 ADD DUP8 PUSH2 0x2D69 JUMP JUMPDEST PUSH2 0x355B PUSH1 0x20 DUP4 ADD DUP7 PUSH2 0x2C45 JUMP JUMPDEST DUP2 DUP2 SUB PUSH1 0x40 DUP4 ADD MSTORE PUSH2 0x356D DUP2 DUP6 PUSH2 0x2CFE JUMP JUMPDEST SWAP1 POP DUP2 DUP2 SUB PUSH1 0x60 DUP4 ADD MSTORE PUSH2 0x3581 DUP2 DUP5 PUSH2 0x2CFE JUMP JUMPDEST SWAP1 POP SWAP6 SWAP5 POP POP POP POP POP JUMP JUMPDEST PUSH1 0x0 DUP1 PUSH1 0x0 PUSH1 0x60 DUP5 DUP7 SUB SLT ISZERO PUSH2 0x35A5 JUMPI PUSH2 0x35A4 PUSH2 0x2A63 JUMP JUMPDEST JUMPDEST PUSH1 0x0 DUP5 ADD CALLDATALOAD PUSH8 0xFFFFFFFFFFFFFFFF DUP2 GT ISZERO PUSH2 0x35C3 JUMPI PUSH2 0x35C2 PUSH2 0x2A68 JUMP JUMPDEST JUMPDEST PUSH2 0x35CF DUP7 DUP3 DUP8 ADD PUSH2 0x2B85 JUMP JUMPDEST SWAP4 POP POP PUSH1 0x20 DUP5 ADD CALLDATALOAD PUSH8 0xFFFFFFFFFFFFFFFF DUP2 GT ISZERO PUSH2 0x35F0 JUMPI PUSH2 0x35EF PUSH2 0x2A68 JUMP JUMPDEST JUMPDEST PUSH2 0x35FC DUP7 DUP3 DUP8 ADD PUSH2 0x2B85 JUMP JUMPDEST SWAP3 POP POP PUSH1 0x40 DUP5 ADD CALLDATALOAD PUSH8 0xFFFFFFFFFFFFFFFF DUP2 GT ISZERO PUSH2 0x361D JUMPI PUSH2 0x361C PUSH2 0x2A68 JUMP JUMPDEST JUMPDEST PUSH2 0x3629 DUP7 DUP3 DUP8 ADD PUSH2 0x2B85 JUMP JUMPDEST SWAP2 POP POP SWAP3 POP SWAP3 POP SWAP3 JUMP JUMPDEST PUSH1 0x0 PUSH1 0x20 DUP3 ADD SWAP1 POP PUSH2 0x3648 PUSH1 0x0 DUP4 ADD DUP5 PUSH2 0x2ED5 JUMP JUMPDEST SWAP3 SWAP2 POP POP JUMP JUMPDEST PUSH1 0x0 PUSH1 0x20 DUP3 ADD SWAP1 POP PUSH2 0x3663 PUSH1 0x0 DUP4 ADD DUP5 PUSH2 0x2D69 JUMP JUMPDEST SWAP3 SWAP2 POP POP JUMP JUMPDEST PUSH1 0x0 DUP1 PUSH1 0x0 DUP1 PUSH1 0x80 DUP6 DUP8 SUB SLT ISZERO PUSH2 0x3683 JUMPI PUSH2 0x3682 PUSH2 0x2A63 JUMP JUMPDEST JUMPDEST PUSH1 0x0 PUSH2 0x3691 DUP8 DUP3 DUP9 ADD PUSH2 0x2FD8 JUMP JUMPDEST SWAP5 POP POP PUSH1 0x20 PUSH2 0x36A2 DUP8 DUP3 DUP9 ADD PUSH2 0x2BD4 JUMP JUMPDEST SWAP4 POP POP PUSH1 0x40 DUP6 ADD CALLDATALOAD PUSH8 0xFFFFFFFFFFFFFFFF DUP2 GT ISZERO PUSH2 0x36C3 JUMPI PUSH2 0x36C2 PUSH2 0x2A68 JUMP JUMPDEST JUMPDEST PUSH2 0x36CF DUP8 DUP3 DUP9 ADD PUSH2 0x2B85 JUMP JUMPDEST SWAP3 POP POP PUSH1 0x60 DUP6 ADD CALLDATALOAD PUSH8 0xFFFFFFFFFFFFFFFF DUP2 GT ISZERO PUSH2 0x36F0 JUMPI PUSH2 0x36EF PUSH2 0x2A68 JUMP JUMPDEST JUMPDEST PUSH2 0x36FC DUP8 DUP3 DUP9 ADD PUSH2 0x2B85 JUMP JUMPDEST SWAP2 POP POP SWAP3 SWAP6 SWAP2 SWAP5 POP SWAP3 POP JUMP JUMPDEST PUSH32 0x4E487B7100000000000000000000000000000000000000000000000000000000 PUSH1 0x0 MSTORE PUSH1 0x22 PUSH1 0x4 MSTORE PUSH1 0x24 PUSH1 0x0 REVERT JUMPDEST PUSH1 0x0 PUSH1 0x2 DUP3 DIV SWAP1 POP PUSH1 0x1 DUP3 AND DUP1 PUSH2 0x374F JUMPI PUSH1 0x7F DUP3 AND SWAP2 POP JUMPDEST PUSH1 0x20 DUP3 LT DUP2 SUB PUSH2 0x3762 JUMPI PUSH2 0x3761 PUSH2 0x3708 JUMP JUMPDEST JUMPDEST POP SWAP2 SWAP1 POP JUMP JUMPDEST PUSH1 0x0 DUP2 SWAP1 POP SWAP3 SWAP2 POP POP JUMP JUMPDEST PUSH1 0x0 PUSH2 0x377E DUP3 PUSH2 0x2CB8 JUMP JUMPDEST PUSH2 0x3788 DUP2 DUP6 PUSH2 0x3768 JUMP JUMPDEST SWAP4 POP PUSH2 0x3798 DUP2 DUP6 PUSH1 0x20 DUP7 ADD PUSH2 0x2CD4 JUMP JUMPDEST DUP1 DUP5 ADD SWAP2 POP POP SWAP3 SWAP2 POP POP JUMP JUMPDEST PUSH1 0x0 PUSH2 0x37B0 DUP3 DUP5 PUSH2 0x3773 JUMP JUMPDEST SWAP2 POP DUP2 SWAP1 POP SWAP3 SWAP2 POP POP JUMP JUMPDEST PUSH1 0x0 DUP2 SWAP1 POP DUP2 PUSH1 0x0 MSTORE PUSH1 0x20 PUSH1 0x0 KECCAK256 SWAP1 POP SWAP2 SWAP1 POP JUMP JUMPDEST PUSH1 0x0 PUSH1 0x20 PUSH1 0x1F DUP4 ADD DIV SWAP1 POP SWAP2 SWAP1 POP JUMP JUMPDEST PUSH1 0x0 DUP3 DUP3 SHL SWAP1 POP SWAP3 SWAP2 POP POP JUMP JUMPDEST PUSH1 0x0 PUSH1 0x8 DUP4 MUL PUSH2 0x381D PUSH32 0xFFFFFFFFFFFFFFFFFFFFFFFFFFFFFFFFFFFFFFFFFFFFFFFFFFFFFFFFFFFFFFFF DUP3 PUSH2 0x37E0 JUMP JUMPDEST PUSH2 0x3827 DUP7 DUP4 PUSH2 0x37E0 JUMP JUMPDEST SWAP6 POP DUP1 NOT DUP5 AND SWAP4 POP DUP1 DUP7 AND DUP5 OR SWAP3 POP POP POP SWAP4 SWAP3 POP POP POP JUMP JUMPDEST PUSH1 0x0 DUP2 SWAP1 POP SWAP2 SWAP1 POP JUMP JUMPDEST PUSH1 0x0 PUSH2 0x3864 PUSH2 0x385F PUSH2 0x385A DUP5 PUSH2 0x2BB3 JUMP JUMPDEST PUSH2 0x383F JUMP JUMPDEST PUSH2 0x2BB3 JUMP JUMPDEST SWAP1 POP SWAP2 SWAP1 POP JUMP JUMPDEST PUSH1 0x0 DUP2 SWAP1 POP SWAP2 SWAP1 POP JUMP JUMPDEST PUSH2 0x387E DUP4 PUSH2 0x3849 JUMP JUMPDEST PUSH2 0x3892 PUSH2 0x388A DUP3 PUSH2 0x386B JUMP JUMPDEST DUP5 DUP5 SLOAD PUSH2 0x37ED JUMP JUMPDEST DUP3 SSTORE POP POP POP POP JUMP JUMPDEST PUSH1 0x0 SWAP1 JUMP JUMPDEST PUSH2 0x38A7 PUSH2 0x389A JUMP JUMPDEST PUSH2 0x38B2 DUP2 DUP5 DUP5 PUSH2 0x3875 JUMP JUMPDEST POP POP POP JUMP JUMPDEST JUMPDEST DUP2 DUP2 LT ISZERO PUSH2 0x38D6 JUMPI PUSH2 0x38CB PUSH1 0x0 DUP3 PUSH2 0x389F JUMP JUMPDEST PUSH1 0x1 DUP2 ADD SWAP1 POP PUSH2 0x38B8 JUMP JUMPDEST POP POP JUMP JUMPDEST PUSH1 0x1F DUP3 GT ISZERO PUSH2 0x391B JUMPI PUSH2 0x38EC DUP2 PUSH2 0x37BB JUMP JUMPDEST PUSH2 0x38F5 DUP5 PUSH2 0x37D0 JUMP JUMPDEST DUP2 ADD PUSH1 0x20 DUP6 LT ISZERO PUSH2 0x3904 JUMPI DUP2 SWAP1 POP JUMPDEST PUSH2 0x3918 PUSH2 0x3910 DUP6 PUSH2 0x37D0 JUMP JUMPDEST DUP4 ADD DUP3 PUSH2 0x38B7 JUMP JUMPDEST POP POP JUMPDEST POP POP POP JUMP JUMPDEST PUSH1 0x0 DUP3 DUP3 SHR SWAP1 POP SWAP3 SWAP2 POP POP JUMP JUMPDEST PUSH1 0x0 PUSH2 0x393E PUSH1 0x0 NOT DUP5 PUSH1 0x8 MUL PUSH2 0x3920 JUMP JUMPDEST NOT DUP1 DUP4 AND SWAP2 POP POP SWAP3 SWAP2 POP POP JUMP JUMPDEST PUSH1 0x0 PUSH2 0x3957 DUP4 DUP4 PUSH2 0x392D JUMP JUMPDEST SWAP2 POP DUP3 PUSH1 0x2 MUL DUP3 OR SWAP1 POP SWAP3 SWAP2 POP POP JUMP JUMPDEST PUSH2 0x3970 DUP3 PUSH2 0x2CB8 JUMP JUMPDEST PUSH8 0xFFFFFFFFFFFFFFFF DUP2 GT ISZERO PUSH2 0x3989 JUMPI PUSH2 0x3988 PUSH2 0x2A88 JUMP JUMPDEST JUMPDEST PUSH2 0x3993 DUP3 SLOAD PUSH2 0x3737 JUMP JUMPDEST PUSH2 0x399E DUP3 DUP3 DUP6 PUSH2 0x38DA JUMP JUMPDEST PUSH1 0x0 PUSH1 0x20 SWAP1 POP PUSH1 0x1F DUP4 GT PUSH1 0x1 DUP2 EQ PUSH2 0x39D1 JUMPI PUSH1 0x0 DUP5 ISZERO PUSH2 0x39BF JUMPI DUP3 DUP8 ADD MLOAD SWAP1 POP JUMPDEST PUSH2 0x39C9 DUP6 DUP3 PUSH2 0x394B JUMP JUMPDEST DUP7 SSTORE POP PUSH2 0x3A31 JUMP JUMPDEST PUSH1 0x1F NOT DUP5 AND PUSH2 0x39DF DUP7 PUSH2 0x37BB JUMP JUMPDEST PUSH1 0x0 JUMPDEST DUP3 DUP2 LT ISZERO PUSH2 0x3A07 JUMPI DUP5 DUP10 ADD MLOAD DUP3 SSTORE PUSH1 0x1 DUP3 ADD SWAP2 POP PUSH1 0x20 DUP6 ADD SWAP5 POP PUSH1 0x20 DUP2 ADD SWAP1 POP PUSH2 0x39E2 JUMP JUMPDEST DUP7 DUP4 LT ISZERO PUSH2 0x3A24 JUMPI DUP5 DUP10 ADD MLOAD PUSH2 0x3A20 PUSH1 0x1F DUP10 AND DUP3 PUSH2 0x392D JUMP JUMPDEST DUP4 SSTORE POP JUMPDEST PUSH1 0x1 PUSH1 0x2 DUP9 MUL ADD DUP9 SSTORE POP POP POP JUMPDEST POP POP POP POP POP POP JUMP JUMPDEST PUSH32 0x4E487B7100000000000000000000000000000000000000000000000000000000 PUSH1 0x0 MSTORE PUSH1 0x11 PUSH1 0x4 MSTORE PUSH1 0x24 PUSH1 0x0 REVERT JUMPDEST PUSH1 0x0 PUSH2 0x3A73 DUP3 PUSH2 0x2BB3 JUMP JUMPDEST SWAP2 POP PUSH32 0xFFFFFFFFFFFFFFFFFFFFFFFFFFFFFFFFFFFFFFFFFFFFFFFFFFFFFFFFFFFFFFFF DUP3 SUB PUSH2 0x3AA5 JUMPI PUSH2 0x3AA4 PUSH2 0x3A39 JUMP JUMPDEST JUMPDEST PUSH1 0x1 DUP3 ADD SWAP1 POP SWAP2 SWAP1 POP JUMP JUMPDEST PUSH1 0x0 DUP2 SLOAD PUSH2 0x3ABD DUP2 PUSH2 0x3737 JUMP JUMPDEST PUSH2 0x3AC7 DUP2 DUP7 PUSH2 0x3768 JUMP JUMPDEST SWAP5 POP PUSH1 0x1 DUP3 AND PUSH1 0x0 DUP2 EQ PUSH2 0x3AE2 JUMPI PUSH1 0x1 DUP2 EQ PUSH2 0x3AF7 JUMPI PUSH2 0x3B2A JUMP JUMPDEST PUSH1 0xFF NOT DUP4 AND DUP7 MSTORE DUP2 ISZERO ISZERO DUP3 MUL DUP7 ADD SWAP4 POP PUSH2 0x3B2A JUMP JUMPDEST PUSH2 0x3B00 DUP6 PUSH2 0x37BB JUMP JUMPDEST PUSH1 0x0 JUMPDEST DUP4 DUP2 LT ISZERO PUSH2 0x3B22 JUMPI DUP2 SLOAD DUP2 DUP10 ADD MSTORE PUSH1 0x1 DUP3 ADD SWAP2 POP PUSH1 0x20 DUP2 ADD SWAP1 POP PUSH2 0x3B03 JUMP JUMPDEST DUP4 DUP9 ADD SWAP6 POP POP POP JUMPDEST POP POP POP SWAP3 SWAP2 POP POP JUMP JUMPDEST PUSH1 0x0 PUSH2 0x3B3F DUP3 DUP5 PUSH2 0x3AB0 JUMP JUMPDEST SWAP2 POP DUP2 SWAP1 POP SWAP3 SWAP2 POP POP JUMP JUMPDEST PUSH1 0x0 PUSH2 0x3B55 DUP3 PUSH2 0x2BB3 JUMP JUMPDEST SWAP2 POP PUSH2 0x3B60 DUP4 PUSH2 0x2BB3 JUMP JUMPDEST SWAP3 POP DUP3 DUP3 MUL PUSH2 0x3B6E DUP2 PUSH2 0x2BB3 JUMP JUMPDEST SWAP2 POP DUP3 DUP3 DIV DUP5 EQ DUP4 ISZERO OR PUSH2 0x3B85 JUMPI PUSH2 0x3B84 PUSH2 0x3A39 JUMP JUMPDEST JUMPDEST POP SWAP3 SWAP2 POP POP JUMP JUMPDEST PUSH32 0x4E487B7100000000000000000000000000000000000000000000000000000000 PUSH1 0x0 MSTORE PUSH1 0x32 PUSH1 0x4 MSTORE PUSH1 0x24 PUSH1 0x0 REVERT INVALID PUSH5 0x757269616E KECCAK256 PUSH5 0x616D616765 PUSH5 0x20706C6561 PUSH20 0x652073656C65637420616E6F7468657220647572 PUSH10 0x616EA264697066735822 SLT KECCAK256 0xF8 XOR GASPRICE 0xA5 0xBF 0xB9 0xD7 SHR 0x4A ISZERO SIGNEXTEND SDIV PUSH9 0x835DB43B4ADCDCCAA1 0xC1 PUSH8 0xE3CAC4B88F8FAA4F PUSH5 0x736F6C6343 STOP ADDMOD SLT STOP CALLER "
				},
				"gasEstimates": {
					"creation": {
						"codeDepositCost": "3077600",
						"executionCost": "infinite",
						"totalCost": "infinite"
					},
					"external": {
						"PricingList(string)": "infinite",
						"addDurian(string,string,uint256,uint256,uint256,uint256)": "infinite",
						"addPrice(string,uint256)": "infinite",
						"addStaff(address,uint256,string,string)": "infinite",
						"buyDurians(address,string)": "infinite",
						"deliverDurian(string,string,string)": "infinite",
						"durianCount()": "2475",
						"durians(string)": "infinite",
						"getDurianById(string)": "infinite",
						"getOwnerAdd()": "2566",
						"getTotalDurians()": "2482",
						"getTotalstaffs()": "2547",
						"ownerFarm()": "2556",
						"receiveDurians(string,string,string)": "infinite",
						"review(string,string,string,uint256[4])": "infinite",
						"staffCount()": "2496",
						"staffs(address)": "infinite"
					},
					"internal": {
						"compare(string memory,string memory)": "infinite",
						"convertRatings(uint256)": "154"
					}
				},
				"methodIdentifiers": {
					"PricingList(string)": "9d9fabda",
					"addDurian(string,string,uint256,uint256,uint256,uint256)": "217a8432",
					"addPrice(string,uint256)": "0c8299f3",
					"addStaff(address,uint256,string,string)": "eeb3de73",
					"buyDurians(address,string)": "1f310165",
					"deliverDurian(string,string,string)": "ea3e7373",
					"durianCount()": "0fd60125",
					"durians(string)": "1dd51307",
					"getDurianById(string)": "5a375258",
					"getOwnerAdd()": "d66d2a57",
					"getTotalDurians()": "7fa9571f",
					"getTotalstaffs()": "f1a40b6b",
					"ownerFarm()": "2966b29b",
					"receiveDurians(string,string,string)": "cd3d46fc",
					"review(string,string,string,uint256[4])": "45c68090",
					"staffCount()": "38dda849",
					"staffs(address)": "b7ee0adc"
				}
			},
			"storageLayout": {
				"storage": [
					{
						"astId": 3,
						"contract": "DurianContract.sol:DurianContract",
						"label": "ownerFarm",
						"offset": 0,
						"slot": "0",
						"type": "t_address_payable"
					},
					{
						"astId": 5,
						"contract": "DurianContract.sol:DurianContract",
						"label": "durianCount",
						"offset": 0,
						"slot": "1",
						"type": "t_uint256"
					},
					{
						"astId": 7,
						"contract": "DurianContract.sol:DurianContract",
						"label": "staffCount",
						"offset": 0,
						"slot": "2",
						"type": "t_uint256"
					},
					{
						"astId": 151,
						"contract": "DurianContract.sol:DurianContract",
						"label": "staffs",
						"offset": 0,
						"slot": "3",
						"type": "t_mapping(t_address,t_struct(Staff)146_storage)"
					},
					{
						"astId": 182,
						"contract": "DurianContract.sol:DurianContract",
						"label": "durians",
						"offset": 0,
						"slot": "4",
						"type": "t_mapping(t_string_memory_ptr,t_struct(Durian)177_storage)"
					},
					{
						"astId": 220,
						"contract": "DurianContract.sol:DurianContract",
						"label": "defaultDurian",
						"offset": 0,
						"slot": "5",
						"type": "t_struct(Reviews)205_storage"
					},
					{
						"astId": 230,
						"contract": "DurianContract.sol:DurianContract",
						"label": "PricingList",
						"offset": 0,
						"slot": "8",
						"type": "t_mapping(t_string_memory_ptr,t_struct(SpeciesPrice)225_storage)"
					}
				],
				"types": {
					"t_address": {
						"encoding": "inplace",
						"label": "address",
						"numberOfBytes": "20"
					},
					"t_address_payable": {
						"encoding": "inplace",
						"label": "address payable",
						"numberOfBytes": "20"
					},
					"t_bool": {
						"encoding": "inplace",
						"label": "bool",
						"numberOfBytes": "1"
					},
					"t_enum(RatingNo)188": {
						"encoding": "inplace",
						"label": "enum DurianContract.RatingNo",
						"numberOfBytes": "1"
					},
					"t_mapping(t_address,t_struct(Staff)146_storage)": {
						"encoding": "mapping",
						"key": "t_address",
						"label": "mapping(address => struct DurianContract.Staff)",
						"numberOfBytes": "32",
						"value": "t_struct(Staff)146_storage"
					},
					"t_mapping(t_string_memory_ptr,t_struct(Durian)177_storage)": {
						"encoding": "mapping",
						"key": "t_string_memory_ptr",
						"label": "mapping(string => struct DurianContract.Durian)",
						"numberOfBytes": "32",
						"value": "t_struct(Durian)177_storage"
					},
					"t_mapping(t_string_memory_ptr,t_struct(SpeciesPrice)225_storage)": {
						"encoding": "mapping",
						"key": "t_string_memory_ptr",
						"label": "mapping(string => struct DurianContract.SpeciesPrice)",
						"numberOfBytes": "32",
						"value": "t_struct(SpeciesPrice)225_storage"
					},
					"t_string_memory_ptr": {
						"encoding": "bytes",
						"label": "string",
						"numberOfBytes": "32"
					},
					"t_string_storage": {
						"encoding": "bytes",
						"label": "string",
						"numberOfBytes": "32"
					},
					"t_struct(Durian)177_storage": {
						"encoding": "inplace",
						"label": "struct DurianContract.Durian",
						"members": [
							{
								"astId": 153,
								"contract": "DurianContract.sol:DurianContract",
								"label": "id",
								"offset": 0,
								"slot": "0",
								"type": "t_string_storage"
							},
							{
								"astId": 155,
								"contract": "DurianContract.sol:DurianContract",
								"label": "species",
								"offset": 0,
								"slot": "1",
								"type": "t_string_storage"
							},
							{
								"astId": 157,
								"contract": "DurianContract.sol:DurianContract",
								"label": "weight",
								"offset": 0,
								"slot": "2",
								"type": "t_uint256"
							},
							{
								"astId": 159,
								"contract": "DurianContract.sol:DurianContract",
								"label": "harvested_date_time",
								"offset": 0,
								"slot": "3",
								"type": "t_uint256"
							},
							{
								"astId": 161,
								"contract": "DurianContract.sol:DurianContract",
								"label": "harvested_by",
								"offset": 0,
								"slot": "4",
								"type": "t_address"
							},
							{
								"astId": 163,
								"contract": "DurianContract.sol:DurianContract",
								"label": "harvest_tree",
								"offset": 0,
								"slot": "5",
								"type": "t_uint256"
							},
							{
								"astId": 165,
								"contract": "DurianContract.sol:DurianContract",
								"label": "harvest_farm",
								"offset": 0,
								"slot": "6",
								"type": "t_uint256"
							},
							{
								"astId": 167,
								"contract": "DurianContract.sol:DurianContract",
								"label": "owner",
								"offset": 0,
								"slot": "7",
								"type": "t_address"
							},
							{
								"astId": 170,
								"contract": "DurianContract.sol:DurianContract",
								"label": "reviews",
								"offset": 0,
								"slot": "8",
								"type": "t_struct(Reviews)205_storage"
							},
							{
								"astId": 172,
								"contract": "DurianContract.sol:DurianContract",
								"label": "location",
								"offset": 0,
								"slot": "11",
								"type": "t_string_storage"
							},
							{
								"astId": 174,
								"contract": "DurianContract.sol:DurianContract",
								"label": "onDelivery",
								"offset": 0,
								"slot": "12",
								"type": "t_bool"
							},
							{
								"astId": 176,
								"contract": "DurianContract.sol:DurianContract",
								"label": "status",
								"offset": 0,
								"slot": "13",
								"type": "t_string_storage"
							}
						],
						"numberOfBytes": "448"
					},
					"t_struct(Reviews)205_storage": {
						"encoding": "inplace",
						"label": "struct DurianContract.Reviews",
						"members": [
							{
								"astId": 190,
								"contract": "DurianContract.sol:DurianContract",
								"label": "personalRemarks",
								"offset": 0,
								"slot": "0",
								"type": "t_string_storage"
							},
							{
								"astId": 192,
								"contract": "DurianContract.sol:DurianContract",
								"label": "color",
								"offset": 0,
								"slot": "1",
								"type": "t_string_storage"
							},
							{
								"astId": 195,
								"contract": "DurianContract.sol:DurianContract",
								"label": "taste",
								"offset": 0,
								"slot": "2",
								"type": "t_enum(RatingNo)188"
							},
							{
								"astId": 198,
								"contract": "DurianContract.sol:DurianContract",
								"label": "fragrance",
								"offset": 1,
								"slot": "2",
								"type": "t_enum(RatingNo)188"
							},
							{
								"astId": 201,
								"contract": "DurianContract.sol:DurianContract",
								"label": "creaminess",
								"offset": 2,
								"slot": "2",
								"type": "t_enum(RatingNo)188"
							},
							{
								"astId": 204,
								"contract": "DurianContract.sol:DurianContract",
								"label": "overall_rating",
								"offset": 3,
								"slot": "2",
								"type": "t_enum(RatingNo)188"
							}
						],
						"numberOfBytes": "96"
					},
					"t_struct(SpeciesPrice)225_storage": {
						"encoding": "inplace",
						"label": "struct DurianContract.SpeciesPrice",
						"members": [
							{
								"astId": 222,
								"contract": "DurianContract.sol:DurianContract",
								"label": "speciesName",
								"offset": 0,
								"slot": "0",
								"type": "t_string_storage"
							},
							{
								"astId": 224,
								"contract": "DurianContract.sol:DurianContract",
								"label": "pricePerKG",
								"offset": 0,
								"slot": "1",
								"type": "t_uint256"
							}
						],
						"numberOfBytes": "64"
					},
					"t_struct(Staff)146_storage": {
						"encoding": "inplace",
						"label": "struct DurianContract.Staff",
						"members": [
							{
								"astId": 139,
								"contract": "DurianContract.sol:DurianContract",
								"label": "staffAddress",
								"offset": 0,
								"slot": "0",
								"type": "t_address"
							},
							{
								"astId": 141,
								"contract": "DurianContract.sol:DurianContract",
								"label": "id",
								"offset": 0,
								"slot": "1",
								"type": "t_uint256"
							},
							{
								"astId": 143,
								"contract": "DurianContract.sol:DurianContract",
								"label": "name",
								"offset": 0,
								"slot": "2",
								"type": "t_string_storage"
							},
							{
								"astId": 145,
								"contract": "DurianContract.sol:DurianContract",
								"label": "title",
								"offset": 0,
								"slot": "3",
								"type": "t_string_storage"
							}
						],
						"numberOfBytes": "128"
					},
					"t_uint256": {
						"encoding": "inplace",
						"label": "uint256",
						"numberOfBytes": "32"
					}
				}
			},
			"userdoc": {
				"kind": "user",
				"methods": {},
				"version": 1
			}
		}
	}
}