{
	"DurianContract.sol": {
		"DurianContract": {
			"abi": [
				{
					"inputs": [
						{
							"internalType": "uint256",
							"name": "id",
							"type": "uint256"
						},
						{
							"internalType": "uint256",
							"name": "kind",
							"type": "uint256"
						},
						{
							"internalType": "uint256",
							"name": "weight",
							"type": "uint256"
						},
						{
							"internalType": "uint256",
							"name": "harvested_date_time",
							"type": "uint256"
						},
						{
							"internalType": "uint256",
							"name": "harvested_by",
							"type": "uint256"
						},
						{
							"internalType": "uint256",
							"name": "harvest_tree",
							"type": "uint256"
						},
						{
							"internalType": "uint256",
							"name": "harvest_farm",
							"type": "uint256"
						},
						{
							"internalType": "uint256",
							"name": "owner",
							"type": "uint256"
						},
						{
							"internalType": "uint256",
							"name": "reviews",
							"type": "uint256"
						},
						{
							"internalType": "uint256",
							"name": "image",
							"type": "uint256"
						}
					],
					"name": "addDurian",
					"outputs": [],
					"stateMutability": "nonpayable",
					"type": "function"
				},
				{
					"inputs": [
						{
							"internalType": "uint256",
							"name": "id",
							"type": "uint256"
						}
					],
					"name": "getDurianById",
					"outputs": [
						{
							"components": [
								{
									"internalType": "uint256",
									"name": "id",
									"type": "uint256"
								},
								{
									"internalType": "uint256",
									"name": "kind",
									"type": "uint256"
								},
								{
									"internalType": "uint256",
									"name": "weight",
									"type": "uint256"
								},
								{
									"internalType": "uint256",
									"name": "harvested_date_time",
									"type": "uint256"
								},
								{
									"internalType": "uint256",
									"name": "harvested_by",
									"type": "uint256"
								},
								{
									"internalType": "uint256",
									"name": "harvest_tree",
									"type": "uint256"
								},
								{
									"internalType": "uint256",
									"name": "harvest_farm",
									"type": "uint256"
								},
								{
									"internalType": "uint256",
									"name": "owner",
									"type": "uint256"
								},
								{
									"internalType": "uint256",
									"name": "reviews",
									"type": "uint256"
								},
								{
									"internalType": "uint256",
									"name": "image",
									"type": "uint256"
								}
							],
							"internalType": "struct DurianContract.Durian",
							"name": "",
							"type": "tuple"
						}
					],
					"stateMutability": "view",
					"type": "function"
				},
				{
					"inputs": [],
					"name": "getTotalDurians",
					"outputs": [
						{
							"internalType": "uint256",
							"name": "",
							"type": "uint256"
						}
					],
					"stateMutability": "view",
					"type": "function"
				},
				{
					"inputs": [
						{
							"internalType": "uint256",
							"name": "id",
							"type": "uint256"
						},
						{
							"internalType": "uint256",
							"name": "kind",
							"type": "uint256"
						},
						{
							"internalType": "uint256",
							"name": "weight",
							"type": "uint256"
						},
						{
							"internalType": "uint256",
							"name": "harvested_date_time",
							"type": "uint256"
						},
						{
							"internalType": "uint256",
							"name": "harvested_by",
							"type": "uint256"
						},
						{
							"internalType": "uint256",
							"name": "harvest_tree",
							"type": "uint256"
						},
						{
							"internalType": "uint256",
							"name": "harvest_farm",
							"type": "uint256"
						},
						{
							"internalType": "uint256",
							"name": "owner",
							"type": "uint256"
						},
						{
							"internalType": "uint256",
							"name": "reviews",
							"type": "uint256"
						},
						{
							"internalType": "uint256",
							"name": "image",
							"type": "uint256"
						}
					],
					"name": "setDurianById",
					"outputs": [],
					"stateMutability": "nonpayable",
					"type": "function"
				}
			],
			"devdoc": {
				"kind": "dev",
				"methods": {},
				"version": 1
			},
			"evm": {
				"assembly": "    /* \"DurianContract.sol\":56:1837  contract DurianContract {... */\n  mstore(0x40, 0x80)\n  callvalue\n  dup1\n  iszero\n  tag_1\n  jumpi\n  0x00\n  dup1\n  revert\ntag_1:\n  pop\n  dataSize(sub_0)\n  dup1\n  dataOffset(sub_0)\n  0x00\n  codecopy\n  0x00\n  return\nstop\n\nsub_0: assembly {\n        /* \"DurianContract.sol\":56:1837  contract DurianContract {... */\n      mstore(0x40, 0x80)\n      callvalue\n      dup1\n      iszero\n      tag_1\n      jumpi\n      0x00\n      dup1\n      revert\n    tag_1:\n      pop\n      jumpi(tag_2, lt(calldatasize, 0x04))\n      shr(0xe0, calldataload(0x00))\n      dup1\n      0x820349\n      eq\n      tag_3\n      jumpi\n      dup1\n      0x6e965ad0\n      eq\n      tag_4\n      jumpi\n      dup1\n      0x7fa9571f\n      eq\n      tag_5\n      jumpi\n      dup1\n      0xd8483775\n      eq\n      tag_6\n      jumpi\n    tag_2:\n      0x00\n      dup1\n      revert\n        /* \"DurianContract.sol\":1046:1155  function getDurianById(uint256 id) public view returns (Durian memory) {... */\n    tag_3:\n      tag_7\n      0x04\n      dup1\n      calldatasize\n      sub\n      dup2\n      add\n      swap1\n      tag_8\n      swap2\n      swap1\n      tag_9\n      jump\t// in\n    tag_8:\n      tag_10\n      jump\t// in\n    tag_7:\n      mload(0x40)\n      tag_11\n      swap2\n      swap1\n      tag_12\n      jump\t// in\n    tag_11:\n      mload(0x40)\n      dup1\n      swap2\n      sub\n      swap1\n      return\n        /* \"DurianContract.sol\":378:1014  function addDurian(... */\n    tag_4:\n      tag_13\n      0x04\n      dup1\n      calldatasize\n      sub\n      dup2\n      add\n      swap1\n      tag_14\n      swap2\n      swap1\n      tag_15\n      jump\t// in\n    tag_14:\n      tag_16\n      jump\t// in\n    tag_13:\n      stop\n        /* \"DurianContract.sol\":1741:1835  function getTotalDurians() public view returns(uint) {... */\n    tag_5:\n      tag_17\n      tag_18\n      jump\t// in\n    tag_17:\n      mload(0x40)\n      tag_19\n      swap2\n      swap1\n      tag_20\n      jump\t// in\n    tag_19:\n      mload(0x40)\n      dup1\n      swap2\n      sub\n      swap1\n      return\n        /* \"DurianContract.sol\":1161:1735  function setDurianById(... */\n    tag_6:\n      tag_21\n      0x04\n      dup1\n      calldatasize\n      sub\n      dup2\n      add\n      swap1\n      tag_22\n      swap2\n      swap1\n      tag_15\n      jump\t// in\n    tag_22:\n      tag_23\n      jump\t// in\n    tag_21:\n      stop\n        /* \"DurianContract.sol\":1046:1155  function getDurianById(uint256 id) public view returns (Durian memory) {... */\n    tag_10:\n        /* \"DurianContract.sol\":1102:1115  Durian memory */\n      tag_24\n      tag_25\n      jump\t// in\n    tag_24:\n        /* \"DurianContract.sol\":1134:1144  durianList */\n      0x00\n        /* \"DurianContract.sol\":1145:1147  id */\n      dup3\n        /* \"DurianContract.sol\":1134:1148  durianList[id] */\n      dup2\n      sload\n      dup2\n      lt\n      tag_27\n      jumpi\n      mstore(0x00, 0x4e487b7100000000000000000000000000000000000000000000000000000000)\n      mstore(0x04, 0x32)\n      revert(0x00, 0x24)\n    tag_27:\n      swap1\n      0x00\n      mstore\n      keccak256(0x00, 0x20)\n      swap1\n      0x0a\n      mul\n      add\n        /* \"DurianContract.sol\":1127:1148  return durianList[id] */\n      mload(0x40)\n      dup1\n      0x0140\n      add\n      0x40\n      mstore\n      swap1\n      dup2\n      0x00\n      dup3\n      add\n      sload\n      dup2\n      mstore\n      0x20\n      add\n      0x01\n      dup3\n      add\n      sload\n      dup2\n      mstore\n      0x20\n      add\n      0x02\n      dup3\n      add\n      sload\n      dup2\n      mstore\n      0x20\n      add\n      0x03\n      dup3\n      add\n      sload\n      dup2\n      mstore\n      0x20\n      add\n      0x04\n      dup3\n      add\n      sload\n      dup2\n      mstore\n      0x20\n      add\n      0x05\n      dup3\n      add\n      sload\n      dup2\n      mstore\n      0x20\n      add\n      0x06\n      dup3\n      add\n      sload\n      dup2\n      mstore\n      0x20\n      add\n      0x07\n      dup3\n      add\n      sload\n      dup2\n      mstore\n      0x20\n      add\n      0x08\n      dup3\n      add\n      sload\n      dup2\n      mstore\n      0x20\n      add\n      0x09\n      dup3\n      add\n      sload\n      dup2\n      mstore\n      pop\n      pop\n      swap1\n      pop\n        /* \"DurianContract.sol\":1046:1155  function getDurianById(uint256 id) public view returns (Durian memory) {... */\n      swap2\n      swap1\n      pop\n      jump\t// out\n        /* \"DurianContract.sol\":378:1014  function addDurian(... */\n    tag_16:\n        /* \"DurianContract.sol\":684:694  durianList */\n      0x00\n        /* \"DurianContract.sol\":713:997  Durian(... */\n      mload(0x40)\n      dup1\n      0x0140\n      add\n      0x40\n      mstore\n      dup1\n        /* \"DurianContract.sol\":737:739  id */\n      dup13\n        /* \"DurianContract.sol\":713:997  Durian(... */\n      dup2\n      mstore\n      0x20\n      add\n        /* \"DurianContract.sol\":757:761  kind */\n      dup12\n        /* \"DurianContract.sol\":713:997  Durian(... */\n      dup2\n      mstore\n      0x20\n      add\n        /* \"DurianContract.sol\":779:785  weight */\n      dup11\n        /* \"DurianContract.sol\":713:997  Durian(... */\n      dup2\n      mstore\n      0x20\n      add\n        /* \"DurianContract.sol\":803:822  harvested_date_time */\n      dup10\n        /* \"DurianContract.sol\":713:997  Durian(... */\n      dup2\n      mstore\n      0x20\n      add\n        /* \"DurianContract.sol\":840:852  harvested_by */\n      dup9\n        /* \"DurianContract.sol\":713:997  Durian(... */\n      dup2\n      mstore\n      0x20\n      add\n        /* \"DurianContract.sol\":870:882  harvest_tree */\n      dup8\n        /* \"DurianContract.sol\":713:997  Durian(... */\n      dup2\n      mstore\n      0x20\n      add\n        /* \"DurianContract.sol\":900:912  harvest_farm */\n      dup7\n        /* \"DurianContract.sol\":713:997  Durian(... */\n      dup2\n      mstore\n      0x20\n      add\n        /* \"DurianContract.sol\":930:935  owner */\n      dup6\n        /* \"DurianContract.sol\":713:997  Durian(... */\n      dup2\n      mstore\n      0x20\n      add\n        /* \"DurianContract.sol\":953:960  reviews */\n      dup5\n        /* \"DurianContract.sol\":713:997  Durian(... */\n      dup2\n      mstore\n      0x20\n      add\n        /* \"DurianContract.sol\":978:983  image */\n      dup4\n        /* \"DurianContract.sol\":713:997  Durian(... */\n      dup2\n      mstore\n      pop\n        /* \"DurianContract.sol\":684:1007  durianList.push(... */\n      swap1\n      dup1\n      0x01\n      dup2\n      sload\n      add\n      dup1\n      dup3\n      sstore\n      dup1\n      swap2\n      pop\n      pop\n      0x01\n      swap1\n      sub\n      swap1\n      0x00\n      mstore\n      keccak256(0x00, 0x20)\n      swap1\n      0x0a\n      mul\n      add\n      0x00\n      swap1\n      swap2\n      swap1\n      swap2\n      swap1\n      swap2\n      pop\n      0x00\n      dup3\n      add\n      mload\n      dup2\n      0x00\n      add\n      sstore\n      0x20\n      dup3\n      add\n      mload\n      dup2\n      0x01\n      add\n      sstore\n      0x40\n      dup3\n      add\n      mload\n      dup2\n      0x02\n      add\n      sstore\n      0x60\n      dup3\n      add\n      mload\n      dup2\n      0x03\n      add\n      sstore\n      0x80\n      dup3\n      add\n      mload\n      dup2\n      0x04\n      add\n      sstore\n      0xa0\n      dup3\n      add\n      mload\n      dup2\n      0x05\n      add\n      sstore\n      0xc0\n      dup3\n      add\n      mload\n      dup2\n      0x06\n      add\n      sstore\n      0xe0\n      dup3\n      add\n      mload\n      dup2\n      0x07\n      add\n      sstore\n      0x0100\n      dup3\n      add\n      mload\n      dup2\n      0x08\n      add\n      sstore\n      0x0120\n      dup3\n      add\n      mload\n      dup2\n      0x09\n      add\n      sstore\n      pop\n      pop\n        /* \"DurianContract.sol\":378:1014  function addDurian(... */\n      pop\n      pop\n      pop\n      pop\n      pop\n      pop\n      pop\n      pop\n      pop\n      pop\n      jump\t// out\n        /* \"DurianContract.sol\":1741:1835  function getTotalDurians() public view returns(uint) {... */\n    tag_18:\n        /* \"DurianContract.sol\":1788:1792  uint */\n      0x00\n        /* \"DurianContract.sol\":1811:1821  durianList */\n      dup1\n        /* \"DurianContract.sol\":1811:1828  durianList.length */\n      dup1\n      sload\n      swap1\n      pop\n        /* \"DurianContract.sol\":1804:1828  return durianList.length */\n      swap1\n      pop\n        /* \"DurianContract.sol\":1741:1835  function getTotalDurians() public view returns(uint) {... */\n      swap1\n      jump\t// out\n        /* \"DurianContract.sol\":1161:1735  function setDurianById(... */\n    tag_23:\n        /* \"DurianContract.sol\":1488:1728  Durian(... */\n      mload(0x40)\n      dup1\n      0x0140\n      add\n      0x40\n      mstore\n      dup1\n        /* \"DurianContract.sol\":1508:1510  id */\n      dup12\n        /* \"DurianContract.sol\":1488:1728  Durian(... */\n      dup2\n      mstore\n      0x20\n      add\n        /* \"DurianContract.sol\":1524:1528  kind */\n      dup11\n        /* \"DurianContract.sol\":1488:1728  Durian(... */\n      dup2\n      mstore\n      0x20\n      add\n        /* \"DurianContract.sol\":1542:1548  weight */\n      dup10\n        /* \"DurianContract.sol\":1488:1728  Durian(... */\n      dup2\n      mstore\n      0x20\n      add\n        /* \"DurianContract.sol\":1562:1581  harvested_date_time */\n      dup9\n        /* \"DurianContract.sol\":1488:1728  Durian(... */\n      dup2\n      mstore\n      0x20\n      add\n        /* \"DurianContract.sol\":1595:1607  harvested_by */\n      dup8\n        /* \"DurianContract.sol\":1488:1728  Durian(... */\n      dup2\n      mstore\n      0x20\n      add\n        /* \"DurianContract.sol\":1621:1633  harvest_tree */\n      dup7\n        /* \"DurianContract.sol\":1488:1728  Durian(... */\n      dup2\n      mstore\n      0x20\n      add\n        /* \"DurianContract.sol\":1647:1659  harvest_farm */\n      dup6\n        /* \"DurianContract.sol\":1488:1728  Durian(... */\n      dup2\n      mstore\n      0x20\n      add\n        /* \"DurianContract.sol\":1673:1678  owner */\n      dup5\n        /* \"DurianContract.sol\":1488:1728  Durian(... */\n      dup2\n      mstore\n      0x20\n      add\n        /* \"DurianContract.sol\":1692:1699  reviews */\n      dup4\n        /* \"DurianContract.sol\":1488:1728  Durian(... */\n      dup2\n      mstore\n      0x20\n      add\n        /* \"DurianContract.sol\":1713:1718  image */\n      dup3\n        /* \"DurianContract.sol\":1488:1728  Durian(... */\n      dup2\n      mstore\n      pop\n        /* \"DurianContract.sol\":1471:1481  durianList */\n      0x00\n        /* \"DurianContract.sol\":1482:1484  id */\n      dup12\n        /* \"DurianContract.sol\":1471:1485  durianList[id] */\n      dup2\n      sload\n      dup2\n      lt\n      tag_33\n      jumpi\n      mstore(0x00, 0x4e487b7100000000000000000000000000000000000000000000000000000000)\n      mstore(0x04, 0x32)\n      revert(0x00, 0x24)\n    tag_33:\n      swap1\n      0x00\n      mstore\n      keccak256(0x00, 0x20)\n      swap1\n      0x0a\n      mul\n      add\n        /* \"DurianContract.sol\":1471:1728  durianList[id] = Durian(... */\n      0x00\n      dup3\n      add\n      mload\n      dup2\n      0x00\n      add\n      sstore\n      0x20\n      dup3\n      add\n      mload\n      dup2\n      0x01\n      add\n      sstore\n      0x40\n      dup3\n      add\n      mload\n      dup2\n      0x02\n      add\n      sstore\n      0x60\n      dup3\n      add\n      mload\n      dup2\n      0x03\n      add\n      sstore\n      0x80\n      dup3\n      add\n      mload\n      dup2\n      0x04\n      add\n      sstore\n      0xa0\n      dup3\n      add\n      mload\n      dup2\n      0x05\n      add\n      sstore\n      0xc0\n      dup3\n      add\n      mload\n      dup2\n      0x06\n      add\n      sstore\n      0xe0\n      dup3\n      add\n      mload\n      dup2\n      0x07\n      add\n      sstore\n      0x0100\n      dup3\n      add\n      mload\n      dup2\n      0x08\n      add\n      sstore\n      0x0120\n      dup3\n      add\n      mload\n      dup2\n      0x09\n      add\n      sstore\n      swap1\n      pop\n      pop\n        /* \"DurianContract.sol\":1161:1735  function setDurianById(... */\n      pop\n      pop\n      pop\n      pop\n      pop\n      pop\n      pop\n      pop\n      pop\n      pop\n      jump\t// out\n    tag_25:\n      mload(0x40)\n      dup1\n      0x0140\n      add\n      0x40\n      mstore\n      dup1\n      0x00\n      dup2\n      mstore\n      0x20\n      add\n      0x00\n      dup2\n      mstore\n      0x20\n      add\n      0x00\n      dup2\n      mstore\n      0x20\n      add\n      0x00\n      dup2\n      mstore\n      0x20\n      add\n      0x00\n      dup2\n      mstore\n      0x20\n      add\n      0x00\n      dup2\n      mstore\n      0x20\n      add\n      0x00\n      dup2\n      mstore\n      0x20\n      add\n      0x00\n      dup2\n      mstore\n      0x20\n      add\n      0x00\n      dup2\n      mstore\n      0x20\n      add\n      0x00\n      dup2\n      mstore\n      pop\n      swap1\n      jump\t// out\n        /* \"#utility.yul\":7:146   */\n    tag_36:\n      0x00\n        /* \"#utility.yul\":91:97   */\n      dup2\n        /* \"#utility.yul\":78:98   */\n      calldataload\n        /* \"#utility.yul\":69:98   */\n      swap1\n      pop\n        /* \"#utility.yul\":107:140   */\n      tag_38\n        /* \"#utility.yul\":134:139   */\n      dup2\n        /* \"#utility.yul\":107:140   */\n      tag_39\n      jump\t// in\n    tag_38:\n        /* \"#utility.yul\":59:146   */\n      swap3\n      swap2\n      pop\n      pop\n      jump\t// out\n        /* \"#utility.yul\":152:414   */\n    tag_9:\n      0x00\n        /* \"#utility.yul\":260:262   */\n      0x20\n        /* \"#utility.yul\":248:257   */\n      dup3\n        /* \"#utility.yul\":239:246   */\n      dup5\n        /* \"#utility.yul\":235:258   */\n      sub\n        /* \"#utility.yul\":231:263   */\n      slt\n        /* \"#utility.yul\":228:230   */\n      iszero\n      tag_41\n      jumpi\n        /* \"#utility.yul\":276:277   */\n      0x00\n        /* \"#utility.yul\":273:274   */\n      dup1\n        /* \"#utility.yul\":266:278   */\n      revert\n        /* \"#utility.yul\":228:230   */\n    tag_41:\n        /* \"#utility.yul\":319:320   */\n      0x00\n        /* \"#utility.yul\":344:397   */\n      tag_42\n        /* \"#utility.yul\":389:396   */\n      dup5\n        /* \"#utility.yul\":380:386   */\n      dup3\n        /* \"#utility.yul\":369:378   */\n      dup6\n        /* \"#utility.yul\":365:387   */\n      add\n        /* \"#utility.yul\":344:397   */\n      tag_36\n      jump\t// in\n    tag_42:\n        /* \"#utility.yul\":334:397   */\n      swap2\n      pop\n        /* \"#utility.yul\":290:407   */\n      pop\n        /* \"#utility.yul\":218:414   */\n      swap3\n      swap2\n      pop\n      pop\n      jump\t// out\n        /* \"#utility.yul\":420:1994   */\n    tag_15:\n      0x00\n      dup1\n      0x00\n      dup1\n      0x00\n      dup1\n      0x00\n      dup1\n      0x00\n      dup1\n        /* \"#utility.yul\":681:684   */\n      0x0140\n        /* \"#utility.yul\":669:678   */\n      dup12\n        /* \"#utility.yul\":660:667   */\n      dup14\n        /* \"#utility.yul\":656:679   */\n      sub\n        /* \"#utility.yul\":652:685   */\n      slt\n        /* \"#utility.yul\":649:651   */\n      iszero\n      tag_44\n      jumpi\n        /* \"#utility.yul\":698:699   */\n      0x00\n        /* \"#utility.yul\":695:696   */\n      dup1\n        /* \"#utility.yul\":688:700   */\n      revert\n        /* \"#utility.yul\":649:651   */\n    tag_44:\n        /* \"#utility.yul\":741:742   */\n      0x00\n        /* \"#utility.yul\":766:819   */\n      tag_45\n        /* \"#utility.yul\":811:818   */\n      dup14\n        /* \"#utility.yul\":802:808   */\n      dup3\n        /* \"#utility.yul\":791:800   */\n      dup15\n        /* \"#utility.yul\":787:809   */\n      add\n        /* \"#utility.yul\":766:819   */\n      tag_36\n      jump\t// in\n    tag_45:\n        /* \"#utility.yul\":756:819   */\n      swap11\n      pop\n        /* \"#utility.yul\":712:829   */\n      pop\n        /* \"#utility.yul\":868:870   */\n      0x20\n        /* \"#utility.yul\":894:947   */\n      tag_46\n        /* \"#utility.yul\":939:946   */\n      dup14\n        /* \"#utility.yul\":930:936   */\n      dup3\n        /* \"#utility.yul\":919:928   */\n      dup15\n        /* \"#utility.yul\":915:937   */\n      add\n        /* \"#utility.yul\":894:947   */\n      tag_36\n      jump\t// in\n    tag_46:\n        /* \"#utility.yul\":884:947   */\n      swap10\n      pop\n        /* \"#utility.yul\":839:957   */\n      pop\n        /* \"#utility.yul\":996:998   */\n      0x40\n        /* \"#utility.yul\":1022:1075   */\n      tag_47\n        /* \"#utility.yul\":1067:1074   */\n      dup14\n        /* \"#utility.yul\":1058:1064   */\n      dup3\n        /* \"#utility.yul\":1047:1056   */\n      dup15\n        /* \"#utility.yul\":1043:1065   */\n      add\n        /* \"#utility.yul\":1022:1075   */\n      tag_36\n      jump\t// in\n    tag_47:\n        /* \"#utility.yul\":1012:1075   */\n      swap9\n      pop\n        /* \"#utility.yul\":967:1085   */\n      pop\n        /* \"#utility.yul\":1124:1126   */\n      0x60\n        /* \"#utility.yul\":1150:1203   */\n      tag_48\n        /* \"#utility.yul\":1195:1202   */\n      dup14\n        /* \"#utility.yul\":1186:1192   */\n      dup3\n        /* \"#utility.yul\":1175:1184   */\n      dup15\n        /* \"#utility.yul\":1171:1193   */\n      add\n        /* \"#utility.yul\":1150:1203   */\n      tag_36\n      jump\t// in\n    tag_48:\n        /* \"#utility.yul\":1140:1203   */\n      swap8\n      pop\n        /* \"#utility.yul\":1095:1213   */\n      pop\n        /* \"#utility.yul\":1252:1255   */\n      0x80\n        /* \"#utility.yul\":1279:1332   */\n      tag_49\n        /* \"#utility.yul\":1324:1331   */\n      dup14\n        /* \"#utility.yul\":1315:1321   */\n      dup3\n        /* \"#utility.yul\":1304:1313   */\n      dup15\n        /* \"#utility.yul\":1300:1322   */\n      add\n        /* \"#utility.yul\":1279:1332   */\n      tag_36\n      jump\t// in\n    tag_49:\n        /* \"#utility.yul\":1269:1332   */\n      swap7\n      pop\n        /* \"#utility.yul\":1223:1342   */\n      pop\n        /* \"#utility.yul\":1381:1384   */\n      0xa0\n        /* \"#utility.yul\":1408:1461   */\n      tag_50\n        /* \"#utility.yul\":1453:1460   */\n      dup14\n        /* \"#utility.yul\":1444:1450   */\n      dup3\n        /* \"#utility.yul\":1433:1442   */\n      dup15\n        /* \"#utility.yul\":1429:1451   */\n      add\n        /* \"#utility.yul\":1408:1461   */\n      tag_36\n      jump\t// in\n    tag_50:\n        /* \"#utility.yul\":1398:1461   */\n      swap6\n      pop\n        /* \"#utility.yul\":1352:1471   */\n      pop\n        /* \"#utility.yul\":1510:1513   */\n      0xc0\n        /* \"#utility.yul\":1537:1590   */\n      tag_51\n        /* \"#utility.yul\":1582:1589   */\n      dup14\n        /* \"#utility.yul\":1573:1579   */\n      dup3\n        /* \"#utility.yul\":1562:1571   */\n      dup15\n        /* \"#utility.yul\":1558:1580   */\n      add\n        /* \"#utility.yul\":1537:1590   */\n      tag_36\n      jump\t// in\n    tag_51:\n        /* \"#utility.yul\":1527:1590   */\n      swap5\n      pop\n        /* \"#utility.yul\":1481:1600   */\n      pop\n        /* \"#utility.yul\":1639:1642   */\n      0xe0\n        /* \"#utility.yul\":1666:1719   */\n      tag_52\n        /* \"#utility.yul\":1711:1718   */\n      dup14\n        /* \"#utility.yul\":1702:1708   */\n      dup3\n        /* \"#utility.yul\":1691:1700   */\n      dup15\n        /* \"#utility.yul\":1687:1709   */\n      add\n        /* \"#utility.yul\":1666:1719   */\n      tag_36\n      jump\t// in\n    tag_52:\n        /* \"#utility.yul\":1656:1719   */\n      swap4\n      pop\n        /* \"#utility.yul\":1610:1729   */\n      pop\n        /* \"#utility.yul\":1768:1771   */\n      0x0100\n        /* \"#utility.yul\":1795:1848   */\n      tag_53\n        /* \"#utility.yul\":1840:1847   */\n      dup14\n        /* \"#utility.yul\":1831:1837   */\n      dup3\n        /* \"#utility.yul\":1820:1829   */\n      dup15\n        /* \"#utility.yul\":1816:1838   */\n      add\n        /* \"#utility.yul\":1795:1848   */\n      tag_36\n      jump\t// in\n    tag_53:\n        /* \"#utility.yul\":1785:1848   */\n      swap3\n      pop\n        /* \"#utility.yul\":1739:1858   */\n      pop\n        /* \"#utility.yul\":1897:1900   */\n      0x0120\n        /* \"#utility.yul\":1924:1977   */\n      tag_54\n        /* \"#utility.yul\":1969:1976   */\n      dup14\n        /* \"#utility.yul\":1960:1966   */\n      dup3\n        /* \"#utility.yul\":1949:1958   */\n      dup15\n        /* \"#utility.yul\":1945:1967   */\n      add\n        /* \"#utility.yul\":1924:1977   */\n      tag_36\n      jump\t// in\n    tag_54:\n        /* \"#utility.yul\":1914:1977   */\n      swap2\n      pop\n        /* \"#utility.yul\":1868:1987   */\n      pop\n        /* \"#utility.yul\":639:1994   */\n      swap3\n      swap6\n      swap9\n      swap12\n      swap2\n      swap5\n      swap8\n      swap11\n      pop\n      swap3\n      swap6\n      swap9\n      pop\n      jump\t// out\n        /* \"#utility.yul\":2068:4015   */\n    tag_55:\n        /* \"#utility.yul\":2209:2215   */\n      0x0140\n        /* \"#utility.yul\":2204:2207   */\n      dup3\n        /* \"#utility.yul\":2200:2216   */\n      add\n        /* \"#utility.yul\":2296:2300   */\n      0x00\n        /* \"#utility.yul\":2289:2294   */\n      dup3\n        /* \"#utility.yul\":2285:2301   */\n      add\n        /* \"#utility.yul\":2279:2302   */\n      mload\n        /* \"#utility.yul\":2315:2378   */\n      tag_57\n        /* \"#utility.yul\":2372:2376   */\n      0x00\n        /* \"#utility.yul\":2367:2370   */\n      dup6\n        /* \"#utility.yul\":2363:2377   */\n      add\n        /* \"#utility.yul\":2349:2361   */\n      dup3\n        /* \"#utility.yul\":2315:2378   */\n      tag_58\n      jump\t// in\n    tag_57:\n        /* \"#utility.yul\":2226:2388   */\n      pop\n        /* \"#utility.yul\":2470:2474   */\n      0x20\n        /* \"#utility.yul\":2463:2468   */\n      dup3\n        /* \"#utility.yul\":2459:2475   */\n      add\n        /* \"#utility.yul\":2453:2476   */\n      mload\n        /* \"#utility.yul\":2489:2552   */\n      tag_59\n        /* \"#utility.yul\":2546:2550   */\n      0x20\n        /* \"#utility.yul\":2541:2544   */\n      dup6\n        /* \"#utility.yul\":2537:2551   */\n      add\n        /* \"#utility.yul\":2523:2535   */\n      dup3\n        /* \"#utility.yul\":2489:2552   */\n      tag_58\n      jump\t// in\n    tag_59:\n        /* \"#utility.yul\":2398:2562   */\n      pop\n        /* \"#utility.yul\":2646:2650   */\n      0x40\n        /* \"#utility.yul\":2639:2644   */\n      dup3\n        /* \"#utility.yul\":2635:2651   */\n      add\n        /* \"#utility.yul\":2629:2652   */\n      mload\n        /* \"#utility.yul\":2665:2728   */\n      tag_60\n        /* \"#utility.yul\":2722:2726   */\n      0x40\n        /* \"#utility.yul\":2717:2720   */\n      dup6\n        /* \"#utility.yul\":2713:2727   */\n      add\n        /* \"#utility.yul\":2699:2711   */\n      dup3\n        /* \"#utility.yul\":2665:2728   */\n      tag_58\n      jump\t// in\n    tag_60:\n        /* \"#utility.yul\":2572:2738   */\n      pop\n        /* \"#utility.yul\":2835:2839   */\n      0x60\n        /* \"#utility.yul\":2828:2833   */\n      dup3\n        /* \"#utility.yul\":2824:2840   */\n      add\n        /* \"#utility.yul\":2818:2841   */\n      mload\n        /* \"#utility.yul\":2854:2917   */\n      tag_61\n        /* \"#utility.yul\":2911:2915   */\n      0x60\n        /* \"#utility.yul\":2906:2909   */\n      dup6\n        /* \"#utility.yul\":2902:2916   */\n      add\n        /* \"#utility.yul\":2888:2900   */\n      dup3\n        /* \"#utility.yul\":2854:2917   */\n      tag_58\n      jump\t// in\n    tag_61:\n        /* \"#utility.yul\":2748:2927   */\n      pop\n        /* \"#utility.yul\":3017:3021   */\n      0x80\n        /* \"#utility.yul\":3010:3015   */\n      dup3\n        /* \"#utility.yul\":3006:3022   */\n      add\n        /* \"#utility.yul\":3000:3023   */\n      mload\n        /* \"#utility.yul\":3036:3099   */\n      tag_62\n        /* \"#utility.yul\":3093:3097   */\n      0x80\n        /* \"#utility.yul\":3088:3091   */\n      dup6\n        /* \"#utility.yul\":3084:3098   */\n      add\n        /* \"#utility.yul\":3070:3082   */\n      dup3\n        /* \"#utility.yul\":3036:3099   */\n      tag_58\n      jump\t// in\n    tag_62:\n        /* \"#utility.yul\":2937:3109   */\n      pop\n        /* \"#utility.yul\":3199:3203   */\n      0xa0\n        /* \"#utility.yul\":3192:3197   */\n      dup3\n        /* \"#utility.yul\":3188:3204   */\n      add\n        /* \"#utility.yul\":3182:3205   */\n      mload\n        /* \"#utility.yul\":3218:3281   */\n      tag_63\n        /* \"#utility.yul\":3275:3279   */\n      0xa0\n        /* \"#utility.yul\":3270:3273   */\n      dup6\n        /* \"#utility.yul\":3266:3280   */\n      add\n        /* \"#utility.yul\":3252:3264   */\n      dup3\n        /* \"#utility.yul\":3218:3281   */\n      tag_58\n      jump\t// in\n    tag_63:\n        /* \"#utility.yul\":3119:3291   */\n      pop\n        /* \"#utility.yul\":3381:3385   */\n      0xc0\n        /* \"#utility.yul\":3374:3379   */\n      dup3\n        /* \"#utility.yul\":3370:3386   */\n      add\n        /* \"#utility.yul\":3364:3387   */\n      mload\n        /* \"#utility.yul\":3400:3463   */\n      tag_64\n        /* \"#utility.yul\":3457:3461   */\n      0xc0\n        /* \"#utility.yul\":3452:3455   */\n      dup6\n        /* \"#utility.yul\":3448:3462   */\n      add\n        /* \"#utility.yul\":3434:3446   */\n      dup3\n        /* \"#utility.yul\":3400:3463   */\n      tag_58\n      jump\t// in\n    tag_64:\n        /* \"#utility.yul\":3301:3473   */\n      pop\n        /* \"#utility.yul\":3556:3560   */\n      0xe0\n        /* \"#utility.yul\":3549:3554   */\n      dup3\n        /* \"#utility.yul\":3545:3561   */\n      add\n        /* \"#utility.yul\":3539:3562   */\n      mload\n        /* \"#utility.yul\":3575:3638   */\n      tag_65\n        /* \"#utility.yul\":3632:3636   */\n      0xe0\n        /* \"#utility.yul\":3627:3630   */\n      dup6\n        /* \"#utility.yul\":3623:3637   */\n      add\n        /* \"#utility.yul\":3609:3621   */\n      dup3\n        /* \"#utility.yul\":3575:3638   */\n      tag_58\n      jump\t// in\n    tag_65:\n        /* \"#utility.yul\":3483:3648   */\n      pop\n        /* \"#utility.yul\":3733:3739   */\n      0x0100\n        /* \"#utility.yul\":3726:3731   */\n      dup3\n        /* \"#utility.yul\":3722:3740   */\n      add\n        /* \"#utility.yul\":3716:3741   */\n      mload\n        /* \"#utility.yul\":3754:3819   */\n      tag_66\n        /* \"#utility.yul\":3811:3817   */\n      0x0100\n        /* \"#utility.yul\":3806:3809   */\n      dup6\n        /* \"#utility.yul\":3802:3818   */\n      add\n        /* \"#utility.yul\":3788:3800   */\n      dup3\n        /* \"#utility.yul\":3754:3819   */\n      tag_58\n      jump\t// in\n    tag_66:\n        /* \"#utility.yul\":3658:3829   */\n      pop\n        /* \"#utility.yul\":3912:3918   */\n      0x0120\n        /* \"#utility.yul\":3905:3910   */\n      dup3\n        /* \"#utility.yul\":3901:3919   */\n      add\n        /* \"#utility.yul\":3895:3920   */\n      mload\n        /* \"#utility.yul\":3933:3998   */\n      tag_67\n        /* \"#utility.yul\":3990:3996   */\n      0x0120\n        /* \"#utility.yul\":3985:3988   */\n      dup6\n        /* \"#utility.yul\":3981:3997   */\n      add\n        /* \"#utility.yul\":3967:3979   */\n      dup3\n        /* \"#utility.yul\":3933:3998   */\n      tag_58\n      jump\t// in\n    tag_67:\n        /* \"#utility.yul\":3839:4008   */\n      pop\n        /* \"#utility.yul\":2178:4015   */\n      pop\n      pop\n      pop\n      jump\t// out\n        /* \"#utility.yul\":4021:4129   */\n    tag_58:\n        /* \"#utility.yul\":4098:4122   */\n      tag_69\n        /* \"#utility.yul\":4116:4121   */\n      dup2\n        /* \"#utility.yul\":4098:4122   */\n      tag_70\n      jump\t// in\n    tag_69:\n        /* \"#utility.yul\":4093:4096   */\n      dup3\n        /* \"#utility.yul\":4086:4123   */\n      mstore\n        /* \"#utility.yul\":4076:4129   */\n      pop\n      pop\n      jump\t// out\n        /* \"#utility.yul\":4135:4253   */\n    tag_71:\n        /* \"#utility.yul\":4222:4246   */\n      tag_73\n        /* \"#utility.yul\":4240:4245   */\n      dup2\n        /* \"#utility.yul\":4222:4246   */\n      tag_70\n      jump\t// in\n    tag_73:\n        /* \"#utility.yul\":4217:4220   */\n      dup3\n        /* \"#utility.yul\":4210:4247   */\n      mstore\n        /* \"#utility.yul\":4200:4253   */\n      pop\n      pop\n      jump\t// out\n        /* \"#utility.yul\":4259:4570   */\n    tag_12:\n      0x00\n        /* \"#utility.yul\":4434:4437   */\n      0x0140\n        /* \"#utility.yul\":4423:4432   */\n      dup3\n        /* \"#utility.yul\":4419:4438   */\n      add\n        /* \"#utility.yul\":4411:4438   */\n      swap1\n      pop\n        /* \"#utility.yul\":4448:4563   */\n      tag_75\n        /* \"#utility.yul\":4560:4561   */\n      0x00\n        /* \"#utility.yul\":4549:4558   */\n      dup4\n        /* \"#utility.yul\":4545:4562   */\n      add\n        /* \"#utility.yul\":4536:4542   */\n      dup5\n        /* \"#utility.yul\":4448:4563   */\n      tag_55\n      jump\t// in\n    tag_75:\n        /* \"#utility.yul\":4401:4570   */\n      swap3\n      swap2\n      pop\n      pop\n      jump\t// out\n        /* \"#utility.yul\":4576:4798   */\n    tag_20:\n      0x00\n        /* \"#utility.yul\":4707:4709   */\n      0x20\n        /* \"#utility.yul\":4696:4705   */\n      dup3\n        /* \"#utility.yul\":4692:4710   */\n      add\n        /* \"#utility.yul\":4684:4710   */\n      swap1\n      pop\n        /* \"#utility.yul\":4720:4791   */\n      tag_77\n        /* \"#utility.yul\":4788:4789   */\n      0x00\n        /* \"#utility.yul\":4777:4786   */\n      dup4\n        /* \"#utility.yul\":4773:4790   */\n      add\n        /* \"#utility.yul\":4764:4770   */\n      dup5\n        /* \"#utility.yul\":4720:4791   */\n      tag_71\n      jump\t// in\n    tag_77:\n        /* \"#utility.yul\":4674:4798   */\n      swap3\n      swap2\n      pop\n      pop\n      jump\t// out\n        /* \"#utility.yul\":4804:4881   */\n    tag_70:\n      0x00\n        /* \"#utility.yul\":4870:4875   */\n      dup2\n        /* \"#utility.yul\":4859:4875   */\n      swap1\n      pop\n        /* \"#utility.yul\":4849:4881   */\n      swap2\n      swap1\n      pop\n      jump\t// out\n        /* \"#utility.yul\":4887:5009   */\n    tag_39:\n        /* \"#utility.yul\":4960:4984   */\n      tag_80\n        /* \"#utility.yul\":4978:4983   */\n      dup2\n        /* \"#utility.yul\":4960:4984   */\n      tag_70\n      jump\t// in\n    tag_80:\n        /* \"#utility.yul\":4953:4958   */\n      dup2\n        /* \"#utility.yul\":4950:4985   */\n      eq\n        /* \"#utility.yul\":4940:4942   */\n      tag_81\n      jumpi\n        /* \"#utility.yul\":4999:5000   */\n      0x00\n        /* \"#utility.yul\":4996:4997   */\n      dup1\n        /* \"#utility.yul\":4989:5001   */\n      revert\n        /* \"#utility.yul\":4940:4942   */\n    tag_81:\n        /* \"#utility.yul\":4930:5009   */\n      pop\n      jump\t// out\n\n    auxdata: 0xa26469706673582212208b87a2f1b85ec9016aceefdb2c442ff2a90edb641db6106b56cf987851063a6664736f6c63430008000033\n}\n",
				"bytecode": {
					"linkReferences": {},
					"object": "608060405234801561001057600080fd5b50610675806100206000396000f3fe608060405234801561001057600080fd5b506004361061004b5760003560e01c8062820349146100505780636e965ad0146100805780637fa9571f1461009c578063d8483775146100ba575b600080fd5b61006a600480360381019061006591906103f9565b6100d6565b60405161007791906105e7565b60405180910390f35b61009a60048036038101906100959190610422565b61019d565b005b6100a4610282565b6040516100b19190610603565b60405180910390f35b6100d460048036038101906100cf9190610422565b61028e565b005b6100de610391565b60008281548110610118577f4e487b7100000000000000000000000000000000000000000000000000000000600052603260045260246000fd5b90600052602060002090600a0201604051806101400160405290816000820154815260200160018201548152602001600282015481526020016003820154815260200160048201548152602001600582015481526020016006820154815260200160078201548152602001600882015481526020016009820154815250509050919050565b60006040518061014001604052808c81526020018b81526020018a81526020018981526020018881526020018781526020018681526020018581526020018481526020018381525090806001815401808255809150506001900390600052602060002090600a0201600090919091909150600082015181600001556020820151816001015560408201518160020155606082015181600301556080820151816004015560a0820151816005015560c0820151816006015560e0820151816007015561010082015181600801556101208201518160090155505050505050505050505050565b60008080549050905090565b6040518061014001604052808b81526020018a81526020018981526020018881526020018781526020018681526020018581526020018481526020018381526020018281525060008b8154811061030e577f4e487b7100000000000000000000000000000000000000000000000000000000600052603260045260246000fd5b90600052602060002090600a0201600082015181600001556020820151816001015560408201518160020155606082015181600301556080820151816004015560a0820151816005015560c0820151816006015560e082015181600701556101008201518160080155610120820151816009015590505050505050505050505050565b604051806101400160405280600081526020016000815260200160008152602001600081526020016000815260200160008152602001600081526020016000815260200160008152602001600081525090565b6000813590506103f381610628565b92915050565b60006020828403121561040b57600080fd5b6000610419848285016103e4565b91505092915050565b6000806000806000806000806000806101408b8d03121561044257600080fd5b60006104508d828e016103e4565b9a505060206104618d828e016103e4565b99505060406104728d828e016103e4565b98505060606104838d828e016103e4565b97505060806104948d828e016103e4565b96505060a06104a58d828e016103e4565b95505060c06104b68d828e016103e4565b94505060e06104c78d828e016103e4565b9350506101006104d98d828e016103e4565b9250506101206104eb8d828e016103e4565b9150509295989b9194979a5092959850565b6101408201600082015161051460008501826105c9565b50602082015161052760208501826105c9565b50604082015161053a60408501826105c9565b50606082015161054d60608501826105c9565b50608082015161056060808501826105c9565b5060a082015161057360a08501826105c9565b5060c082015161058660c08501826105c9565b5060e082015161059960e08501826105c9565b506101008201516105ae6101008501826105c9565b506101208201516105c36101208501826105c9565b50505050565b6105d28161061e565b82525050565b6105e18161061e565b82525050565b6000610140820190506105fd60008301846104fd565b92915050565b600060208201905061061860008301846105d8565b92915050565b6000819050919050565b6106318161061e565b811461063c57600080fd5b5056fea26469706673582212208b87a2f1b85ec9016aceefdb2c442ff2a90edb641db6106b56cf987851063a6664736f6c63430008000033",
					"opcodes": "PUSH1 0x80 PUSH1 0x40 MSTORE CALLVALUE DUP1 ISZERO PUSH2 0x10 JUMPI PUSH1 0x0 DUP1 REVERT JUMPDEST POP PUSH2 0x675 DUP1 PUSH2 0x20 PUSH1 0x0 CODECOPY PUSH1 0x0 RETURN INVALID PUSH1 0x80 PUSH1 0x40 MSTORE CALLVALUE DUP1 ISZERO PUSH2 0x10 JUMPI PUSH1 0x0 DUP1 REVERT JUMPDEST POP PUSH1 0x4 CALLDATASIZE LT PUSH2 0x4B JUMPI PUSH1 0x0 CALLDATALOAD PUSH1 0xE0 SHR DUP1 PUSH3 0x820349 EQ PUSH2 0x50 JUMPI DUP1 PUSH4 0x6E965AD0 EQ PUSH2 0x80 JUMPI DUP1 PUSH4 0x7FA9571F EQ PUSH2 0x9C JUMPI DUP1 PUSH4 0xD8483775 EQ PUSH2 0xBA JUMPI JUMPDEST PUSH1 0x0 DUP1 REVERT JUMPDEST PUSH2 0x6A PUSH1 0x4 DUP1 CALLDATASIZE SUB DUP2 ADD SWAP1 PUSH2 0x65 SWAP2 SWAP1 PUSH2 0x3F9 JUMP JUMPDEST PUSH2 0xD6 JUMP JUMPDEST PUSH1 0x40 MLOAD PUSH2 0x77 SWAP2 SWAP1 PUSH2 0x5E7 JUMP JUMPDEST PUSH1 0x40 MLOAD DUP1 SWAP2 SUB SWAP1 RETURN JUMPDEST PUSH2 0x9A PUSH1 0x4 DUP1 CALLDATASIZE SUB DUP2 ADD SWAP1 PUSH2 0x95 SWAP2 SWAP1 PUSH2 0x422 JUMP JUMPDEST PUSH2 0x19D JUMP JUMPDEST STOP JUMPDEST PUSH2 0xA4 PUSH2 0x282 JUMP JUMPDEST PUSH1 0x40 MLOAD PUSH2 0xB1 SWAP2 SWAP1 PUSH2 0x603 JUMP JUMPDEST PUSH1 0x40 MLOAD DUP1 SWAP2 SUB SWAP1 RETURN JUMPDEST PUSH2 0xD4 PUSH1 0x4 DUP1 CALLDATASIZE SUB DUP2 ADD SWAP1 PUSH2 0xCF SWAP2 SWAP1 PUSH2 0x422 JUMP JUMPDEST PUSH2 0x28E JUMP JUMPDEST STOP JUMPDEST PUSH2 0xDE PUSH2 0x391 JUMP JUMPDEST PUSH1 0x0 DUP3 DUP2 SLOAD DUP2 LT PUSH2 0x118 JUMPI PUSH32 0x4E487B7100000000000000000000000000000000000000000000000000000000 PUSH1 0x0 MSTORE PUSH1 0x32 PUSH1 0x4 MSTORE PUSH1 0x24 PUSH1 0x0 REVERT JUMPDEST SWAP1 PUSH1 0x0 MSTORE PUSH1 0x20 PUSH1 0x0 KECCAK256 SWAP1 PUSH1 0xA MUL ADD PUSH1 0x40 MLOAD DUP1 PUSH2 0x140 ADD PUSH1 0x40 MSTORE SWAP1 DUP2 PUSH1 0x0 DUP3 ADD SLOAD DUP2 MSTORE PUSH1 0x20 ADD PUSH1 0x1 DUP3 ADD SLOAD DUP2 MSTORE PUSH1 0x20 ADD PUSH1 0x2 DUP3 ADD SLOAD DUP2 MSTORE PUSH1 0x20 ADD PUSH1 0x3 DUP3 ADD SLOAD DUP2 MSTORE PUSH1 0x20 ADD PUSH1 0x4 DUP3 ADD SLOAD DUP2 MSTORE PUSH1 0x20 ADD PUSH1 0x5 DUP3 ADD SLOAD DUP2 MSTORE PUSH1 0x20 ADD PUSH1 0x6 DUP3 ADD SLOAD DUP2 MSTORE PUSH1 0x20 ADD PUSH1 0x7 DUP3 ADD SLOAD DUP2 MSTORE PUSH1 0x20 ADD PUSH1 0x8 DUP3 ADD SLOAD DUP2 MSTORE PUSH1 0x20 ADD PUSH1 0x9 DUP3 ADD SLOAD DUP2 MSTORE POP POP SWAP1 POP SWAP2 SWAP1 POP JUMP JUMPDEST PUSH1 0x0 PUSH1 0x40 MLOAD DUP1 PUSH2 0x140 ADD PUSH1 0x40 MSTORE DUP1 DUP13 DUP2 MSTORE PUSH1 0x20 ADD DUP12 DUP2 MSTORE PUSH1 0x20 ADD DUP11 DUP2 MSTORE PUSH1 0x20 ADD DUP10 DUP2 MSTORE PUSH1 0x20 ADD DUP9 DUP2 MSTORE PUSH1 0x20 ADD DUP8 DUP2 MSTORE PUSH1 0x20 ADD DUP7 DUP2 MSTORE PUSH1 0x20 ADD DUP6 DUP2 MSTORE PUSH1 0x20 ADD DUP5 DUP2 MSTORE PUSH1 0x20 ADD DUP4 DUP2 MSTORE POP SWAP1 DUP1 PUSH1 0x1 DUP2 SLOAD ADD DUP1 DUP3 SSTORE DUP1 SWAP2 POP POP PUSH1 0x1 SWAP1 SUB SWAP1 PUSH1 0x0 MSTORE PUSH1 0x20 PUSH1 0x0 KECCAK256 SWAP1 PUSH1 0xA MUL ADD PUSH1 0x0 SWAP1 SWAP2 SWAP1 SWAP2 SWAP1 SWAP2 POP PUSH1 0x0 DUP3 ADD MLOAD DUP2 PUSH1 0x0 ADD SSTORE PUSH1 0x20 DUP3 ADD MLOAD DUP2 PUSH1 0x1 ADD SSTORE PUSH1 0x40 DUP3 ADD MLOAD DUP2 PUSH1 0x2 ADD SSTORE PUSH1 0x60 DUP3 ADD MLOAD DUP2 PUSH1 0x3 ADD SSTORE PUSH1 0x80 DUP3 ADD MLOAD DUP2 PUSH1 0x4 ADD SSTORE PUSH1 0xA0 DUP3 ADD MLOAD DUP2 PUSH1 0x5 ADD SSTORE PUSH1 0xC0 DUP3 ADD MLOAD DUP2 PUSH1 0x6 ADD SSTORE PUSH1 0xE0 DUP3 ADD MLOAD DUP2 PUSH1 0x7 ADD SSTORE PUSH2 0x100 DUP3 ADD MLOAD DUP2 PUSH1 0x8 ADD SSTORE PUSH2 0x120 DUP3 ADD MLOAD DUP2 PUSH1 0x9 ADD SSTORE POP POP POP POP POP POP POP POP POP POP POP POP JUMP JUMPDEST PUSH1 0x0 DUP1 DUP1 SLOAD SWAP1 POP SWAP1 POP SWAP1 JUMP JUMPDEST PUSH1 0x40 MLOAD DUP1 PUSH2 0x140 ADD PUSH1 0x40 MSTORE DUP1 DUP12 DUP2 MSTORE PUSH1 0x20 ADD DUP11 DUP2 MSTORE PUSH1 0x20 ADD DUP10 DUP2 MSTORE PUSH1 0x20 ADD DUP9 DUP2 MSTORE PUSH1 0x20 ADD DUP8 DUP2 MSTORE PUSH1 0x20 ADD DUP7 DUP2 MSTORE PUSH1 0x20 ADD DUP6 DUP2 MSTORE PUSH1 0x20 ADD DUP5 DUP2 MSTORE PUSH1 0x20 ADD DUP4 DUP2 MSTORE PUSH1 0x20 ADD DUP3 DUP2 MSTORE POP PUSH1 0x0 DUP12 DUP2 SLOAD DUP2 LT PUSH2 0x30E JUMPI PUSH32 0x4E487B7100000000000000000000000000000000000000000000000000000000 PUSH1 0x0 MSTORE PUSH1 0x32 PUSH1 0x4 MSTORE PUSH1 0x24 PUSH1 0x0 REVERT JUMPDEST SWAP1 PUSH1 0x0 MSTORE PUSH1 0x20 PUSH1 0x0 KECCAK256 SWAP1 PUSH1 0xA MUL ADD PUSH1 0x0 DUP3 ADD MLOAD DUP2 PUSH1 0x0 ADD SSTORE PUSH1 0x20 DUP3 ADD MLOAD DUP2 PUSH1 0x1 ADD SSTORE PUSH1 0x40 DUP3 ADD MLOAD DUP2 PUSH1 0x2 ADD SSTORE PUSH1 0x60 DUP3 ADD MLOAD DUP2 PUSH1 0x3 ADD SSTORE PUSH1 0x80 DUP3 ADD MLOAD DUP2 PUSH1 0x4 ADD SSTORE PUSH1 0xA0 DUP3 ADD MLOAD DUP2 PUSH1 0x5 ADD SSTORE PUSH1 0xC0 DUP3 ADD MLOAD DUP2 PUSH1 0x6 ADD SSTORE PUSH1 0xE0 DUP3 ADD MLOAD DUP2 PUSH1 0x7 ADD SSTORE PUSH2 0x100 DUP3 ADD MLOAD DUP2 PUSH1 0x8 ADD SSTORE PUSH2 0x120 DUP3 ADD MLOAD DUP2 PUSH1 0x9 ADD SSTORE SWAP1 POP POP POP POP POP POP POP POP POP POP POP POP JUMP JUMPDEST PUSH1 0x40 MLOAD DUP1 PUSH2 0x140 ADD PUSH1 0x40 MSTORE DUP1 PUSH1 0x0 DUP2 MSTORE PUSH1 0x20 ADD PUSH1 0x0 DUP2 MSTORE PUSH1 0x20 ADD PUSH1 0x0 DUP2 MSTORE PUSH1 0x20 ADD PUSH1 0x0 DUP2 MSTORE PUSH1 0x20 ADD PUSH1 0x0 DUP2 MSTORE PUSH1 0x20 ADD PUSH1 0x0 DUP2 MSTORE PUSH1 0x20 ADD PUSH1 0x0 DUP2 MSTORE PUSH1 0x20 ADD PUSH1 0x0 DUP2 MSTORE PUSH1 0x20 ADD PUSH1 0x0 DUP2 MSTORE PUSH1 0x20 ADD PUSH1 0x0 DUP2 MSTORE POP SWAP1 JUMP JUMPDEST PUSH1 0x0 DUP2 CALLDATALOAD SWAP1 POP PUSH2 0x3F3 DUP2 PUSH2 0x628 JUMP JUMPDEST SWAP3 SWAP2 POP POP JUMP JUMPDEST PUSH1 0x0 PUSH1 0x20 DUP3 DUP5 SUB SLT ISZERO PUSH2 0x40B JUMPI PUSH1 0x0 DUP1 REVERT JUMPDEST PUSH1 0x0 PUSH2 0x419 DUP5 DUP3 DUP6 ADD PUSH2 0x3E4 JUMP JUMPDEST SWAP2 POP POP SWAP3 SWAP2 POP POP JUMP JUMPDEST PUSH1 0x0 DUP1 PUSH1 0x0 DUP1 PUSH1 0x0 DUP1 PUSH1 0x0 DUP1 PUSH1 0x0 DUP1 PUSH2 0x140 DUP12 DUP14 SUB SLT ISZERO PUSH2 0x442 JUMPI PUSH1 0x0 DUP1 REVERT JUMPDEST PUSH1 0x0 PUSH2 0x450 DUP14 DUP3 DUP15 ADD PUSH2 0x3E4 JUMP JUMPDEST SWAP11 POP POP PUSH1 0x20 PUSH2 0x461 DUP14 DUP3 DUP15 ADD PUSH2 0x3E4 JUMP JUMPDEST SWAP10 POP POP PUSH1 0x40 PUSH2 0x472 DUP14 DUP3 DUP15 ADD PUSH2 0x3E4 JUMP JUMPDEST SWAP9 POP POP PUSH1 0x60 PUSH2 0x483 DUP14 DUP3 DUP15 ADD PUSH2 0x3E4 JUMP JUMPDEST SWAP8 POP POP PUSH1 0x80 PUSH2 0x494 DUP14 DUP3 DUP15 ADD PUSH2 0x3E4 JUMP JUMPDEST SWAP7 POP POP PUSH1 0xA0 PUSH2 0x4A5 DUP14 DUP3 DUP15 ADD PUSH2 0x3E4 JUMP JUMPDEST SWAP6 POP POP PUSH1 0xC0 PUSH2 0x4B6 DUP14 DUP3 DUP15 ADD PUSH2 0x3E4 JUMP JUMPDEST SWAP5 POP POP PUSH1 0xE0 PUSH2 0x4C7 DUP14 DUP3 DUP15 ADD PUSH2 0x3E4 JUMP JUMPDEST SWAP4 POP POP PUSH2 0x100 PUSH2 0x4D9 DUP14 DUP3 DUP15 ADD PUSH2 0x3E4 JUMP JUMPDEST SWAP3 POP POP PUSH2 0x120 PUSH2 0x4EB DUP14 DUP3 DUP15 ADD PUSH2 0x3E4 JUMP JUMPDEST SWAP2 POP POP SWAP3 SWAP6 SWAP9 SWAP12 SWAP2 SWAP5 SWAP8 SWAP11 POP SWAP3 SWAP6 SWAP9 POP JUMP JUMPDEST PUSH2 0x140 DUP3 ADD PUSH1 0x0 DUP3 ADD MLOAD PUSH2 0x514 PUSH1 0x0 DUP6 ADD DUP3 PUSH2 0x5C9 JUMP JUMPDEST POP PUSH1 0x20 DUP3 ADD MLOAD PUSH2 0x527 PUSH1 0x20 DUP6 ADD DUP3 PUSH2 0x5C9 JUMP JUMPDEST POP PUSH1 0x40 DUP3 ADD MLOAD PUSH2 0x53A PUSH1 0x40 DUP6 ADD DUP3 PUSH2 0x5C9 JUMP JUMPDEST POP PUSH1 0x60 DUP3 ADD MLOAD PUSH2 0x54D PUSH1 0x60 DUP6 ADD DUP3 PUSH2 0x5C9 JUMP JUMPDEST POP PUSH1 0x80 DUP3 ADD MLOAD PUSH2 0x560 PUSH1 0x80 DUP6 ADD DUP3 PUSH2 0x5C9 JUMP JUMPDEST POP PUSH1 0xA0 DUP3 ADD MLOAD PUSH2 0x573 PUSH1 0xA0 DUP6 ADD DUP3 PUSH2 0x5C9 JUMP JUMPDEST POP PUSH1 0xC0 DUP3 ADD MLOAD PUSH2 0x586 PUSH1 0xC0 DUP6 ADD DUP3 PUSH2 0x5C9 JUMP JUMPDEST POP PUSH1 0xE0 DUP3 ADD MLOAD PUSH2 0x599 PUSH1 0xE0 DUP6 ADD DUP3 PUSH2 0x5C9 JUMP JUMPDEST POP PUSH2 0x100 DUP3 ADD MLOAD PUSH2 0x5AE PUSH2 0x100 DUP6 ADD DUP3 PUSH2 0x5C9 JUMP JUMPDEST POP PUSH2 0x120 DUP3 ADD MLOAD PUSH2 0x5C3 PUSH2 0x120 DUP6 ADD DUP3 PUSH2 0x5C9 JUMP JUMPDEST POP POP POP POP JUMP JUMPDEST PUSH2 0x5D2 DUP2 PUSH2 0x61E JUMP JUMPDEST DUP3 MSTORE POP POP JUMP JUMPDEST PUSH2 0x5E1 DUP2 PUSH2 0x61E JUMP JUMPDEST DUP3 MSTORE POP POP JUMP JUMPDEST PUSH1 0x0 PUSH2 0x140 DUP3 ADD SWAP1 POP PUSH2 0x5FD PUSH1 0x0 DUP4 ADD DUP5 PUSH2 0x4FD JUMP JUMPDEST SWAP3 SWAP2 POP POP JUMP JUMPDEST PUSH1 0x0 PUSH1 0x20 DUP3 ADD SWAP1 POP PUSH2 0x618 PUSH1 0x0 DUP4 ADD DUP5 PUSH2 0x5D8 JUMP JUMPDEST SWAP3 SWAP2 POP POP JUMP JUMPDEST PUSH1 0x0 DUP2 SWAP1 POP SWAP2 SWAP1 POP JUMP JUMPDEST PUSH2 0x631 DUP2 PUSH2 0x61E JUMP JUMPDEST DUP2 EQ PUSH2 0x63C JUMPI PUSH1 0x0 DUP1 REVERT JUMPDEST POP JUMP INVALID LOG2 PUSH5 0x6970667358 0x22 SLT KECCAK256 DUP12 DUP8 LOG2 CALL 0xB8 0x5E 0xC9 ADD PUSH11 0xCEEFDB2C442FF2A90EDB64 SAR 0xB6 LT PUSH12 0x56CF987851063A6664736F6C PUSH4 0x43000800 STOP CALLER "
				},
				"gasEstimates": {
					"creation": {
						"codeDepositCost": "330600",
						"executionCost": "368",
						"totalCost": "330968"
					},
					"external": {
						"addDurian(uint256,uint256,uint256,uint256,uint256,uint256,uint256,uint256,uint256,uint256)": "infinite",
						"getDurianById(uint256)": "infinite",
						"getTotalDurians()": "1167",
						"setDurianById(uint256,uint256,uint256,uint256,uint256,uint256,uint256,uint256,uint256,uint256)": "infinite"
					}
				},
				"methodIdentifiers": {
					"addDurian(uint256,uint256,uint256,uint256,uint256,uint256,uint256,uint256,uint256,uint256)": "6e965ad0",
					"getDurianById(uint256)": "00820349",
					"getTotalDurians()": "7fa9571f",
					"setDurianById(uint256,uint256,uint256,uint256,uint256,uint256,uint256,uint256,uint256,uint256)": "d8483775"
				}
			},
			"storageLayout": {
				"storage": [
					{
						"astId": 67,
						"contract": "DurianContract.sol:DurianContract",
						"label": "durianList",
						"offset": 0,
						"slot": "0",
						"type": "t_array(t_struct(Durian)22_storage)dyn_storage"
					}
				],
				"types": {
					"t_array(t_struct(Durian)22_storage)dyn_storage": {
						"base": "t_struct(Durian)22_storage",
						"encoding": "dynamic_array",
						"label": "struct DurianContract.Durian[]",
						"numberOfBytes": "32"
					},
					"t_struct(Durian)22_storage": {
						"encoding": "inplace",
						"label": "struct DurianContract.Durian",
						"members": [
							{
								"astId": 3,
								"contract": "DurianContract.sol:DurianContract",
								"label": "id",
								"offset": 0,
								"slot": "0",
								"type": "t_uint256"
							},
							{
								"astId": 5,
								"contract": "DurianContract.sol:DurianContract",
								"label": "kind",
								"offset": 0,
								"slot": "1",
								"type": "t_uint256"
							},
							{
								"astId": 7,
								"contract": "DurianContract.sol:DurianContract",
								"label": "weight",
								"offset": 0,
								"slot": "2",
								"type": "t_uint256"
							},
							{
								"astId": 9,
								"contract": "DurianContract.sol:DurianContract",
								"label": "harvested_date_time",
								"offset": 0,
								"slot": "3",
								"type": "t_uint256"
							},
							{
								"astId": 11,
								"contract": "DurianContract.sol:DurianContract",
								"label": "harvested_by",
								"offset": 0,
								"slot": "4",
								"type": "t_uint256"
							},
							{
								"astId": 13,
								"contract": "DurianContract.sol:DurianContract",
								"label": "harvest_tree",
								"offset": 0,
								"slot": "5",
								"type": "t_uint256"
							},
							{
								"astId": 15,
								"contract": "DurianContract.sol:DurianContract",
								"label": "harvest_farm",
								"offset": 0,
								"slot": "6",
								"type": "t_uint256"
							},
							{
								"astId": 17,
								"contract": "DurianContract.sol:DurianContract",
								"label": "owner",
								"offset": 0,
								"slot": "7",
								"type": "t_uint256"
							},
							{
								"astId": 19,
								"contract": "DurianContract.sol:DurianContract",
								"label": "reviews",
								"offset": 0,
								"slot": "8",
								"type": "t_uint256"
							},
							{
								"astId": 21,
								"contract": "DurianContract.sol:DurianContract",
								"label": "image",
								"offset": 0,
								"slot": "9",
								"type": "t_uint256"
							}
						],
						"numberOfBytes": "320"
					},
					"t_uint256": {
						"encoding": "inplace",
						"label": "uint256",
						"numberOfBytes": "32"
					}
				}
			},
			"userdoc": {
				"kind": "user",
				"methods": {},
				"version": 1
			}
		}
	}
}