{
	"data": {
		"bytecode": {
			"linkReferences": {},
			"object": "6080604052600060015534801561001557600080fd5b5060f9806100246000396000f3fe6080604052348015600f57600080fd5b506004361060285760003560e01c806345bf89c114602d575b600080fd5b60436004803603810190603f9190605d565b6045565b005b505050565b60008135905060578160af565b92915050565b600080600060608486031215607157600080fd5b6000607d86828701604a565b9350506020608c86828701604a565b9250506040609b86828701604a565b9150509250925092565b6000819050919050565b60b68160a5565b811460c057600080fd5b5056fea2646970667358221220d27f0d0a0ac6e780fc32dff5db2f145e11be92b235413e5554a5279fc2d70dfd64736f6c63430008000033",
			"opcodes": "PUSH1 0x80 PUSH1 0x40 MSTORE PUSH1 0x0 PUSH1 0x1 SSTORE CALLVALUE DUP1 ISZERO PUSH2 0x15 JUMPI PUSH1 0x0 DUP1 REVERT JUMPDEST POP PUSH1 0xF9 DUP1 PUSH2 0x24 PUSH1 0x0 CODECOPY PUSH1 0x0 RETURN INVALID PUSH1 0x80 PUSH1 0x40 MSTORE CALLVALUE DUP1 ISZERO PUSH1 0xF JUMPI PUSH1 0x0 DUP1 REVERT JUMPDEST POP PUSH1 0x4 CALLDATASIZE LT PUSH1 0x28 JUMPI PUSH1 0x0 CALLDATALOAD PUSH1 0xE0 SHR DUP1 PUSH4 0x45BF89C1 EQ PUSH1 0x2D JUMPI JUMPDEST PUSH1 0x0 DUP1 REVERT JUMPDEST PUSH1 0x43 PUSH1 0x4 DUP1 CALLDATASIZE SUB DUP2 ADD SWAP1 PUSH1 0x3F SWAP2 SWAP1 PUSH1 0x5D JUMP JUMPDEST PUSH1 0x45 JUMP JUMPDEST STOP JUMPDEST POP POP POP JUMP JUMPDEST PUSH1 0x0 DUP2 CALLDATALOAD SWAP1 POP PUSH1 0x57 DUP2 PUSH1 0xAF JUMP JUMPDEST SWAP3 SWAP2 POP POP JUMP JUMPDEST PUSH1 0x0 DUP1 PUSH1 0x0 PUSH1 0x60 DUP5 DUP7 SUB SLT ISZERO PUSH1 0x71 JUMPI PUSH1 0x0 DUP1 REVERT JUMPDEST PUSH1 0x0 PUSH1 0x7D DUP7 DUP3 DUP8 ADD PUSH1 0x4A JUMP JUMPDEST SWAP4 POP POP PUSH1 0x20 PUSH1 0x8C DUP7 DUP3 DUP8 ADD PUSH1 0x4A JUMP JUMPDEST SWAP3 POP POP PUSH1 0x40 PUSH1 0x9B DUP7 DUP3 DUP8 ADD PUSH1 0x4A JUMP JUMPDEST SWAP2 POP POP SWAP3 POP SWAP3 POP SWAP3 JUMP JUMPDEST PUSH1 0x0 DUP2 SWAP1 POP SWAP2 SWAP1 POP JUMP JUMPDEST PUSH1 0xB6 DUP2 PUSH1 0xA5 JUMP JUMPDEST DUP2 EQ PUSH1 0xC0 JUMPI PUSH1 0x0 DUP1 REVERT JUMPDEST POP JUMP INVALID LOG2 PUSH5 0x6970667358 0x22 SLT KECCAK256 0xD2 PUSH32 0xD0A0AC6E780FC32DFF5DB2F145E11BE92B235413E5554A5279FC2D70DFD6473 PUSH16 0x6C634300080000330000000000000000 "
		},
		"gasEstimates": {
			"creation": {
				"codeDepositCost": "49800",
				"executionCost": "5105",
				"totalCost": "54905"
			},
			"external": {
				"addDurian(uint256,uint256,uint256)": "infinite"
			}
		},
		"methodIdentifiers": {
			"addDurian(uint256,uint256,uint256)": "45bf89c1"
		}
	},
	"abi": [
		{
			"inputs": [
				{
					"internalType": "uint256",
					"name": "id",
					"type": "uint256"
				},
				{
					"internalType": "uint256",
					"name": "kind",
					"type": "uint256"
				},
				{
					"internalType": "uint256",
					"name": "weight",
					"type": "uint256"
				}
			],
			"name": "addDurian",
			"outputs": [],
			"stateMutability": "nonpayable",
			"type": "function"
		}
	]
}